:020000040800F2
:1000000000000110C95F03082FF80208A54001088D
:100010008560030885600308856003080000000010
:100020000000000000000000000000002DF80208A1
:100030002BF802080000000029F80208996E000859
:1000400085600308856003088560030885600308F0
:1000500085600308856003080B0F0008130F000874
:1000600085600308110F00080F0F00082DB7020864
:100070001DB702080DB70208FDB60208E9B602086E
:10008000D5B60208C1B6020885600308856003087A
:100090008560030885600308856003080D0F00086C
:1000A00065B802083DB8020815B802088DB8020804
:1000B00005B80208F1B70208DDB702088560030839
:1000C0008560030885600308856003088560030870
:1000D00085600308B1C00208A9C002088560030852
:1000E000090F000885600308052703088DB702087B
:1000F00065B702083DB70208B5B70208ADB60208F9
:100100008560030885600308C9B702088560030895
:1001100085600308A1C002088560030885600308A4
:1001200099B6020885B6020871B602085DB60208E3
:1001300049B60208856003088560030885600308E6
:10014000856003088560030885600308792103083A
:1001500035B6020821B602080BB60208856003080E
:1001600085600308856003088560030885600308CF
:1001700085600308856003088560030885600308BF
:08018000856003088560030897
:1001880083681A68937A0133DBB20A2B937205D914
:1001980050780349002321F810309372704700BF4C
:1001A800A248002070B54F4C237814200133B3FBCC
:1001B800F0F200FB123323704B4B5D68186D9A68A0
:1001C800A94208440CD293F85850002D00F08580BD
:1001D80000F58030824238D3C2F5803202440AE00A
:1001E8008242F9D293F85850002D0CBF00254FF4E5
:1001F8008035821A521B59606178DA600022013119
:1002080083F858201422986091FBF2F002FB101139
:100218006170A178D868013191FBF2F502FB1512E3
:10022800A27040F68C2290423CD9197893F9552057
:1002380091422BD10A1F0C2A28D893F85620182A45
:1002480006D8013283F8562004E04FF48035D0E711
:1002580083F8541093F9542091420FD193F8570022
:1002680060B1224C224D0020904211DB204800242E
:100278000F2A13DD1F48027801320270012283F829
:10028800572083F8551000221A7070BD0022D9E754
:1002980054F8046F25F810600130E5E720F81240A3
:1002A8000132E5E793F85720DAB1A0F2EF2140F2E6
:1002B800DA52914207D81A780F2A04D8111D013250
:1002C80043F82100E0E7002283F8572010469918E8
:1002D8000432402A0861FAD170BD8242BFF47CAF73
:1002E80087E770BDA81500208835002094350020C8
:1002F800A24800208048002010B50B480378142439
:100308000133B3FBF4F204FB1233084A0370136D94
:1003180001330B4413654FF6FF73994204BF012361
:1003280082F8583010BD00BFA8150020883500207D
:100338000120704701207047F0B5094E34683F2C02
:100348000DDC0FC8074F4FEA041E0EEB070585E8C2
:100358000F00054B1B684EF8073001343460F0BDC0
:10036800643500206431002020B9002070B5104C9D
:1003780005460E4600220023D4E9020135F06EFA44
:1003880020B109A3D3E90023C4E90223304634F09D
:1003980097FFD4E9022335F023F935F0A7FA04EBE7
:1003A8004504208270BD00BFABAAAAAAAA46104085
:1003B800A81500200E4B98420AD0A3F5784398421E
:1003C80012D003F58063984210D04FF0FF30704789
:1003D8000023084A142101FB03231A8A013292B22E
:1003E8001A82188A80B270470123F2E70223F0E7E5
:1003F800003001403804002008B540F2E933028992
:10040800920708D589B2818140F2E9330289D2077F
:1004180009D5808905E0013B9BB2002BEFD1FFF79E
:10042800C9FFC0B208BD013B9BB2002BEED1F6E775
:10043800A0F13003DAB2092A01D818467047A0F1B2
:100448006103052B01D857387047A0F14103052BEC
:1004580094BF37384FF0FF30704703685A1C02606A
:100468001970704703685A1C0260197070472DE9AB
:10047800F84F002B14BF4FF030094FF020090A9BAA
:10048800141E07468846BABF64424FF0010B4FF06E
:10049800000B13F8012B02B1DCB9BBF1000F1ED120
:1004A800254615F1FF3516D223462C460A9D5E1BBC
:1004B80005EB060A15F8011B99B9BBF1000F05D029
:1004C8002546002D10DC002CA8BFA2445046BDE8EC
:1004D800F88F013CDDE749463846C047E1E700238D
:1004E800E4E73846C047E3E749463846C047013D98
:1004F800E7E7D0ED006AD0ED057AE6EE807AB0EE57
:10050800407AB0EE670AD0ED037AD0ED016A67EE63
:10051800C07AE7EE267AD0ED066A77EEA67AD0EDB5
:10052800026AC0ED057AD0ED047A67EEC07AE7EE8C
:10053800267AC0ED067A7047704743230B8001483E
:10054800704700BF0000002010B5064C606CFF2803
:1005580006D005490A6B343131F0FBFAFF23636496
:10056800002010BD00000020A815002008B5D0F814
:10057800E4355B6A9847002008BD08B5D0F8E43533
:100588001B6A9847002008BDD0F8E43510B504462A
:100598001B689847D4F8E8359B689847002010BD39
:1005A80008B5D0F8E435DB6903B19847002008BDE9
:1005B80008B590F8123180F81331042380F812310D
:1005C800D0F8E835DB689847002008BD10B5D0F8AA
:1005D800E83504461B699847032384F81231002044
:1005E80010BD70B54B784C69012B27D1826915680D
:1005F800136914B964F3060305E08E68B442F9D9A7
:100608004E6166F3060343F400231361C478012C9A
:1006180005D10B780E6900EB83039B695E6145F099
:100628000445156044B94B6933B102690978506BC8
:1006380001238B4003435363002070BD0B788E6801
:1006480000EB83035A6D156813696CB966F30603EA
:1006580043F400231361C378012B04BF0B69536172
:1006680045F004451560E7E74E61EFE72DE9F041F5
:100678004A780C784B69012A51D100EB840EDEF8D8
:1006880018703D683E6963F312061BBB62F3DC46D3
:100698003E61C278012A2CD10C697C61CC78012C8E
:1006A80007D100698068C00554BF45F0005545F082
:1006B800805545F00445012C3D6008D13AB99BB2FC
:1006C8000333C968DEF8D0009B10934222D1002082
:1006D800BDE8F081D1F808C003EB0C02013AB2FB87
:1006E800FCF262F3DC46CA78012A08BF62F35E7640
:1006F800CEE7CE78012ED1D0002BCFD0D0F810C0C5
:100708000126DCF8348006FA04F444EA0804CCF83C
:100718003440C3E751F8224004600132D5E700EBCA
:1007280084048A68646D25682669ABB962F3120689
:10073800012363F3DC462661C378012B04BF0B69F0
:100748006361CB78012B03D14B79A3B145F00055F8
:1007580045F004452560BAE71344013BB3FBF2F3C7
:1007680063F3DC46C3F30903534363F31206C3F38D
:1007780012034B61DFE745F08055E9E770B501F0FA
:100788007F05282404FB050104FB05040126C4F8A1
:100798002821C4F82C21002201F58E7184F81D61EE
:1007A80084F81C51C4F83421C4F830311DB9FFF75E
:1007B80018FF002070BDFFF759FFFAE71F4BDA6BEF
:1007C8000F2A70B502F101011E4602D0D96300203C
:1007D80070BD1B4C0023F3632378002BF7D1194D10
:1007E8002A68B2F5006F08BF2B60174B29681B6891
:1007F800994202D100232370E9E78CBFC1F5006359
:100808005B1A3364336C402B8AB20CD9403B4031BD
:10081800336401232370296040230C490A44812151
:10082800FFF7ACFFD3E7194429604FF000013164AA
:100838000EBF022101219BB22170EEE7A81500200E
:100848001CB1002004B1002008B100201DB1002017
:1008580070B5174D2B78012B2C4603D1154E336CF0
:100868005BB92B702378022B16D100231A468121FD
:10087800FFF784FF002323700EE00F490C68402B1C
:10088800A2B20BD9403B403433640C6040230B497F
:100898000A448121FFF772FF002070BD1C440C60E0
:1008A8004FF0000131640ABF02219BB22970EEE7C4
:1008B8001CB10020A815002004B100201DB10020A3
:1008C80010B504461346C4F83C21C4F83821022266
:1008D80080F811210A460021FFF750FF002010BDC3
:1008E80070B501F07F04282606FB040506FB040109
:1008F800C5F88833002385F87443C5F88023C5F804
:100908008C3385F87533C37806FB0404012B08BFC4
:10091800C5F8842394F8743301F55D711BB9FFF7AA
:1009280060FE002070BDFFF7A1FEFAE738B5282366
:1009380003FB0101074DB1F88C130446284631F03A
:10094800D3F840232A4601212046FFF7C9FF00209B
:1009580038BD00BFEC15002030B54A780B7800256B
:10096800012A2C4610D100EB830102FA03F38969AE
:1009780063F30F0402696FF3CF350D60D36923EA7F
:100988000403D361002030BD00EB8302516D0122C6
:1009980002FA03F363F31F44ECE770B5044601253C
:1009A800002680F8445180F8455100F5A271FFF700
:1009B800D3FF04F5677184F89C5384F89D6320463F
:1009C800FFF7CAFF022384F86C3104F5B67184F886
:1009D8006D512046FFF7C0FF31F0FCF8304670BD7E
:1009E80030B54C780B78012C4FF000021DD100EB8C
:1009F800830504FA03F3AD6963F30F022B681C0443
:100A08000DD48C6864F30A03CC78C98864F39343E3
:100A180061F3995343F0805343F400432B60036917
:100A2800D9690A43DA61002030BD00EB8304656DA3
:100A3800012404FA03F363F31F42DFE72DE9F041D1
:100A480004460125022700264FF0400880F844514B
:100A580080F84551C0F84C8180F84771A0F84A5198
:100A680080F8486100F5A271FFF7BAFF04F56771D5
:100A780084F89C5384F89D63C4F8A48384F89F7316
:100A880084F8A0632046FFF7ABFF0823C4F874314D
:100A9800032304F5B67184F86F3184F86C7184F817
:100AA8006D51A4F872712046FFF79AFF064B1F712B
:100AB8005E7131F095F84346044A29462046FFF70F
:100AC8000FFF3046BDE8F08100150020EC1500202E
:100AD800F8B5044600254027012680F8745380F8AD
:100AE8007553C0F87C7380F8775300F55D71FFF794
:100AF80077FF04F58E7184F81C5184F81D61C4F8E1
:100B0800247184F81F51A4F822512046FFF768FF8A
:100B1800D4F8E83584F81261A0785B6898472846CD
:100B2800F8BD0E4BDA68D20310D4DA68D1060FD4B8
:100B3800DA68D2050ED4DA6812F0E00F0CD1DB685F
:100B480013F0020F14BF08200920704701207047D6
:100B5800062070470220704707207047003C02407B
:100B680007B509238DF80730FFF7DBFF8DF807007D
:100B78009DF80730012BF7D09DF8070003B05DF80A
:100B880004FB38B582681468A27803463AB9012391
:100B9800A370A1801146BDE8384022F017BEA08896
:100BA80089B2814238BF5A68E1803DBF1268D26A73
:100BB800121A091A38BF89182181064A61782089D2
:100BC80022F811000025A5700121184622F0FEFD2B
:100BD800A57238BDA2480020094B07EE901A53F8B9
:100BE8002030B8EEE77A93ED040AD3ED057A10B514
:100BF800A7EE270ADC6836F081F9206010BD00BF37
:100C080038A700202DE9F0410B4DDFF830802C6823
:100C18006A69012714400CB9BDE8F081B4FA84F37D
:100C2800C3F11F0307FA03F658F82300036898472F
:100C380024EA06046E61EEE7003C01402496002099
:100C480070B50A7812F0600406460D462AD0202CAA
:100C58002FD1CC884B78FCB112060CD522461E4900
:100C6800184630F076FFEA881B493046FFF728FE21
:100C78000024204670BD194AC0F894435364184AAA
:100C8800C0F890430323146380F8113134322346AB
:100C98000021FFF725FEEBE702221144184630F049
:100CA80058FFE6E74B780A2B07D00B2B0AD0062B08
:100CB800DFD121F0E5FE0224DBE701220949FFF735
:100CC800FFFDD6E78B781BB9054AC2F88430CFE719
:100CD80021F0D6FECDE700BFDC1500200000002083
:100CE800A81500202C16002003681B681847036805
:100CF800DB692DE9F04105460E4617468BB90C46CF
:100D08003B1B3344002B01DCBDE8F081284606F08C
:100D18006DFD0028FAD014F8011B2846FFF7E4FF00
:100D2800EEE7BDE8F0411847014B1868DCE700BF63
:100D3800A4C5002038B505460C4614F8011B01B9B6
:100D480038BD2846FFF7D0FFF7E70C4B1B681B019F
:100D580010B407D50A4B1B685B050BD55DF8044B2F
:100D6800FFF704BB074B53F820301BB107289CBF83
:100D7800DB6819605DF8044B704700BF6092002083
:100D880064920020C43600201FB5ADF80A30BDF8C3
:100D98001830ADF8040041F48041ADF80C306846D5
:100DA800BDF81C30ADF80610ADF80820ADF80E30CF
:100DB800FFF7C2FA05B05DF804FB1FB5ADF80400F3
:100DC8006846ADF80610FFF7B7FA05B05DF804FB02
:100DD800064B53F820303BB19A881B6859690A4280
:100DE80001D05A8370471A83704700BF949803084C
:100DF80010B50409013C032C00F00F0215D80C4B68
:100E080033F8141041FA02F313F001000ED0012058
:100E180090400138084034F04FFF064B1B5D1844E2
:100E2800054B0C2202FB003010BD002010BD00BF96
:100E38008C9803082C930308182F002010B103681E
:100E480082885A83704710B1036882881A83704772
:100E5800F8B5164690F90C2014235343104AD55878
:100E680083689A0704460F4606D40069FFF7E6FF31
:100E78000120002105F0DAFF39462846FFF7BCFAC1
:100E880031462846FFF7B8FAA3689B0706D4012025
:100E9800002105F0CBFF2069FFF7D5FF0120F8BD41
:100EA8003804002028B10368828809B11A83704782
:100EB8005A837047024B81F0010153F82000F1E793
:100EC8009498030830B1036882881B691A4214BFDA
:100ED80001200020704728B18088B0FA80F0C0F166
:100EE8001F0070474FF0FF30704730B1006800F1C5
:100EF8003F4000F57E00800A70474FF0FF30704792
:100F080080E67FE67EE67DE67CE67BE637B504464E
:100F18008B6821600D46984701232373FF22002325
:100F2800A3736273E3732B6B13B120469847E07386
:100F38000B4B93F888301BB1E37B23F00103E37379
:100F480023685B6B4BB1214601A8984728B1BDF8CF
:100F58000630013B238203B030BDFF23FAE700BF10
:100F6800A815002003689B6A184703685B6A18473E
:100F7800F7B5078A9F4204460D4609D301358572A5
:100F8800E272046800250095A469A04703B0F0BD8B
:100F98004FF0FF30FAE72DE9F04105468AB01846D0
:100FA8000F4690461C4634F031F83B189DF84060D7
:100FB800AB72EB7B85F80B8036EA030319D0F20796
:100FC80017D5114BC8221B68B3FBF2F3DB0706F0F9
:100FD800FE060ED51F2828BF1F20044602462021E2
:100FE80002A838F01EF90AAB1C44002304F8203C80
:100FF80002AC2B6800965E6942462346394628466D
:10100800B0470AB0BDE8F08120B900202DE9F341CE
:101018000446184616460D461F4633F0F7FF236868
:10102800E67228440022A0720092D3F81480324657
:101038003B4629462046C04702B0BDE8F081036818
:1010480010B504465B689847236820469B68984714
:10105800A37B013BA37310BD036810B504461B684E
:101068009847236820469B689847A37B0133A3735E
:1010780010BD03681B691847036810B59B680446D0
:10108800984701232373FF23637310BDF8B5848940
:101098004FF6FF764FF47A740BB90120F8BD92B180
:1010A800157801320789BF070FD5ADB285814FF496
:1010B8007A740589ED0712D58589ADB209B10D702D
:1010C8000131013BE8E7FF25ECE7013CA4B2B4425B
:1010D800E8D1FFF76FF9003018BF0120F8BD013CD7
:1010E800A4B2B442E5D1F4E770B5164690F90C20E5
:1010F800142353430C4AD55883689A07044602D4EC
:101108000069FFF79BFE2846FFF776F901230022C6
:1011180031462846FFF7BAFFA3689B0702D4206927
:10112800FFF791FE012070BD38040020F8B516467F
:1011380090F90C201F46142353430D4AD558836851
:101148009A07044602D40069FFF778FE2846FFF79D
:1011580053F93B46002231462846FFF797FFA3681C
:101168009B0702D42069FFF76EFE0120F8BD00BF7F
:1011780038040020F8B5164690F90C201F461423B1
:1011880053430D4AD55883689A07044602D4006928
:10119800FFF754FE2846FFF72FF93B463246002159
:1011A8002846FFF773FFA3689B0702D42069FFF75F
:1011B8004AFE0120F8BD00BF3804002003899B07C0
:1011C80052BF01200089C0F3C0107047F8B50679F6
:1011D800012E0546964609D0022E1FD18368DB07EB
:1011E80058BF41F08001BDE8F8407DE70C4B90F90D
:1011F8000C00182404FB003463786BB16B7BA1727C
:101208005B0023720023637223750223A370E660D8
:1012180022612BF0C5F8237D1846F8BD0023FBE7B3
:101228000C9700202DE9F0410479012C05468E46E3
:101238001F4609D0022C20D18468E40758BF41F02A
:101248008001BDE8F04171E70D4B90F90C001824BE
:1012580004FB003463786BB16B7BA1725B00237273
:101268000023637223750223A370E76022612BF0C9
:1012780097F8237D1846BDE8F0810023FAE700BF00
:101288000C97002073B50379012B0D4616460AD03A
:10129800022B25D18368DB0758BF01F07F01FFF7D8
:1012A800D7FD02B070BD90F90C10427B0D488DF847
:1012B8000760182404FB010460780028F1D06372E9
:1012C800E3600DF107032361002352002375022315
:1012D80008462272A572A3702BF062F8207DE0E721
:1012E8000020DEE70C9700200A4B70B50E46D3F8B5
:1012F8008C50811C89000446F2B201F0FC0128469A
:10130800FFF7C0FFA1000931320A2846C9B2BDE87B
:101318007040B7E7A81500202DE9F0410E4E804631
:10132800002406F18007E0B200F0030343450ED124
:1013380036F8145037F81430EB1A002BB8BF5B425C
:10134800052B04DD2946FFF7CFFF27F81450013499
:10135800102CE8D1BDE8F081B815002038B50F4D44
:101368001022002141F2D774B4FBF0F4D5F88C00B8
:10137800FFF788FF012005F06AFD621ED2B2FE2148
:10138800D5F88C00FFF77EFF012005F060FDD5F849
:101398008C0080220021BDE8384073E7A8150020A2
:1013A8002DE9F0410679012E054696469C4609D05E
:1013B800022E21D18468E40758BF41F08001BDE8BE
:1013C800F041D7E60D4B90F90C00182404FB0034CB
:1013D800637873B16B7BA1725B0023720023237562
:1013E8000223A3706672C4F80CC022612AF0D8FFE9
:1013F800237D1846BDE8F0810023FAE70C9700200A
:10140800F8B51F4690F90C300446142058430C4B8D
:101418001D58A36816469A0703D42069FFF70EFDE6
:1014280000BF3B4632462846FFF730FEA3689B07BD
:1014380003D400BF2069FFF706FD0120F8BD00BFF7
:101448003804002073B50279022A22D103238DF8CB
:10145800033090F90C001F4C8DF8022004238DF8FE
:1014680004301423434302A80844E3581A490026C9
:1014780001258DF800608DF801508B4210F8080C9A
:1014880009D0A1F578418B421FD001F580618B42CC
:101498001DD002B070BD31461A8822F040021204F5
:1014A800120C14251A8005FB01411A88C96822F01C
:1014B800380231F810101204120C0A431A801A88E4
:1014C80092B242F040021A80E3E72946E4E7114667
:1014D800E2E700BF3804002000300140F0B50D4BB2
:1014E8000D4E0446B34201D30020F0BD587988421E
:1014F8000DD11D79A54200D04CB9187A904206D179
:1015080018680779AF4202D10568AB42EDD00C33B9
:10151800E8E700BFB83704086C38040810B5427A09
:10152800044632B1036800F10A0140689847002375
:10153800637210BD124B53F8200070B5F8B1114A10
:10154800062303FB002393F90140621C16D0187987
:10155800A8B10D4A0D4E155DDA78642114230020D8
:1015680061438C18013B36F814402A4410FA84F081
:10157800F7D11423B0FBF3F080B270BD002070BD2A
:10158800F43F0020B1370020D43A0020D0370020A3
:1015980038B503200D461446FFF7CCFF07EE900A36
:1015A800B8EE677ADFED0A7A27EE277A5DB1F8EEB2
:1015B800047AF0EE006AE7EE267A9FED067A67EE87
:1015C800877AC5ED007A0CB1034B236038BD00BFA4
:1015D8006740533A00007A443313904330B5094BBF
:1015E8000949C0B28B4200D330BD5A88140406D5CD
:1015F8005D68DC68C2F30B0200FB02522260143300
:10160800F0E700BFA03104083835040870B54488F5
:1016180006460D46C4F30B0400212246284637F03F
:1016280000FE3169084B994208D3084B994205D20C
:1016380022462846BDE8704035F060B819B1284602
:10164800BDE87040084770BD38350408B83704084D
:101658004388426813F4004F1EBFC9B2C3F30B039B
:1016680001FB03221146D1E7064B07498B4202D3FF
:101678000023184670471A88C2F30B029042F8D02C
:101688001433F3E7A031040838350408024A136814
:1016980023EA0000106070474C420020024A136899
:1016A80018431060704700BF4C420020F8B504682A
:1016B800C4F30D0405460E4604B32F68FFF750FA2D
:1016C800092840F08880454C236923F4407323613E
:1016D800236943F400732361236943F00103236101
:1016E8003E60FFF73DFA2369092823F001032361CF
:1016F80071D12B6804332B600020F8BD384B394A70
:1017080093422BD902F58042934226D902F58042B2
:1017180093422AD902F58042934228D902F58032B1
:10172800934226D902F50032934224D902F50032B9
:10173800934222D902F50032934220D902F50032B1
:1017480093421ED902F5802293421CD9B3F1016F4E
:101758001BD3052005F0C6FBFBE70824FFF700FABA
:10176800092814D04FF0FF30F8BD1024F6E71824EC
:10177800F4E72024F2E72824F0E73024EEE73824C1
:10178800ECE74024EAE74824E8E75824E6E7134F63
:101798003B6923F440733B613B6943F400733B614D
:1017A8003B6923F0F8033B613B6943F002031C43A8
:1017B8003C613B6943F480333B61FFF7D1F93B69F6
:1017C80023F002033B613B69092823F0F8033B61DE
:1017D8003FF473AFC6E76FF00100F8BD003C02406C
:1017E80000000E08FF3F0008F8B504460D468E18A5
:1017F8000027B54201D12069F8BDE368591CE160B2
:10180800234415F8012B1A720429F2D1206918B95A
:10181800A1682046FFF74AFF2061E760E9E738B58D
:101828008D180C46AC4200D138BD14F8011B12F0DB
:101838006FFDF7E770B501221049114C114E0020D9
:10184800FFF7EDFF22884AB1A518B54213D2052A41
:1018580011D92146FFF7E3FF2C46F3E72146022280
:10186800FFF7DDFF6388084AC31AA41A074A5842DB
:101878001480584170BD002070BD00BF00000E08E4
:1018880001000E0800001008FCFF0D08642200206B
:1018980030B502440446944201D1002011E014F806
:1018A800013B11F8015BA3F141001928A5F14100A2
:1018B80098BF2033192898BF2035581B01D1002D17
:1018C800E9D130BD70B5034610F8012B202AFAD0B3
:1018D800092AF8D02D2A0ABF034601254FF0FF3503
:1018E800591E00240A2611F8010FFEF7A1FD0A2847
:1018F80002D905FB04F070BD06FB0404F3E730B51C
:101908000278202A034600F10100F9D0092AF7D00D
:101918002D2A47D10346BFEE000A9FED3A7A1A46B0
:10192800F2EE046A134612F8010BA0F13001CCB2B2
:10193800092C3DD92E280BD1F2EE046A1146B0EEDF
:10194800666A0B4611F8012B303AD0B2092838D90B
:101958001A7802F0DF02452A4FD15A782D2A3BD156
:1019680002330120013B00220A2513F8011F3039F8
:10197800CCB2092C36D9B2F59A7F28BF4FF49A72A7
:10198800DFED216A1346F7EE007A072B2DD802F017
:101998000702F2EE046A62BB88B3C7EE276A20EE3C
:1019A800260A30BD2B2A08BF0346B7EE000AB4E763
:1019B80007EE901AF8EEE77AE7EE267AB0EE677A45
:1019C800B0E707EE902AF8EEE77AC7EEA65A66EE79
:1019D800866A37EE257AB4E72B2A14BF013302331F
:1019E8000020BFE705FB0212BFE767EEA67A083BB7
:1019F800CBE767EEA67A013ACDE7F7EE007A67EE15
:101A0800276ACCE70000000020BCBE4CB5EEC00A37
:101A1800DFED2D7AF1EE10FACCBF30EE270A30EE6A
:101A2800670ADFED2A7A20EE270A30B5FDEEC07A84
:101A380087B017EE904A054684EAE470002303A9AC
:101A4800A0EBE47000930193029321F05DFB002C5E
:101A5800ACBF20232D2303A88DF8003033F0D6FA2D
:101A6800012822D130238DF801308DF802308DF80D
:101A7800033003A9684637F0DCFB684633F0C6FA42
:101A88000338C4B222466946284637F009FC0023C9
:101A98002B550F49284637F0CCFB0DEB040128469F
:101AA80037F0C7FB284607B030BD022805D13023E0
:101AB8008DF801308DF80230DBE7032804BF3023AE
:101AC8008DF80130D5E700BF6F12033A00007A4461
:101AD800051A040870B5064615460846B6FBF2F422
:101AE80014B12046FFF7F6FF05FB1464024B1B5D9B
:101AF80000F8013B70BD00BFD4F50308F0B5012420
:101B0800B0FBF4F58D4203D200271CB91C70F0BD60
:101B18004C43F5E7B0FBF4F604FB1600B4FBF1F414
:101B28001FB9002E01DC002CEFD1092E03F1010EA4
:101B380008DD002A14BF3725572535441D700137A5
:101B48007346E2E73025F8E7084BD3E9002352EA69
:101B5800030108D006490968521843F10003C0E997
:101B68000023012070470020704700BFB04F0020BD
:101B780020B90020F0B5264E04460F460FCE8DB092
:101B88006D460FC50FCE0FC596E80F0085E80F000C
:101B980014F0030335D1642194FBF1F201FB1242E6
:101BA80042B94FF4C87294FBF2F302FB13430033BB
:101BB80018BF0123C3F11D0340F26D1201930420E5
:101BC800631E93FBF0F002FB04046FF0630093FBC9
:101BD800F0F020444FF4C87493FBF4F31844063033
:101BE80000220721013F5DF822309742184490FBFC
:101BF800F1F4C4EBC404A0EB040004D1181A0DB02E
:101C0800F0BD0123D6E701320C2AECD10020F6E71B
:101C180030930308F8B514461D4606464FF47A7209
:101C280000232046294633F0DFFF2C4B3C22034497
:101C380093FBF2F002FB1031B17190FBF2F102FB61
:101C48001102182072714FF4616293FBF2F292FB59
:101C5800F0F100FB112232712149224A93FBF2F282
:101C680093FBF1F3980040F2B55392FBF3F103FBB9
:101C78001123B3F5896F2DDA40F2DA2293422BDC77
:101C8800B3F5B77FB4BF002201221749182707FB15
:101C980002170B2137F811E0734501DA0139F9D140
:101CA80000F5FA6010443080481CB0700C2000FB2E
:101CB80002120E4901EB4202013392F834209B1ABA
:101CC800F3704FF47A7200232046294633F08CFFD4
:101CD8003281F8BD0322D8E70222D6E780BC92C73A
:101CE800801F860780510100609303082C93030826
:101CF80037B504466846FFF727FF054638B1DDE9E2
:101D080000232046FFF786FF284603B030BD012395
:101D18002080A370E37020716071A0712081F3E7C7
:101D280037B50546FFF7E4FF044640B1054B02AA64
:101D38001B8822F8023D2946284621F0EAF8204669
:101D480003B030BD5C69002010B50288C378A2F5E5
:101D5800FA62591E40F2B554930804FB03138178C4
:101D68000C24013902F0030204FB02120C498479A5
:101D780001EB42021821928E1344027901FB0323DE
:101D8800427900893C2101FB0323064A224401FBD6
:101D980003234FF47A720021C2FB030110BD00BF78
:101DA8002C93030880436D380B684A689A4206D022
:101DB8005A1C0A601B7800B103700120704700208C
:101DC800704710B502681146531C036011F8024BA6
:101DD8000160D31C5178036093781B0443EA012304
:101DE800111D0160D078234343EA006010BD0368E9
:101DF8005A1C02601A4612F8021B0260587841EA1F
:101E08000020704791E80C009B1A012B10B504467E
:101E180006DD0846FFF7EBFF04B12080012010BD66
:101E2800002010BD03685A1C02601878704738B546
:101E3800044609C81B1A9A42154606DC34F05EFCB3
:101E480022682A442260012038BD002038BD38B5F8
:101E580004460068154634F051FC22682A44226082
:101E680038BD03685A1C0260197003685A1C026066
:101E78000A0A1A7003685A1C02600A0C1A7003686E
:101E8800090E5A1C02601970704703685A1C0260D8
:101E980019700368090A5A1C0260197070472DE905
:101EA800F04F89B082468B4616461C4600270DF136
:101EB80014083178002934D0252904D05046013639
:101EC800D8470137F5E771782D2905BFB178F51C9A
:101ED800B51C012618BF0026302906BF2978012322
:101EE80000230293A1F1300308BF0135092B4FF0FD
:101EF800000907D80846FEF79BFA0A2815D90EB13B
:101F0800C9F100096C2940F08B802A78642A05F110
:101F1800010600F0BC801BD8252A62D00BD8002A05
:101F2800C7D1384609B0BDE8F08F0A2303FB090979
:101F380015F8011BDEE7582A1BD0632AB9D13546AC
:101F480021785046D847261D013734462E46B0E73B
:101F5800732A3AD008D8662A49D06E2AA9D13546BC
:101F6800236804341F60F1E7752A00F08B80782A13
:101F78009FD1A2F15800424204F104054346424170
:101F88001021206807E02D238DF8143040420DF110
:101F9800150300220A21FFF7B1FD2C46CDF8008079
:101FA800029B4A4659465046FEF761FA074480E7C5
:101FB8002D238DF8143040420DF1150300220A211B
:101FC800FFF79CFD2E46039CE8E7354623680093FF
:101FD8004A46002359465046FEF749FA261D07444B
:101FE800B3E7354625215046D8470137AEE7354691
:101FF800073424F00703D3E9000103F1080433F0A0
:1020080095FC00EE100A4046FFF700FDCDF8008071
:10201800029B4A4659465046FEF729FA074495E777
:1020280064293CD00BD82529DCD003D800293FF4FB
:1020380078AF8BE758290FD0632981D086E77329B9
:10204800C4D004D86629D3D06E2989D07EE77529F3
:102058000FD078297FF47AAF58394A4204F1040640
:102068004A412068434610213446FFF747FD2E4673
:1020780094E7231D0393002243460A212068FFF7B3
:102088003DFD9FE7251D434600220A2179E7206888
:10209800002804F10405FFF676AF434679E7206887
:1020A800231D0028039383DB434687E70EB40FB54F
:1020B80005AB019053F8042B0649039301A8FFF7D9
:1020C800EEFE019B00221A7004B05DF804EB03B029
:1020D800704700BF6D0400082DE9F043384B8DB000
:1020E8000CAA1B8822F80E3D064609A820F011FF0D
:1020F800BDF922203C2192FBF1F301FB132109B227
:102108001DB2BDF824300029B8BF4942B3F5FA6FB3
:1021180044D39DF82630013B0B2B3FD89DF8273040
:10212800013B1E2B3AD89DF82830172B36D89DF83E
:1021380029303B2B32D89DF82A303B2B2ED8BDF8BE
:102148002C30B3F57A7F29D20124002D9DF8270081
:102158009DF828709DF829E09DF82AC0BDF82C80CC
:102168000791B4BF4FF02D094FF02B09002DB8BFD0
:102178006D428DE88140BDF824209DF826300695F3
:10218800CDF81490CDF81080CDF80CC00D4930462C
:10219800FFF78CFF20460DB0BDE8F0830020012337
:1021A800ADF824008DF826308DF827308DF82800FA
:1021B8008DF829008DF82A00ADF82C000446C4E7F4
:1021C8005C690020F9F503080FB437B50B490C48D2
:1021D800096800680B4D06AB53F8042B0193FFF711
:1021E8005EFE0446286805F0F8FA0028FAD0204672
:1021F80003B0BDE8304004B0704700BF6835002028
:102208006C350020A4C500202DE9F04F00F1100E18
:1022180085B007460546002600F14009B0462B4622
:10222800BC4616E0F4EC016A1AED047AD3ED007AA4
:10223800E6EEC77AC3ED007AAC420AF1100AF1D192
:1022480008F10108B8F1040F0CF1040C03F10403C0
:1022580003D0AEF11004E246EEE74FEA860B734670
:102268004B451ED003EB0B0AB8469C4609E0FCEC34
:10227800016A18ED047AD4ED047AE6EEC77AC4ED63
:10228800047AD44508F11008F1D1D4ED046A95ED2B
:10229800007AC6EE877A103317EE90CA44F810CF4A
:1022A800DEE70136042E05F114050EF1100E07F1D4
:1022B8000407B3D10024009401940294039402F11A
:1022C800100C074606466C4652F8045B2560EE463D
:1022D8003546BD4228D1624504F1040406F11006D2
:1022E80005F11407F0D104AE00F13C050A4656F892
:1022F800044D42F80C4F2C460434A34202F1040268
:10230800D1ED037A1BD12A46D2ED006A87EEA67A70
:10231800103B8342A5F11405A1F1040181ED047A73
:10232800E4D105B0BDE8F08FBEEC017AD4ED007AB7
:10233800F5EC016AE6EEC77AC4ED007AC9E7D4ED98
:10234800006A92ED007AE6EEC77AC1ED037AD3E728
:102358001FB50C46024669461030FFF755FFDDED04
:10236800007AB6EE007A67EE877AC4ED007ADDED82
:10237800017A67EE877AC4ED017ADDED027A67EEBD
:10238800877AC4ED027A04B010BDD1ED007A90EDE1
:10239800066AD0ED095AB8EEE77AD0ED047AE7EE8E
:1023A800077AB7EE005AC0ED047AD1ED017AF8EE5B
:1023B800E76AD0ED057AE7EE267AC0ED057AD1ED29
:1023C800027AF8EEE77AA7EE276A80ED066A90EDC2
:1023D800076A36EE076A80ED076A90ED086AA7EE8D
:1023E800266A80ED086A26EEA66A75EE865AA7EE7A
:1023F800076AC0ED095AD0ED0A5AE6EEA75AA7EEC9
:10240800A76AC0ED0A5AD0ED0B5A75EEA65AC0ED70
:102418000B5AD0ED0C5AE7EE275AC0ED0C5AD0ED06
:102428000D5AE6EEA75AC0ED0D5AD0ED0E5AE7EE5A
:10243800A75AC0ED0E5AD0ED0F5A75EEA75AC0ED47
:102448000F5AD0ED105A75EE875AC0ED105AD0EDDC
:10245800115A75EEA65AC0ED115AD0ED125A75EE02
:10246800A75AC0ED125AD0ED135A75EE855AC0ED31
:10247800135AD0ED005AE7EE065A90ED017AC0EDF6
:10248800005AA6EE867A80ED017A90ED027AA7EEE0
:10249800867AD0ED037A80ED027A37EE866A80ED8F
:1024A800036A704700F14001034600221A615A612D
:1024B8009A61DA6110338B4240F8042BF6D17047E9
:1024C80080EAE073A3EBE0738B4206DB002801DDB2
:1024D800401A704702D0084470470020704748F6F9
:1024E800A043984203DDA0F50C40A03870470028AF
:1024F800B8BFC018704744F25063984203DDA0F596
:102508000C40A0387047034B9842BCBF00F50C4004
:10251800A0307047B0B9FFFF08B52DED028BB0EEC3
:10252800C08AF0EE408AB7EE000A30EE480A35F06D
:1025380079F89FED0E7ADFED0E7AE8EE077A9FEDD7
:102548000D7AA8EE277ADFED0C7AE8EE077AF5EE39
:10255800C08ABDEC028BF1EE10FA27EE800A44BF68
:10256800DFED067A37EEC00A08BD00BF306E99BCB1
:102578002716983D843459BEA40DC93FDB0F494046
:10258800F0EEE06AB0EEC07AF4EEC76AF1EE10FA47
:10259800D4BFB0EE476AB0EE666AB5EE406AF1EEB7
:1025A80010FA48D0F4EEC76AF1EE10FA54BFF0EE14
:1025B800475AF0EE665AC5EE867A9FED206ADFED3F
:1025C800205A9FED205AE7EE865A9FED1F6AA7EE24
:1025D800A56ADFED1E5AE7EE865A9FED1D6AA7EE43
:1025E800A56ADFED1C5AA7EEA55AF7EE005AE7EEEA
:1025F800855AB1EE466AC6EE257AF4EEC76AF1EE60
:1026080010FA48BF9FED147AF5EEC00A48BF77EE7E
:10261800677AF1EE10FA48BF9FED107AB5EEC00A5E
:1026280048BF77EE677AF1EE10FA48BFF1EE677AA5
:10263800B0EE670A7047DFED0A7ABEE739094E3D0A
:10264800E3B59EBE69A2163E88FA16BE45FE7FBF58
:10265800A7DFA8B499FB243FDB0FC93FDB0F494034
:1026680000000000FDEEC07A17EE903A2033402BB0
:1026780043D8DFED237A9FED237AB4EEE70AF1EE33
:1026880010FA28DCDFED207A9FED1E7AB4EEE70A17
:10269800F1EE10FA22D4DFED1D7AB4EEE70AF1EE7E
:1026A80010FA1EDD30EE670A37EEC00A60EE007AD7
:1026B800DFED176A9FED177AA7EEA67ADFED166AA7
:1026C800E7EE876A9FED157AA7EEA67A20EE276ACD
:1026D800A6EE070A704730EE470ACEE730EE070A43
:1026E800D4E79FED0F7AB4EEC70AF1EE10FA44BFB3
:1026F80030EE270A37EE400AD8E79FED0A0A7047FE
:10270800DB0F4940DB0FC940DB0F49C0DB0FC93F76
:102718009A7C2E36FAAF4FB93587083CA4AA2ABE50
:10272800DB0FC9BF00000000DFED027A30EE270A98
:1027380098E700BFDB0FC93F91ED005A08B5B0EE2E
:10274800450AFFF7F1FFF0EE405AB0EE450AFFF7F1
:1027580089FFD1ED014AB0EE405AB0EE640AFFF7A6
:10276800E3FFB0EE404AB0EE640AFFF77BFF91ED5D
:10277800023AF0EE403AB0EE430AFFF7D5FFF0EE2A
:10278800404AB0EE430AFFF76DFF25EEA46A65EEF6
:10279800806A65EE247A64EE244A25EE007AC0ED5C
:1027A800004AF0EE664AE3EEA74AB0EE463AC0EDBC
:1027B800034AF1EE634AA4EE873AE3EEA67AA4EE62
:1027C800867A24EE400A25EE445A65EE845A80ED56
:1027D800010AC0ED023A80ED043A80ED055A80ED19
:1027E800067AC0ED077AC0ED085A08BD38B5334CF3
:1027F800B4FBF2F4A142F0EE404A1D46F7EE005A4F
:102808004FF0000453D207EE901A9FED2D7ADFEDBA
:102818002D6AF8EE677A67EE877A07EE102AB8EE27
:10282800477A27EE267AC5EE876A87EEA63AB0EE93
:10283800430AFFF717FFF0EE402AB0EE430AFFF70E
:1028480073FF74EEA44AF8EE006A82EEA47AF5B13A
:10285800012D25D077EE257A20EE260A85EE276A07
:1028680075EEC75A80ED006A84EE276AC0EE276AC3
:1028780080ED016A85EEA77A83EEA76AC0ED036A48
:1028880080ED026A80ED047A8461446138BD35EEDA
:10289800C04AB6EE005A24EE055AF0EE453AD9E79A
:1028A80020EE264AF0EE653AB0EE655AD2E7C0ED62
:1028B800005A44608460C4600461E5E720A1070011
:1028C800DB0FC940BD37863500239FED010A8DE730
:1028D800F304353F30B507EE902A2DED028BB8EEA4
:1028E800670A07EE903AF8EE677A83B080EE270A17
:1028F8000D460446019234F0F7FA30EE008AB0EE45
:10290800000AF0EE480A34F0F9FC34F08BFEF0EEE1
:10291800480AF0EE408AB0EE000A34F0EFFCF7EE19
:10292800007A30EE670A019988EE800A01232A4668
:10293800204603B0BDEC028BBDE8304056E7D0ED31
:10294800017AF5EE407AF1EE10FA09D1DFED0E7A50
:1029580060EEA70AB7EE007AC7EE207AC0ED017ADA
:1029680090ED017AD0ED007A80ED021A31EE077A07
:1029780030EE670AC1EE076AE6EE807AB0EE670AC3
:10298800C0ED007A704700BFDB0FC94090ED017AB7
:10299800D0ED007AC0ED020A30EE877A30EE670A91
:1029A800C0EE876AE6EE807AB0EE670AC0ED007A7C
:1029B80070474840082310F0800F4FEA400018BFC6
:1029C80080F0D500013BC0B2F5D1704710B50A447C
:1029D8000C46944200D110BD14F8011BFFF7E9FF23
:1029E800F7E74A09012301F01F0103FA01F150F842
:1029F80022300B4340F8223070470EB4244B70B598
:102A08001B68002BA5B0064630DA224B224C196809
:102A18004FF47A7304A8B1FBF3F203FB12131F49B6
:102A2800FFF744FB04AB03440393299A1C492AABE0
:102A3800054603A80293FFF732FA039B591C03913A
:102A48000A211970039B591C039100211970024631
:102A5800206880B103681B6A03B1984704A92068FD
:102A6800FEF768F916B1206811F07EFC25B0BDE8C4
:102A7800704003B070470B4B1B68002BF6D0022147
:102A88002A4400910A44FD2004A91BF03BFEEDE70F
:102A98006092002020B90020D03A002027F60308D1
:102AA800630400087C35002038B5144B1C680330DB
:102AB80004EB9002B2F5007F14D8114D1A6005EBB3
:102AC8008404104D55F8213020F00300184492007A
:102AD80045F82100C2F500620B490020FFF78DFF81
:102AE800204638BD09490020FFF787FF084A1368C8
:102AF80043F0007313600024F2E700BFD4210020E4
:102B080058160020D821002033F6030856F603088B
:102B1800D890002010B54CB2002C01F07F034FF084
:102B28002802B5BF02FB030102FB010101F58E710A
:102B380001F55D710122DBB28A70002C4FEAD47274
:102B48000B704A7000EB83000ADA82691368002B65
:102B580001DA43F0804343F400131360002010BDF2
:102B6800426D1368F7E782B0002301930C4A0368AB
:102B780019690191013A10D001990029F8DA019AEE
:102B880042F001020192019A1A61054A19690191FC
:102B9800013A02D00199C907F8D4002002B0704761
:102BA800410D0300084A182363F30602436D1A61B6
:102BB800C278012A06D100F2CC5058611A684FF049
:102BC80080221A60704700BF0000086010B5042317
:102BD80080F81131002304461A461946FDF7CEFD48
:102BE8002046FFF7DFFF002010BD10B5044671BB7B
:102BF80090F81131032B1BD1D0F89023D0F87C33F7
:102C08009A4217D9C178012908BFD0F88013A2EBDE
:102C1800030204BFC918C0F88013934228BF1346A3
:102C2800C0F890239BB2D0F880230021FDF758FE0E
:102C3800002010BDD0F8E4351B6923B190F81221AB
:102C4800032A00D198472046FFF7C0FFF0E7D0F8E5
:102C5800E4359B69002BEBD090F81221032AE7D1C9
:102C68009847E5E7F0B590F8CF1590F8D12590F89A
:102C7800CE3590F8D05590F8CC6590F8CD7503EB2B
:102C8800012305EB022590F8D31590F8D22502EB25
:102C98000122012185B080F8111106F01F0192B2BE
:102CA8009BB2ADB2012904468DF808608DF8097011
:102CB800ADF80A30ADF80C50ADF80E20C0F8402140
:102CC80000F00E8105D3022900F01E8106F0800174
:102CD80087E1092F64D8DFE817F0BA00F80063002D
:102CE800CC0063005B000A006300AD007A00ADF819
:102CF80006201A0A013A062A52D8DFE802F0040C24
:102D0800295151515100D0F8EC351B68A0780DF1CC
:102D1800060198470AE0D0F8E43580789B6A0DF1FF
:102D28000601984702234370C4F8F005BDF8062051
:102D3800002A47D0BDF80E30002B43D09A4228BF56
:102D48001A46ADF8062001462046FDF7B9FD39E0E0
:102D5800DBB2052B24D8DFE803F003070B0F1317AA
:102D6800D0F8EC355B68D1E7D0F8EC359B68CDE757
:102D7800D0F8EC35DB68C9E7D0F8EC351B69C5E756
:102D8800D0F8EC355B69C1E7D0F8EC359B69BDE755
:102D980035B92AB990F81211032903F07F0503D138
:102DA80020461FF06DFE0DE063F30A12036980F8F8
:102DB800145119680A431A60FFF708FF2DB102235E
:102DC80084F81231002005B0F0BD0123F8E7D9B22C
:102DD800894D012985F8B018E2D890F81231022BF4
:102DE8000FD0032BDCD1C1B9022380F81231D0F8FF
:102DF800E43580F810115B6898472046FFF7E6FE37
:102E0800E0E70029F9D00121032380F8101180F8A8
:102E180012312046FDF7B8FBEFE790F810110129B1
:102E2800EBD0D0F8E4355B68984795F8B01884F88B
:102E38001011EEE7012AB3D190F81231022B04D019
:102E4800032BADD100F588717EE76C497CE790F8DB
:102E58001231023B012BA3D8674B0022C3F8B828D4
:102E6800D0F8182112B10222C3F8B8280222644906
:102E78006AE7012B08D1C4F81831D4F8E43502A95F
:102E88009B6820469847B8E7022B9BD115F0FF0FA7
:102E980098D103692D0A013D5B680122042D05D8EC
:102EA800DFE805F004030D0F1100022262F3061398
:102EB800514AC2F8BC38012384F816319DE7032231
:102EC800F4E70422F2E70522F0E790F81221023A2B
:102ED800012A3FF665AF012B7FF474AF0023CAE7E0
:102EE80090F81231032B7FF45CAFEDB2012D3FF661
:102EF80057AFD0F8E43502A99B689847BDF80E3063
:102F0800002B7FF45FAF78E706F06006202EE9B269
:102F180005D1D0F8E43502A99B68984752E7012FFC
:102F280011D041D3032F7FF44DAF90F81221022A1C
:102F380054D0032A7FF435AF002B9ED14A069CD08B
:102F4800FFF7E8FD99E790F81221022A46D0032AF4
:102F58007FF427AF002B7FF435AF11F07F023FF4E9
:102F68004CAF6DB2002D4FF02803B5BF03FB020133
:102F780003FB010101F58E7101F55D7100238B7072
:102F88000A70EB0F00EB82024B70002DB4BF926900
:102F9800526DC978136802396FF35553012998BFE8
:102FA80043F08053136068E790F81231022B15D074
:102FB800032B7FF4F6AE15F0800F0F4B4FF028026D
:102FC80014D001F07F0102FB010191F81E215AB1D2
:102FD8000122C3F8C0280B490222B5E64B063FF48C
:102FE800F1AEFFF797FDEDE60022F2E702FB0101E3
:102FF80091F87623EBE700BFA81500205C1E00209F
:10300800601E0020681E002038B5044600295BD1E8
:1030180090F81131022B1ED1D0F83831D0F8242184
:10302800934226D9C178012908BFD0F82811A3EB0B
:10303800020304BF5218C0F82821C0F83831D0F86C
:1030480028219BB20021FDF799FB00231A46194657
:103058002046FDF745FC94F81631012B07D1204A8C
:103068002369D2F8BC285A60002384F8163100205E
:1030780038BDD0F83C31B3FBF2F502FB153565B924
:103088009A420AD8D0F84021934206D22B462A46C3
:10309800FDF774FBC4F84051D7E7D4F8E435DB6892
:1030A8002BB194F81221032A01D120469847052311
:1030B80084F8113100231A4619462046FDF710FC02
:1030C8002046FFF76FFDC6E7D0F8E4355B69002BB3
:1030D800CDD090F81221032AC9D19847C7E700BF7D
:1030E800A8150020104BDA684378D243C2F30222B5
:1030F800C2F10401C9B28B400F2141FA02F2817872
:10310800DBB20A401343094902781B018818DBB275
:1031180080F800335009012302F01F0203FA02F27B
:1031280041F82020704700BF00ED00E000E100E01A
:10313800C27802B1D6E7037801215A0903F01F03C8
:1031480001FA03F32032024941F82230704700BFE8
:1031580000E100E082B00023019300930B0F009080
:103168000193019B21F07F4153B1009B14330093DD
:10317800009B1B68194214BF0120002002B0704751
:10318800009B090C1833F2E7838A008B9BB243EA51
:10319800004321F07F401840431A58425841704775
:1031A800036823F001030360002303604360836026
:1031B800C3600361212343612A4B984203D13D2216
:1031C80043F8082C7047284B984204D14FF4746296
:1031D80043F8202C7047254B984204D14FF47412C1
:1031E80043F8382C7047224B984204D14FF0746250
:1031F80043F8502C70471F4B984203D11E4A43F89E
:10320800642C70471D4B984203D11D4A43F87C2C0F
:1032180070471C4B984203D11B4A43F8942C7047C3
:103228001A4B984204D14FF03D5243F8AC2C17E0AA
:10323800174B9842C3D0174B9842C7D0164B9842A9
:10324800CCD0164B9842D1D0154B9842D6D0154BBE
:103258009842DAD0144B9842DED0144B9842E2D010
:10326800704700BF10600240286002404060024082
:1032780058600240706002403D00002088600240B3
:10328800400F0020A060024000003D20B8600240CE
:1032980010640240286402404064024058640240BE
:1032A8007064024088640240A0640240B86402402E
:1032B800204A936803F00C03042B10B520D0082B88
:1032C80020D01D4B1B4C0360A3681C4AC3F3031397
:1032D800134493F848100368CB404360A168C1F3D6
:1032E8008221114491F8481023FA01F18160A16804
:1032F800C1F342310A4492F84820D340C36010BD5C
:103308000F4BDFE75468516852686302C2F38812B2
:1033180001F03F014CBF0A4B074BB3FBF1F353439A
:10332800044A5268C2F3014201325200B3FBF2F37D
:10333800C8E700BF003802400024F4000000002065
:1033480000127A002DE9F0430D68002201260324BB
:1033580006FA02FC3CEA05033DD15700D0F800E02C
:1033680004FA07F3DB430EEA030EC0F800E091F815
:1033780004E0D0F800900EFA07F80EF1FF3E48EA94
:103388000908BEF1010FC0F8008017D8D0F808E08E
:1033980003EA0E0383604B79D0F808E0BB4043EAA8
:1033A8000E038360436823EA0C0343608B79D0F8EB
:1033B80004E093409BB243EA0E034360C36804FAF7
:1033C80007FE23EA0E03C360CB79D0F80CE0BB40BC
:1033D80043EA0E03C3600132102AB9D1BDE8F08375
:1033E800F7B50C461546064690B3FDF77EFD194B1A
:1033F80018440F2790F894001FF040FE30463368B9
:10340800FDF769FD80B200F00702C00803EB8000F9
:103418009200016A974021EA07010162016A95401A
:10342800B288009204F003020D438DF80420C4F31F
:10343800810205628DF805206946C4F3001218461A
:10344800C4F341148DF806208DF80740FFF77AFF82
:1034580003B0F0BD2C930308F8B57B4E142505FB8B
:1034680000650446287A1FF009FE2A7A02F01F0137
:1034780052090123032A03FA01F362D0042A65D012
:10348800022A03D1714A516A0B435362142303FB86
:103498000463651C5879FDF7ABFCEDB2074620B113
:1034A8000D2383710B23C3710572142303FB04637B
:1034B800D879FDF79DFC18B10D238371C37105728E
:1034C800142303FB04639879FDF792FC20B10D23C4
:1034D80083710C23C3710572142505FB0465AB7A4F
:1034E8006A7A002B37D04A213846FFF779FFE87906
:1034F800FDF77EFC6A7A2A21FFF772FFA879FDF7AB
:1035080077FC6A7A142505FB04650A21FFF768FF32
:10351800287928B1FDF76CFC6A7A0921FFF760FF6A
:10352800142363434A4AF35893421ED102F5843266
:10353800516A41F480515162516A21F480515162BB
:1035480020E0424A116A0B4313629FE73F4A116920
:103558000B4313619AE70A213846FFF741FFE879E0
:10356800FDF746FC6A7A0A21C6E73A4A934232D105
:1035780002F50032116A41F480411162116A21F4A6
:1035880080411162142202FB0462927A002A56D109
:1035980001220220198801F4415141F445710A437E
:1035A80002431A809A8B22F400621204120C9A8346
:1035B80007221A821A8892B242F040021A80142313
:1035C80003FB0464207900283CD0FDF711FCBDE81A
:1035D800F840FDF738BC204A934209D102F5FE3283
:1035E800116A41F400411162116A21F40041C8E7EF
:1035F8001A4A934209D102F58232516A41F40051C4
:103608005162516A21F4005199E7154A934209D150
:1036180002F56842516A41F480115162516A21F4FD
:1036280080118CE70F4A9342ACD102F56442516A8B
:1036380041F400115162516A21F400117FE7002220
:103648001046A7E7F8BD00BF380400200038024044
:103658000030014000380040003C00400034014088
:10366800005001400054014037B50C460546E8B10A
:10367800FDF73BFC0E4B184490F894001FF0FEFC3D
:10368800AB88009304F003038DF80430C4F381037E
:103698008DF805306946C4F3001328688DF80630A4
:1036A800C4F341148DF80740FFF74CFE03B030BD5A
:1036B8002C9303082DE9F74F374C99469DF8303085
:1036C800009394F8C438052B80468B46924608D957
:1036D80032490020FFF791F90025284603B0BDE8DC
:1036E800F08F03F08CF90646002852D094F8C4787D
:1036F80098F804007A1CD2B207EB470304F6C80511
:1037080005EBC30584F8C4280192FDF771FB034655
:1037180028B104218171019A02720221C171009AB3
:103728006AB398F8082002211846FFF759FE1823B3
:1037380003FB07445A4651463046C4F8C86828F087
:103748004AFC4946D4F8C80828F0D6F8D4F8C8087E
:1037580043681A68B2F844306FEA43436FEA534348
:103768009BB2A2F8443013889BB243F00103138044
:1037780028F0ACF80023C4F8D4080360ADE7184675
:1037880011210093FFF770FF009B1846FDF756FBC9
:10379800CDE70546A1E700BFA81500206FF603088E
:1037A800F0B52DED028B234B83B0064600681C68EC
:1037B8000D461746F0EE408AB0EE608A28F06CF8A5
:1037C800B4FBF0F0B0FBF5F404F57F44FF34240CAF
:1037D8000097B0FBF4F40023B4FBF5F52146AAB238
:1037E8003046FFF767FF08B3B5EE408A07EE904A08
:1037F800F1EE10FAF8EE677A08BF06EE905A9FEDE0
:103808000E7A0ABFF8EE666A27EE888A86EE876A1D
:103818004FF00103037218BF88EE076A27EE467A55
:1038280080ED056AA7EEA87A80ED047A03B0BDECB6
:10383800028BF0BDE80D002000007A4408B5FDF7C2
:10384800D7FA48B11D2282710E22C271002202727B
:103858002021BDE8084007E708BD10B503681A79BC
:10386800022A044602D1987AFFF7E8FF0023237161
:10387800236010BD70B51E46244D254B9D4219D2BC
:103888006C798C423AD12C79844201D0002835D108
:103898002C7A944232D12C682C220021204635F013
:1038A800C0FC25602B792371EA88A260012B03D024
:1038B800022B0BD0002407E0E87AFDF799FA606143
:1038C8006B7A2373AB7A6373204670BDE87AFDF791
:1038D8008FFA60616B7A2373A87AFDF789FA054637
:1038E800206168B10E23C371002386710372092118
:1038F800FFF7BAFE2069FDF7A6FAE5E70C35BDE744
:103908002046FFF7AAFF2C46DEE700BFB8370408B9
:103918006C38040800232DE9F7431A4621210120B9
:10392800FFF7A8FF234C0546C4F88C0000283FD0B9
:103938000526962003F08BFA0DF107020021284690
:10394800FDF744FC074660B300221146D4F88C000A
:10395800FDF798FC3C20FDF701FD012003F077FA04
:1039680000265FFA86F84FEA8805D4F88C90EDB205
:10397800A91D002201F0FE014846FDF783FCE91D60
:103988000022C9B24846FDF77DFC013640F2DC5101
:103998004046FDF7A9FC102EE3D1384603B0BDE838
:1039A800F083013EC5D1D4F88C00FFF756FFF4E749
:1039B8000746F2E7A815002030B500F13C01074B97
:1039C800024603F1140453F8045B42F8045BA34273
:1039D800F9D114308842F2D130BD00BFC893030832
:1039E80020B10078B0FA80F0400970470120704794
:1039F80003689FED1A7AD3F81D00DFED196AD3F832
:103A080019309FED186A07EE900AF8EE677A77EE9C
:103A1800C77A77EEA77A87EEA67AF7EE007A37EEBE
:103A2800677A06EE903ADFED107AF8EEE66A27EE4E
:103A3800677ADFED0E7A66EEA76AC6EE867ADFED64
:103A48000C6A77EEE67ADFED0B6A77EEA67A09B1B3
:103A580081ED007A0AB1C2ED007A70479AC9CC4468
:103A68009AC94C4600E0FF440E76D745000048430B
:103A78000000484233938843436A8269D154436AB9
:103A880002690133934228BF0023426B4362D36823
:103A980043F08003D36070470346026A4169885C3B
:103AA800D96801328A4228BF0022C0B21A62704720
:103AB800826A406A131A584258417047426A836AB8
:103AC80000699A4238BF1218D31A0138C01A7047D1
:103AD800C269036A9A422FBFD01AC0688018C01AF8
:103AE800704708B5202135F0B3FB0346184623B1CB
:103AF8000278202A03F10103F8D008BD2DE9F84324
:103B08000D4616468146002440F634074FF0190842
:103B18004846FFF7E6FF814690B1FDF7D3FEB8426D
:103B2800A8BF3846B0F5617FB8BF4FF46170A0F503
:103B3800617090FBF8F04CB928703378013333701A
:103B48000134022CE4D14846BDE8F8836870F4E7F4
:103B580070B5054608460E4631F058FA3146044617
:103B680002462846FDF794FE60B92B5DA3F13002AA
:103B7800092A08D923F02003413B192B03D9601CDB
:103B8800284470BD002070BD10B4447A631C0444FE
:103B9800DBB24372A172027A9A4203D85DF8044BF1
:103BA800FDF7BCBC5DF8044B70470FB413B5084C67
:103BB8000849206804AB53F8042B0193FEF76FF90A
:103BC8002068FDF7ABFC02B0BDE8104004B07047B8
:103BD80058C50020913B000873B50468002323767C
:103BE800042305460DEB0302FF212046FDF71AFBCF
:103BF80010B9002002B070BD04236A46FF2128686E
:103C0800FDF710FB0028F4D09DF804108B09023B47
:103C1800012BEED99DF800309DF805209DF8015044
:103C280002EB012205EB0325C2F30D02C5F30D05D6
:103C3800531B002BB8BF5B42FF2BDADC9DF8061044
:103C48009DF807309DF8026003EB01239DF80310EF
:103C580001EB06215B1149115E1A002EB8BF7642AE
:103C6800FF2EC6DC01262A440B4432413341267616
:103C7800C4F81D20C4F81930BCE707B5012301AA10
:103C8800FF210068FDF7CEFA03B05DF804FB13B519
:103C980002230C4601AA00210068FDF7C3FA60B1AF
:103CA8005CB19DF80530DB099A0013449DF90420A6
:103CB80002EB820203EB4203238002B010BDF0B591
:103CC800456B8668AB8923F400531B041B0CAB813E
:103CD800817911F004030CBF4FF0000E4FF4805EA1
:103CE80011F0020F14BF4FF400570027002B43793F
:103CF80014BF4FF48061002113F0010F044614BF74
:103D0800042000209B072B8A9BB223F4405343EAEC
:103D180007032B82AA8922F4B05222F00C0248BF72
:103D280040F0080041EA0E0312041843120C024343
:103D3800AA81AA8A22F44072120485B0120CAA82BF
:103D48006846FFF7B5FA2E4B9D4203D003F5806312
:103D58009D424AD10399AB89192213F4004F02FB03
:103D680001F214BF7100B100B2FBF1F1AA89642617
:103D7800B1FBF6F3180106FB1313110437D5DA006B
:103D88003232B2FBF6F202F0070242EA00039BB2BB
:103D98002B8163799A0703F00105626B194B48BFC1
:103DA80045F002059A420AD12220FDF721F830B1E8
:103DB800EB0704D5A17901F00101FDF773F8A379A8
:103DC800626B13F0080F938A0BBF23F008039BB2B2
:103DD8001B0443F0080308BF1B0C938293899BB212
:103DE80043F40053938105B0F0BD0299B3E71B017A
:103DF8003233B3FBF6F303F00F030343C7E700BF07
:103E08000010014000440040417158E7816056E7C6
:103E1800FCF76DBFA0F2DC50164BB0F5FA7FA8BFD7
:103E28004FF4FA70984210B5B8BF18460C461146C0
:103E3800FEF746FB00B207EE900A9FED0F7AF8EE08
:103E4800E77AE4B287EE870AFBEE096AE0EE006AD9
:103E580007EE904AB8EE677ADFED087AE7EE267A41
:103E680067EE807AB3EE090A87EE800A33F046F8E7
:103E780000B210BD0CFEFFFF0000C84200401C4508
:103E88000F4B1B68590702D50E4A1278AAB19A0639
:103E980003D50D4A92F838207AB10C4A92F8C0003E
:103EA80058B10B4A12880AB19B0707D4094BB3F8DB
:103EB8004800003018BF012070470120704700BF3C
:103EC800D89200200A4C0020A8940020684C0020BA
:103ED80010400020B8050010084A03465078C01A60
:103EE80018BF0120032B28BF00235370044AC3EBDB
:103EF800C30302EB8303034A136070473841002071
:103F0800944000200841002070B50B4E35782D1ADA
:103F180018BF01250328044634BF04460024204660
:103F2800FDF75CFB054B347004EB840403EB84045D
:103F3800034B28461C6070BD3841002098210020A2
:103F4800E497002038B5154C154DAC4212D300202B
:103F5800FDF744FB134814F0D1FA4FF48000FDF745
:103F68009DFB00BF104B1878FFF7CEFFBDE8384027
:103F780023F026BAB4F90230002B4FF00001204696
:103F880003DBFDF765FB1434DFE7FDF761FB012177
:103F98002046FDF75DFB02212046F2E7A031040828
:103FA80038350408AAF6030838410020074B1B6877
:103FB800597A4A1C1944D2B25A728872197A9142B3
:103FC80002D81846FDF7AABA704700BF58C50020A6
:103FD80038B5094D441E14F8011F01B938BD2868C9
:103FE800427A531C0244DBB243729172027A9A42BB
:103FF800F1D8FDF793FAEEE758C5002008B5044656
:104008000648FFF7E5FF064B1868FDF787FA054BEA
:10401800186810F0A9F920460EF0E6FAB3F603087E
:1040280058C500205CC50020034808B5FFF7D0FF3D
:104038000120FFF7E3FF00BFBFF6030808B50448F7
:10404800FFF7C6FF034B1868BDE80840FDF766BADE
:10405800D8F6030858C500200048B9E7FD00040851
:104068002DE9F0410D4D0E4FDFF838800024661918
:104078006059FFF7ADFF716811B13846FFF795FD3C
:10408800B16811B14046FFF790FD1034FFF7E4FF27
:10409800B4F5187FEBD1BDE8F08100BF74F30308D5
:1040A800DDF60308E3F6030810B5064C0B46024696
:1040B80005492068FDF7F3FE2068FDF72FFABDE8F3
:1040C8001040C9E758C50020913B00080FB407B558
:1040D80004A951F8040B0191FFF7E6FF03B05DF85E
:1040E80004EB04B070472DE9F74F1F481F4C204DD3
:1040F800204FFFF7EBFF04F51376A37994F808B087
:1041080005EB83032046D3F81490E37905EB83038A
:10411800D3F8A0A0BBF1000F16D0FCF7E6FE80464E
:104128002046FCF7D8FECDF804A00246CDF800B032
:104138004B4608F141011048FFF7C8FF0C34A6426E
:10414800DBD103B0BDE8F08FFCF7CFFE83462046F5
:10415800FCF7C1FECDF800A002464B460BF1410129
:104168003846FFF7B3FFE9E7E9F60308182F002000
:10417800C893030815F7030805F703082DE9F0416C
:104188001048114E114FDFF84C80FFF79FFF0125B3
:10419800002474B90E4BDA6B9200D2F5006205D098
:1041A80056F824103846FFF791FF06E00134013530
:1041B800EFE758F82420002AF2D1232DF6D1BDE8E4
:1041C800F08100BF23F70308DC93030839F70308DD
:1041D80098210020D82100201FB5094B0293094BD4
:1041E8000193094B0093094A094B0A490A48FFF70A
:1041F8006DFF0A490A4805B05DF804EB66E700BFA1
:1042080076F703087EF7030887F703084DF70308D6
:1042180047F7030859F703085EF7030893F70308FD
:10422800D4F703082DE9F04F5448554D8DB0FFF7EA
:104238004DFF0026B046B146524B1A680023934200
:1042480023DB0136152E05F14805F5D14E4988685E
:10425800CA680C680969400940EAC2624FF47A7377
:104268004A48B4FBF3F3FFF731FF0A2298FBF2F355
:1042780002FB138099FBF2F1009002FB1192444873
:10428800FFF724FF0DB0BDE8F08F424951F8231025
:104298008D4201D00133D2E7AC6A5CB107EE904A97
:1042A800DFED3D6AF8EEE77A86EEA77AFDEEC77A8B
:1042B80017EE904A2F6B6A6BEB6BD5F838A07F0925
:1042C80047EAC26752090B922146E217CDE9081264
:1042D800099A63430AFB0233A4FB0A0141F2883BB3
:1042E8001BEB000B19444FF0000C4CEB010C4FF486
:1042F8007A7200235846614631F0C6FC0B9B099A36
:104308000A90634307FB0233A4FB070141F2883B91
:104318001BEB000B19444FF0000C4CEB010C002375
:104328004FF47A725846614631F0AEFC032E18BF3E
:104338000A9B0A99019718BF99444FF47A722B6C1B
:10434800B3FBF2F306934FF00A0318BF804490FBC7
:10435800F3F203FB120004920A9A92FBF3F203FBB6
:104368001213059003930292CDF800A023462A6801
:104378000A483146FFF7AAFE63E700BFDDF70308E6
:10438800D0040020D80400100000001059F80308D9
:104398007BF80308DC0400100024744924F803089F
:1043A8002DE9FF410A480488856846888788D0F83F
:1043B8000C8020F05BFE8DE88001029033462A468F
:1043C80021460448FFF782FE04B0BDE8F08100BF33
:1043D80074040020A9F80308F8B5437913F0C00263
:1043E800044602D0402A17D0F8BD03F00F03062B6D
:1043F80006D12AF091FCBDE8F8400146164865E66A
:104408002AF0A2FC054620462AF086FC29460246E8
:10441800BDE8F840114859E683791148114E124F0A
:10442800252B96BF114D002505EBC305FFF7D0FDE1
:1044380000242B799C4202D3BDE8F8400CE614B165
:104448003046FFF7C5FD2B68384653F82410FFF7B0
:10445800ACFB0134EDE700BF04F9030814F90308C5
:104468002BF903083BF903081DFB030814E40308B0
:1044780070B54379164603F00F028AB00546062A3E
:104488004CD8DFE802F0041316181B1D49000C78FD
:1044980013F0C00344D0402B3CD1214628462AF0D3
:1044A80023FC002856D0FFF780FB33E091F9004049
:1044B800EEE70C88ECE7B1F90040E9E70C68E7E7BC
:1044C80091ED000A6846FDF7A1FA01462648FFF774
:1044D8006CFBFEB16B7913F0C00F1BD128462AF094
:1044E80033FC07EE900A6846B8EEE70AFDF78EFA45
:1044F80001461E48FFF759FB28462AF00DFC07EE37
:10450800900A6846B8EE670AFDF780FA0146174830
:10451800FFF74BFB0AB070BD1348F9E70024B7E773
:10452800042A0CBF124813482146FFF73EFB002E11
:10453800F0D06B7913F0C00FECD128462AF004FCB8
:10454800044628462AF0E8FB214602460A48FFF7B7
:104558002CFBDFE7694628462AF0F0FC6A4621462C
:104568000648FFF7B3FDD5E7E6F603081DFB030889
:1045780028F90308F71604083DF9030844F9030865
:1045880038B50D4604462AF039FC2A46014620462D
:10459800BDE838406CE72DE9F04F81468DB088467C
:1045A8000026474BF418474B1868FCF7B7FF94F8F8
:1045B80005B00BF030034B4549D120462AF0FCFBEF
:1045C800FDF752F8054620462AF0D0FBAA6801926A
:1045D8001718824620462AF011FC0BF00F010546F9
:1045E800019A062968D8DFE801F0043A3F43484CAD
:1045F8005A0012F80A200378D31AD3F1000A4AEBBA
:10460800030A18F0200F02D0BAF1000F1FD102A937
:1046180020462AF093FC18F0400F0DD0BAF1000F95
:104628000AD102A92848FFF7C0FA5246294620466F
:10463800FFF71EFFFFF710FD02A92448FFF7B5FAA0
:10464800002239462046FFF713FFFFF705FD0A361B
:1046580040F6F2539E42A4D10DB0BDE8F08F12F996
:104668000A2090F90030C7E732F80A200388C3E728
:1046780032F90A20B0F90030BEE752F80A20036880
:10468800BAE797ED007AD0ED007AB4EE677AF1EEEA
:1046980010FA0CBF4FF0010A4FF0000AB1E72046AC
:1046A8002AF03AFB2946421C384634F0E7FDB0FAB6
:1046B80080FA4FEA5A1AA4E74FF0000AA1E700BFB0
:1046C800E49C030858C5002061F9030862F903084F
:1046D8000CB407B510F0400009D069B92320FFF7E2
:1046E80065FC05A904980191FFF7DEFC012003B0E1
:1046F8005DF804EB02B070470020F8E70CB48306BD
:1047080007B500D551B905A904980191FFF7CCFC6C
:10471800012003B05DF804EB02B070470020F8E711
:104728002DE9F04F824687B091460E461546002780
:10473800337896F9028004937378059396F803B05A
:10474800B8F1000F34D0B9F1000F36D02B78049CA3
:104758006A7895F90210E8789C422CD1059C94421D
:1047680029D1884527D1ABEB000EDEF1000444EBDC
:104778000E040390029101920093114A3B46214690
:104788005046FFF7A5FF059B0193049B0093CDF8C6
:104798000CB03B46CDF80880094A214650460137FF
:1047A800FFF7ACFF102F06F1040605F10405BFD191
:1047B80007B0BDE8F08F0024DBE74C46E3E700BF15
:1047C8006CF903082DE9FF47DFF89CA08146904665
:1047D8000D4616460027B8F1000F42D0B5F9002063
:1047E800B6F900309A4296F9062038D1B5F9020098
:1047F800B6F90210884232D1B5F90400B6F90410AE
:1048080088422CD195F90610881A414241410392F9
:10481800B6F904200292B6F902200192009352469A
:104828003B4648460C46FFF753FF95F9063003937D
:10483800B5F904300293B5F90230019335F9083B14
:10484800009352463B46214648460137FFF756FF3C
:10485800082F06F10806BED104B0BDE8F087002194
:10486800D5E74446E1E700BF80F903082DE9F04F9A
:10487800DFF8B0A085B080460F4614460026062310
:10488800734303930025039B2B44FA1892F8C0B096
:10489800002C42D02344524693F8C0300193ABEB2E
:1048A8000301D1F1000949EB010900953346494656
:1048B8004046FFF70DFF8DE820083346524649462B
:1048C80040460135FFF71AFF062DDCD10136062ECA
:1048D800D5D107F1E40A134F00251AF8019BF4B16A
:1048E8006319404693F8E4300193A9EB030256425A
:1048F8005641009506233A463146FFF7E9FE8DE812
:10490800200206233A46314640460135FFF7F6FEB7
:104918000B2DE2D105B0BDE8F08FA146CBE72646C6
:10492800EDE700BF95F903082DE9FF47DFF86CA014
:10493800814690460E4615460027B8F1000F2AD04A
:104948002B8832889A4224D174886A88A21A5442E1
:104958005441EA780292AA780192009352463B4663
:1049680021464846FFF7B4FEF3780293B3780193E3
:1049780036F8043B009352463B46214648460137E9
:10498800FFF7BCFE102F05F10405D6D104B0BDE831
:10499800F0870024DDE74446E6E700BFA9F90308ED
:1049A8002DE9F04FDFF868808FB007468A46164633
:1049B80000240DF124095AF824300293494602A82C
:1049C8001FF09CF916B356F82430029D0393EB1A96
:1049D8005D420DF1100B5D41594603A81FF08EF999
:1049E800CDF800B02346424629463846FFF770FE08
:1049F8002346CDF800904246294638460134FFF751
:104A08007DFE202CD7D10FB0BDE8F08F3546EFE7FB
:104A1800BBF903082DE9F347DFF868A081460F4684
:104A2800904602260024B8F1000F28D037F8242039
:104A380038F824309A4238F806201ED1BD5BA91AEE
:104A48004D424D410192009352462346294648461D
:104A5800FFF73EFEBB5B019337F8243000935246C4
:104A68002346294648460134FFF748FE042C06F140
:104A78000406D8D102B0BDE8F0870025E2E7454634
:104A8800E8E700BFC5F903082DE9F04F2DED088BC5
:104A9800DFF80C9197B0804692460D4614460026E2
:104AA80095ED008AB5EE408AF1EE10FA71D0D5ED99
:104AB800019A95ED029AD5ED038ABAF1000F3FD01D
:104AC80094ED000A94ED01BAD4ED02AA94ED03AA7C
:104AD800B4EE408AF1EE10FA60D1F4EE4B9AF1EEA2
:104AE80010FA5BD1B4EE6A9AF1EE10FA56D1F4EEF0
:104AF8004A8AF1EE10FA0CBF0127002712A8FCF72A
:104B080085FFB0EE4B0A83460EA8FCF77FFFB0EE98
:104B18006A0A05900AA8FCF779FFB0EE4A0A0490E1
:104B280006A8FCF773FF049A059B03900292019371
:104B3800CDF800B033464A4639464046FFF7C8FD2F
:104B4800B0EE480A12A8FCF761FFB0EE690A074602
:104B58000EA8FCF75BFFB0EE490A83460AA8FCF7EB
:104B680055FFB0EE680A049006A8FCF74FFF049BB7
:104B7800039002938DE8800833464A460021404658
:104B88000136FFF7BBFD0C2E05F1100504F11004EA
:104B980086D117B0BDEC088BBDE8F08F0027ADE7D4
:104BA800D6F903082DE9F04F834687B092460C46A4
:104BB800164600274FF019094FF46178BAF1000F33
:104BC8004DD0A378B17832798B42337845D12078AB
:104BD800984242D16578707885423ED1E578F07880
:104BE80085423AD12079904237D165797079281A6F
:104BF800454245410592F27804927278019119FB79
:104C0800028219FB03830392029373790093154A76
:104C18003B4629465846FFF75BFD23790593E37821
:104C2800049363780F4A19FB03830393237819FBD2
:104C380003830293A37801936379009329463B4643
:104C480058460137FFF75AFD0C2F04F1060406F108
:104C58000606B3D107B0BDE8F08F0025CAE7554670
:104C6800DBE700BFEAF903082DE9F04F354FDFF81D
:104C7800DCA087B0814690460C46164602F1300B00
:104C880094F90420002330495956914254D00C33EA
:104C9800302BF8D10C365E4504F10C04F0D107B086
:104CA800BDE8F08F96F90430F1799A42326841D123
:104CB800206890423ED16579707985423AD1A579CC
:104CC800B079854236D1257A307A854232D1E57974
:104CD800681A4542454157F821100491317A57F82E
:104CE80021100391B17957F821100291717900923E
:104CF80057F821100191524629464846FFF7E8FC2B
:104D0800E27994F9043057F822200492227A57F86D
:104D180022200392A27957F822200292627957F84A
:104D28002220019222680092294652464846FFF7FF
:104D3800E5FCAFE70025CEE7B8F1000FB2D1454654
:104D4800DEE700BFACC60308F86A002008FA0308CB
:104D58002DE9F04F834685B092460D46164600274A
:104D68004FF019094FF46178BAF1000F3DD02B7854
:104D780032789342F37836D168787178884232D1A4
:104D8800A878B17888422ED1EC78E11A4C424C418F
:104D980019FB03830393B37819FB03830293737896
:104DA80021468DE80C0058463B46114AFFF790FC17
:104DB800EB780F4A19FB03830393AB7819FB038342
:104DC80002936B78019315F8043B009321463B4608
:104DD80058460137FFF792FC142F06F10406C3D199
:104DE80005B0BDE8F08F0024D2E75446E0E700BFE5
:104DF80025FA0308F7B50746FEF7F2FD044630B179
:104E0800002222490120FFF7A3FF03B0F0BD384676
:104E1800FCF758FD1328054630DC8600781C8DF811
:104E28000740FEF75EFE194C074640B1FCF74AFD05
:104E380028289EBF012304F825008DF8073038463E
:104E4800FEF74FFE074650B1FCF73CFD0D2806D88B
:104E5800A31958709DF8073001338DF80730B11C3D
:104E68000DF1070221443846FEF748FE9DF8073049
:104E7800042BCAD0002344F82530C6E71323224662
:104E880003490448FFF722F9BFE700BF80A70020C5
:104E980038FA03083EFA030808B5FFF799F8BDE8A1
:104EA8000840FFF7D9B82DE9F0430024DFF85C800B
:104EB800DFF85C908BB00746254604EB0806694688
:104EC80030462AF03BF83946684634F010FA78B193
:104ED80069464846FEF769FE00213046FFF750FB59
:104EE800FFF7BAF83046FFF777FAFFF7B5F801355C
:104EF8000A3440F6F2539C42DFD115B90248FFF755
:104F0800CBFF0BB0BDE8F0835BFA0308E49C030811
:104F180066F903082DE9F04F2DED028B8BB0804622
:104F280030F074F8054628B1012824D198F80030EB
:104F38002A2B20D18A48DFF848828A4FFFF7ACFF36
:104F4800002404EB08066946304629F0F7FF694655
:104F58003846FEF72AFE29463046FFF711FB0A3489
:104F6800FFF77AF840F6F2539C42EAD10BB0BDEC59
:104F7800028BBDE8F08F3D21404634F069F90028E6
:104F880000F0E080034613F8012C202A03F1FF31DA
:104F980031D0A3EB0807441C2378202B04F101022D
:104FA8002BD0DFF8DCB100264FF00A0A0AFB06B561
:104FB8006946284629F0C2FF684630F027F8694656
:104FC800814602464046FCF763FC002840F0BE805C
:104FD800FBB2994540F0BA806B7903F00F08B8F13D
:104FE800060F0CD1204630F011F82146024628461B
:104FF80029F011FFBAE70B46C5E71446CCE713F0D2
:10500800C0030AD0402B5ED05748FEF7E1FF284680
:10501800FFF7E2F9FFF720F8A8E72378002BF3D091
:105028005249204634F051F9064620462FF0EEFF4B
:105038008642E9D12046FCF762FC2846B0EE408A59
:1050480029F082FE07EE900AF8EEE77AB4EEE78AD6
:10505800F1EE10FAD8DB284629F05EFE07EE900A3A
:10506800F8EE677AB4EEE78AF1EE10FACCD8B8F128
:10507800050F17D0B8F1040F1FD1214614F8013BD2
:10508800202BFAD0092BF8D0013900230A2011F877
:10509800012F303AD2B2092A02D800FB0323F6E7DF
:1050A80008EE103A284629F0A9FEB8F1050F36D8BF
:1050B800DFE808F032323E3E42452046FCF702FC6B
:1050C80008EE100AEEE7AB799FED298A252B96BFEB
:1050D800284E064606EBC306002796F804A03B4672
:1050E800B946574503D3B9F1000FDBD18CE7002B44
:1050F800F9D133686FF0004253F827002146FCF7D6
:10510800C7FB002808BF08EE107A0ABF0123002356
:105118004FF001090137E4E718EE103A03706946C9
:105128001548FEF742FD00212846FFF729FA1DE73A
:1051380018EE103A0380F2E780ED008AEFE780ED81
:10514800008AECE74046FFF7AEFE0FE7013640F273
:1051580065139E427FF42AAF0848FFF79DFE05E7D6
:1051680068FA030866F9030893FA03087AFA030849
:105178000000000014E4030888FA03085BFA030837
:10518800E49C030870B50346FEF72AFC30B3254BB0
:105198001C680134172C05D823490C2202FB041281
:1051A80095686DBB204A25460C210135172D0EDD6B
:1051B800002501FB0520866856B11D600FF0BCF97B
:1051C800324629461948FEF781FF2C4621E0F0D9DE
:1051D800A542EAD11648BDE870405DE61846FCF7DE
:1051E80071FB1728044605D80F4A0C2303FB00233C
:1051F8009D682DB921460F48BDE87040FEF766BF8F
:10520800084B1C600FF098F92A4621460748FEF71C
:105218005DFF0C235C43044B185DBDE870400FF044
:10522800A9BC00BF58000020B09A0308CCFA0308B4
:10523800A2FA0308B6FA030808B50948FFF72CFED6
:10524800084B1868FCF76AF9074B00241C70074BD9
:105258001C60074B1C7029F07BF82046FEF7CEFE39
:10526800E1FA030858C5002064C5002060C5002085
:10527800D8C000202DE9F74F80462FF0C7FE474DD4
:10528800DFF844912F680446F0B94548454EFEF7CB
:105298008CFC012519F80430013B05FA03F33B4265
:1052A80009EB040203D091683046FEF77EFC0C340B
:1052B800B4F5847FEED117B93B48FEF789FE03B0F9
:1052C800BDE8F04FFEF7C8BE024638494046FCF735
:1052D800DFFA064670B93648324DFEF779FE09EB1B
:1052E8000603284699680C36FEF75FFCB6F5907FF2
:1052F800F5D1E4E798F800302D2B03BF08F1010839
:1053080004F1FF344FF0010A4FF0000A00260C2385
:1053180003FB069B0193DBF80830009319462246ED
:105328004046FCF7B5FA019B00282FD1BAF1000FCF
:1053380019D0162E0BD11F4B2B601F48FEF748FEC5
:1053480000991E4803B0BDE8F04FFEF7BFBE172E08
:1053580001D16B68F0E79BF800305A1E0123934097
:105368001F432F60E9E7162E03D1C5F800A01448A3
:10537800E4E7172E17BF9BF800306F6003F1FF3288
:1053880001231EBF93409F432F60F0E70136182E7C
:10539800BED10C4803B0BDE8F04F7DE5B43B00201A
:1053A8000BFB03081CFB030815FB030821FB030880
:1053B80026FB0308FFFF3F0031FB03081DFB030822
:1053C8003AFB03085BFA0308B09A03082DE9F8438F
:1053D80005462FF01BFE0446D0B9304B30481D68F7
:1053E800304EDFF8D080FEF7F3FD012756F8241081
:1053F80051B10B7833B107FA04F32B4202D040467F
:10540800FEF7D3FB0134F1E7BDE8F843FEF724BE0D
:10541800024625492846FCF73BFA78B92348244C2C
:10542800244DFEF7D5FD54F8041F0029ECD00B7865
:10543800002BF8D02846FEF7B8FBF4E72B78DFF806
:1054480064902D2B03BF013504F1FF344FF00108A0
:105458004FF00008002659F826701FB91648BDE815
:10546800F84319E5224639462846FCF711FA98B957
:105478000120B040B8F1000F0AD0FCF707F90F4837
:10548800FEF7A6FD39460E48BDE8F843FEF71EBEF6
:10549800FCF704F90B48F3E70136DCE74C4200203F
:1054A80042FB0308B894030821FB030850FB0308D8
:1054B800B49403084CFB03085BFA030831FB0308A8
:1054C8001DFB03083AFB030830B5274885B0FEF7F3
:1054D8007FFD1FF0E7FA20B9244805B0BDE8304049
:1054E800DAE41FF0D7FA08B92148F6E71FF0CAFA3C
:1054F8000268037D81790446407C0290207C0190FB
:10550800608A009052081B48FEF74FFB04F10C0517
:10551800073414F8010BFEF749FDA542F9D1164CE2
:105528001648FEF755FD6278032A13D8DFE802F023
:10553800080806021248FEF74BFD0BE01148FAE78F
:105548001148FEF745FD41F2B413E35C022B06D087
:10555800032B06D005B0BDE83040FEF77DBD0B48F3
:10556800E9E70B48E7E700BF5CFB030866FB0308B5
:1055780074FB030883FB030838570020B1FB0308BA
:10558800C1FB0308C7FB0308D4FB0308DAFB0308C5
:10559800F3FB03082DE9F043AE4BAF481968AF4D54
:1055A800DFF8688399B04FF47A73B1FBF3F1FEF733
:1055B8008DFD07A8FCF79CFB07A90EA8FCF78CFD3E
:1055C8000EA9A748FEF782FD12F01EF86422B0FB70
:1055D800F2F102FB1102A348A34B00781B7805EBFC
:1055E800800092B2D0F87401009089B29F48FEF70B
:1055F8006DFD9F4B9F4819689F4BB1FBF3F1FEF778
:10560800D4FA9E4B1E68002405F5C27705F5D079BB
:105618000123A34033420BD057F8243043B118F884
:10562800042059F8241053F822209548FEF7BDFAB3
:105638000134072CECD1FEF70FFD92488E4CFFF792
:105648002BFC0AA8FDF734FE0A998F48B1FBF4F148
:10565800FEF73CFD0B998D48B1FBF4F1FEF736FDE2
:105668000C998B48B1FBF4F1FEF730FD0D99894890
:10567800B1FBF4F1FEF72AFD11F02AFE05EB8000DC
:10568800D0F8C86111F044FE05EB8000D0F8C8716D
:1056980011F00CFE05EB8000D0F8C88111F0E8FD90
:1056A800044611F0AFFD05EB800005EB8404D0F84B
:1056B800C8310393784B0293D4F8C83177490193E2
:1056C80032463B46CDF800807548764E764FDFF877
:1056D8004082FEF7FBFC0020FFF7F6FE734B744A8E
:1056E8001C88F36B734974489B00C3F50063FEF78D
:1056F800EDFC724A724B7348A4B2D31A2146B6F82D
:10570800CC20714EFEF7E2FC7048FFF7C5FB002481
:1057180056F824103846FEF748FA4046FEF758FC7B
:105728006B4BE15C4FEA8409002974D16948FEF7A4
:105738004FFC6948FEF74CFC684B59F803100029E8
:105748006DD16448FFF7A8FB0134042CE0D1644B09
:1057580064481988FEF729FA634B1A6F002A62D049
:1057680007EE902ADFED616AF8EEE77A86EEA77A0F
:10577800FDEEC77ACDED047AD3F8B820002A54D0CC
:1057880007EE902ADFED596AF8EEE77A86EEA77AF7
:10579800FDEEC77ACDED057A9B6A5BB107EE903ACC
:1057A800DFED526AF8EEE77A86EEA77AFDEEC77A61
:1057B80017EE903A4E4A4F4811884F4E0093049A7C
:1057C800059BDFF85081FEF781FC4C48FEF700FC92
:1057D800346824F0784424F07F0401273CBBFEF7AA
:1057E8003BFC33685B0113D506A829F042FB78B966
:1057F800069BB3F5B27F9DBF414C0A2000FB0340D6
:1058080020460EA929F09AFB0EA93E48FEF75EFC39
:1058180019B0BDE8F0833C48FEF7C7F989E73A4874
:10582800FEF754FC90E70492A6E70592B4E794FAD1
:10583800A4F3B3FA83F307FA03F2062B24EA02046B
:10584800CCDD05EB83034046D3F8CC11FEF7ADF968
:10585800C4E700BF20B9002005FC0308C89303086B
:105868001FFC0308F8400020AC41002030FC03086E
:10587800E80D002053FC030840420F00D892002096
:1058880063FC03086BFC030880FC030892FC030814
:10589800A4FC0308B6FC03081EFD0308C8FC0308A3
:1058A800CBFC030898210020A8FD0308549700208A
:1058B800000001100018000023FD03080000100874
:1058C80000000E085BFD0308A095030895FD03087A
:1058D800AD37002017FB0308C6FD0308F43F00207E
:1058E800D0030010D0FD0308D00400200024744920
:1058F800F0260020E0FD0308D89000201DFE0308D4
:10590800E49C030834FE0308BFFD0308BC3F0020E5
:10591800B0FD03081DFB03082DE9F347204E21487D
:105928003768214CDFF89080DFF88490DFF88CA08E
:10593800FFF7B2FA0025BD4202DB02B0BDE8F087EE
:1059480033689D4229DCA288D3B2172B18D808EBFC
:105958008303D3F83832002B08BF4B4621685046E2
:10596800FEF723F9E3885A040CD5E0890090A3894F
:10597800628921890D48FEF7A9FB01351034DAE761
:105988000B4BEBE71B0405D5E268A1680948FEF755
:105998009DFBF2E7FEF760FBEFE700239B88FFDE45
:1059A8006435002048FE03086431002083FE0308A4
:1059B8006628040895FE0308C893030874FE0308C4
:1059C8000148FFF769BA00BF9FFE0308F7B5034611
:1059D800FEF706F8044618B1FFF7F2FF03B0F0BD72
:1059E80001AA1D491C4F184631F02CF826462546B9
:1059F80040B90B2D18D919490B2302461848FEF750
:105A080065FBEBE744B1012C0AD001AA3946002016
:105A1800013431F017F8EBE7FBF754FF0546F4E7DC
:105A2800FBF750FF0646F0E7022C0DD1A6F57A7376
:105A3800B3F57A7F05D94FF4FA634FF47A720949BE
:105A4800DCE7094B23F81560074B084833F91520A4
:105A58002946FEF73BFBC1E7180A040838FA030891
:105A68003EFA0308F320040868A70020ABFE0308E9
:105A78002DE9F34104462FF0C9FA04283DD1631EED
:105A8800E11C5A78A2F16100192898BF203A03F85E
:105A9800012F8B42F5D1DFF874802546271D15F8B4
:105AA800016B4046314633F0D3FB20B131462846DE
:105AB80033F0CEFB20B1FFF783FF02B0BDE8F081E1
:105AC800BD42ECD1204612F019FD0E480E4CFEF7EF
