:020000040800F2
:10000000002000103DD902084151020805C602082F
:100010003F5102083D5102083B5102080000000018
:10002000000000000000000000000000395102083C
:10003000375102080000000035510208C9070008C6
:10004000D9D90208D9D90208D9D90208D9D90208C0
:10005000D9D90208D9D90208DD0A0008E70A000840
:10006000E50A0008E30A0008E10A00080125020881
:10007000F1240208E1240208CD240208B924020870
:10008000A524020891240208D9D90208D9D9020866
:10009000C1490208D9D90208D9D90208DF0A0008E3
:1000A00099710208ED710208897102081172020843
:1000B000DD710208CD710208BD710208D9D90208AC
:1000C000D9D90208D9D90208D9D90208D9D9020840
:1000D000D9D9020891760208857602087976020855
:1000E000DB0A0008D9D90208B1490208D9D90208A7
:1000F000B9710208D9D90208A9710208D9D9020830
:10010000000000000000000000000000D9D9020833
:10011000D9D90208D9D90208D9D90208D9D90208EF
:100120007D2402086924020855240208412402089B
:100130002D240208D9D902080000000000000000A8
:10014000D9D90208D9D90208D9D90208000000007B
:10015000000000000000000000000000000000009F
:100160000000000000000000D9D90208D9D9020817
:10017000D9D90208000000000000000000000000C3
:0801800000000000D9D90208BB
:10018800436A8269D154436A02690133934228BFA2
:100198000023426B4362136843F080031360704787
:1001A8000346026A4169885CD96801328A4228BFDD
:1001B8000022C0B21A627047826A406A131A584213
:1001C80058417047426A836A00699A4238BF1218D8
:1001D800D31A0138C01A7047C269036A9A422FBFFE
:1001E800D01AC0688018C01A704783681A68937A52
:1001F8000133DBB20A2B937205D9507802490023E8
:1002080021F8103093727047CA35002070B5524BF0
:100218001A7814240132B2FBF4F004FB10229C6813
:10022800586D1A70A142DA6808440CD293F85C4001
:10023800002C00F08B8000F5803082423CD3C2F560
:10024800803202440AE08242F9D293F85C40002CE2
:100258000CBF00244FF48034821A121B996093F863
:1002680060101A610022013183F85C201422D860E2
:1002780091FBF2F002FB101183F8601093F8611003
:100288001869013191FBF2F402FB141283F8612022
:1002980040F68C2290423CD9197993F95920914221
:1002A8002BD10A1F0C2A28D893F85A20182A06D8C6
:1002B800013283F85A2004E04FF48034CCE783F805
:1002C800581093F9582091420FD193F85B0060B110
:1002D800224C234D0020904211DB214800240F2A94
:1002E80013DD2048027801320270012283F85B2076
:1002F80083F8591000221A7170BD0022D9E754F80A
:10030800046F25F810600130E5E720F8124001324B
:10031800E5E793F85B20EAB1A0F2EF2140F2DA5268
:10032800914207D81A790F2A04D803EB82010132C7
:100338004861E0E700220C4883F85B201146134629
:10034800C2180433402B1161FAD170BD8242BFF448
:1003580076AF81E770BD00BF900A0020A00A002098
:10036800CA350020C8350020940A002010B50A4B71
:100378001A7814240132B2FBF4F004FB10221A702C
:100388005A6D01320A445A654FF6FF72914204BF12
:10039800012283F85C2010BD900A002001207047DC
:1003A8000120704770B5104C05460E460022002308
:1003B800D4E91A012CF022FF20B109A3D3E90023C4
:1003C800C4E91A2330462CF04BFCD4E91A232CF04C
:1003D800D7FD2CF045FF04EB4504A4F8700070BD70
:1003E800ABAAAAAAAA461040900A00200E4B98422F
:1003F8000AD0A3F57843984212D003F58063984257
:1004080010D04FF0FF3070470023084A142101FB39
:1004180003231A8A013292B21A82188A80B270476C
:100428000123F2E70223F0E7003001407C010020BD
:10043800F8B584894FF6FF754FF47A740BB901202B
:10044800F8BD82B1167801320789BF070DD506734A
:100458004FF47A740689F60711D5067B09B10E7038
:100468000131013BEAE7FF26EEE7013CA4B2AC42CA
:10047800EAD1FFF7BBFF003018BF0120F8BD013CEF
:10048800A4B2AC42E6D1F4E708B540F2E9330289F8
:10049800920707D5017340F2E9330289D20709D5DB
:1004A800007B05E0013B9BB2002BF0D1FFF79EFFDC
:1004B800C0B208BD013B9BB2002BEED1F6E7A0F11C
:1004C8003003DAB2092A01D818467047A0F161034F
:1004D800052B01D857387047A0F14103052B94BF6D
:1004E80037384FF0FF307047F0B50124B0FBF4F512
:1004F8008D4203D200271CB91C70F0BD4C43F5E7B0
:10050800B0FBF4F604FB1600B4FBF1F41FB9002E9F
:1005180001DC002CEFD1092E03F1010E08DD002AC1
:1005280014BF3725572535441D7001377346E2E758
:100538003025F8E703685A1C026019707047036891
:100548005A1C0260197070472DE9F84F002B14BF30
:100558004FF030094FF020090A9B141E07468846C1
:10056800BABF64424FF0010B4FF0000B13F8012B98
:1005780002B1DCB9BBF1000F1ED1254615F1FF35DC
:1005880016D223462C460A9D5E1B05EB060A15F873
:10059800011B99B9BBF1000F05D02546002D10DCD1
:1005A800002CA8BFA2445046BDE8F88F013CDDE707
:1005B80049463846C047E1E70023E4E73846C047E4
:1005C800E3E749463846C047013DE7E7D0ED006A12
:1005D800D0ED057AE6EE807AB0EE407AB0EE670AA2
:1005E800D0ED037AD0ED016A67EEC07AE7EE267A9D
:1005F800D0ED066A77EEA67AD0ED026AC0ED057AEC
:10060800D0ED047A67EEC07AE7EE267AC0ED067A76
:1006180070477047704710B5224B18B91B68022203
:100628001A8210BD20491C680020A1F89000237888
:1006380013F07F030A4616D1637A990644BF022154
:1006480082F8901013F0400F92F8903014BF43F0E6
:10065800010323F0010382F89030144B1B681B69D7
:100668009847134810BD012B19D0022B19D1637973
:1006780013F0800F03F00F034FEA830303F1804365
:1006880003F5B8431B6805D003F03003102BE4D101
:100698000123E0E703F44053B3F5805FF7E701F186
:1006A800900010BD58710020900A0020CC6E0020E8
:1006B800200B002010B5064C18B9236801221A82B5
:1006C80010BD044B1B689B68984720680C3010BD10
:1006D80058710020CC6E002010B5064C18B923685C
:1006E80001221A8210BD044B1B681B6898472068BA
:1006F8000A3010BD58710020CC6E002038B58268D1
:100708001468A578034645B90123A370A1800A227D
:100718002946BDE8384026F089BEA08889B28142C2
:1007280038BF5A68E1803DBF1268D26A121A091AA6
:1007380038BF89182181074A6178208922F8110079
:100748000025A5700A220121184626F06FFEA57221
:1007580038BD00BFCA350020094B07EE901A53F880
:100768002030B8EEE77A93ED040AD3ED057A10B598
:10077800A7EE270ADC682DF0BFFE206010BD00BF81
:10078800504700202DE9F0410B4DDFF830802C68F0
:100798006A69012714400CB9BDE8F081B4FA84F302
:1007A800C3F11F0307FA03F658F8230003689847B4
:1007B80024EA06046E61EEE700040140942100205B
:1007C800EFF31183102282F3128808490A68013274
:1007D8000A60074A074990680860074900200860CE
:1007E8001268DBB283F31188704700BF589300206A
:1007F80010E000E0E0190020DC19002003689B6A83
:1008080003B11847704703685B6A03B1184770471C
:1008180003689B69184703685B69184703681B6985
:1008280018470368DB68184703689B68184703681C
:100838005B68184703681B6818470368DB692DE97C
:10084800F04105460E4617468BB90C463B1B334410
:10085800002B01DCBDE8F0812846FFF7E5FF002802
:10086800FAD014F8011B2846FFF7E4FFEEE7BDE8CD
:10087800F0411847E1E7014B1868DBE75C680020A6
:1008880038B505460C4614F8011B01B938BD284691
:10089800FFF7D0FFF7E70C4B1B681B0110B406D518
:1008A8000A4B1B685B050CD55DF8044B7AE5084BD1
:1008B80003EB8003D3F894301BB107289CBFDB6897
:1008C80019605DF8044B7047E03F0020E43F0020CA
:1008D800900A0020F0B5094E34683F2C0DDC0FC893
:1008E800074F4FEA041E0EEB070585E80F00054B7E
:1008F8001B684EF8073001343460F0BD80210020B9
:10090800801D0020589300201FB5ADF80A30BDF8AF
:100918001830ADF8040041F48041ADF80C30684659
:10092800BDF81C30ADF80610ADF80820ADF80E3053
:10093800FFF7D0FF05B05DF804FB1FB5ADF8040064
:100948006846ADF80610FFF7C5FF05B05DF804FB73
:1009580010B50409013C052C00F00F0215D80C4B0A
:1009680033F8141041FA02F313F001000ED00120FD
:100978009040013808402CF059FE064B1B5D184486
:10098800054B0C2202FB003010BD002010BD00BF3B
:10099800380A03080C0703088483002010B1036891
:1009A80082881A85704710B1036882889A617047F7
:1009B80070B5164690F90C20142353430C4AD558A9
:1009C80083689A07044602D40069FFF7E7FF2846C0
:1009D800FFF75AFD0123002231462846FFF728FD7C
:1009E800A3689B0702D42069FFF7DDFF012070BDD3
:1009F8007C010020F8B5164690F90C201F461423F8
:100A080053430D4AD55883689A07044602D40069AF
:100A1800FFF7C4FF2846FFF737FD3B460022314663
:100A28002846FFF705FDA3689B0702D42069FFF756
:100A3800BAFF0120F8BD00BF7C010020F8B51646BA
:100A480090F90C2014235343104AD55883689A0709
:100A580004460F4606D40069FFF7A0FF01200021D5
:100A680005F028FB39462846FFF70EFD3146284693
:100A7800FFF70AFDA3689B0706D40120002105F0B3
:100A880019FB2069FFF78FFF0120F8BD7C010020CA
:100A980038B183880268002914BF002110218B40D7
:100AA80093617047044B01461868044B1B780BB9D7
:100AB80081F00101ECE700BFC0220020C422002021
:100AC80030B1036882881B8A1A4214BF01200020B3
:100AD800704757E656E655E654E653E652E651E6C1
:100AE8002DE9F3410446184616460D461F462BF0DD
:100AF8005DFF2368E67228440022A0720092D3F8B2
:100B0800148032463B4629462046C04702B0BDE81D
:100B1800F081036810B504465B689847236820464F
:100B28009B689847A37B013BA37310BD036810B56E
:100B380004461B689847236820469B689847A37B10
:100B48000133A37310BD036810B59B68044698472A
:100B580001232373FF23637310BDF8B50679012EB3
:100B68000546964609D0022E1FD18368DB0758BF79
:100B780041F08001BDE8F8401AE70D4B90F90C00F0
:100B8800182404FB003463786BB16B7BA1725B00A3
:100B980023720023637223750223A370E660226127
:100BA80021F0B2FC237D1846F8BD0023FBE700BF07
:100BB800E06900202DE9F0410479012C05468E46B4
:100BC8001F4609D0022C20D18468E40758BF41F0A1
:100BD8008001BDE8F0410DE70D4B90F90C00182499
:100BE80004FB003463786BB16B7BA1725B002372EA
:100BF8000023637223750223A370E760226121F04A
:100C080083FC237D1846BDE8F0810023FAE700BF86
:100C1800E069002073B50379012B0D4616460AD00A
:100C2800022B25D18368DB0758BF01F07F01FFF74E
:100C380005FF02B070BD90F90C10427B0D488DF88D
:100C48000760182404FB010460780028F1D063725F
:100C5800E3600DF10703236100235200237502238B
:100C680008462272A572A37021F04EFC207DE0E7B1
:100C78000020DEE7E06900200A4B70B50E46D3F885
:100C8800B450811C89000446F2B201F0FC012846E8
:100C9800FFF7C0FFA1000931320A2846C9B2BDE8F2
:100CA8007040B7E7900A00202DE9F0410E4E8046CB
:100CB800002406F14807E0B200F0030343450ED1D3
:100CC80036F8145037F81430EB1A002BB8BF5B42D3
:100CD800052B04DD2946FFF7CFFF27F81450013410
:100CE800102CE8D1BDE8F081000B002038B50F4D7D
:100CF8001022002141F2D774B4FBF0F4D5F8B40007
:100D0800FFF788FF012005F0E6F9621ED2B2FE2146
:100D1800D5F8B400FFF77EFF012005F0DCF9D5F81F
:100D2800B40080220021BDE8384073E7900A002013
:100D3800F8B51F4690F90C300446142058430C4B64
:100D48001D58A36816469A0703D42069FFF726FEA4
:100D580000BF3B4632462846FFF76AFBA3689B075D
:100D680003D400BF2069FFF71EFE0120F8BD00BFB5
:100D78007C01002073B50279022A22D103238DF861
:100D8800033090F90C001F4C8DF8022004238DF8D5
:100D980004301423434302A80844E3581A490026A0
:100DA80001258DF800608DF801508B4210F8080C71
:100DB80009D0A1F578418B421FD001F580618B42A3
:100DC8001DD002B070BD31461A8822F040021204CC
:100DD800120C14251A8005FB01411A88C96822F0F3
:100DE800380231F810101204120C0A431A801A88BB
:100DF80092B242F040021A80E3E72946E4E711463E
:100E0800E2E700BF7C0100200030014010B5427AC3
:100E1800044632B1036800F10A014068984700238C
:100E2800637210BD124B53F8200070B5F8B1114A27
:100E3800062303FB002393F90140621C16D018799E
:100E4800A8B10D4A0D4E155DDA78642114230020EF
:100E580061438C18013B36F814402A4410FA84F098
:100E6800F7D11423B0FBF3F080B270BD002070BD41
:100E7800043F0020C9220020C8240020E8220020C6
:100E880038B503200D461446FFF7CCFF07EE900A4D
:100E9800B8EE677ADFED0A7A27EE277A5DB1F8EEC9
:100EA800047AF0EE006AE7EE267A9FED067A67EE9E
:100EB800877AC5ED007A0CB1034B236038BD00BFBB
:100EC8006740533A00007A443313904330B5094BD6
:100ED8000949C0B28B4200D330BD5A88140406D5E4
:100EE8005D68DC68C2F30B0200FB02522260143317
:100EF800F0E700BF987F03081C83030870B5448897
:100F080006460D46C4F30B040021224628462FF05E
:100F180078FB3169084B994208D3084B994205D2AE
:100F280022462846BDE870402DF0ECB819B1284695
:100F3800BDE87040084770BD1C8303089A85030804
:100F48004388426813F4004F1EBFC9B2C3F30B03B2
:100F580001FB03221146D1E7064B07498B4202D316
:100F68000023184670471A88C2F30B029042F8D043
:100F78001433F3E7987F03081C830308024A1368B5
:100F880023EA0000106070471C2D0020024A1368F5
:100F980018431060704700BF1C2D00202DE9F34155
:100FA800056906460F467DBBD0F80080C8F30A03E2
:100FB80023B30023D6F80080019328F07BFD042892
:100FC80019D1224C236943F001032361BBB2A8F86D
:100FD800003028F06FFD04282ED108F10203019398
:100FE800019B3F0C1F8028F065FD2369042823F02E
:100FF8000103236125D06FF0010505E028F05AFDB3
:10100800042805D04FF0FF35284602B0BDE8F0812E
:101018000E4C236943F002032361C4F8148023694A
:1010280043F04003236128F045FD2369042823F099
:1010380002032361BDD0E5E7236923F0010323619F
:10104800D9E7336804333360DEE700BF002002408D
:10105800F8B504460D468E180027B54201D120691F
:10106800F8BDE368591CE160234415F8012B1A7296
:101078000429F2D1A1682046FFF790FFE7602061BC
:10108800EBE738B58D180C46AC4200D138BD14F8E2
:10109800011B19F0FBFEF7E770B501221049114C4E
:1010A800114E0020FFF7EDFF22884AB1A518B5427E
:1010B80013D2052A11D92146FFF7E3FF2C46F3E79F
:1010C80021460222FFF7DDFF6388084AC31AA41AE3
:1010D800074A58421480584170BD002070BD00BFB7
:1010E80000E8030801E8030800000408FCE7030817
:1010F800D819002030B502440446944201D100209A
:1011080011E014F8013B11F8015BA3F14100192823
:10111800A5F1410098BF2033192898BF2035581BE6
:1011280001D1002DE9D130BD70B5034610F8012B6F
:10113800202AFAD0092AF8D02D2A0ABF0346012509
:101148004FF0FF35591E00240A2611F8010FFFF74A
:10115800B6F90A2802D905FB04F070BD06FB0404A1
:10116800F3E730B50278202A034600F10100F9D0F0
:10117800092AF7D02D2A47D10346BFEE000A9FED72
:101188003A7A1A46F2EE046A134612F8010BA0F1F5
:101198003001CCB2092C3DD92E280BD1F2EE046ACD
:1011A8001146B0EE666A0B4611F8012B303AD0B200
:1011B800092838D91A7802F0DF02452A4FD15A781F
:1011C8002D2A3BD102330120013B00220A2513F8C6
:1011D800011F3039CCB2092C36D9B2F59A7F28BF15
:1011E8004FF49A72DFED216A1346F7EE007A072B67
:1011F8002DD802F00702F2EE046A62BB88B3C7EE8C
:10120800276A20EE260A30BD2B2A08BF0346B7EE10
:10121800000AB4E707EE901AF8EEE77AE7EE267AC6
:10122800B0EE677AB0E707EE902AF8EEE77AC7EEF5
:10123800A65A66EE866A37EE257AB4E72B2A14BFDB
:10124800013302330020BFE705FB0212BFE767EE58
:10125800A67A083BCBE767EEA67A013ACDE7F7EE28
:10126800007A67EE276ACCE70000000020BCBE4C7D
:10127800B5EEC00ADFED2D7AF1EE10FACCBF30EEF4
:10128800270A30EE670ADFED2A7A20EE270A30B502
:10129800FDEEC07A87B017EE904A054684EAE470FE
:1012A800002303A9A0EBE47000930193029328F0B4
:1012B8001FFD002CACBF20232D2303A88DF8003080
:1012C8002BF074FB012822D130238DF801308DF8E2
:1012D80002308DF8033003A968462FF09AF9684662
:1012E8002BF064FB0338C4B22246694628462FF027
:1012F800C7F900232B550F4928462FF08AF90DEB23
:10130800040128462FF085F9284607B030BD022889
:1013180005D130238DF801308DF80230DBE7032842
:1013280004BF30238DF80130D5E700BF6F12033AB0
:1013380000007A44736F030870B5064615460846E0
:10134800B6FBF2F414B12046FFF7F6FF05FB146470
:10135800024B1B5D00F8013B70BD00BFB855030888
:10136800084BD3E9002352EA030108D0064909686B
:10137800521843F10003C0E9002301207047002000
:10138800704700BF302D002058930020F0B5264E3E
:1013980004460F460FCE8DB06D460FC50FCE0FC554
:1013A80096E80F0085E80F0014F0030335D1642197
:1013B80094FBF1F201FB124242B94FF4C87294FB5C
:1013C800F2F302FB1343003318BF0123C3F11D03DB
:1013D80040F26D1201930420631E93FBF0F002FBB0
:1013E80004046FF0630093FBF0F020444FF4C874DA
:1013F80093FBF4F31844063000220721013F5DF8FF
:1014080022309742184490FBF1F4C4EBC404A0EBDB
:10141800040004D1181A0DB0F0BD0123D6E701323B
:101428000C2AECD10020F6E714070308F8B5144697
:101438001D4606464FF47A720023204629462CF0B2
:101448008DF82C4B3C22034493FBF2F002FB103145
:10145800B17190FBF2F102FB1102182072714FF486
:10146800616293FBF2F292FBF0F100FB1122327100
:101478002149224A93FBF2F293FBF1F3980040F2E0
:10148800B55392FBF3F103FB1123B3F5896F2DDA02
:1014980040F2DA2293422BDCB3F5B77FB4BF0022C7
:1014A80001221749182707FB02170B2137F811E00B
:1014B800734501DA0139F9D100F5FA60104430803A
:1014C800481CB0700C2000FB02120E4901EB4202CE
:1014D800013392F838209B1AF3704FF47A72002384
:1014E800204629462CF03AF83281F8BD0322D8E785
:1014F8000222D6E780BC92C7801F86078051010070
:10150800440703080C07030837B504466846FFF785
:1015180027FF054638B1DDE900232046FFF786FF9F
:10152800284603B030BD01232080A370E3702071EA
:101538006071A0712081F3E737B50546FFF7E4FF36
:10154800044640B1054B02AA1B8822F8023D2946F1
:10155800284628F0FAFA204603B030BD80830020E0
:1015680010B50288C378A2F5FA62591E40F2B55444
:10157800930804FB031381780C24013902F0030259
:1015880004FB02120C49847901EB42021821128FE4
:101598001344027901FB0323427900893C2101FBB2
:1015A8000323064A224401FB03234FF47A720021E5
:1015B800C2FB030110BD00BF0C07030880436D3850
:1015C8000B684A689A4206D05A1C0A601B7800B118
:1015D8000370012070470020704710B5026811465B
:1015E800531C036011F8024B0160D31C517803604F
:1015F80093781B0443EA0123111D0160D07823432B
:1016080043EA006010BD03685A1C02601A4612F8CB
:10161800021B0260587841EA0020704791E80C00EC
:101628009B1A012B10B5044606DD0846FFF7EBFFB1
:1016380004B12080012010BD002010BD03685A1C91
:1016480002601878704738B5044609C81B1A9A42D0
:10165800154606DC2CF056FD22682A44226001203B
:1016680038BD002038BD38B50446006815462CF052
:1016780049FD22682A44226038BD03685A1C02606A
:10168800197003685A1C02600A0A1A7003685A1C07
:1016980002600A0C1A700368090E5A1C026019705D
:1016A800704703685A1C026019700368090A5A1CBB
:1016B8000260197070472DE9F04F89B082468B4659
:1016C80016461C4600270DF114083178002934D03D
:1016D800252904D050460136D8470137F5E77178F7
:1016E8002D2905BFB178F51CB51C012618BF0026A9
:1016F800302906BF2978012300230293A1F1300382
:1017080008BF0135092B4FF0000907D80846FEF736
:10171800D6FE0A2815D90EB1C9F100096C2940F086
:101728008B802A78642A05F1010600F0BC801BD85A
:10173800252A62D00BD8002AC7D1384609B0BDE89F
:10174800F08F0A2303FB090915F8011BDEE7582A65
:101758001BD0632AB9D1354621785046D847261D73
:10176800013734462E46B0E7732A3AD008D8662A9D
:1017780049D06E2AA9D13546236804341F60F1E7A1
:10178800752A00F08B80782A9FD1A2F15800424236
:1017980004F10405434642411021206807E02D2347
:1017A8008DF8143040420DF1150300220A21FEF78E
:1017B8009BFE2C46CDF80080029B4A46594650466F
:1017C800FEF7C2FE074480E72D238DF8143040420F
:1017D8000DF1150300220A21FEF786FE2E46039C12
:1017E800E8E73546236800934A46002359465046A1
:1017F800FEF7AAFE261D0744B3E7354625215046C5
:10180800D8470137AEE73546073424F00703D3E954
:10181800000103F108042BF043FD00EE100A4046D6
:10182800FFF726FDCDF80080029B4A4659465046F0
:10183800FEF78AFE074495E764293CD00BD8252992
:10184800DCD003D800293FF478AF8BE758290FD0B4
:10185800632981D086E77329C4D004D86629D3D0F8
:101868006E2989D07EE775290FD078297FF47AAF61
:1018780058394A4204F104064A4120684346102177
:101888003446FEF731FE2E4694E7231D03930022CB
:1018980043460A212068FEF727FE9FE7251D434699
:1018A80000220A2179E72068002804F10405FFF6E0
:1018B80076AF434679E72068231D0028039383DB2E
:1018C800434687E70EB40FB505AB019053F8042BD8
:1018D8000649039301A8FFF7EEFE019B00221A7048
:1018E80004B05DF804EB03B0704700BF470500087B
:1018F8000FB437B50B490C48096800680B4D06ABA7
:1019080053F8042B0193FFF7D6FE04462868FEF728
:1019180082FF0028FAD0204603B0BDE8304004B06A
:10192800704700BF84210020882100205C680020C7
:101938002DE9F04F00F1100E85B007460546002648
:1019480000F14009B0462B46BC4616E0F4EC016AAB
:101958001AED047AD3ED007AE6EEC77AC3ED007A81
:10196800AC420AF1100AF1D108F10108B8F1040FEC
:101978000CF1040C03F1040303D0AEF11004E246A9
:10198800EEE74FEA860B73464B451ED003EB0B0A76
:10199800B8469C4609E0FCEC016A18ED047AD4EDDF
:1019A800047AE6EEC77AC4ED047AD44508F1100843
:1019B800F1D1D4ED046A95ED007AC6EE877A10333A
:1019C80017EE90CA44F810CFDEE70136042E05F171
:1019D80014050EF1100E07F10407B3D1002400948A
:1019E80001940294039402F1100C074606466C46D3
:1019F80052F8045B2560EE463546BD4228D1624563
:101A080004F1040406F1100605F11407F0D104AE40
:101A180000F13C050A4656F8044D42F80C4F2C4696
:101A28000434A34202F10402D1ED037A1BD12A4601
:101A3800D2ED006A87EEA67A103B8342A5F1140521
:101A4800A1F1040181ED047AE4D105B0BDE8F08F7D
:101A5800BEEC017AD4ED007AF5EC016AE6EEC77ABD
:101A6800C4ED007AC9E7D4ED006A92ED007AE6EE9B
:101A7800C77AC1ED037AD3E71FB50C46024669461B
:101A88001030FFF755FFDDED007AB6EE007A67EE0D
:101A9800877AC4ED007ADDED017A67EE877AC4EDC6
:101AA800017ADDED027A67EE877AC4ED027A04B036
:101AB80010BDD1ED007A90ED066AD0ED095AB8EE66
:101AC800E77AD0ED047AE7EE077AB7EE005AC0ED70
:101AD800047AD1ED017AF8EEE76AD0ED057AE7EEFF
:101AE800267AC0ED057AD1ED027AF8EEE77AA7EE0C
:101AF800276A80ED066A90ED076A36EE076A80ED80
:101B0800076A90ED086AA7EE266A80ED086A26EE55
:101B1800A66A75EE865AA7EE076AC0ED095AD0ED97
:101B28000A5AE6EEA75AA7EEA76AC0ED0A5AD0ED00
:101B38000B5A75EEA65AC0ED0B5AD0ED0C5AE7EECB
:101B4800275AC0ED0C5AD0ED0D5AE6EEA75AC0ED53
:101B58000D5AD0ED0E5AE7EEA75AC0ED0E5AD0ED49
:101B68000F5A75EEA75AC0ED0F5AD0ED105A75EE00
:101B7800875AC0ED105AD0ED115A75EEA65AC0ED2D
:101B8800115AD0ED125A75EEA75AC0ED125AD0ED7F
:101B9800135A75EE855AC0ED135AD0ED005AE7EE88
:101BA800065A90ED017AC0ED005AA6EE867A80EDCD
:101BB800017A90ED027AA7EE867AD0ED037A80ED6D
:101BC800027A37EE866A80ED036A704700F14001B9
:101BD800034600221A615A619A61DA6110338B4216
:101BE80040F8042BF6D1704780EAE073A3EBE0736A
:101BF8008B4206DB002801DD401A704702D00844FA
:101C080070470020704744F25063984203DDA0F506
:101C18000C40A0387047034B9842BCBF00F50C40FD
:101C2800A0307047B0B9FFFFF0EEE06AB0EEC07ABE
:101C3800F4EEC76AF1EE10FAD4BFB0EE476AB0EE20
:101C4800666AB5EE406AF1EE10FA48D0F4EEC76A5B
:101C5800F1EE10FA54BFF0EE475AF0EE665AC5EEB0
:101C6800867A9FED206ADFED205A9FED205AE7EE35
:101C7800865A9FED1F6AA7EEA56ADFED1E5AE7EEAA
:101C8800865A9FED1D6AA7EEA56ADFED1C5AA7EEDE
:101C9800A55AF7EE005AE7EE855AB1EE466AC6EE47
:101CA800257AF4EEC76AF1EE10FA48BF9FED147A70
:101CB800F5EEC00A48BF77EE677AF1EE10FA48BF32
:101CC8009FED107AB5EEC00A48BF77EE677AF1EE5D
:101CD80010FA48BFF1EE677AB0EE670A7047DFED99
:101CE8000A7ABEE739094E3DE3B59EBE69A2163EA3
:101CF80088FA16BE45FE7FBFA7DFA8B499FB243F2C
:101D0800DB0FC93FDB0F494000000000FDEEC07A41
:101D180017EE903A2033402B43D8DFED237A9FED1E
:101D2800237AB4EEE70AF1EE10FA28DCDFED207A28
:101D38009FED1E7AB4EEE70AF1EE10FA22D4DFED39
:101D48001D7AB4EEE70AF1EE10FA1EDD30EE670AEE
:101D580037EEC00A60EE007ADFED176A9FED177A5A
:101D6800A7EEA67ADFED166AE7EE876A9FED157A89
:101D7800A7EEA67A20EE276AA6EE070A704730EE8D
:101D8800470ACEE730EE070AD4E79FED0F7AB4EEA4
:101D9800C70AF1EE10FA44BF30EE270A37EE400AC0
:101DA800D8E79FED0A0A7047DB0F4940DB0FC940AF
:101DB800DB0F49C0DB0FC93F9A7C2E36FAAF4FB90B
:101DC8003587083CA4AA2ABEDB0FC9BF0000000063
:101DD800DFED027A30EE270A98E700BFDB0FC93F34
:101DE80091ED005A08B5B0EE450AFFF7F1FFF0EEA5
:101DF800405AB0EE450AFFF789FFD1ED014AB0EE2F
:101E0800405AB0EE640AFFF7E3FFB0EE404AB0EE86
:101E1800640AFFF77BFF91ED023AF0EE403AB0EE2C
:101E2800430AFFF7D5FFF0EE404AB0EE430AFFF74A
:101E38006DFF25EEA46A65EE806A65EE247A64EE8D
:101E4800244A25EE007AC0ED004AF0EE664AE3EE39
:101E5800A74AB0EE463AC0ED034AF1EE634AA4EE53
:101E6800873AE3EEA67AA4EE867A24EE400A25EEB7
:101E7800445A65EE845A80ED010AC0ED023A80EDBD
:101E8800043A80ED055A80ED067AC0ED077AC0ED78
:101E9800085A08BD38B5334CB4FBF2F4A142F0EE51
:101EA800404A1D46F7EE005A4FF0000453D207EEA1
:101EB800901A9FED2D7ADFED2D6AF8EE677A67EEBE
:101EC800877A07EE102AB8EE477A27EE267AC5EE0B
:101ED800876A87EEA63AB0EE430AFFF717FFF0EEDF
:101EE800402AB0EE430AFFF773FF74EEA44AF8EEF7
:101EF800006A82EEA47AF5B1012D25D077EE257A15
:101F080020EE260A85EE276A75EEC75A80ED006A2C
:101F180084EE276AC0EE276A80ED016A85EEA77A0B
:101F280083EEA76AC0ED036A80ED026A80ED047A49
:101F38008461446138BD35EEC04AB6EE005A24EEDD
:101F4800055AF0EE453AD9E720EE264AF0EE653A12
:101F5800B0EE655AD2E7C0ED005A44608460C460B0
:101F68000461E5E720A10700DB0FC940BD378635CE
:101F780000239FED010A8DE7F304353F30B507EEE6
:101F8800902A2DED028BB8EE670A07EE903AF8EE2C
:101F9800677A83B080EE270A0D46044601922CF03A
:101FA800A1FA30EE008AB0EE000AF0EE480A2CF0F2
:101FB80017FC2CF0A9FDF0EE480AF0EE408AB0EECE
:101FC800000A2CF00DFCF7EE007A30EE670A019952
:101FD80088EE800A01232A46204603B0BDEC028B16
:101FE800BDE8304056E7D0ED017AF5EE407AF1EEE3
:101FF80010FA09D1DFED0E7A60EEA70AB7EE007A83
:10200800C7EE207AC0ED017A90ED017AD0ED007A22
:1020180080ED021A31EE077A30EE670AC1EE076AE0
:10202800E6EE807AB0EE670AC0ED007A704700BF2E
:10203800DB0FC94090ED017AD0ED007AC0ED020ABD
:1020480030EE877A30EE670AC0EE876AE6EE807A6D
:10205800B0EE670AC0ED007A70474840082310F0D8
:10206800800F4FEA400018BF80F0D500013BC0B296
:10207800F5D1704710B50A440C46944200D110BD02
:1020880014F8011BFFF7E9FFF7E74A09012301F0FC
:102098001F0103FA01F150F822300B4340F82230B7
:1020A80070470EB4244B70B51B68002BA5B00646CC
:1020B80030DA224B224C19684FF47A7304A8B1FB2A
:1020C800F3F203FB12131F49FFF7FCFB04AB0344B5
:1020D8000393299A1C492AAB054603A80293FFF7E4
:1020E800EAFA039B591C03910A211970039B591C96
:1020F8000391002119700246206880B103681B6AA9
:1021080003B1984704A92068FEF7BAFB16B1206806
:1021180018F0ECFE25B0BDE8704003B070470B4BDB
:102128001B68002BF6D002212A4400910A44FD20A6
:1021380004A913F095FDEDE7E03F00205893002037
:10214800C4240020DD5503083D050008F0210020C7
:1021580038B5144B1C68033004EB9002B2F5807F4D
:1021680014D8114D1A6005EB8404104D55F8213030
:1021780020F003001844920045F82100C2F580625F
:102188000B490020FFF78DFF204638BD0949002084
:10219800FFF787FF084A136843F0007313600024B1
:1021A800F2E700BF48190020680B00204C190020F6
:1021B800E95503080C5603086C9400200E4B0F4A8F
:1021C8001B689BB223F0070303EBC00002443E29BF
:1021D8004FEA42020AD94B09C80604BF03F1FF338C
:1021E8009BB29B0243F40043136070474B08C90736
:1021F80048BF01339B02F7E7505C004006300020DF
:10220800054B1B689BB223F0070303EBC000034B8D
:1022180003445B0019607047505C004002300020A6
:1022280070B5002240F60F7648F2800502F180531F
:1022380003F5B8539B0042EA05041968013231409E
:102248002143042A1960F1D1024B40F08000186044
:1022580070BD00BF4C5C004008B50B4B002093F8E4
:102268002C10FFF7ABFF094B1B68187A082806D11A
:10227800074B4FF480521A80064B10221A80A0F1A7
:1022880009035842584108BDE8030020587100204E
:10229800C66E0020C86E00202DE9F0412E4D2C6836
:1022A800228ADAB9267A042E18D12C4C2C482378A5
:1022B800012B0FD12B4B19682B4B89B221F0070149
:1022C8000B445B001A603023038022702B681E7257
:1022D800BDE8F081102303800726F7E7B4F81480DF
:1022E800A36942458CBF02260426904528BF904624
:1022F8001FFA88F7384698471A4B1B689BB223F099
:10230800070303F1005303F540535B0008F1010292
:102318001B689BB203F1005303F5405352105B0056
:1023280000218A4211D139460020FFF769FF238A2C
:10233800DB1B2382638A1F44094B678230221A8081
:102348000A4B4FF440521A80C0E730F802EB23F8EA
:1023580021E00131E5E700BF58710020D46E00206C
:10236800C86E0020505C004002300020C66E00207D
:102378000F4BDA684378D243C2F30222C2F1040158
:102388008B400F2121FA02F281780A401343094950
:1023980002781B018818DBB280F80033500901234A
:1023A80002F01F0203FA02F241F82020704700BF32
:1023B80000ED00E000E100E0C27802B1D8E7037860
:1023C80001215A0903F01F0301FA03F320320249DD
:1023D80041F82230704700BF00E100E02DE9FF41DD
:1023E800154600284FD08488B4FA84F4C4F11F0439
:1023F800621C48D0254E006832194FF00F0C92F835
:102408009870234A42F82410E1B201F0030201F067
:10241800FC0101F1804101F580319200D1F808E01A
:102428000CFA02FC2EEA0C0EC1F808E0D1F808E01C
:10243800C0F38720904040EA0E00164A88604FF0AB
:10244800010808FA04F1116002A8029400248DF82A
:102458000D308DF80C408DF80E8027F0BDFA0E4B2C
:10246800DA5DAA420FDDDD55F319AA1193F8A830F9
:102478008DF8043001A88DF805208DF806408DF8F8
:102488000780FFF775FF04B0BDE8F0810C0703086B
:102498009421002014040140D4210020084BDA685C
:1024A800D10709D4DA68D20608D4DB6813F0040F20
:1024B80014BF032004207047012070470220704792
:1024C80000200240036823F001031B041B0C036077
:1024D8000023036043608360C360294B984204D1A2
:1024E800284A536843F00F0326E0274B984204D14B
:1024F800244A536843F0F0031EE0244B984204D169
:10250800204A536843F4706316E0214B984204D183
:102518001C4A536843F470430EE01E4B984204D1A2
:10252800184A536843F4702306E01B4B984205D1C0
:10253800144A536843F4700353607047174B98422A
:1025480004D1104A536843F07063F5E7144B98427E
:1025580001D1144AC5E7144B984201D1114AC8E782
:10256800124B984201D10F4ACBE7114B984201D147
:102578000C4ACEE70F4B9842DFD10A4AD1E700BF99
:1025880008000240000002401C00024030000240E7
:1025980044000240580002406C00024080000240A3
:1025A80008040240000402401C04024030040240B7
:1025B80044040240580402402DE9F04100230F680A
:1025C8001D464FF0010E03260EFA05FC3CEA0702F1
:1025D80032D10C79621E012A19D8826806FA03F8EA
:1025E80022EA080282604A79D0F808809A4042EAD2
:1025F80008028260828892B222EA0C0282808A797A
:10260800B0F804C0AA4042EA0C0292B28280D0F824
:1026180000C006FA03F2D24302EA0C0CC0F800C06C
:10262800D0F800C09C4044EA0C040460C46814401C
:10263800CA799A402243C2600135102D03F1020382
:10264800C2D1BDE8F081F7B50C4615460646A0B3E1
:10265800036803F138421A4B03EB92230F2793F8D0
:10266800AF0027F027FB3068B6880096B6FA86F3E5
:10267800C3F11F039BB203F00702DB0800EB8303DF
:102688009200196A974021EA07011962196A954070
:102698000D431D6204F003038DF80430C4F3810375
:1026A8008DF805306946C4F30013C4F341148DF85E
:1026B80006308DF80740FFF77FFF03B0F0BD00BF7D
:1026C8000C07030837B50C460546F8B1036803F153
:1026D80038420F4B03EB922393F8AF0027F0EAFA46
:1026E800AB88009304F003038DF80430C4F381032E
:1026F8008DF805306946C4F3001328688DF8063054
:10270800C4F341148DF80740FFF756FF03B030BDFE
:102718000C0703082DE9F74F344C99469DF83030E3
:10272800009394F8D834092B80468B46924608D9F2
:102738002F490020FFF7B5FC0025284603B0BDE867
:10274800F08F03F0F6FB064600284DD094F8D874B5
:1027580098F804007A1CD2B207EB470304F2DC4570
:1027680005EBC30584F8D8240192FEF7F1F8034677
:1027780028B104218171019A02720221C171009A63
:1027880042B398F8082002211846FFF75CFF182387
:1027980003FB07445A4651463046C4F8DC6424F02B
:1027A800DDFE4946D4F8DC0424F062FDD4F8DC04EC
:1027B80043681A68536C43F40043536413889BB20C
:1027C80043F00103138024F03DFD0023C4F8E8041E
:1027D8000360B2E7184611210093FFF773FF009BCF
:1027E8001846FEF7DBF8D2E70546A6E7900A002070
:1027F8002556030830B52DED028B1F4B83B01C689E
:10280800B4FBF1F303F57F43FF331B0C0092B4FBD9
:10281800F3F40023B4FBF1F52146AAB2F0EE408AA6
:10282800B0EE608AFFF776FF08B3B5EE408A07EE90
:10283800904AF1EE10FAF8EE677A08BF06EE905A61
:102848009FED0E7A0ABFF8EE666A27EE888A86EE52
:10285800876A4FF00103037218BF88EE076A27EEF4
:10286800467A80ED056AA7EEA87A80ED047A03B06F
:10287800BDEC028B30BD00BFB801002000007A44D7
:102888002DE9F04FB04CB14D002787B00646012125
:10289800602027606760A760FFF75AFCB846029778
:1028A800AB4FA060F37A7BB12B792A3B012B0BD875
:1028B800032201926378227800921FFA88F201219C
:1028C8001220FEF721F8A2E0F37B3BB1102027F09D
:1028D80021FA18B102682B689A42E9D0337C3BB1DF
:1028E800182027F017FA18B12A6803689A42DFD02F
:1028F800737C33B12B79327F9A42D9D0727F9A4256
:10290800D6D0F379002B40F08E8073791BB1EB6839
:10291800980700F18B80B379002B00F08A80EB6870
:1029280003F0010A3268EB6812B1032A40F0838091
:10293800B27C12B1190700F1598113F0040F40F06D
:10294800DF80BAF1000F62D01FFA88F3BAF1010FE5
:10295800039376D1284603F0ECFA8146002841D04B
:102968004FF0000BFF2387F8CCB5287987F804B01F
:10297800C7F808B0C7F80CB0C7F810B0C7F854B01B
:1029880087F8583087F8593087F85AB087F85BB01D
:1029980087F85CB0FDF7DCFF28B10323837180F86A
:1029A80007A080F808B02A7AE979FFF74CFE694A4F
:1029B8000021484603F00CFB6749684BC7F8DC3533
:1029C800674BC7F8D815C7F8E0350C31484603F00F
:1029D80085FA012148460A2224F028FD01214846AB
:1029E80024F01AFCA278A36803EBC20320225A70D1
:1029F8002379227800920133237100216378039AA6
:102A080001911320FDF780FFA3780133A37008F12B
:102A18000108B8F10C0F05F114057FF443AF4A48DB
:102A280007B0BDE8F08F4FF0000A7BE74FF0020ACD
:102A380078E79A4676E75A0600F1D88013F0200F17
:102A48007DE79DF80890444B4FF01C0B0BFB09FBEE
:102A58005B442846049303F06CFA824600283BD076
:102A680007EB0B03002283F8CE2583F8D625012235
:102A780083F8CD9583F8CC2528790592FDF768FF72
:102A880009F10103DBB220B10221059A8171C271FB
:102A980003722A7AE979FFF7D6FD2E4A00215046BB
:102AA80003F096FA1C2303FB0979049BC9F8D8356F
:102AB8002C492D4BC9F8DC352C4BC9F8E035594465
:102AC800504603F00BFA012150460A2224F0AEFCCE
:102AD8000121504624F0A0FBA278A36803EBC203AF
:102AE80040225A70E3780133E370029B01220133DC
:102AF80001922278029300926378039A002180E77A
:102B080094F801A0BAF10B0F1FFA88F906D902232D
:102B180001932378009353464A46D0E6337E718B5F
:102B28003279013B032B54D8DFE803F0070A2C0263
:102B3800DFED0F0AB0EE600A28E0DFED0E0AF9E7D4
:102B4800DFED0D0AF6E700BF7C25002034460308B8
:102B5800900A002040420F005C1000201502000877
:102B6800750300086810002005070008F301000835
:102B7800000000006F12033928293038ACC5A73788
:102B8800ACC5A7365FED030A1FED030A2846FFF719
:102B980031FE00285ED0354B4360354B43F82A00A0
:102BA800B37BCBB1A278A36803EBC20319225A7096
:102BB800A268A178637802F8313002EBC1000133D2
:102BC80002224560DBB201922278009263704A4685
:102BD80094E7DFED280AADE7337EA278042BA368DB
:102BE80003EBC2030CBF0D220922E0E794F8009022
:102BF800B9F1070F1FFA88FA06D903226378019200
:102C0800CDF8009052465AE6B28A1B4991FBF2F27F
:102C18003179009192B2F38A17492846FFF77AFD75
:102C28002278E8B107EB8909A168C9F89400A0786F
:102C380001EBC0034FF00A0E83F801E001F83020E1
:102C48000132D2B203215D60227000926378019153
:102C5800524653E7022201922278637800925BE79A
:102C68000321637801910092CCE700BF6107000857
:102C7800504700206F12833A40420F0008B5FDF715
:102C880067FE48B11D2282710E22C27100220272B3
:102C98002021BDE8084015E508BD10B503681A797C
:102CA800022A044602D1987AFFF7E8FF002323712D
:102CB800236010BD70B51E46244D254B9D4219D288
:102CC8006C798C423AD12C79844201D0002835D1D4
:102CD8002C7A944232D12C682C22002120462DF0E7
:102CE80090FC25602B792371EA88A260012B03D020
:102CF800022B0BD0002407E0E87AFDF729FE60617B
:102D08006B7A2373AB7A6373204670BDE87AFDF75C
:102D18001FFE60616B7A2373A87AFDF719FE0546DA
:102D2800206168B10E23C3710023867103720D21DF
:102D3800FFF7C8FC2069FDF736FEE5E70C35BDE76F
:102D48002046FFF7AAFF2C46DEE700BF9C85030854
:102D58002086030800232DE9F7431A462121012084
:102D6800FFF7A8FF234C0546C4F8B40000283FD05D
:102D78000526962003F0AFF90DF107020021284639
:102D8800FDF7EBFE074660B300221146D4F8B40005
:102D9800FDF740FF3C20FDF7A9FF012003F09BF958
:102DA80000265FFA86F84FEA8805D4F8B490EDB2A9
:102DB800A91D002201F0FE014846FDF72BFFE91D81
:102DC8000022C9B24846FDF725FF013640F2DC5122
:102DD8004046FDF751FF102EE3D1384603B0BDE859
:102DE800F083013EC5D1D4F8B400FFF756FFF4E7ED
:102DF8000746F2E7900A0020A64B5A6802F00C0238
:102E0800042A2DE9F04100F0B580082A00F0B680C8
:102E1800A1490160002A40F0AF8059689F4FC1F373
:102E280003117E5C0168F6B221FA06F444605D681D
:102E3800C5F3022517F805E024FA0EFEC0F808E0ED
:102E48005D68C5F3C2257D5DEDB2EC40C460D3F882
:102E58002C804FEA181808F00F0C07EB4C0C18F0F0
:102E6800100FBCF810C01FFA8CFC00F09C80BCF15D
:102E7800000F00F09880B2FBFCFCC0F810C0D3F83B
:102E88002CC04FEA5C2C0CF00F0807EB48071CF02D
:102E9800100F3F8ABFB200F08880002F00F08580B5
:102EA800B2FBF7F747611F6BFF065ABF7A4F87617E
:102EB80081611F6BBF065ABF774FC761C1611F6B26
:102EC8007F065ABF744F076201621F6BFF056ED5FC
:102ED8008A426CD1AE426AD1570047621F6BFF0429
:102EE80067D58A4265D1AE4263D1570087621F6BAE
:102EF800BF0560D58A425ED1AE425CD15700C76239
:102F08001F6B7F0559D58A4257D1AE4255D157001C
:102F180047641F6B3F0552D58A4250D1AE424ED10D
:102F2800570087641F6BBF044BD58A4249D1AE4214
:102F380047D14A00C2641A6B920744D104631A6BE2
:102F480012F4403F56D1C0F834E01A6B12F4402F07
:102F58006AD1C0F838E01A6B12F4401F7FD1C0F86C
:102F68003CE01A6B12F4400F40F09C80C0F840E03F
:102F7800BDE8F081484A026000224EE75A68596865
:102F8800C90349BFD96A4649434C01F00F01C2F34E
:102F9800834248BF013102F1020248BFB4FBF1F19C
:102FA8004A43026039E7016169E741617BE74462AE
:102FB80094E784629BE7C462A2E74464A9E7846457
:102FC800B0E78464B7E71A6B02F00302012A01D163
:102FD8000163B4E71A6B02F00302022A03D14FF42B
:102FE80000420263ABE71A6B02F00302032AA6D180
:102FF800294AF6E71A6B02F44032B2F5803F01D154
:103008004163A2E71A6B02F44032B2F5003F03D1E4
:103018004FF40042426398E71A6B02F44032B2F56B
:10302800403F92D11C4AF5E71A6B02F44022B2F5F0
:10303800802F01D181638EE71A6B02F44022B2F52A
:10304800002F03D14FF40042826384E71A6B02F425
:103058004022B2F5402F7FF47EAF0F4AF4E71A6B97
:1030680002F44012B2F5801F01D1C16379E71A6BEF
:1030780002F44012B2F5001F03D14FF40042C263BC
:103088006FE71A6B02F44012B2F5401F7FF469AF84
:10309800014AF4E70010024000127A000000002004
:1030A80000093D001A6B02F44002B2F5800F02D10C
:1030B8000164BDE8F0811A6B02F44002B2F5000F1A
:1030C80004D14FF400430364BDE8F0811B6B03F4A3
:1030D8004003B3F5400FF7D1004BF4E700127A0034
:1030E800F0B5446B8668236823F001032360837975
:1030F80013F004010CBF4FF0000E4FF4805E05463C
:1031080013F0020F4379206820F001002060606806
:1031180014BF4FF40052002220F44050002942EA24
:103128000002626014BF4FF48067002713F0010F9C
:1031380014BF042100219B07236823F4B05323F014
:103148000C0343EA0E0348BF41F008013B430B431D
:103158002360A36895B023F44073A3606846FFF723
:103168004BFE284B9C4239D10C9A23681F0448BF58
:103178005200B2FBF6F306FB1322B2EB560F22689D
:1031880028BF0133160406D5C3F3420223F00F0308
:103198001B041B0C13439BB2A3816B79A87913F012
:1031A800020F0CBF00224FF4003200F00101DC07CF
:1031B80048BF42F480326B6B01B359680A435A60C6
:1031C8009A6801074CBF42F0080222F008029A6090
:1031D8001A6842F001021A6015B0F0BD0A4B9C4211
:1031E80001D10D9AC1E7094B9C4201D10E9ABCE767
:1031F800074B9C420CBF0F9A109AB6E7596821EA10
:103208000202DCE70038014000440040004800406A
:10321800004C0040417163E7816061E72DE9F04FA0
:103228001F465B4B85B09842894690469DF83850BA
:103238009DF83C6055D1574C574B2360574B636101
:1032480003F58073A36160634FF480734E20E360DD
:103258002361A76026F02EFD1920FDF779FB834630
:103268001A20FDF775FB4FF0010A33460146CDF8E9
:1032780000A02A46584626F061FD25238DF80C301B
:1032880000238DF80DA08DF80E308DF80FA003A83F
:10329800FFF76EF800232362E361A3626362C4F858
:1032A8002C90C4F830806571A760A6712046FFF79E
:1032B80017FF15F0010F636B05D020221A621A68F8
:1032C80042F020021A60AA0742BF1A6842F0800240
:1032D8001A601A6842F001021A60204605B0BDE87B
:1032E800F08F2F4B98422BD12E4C2B4B23604FF451
:1032F8008073E36023612C4B6361606303F5807323
:103308007120A361A76026F0D5FC1E20FDF720FBE5
:1033180082461F20FDF71CFB02230093014633461B
:103328002A46504626F00AFD26238DF80C30002246
:1033380001238DF80D308DF80E208DF80F30A6E79B
:103348001A4B984221D11A4C134B23604FF48073C7
:10335800E3602361174B6361606303F58073722038
:10336800A361A76026F0A6FC2A20FDF7F1FA8246A1
:103378002B20FDF7EDFA03230093014633462A4636
:10338800504626F0DBFC2723CFE70020A6E700BF46
:1033980000380140D0700020C40703083C11002009
:1033A80000440040987000203C1300200048004072
:1033B800607000203C15002020B10078B0FA80F041
:1033C800400970470120704708B520212DF030F9D9
:1033D8000346184623B10278202A03F10103F8D0E6
:1033E80008BD2DE9F8430D4616468146002440F6EF
:1033F80034074FF019084846FFF7E6FF814690B1B9
:10340800FDF792FEB842A8BF3846B0F5617FB8BF55
:103418004FF46170A0F5617090FBF8F04CB928701A
:103428003378013333700134022CE4D14846BDE8C7
:10343800F8836870F4E770B5054608460E4629F02B
:10344800B5FA3146044602462846FDF753FE60B9F0
:103458002B5DA3F13002092A08D923F02003413B50
:10346800192B03D9601C284470BD002070BD08B515
:10347800184B194C1D68A06817F038FD284617F03E
:1034880035FDA06841798B0703D441F00201FDF7AF
:10349800BFF9002026F0A6FCA068FDF7C8F960B1C6
:1034A800012026F09FFCA068FDF7BBF901462846DD
:1034B800FDF7C0F9002026F095FC2846FDF7B7F97E
:1034C8000028E9D02846FDF7ACF90146A068FDF7C9
:1034D800B1F9E1E7146800200C6C002010B4447ABC
:1034E800631C0444DBB24372A172027A9A4203D885
:1034F8005DF8044BFDF78ABC5DF8044B70470FB4C8
:1035080013B5084C0849206804AB53F8042B019301
:10351800FEF7D1F82068FDF779FC02B0BDE810404D
:1035280004B0704710680020E534000838B5154C21
:10353800154DAC4212D30020FDF7C8FC134811F01A
:1035480071FE4FF48000FDF721FD00BF104B187885
:1035580003F0F4FABDE8384020F06CBFB4F902304B
:10356800002B4FF00001204603DBFDF7E9FC143483
:10357800DFE7FDF7E5FC01212046FDF7E1FC02212C
:103588002046F2E7987F03081C8303086056030867
:10359800D42C0020074B1B68597A4A1C1944D2B214
:1035A8005A728872197A914202D81846FDF72EBCD1
:1035B800704700BF1068002038B5094D441E14F844
:1035C800011F01B938BD2868427A531C0244DBB296
:1035D80043729172027A9A42F1D8FDF717FCEEE72E
:1035E8001068002008B504460648FFF7E5FF064BBB
:1035F8001868FDF70BFC054B186817F077FC204698
:103608001BF0CCFE695603081068002014680020DF
:1036180010B504460748FFF7CFFFFFF787FF03F011
:10362800ABFA05492046FFF706FF08B9FFF7DAFFAE
:1036380010BD00BF75560308C2590308044808B5F1
:10364800FFF7BAFF03F098FA0020FFF7CBFF00BF9F
:103658008B56030808B5084B1868FDF7D7FB074BCE
:1036680000241C70064B1C60064B1C7018F02AF9CD
:103678002046FFF7B7FF00BF106800201C68002035
:10368800186800205990002008B50120FFF7AAFF0C
:1036980008B50448FFF790FF034B1868BDE80840D9
:1036A800FDF7B4BB9256030810680020004883E772
:1036B800CB5E030838B5064D002455F834000134B4
:1036C800FFF77AFFFFF7F2FF222CF6D138BD00BFD3
:1036D800EC22030810B5064C0B4602460549206843
:1036E800FDF7E9FF2068FDF791FBBDE81040DDE735
:1036F80010680020E53400080FB407B504A951F894
:10370800040B0191FFF7E6FF03B05DF804EB04B08A
:1037180070472DE9F0411048104E114FDFF84880EE
:10372800FFF7EAFF0125002474B90E4B1A689200CE
:10373800D2F5806205D056F824103846FFF7DCFF32
:1037480006E001340135EFE758F82420002AF2D1C9
:10375800232DF6D1BDE8F08197560308F00703083A
:10376800AD560308481900204C1900201FB5094B15
:103778000293094B0193094B0093094A094B0A49E3
:103788000A48FFF7B9FF0A490A4805B05DF804EB93
:10379800B2E700BFED560308F5560308FE560308C6
:1037A800C1560308BB560308D0560308D55603086C
:1037B8000A5703084B5703082DE9F04F5448554D55
:1037C8008DB0FFF799FF0026B046B146524B1A68F4
:1037D8000023934223DB0136122E05F14805F5D16B
:1037E8004E498868CA680C680969400940EAC2629B
:1037F8004FF47A734A48B4FBF3F3FFF77DFF0A22CC
:1038080098FBF2F302FB138099FBF2F1009002FBA4
:1038180011924448FFF770FF0DB0BDE8F08F4249A0
:1038280051F823108D4201D00133D2E7AC6A5CB164
:1038380007EE904ADFED3D6AF8EEE77A86EEA77A62
:10384800FDEEC77A17EE904A2F6B6A6BEB6BD5F8D3
:1038580038A07F0947EAC26752090B922146E2174E
:10386800CDE90812099A63430AFB0233A4FB0A0153
:1038780041F2883B1BEB000B19444FF0000C4CEB5A
:10388800010C4FF47A7200235846614629F0B6FEBF
:103898000B9B099A0A90634307FB0233A4FB0701B9
:1038A80041F2883B1BEB000B19444FF0000C4CEB2A
:1038B800010C00234FF47A725846614629F09EFEA7
:1038C800032E18BF0A9B0A99019718BF99444FF411
:1038D8007A722B6CB3FBF2F306934FF00A0318BF0E
:1038E800804490FBF3F203FB120004920A9A92FBC5
:1038F800F3F203FB1213059003930292CDF800A094
:1039080023462A680A483146FFF7F6FE63E700BFF8
:103918005457030818050020EC020010000000109E
:10392800D0570308F2570308F00200100024744926
:103938009B57030810B50C4C03461846FFF73CFD8F
:1039480030B10A4B0A485978BDE810400131D3E636
:103958001846FDF7E9FB0138022804D8C0B203F085
:1039680059FA2346E9E710BD876D0308D42C0020D7
:103978002058030810B50C4C03461846FFF71CFDE9
:1039880030B10A4B0A481978BDE810400131B3E656
:103998001846FDF7C9FB0138022804D8C0B203F065
:1039A80048FA2346E9E710BD876D0308D42C0020A8
:1039B80028580308F8B5437913F0C002044602D02A
:1039C800402A17D0F8BD03F00F03062B06D127F0C5
:1039D800BFFCBDE8F840014616488DE627F0D0FC4C
:1039E8000546204627F0B4FC29460246BDE8F840C3
:1039F800114881E683791148114E124F202B96BF4A
:103A0800114D002505EBC305FFF7D6FD00242B79E2
:103A18009C4202D3BDE8F84048E614B13046FFF7AF
:103A2800CBFD2B68384653F82410FFF768FD0134A6
:103A3800EDE700BF33580308435803085A580308F2
:103A48006A580308C05A0308A047030870B54379A9
:103A5800164603F00F028AB00546062A4CD8DFE85E
:103A680002F0041316181B1D49000C7813F0C0034C
:103A780044D0402B3CD12146284627F051FC002851
:103A880056D0FFF73CFD33E091F90040EEE70C8893
:103A9800ECE7B1F90040E9E70C68E7E791ED000AC7
:103AA8006846FDF7E5FB01462648FFF728FDFEB10D
:103AB8006B7913F0C00F1BD1284627F061FC07EE85
:103AC800900A6846B8EEE70AFDF7D2FB01461E48A1
:103AD800FFF715FD284627F03BFC07EE900A6846DD
:103AE800B8EE670AFDF7C4FB01461748FFF707FD64
:103AF8000AB070BD1348F9E70024B7E7042A0CBFE1
:103B0800124813482146FFF7FAFC002EF0D06B79D3
:103B180013F0C00FECD1284627F032FC04462846A3
:103B280027F016FC214602460A48FFF7E8FCDFE7C3
:103B38006946284627F0BDFC6A4621460648FFF735
:103B4800DBFDD5E7C15A0308C05A030857580308D4
:103B58004A5E03086C5803087358030838B50D46C5
:103B6800044627F06BFC2A4601462046BDE838404B
:103B78006CE72DE9F04F81468DB088460026474B0B
:103B8800F418474B1868FDF741F994F805B00BF0A5
:103B980030034B4549D1204627F02EFCFDF7DCF9D0
:103BA8000546204627F0FEFBAA68019217188246B0
:103BB800204627F043FC0BF00F010546019A062921
:103BC80068D8DFE801F0043A3F43484C5A0012F83D
:103BD8000A200378D31AD3F1000A4AEB030A18F033
:103BE800200F02D0BAF1000F1FD102A9204627F0FA
:103BF80060FC18F0400F0DD0BAF1000F0AD102A9ED
:103C08002848FFF77CFC524629462046FFF71EFF4E
:103C1800FFF74CFD02A92448FFF771FC0022394642
:103C28002046FFF713FFFFF741FD093640F6EB3357
:103C38009E42A4D10DB0BDE8F08F12F90A2090F988
:103C48000030C7E732F80A200388C3E732F90A20B0
:103C5800B0F90030BEE752F80A200368BAE797EDDA
:103C6800007AD0ED007AB4EE677AF1EE10FA0CBF64
:103C78004FF0010A4FF0000AB1E7204627F068FB31
:103C88002946421C38462CF0E9FCB0FA80FA4FEA83
:103C98005A1AA4E74FF0000AA1E700BF2426030838
:103CA800106800209058030891580308022810B59E
:103CB8000C460CD802F02AFF054B0648597801310A
:103CC800FFF71AFD21463020BDE8104051E710BD2E
:103CD800D42C00209B580308022810B50C4610D895
:103CE80002F02CFF074B084819780131FFF704FD53
:103CF80021461020FFF73DFF21462020BDE8104057
:103D080037E710BDD42C0020A35803080CB407B51E
:103D180010F0400009D069B92320FFF73BFC05A942
:103D280004980191FFF7D6FC012003B05DF804EB7D
:103D380002B070470020F8E70CB4830607B500D539
:103D480051B905A904980191FFF7C4FC012003B0FB
:103D58005DF804EB02B070470020F8E72DE9F04F5A
:103D6800824687B091460E4615460027337896F965
:103D7800028004937378059396F803B0B8F1000FA6
:103D880034D0B9F1000F36D02B78049C6A7895F9B5
:103D98000210E8789C422CD1059C944229D1884590
:103DA80027D1ABEB000EDEF1000444EB0E040390C8
:103DB800029101920093114A3B4621465046FFF773
:103DC800A5FF059B0193049B0093CDF80CB03B46DF
:103DD800CDF80880094A214650460137FFF7ACFF65
:103DE800102F06F1040605F10405BFD107B0BDE8A0
:103DF800F08F0024DBE74C46E3E700BFB058030828
:103E08002DE9FF47DFF89CA0814690460D461646EF
:103E18000027B8F1000F42D0B5F90020B6F90030FC
:103E28009A4296F9062038D1B5F90200B6F902107F
:103E3800884232D1B5F90400B6F9041088422CD171
:103E480095F90610881A414241410392B6F90420B7
:103E58000292B6F902200192009352463B46484628
:103E68000C46FFF753FF95F906300393B5F9043074
:103E78000293B5F90230019335F9083B0093524695
:103E88003B46214648460137FFF756FF082F06F103
:103E98000806BED104B0BDE8F0870021D5E7444646
:103EA800E1E700BFC45803082DE9F04FDFF8B0A0E0
:103EB80085B080460F4614460026062373430393B5
:103EC8000025039B2B44FA1892F8C0B0002C42D06E
:103ED8002344524693F8C0300193ABEB0301D1F170
:103EE800000949EB01090095334649464046FFF76A
:103EF8000DFF8DE8200833465246494640460135B5
:103F0800FFF71AFF062DDCD10136062ED5D107F1B1
:103F1800E40A134F00251AF8019BF4B163194046CF
:103F280093F8E4300193A9EB0302564256410095F9
:103F380006233A463146FFF7E9FE8DE820020623BC
:103F48003A46314640460135FFF7F6FE0B2DE2D1E1
:103F580005B0BDE8F08FA146CBE72646EDE700BFE8
:103F6800D95803082DE9FF47DFF86CA08146904631
:103F78000E4615460027B8F1000F2AD02B88328844
:103F88009A4224D174886A88A21A54425441EA7821
:103F98000292AA780192009352463B46214648462F
:103FA800FFF7B4FEF3780293B378019336F8043B35
:103FB800009352463B46214648460137FFF7BCFE70
:103FC800102F05F10405D6D104B0BDE8F087002410
:103FD800DDE74446E6E700BFED5803082DE9F04F5A
:103FE800DFF868808FB007468A46164600240DF130
:103FF80024095AF824300293494602A825F0E6FF1E
:1040080016B356F82430029D0393EB1A5D420DF166
:10401800100B5D41594603A825F0D8FFCDF800B034
:104028002346424629463846FFF770FE2346CDF818
:1040380000904246294638460134FFF77DFE202C81
:10404800D7D10FB0BDE8F08F3546EFE7FF5803082A
:104058002DE9F347DFF868A081460F46904602260F
:104068000024B8F1000F28D037F8242038F824307D
:104078009A4238F806201ED1BD5BA91A4D424D411F
:10408800019200935246234629464846FFF73EFED2
:10409800BB5B019337F824300093524623462946E8
:1040A80048460134FFF748FE042C06F10406D8D12F
:1040B80002B0BDE8F0870025E2E74546E8E700BF23
:1040C800095903082DE9F04F2DED088BDFF80C9105
:1040D80097B0804692460D461446002695ED008A14
:1040E800B5EE408AF1EE10FA71D0D5ED019A95ED52
:1040F800029AD5ED038ABAF1000F3FD094ED000A79
:1041080094ED01BAD4ED02AA94ED03AAB4EE408A64
:10411800F1EE10FA60D1F4EE4B9AF1EE10FA5BD1A1
:10412800B4EE6A9AF1EE10FA56D1F4EE4A8AF1EE3C
:1041380010FA0CBF0127002712A8FDF799F8B0EE76
:104148004B0A83460EA8FDF793F8B0EE6A0A05906D
:104158000AA8FDF78DF8B0EE4A0A049006A8FDF704
:1041680087F8049A059B039002920193CDF800B05A
:1041780033464A4639464046FFF7C8FDB0EE480A7E
:1041880012A8FDF775F8B0EE690A07460EA8FDF704
:104198006FF8B0EE490A83460AA8FDF769F8B0EE51
:1041A800680A049006A8FDF763F8049B039002933D
:1041B8008DE8800833464A46002140460136FFF71D
:1041C800BBFD0C2E05F1100504F1100486D117B0C3
:1041D800BDEC088BBDE8F08F0027ADE71A5903083E
:1041E8002DE9F04F834687B092460C4616460027C5
:1041F8004FF019094FF46178BAF1000F4DD0A37848
:10420800B17832798B42337845D12078984242D1BF
:104218006578707885423ED1E578F07885423AD164
:104228002079904237D165797079281A45424541FD
:104238000592F27804927278019119FB028219FBB7
:1042480003830392029373790093154A3B462946E8
:104258005846FFF75BFD23790593E3780493637869
:104268000F4A19FB03830393237819FB03830293F3
:10427800A37801936379009329463B465846013752
:10428800FFF75AFD0C2F04F1060406F10606B3D118
:1042980007B0BDE8F08F0025CAE75546DBE700BF49
:1042A8002E5903082DE9F04F354FDFF8DCA087B011
:1042B800814690460C46164602F13C0B94F90420C0
:1042C800002330495956914254D00C333C2BF8D135
:1042D8000C365E4504F10C04F0D107B0BDE8F08F50
:1042E80096F90430F1799A42326841D120689042B7
:1042F8003ED16579707985423AD1A579B079854200
:1043080036D1257A307A854232D1E579681A454224
:10431800454157F821100491317A57F8211003913B
:10432800B17957F8211002917179009257F821104C
:104338000191524629464846FFF7E8FCE27994F98C
:10434800043057F822200492227A57F82220039248
:10435800A27957F822200292627957F82220019216
:1043680022680092294652464846FFF7E5FCAFE727
:104378000025CEE7B8F1000FB2D14546DEE700BF11
:104388001C530308908500204C5903082DE9F04F71
:10439800834685B092460D46164600274FF0190908
:1043A8004FF46178BAF1000F3DD02B783278934200
:1043B800F37836D168787178884232D1A878B178A4
:1043C80088422ED1EC78E11A4C424C4119FB038308
:1043D8000393B37819FB03830293737821468DE81E
:1043E8000C0058463B46114AFFF790FCEB780F4A01
:1043F80019FB03830393AB7819FB038302936B7850
:10440800019315F8043B009321463B465846013773
:10441800FFF792FC142F06F10406C3D105B0BDE8DE
:10442800F08F0024D2E75446E0E700BF695903083B
:104438002DE9F04F0E468DB073490446FEF7FBFF99
:104448000546002840F0AA8070492046FEF7F3FF91
:104458000546002840F0A4806D492046FEF7EBFF92
:104468000546002840F09E8020466A49FEF7E3FF93
:104478000028054612BF1024254601240EB144F039
:104488002004654B654E93F8009093F80180644FC3
:104498000193BE42C0F08880FFF748F8484602F012
:1044A8004DFB404602F032FB5E492846FEF7C3FF4B
:1044B80008B144F0400414F0110F00F09781002077
:1044C800FFF754F904F03003302B02D15648FFF7B8
:1044D80013F9564D564AD5ED007ADFF878A1DFF882
:1044E80078B1F5EE407AF1EE10FA0CBF0121002107
:1044F8002046FFF721FC2A464E4D4F492046FFF73C
:10450800E1FD95F902104D4AB1FA81F149092046B9
:10451800FFF712FC2A464A492046FFF71FFC494A82
:1045280049492046FFF76CFC484B1E68484B1F68FA
:104538004FF000085AF82850002D43D1DFF81CA18D
:10454800A84667EA060B434B53F82850002D00F0A5
:1045580087802B78FBB14FF0010909FA08F917EAAF
:10456800090F0BD066EA070313EA090F52462B46D8
:1045780014BF012100212046FFF7C8FB16EA090FE6
:1045880009D01BEA090F2B46524614BF012100210E
:104598002046FFF7D1FB08F10108D4E701246DE7B5
:1045A80002246BE7042469E77288B068716812F422
:1045B800004FC2F30B0218BF02EB420229F0A2FD22
:1045C800143666E72B78DBB14FF0010909FA08F9D0
:1045D80067EA060313EA090F14BF012100212B46DD
:1045E8005A462046FFF792FB66EA070313EA090FCB
:1045F8005A462B4614BF012100212046FFF79CFB99
:1046080008F1010896E700BF91590308A05903086B
:1046180098590308A8590308D42C0020987F030848
:104628001C830308AC590308B9590308D82500208E
:10463800CB5903088D460020BC260020DA59030810
:1046480060480020CE46002020480020A42E0020EC
:104658001C2D00207C080308E7590308F3590308B8
:10466800794BDFF840821E68784BDFF83C921B6874
:104678007340DB4303934FF0010B039A0BFA05F3E6
:104688001A4218BF5F46724A08BF00273340029398
:104698004FF00C0303FB05233946D3F808A014BFD9
:1046A80042464A4653462046FFF730FB029A534695
:1046B800002A14BF4A464246394620465D44FFF761
:1046C8003BFB162DD7D100236248634E634F8DF80C
:1046D80020308DF810308DF821308DF811308DF89C
:1046E80022308DF812308DF823308DF813305D4666
:1046F8000BEB06021BF8003012F8011C0CAA1A4436
:104708000DF1300E02F8201C1BF8072096440EF815
:10471800101C2DB1A3EB020EDEF1000545EB0E05D2
:104728000BF1010BBBF1050FE2D1002608AB4C4A97
:104738008DF8146029462046FFF7E8FA04AB484A8A
:1047480029462046FFF7F8FA464A47492046FFF728
:10475800A9FD464A46492046FFF740FC454A4649D6
:104768002046FFF7FFFB414A41492046FFF79CFBE3
:10477800424A43492046FFF709FE424A4249204639
:10478800FFF72EFD414A42492046FFF761FC2146CA
:104798003046FFF7EEF9E1063DD5019B214630464C
:1047A8001F785D78FFF798FA21460120FFF794FA01
:1047B80021460220FFF790FA21463046FFF776FAA5
:1047C80021460120FFF772FA21460220FFF76EFA10
:1047D800384602F0B3F9284602F098F9791C2D48BA
:1047E800FEF78AFF691C2C48FEF786FFA20704D54E
:1047F800019B21461878FFF76FFA630704D5019BE0
:1048080021465878FFF752FA244C254B9C420DD389
:104818000DB0BDE8F08F019B21461878FFF75CFAD0
:10482800019B21465878FFF741FADFE76288606804
:10483800A16812F4004FC2F30B0218BF02EB420248
:1048480029F060FC1434E0E7A04800202C46002042
:10485800081C0308AC330020CB180308843300205D
:10486800FE59030850850020F0930020846A002038
:10487800846D0020046B0020046E00204C3800205A
:104888004A3900208E2500207C2700203A39002054
:104898002A3900202858030820580308987F03085D
:1048A8001C8303087C590308865903080121BFE5C6
:1048B8000021BDE5F7B50746FEF77EFD044630B199
:1048C800002222490120FFF761FD03B0F0BD384600
:1048D800FCF72AFC1328054630DC8600781C8DF886
:1048E8000740FEF771FD194C074640B1FCF71CFC68
:1048F80028289EBF012304F825008DF80730384684
:10490800FEF762FD074650B1FCF70EFC0D2806D8ED
:10491800A31958709DF8073001338DF80730B11C82
:104928000DF1070221443846FEF75BFD9DF807307C
:10493800042BCAD0002344F82530C6E713232246A7
:1049480003490448FEF7D8FEBFE700BF4C380020F3
:10495800055A03080B5A030808B5FEF72DFEBDE8F3
:104968000840FEF7A3BE2DE9F0430024DFF85C8081
:10497800DFF85C908BB00746254604EB08066946CD
:10498800304626F096FD394668462BF0A0FE78B1F1
:1049980069464846FEF7B3FD00213046FFF7DEF8CA
:1049A800FEF784FE3046FFF705F8FEF77FFE013577
:1049B800093440F6EB339C42DFD115B90248FFF7C2
:1049C800CBFF0BB0BDE8F083285A03082426030860
:1049D800955803082DE9F0472DED028B8AB08046E3
:1049E80027F0E4FF054628B1012824D198F80030C3
:1049F8002A2B20D18A48DFF848828A4FFFF7ACFF7C
:104A0800002404EB08066946304626F052FD694644
:104A18003846FEF774FD29463046FFF79FF80934FB
:104A2800FEF744FE40F6EB339C42EAD10AB0BDECF7
:104A3800028BBDE8F0873D2140462BF0F9FD0028A8
:104A480000F0DF80034613F8012C202A03F1FF3120
:104A580030D0A3EB0803441C2278202A04F101017A
:104A68002AD0DFF8DCA10027DEB207EBC7055544E2
:104A78006946284626F01DFD684627F097FF6946D7
:104A8800814602464046FCF735FB002840F0BD80D1
:104A9800B14540F0BA806B7903F00F08B8F1060F02
:104AA8000CD1204627F082FF21460246284626F0F0
:104AB800D2FCBBE70B46C6E70C46CDE713F0C003B4
:104AC8000AD0402B5ED05848FEF776FD2846FEF700
:104AD80071FFFEF7EBFDA9E72378002BF3D05349CC
:104AE80020462BF0E2FD0646204627F05FFF86426F
:104AF800E9D12046FCF735FB2846B0EE408A26F07F
:104B08003FFC07EE900AF8EEE77AB4EEE78AF1EE9A
:104B180010FAD8DB284626F01BFC07EE900AF8EEC0
:104B2800677AB4EEE78AF1EE10FACCD8B8F1050F3F
:104B380017D0B8F1040F1FD1214614F8013B202BE0
:104B4800FAD0092BF8D0013900230A2011F8012FD7
:104B5800303AD2B2092A02D800FB0323F6E708EE5E
:104B6800103A284626F06AFCB8F1050F36D8DFE877
:104B780008F032323E3E42452046FCF7D5FA08EEB0
:104B8800100AEEE7AB799FED2A8A202B96BF294EB3
:104B9800064606EBC306002796F804A03B46B9462E
:104BA800574503D3B9F1000FDBD18CE7002BF9D1BE
:104BB80033686FF0004253F827002146FCF79AFA51
:104BC800002808BF08EE107A0ABF012300234FF01F
:104BD80001090137E4E718EE103A037069461648F0
:104BE800FEF78DFC00212846FEF7B8FF1EE718EEF9
:104BF800103A0380F2E780ED008AEFE780ED008A43
:104C0800ECE74046FFF7AFFE10E7013740F25313D9
:104C18009F427FF42AAF0948FFF79EFE06E700BFD0
:104C2800355A030895580308605A0308475A030879
:104C380000000000A0470308555A0308285A030833
:104C48002426030870B50346FEF7B6FB30B3254BA0
:104C58001C680134172C05D823490C2202FB0412C6
:104C680095686DBB204A25460C210135172D0EDDB0
:104C7800002501FB0520866856B11D6016F02EFB45
:104C8800324629461948FEF737FD2C4621E0F0D96F
:104C9800A542EAD11648BDE870405DE61846FCF723
:104CA80043FA1728044605D80F4A0C2303FB0023B0
:104CB8009D682DB921460F48BDE87040FEF71CBD20
:104CC800084B1C6016F00AFB2A4621460748FEF7E7
:104CD80013FD0C235C43044B185DBDE8704016F0CF
:104CE80015BB00BF34000020081C0308995A0308AC
:104CF8006F5A0308835A03082DE9F74F804627F0B7
:104D080055FE474DDFF844912F680446F0B94548F1
:104D1800454EFEF7F4FB012519F80430013B05FA6E
:104D280003F33B4209EB040203D091683046FEF7D7
:104D3800E6FB0C34B4F5847FEED117B93B48FEF797
:104D48003BFC03B0BDE8F04FFEF7B0BC0246384963
:104D58004046FCF7CFF9064670B93648324DFEF7A3
:104D68002BFC09EB0603284699680C36FEF7C7FBAF
:104D7800B6F5907FF5D1E4E798F800302D2B03BF06
:104D880008F1010804F1FF344FF0010A4FF0000A5E
:104D980000260C2303FB069B0193DBF808300093E5
:104DA800194622464046FCF7A5F9019B00282FD159
:104DB800BAF1000F19D0162E0BD11F4B2B601F48CC
:104DC800FEF7FAFB00991E4803B0BDE8F04FFEF766
:104DD80093BC172E01D16B68F0E79BF800305A1E80
:104DE800012393401F432F60E9E7162E03D1C5F82E
:104DF80000A01448E4E7172E17BF9BF800306F6037
:104E080003F1FF3201231EBF93409F432F60F0E759
:104E18000136182EBED10C4803B0BDE8F04F9BE513
:104E28002C460020AE5A0308BF5A0308B85A030894
:104E3800C45A0308C95A0308FFFF3F00D45A03089D
:104E4800C05A0308DD5A0308285A0308081C030837
:104E58002DE9F843054627F0A9FD0446D0B9304BA3
:104E680030481D68304EDFF8D080FEF7A5FB0127DB
:104E780056F8241051B10B7833B107FA04F32B42DA
:104E880002D04046FEF73BFB0134F1E7BDE8F843AA
:104E9800FEF70CBC024625492846FCF72BF978B9E1
:104EA8002348244C244DFEF787FB54F8041F00299F
:104EB800ECD00B78002BF8D02846FEF720FBF4E75F
:104EC8002B78DFF864902D2B03BF013504F1FF34F4
:104ED8004FF001084FF00008002659F826701FB956
:104EE8001648BDE8F84337E5224639462846FCF718
:104EF80001F998B90120B040B8F1000F0AD0FCF7C9
:104F08003DF80F48FEF758FB39460E48BDE8F84310
:104F1800FEF7F2BBFCF73AF80B48F3E70136DCE79B
:104F28001C2D0020E55A03087C080308C45A03080E
:104F3800F35A030878080308EF5A0308285A0308A5
:104F4800D45A0308C05A0308DD5A030830B5274865
:104F580085B0FEF731FB18F04DF820B9244805B0AC
:104F6800BDE83040F8E418F03DF808B92148F6E704
:104F780018F02FF80268037D81790446407C02907E
:104F8800207C0190608A009052081B48FEF7B7FA0F
:104F980004F10C05073414F8010BFEF7FBFAA542DF
:104FA800F9D1164C1648FEF707FB6278032A13D886
:104FB800DFE802F0080806021248FEF7FDFA0BE0E7
:104FC8001148FAE71148FEF7F7FA41F2B413E35C27
:104FD800022B06D0032B06D005B0BDE83040FEF703
:104FE80065BB0B48E9E70B48E7E700BFFF5A030832
:104FF800095B0308175B0308265B03085C71002044
:10500800545B0308645B03086A5B0308775B030867
:105018007D5B0308965B03082DE9F043974B98489E
:105028001968984CDFF80C83A9B04FF47A73B1FB78
:10503800F3F1FEF761FB07A8FCF766FA924B07A9A4
:10504800B3F900200AA824F04CFF0AA98F48FEF7FC
:1050580053FB13F0DBF86422B0FBF2F102FB110200
:105068008B488C4B00781B7804EB800092B2D0F808
:105078001001009089B28848FEF73EFB874B8848AC
:105088001968884BB1FBF3F1FEF739FA864B1E68B5
:10509800002504F5907704F59E790123AB4033424F
:1050A8000BD057F8253043B118F8052059F82510CA
:1050B80053F822207D48FEF722FA0135072DECD15E
:1050C800FEF7F4FA7A48774DFFF746FC14A8FDF787
:1050D80093FE14997748B1FBF5F1FEF70DFB15998E
:1050E8007548B1FBF5F1FEF707FB16997348B1FB5C
:1050F800F5F1FEF701FB17997148B1FBF5F1FEF7E1
:10510800FBFA12F00FFE04EB8000D0F8645112F0A5
:105118002DFE04EB8000D0F8646112F0F1FD04EB81
:105128008000D0F8647112F0CFFD804612F096FD31
:1051380004EB800004EB8804D0F864310393614BDE
:105148000293D4F86431604901932A4633460097A4
:105158005E485F4D5F4E604FFEF7CEFA0020FFF7C6
:10516800F5FE5E4B5E4A1C882B685E495E489B00D4
:10517800C3F58063FEF7C0FA5C4A5D4B5D48A4B294
:10518800D31A2146B5F890205B4DFEF7B5FA5B4877
:10519800FFF7E2FB002455F824103046FEF7AFF97C
:1051A8003846FEF709FA564BE15C4FEA84080029B5
:1051B80057D15448FEF700FA5348FEF7FDF9534B10
:1051C80058F80310002950D14E48FFF7C5FB0134A9
:1051D800042CE0D14E4B4F481988FEF790F94E4BFE
:1051E8001A6F002A45D007EE902ADFED4C6AF8EED8
:1051F800E77A86EEA77AFDEEC77ACDED047AD3F882
:10520800B820002A37D007EE902ADFED446AF8EE7E
:10521800E77A86EEA77AFDEEC77ACDED057A9B6A26
:105228005BB107EE903ADFED3D6AF8EEE77A86EE7D
:10523800A77AFDEEC77A17EE903A394A39481188AD
:105248000093049A059BFEF757FA374B37481968BD
:1052580021F0784121F07F01FEF74EFA29B0BDE830
:10526800F0833348FEF74BF9A6E73148FEF744FAD6
:10527800ADE70492C3E70592D1E700BF5893002039
:10528800A85B0308F007030880830020C25B0308BB
:10529800836B0020F83E0020D35B0308B801002090
:1052A800F65B030840420F005C400020065C0308E0
:1052B8000E5C0308235C0308355C0308475C03089D
:1052C800595C0308C15C03086B5C03086E5C030847
:1052D800481900204B5D0308535D0308286A002025
:1052E8000020001000180000C65C03080000040835
:1052F80000E80308FE5C030864090308385D030836
:10530800C5220020BA5A0308695D0308043F00203B
:10531800E4010010735D0308180500200024744997
:1053280004250020835D03086C940020C05D0308F9
:10533800625D0308903E00202DE9F347204E214886
:105348003768214CDFF89080DFF88490DFF88CA074
:10535800FFF702FB0025BD4202DB02B0BDE8F08783
:1053680033689D4229DCA288D3B2172B18D808EBE2
:105378008303D3F88431002B08BF4B46216850467D
:10538800FEF7BDF8E3885A040CD5E0890090A3899C
:10539800628921890D48FEF7AFF901351034DAE743
:1053A8000B4BEBE71B0405D5E268A1680948FEF73B
:1053B800A3F9F2E7FEF77AF9EFE700239B88FFDE0F
:1053C80080210020DD5D0308801D0020185E030891
:1053D800876D03082A5E0308F0070308095E0308BF
:1053E8000148FFF7B9BA00BF345E0308F7B50346B2
:1053F800FDF7E2FF044618B1FFF7F2FF03B0F0BD76
:1054080001AA1D491C4F184629F020F826462546B2
:1054180040B90B2D18D919490B2302461848FEF735
:105428006BF9EBE744B1012C0AD001AA39460020F8
:10543800013429F00BF8EBE7FBF776FE0546F4E7B5
:10544800FBF772FE0646F0E7022C0DD1A6F57A733B
:10545800B3F57A7F05D94FF4FA634FF47A720949A4
:10546800DCE7094B23F81560074B084833F915208A
:105478002946FEF741F9C1E7876F0308055A030873
:105488000B5A0308F075030886470020405E03089E
:105498002DE9F341044627F089FA04283DD1631E1B
:1054A800E11C5A78A2F16100192898BF203A03F844
:1054B800012F8B42F5D1DFF874802546271D15F89A
:1054C800016B404631462BF0B3F820B131462846EF
:1054D8002BF0AEF820B1FFF783FF02B0BDE8F081F2
:1054E800BD42ECD120460FF09DFE0E480E4CFEF753
:1054F80063F80E4800231A1902A952780A44195C65
:1055080002F8081C0133042BF5D10023694608482A
:105518008DF80430FEF7F0F8DFE70028E5D0FFF754
:105528005FFFE2E74D5E030884330020CB180308D1
:10553800C15A030870B58AB0044627F037FAC2B2D8
:105548002AB926490120FEF709FC0AB070BD0522D8
:1055580023492046FBF7CEFD40B91520FBF7FCFC9C
:105568000028F2D01D49FBF7C9FCEEE7204601AA46
:105578001C491C4E28F06AFF002402AD78B1052CA6
:1055880002D1FFF72DFFE0E7FBF7CEFD01AA45F8B2
:1055980024003146002028F059FF0134EEE7052C9D
:1055A800EFD1029A0F2AECD8039D072DE9D8049C65
:1055B800162CE6D8059800F17D03FA2BE1D8069958
:1055C800FF29DED8054B03F8225003EB82039870BD
:1055D8005C70D9700448FFF7ADFFB6E78D46002030
:1055E800535E0308876F0308876D03087FB5054678
:1055F800FDF7E2FE98BB04462B78002B37D1052C2B
:105608003DD1BDF90440A3B2072B38D8BDF9061027
:10561800A1F2EE239BB240F2DC5083422FD8BDF9B1
:105628000820A2F2EE239BB2834228D8BDF90A00D3
:10563800814224DC824222DB914220DCBDF90C50FD
:1056480005F17D039BB2FA2B19D8194B23F83410B6
:1056580003EBC4035A8098809D7104B070BD14494F
:105668000022012004B0BDE87040FEF7C9BB2D2B15
:1056780003D0A3F13002092A15D8042C03DD04B0A5
:10568800BDE87040ACE62846FBF74EFD04AB661C4F
:1056980003EB440424F80C0C15F8013F303B092BAC
:1056A800FAD93446A8E7202BE9D101352646F8E790
:1056B800CE4600207FB50346FDF77EFE044630B196
:1056C80000221F490120FEF7EFFB04B070BD6A46B7
:1056D8001C491C4E184628F0B9FE01ADC0B1032C78
:1056E80002D1FFF77DFEF0E7FBF71EFD6A4645F89D
:1056F80024003146002028F0A9FE0134EEE70628F0
:10570800EFD10A2AEDD80E48104480F8E43012E0B0
:10571800032CE6D1039B0F2BE3D80199029AC8B258
:105728000528ECD8052ADCD8054C062505FB0040E1
:10573800104480F8C0300448FDF7DEFFC5E700BF1D
:10574800846A0020876F0308D95803082DE9F041BF
:105758000646FDF731FE044630B1002224490120F7
:10576800BDE8F041FEF7FEBB3046FBF7DDFC0F2835
:1057780005462EDC3046FDF727FEDFF884801D4FF6
:10578800064620353046FBF7CFFC38F814309842EF
:1057980027DC012C11D0022C13D027F82500304625
:1057A8002C212AF045FF064678B101360123013441
:1057B800BBB1032CE6D1BDE8F08107EB85039870F7
:1057C800EDE707EB8503D870E9E7A21E5342534182
:1057D800EDE722460F2308490848BDE8F041FDF7E8
:1057E8008BBF002347F82530BDE8F041F8E500BF3E
:1057F800046B0020846A0020055A03080B5A03082A
:10580800D40903082DE9F04F87B00546FDF7D4FD0C
:10581800044638B1002256490120FEF7DFFB07B0E5
:10582800BDE8F08F2846FBF77FFC1F28074600F3EA
:1058380098802846FDF7C8FD4D4B009443F8274053
:105848000646A046A246A1462546A3460193494BD3
:10585800E1B2E05C0DF10C0C0023B64616F8012B02
:105868001AB1904210D00A2B0AD106AE33449042A6
:105878004FF0000603F80C6C08D0FFF7B1FDCEE737
:1058880003F80C200133E8E70246EEE701390EF190
:105898000106032932D8DFE801F04E1F025BDFF86A
:1058A800E8C00DF10B004FF0010E10F8011F49B3CD
:1058B8000023314AD25C8A4203D00133072BF8D146
:1058C8005346002212F80CA08A453DD10EFA02F286
:1058D80048EA02089A46E8E70DF10B014FF0010C7F
:1058E80011F8012F72B10023244813F800E09645FF
:1058F80026D10CFA03F349EA0309F1E703A8FBF7F9
:1059080013FC83460134052CA1D1009B019A05F0B4
:105918000F0545EA834545EA895949EA0A2A4FEAC3
:105928000B134AEA0838DBB248EA030342F8273087
:105938001EF080FD73E703A8FBF7F6FB0546E1E7D9
:105948000133062BD0D1CBE70132062ABAD1C1E701
:1059580003A8FBF7E9FB03460F28C8BF0023009301
:10596800D0E71F23224606490648FDF7C5FE56E73D
:10597800846A0020DA0903082A4703082447030831
:10598800055A03080B5A0308314703082DE9F0416B
:105998000546FDF711FD064630B1002228490120D1
:1059A800BDE8F041FEF754BB6FF000422549284698
:1059B800FBF7A0FB70B9224B4FF47A714FF4FA62EF
:1059C80019805A809980DA8019815A819981DA81FF
:1059D800BDE8F0812846FBF7A7FB0328044626D834
:1059E8002846FDF7F1FC064668B1FBF79DFB01254B
:1059F80007463046FDF7E8FC10B1FBF795FB25B9E3
:105A0800BDE8F041ECE40546F3E7A7F2EE2240F2E8
:105A1800DC539A42F4D8A0F2EE229A42F0D8084B0E
:105A280023F8247003EB84035880BDE8F0813246E4
:105A3800032305490548BDE8F041FDF75DBE00BFF9
:105A48003A390020535E0308595E03080B5A0308CD
:105A580070B50446FDF7B0FC064630B100222E4969
:105A68000120BDE87040FEF72DBB05222B492046DA
:105A7800FBF740FB38B92849002243181030C028EA
:105A88001A60FAD170BD2046FBF74EFB0B2805467D
:105A980039D82046FDF798FC064640B3FBF761FB72
:105AA8001D4B03EB051383ED000A01243046FDF777
:105AB8008BFC064638B1FBF754FB174B03EB051379
:105AC80083ED010A01343046FDF77EFC064638B105
