:020000040800F2
:1000000000000110D14003080F330208BD2003088F
:100010008D4103088D4103088D4103080000000055
:100020000000000000000000000000000D33020886
:100030000B3302080000000009330208C9A60008BB
:100040008D4103088D4103088D4103088D4103084C
:100050008D4103088D410308030F00080B0F0008B2
:100060008D410308090F0008070F00081147020817
:1000700001470208F1460208E1460208CD4602089F
:10008000B9460208A54602088D4103088D410308C0
:100090008D4103088D4103088D410308050F0008B9
:1000A0004D48020825480208FD4702087548020825
:1000B000E9470208D5470208C14702088D410308F5
:1000C0008D4103088D4103088D4103088D410308CC
:1000D0008D410308451602083D1602083516020830
:1000E000010F00088D410308C53502087147020859
:1000F0004947020821470208994702089146020829
:100100008D4103088D410308AD4702088D41030866
:100110002D160208251602088D4103088D4103089B
:100120007D46020869460208554602084146020813
:100130002D4602088D4103088D4103088D410308B7
:100140008D4103088D4103088D4103087D2D020870
:100150001946020805460208F14502088D410308C8
:100160008D4103088D4103088D4103088D4103082B
:100170008D4103088D4103088D4103088D4103081B
:080180008D4103088D410308C5
:1001880083681A68937A0133DBB20A2B937205D914
:1001980050780349002321F810309372704700BF4C
:1001A8003041002070B5524B1A7814240132B2FB4A
:1001B800F4F004FB10229C68586D1A70A142DA68AA
:1001C80008440CD293F85C40002C00F08B8000F5BA
:1001D800803082423CD3C2F5803202440AE0824237
:1001E800F9D293F85C40002C0CBF00244FF4803403
:1001F800821A121B996093F860101A61002201316B
:1002080083F85C201422D86091FBF2F002FB1011F5
:1002180083F8601093F861101869013191FBF2F4CA
:1002280002FB141283F8612040F68C2290423CD9DC
:10023800197993F9592091422BD10A1F0C2A28D8F1
:1002480093F85A20182A06D8013283F85A2004E075
:100258004FF48034CCE783F8581093F95820914232
:100268000FD193F85B0060B1224C234D00209042DF
:1002780011DB214800240F2A13DD204802780132BF
:100288000270012283F85B2083F8591000221A714A
:1002980070BD0022D9E754F8046F25F810600130CA
:1002A800E5E720F812400132E5E793F85B20EAB170
:1002B800A0F2EF2140F2DA52914207D81A790F2AB8
:1002C80004D803EB820101324861E0E700220C48C0
:1002D80083F85B2011461346C2180433402B116182
:1002E800FAD170BD8242BFF476AF81E770BD00BF1E
:1002F800201A0020301A0020304100200E41002032
:10030800241A002010B50A4B1A7814240132B2FBC3
:10031800F4F004FB10221A705A6D01320A445A652F
:100328004FF6FF72914204BF012283F85C2010BD92
:10033800201A0020024B53F820305981704700BF23
:10034800884700200120704701207047F0B5094E0A
:1003580034683F2C0DDC0FC8074F4FEA041E0EEB24
:10036800070585E80F00054B1B684EF80730013478
:100378003460F0BDD0330020D02F0020E862002088
:1003880070B5114C05460E4600220023D4E91A0127
:1003980033F0E8FA20B10AA3D3E90023C4E91A2309
:1003A800304633F011F8D4E91A2333F09DF933F0CD
:1003B80021FB04EB4504A4F8700070BDAFF3008086
:1003C800ABAAAAAAAA461040201A00200E4B9842AF
:1003D8000AD0A3F57843984212D003F58063984277
:1003E80010D04FF0FF3070470023084A142101FB5A
:1003F80003231A8A013292B21A82188A80B270478D
:100408000123F2E70223F0E70030014078190020C9
:1004180008B540F2E9330289920708D589B281818B
:1004280040F2E9330289D20709D5808905E0013B0A
:100438009BB2002BEFD1FFF7C9FFC0B208BD013B4B
:100448009BB2002BEED1F6E7A0F13003DAB2092A0D
:1004580001D818467047A0F16103052B01D8573819
:100468007047A0F14103052B94BF37384FF0FF3098
:10047800704703685A1C02601970704703685A1C59
:100488000260197070472DE9F84F002B14BF4FF028
:1004980030094FF020090A9B141E07468846BABF48
:1004A80064424FF0010B4FF0000B13F8012B02B11F
:1004B800DCB9BBF1000F1ED1254615F1FF3516D268
:1004C80023462C460A9D5E1B05EB060A15F8011B00
:1004D80099B9BBF1000F05D02546002D10DC002C82
:1004E800A8BFA2445046BDE8F88F013CDDE7494665
:1004F8003846C047E1E70023E4E73846C047E3E76A
:1005080049463846C047013DE7E7D0ED006AD0EDDF
:10051800057AE6EE807AB0EE407AB0EE670AD0ED62
:10052800037AD0ED016A67EEC07AE7EE267AD0ED5D
:10053800066A77EEA67AD0ED026AC0ED057AD0EDAC
:10054800047A67EEC07AE7EE267AC0ED067A70473D
:10055800704743230B800148704700BF000000200C
:1005680010B5074C606CFF2807D00649D1F89020D9
:10057800943121F04CFEFF236364002010BD00BFBE
:1005880000000020201A002008B5D0F8E4355B6A86
:100598009847002008BD08B5D0F8E4351B6A98478D
:1005A800002008BDD0F8E43510B504461B6898470C
:1005B800D4F8E8359B689847002010BD08B5D0F8F6
:1005C800E435DB6903B19847002008BD08B590F809
:1005D800123180F81331042380F81231D0F8E8354D
:1005E800DB689847002008BD10B5D0F8E835044608
:1005F8001B699847032384F81231002010BD70B599
:100608004B784C69012B27D182691568136914B995
:1006180064F3060305E08E68B442F9D94E6166F3C7
:10062800060343F400231361C478012C05D10B7829
:100638000E6900EB83039B695E6145F00445156014
:1006480044B94B6933B102690978506B01238B4077
:1006580003435363002070BD0B788E6800EB83035F
:100668005A6D156813696CB966F3060343F40023E1
:100678001361C378012B04BF0B69536145F004452E
:100688001560E7E74E61EFE72DE9F0414A780C780D
:100698004B69012A51D100EB840EDEF818703D68D1
:1006A8003E6963F312061BBB62F3DC463E61C27807
:1006B800012A2CD10C697C61CC78012C07D1006906
:1006C8008068C00554BF45F0005545F0805545F099
:1006D8000445012C3D6008D13AB99BB20333C9687F
:1006E800DEF8D0009B10934222D10020BDE8F081B3
:1006F800D1F808C003EB0C02013AB2FBFCF262F33A
:10070800DC46CA78012A08BF62F35E76CEE7CE7867
:10071800012ED1D0002BCFD0D0F810C00126DCF8A4
:10072800348006FA04F444EA0804CCF83440C3E7F9
:1007380051F8224004600132D5E700EB84048A684E
:10074800646D25682669ABB962F31206012363F369
:10075800DC462661C378012B04BF0B696361CB7843
:10076800012B03D14B79A3B145F0005545F0044561
:100778002560BAE71344013BB3FBF2F363F3DC46AD
:10078800C3F30903534363F31206C3F312034B6124
:10079800DFE745F08055E9E770B501F07F052824CB
:1007A80004FB050104FB05040126C4F82821C4F84C
:1007B8002C21002201F58E7184F81D6184F81C51EA
:1007C800C4F83421C4F830311DB9FFF718FF0020F0
:1007D80070BDFFF759FFFAE7234BD3F89C200F2A87
:1007E80070B502F101011E4603D0C3F89C10002029
:1007F80070BD1E4C0023C6F89C302378002BF6D120
:100808001B4D2A68B2F5006F08BF2B60194B296889
:100818001B68994202D100232370E8E78CBFC1F519
:1008280000635B1AC6F8A030D6F8A030402B8AB215
:100838000DD9403B4031C6F8A03001232370296010
:1008480040230D490A448121FFF7A6FFCFE7194449
:1008580029604FF00001C6F8A0100EBF0221012147
:100868009BB22170EDE700BF201A0020E45A002057
:10087800CC5A0020D05A0020E55A002070B5194DF6
:100888002B78012B2C4604D1174ED6F8A0305BB933
:100898002B702378022B17D100231A468121FFF7EA
:1008A8007BFF002323700FE010490C68402BA2B295
:1008B8000CD9403B4034C6F8A0300C6040230C49AA
:1008C8000A448121FFF768FF002070BD1C440C60BA
:1008D8004FF00001C6F8A0100ABF02219BB2297090
:1008E800EDE700BFE45A0020201A0020CC5A00206F
:1008F800E55A002010B504461346C4F83C21C4F854
:100908003821022280F811210A460021FFF744FF0E
:10091800002010BD70B501F07F04282606FB0405F1
:1009280006FB0401C5F88833002385F87443C5F82D
:100938008023C5F88C3385F87533C37806FB040427
:10094800012B08BFC5F8842394F8743301F55D7151
:100958001BB9FFF754FE002070BDFFF795FEFAE7BC
:1009680038B5282303FB0101074DB1F88C13044661
:10097800284621F017FC40232A4601212046FFF78C
:10098800C9FF002038BD00BFC41A002030B54A781E
:100998000B780025012A2C4610D100EB830102FABE
:1009A80003F3896963F30F0402696FF3CF350D60B0
:1009B800D36923EA0403D361002030BD00EB83022E
:1009C800516D012202FA03F363F31F44ECE770B59B
:1009D80004460125002680F8445180F8455100F569
:1009E800A271FFF7D3FF04F5677184F89C5384F86C
:1009F8009D632046FFF7CAFF022384F86C3104F593
:100A0800B67184F86D512046FFF7C0FF21F040FC15
:100A1800304670BD30B54C780B78012C4FF0000291
:100A28001DD100EB830504FA03F3AD6963F30F02EC
:100A38002B681C040DD48C6864F30A03CC78C9882D
:100A480064F3934361F3995343F0805343F40043B1
:100A58002B600369D9690A43DA61002030BD00EBD5
:100A68008304656D012404FA03F363F31F42DFE78F
:100A78002DE9F04104460125022700264FF04008E1
:100A880080F8445180F84551C0F84C8180F847718E
:100A9800A0F84A5180F8486100F5A271FFF7BAFF43
:100AA80004F5677184F89C5384F89D63C4F8A483A3
:100AB80084F89F7384F8A0632046FFF7ABFF0823F0
:100AC800C4F87431032304F5B67184F86F3184F8DF
:100AD8006C7184F86D51A4F872712046FFF79AFF83
:100AE800064B1F715E7121F0D9FB4346044A294623
:100AF8002046FFF70FFF3046BDE8F0817810002050
:100B0800C41A0020F8B5044600254027012680F8BD
:100B1800745380F87553C0F87C7380F8775300F5E8
:100B28005D71FFF777FF04F58E7184F81C5184F826
:100B38001D61C4F8247184F81F51A4F8225120467D
:100B4800FFF768FFD4F8E83584F81261A0785B688D
:100B580098472846F8BD0E4BDA68D20310D4DA68F5
:100B6800D1060FD4DA68D2050ED4DA6812F0E00F95
:100B78000CD1DB6813F0020F14BF0820092070475E
:100B880001207047062070470220704707207047F1
:100B9800003C024007B509238DF80730FFF7DBFF5B
:100BA8008DF807009DF80730012BF7D09DF8070056
:100BB80003B05DF804FB38B582681468A278034670
:100BC8003AB90123A370A1801146BDE838402EF040
:100BD80003BEA08889B2814238BF5A68E1803DBF10
:100BE8001268D26A121A091A38BF89182181064A6E
:100BF8006178208922F811000025A5700121184686
:100C08002EF0EAFDA57238BD30410020094B07EEF1
:100C1800901A53F82030B8EEE77A93ED040AD3ED32
:100C2800057A10B5A7EE270ADC6834F07BF8206057
:100C380010BD00BF884700202DE9F0410B4DDFF8BB
:100C480030802C686A69012714400CB9BDE8F0812E
:100C5800B4FA84F3C3F11F0307FA03F658F8230024
:100C68000368984724EA06046E61EEE7003C0140F9
:100C78005852002070B50A7812F0600406460D46F6
:100C88002BD0202C30D1CC884B7804B312060CD54D
:100C980022461E49184621F0BAFAEA881B4930460E
:100CA800FFF728FE0024204670BD194AC0F8944377
:100CB8005364184AC0F890430323C2F8904080F860
:100CC8001131943223460021FFF724FEEAE702227D
:100CD8001144184621F09BFAE5E74B780A2B07D018
:100CE8000B2B0AD0062BDED12EF06EF90224DAE7A0
:100CF80001220949FFF7FEFDD5E78B781BB9054AA4
:100D0800C2F8E430CEE72EF05FF9CCE7B41A002041
:100D180000000020201A0020041B002003681B6824
:100D280018470368DB692DE9F04105460E4617466A
:100D38008BB90C463B1B3344002B01DCBDE8F0812A
:100D4800284609F099FD0028FAD014F8011B284616
:100D5800FFF7E4FFEEE7BDE8F0411847014B1868DC
:100D6800DCE700BF049E002038B505460C4614F8A1
:100D7800011B01B938BD2846FFF7D0FFF7E70D4B37
:100D88001B681B0110B407D50B4B1B685B050DD501
:100D98005DF8044BFFF7F4BA084B03EB8003D3F874
:100DA800E8301BB107289CBFDB6819605DF8044B6D
:100DB800704700BF48840020EC620020201A002001
:100DC8001FB5ADF80A30BDF81830ADF8040041F48D
:100DD8008041ADF80C306846BDF81C30ADF80610FF
:100DE800ADF80820ADF80E30FFF7B0FA05B05DF8A1
:100DF80004FB1FB5ADF804006846ADF80610FFF710
:100E0800A5FA05B05DF804FB10B50409013C032CF4
:100E180000F00F0215D80C4B33F8141041FA02F306
:100E280013F001000ED0012090400138084032F044
:100E3800C7FF064B1B5D1844054B0C2202FB003014
:100E480010BD002010BD00BF087C030854710308C2
:100E5800A8A6002010B1036882885A83704710B191
:100E6800036882881A837047F8B5164690F90C20F3
:100E780014235343104AD55883689A0704460F46EB
:100E880006D40069FFF7E6FF0120002109F0E6FB20
:100E980039462846FFF7BCFA31462846FFF7B8FA24
:100EA800A3689B0706D40120002109F0D7FB20691D
:100EB800FFF7D5FF0120F8BD7819002030B103688D
:100EC80082881B691A4214BF01200020704728B18C
:100ED8008088B0FA80F0C0F11F0070474FF0FF30F3
:100EE800704730B1006800F13F4000F57E00800A8D
:100EF80070474FF0FF3070479EE69DE69CE69BE604
:100F08009AE699E637B504468B6821600D469847FE
:100F180001232373FF220023A3736273E3732B6BF4
:100F280013B120469847E0730B4B93F808311BB177
:100F3800E37B23F00103E37323685B6B4BB121462A
:100F480001A8984728B1BDF80630013B238203B0B9
:100F580030BDFF23FAE700BF201A002003689B6A10
:100F6800184703685B6A1847F7B5078A9F42044623
:100F78000D4609D301358572E27204680025009593
:100F8800A469A04703B0F0BD4FF0FF30FAE72DE9A0
:100F9800F04105468AB018460F4690461C4632F086
:100FA800B9F83B189DF84060AB72EB7B85F80B8075
:100FB80036EA030319D0F20717D5114BC8221B686C
:100FC800B3FBF2F3DB0706F0FE060ED51F2828BF99
:100FD8001F2004460246202102A836F036F80AAB44
:100FE8001C44002304F8203C02AC2B6800965E6980
:100FF8004246234639462846B0470AB0BDE8F08144
:10100800E86200202DE9F3410446184616460D46CD
:101018001F4632F07FF82368E67228440022A07247
:101028000092D3F8148032463B4629462046C047F2
:1010380002B0BDE8F081036810B504465B689847C4
:10104800236820469B689847A37B013BA37310BD88
:10105800036810B504461B689847236820469B68B8
:101068009847A37B0133A37310BD03681B69184716
:10107800036810B59B680446984701232373FF2330
:10108800637310BDF8B584894FF6FF764FF47A7410
:101098000BB90120F8BD92B1157801320789BF0755
:1010A8000FD5ADB285814FF47A740589ED0712D555
:1010B8008589ADB209B10D700131013BE8E7FF2523
:1010C800ECE7013CA4B2B442E8D1FFF77FF9003065
:1010D80018BF0120F8BD013CA4B2B442E5D1F4E741
:1010E80070B5164690F90C20142353430C4AD55872
:1010F80083689A07044602D40069FFF7ABFE2846C6
:10110800FFF786F90123002231462846FFF7BAFF88
:10111800A3689B0702D42069FFF7A1FE012070BDD8
:1011280078190020F8B5164690F90C201F461423AC
:1011380053430D4AD55883689A07044602D4006978
:10114800FFF788FE2846FFF763F93B460022314641
:101158002846FFF797FFA3689B0702D42069FFF78B
:101168007EFE0120F8BD00BF78190020F8B51646AC
:1011780090F90C201F46142353430D4AD558836811
:101188009A07044602D40069FFF764FE2846FFF771
:101198003FF93B46324600212846FFF773FFA36814
:1011A8009B0702D42069FFF75AFE0120F8BD00BF53
:1011B80078190020F8B51F4690F90C300446142021
:1011C80058430C4B1D58A36816469A0703D4206948
:1011D800FFF740FE00BF3B4632462846FFF752FF66
:1011E800A3689B0703D400BF2069FFF738FE0120DE
:1011F800F8BD00BF78190020F8B50679012E05461C
:10120800964609D0022E1FD18368DB0758BF41F0EC
:101218008001BDE8F84063E70C4B90F90C001824F6
:1012280004FB003463786BB16B7BA1725B002372A3
:101238000023637223750223A370E660226120F005
:1012480079FB237D1846F8BD0023FBE704520020F4
:101258002DE9F0410479012C05468E461F4609D038
:10126800022C20D18468E40758BF41F08001BDE812
:10127800F04157E70D4B90F90C00182404FB00349B
:1012880063786BB16B7BA1725B002372002363727E
:1012980023750223A370E760226120F04BFB237DB6
:1012A8001846BDE8F0810023FAE700BF0452002089
:1012B80073B50379012B0D4616460AD0022B25D1AA
:1012C8008368DB0758BF01F07F01FFF7CDFD02B04F
:1012D80070BD90F90C10427B0D488DF807601824FA
:1012E80004FB010460780028F1D06372E3600DF11B
:1012F8000703236100235200237502230846227244
:10130800A572A37020F016FB207DE0E70020DEE741
:10131800045200200A4B70B50E46D3F80C51811CBC
:1013280089000446F2B201F0FC012846FFF7C0FF2D
:10133800A1000931320A2846C9B2BDE87040B7E7B2
:10134800201A00202DE9F0410E4E8046002406F1B7
:10135800A007E0B200F0030343450ED136F814505D
:1013680037F81430EB1A002BB8BF5B42052B04DDAD
:101378002946FFF7CFFF27F814500134102CE8D185
:10138800BDE8F081901A002038B50F4D10220021D9
:1013980041F2D774B4FBF0F4D5F80C01FFF788FFDD
:1013A800012009F06CF9621ED2B2FE21D5F80C01B9
:1013B800FFF77EFF012009F062F9D5F80C018022C1
:1013C8000021BDE8384073E7201A00202DE9F041DC
:1013D8000679012E054696469C4609D0022E21D153
:1013E8008468E40758BF41F08001BDE8F041BDE6DC
:1013F8000D4B90F90C00182404FB0034637873B18A
:101408006B7BA1725B002372002323750223A370F8
:101418006672C4F80CC0226120F08CFA237D18464D
:10142800BDE8F0810023FAE70452002073B5027981
:10143800022A22D103238DF8033090F90C001F4CA7
:101448008DF8022004238DF804301423434302A8A6
:101458000844E3581A49002601258DF800608DF8E4
:1014680001508B4210F8080C09D0A1F578418B4245
:101478001FD001F580618B421DD002B070BD31468E
:101488001A8822F040021204120C14251A8005FB57
:1014980001411A88C96822F0380231F81010120484
:1014A800120C0A431A801A8892B242F040021A803B
:1014B800E3E72946E4E71146E2E700BF7819002090
:1014C8000030014010B5427A044632B1036800F199
:1014D8000A01406898470023637210BD124B53F805
:1014E800200070B5F8B1114A062303FB002393F9D5
:1014F8000140621C16D01879A8B10D4A0D4E155D31
:10150800DA7864211423002061438C18013B36F8F3
:1015180014402A4410FA84F0F7D11423B0FBF3F0F6
:1015280080B270BD002070BD9C3F0020C1340020F7
:10153800E8370020E034002038B503200D46144673
:10154800FFF7CCFF07EE900AB8EE677ADFED0A7A6C
:1015580027EE277A5DB1F8EE047AF0EE006AE7EE3E
:10156800267A9FED067A67EE877AC5ED007A0CB188
:10157800034B236038BD00BF6740533A00007A44EC
:101588003313904330B5094B0949C0B28B4200D39D
:1015980030BD5A88140406D55D68DC68C2F30B02B6
:1015A80000FB025222601433F0E700BF500E04081B
:1015B800E811040870B5448806460D46C4F30B04C8
:1015C80000212246284635F040FD3169084B9942F2
:1015D80008D3084B994205D222462846BDE87040F8
:1015E80032F0A2BF19B12846BDE87040084770BD67
:1015F800E8110408681404084388426813F4004F8B
:101608001EBFC9B2C3F30B0301FB03221146D1E786
:10161800064B07498B4202D30023184670471A88A5
:10162800C2F30B029042F8D01433F3E7500E0408CB
:10163800E8110408024A136823EA000010607047A2
:101648001C450020024A136818431060704700BF09
:101658001C450020F8B50468C4F30D0405460E4681
:1016680004B32F68FFF796FA092840F08880454CA4
:10167800236923F440732361236943F400732361CE
:10168800236943F0010323613E60FFF783FA23696E
:10169800092823F00103236171D12B6804332B60DF
:1016A8000020F8BD384B394A93422BD902F58042C5
:1016B800934226D902F5804293422AD902F5804204
:1016C800934228D902F58032934226D902F5003296
:1016D800934224D902F50032934222D902F500320E
:1016E800934220D902F5003293421ED902F5802296
:1016F80093421CD9B3F1016F1BD3052009F010F8F0
:10170800FBE70824FFF746FA092814D04FF0FF300A
:10171800F8BD1024F6E71824F4E72024F2E728247B
:10172800F0E73024EEE73824ECE74024EAE74824E1
:10173800E8E75824E6E7134F3B6923F440733B611D
:101748003B6943F400733B613B6923F0F8033B6159
:101758003B6943F002031C433C613B6943F480331B
:101768003B61FFF717FA3B6923F002033B613B69D2
:10177800092823F0F8033B613FF473AFC6E76FF025
:101788000100F8BD003C024000000E08FF3F0008C1
:10179800F8B504460D468E180027B54201D12069D8
:1017A800F8BDE368591CE160234415F8012B1A724F
:1017B8000429F2D1206918B9A1682046FFF74AFF29
:1017C8002061E760E9E738B58D180C46AC4200D1D6
:1017D80038BD14F8011B18F017FBF7E770B50122A4
:1017E8001049114C114E0020FFF7EDFF22884AB135
:1017F800A518B54213D2052A11D92146FFF7E3FFF0
:101808002C46F3E721460222FFF7DDFF6388084AEA
:10181800C31AA41A074A58421480584170BD0020C0
:1018280070BD00BF00000E0801000E08000010087F
:10183800FCFF0D08102D002030B5024404469442E8
:1018480001D1002011E014F8013B11F8015BA3F16C
:1018580041001928A5F1410098BF2033192898BFE5
:101868002035581B01D1002DE9D130BD70B5034694
:1018780010F8012B202AFAD0092AF8D02D2A0ABFFD
:10188800034601254FF0FF35591E00240A2611F89A
:10189800010FFEF7D9FD0A2802D905FB04F070BD37
:1018A80006FB0404F3E730B50278202A034600F16A
:1018B8000100F9D0092AF7D02D2A47D10346BFEEF7
:1018C800000A9FED3A7A1A46F2EE046A134612F8B5
:1018D800010BA0F13001CCB2092C3DD92E280BD137
:1018E800F2EE046A1146B0EE666A0B4611F8012B57
:1018F800303AD0B2092838D91A7802F0DF02452ADE
:101908004FD15A782D2A3BD102330120013B0022C6
:101918000A2513F8011F3039CCB2092C36D9B2F593
:101928009A7F28BF4FF49A72DFED216A1346F7EECB
:10193800007A072B2DD802F00702F2EE046A62BB88
:1019480088B3C7EE276A20EE260A30BD2B2A08BFC7
:101958000346B7EE000AB4E707EE901AF8EEE77A06
:10196800E7EE267AB0EE677AB0E707EE902AF8EE4F
:10197800E77AC7EEA65A66EE866A37EE257AB4E7A6
:101988002B2A14BF013302330020BFE705FB0212E4
:10199800BFE767EEA67A083BCBE767EEA67A013A7F
:1019A800CDE7F7EE007A67EE276ACCE70000000083
:1019B80020BCBE4CB5EEC00ADFED2D7AF1EE10FA70
:1019C800CCBF30EE270A30EE670ADFED2A7A20EE28
:1019D800270A30B5FDEEC07A87B017EE904A054663
:1019E80084EAE470002303A9A0EBE4700093019358
:1019F80002932DF093FB002CACBF20232D2303A8CA
:101A08008DF8003031F086FB012822D130238DF883
:101A180001308DF802308DF8033003A9684635F09F
:101A28001CFB684631F076FB0338C4B2224669468F
:101A3800284635F049FB00232B550F49284635F039
:101A48000CFB0DEB0401284635F007FB284607B0D0
:101A580030BD022805D130238DF801308DF80230D1
:101A6800DBE7032804BF30238DF80130D5E700BF3A
:101A78006F12033A00007A441DEA030870B506465F
:101A880015460846B6FBF2F414B12046FFF7F6FFF8
:101A980005FB1464024B1B5D00F8013B70BD00BFE1
:101AA80064D30308F0B50124B0FBF4F58D4203D2EA
:101AB80000271CB91C70F0BD4C43F5E7B0FBF4F6E9
:101AC80004FB1600B4FBF1F41FB9002E01DC002C56
:101AD800EFD1092E03F1010E08DD002A14BF3725C6
:101AE800572535441D7001377346E2E73025F8E77E
:101AF800084BD3E9002352EA030108D006490968D4
:101B0800521843F10003C0E9002301207047002068
:101B1800704700BF484C0020E8620020F0B5264E10
:101B280004460F460FCE8DB06D460FC50FCE0FC5BC
:101B380096E80F0085E80F0014F0030335D16421FF
:101B480094FBF1F201FB124242B94FF4C87294FBC4
:101B5800F2F302FB1343003318BF0123C3F11D0343
:101B680040F26D1201930420631E93FBF0F002FB18
:101B780004046FF0630093FBF0F020444FF4C87442
:101B880093FBF4F31844063000220721013F5DF867
:101B980022309742184490FBF1F4C4EBC404A0EB44
:101BA800040004D1181A0DB0F0BD0123D6E70132A4
:101BB8000C2AECD10020F6E758710308F8B5144652
:101BC8001D4606464FF47A7200232046294632F015
:101BD8008FF82C4B3C22034493FBF2F002FB1031AC
:101BE800B17190FBF2F102FB1102182072714FF4EF
:101BF800616293FBF2F292FBF0F100FB1122327169
:101C08002149224A93FBF2F293FBF1F3980040F248
:101C1800B55392FBF3F103FB1123B3F5896F2DDA6A
:101C280040F2DA2293422BDCB3F5B77FB4BF00222F
:101C380001221749182707FB02170B2137F811E073
:101C4800734501DA0139F9D100F5FA6010443080A2
:101C5800481CB0700C2000FB02120E4901EB420236
:101C6800013392F834209B1AF3704FF47A720023F0
:101C78002046294632F03CF83281F8BD0322D8E7E5
:101C88000222D6E780BC92C7801F860780510100D8
:101C9800887103085471030837B504466846FFF78E
:101CA80027FF054638B1DDE900232046FFF786FF08
:101CB800284603B030BD01232080A370E370207153
:101CC8006071A0712081F3E737B50546FFF7E4FF9F
:101CD800044640B1054B02AA1B8822F8023D29465A
:101CE80028462DF0A5FF204603B030BDFCAA0020F1
:101CF80010B50288C378A2F5FA62591E40F2B554AD
:101D0800930804FB031381780C24013902F00302C1
:101D180004FB02120C49847901EB42021821928ECD
:101D28001344027901FB0323427900893C2101FB1A
:101D38000323064A224401FB03234FF47A7200214D
:101D4800C2FB030110BD00BF5471030880436D3806
:101D58000B684A689A4206D05A1C0A601B7800B180
:101D68000370012070470020704710B502681146C3
:101D7800531C036011F8024B0160D31C51780360B7
:101D880093781B0443EA0123111D0160D078234393
:101D980043EA006010BD03685A1C02601A4612F834
:101DA800021B0260587841EA0020704791E80C0055
:101DB8009B1A012B10B5044606DD0846FFF7EBFF1A
:101DC80004B12080012010BD002010BD03685A1CFA
:101DD80002601878704738B5044609C81B1A9A4239
:101DE800154606DC32F0A0FB22682A442260012056
:101DF80038BD002038BD38B504460068154632F0B5
:101E080093FB22682A44226038BD03685A1C02608A
:101E1800197003685A1C02600A0A1A7003685A1C6F
:101E280002600A0C1A700368090E5A1C02601970C5
:101E3800704703685A1C026019700368090A5A1C23
:101E48000260197070472DE9F04F89B082468B46C1
:101E580016461C4600270DF114083178002934D0A5
:101E6800252904D050460136D8470137F5E771785F
:101E78002D2905BFB178F51CB51C012618BF002611
:101E8800302906BF2978012300230293A1F13003EA
:101E980008BF0135092B4FF0000907D80846FEF79F
:101EA800D3FA0A2815D90EB1C9F100096C2940F0F6
:101EB8008B802A78642A05F1010600F0BC801BD8C3
:101EC800252A62D00BD8002AC7D1384609B0BDE808
:101ED800F08F0A2303FB090915F8011BDEE7582ACE
:101EE8001BD0632AB9D1354621785046D847261DDC
:101EF800013734462E46B0E7732A3AD008D8662A06
:101F080049D06E2AA9D13546236804341F60F1E709
:101F1800752A00F08B80782A9FD1A2F1580042429E
:101F280004F10405434642411021206807E02D23AF
:101F38008DF8143040420DF1150300220A21FFF7F5
:101F4800B1FD2C46CDF80080029B4A4659465046C2
:101F5800FEF799FA074480E72D238DF814304042A4
:101F68000DF1150300220A21FFF79CFD2E46039C64
:101F7800E8E73546236800934A4600235946504609
:101F8800FEF781FA261D0744B3E73546252150465A
:101F9800D8470137AEE73546073424F00703D3E9BD
:101FA800000103F1080431F045FD00EE100A404637
:101FB800FFF700FDCDF80080029B4A46594650467F
:101FC800FEF761FA074495E764293CD00BD8252928
:101FD800DCD003D800293FF478AF8BE758290FD01D
:101FE800632981D086E77329C4D004D86629D3D061
:101FF8006E2989D07EE775290FD078297FF47AAFCA
:1020080058394A4204F104064A41206843461021DF
:102018003446FFF747FD2E4694E7231D039300221D
:1020280043460A212068FFF73DFD9FE7251D4346EB
:1020380000220A2179E72068002804F10405FFF648
:1020480076AF434679E72068231D0028039383DB96
:10205800434687E70EB40FB505AB019053F8042B40
:102068000649039301A8FFF7EEFE019B00221A70B0
:1020780004B05DF804EB03B0704700BF85040008A6
:102088002DE9F043384B8DB00CAA1B8822F80E3D81
:10209800064609A82DF0CCFDBDF922203C2192FB73
:1020A800F1F301FB132109B21DB2BDF82430002958
:1020B800B8BF4942B3F5FA6F44D39DF82630013BC7
:1020C8000B2B3FD89DF82730013B1E2B3AD89DF8A3
:1020D8002830172B36D89DF829303B2B32D89DF85D
:1020E8002A303B2B2ED8BDF82C30B3F57A7F29D275
:1020F8000124002D9DF827009DF828709DF829E0FF
:102108009DF82AC0BDF82C800791B4BF4FF02D0967
:102118004FF02B09002DB8BF6D428DE88140BDF806
:1021280024209DF826300695CDF81490CDF810801F
:10213800CDF80CC00D493046FFF78CFF20460DB096
:10214800BDE8F08300200123ADF824008DF8263087
:102158008DF827308DF828008DF829008DF82A0091
:10216800ADF82C000446C4E7FCAA002089D3030874
:102178000FB437B50B490C48096800680B4D06AB1E
:1021880053F8042B0193FFF75EFE0446286808F015
:102198006AFB0028FAD0204603B0BDE8304004B0FE
:1021A800704700BFD4330020D8330020049E00209D
:1021B8002DE9F04F00F1100E85B0074605460026C0
:1021C80000F14009B0462B46BC4616E0F4EC016A23
:1021D8001AED047AD3ED007AE6EEC77AC3ED007AF9
:1021E800AC420AF1100AF1D108F10108B8F1040F64
:1021F8000CF1040C03F1040303D0AEF11004E24621
:10220800EEE74FEA860B73464B451ED003EB0B0AED
:10221800B8469C4609E0FCEC016A18ED047AD4ED56
:10222800047AE6EEC77AC4ED047AD44508F11008BA
:10223800F1D1D4ED046A95ED007AC6EE877A1033B1
:1022480017EE90CA44F810CFDEE70136042E05F1E8
:1022580014050EF1100E07F10407B3D10024009401
:1022680001940294039402F1100C074606466C464A
:1022780052F8045B2560EE463546BD4228D16245DA
:1022880004F1040406F1100605F11407F0D104AEB8
:1022980000F13C050A4656F8044D42F80C4F2C460E
:1022A8000434A34202F10402D1ED037A1BD12A4679
:1022B800D2ED006A87EEA67A103B8342A5F1140599
:1022C800A1F1040181ED047AE4D105B0BDE8F08FF5
:1022D800BEEC017AD4ED007AF5EC016AE6EEC77A35
:1022E800C4ED007AC9E7D4ED006A92ED007AE6EE13
:1022F800C77AC1ED037AD3E71FB50C460246694693
:102308001030FFF755FFDDED007AB6EE007A67EE84
:10231800877AC4ED007ADDED017A67EE877AC4ED3D
:10232800017ADDED027A67EE877AC4ED027A04B0AD
:1023380010BDD1ED007A90ED066AD0ED095AB8EEDD
:10234800E77AD0ED047AE7EE077AB7EE005AC0EDE7
:10235800047AD1ED017AF8EEE76AD0ED057AE7EE76
:10236800267AC0ED057AD1ED027AF8EEE77AA7EE83
:10237800276A80ED066A90ED076A36EE076A80EDF7
:10238800076A90ED086AA7EE266A80ED086A26EECD
:10239800A66A75EE865AA7EE076AC0ED095AD0ED0F
:1023A8000A5AE6EEA75AA7EEA76AC0ED0A5AD0ED78
:1023B8000B5A75EEA65AC0ED0B5AD0ED0C5AE7EE43
:1023C800275AC0ED0C5AD0ED0D5AE6EEA75AC0EDCB
:1023D8000D5AD0ED0E5AE7EEA75AC0ED0E5AD0EDC1
:1023E8000F5A75EEA75AC0ED0F5AD0ED105A75EE78
:1023F800875AC0ED105AD0ED115A75EEA65AC0EDA5
:10240800115AD0ED125A75EEA75AC0ED125AD0EDF6
:10241800135A75EE855AC0ED135AD0ED005AE7EEFF
:10242800065A90ED017AC0ED005AA6EE867A80ED44
:10243800017A90ED027AA7EE867AD0ED037A80EDE4
:10244800027A37EE866A80ED036A704700F1400130
:10245800034600221A615A619A61DA6110338B428D
:1024680040F8042BF6D1704780EAE073A3EBE073E1
:102478008B4206DB002801DD401A704702D0084471
:1024880070470020704748F6A043984203DDA0F546
:102498000C40A03870470028B8BFC018704744F2F5
:1024A8005063984203DDA0F50C40A0387047034BF9
:1024B8009842BCBF00F50C40A0307047B0B9FFFF90
:1024C80008B52DED028BB0EEC08AF0EE408AB7EE6B
:1024D800000A30EE480A32F0B9FF9FED0E7ADFEDC0
:1024E8000E7AE8EE077A9FED0D7AA8EE277ADFEDEF
:1024F8000C7AE8EE077AF5EEC08ABDEC028BF1EEB5
:1025080010FA27EE800A44BFDFED067A37EEC00ADC
:1025180008BD00BF306E99BC2716983D843459BE5B
:10252800A40DC93FDB0F4940F0EEE06AB0EEC07A77
:10253800F4EEC76AF1EE10FAD4BFB0EE476AB0EE17
:10254800666AB5EE406AF1EE10FA48D0F4EEC76A52
:10255800F1EE10FA54BFF0EE475AF0EE665AC5EEA7
:10256800867A9FED206ADFED205A9FED205AE7EE2C
:10257800865A9FED1F6AA7EEA56ADFED1E5AE7EEA1
:10258800865A9FED1D6AA7EEA56ADFED1C5AA7EED5
:10259800A55AF7EE005AE7EE855AB1EE466AC6EE3E
:1025A800257AF4EEC76AF1EE10FA48BF9FED147A67
:1025B800F5EEC00A48BF77EE677AF1EE10FA48BF29
:1025C8009FED107AB5EEC00A48BF77EE677AF1EE54
:1025D80010FA48BFF1EE677AB0EE670A7047DFED90
:1025E8000A7ABEE739094E3DE3B59EBE69A2163E9A
:1025F80088FA16BE45FE7FBFA7DFA8B499FB243F23
:10260800DB0FC93FDB0F494000000000FDEEC07A38
:1026180017EE903A2033402B43D8DFED237A9FED15
:10262800237AB4EEE70AF1EE10FA28DCDFED207A1F
:102638009FED1E7AB4EEE70AF1EE10FA22D4DFED30
:102648001D7AB4EEE70AF1EE10FA1EDD30EE670AE5
:1026580037EEC00A60EE007ADFED176A9FED177A51
:10266800A7EEA67ADFED166AE7EE876A9FED157A80
:10267800A7EEA67A20EE276AA6EE070A704730EE84
:10268800470ACEE730EE070AD4E79FED0F7AB4EE9B
:10269800C70AF1EE10FA44BF30EE270A37EE400AB7
:1026A800D8E79FED0A0A7047DB0F4940DB0FC940A6
:1026B800DB0F49C0DB0FC93F9A7C2E36FAAF4FB902
:1026C8003587083CA4AA2ABEDB0FC9BF000000005A
:1026D800DFED027A30EE270A98E700BFDB0FC93F2B
:1026E80091ED005A08B5B0EE450AFFF7F1FFF0EE9C
:1026F800405AB0EE450AFFF789FFD1ED014AB0EE26
:10270800405AB0EE640AFFF7E3FFB0EE404AB0EE7D
:10271800640AFFF77BFF91ED023AF0EE403AB0EE23
:10272800430AFFF7D5FFF0EE404AB0EE430AFFF741
:102738006DFF25EEA46A65EE806A65EE247A64EE84
:10274800244A25EE007AC0ED004AF0EE664AE3EE30
:10275800A74AB0EE463AC0ED034AF1EE634AA4EE4A
:10276800873AE3EEA67AA4EE867A24EE400A25EEAE
:10277800445A65EE845A80ED010AC0ED023A80EDB4
:10278800043A80ED055A80ED067AC0ED077AC0ED6F
:10279800085A08BD38B5334CB4FBF2F4A142F0EE48
:1027A800404A1D46F7EE005A4FF0000453D207EE98
:1027B800901A9FED2D7ADFED2D6AF8EE677A67EEB5
:1027C800877A07EE102AB8EE477A27EE267AC5EE02
:1027D800876A87EEA63AB0EE430AFFF717FFF0EED6
:1027E800402AB0EE430AFFF773FF74EEA44AF8EEEE
:1027F800006A82EEA47AF5B1012D25D077EE257A0C
:1028080020EE260A85EE276A75EEC75A80ED006A23
:1028180084EE276AC0EE276A80ED016A85EEA77A02
:1028280083EEA76AC0ED036A80ED026A80ED047A40
:102838008461446138BD35EEC04AB6EE005A24EED4
:10284800055AF0EE453AD9E720EE264AF0EE653A09
:10285800B0EE655AD2E7C0ED005A44608460C460A7
:102868000461E5E720A10700DB0FC940BD378635C5
:1028780000239FED010A8DE7F304353F30B507EEDD
:10288800902A2DED028BB8EE670A07EE903AF8EE23
:10289800677A83B080EE270A0D460446019232F02B
:1028A80037FA30EE008AB0EE000AF0EE480A32F04D
:1028B80039FC32F0CBFDF0EE480AF0EE408AB0EE7B
:1028C800000A32F02FFCF7EE007A30EE670A019921
:1028D80088EE800A01232A46204603B0BDEC028B0D
:1028E800BDE8304056E7D0ED017AF5EE407AF1EEDA
:1028F80010FA09D1DFED0E7A60EEA70AB7EE007A7A
:10290800C7EE207AC0ED017A90ED017AD0ED007A19
:1029180080ED021A31EE077A30EE670AC1EE076AD7
:10292800E6EE807AB0EE670AC0ED007A704700BF25
:10293800DB0FC94090ED017AD0ED007AC0ED020AB4
:1029480030EE877A30EE670AC0EE876AE6EE807A64
:10295800B0EE670AC0ED007A70474840082310F0CF
:10296800800F4FEA400018BF80F0D500013BC0B28D
:10297800F5D1704710B50A440C46944200D110BDF9
:1029880014F8011BFFF7E9FFF7E74A09012301F0F3
:102998001F0103FA01F150F822300B4340F82230AE
:1029A80070470EB4244B70B51B68002BA5B00646C3
:1029B80030DA224B224C19684FF47A7304A8B1FB21
:1029C800F3F203FB12131F49FFF744FB04AB034464
:1029D8000393299A1C492AAB054603A80293FFF7DB
:1029E80032FA039B591C03910A211970039B591C45
:1029F8000391002119700246206880B103681B6AA0
:102A080003B1984704A92068FEF7AEF916B120680B
:102A180017F02AFA25B0BDE8704003B070470B4B99
:102A28001B68002BF6D002212A4400910A44FD209D
:102A380004A915F0F7F8EDE748840020E8620020C3
:102A4800E4370020B7D303087B040008E8330020EC
:102A580038B5144B1C68033004EB9002B2F5007FC4
:102A680014D8114D1A6005EB8404104D55F8213027
:102A780020F003001844920045F82100C2F50062D6
:102A88000B490020FFF78DFF204638BD094900207B
:102A9800FFF787FF084A136843F0007313600024A8
:102AA800F2E700BF802C0020501B0020842C00205F
:102AB800C3D30308E6D30308C082002010B54CB284
:102AC800002C01F07F034FF02802B5BF02FB030181
:102AD80002FB010101F58E7101F55D710122DBB286
:102AE8008A70002C4FEAD4720B704A7000EB830096
:102AF8000ADA82691368002B01DA43F0804343F451
:102B080000131360002010BD426D1368F7E782B010
:102B1800002301930C4A036819690191013A10D006
:102B280001990029F8DA019A42F001020192019A0A
:102B38001A61054A19690191013A02D00199C90738
:102B4800F8D4002002B07047410D0300084A18234A
:102B580063F30602436D1A61C278012A06D100F2B6
:102B6800CC5058611A684FF080221A60704700BF35
:102B78000000086010B5042380F8113100230446D2
:102B88001A461946FDF708FE2046FFF7DFFF00202A
:102B980010BD10B5044671BB90F81131032B1BD141
:102BA800D0F89023D0F87C339A4217D9C1780129FC
:102BB80008BFD0F88013A2EB030204BFC918C0F8FD
:102BC8008013934228BF1346C0F890239BB2D0F8D5
:102BD80080230021FDF79EFE002010BDD0F8E435CB
:102BE8001B6923B190F81221032A00D19847204687
:102BF800FFF7C0FFF0E7D0F8E4359B69002BEBD076
:102C080090F81221032AE7D19847E5E7F0B590F844
:102C1800CF1590F8D12590F8CE3590F8D05590F88A
:102C2800CC6590F8CD7503EB012305EB022590F8F0
:102C3800D31590F8D22502EB0122012185B080F846
:102C4800111106F01F0192B29BB2ADB201290446E0
:102C58008DF808608DF80970ADF80A30ADF80C50A1
:102C6800ADF80E20C0F8402100F00E8105D30229EE
:102C780000F01E8106F0800187E1092F64D8DFE8A3
:102C880017F0BA00F8006300CC0063005B000A008C
:102C98006300AD007A00ADF806201A0A013A062A48
:102CA80052D8DFE802F0040C295151515100D0F8F4
:102CB800EC351B68A0780DF1060198470AE0D0F8BA
:102CC800E43580789B6A0DF106019847022343702A
:102CD800C4F8F005BDF80620002A47D0BDF80E302C
:102CE800002B43D09A4228BF1A46ADF80620014669
:102CF8002046FDF7FFFD39E0DBB2052B24D8DFE8DD
:102D080003F003070B0F1317D0F8EC355B68D1E716
:102D1800D0F8EC359B68CDE7D0F8EC35DB68C9E72F
:102D2800D0F8EC351B69C5E7D0F8EC355B69C1E72D
:102D3800D0F8EC359B69BDE735B92AB990F812117E
:102D4800032903F07F0503D120462CF03DF90DE05F
:102D580063F30A12036980F8145119680A431A6068
:102D6800FFF708FF2DB1022384F81231002005B0C7
:102D7800F0BD0123F8E7D9B2894D012985F840193A
:102D8800E2D890F81231022B0FD0032BDCD1C1B955
:102D9800022380F81231D0F8E43580F810115B680E
:102DA80098472046FFF7E6FEE0E70029F9D0012121
:102DB800032380F8101180F812312046FDF7F2FB4A
:102DC800EFE790F810110129EBD0D0F8E4355B68F3
:102DD800984795F8401984F81011EEE7012AB3D105
:102DE80090F81231022B04D0032BADD100F5887175
:102DF8007EE76C497CE790F81231023B012BA3D89F
:102E0800674B0022C3F84829D0F8182112B10222D2
:102E1800C3F84829022264496AE7012B08D1C4F89B
:102E28001831D4F8E43502A99B6820469847B8E7DA
:102E3800022B9BD115F0FF0F98D103692D0A013D94
:102E48005B680122042D05D8DFE805F004030D0FA7
:102E58001100022262F30613514AC2F84C390123C9
:102E680084F816319DE70322F4E70422F2E70522ED
:102E7800F0E790F81221023A012A3FF665AF012BDC
:102E88007FF474AF0023CAE790F81231032B7FF464
:102E98005CAFEDB2012D3FF657AFD0F8E43502A98B
:102EA8009B689847BDF80E30002B7FF45FAF78E73A
:102EB80006F06006202EE9B205D1D0F8E43502A963
:102EC8009B68984752E7012F11D041D3032F7FF415
:102ED8004DAF90F81221022A54D0032A7FF435AF5F
:102EE800002B9ED14A069CD0FFF7E8FD99E790F8A1
:102EF8001221022A46D0032A7FF427AF002B7FF441
:102F080035AF11F07F023FF44CAF6DB2002D4FF09A
:102F18002803B5BF03FB020103FB010101F58E7114
:102F280001F55D7100238B700A70EB0F00EB8202D4
:102F38004B70002DB4BF9269526DC978136802397D
:102F48006FF35553012998BF43F08053136068E726
:102F580090F81231022B15D0032B7FF4F6AE15F042
:102F6800800F0F4B4FF0280214D001F07F0102FBB5
:102F7800010191F81E215AB10122C3F850290B49C9
:102F88000222B5E64B063FF4F1AEFFF797FDEDE6FA
:102F98000022F2E702FB010191F87623EBE700BF7C
:102FA800201A0020642300206823002070230020BA
:102FB80038B5044600295BD190F81131022B1ED197
:102FC800D0F83831D0F82421934226D9C178012984
:102FD80008BFD0F82811A3EB020304BF5218C0F8A9
:102FE8002821C0F83831D0F828219BB20021FDF7FC
:102FF800D3FB00231A4619462046FDF78BFC94F8AC
:103008001631012B07D1204A2369D2F84C295A607E
:10301800002384F81631002038BDD0F83C31B3FBCA
:10302800F2F502FB153565B99A420AD8D0F8402165
:10303800934206D22B462A46FDF7AEFBC4F8405110
:10304800D7E7D4F8E435DB682BB194F81221032ACA
:1030580001D120469847052384F8113100231A46E8
:1030680019462046FDF756FC2046FFF76FFDC6E7D8
:10307800D0F8E4355B69002BCDD090F81221032AF3
:10308800C9D19847C7E700BF201A0020104BDA685B
:103098004378D243C2F30222C2F10401C9B28B4081
:1030A8000F2141FA02F28178DBB20A401343094941
:1030B80002781B018818DBB280F80033500901231D
:1030C80002F01F0203FA02F241F82020704700BF05
:1030D80000ED00E000E100E0C27802B1D6E7037835
:1030E80001215A0903F01F0301FA03F320320249B0
:1030F80041F82230704700BF00E100E082B00023B1
:10310800019300930B0F00900193019B21F07F41E5
:1031180053B1009B14330093009B1B68194214BFE2
:103128000120002002B07047009B090C1833F2E719
:10313800838A008B9BB243EA004321F07F4018400A
:10314800431A584258417047036823F0010303604B
:103158000023036043608360C360036121234361EC
:103168002A4B984203D13D2243F8082C7047284B3C
:10317800984204D14FF4746243F8202C7047254BD1
:10318800984204D14FF4741243F8382C7047224BFC
:10319800984204D14FF0746243F8502C70471F4B8B
:1031A800984203D11E4A43F8642C70471D4B98423D
:1031B80003D11D4A43F87C2C70471C4B984203D11D
:1031C8001B4A43F8942C70471A4B984204D14FF08D
:1031D8003D5243F8AC2C17E0174B9842C3D0174B1D
:1031E8009842C7D0164B9842CCD0164B9842D1D0B3
:1031F800154B9842D6D0154B9842DAD0144B9842CA
:10320800DED0144B9842E2D0704700BF10600240F5
:1032180028600240406002405860024070600240EE
:103228003D00002088600240400F0020A06002405E
:1032380000003D20B860024010640240286402404B
:10324800406402405864024070640240886402404E
:10325800A0640240B8640240204A936803F00C035B
:10326800042B10B520D0082B20D01D4B1B4C03601D
:10327800A3681C4AC3F30313134493F84810036864
:10328800CB404360A168C1F38221114491F84810F2
:1032980023FA01F18160A168C1F342310A4492F82E
:1032A8004820D340C36010BD0F4BDFE75468516816
:1032B80052686302C2F3881201F03F014CBF0A4B07
:1032C800074BB3FBF1F35343044A5268C2F301427C
:1032D80001325200B3FBF2F3C8E700BF00380240E6
:1032E8000024F4000000002000127A002DE9F043C9
:1032F8000D6800220126032406FA02FC3CEA0503B5
:103308003DD15700D0F800E004FA07F3DB430EEA9A
:10331800030EC0F800E091F804E0D0F800900EFA2F
:1033280007F80EF1FF3E48EA0908BEF1010FC0F8A0
:10333800008017D8D0F808E003EA0E0383604B79C1
:10334800D0F808E0BB4043EA0E038360436823EAF1
:103358000C0343608B79D0F804E093409BB243EAB6
:103368000E034360C36804FA07FE23EA0E03C36032
:10337800CB79D0F80CE0BB4043EA0E03C3600132BE
:10338800102AB9D1BDE8F083F7B50C4615460646B4
:1033980090B3FDF7A6FD194B18440F2790F8940039
:1033A8002BF05EFE30463368FDF791FD80B200F0E9
:1033B8000702C00803EB80009200016A974021EAE7
:1033C80007010162016A9540B288009204F0030285
:1033D8000D438DF80420C4F3810205628DF80520A1
:1033E8006946C4F300121846C4F341148DF8062048
:1033F8008DF80740FFF77AFF03B0F0BD547103085A
:10340800F8B57B4E142505FB00650446287A2BF099
:1034180027FE2A7A02F01F0152090123032A03FA20
:1034280001F362D0042A65D0022A03D1714A516A95
:103438000B435362142303FB0463651C5879FDF79F
:10344800E3FCEDB2074620B10D2383710B23C37152
:103458000572142303FB0463D879FDF7D5FC18B172
:103468000D238371C3710572142303FB04639879D8
:10347800FDF7CAFC20B10D2383710C23C3710572BB
:10348800142505FB0465AB7A6A7A002B37D04A21EC
:103498003846FFF779FFE879FDF7B6FC6A7A2A2102
:1034A800FFF772FFA879FDF7AFFC6A7A142505FBD0
:1034B80004650A21FFF768FF287928B1FDF7A4FC05
:1034C8006A7A0921FFF760FF142363434A4AF358D5
:1034D80093421ED102F58432516A41F480515162FF
:1034E800516A21F48051516220E0424A116A0B432B
:1034F80013629FE73F4A11690B4313619AE70A2158
:103508003846FFF741FFE879FDF77EFC6A7A0A2121
:10351800C6E73A4A934232D102F50032116A41F4C1
:1035280080411162116A21F480411162142202FB68
:103538000462927A002A56D101220220198801F4E5
:10354800415141F445710A4302431A809A8B22F48F
:1035580000621204120C9A8307221A821A8892B205
:1035680042F040021A80142303FB046420790028E7
:103578003CD0FDF749FCBDE8F840FDF770BC204A97
:10358800934209D102F5FE32116A41F400411162F9
:10359800116A21F40041C8E71A4A934209D102F599
:1035A8008232516A41F400515162516A21F400514A
:1035B80099E7154A934209D102F56842516A41F4E4
:1035C80080115162516A21F480118CE70F4A9342AD
:1035D800ACD102F56442516A41F400115162516A5A
:1035E80021F400117FE700221046A7E7F8BD00BFCD
:1035F80078190020003802400030014000380040AF
:10360800003C00400034014000500140005401409B
:1036180037B50C460546E8B1FDF763FC0E4B184478
:1036280090F894002BF01CFDAB88009304F0030382
:103638008DF80430C4F381038DF805306946C4F36E
:10364800001328688DF80630C4F341148DF807403C
:10365800FFF74CFE03B030BD547103082DE9F74F56
:10366800374C99469DF83030009394F85439052B1F
:1036780080468B46924608D932490020FFF791F9D7
:103688000025284603B0BDE8F08F06F04EFF064639
:10369800002852D094F8547998F804007A1CD2B2D1
:1036A80007EB470304F6581505EB431584F854292E
:1036B8000192FDF7A9FB034628B104218171019A03
:1036C80002720221C171009A6AB398F80820022197
:1036D8001846FFF759FE602303FB07445A46514634
:1036E8003046C4F858691DF038FF4946D4F85809DF
:1036F8001DF0B0FDD4F8580943681A68B2F8443090
:103708006FEA43436FEA53439BB2A2F844301388ED
:103718009BB243F00103138021F04CFA0023C4F854
:1037280064090360ADE7184611210093FFF770FFA5
:10373800009B1846FDF78EFBCDE70546A1E700BFC5
:10374800201A0020F4D30308F0B52DED028B234B8B
:1037580083B0064600681C680D461746F0EE408A9E
:10376800B0EE608A21F08CF8B4FBF0F0B0FBF5F411
:1037780004F57F44FF34240C0097B0FBF4F40023D5
:10378800B4FBF5F52146AAB23046FFF767FF08B348
:10379800B5EE408A07EE904AF1EE10FAF8EE677A35
:1037A80008BF06EE905A9FED0E7A0ABFF8EE666AD9
:1037B80027EE888A86EE876A4FF00103037218BFE6
:1037C80088EE076A27EE467A80ED056AA7EEA87AA2
:1037D80080ED047A03B0BDEC028BF0BDCC04002070
:1037E80000007A442DE9F04FA34CA44D002687B081
:1037F80007460121402026606660A660FFF728F989
:10380800029603969E4EA0603B7C23B300231421AE
:103818009A4A01FB032210791A2819D129681368DA
:10382800994218D103220192227800926378BDF858
:10383800082001211220FDF7C3FA029B0133082B4F
:10384800029305F11405DFD18B4807B0BDE8F08F6E
:103858000133082BDCD1FA79EB68002A77D17A7921
:103868000AB1980776D4BA79002A76D003F0010A0B
:103878003A680AB1032A72D1BA7C12B1190700F169
:103888008E8113F0040F40F0CD80BAF1000FD4D030
:10389800BAF1010FBDF808B067D1284606F045FE19
:1038A800804600283DD04FF00009FF2386F8989BFA
:1038B800287986F80490C6F80890C6F80C90C6F8DF
:1038C8001090C6F8549086F8583086F8593086F823
:1038D8005A9086F85B9086F85C90FDF795FA28B1C7
:1038E8000323837180F807A080F808902A7AE97981
:1038F800FFF74AFD40462CF00BF86249624BC6F8C8
:10390800A83B624BC6F8A41BC6F8AC3B0C3140463A
:1039180006F0DEFD404601212BF05EFF40462BF00D
:1039280046FFA278A36803EBC20320225A702379CA
:1039380022780092013323710021637801915A465D
:103948001320FDF73DFAA3780133A37075E74FF014
:10395800000A8DE74FF0020A8AE7924688E75A067E
:1039680000F11D8113F0200F8DE79DF80C80454B69
:103978004FF01C0909FB08F94B442846049306F04C
:10398800D4FD8246002839D006EB0903002283F8CB
:103998009A2B83F8A22B012283F8998B83F8982B12
:1039A80028790592FDF730FA08F10103DBB220B15E
:1039B8000221059A8171C27103722A7AE979FFF7A7
:1039C800E3FC50462BF0A4FF1C2303FB0868049B70
:1039D800C8F8A43B2E4BC8F8A83B2E4BC8F8AC3B04
:1039E800284B09F10C011944504606F071FD504668
:1039F80001212BF0F1FE50462BF0D9FEA278A368E6
:103A080003EBC20340225A70E3780133E370039B4F
:103A180001220133039301926378227800925A4677
:103A280000218DE794F801A0BDF80890BAF10B0FBA
:103A380006D9022301932378009353464A46F8E6B1
:103A48003B7EB7F81AB03A79591E072900F29380DD
:103A5800DFE801F00A0E2C0457575757DFED0E0A1E
:103A68005946B0EE600A26E05946DFED0C0AF8E741
:103A78005946DFED0B0AF4E7AC2E0020647B0308FF
:103A8800201A0020B8250020AD0100080D03000809
:103A9800BF0B000889010008000000006F120339FD
:103AA80028293038ACC5A737ACC5A7365FED030A5F
:103AB8001FED030A59462846FFF746FE80460028B0
:103AC80067D0514BC8F80430504B43F82A80BB7B71
:103AD800002B54D0A278A36803EBC20319225A70B2
:103AE800A268A178637802F8313002EBC100013393
:103AF80002224560DBB201922278637000924A4646
:103B08008EE7063BDBB2022B98BF4149009296BF75
:103B180001EB83033F49D3F89C1013220023284666
:103B2800FFF79CFD8046002833D0DFF8FCE03A4BD5
:103B380093FBFBF2DEE90001D317994208BF9042DC
:103B48003CBF1046194608F1180BCEE900011222B5
:103B58005946D8F8000021F043F838B1482200212E
:103B6800584633F072FA012388F808302B4B0122AB
:103B78001A702B4BA6E75946DFED2A0A71E73B7E00
:103B8800A278042BA36803EBC2030CBF0D22092201
:103B9800A5E7022201926378227800924EE794F812
:103BA8000080BDF80890B8F1070F05D903226378A3
:103BB8000192CDF8008041E7BA8A174991FBF2F2E9
:103BC8003979FB8A009192B213492846FFF746FDDE
:103BD8002278A8B106EB8808A168C8F8E800A078A0
:103BE80001EBC0034FF00A0E83F801E001F8302022
:103BF8000132D2B203215D602270637801917DE7C2
:103C0800032163780191C8E7150C00088847002054
:103C180054710308C0C62D0040420F0080470020A1
:103C28003D0300086F12833A5023002008B5FDF7C2
:103C3800EBF848B11D2282710E22C2710022027275
:103C48002021BDE80840E3E408BD10B503681A79EF
:103C5800022A044602D1987AFFF7E8FF002323716D
:103C6800236010BD70B51E46244D254B9D4219D2C8
:103C78006C798C423AD12C79844201D0002835D114
:103C88002C7A944232D12C682C220021204633F021
:103C9800DCF925602B792371EA88A260012B03D017
:103CA800022B0BD0002407E0E87AFDF7ADF860613D
:103CB8006B7A2373AB7A6373204670BDE87AFDF79D
:103CC800A3F860616B7A2373A87AFDF79DF805461F
:103CD800206168B10E23C371002386710372092124
:103CE800FFF796FC2069FDF7BAF8E5E70C35BDE764
:103CF8002046FFF7AAFF2C46DEE700BF6814040839
:103D08001015040800232DE9F7431A462121012044
:103D1800FFF7A8FF234C0546C4F80C0100283FD044
:103D28000526962006F0ABFC0DF107020021284677
:103D3800FDF762FA074660B300221146D4F80C0179
:103D4800FDF7B6FA3C20FDF71FFB012006F097FCB3
:103D580000265FFA86F84FEA8805D4F80C91EDB290
:103D6800A91D002201F0FE014846FDF7A1FAE91D50
:103D78000022C9B24846FDF79BFA013640F2DC51F1
:103D88004046FDF7C7FA102EE3D1384603B0BDE828
:103D9800F083013EC5D1D4F80C01FFF756FFF4E7D4
:103DA8000746F2E7201A002030B500F13C01074B26
:103DB800024603F1140453F8045B42F8045BA3427F
:103DC800F9D114308842F2D130BD00BFFC7103082C
:103DD800A0F2DC50164BB0F5FA7FA8BF4FF4FA708A
:103DE800984210B5B8BF18460C461146FEF73CFB82
:103DF80000B207EE900A9FED0F7AF8EEE77AE4B288
:103E080087EE870AFBEE096AE0EE006A07EE904A41
:103E1800B8EE677ADFED087AE7EE267A67EE807A01
:103E2800B3EE090A87EE800A30F07CFF00B210BDBD
:103E38000CFEFFFF0000C84200401C452DE9F04180
:103E48000D4D0E4FDFF8388000246619605903F0D5
:103E58007FFE716811B1384603F051FEB16811B1A7
:103E6800404603F04CFE103403F0D8FEB4F5147F3E
:103E7800EBD1BDE8F08100BF64BE03082FD403086E
:103E880035D40308012106F07DB8002106F07AB880
:103E98000F4B1B68590702D50E4A1278AAB19A0629
:103EA80003D50D4A92F838207AB10C4A92F8C0002E
:103EB80058B10B4A12880AB19B0707D4094BB3F8CB
:103EC8004800003018BF012070470120704700BF2C
:103ED800BC8400209A49002090860020F8490020E0
:103EE80070430020200500102DE9F043AD4C2568F3
:103EF80015F0040687B005D001202BF0DDF807B0D7
:103F0800BDE8F083FFF7C4FFA74B002800F00F813E
:103F180045F4007525601E70A44B93F82930012BD9
:103F2800236814BF43F4802323F480232360A04B29
:103F38001B7843B928F0DEFF2368002800F00381CE
:103F480043F40023236024F077FE40B128F0FAFF01
:103F58002368002800F0FA8043F400032360954E9C
:103F6800236837683A0754BF43F4807323F4807397
:103F78002360914B1B88632B23684FF008008CBF8C
:103F880043F4806323F48063236028F077FF80463E
:103F9800002840F0E080132028F070FF002840F04F
:103FA800DA80092028F06AFF002840F0D480FB0658
:103FB80040F1CF80032028F061FF002840F0CB803B
:103FC800232028F05BFF054624F036FE90B1B8F1B7
:103FD800000F40F0C280132028F050FF002840F066
:103FE800BC80032028F04AFF002840F0B680232038
:103FF80028F044FF714B5A789946002A00F0B280A5
:104008006F4B704A93F80080B8F1000F03D16E4BE4
:10401800DB79022B07D1137A002B00F0A08087F000
:10402800010707F0010823685F0704D41DB10028C1
:1040380008BF4FF0010892F9F937002B14DDD2F8C8
:104048005C320393D2F86032049303A9D2F8643245
:104058000593012268462BF043FF68462CF0ACFC20
:10406800B9F80E30984202D8B8F1000F7AD0236818
:1040780043F400632360554B1A68100776D53368FC
:10408800D90573D4236843F480539207236071D50C
:1040980033689B056ED4236843F40053236011F002
:1040A800ABFF2368002869D143F400432360484BE1
:1040B800187868B9256825F0784323F07F03002B2A
:1040C8005FD028F0DBFE00285BD045F480452560F2
:1040D800122028F0D3FE236800285AD043F48033F6
:1040E8001720236028F0CAFE2368002854D043F420
:1040F80000331B20236028F0C1FE236800284ED01F
:1041080043F0807323602368324A23F0784323F016
:104118007F0303B10223137006F056FA2E4B1B6877
:10412800C01A0028FFF6EBAE29F0FCFBE7E61A7888
:1041380025F400752560002A7FF4EEAE0120187082
:1041480015F09AFFE8E623F40023FBE623F40003C6
:1041580004E7454638E7012536E701204AE74FF0EE
:10416800010860E7236823F4006383E7236823F4E6
:1041780080538AE7236823F400538FE723F400432E
:1041880094E7002028F07AFE0028A1D125F4804584
:104198009DE723F48033A3E723F40033A9E723F052
:1041A8008073AFE7C082002008290020C482002065
:1041B800502E0020EC620020D0010010F862002090
:1041C800719F0020E4AD0020A8880020BC84002056
:1041D8006D01002067A0002068A00020084A03465F
:1041E8005078C01A18BF0120032B28BF0023537032
:1041F800044AC3EBC30302EB8303034A136070470B
:10420800703D00208C4400203C3D002070B50B4ED2
:1042180035782D1A18BF01250328044634BF0446F3
:1042280000242046FDF7AEF9054B347004EB8404F6
:1042380003EB8404034B28461C6070BD703D0020CE
:104248000A290020BC8800202DE9F04F8DB013F01A
:1042580057FBDFF8B881684BA3EB08034FF003095D
:104268000193182200210DEB020032F0EEFE019BB3
:104278000793624BCDF818801A69002ABFBF604ABD
:104288005A6002F188325A600CAC0125F3228DF88D
:104298002C50DA607E2304F8243D2A46214606A8DD
:1042A800FDF776FA21462A460020FDF78CFA554C90
:1042B800ADF80E004FF0000B534B9C423DD3022249
:1042C80004A9002406A8ADF81040FDF761FABDF86E
:1042D8000E00022204A9FDF776FA0CA9022221F8A1
:1042E800220D06A8FDF754FA099878B108ABC0F179
:1042F80004022146184432F0A8FE0A9818B9089911
:1043080006A8FDF7A7F900230A9009939DF82C3019
:104318000A9A23B139490B6943F000430B61B9F19B
:1043280001095FD0002A9CD198F800307E2B5BD120
:10433800FDF754FA00285AD156E062888DF815B076
:10434800C2F30B06B31DADF810302388C3F30B017D
:104358001B0B8DF814301304ADF812101BD4062271
:1043680004A906A8FDF714FABDF80E00062204A950
:10437800FDF729FA3246ADF80E00616806A8FDF788
:1043880007FABDF80E0061683246FDF71CFAADF871
:104398000E00143490E700273D460135EDB20622A1
:1043A80004A906A88DF81550FDF7F2F9BDF80E001E
:1043B800062204A9FDF707FA6368ADF80E0003EBBF
:1043C800070A3246514606A8FDF7E2F9BDF80E0085
:1043D80032465146FDF7F7F9032DADF80E00374484
:1043E800DBD1D6E7002A9FD0052006F099F913F013
:1043F8006BFA0DB0BDE8F08F00001008003C0240D9
:1044080023016745500E0408E811040800000E084F
:104418002B4A1368590770B550D52A4D2A4923F0FD
:10442800040313602B6808701A0315D5274C2278EB
:104438000B2A0BD80123934040F6030119400BD1F6
:1044480013F4C06F02D0FF2025F0A4FB204B1A689C
:10445800204B5A600B2323701F4C237B4BB31C4B00
:104468001E4E1B68326C9B1A4FF47A72B3FBF2F340
:10447800092B1ED92268134423602BF0BBFF736CF1
:10448800C01A6423B0FBF3F0636818442B686060BB
:104498009B070CD511F008FF48B1114BB26C1B6893
:1044A8009B1AA2681A44A260F26C1344F364FFF7E3
:1044B800CBFE0520BDE8704015F0DEBD70BD00BF25
:1044C800C0820020488400202398002022980020E1
:1044D800E8620020909C00202CBA002008290020C7
:1044E8004C8600202DE9F04F2DED048B83B013F09E
:1044F80007FA6A4C6A4B9C42C0F08480694C207869
:10450800FFF784FE6078FFF769FE674B5A8999893F
:10451800914228BF0022198A28BF5A81DA8991421C
:1045280024BF0022DA81614A01921368998FD88FDB
:10453800884224BF00229A875D4B5E481A7C597CCA
:10454800914224BF00221A74FDF774F85A4B1B7865
:10455800012B02D14020FDF76DF8584E00252C465E
:10456800B046FF2748F2BC39AA59530803F07733FD
:10457800900800F03330D31A1B1AD00800F011301D
:104588001B1A03EB131312F0010103F00F33B3FBF3
:10459800F7F0C0EB002018BF0134A3EB000318BFED
:1045A800E4B2012B0AD9022B0ED111B112EA090F7C
:1045B80004D108EB050021F0EBFB28B10C35482DA0
:1045C800D2D1013C022C06D90D20FDF721F810B1FB
:1045D8003A49FCF7EFFF3A4A3A4C938B518B643BCC
:1045E8008B42A8BF0B465383237A013B072B6FD816
:1045F800DFE813F08A0191019D01A401B001B70120
:10460800BE01C501B4F90230002BA7BF4FF0000965
:10461800C8464FF001084FF0030946464E4501D9F8
:10462800143467E7284FA6EB080A3D88002D00F0F0
:10463800B881264B7919994280F0B381052D40F253
:10464800B08122887888C2F30B02904224D17A790B
:1046580002F0030296421FD15146204697F804B053
:10466800FCF7CAFF2188BBEB113F12D1B4F802E076
:104678006068CEF30B01AA1F8A42A8BF0A461EF43F
:10468800004F1CBF5FFA8AF301FB0300B91D2FF02E
:104698004BFF0136F6B2C1E70F46C6E7500E0408D5
:1046A800E8110408703D0020989C002054880020E0
:1046B800AC9C00200063040650A900205CAA0020DE
:1046C800F8620020504B002001000E08000010087E
:1046D800E388B3F5F57FA8BF4FF4F573E38000BF17
:1046E800002028F004FAB14B1A68002800F04E8127
:1046F80022F080621A60AE4B2788196865880E78A8
:10470800ED1B642205FB06F393FBF2F3A94A3B4435
:10471800138091F80190B2B202EB820EC6F1640CDC
:1047280052424FEA4E0EC9F1640B92B200245FFA6E
:104738008CFC4FF00A0A4FF47A7813B2002B40F33E
:104748002881604603FB03F109FB01F110FB00F02F
:1047580091FBF0F05844434393FBFAF373441BB2C4
:1047680095496B4393FBF8F33B4421F8143001342B
:104778000A320B2C92B2E0D1904C914D11F0F8FD19
:10478800302200218F4832F060FC28F03BFB217971
:104798008D4B6422C82012FB010199606179A3F84E
:1047A800308012FB0102DA60012100221A615A618D
:1047B8009A61DA611A625A6283F8282083F82920FC
:1047C8005A859A85DA859971804BB3F90420002AB5
:1047D80040F0E380B3F90620002A40F0DE80B3F908
:1047E8000820002A40F0D980B3F90A20B2F5805F8A
:1047F80040F0D380B3F90C20B2F5805F40F0CD8053
:10480800B3F90E30B3F5805F40F0C7802B6823F40E
:1048180000732B6012F018FE6D4ADFED6E7AB2F865
:1048280066106D4B6D4CDFF8C48107EE101AB8EEB8
:10483800C77AB2F86810C7EE276A04F5EA77052642
:1048480007EE101AB8EEC77AC3ED006AC7EE276AFA
:10485800B2F86A1007EE101AB8EEC77AC3ED016A0B
:10486800C7EE276AB2F86C1092F86E201A7407EE39
:10487800101AB8EEC77AC3ED026AC7EE276AC3ED0D
:10488800036A2677C4F81880667764612046142284
:1048980000219C3432F0D9FBA742F2D12B68DB0609
:1048A80001D515F0ABFD019BDFED4D8A1C68B4F90D
:1048B800503007EE903AF8EEE77AB2EE049A87EEB7
:1048C800890A20EE280AFDF703FFB4F9523007EEF3
:1048D800903AF8EEE77AB0EE408A87EE890A20EE41
:1048E800280AFDF7F5FE3F4B28EE000A002283ED6B
:1048F800000A3D4B1A7024F0D5F903B0BDEC048BC7
:10490800BDE8F04F12F0E0BFE38840F63C729342F6
:10491800A8BF1346E2E6E388B3F5FA5FA8BF4FF4F1
:10492800FA53B3F5FA6FB8BF4FF4FA63D6E6E388E3
:10493800B3F57A5FA8BF4FF47A53F2E7E388B3F58B
:10494800FA4FA8BF4FF4FA43B3F5FA7FB8BF4FF454
:10495800FA73C3E6E388B3F57A6FA8BF4FF47A63B6
:10496800BCE6E388B3F5FA5FA8BF4FF4FA53B5E69F
:10497800E388B3F57A5FA8BF4FF47A53AEE6E388CD
:10498800B3F5FA4FA8BF4FF4FA43A7E642F08062A6
:10499800B0E60CBF01203046D4E62B6843F4007320
:1049A80037E751462046FCF727FE72E6C082002012
:1049B800BC88002070B9002058290020A888002051
:1049C800EC620020749F0020C4820020AC9C002070
:1049D8000829002000401C4624060010600300102F
:1049E80035FA8E3C6C050010340300101072030871
:1049F80010B50446FFF7F2FB18B1FFF725FCFFF7E7
:104A080071FD601CC0B2BDE8104015F017BC10B5B0
:104A18000446FFF7FBFB18B1FFF716FCFFF762FD32
:104A2800601CC0B2BDE8104015F008BC08B5FFF71F
:104A38000BFCFFF757FD0120BDE8084015F0FEBB51
:104A480038B5174C174DAC4216D30020FCF79AFD29
:104A5800154812F01DFF4FF40020FCF7F3FD4FF44A
:104A68008000FCF7EFFD00BF104B1878FFF7CEFB76
:104A7800BDE838401CF0B2B8B4F90230002B4FF052
:104A88000001204603DBFCF7B7FD1434DBE7FCF735
:104A9800B3FD01212046FCF7AFFD02212046F2E7D5
:104AA800500E0408E81104083BD40308703D0020A8
:104AB8002DE9F04F2DED0C8BADB0CDE90401C549C2
:104AC8009FEDC59A0B68C54A9D6AC54B079207EECC
:104AD800905A1D60C34B0693F8EEE77A186867EEA4
:104AE800897A10F0040FC2ED007A894614D0BE4BC3
:104AF8001B68D90608D524F09FF828B1BB4B1A7C4F
:104B080012B993F820303BB1B949D1E900235619BD
:104B180043EBE577C1E90067B64FB74CFB78002B4C
:104B280040F00A84A368B4489847002840F01D84E0
:104B3800B24BB34D1B6813F0020F00F03E81AB6817
:104B480028469847002800F03581AE4BAE4AAF4C56
:104B5800187817460023E9181228B1F90E1008BF73
:104B680044F8131042F813100233062BF3D1A84E61
:104B7800B6F80080B146B8F1000F00F09D8518AC7A
:104B88006A7DA149204611F097FA1A99189A81EA84
:104B9800E173A3EBE17307EE903AF8EEE77AF7EEEC
:104BA800086AC7EEA65A82EAE273A3EBE27307EE3D
:104BB800103AB8EEC77A199BF4EEC75AF1EE10FA1C
:104BC80040F3308583EAE370A0EBE37006EE100A49
:104BD800B8EEC66AF4EEC65AF1EE10FA40F3228532
:104BE8000029D4BF0121002100F34A85DFF83CC227
:104BF8001CF801305BBB874F87480C2303FB01730C
:104C0800C2681E6F06EB020806695A6F4069C3F84E
:104C1800708032449E6F5A673044B9F800609867D4
:104C2800012E14D10CF801604FF4C87690FBF6F011
:104C380098FBF6F19867196792FBF6F25A67D7F86E
:104C4800B83002200133C7F8B83015F0F7FA714FC1
:104C5800D7F8B830062B40F0A9802046FDF7F6FBC0
:104C680000267037B91920460C36FDF762FB482E2E
:104C7800F8D111A92046FDF73FFB11AEDFF89C9152
:104C8800B346B0460027B8EC010A30F04BF807EB02
:104C980009030237062F9880F5D12046FDF7D6FB89
:104CA8005E4F5F4ADFF858E10020A44614A9B7EE2A
:104CB800007AB7F904801368BEF80C60A3EB080308
:104CC8001493B7F906805368A3EB08031593B7F953
:104CD8000880936806EE106AA3EB08031693431046
:104CE80003F10108B8EEC66A0CEB08180DF1A00A2A
:104CF8004FF0000951F8296007EE906AF8EEE76A6C
:104D080009F10109C6EE867AB9F1030FD8ED006AF8
:104D1800E7EEA76AE8EC016ADAED006AE7EEA76A4F
:104D2800EAEC016AE6D12CAE06EB031858ED0D7AD1
:104D380077EE877A06EB830348ED0D7A53ED147A04
:104D480077EE877A013043ED147ADDED1B7A77EE42
:104D5800877A0628CDED1B7A02F10C02A9D12246EA
:104D68001CA8FDF725FA9DED140A9FED2E8A2B4FFE
:104D780030F06CFB8DED110A9DED150A30F066FBE5
:104D88008DED120A9DED160A30F060FB00248DEDC2
:104D9800130ABBEC010A20EE080A2FF0C3FFE3193F
:104DA8000234062C5881F4D1FFF740FE184A1388C4
:104DB800013B13801C4B01221A70DDE90423154CBA
:104DC800D4E93067C4E930230C4B1B689A0740F1DB
:104DD8002B852DE084050010BD378635D04700208F
:104DE800282D0020C0820020EC620020808800204E
:104DF80000380020989C00202C2D0020BC84002026
:104E0800900500107C8300200C0000108083002097
:104E1800704300200829002000000010AC9C0020EE
:104E28007829002000008045C4010010724300204A
:104E3800D24B1B78002B00F0F784D14A9FEDD17A32
:104E4800D2ED017AD04B95ED0A0A67EE877AC3ED69
:104E5800007AD2ED027A67EE877AC3ED017AD2ED55
:104E6800037A67EE877A9FEDC97AC3ED027AD5EDAA
:104E7800077AC74B67EE877AC3ED007AD5ED087AD3
:104E880067EE877AC3ED017AD5ED097A67EE877AFE
:104E9800C3ED027A30F0DAFAF0EE408A95ED0B0AAB
:104EA80030F0D4FAB0EE408A95ED0C0A30F0CEFA24
:104EB800B84B1B780E2B16D1DFEDB77AB74B6A6B60
:104EC800DA6068EEA78A28EE278A20EE270AFDEE28
:104ED800E88ABDEEC88ABDEEC00AC3ED008A83ED3C
:104EE800018A83ED020ADDE90401801B61EB0701F9
:104EF8002EF0B8FE07EE900A27EE890A27F099F9F6
:104F0800A74B04935A79002A00F01085A54BA64DAB
:104F18001B6813F0100340F08E84ADF86030ADF8D4
:104F28006230ADF864302B88ADF86630EB799F4A73
:104F38009F4E12889F4D03EB430359009E4B1B68FD
:104F480013F4805F40F2DC5318BF1A46002312B2F4
:104F58001F460DF1600E581830448078012800F083
:104F6800B384C0F0A984022800F0B5840133042B6F
:104F7800F1D1924DFEF7B8FF95F820700895904D45
:104F8800002F40F0A3852B780BB124F083F894F818
:104F9800501100232B708B4D002939D18A4B9FED7E
:104FA8008B7AD3ED0E7A85F8C0100022002377EEB5
:104FB800877AC5E90223C5E90E23C5E9162300232C
:104FC800834AC5F8F830C5F8FC30C5F80031C5F893
:104FD8000431C5F8B430C5F8D030C5F8DC30C5F8B0
:104FE800B830C5F8D430C5F8E030C5F8BC30C5F8DD
:104FF800D830C5F8E4302B64AB642B66AB6601236C
:10500800C5ED3A7AC5ED3B7A6A646A6684F8503130
:1050180005F0DAFA06460F4615F0A0FE002840F023
:10502800C9850023C5F8A830C5F8AC30C5F8B0303C
:10503800684B85F8C0001B68C4F8543130463946BF
:1050480017F0CBFD17F048FA634BDFF8A081B3F9EE
:10505800042002EB82025200002842F04C8107EE45
:10506800902ADFED4D9A9FED47BAC8F8B421F8EEC3
:10507800E77A88F80B0087EEA98A584DDFF844A133
:105088004FF0010928EE0B8AB0EE480AFDF7BEFA88
:1050980088ED6E0AB0EE480AFDF71AFBD5E9002341
:1050A800B6EB020B67EB030C002144F61F60614569
:1050B80008BF584588ED6F0A88F8049080F0C480CE
:1050C800C5E90067404E9AED3A7AD6ED0E7A444F1C
:1050D800B4EEE77AF1EE10FAC5E902BC414D40F1B1
:1050E800EB859AED388ADAED378A9AED34AA9AED8B
:1050F800359A88ED61AA28EE080A88ED629AA8EE2A
:10510800A80A88ED67AA88ED689AC8ED648A88EDD0
:10511800658AC8ED6A8A88ED6B8A30F097F90223B0
:1051280088F8083088F809302A4B2F4A1B68C8F8D5
:10513800E431FDEEE87A47F6FF7117EE903A8B42BC
:10514800A8BF0B469342FDEEC87AB8BF13463B8012
:1051580017EE903A8B42BDEECAAABDEEC99AA8BF17
:105168000B46934288ED710A88F8029085ED00AAF3
:1051780085ED019AB8BF13463AE000BFC40100109C
:10518800E005001035FA8E3CC80500108F2A7544DA
:10519800D40500107C8300200000C84280830020D2
:1051A800C4820020EC620020A8880020504B002018
:1051B800CCC00308D04800204884002050A9002013
:1051C80048880020F8490020A44900206F12833A3B
:1051D80083F9223EE862002088050010602A00203A
:1051E80098B900208CB900205A80FFFFE4AD002058
:1051F8009AED3B7AD6ED0E7A7B80B4EEE77AF1EE43
:1052080010FA40F182859AF8F030DAED3F1A9AEDFB
:105218003E1ADAED390A9AED360A002B14BF02213C
:10522800012101202BF0DEFDDAED3A7ABB4AFCEED3
:10523800E77A17EE903ADAED3B7A1380FCEEE77ADC
:10524800B74A17EE903A138005F0BEF9B54EB64A44
:105258000D4600211180F1790229074604BF01207B
:105268001080B07A022802BF108840F00200108037
:10527800307A022802BF108840F0040010809AF8A3
:10528800100018B1108840F010001080F07A022841
:1052980002BF108840F020001080A44A106820F057
:1052A80080031360069B1A6812F0040240F03985E7
:1052B800B2749F4BDFF8D0B21A789E4E7AB1089B31
:1052C800B6F906101A8B914209DC9B4A1279032A17
:1052D80040F08987994A527A002A00F08787934FCD
:1052E800974D3A6812F0100F40F0E2878D4A9549C1
:1052F8001278242000FB0212D289D00502F1238003
:10530800914A5279002A00F0CE87904909688907A6
:1053180000F0C9870FFA82F815F0BEFADFED8C7A33
:10532800B4EEE70AF1EE10FAB7EE007A40F18A8798
:10533800B0EE670A00F08DBFDFF84882264605F018
:1053480043F92369824653B9049BAAEB030AD8F8A8
:105358000030AA4464339A45F1DBFFF7E3BB3046DB
:1053680098470028F0D0FFF7DDBB7A4EB6F84850D2
:10537800002D7CD1B4F92620B4F92030704EDFF826
:105388000CB2DFF80CA2744F9B1A3360B4F92820D2
:10539800B4F922309B1A7360B4F92A20B4F9243086
:1053A80031469B1A304694F83C20B36010F084FED6
:1053B800304610F0ACFED94656F8253007EE903A44
:1053C8009BF80030B8EEE78AD4ED077A012B4FEA54
:1053D800850828EE278A04D1B0EE480A2FF0A2FCEF
:1053E8003860022D08D099F800300B2B04D1B0EEAC
:1053F800480A2FF097FC3860584A594B58F8020071
:105408001B68B0EE480A9847022DB0EE408A06D0D5
:1054180099F800300B2B02D12FF084FCB860514A68
:10542800514B58F802001B68B0EE480A984799F8A3
:105438000030022BB0EE408A02D12FF073FC3860A6
:105448004A4A4B4B58F802001B68B0EE480A984786
:10545800484A494B58F802001B6898470135032D04
:10546800AAEC010A07F10407A6D1FFF761BB7B7814
:10547800424FDFED438A08EE103A07F1060B354636
:10548800B0464FF0000AB8F8482037F9021FB2F5C5
:105498007A7F04BFC6F800A0C5F81CA033680B4487
:1054A8003360EB6907EE901A0133012BF8EEE77AC7
:1054B800EB616FD1C5ED047AC5ED037AC5ED058AB8
:1054C800012AA7F806A040F08A80EB69012BC1BF2A
:1054D80003F1FF3307EE903A95ED067AF8EEE77A96
:1054E800D4BFB0EE680A87EE270A2FF0AFFF18EE98
:1054F800103A002B6BD0F8EEC87AF4EEC07AF1EED1
:1055080010FA64D54FF47A73A8F848301D4B00227E
:105518005A609A60DA60FFF70BBB00BF763F002045
:10552800783F0020E4AD0020743F0020EC620020AA
:105538006D010020883D0020D63D00209E2E0020D1
:1055480000000010C0B90308703D00201049002079
:105558009A99193F200500108083002098000010B8
:1055680040000010F800001034000010580100102E
:1055780038000010B80100103C0000104A2D00202F
:1055880000000000E0050010D04800207C830020C7
:10559800E4050010D5ED035A07EE103A37EEE56A38
:1055A800F8EEC76A86EE267AD5ED056A37EE257AD3
:1055B80077EEC77A85ED047AE6EE276A85ED037AF9
:1055C800F0EE667AC5ED066AC5ED056A78E73368D8
:1055D8004FF47A7203F5FA7393FBF2F3FB80BB4541
:1055E80006F1040605F114057FF44DAFB8F848003C
:1055F800012813D1B4F92A10B4F92830B4F92620B7
:105608000091B649FDF7CDF9D9F800300020002106
:10561800C3E90C01C3E91001C3E90E01B8F8483029
:10562800013B71E7C7EE265A83EAE371A1EBE37108
:1056380006EE101AB8EEC66AF4EEC65AF1EE10FA83
:105648000ADDF4EEE57AF1EE10FA05D5002ACCBFB2
:1056580002210321FFF7CABAC6EE265AB4EEE57A4C
:10566800F1EE10FA7FF5A6ABF4EEE57AF1EE10FA5A
:105678007FF5A0AB002BD4BF05210421FFF7B6BAF4
:105688003388B3F5C87F7FF4B1AA00229448954FB8
:105698001346D3550132062A03604360836000F144
:1056A8000C00F6D1904AC2F8B830904A136823F437
:1056B80000731360FFF79ABA8D4B8E4CDA68B4F911
:1056C80004108D4E511AB4F90A204FF480504A4301
:1056D800196992FBF0F2DA60B4F906208A1AB4F973
:1056E8000C1051435A6991FBF0F11961B4F9081093
:1056F800511AB4F90E204A43394692FBF0F2384663
:105708005A616A7D10F0D8FC384610F000FDAB896C
:1057180007EE903AF8EEE77A3246434657F82310F8
:1057280007EE101AB8EEC77A0133C7EE276A032BC3
:10573800E2EC016AF2D195ED077ADFED707AB0EE0E
:10574800C77AB4EEE77AF1EE10FA11DC95ED087A33
:10575800B0EEC77AB4EEE77AF1EE10FA08DC95ED10
:10576800097AB0EEC77AB4EEE77AF1EE10FA02DD04
:105778006B6B01336B63624A624B6348314692ED4F
:10578800026AD2ED016AF1EC017A92ED007A76EEC6
:10579800266A8842C6EE265A77EEC76A93ED026AF1
:1057A800A5EEA67AD3ED016A76EE266A17EE107A90
:1057B800C6EE265A42F80C7B37EEC77AD3ED007A4C
:1057C800F0EE676AD7EE076AE5EEA67A17EE907AEA
:1057D800C1ED027A43F80C7BD1D16388A3B9237C4D
:1057E800002B3FF4E7AADFF83C81484F002496EDF0
:1057F800000A58F824003B6898470134032CA6ECAB
:10580800010AF4D1FFF7D6BADFF81C91B046002799
:1058180098ED000A09EB0700FAF777FE1C37542FBA
:10582800A8EC010AF4D1DAE7394B0022DA611A62EE
:105838005A62FFF765BB374B1E68B5F90830B6F9F1
:10584800500000EE103AB8EEC00A14F007FEB5F9A1
:105858000A30ADF8600000EE103AB6F95200B8EE22
:10586800C00A14F0FBFD2C4BADF862001B681B7BD3
:1058780007EE903AB5F90C30F8EEE77A06EE903A72
:10588800B2EE047A67EE877AF8EEE66A9FED237A3D
:1058980076EEA76A77EEA77A66EE876A86EEA77A2B
:1058A800DFED1F7A77EE677AF1EE677AFDEEE77A39
:1058B80017EE903AFFF735BB049800EB4300408D94
:1058C80025F81300FFF752BB032B14BF25F81370FC
:1058D800EA80FFF74BBB3EF81300F1E744D4030816
:1058E800782900207243002008290020EC6200205B
:1058F80000000010AC9C0020AC050010CDCCFC4092
:10590800D8010010FC010010B80500107402001046
:105918009005001054880020BC88002000007A44BC
:105928000000FA43CC02001020020010944B954E60
:105938001A68954FDFF87092B7F90000934D9846B2
:10594800336812F4807F14BF597B197A99F80020C4
:10595800FEF73EFAD8F80030288013F4807F3368C9
:1059680099F8002014BF597B197AB7F90200FEF79D
:105978002FFAD8F80030688013F4807F336899F8DC
:10598800012014BF997B597AB7F90400FEF720FA71
:10599800D8F80010404202B2CB05AA8016D530686C
:1059A8002E88C37BB5F802E013FB06F3642693FB4D
:1059B800F6F32B80037C407C13FB0EF310FB02F004
:1059C80093FBF6F390FBF6F06B80A880704BB7F969
:1059D8000620188B824257DBB2F5FA6FA8BF4FF446
:1059E800FA62131A4FF47A72C0F5FA605A43B2FB9E
:1059F800F0F290B2B0F57A7F48D3664B5B88049A90
:105A080012791BB2EB80002A57D04E067FF5B1AA57
:105A1800614BDFED627AB3F904300A2293FBF2F3AB
:105A28005F4A12889B1A1BB208EE103AB8EEC88A71
:105A380028EE278AB0EE480AFCF74AFEF0EE408AC4
:105A4800B0EE480AFCF7E2FDB5F9023007EE103A6D
:105A5800B5F90030B8EEC77A06EE903A67EE407AAC
:105A6800F8EEE66AE8EEA67A20EE260AFDEEE77A78
:105A7800A8EE870A17EE903AFDEEC07A2B8017EE53
:105A8800903A6B80FFF775BA0246AAE76427B0FB25
:105A9800F7F004EB4003B3F950606FF0630343433E
:105AA80004EB400013FA82F2B0F952309B1B5343C7
:105AB80093FBF7F333449BB2A1E704982A88428505
:105AC8006A888285AA88C28503869EE72B78EBB907
