:020000040800F2
:100000000020001015BB020875980208D1A702084D
:1000100073980208719802086F98020800000000A7
:100020000000000000000000000000006D980208C1
:100030006B98020800000000699802086D0700082C
:10004000B1BB0208B1BB0208B1BB0208B1BB0208D8
:10005000B1BB0208B1BB0208710A00087B0A0008A4
:10006000790A0008770A0008750A0008FD5C020892
:10007000ED5C0208DD5C0208CD5C0208B95C020898
:10008000A55C0208915C0208B1BB0208B1BB020882
:100090003D910208B1BB0208B1BB0208730A000817
:1000A0001D3002088530020809300208AD30020810
:1000B000713002085D30020849300208B1BB020805
:1000C000B1BB0208B1BB0208B1BB0208B1BB020858
:1000D000B1BB0208895B0208815B0208B1BB020860
:1000E0006F0A0008B1BB02082D910208B1BB0208DB
:1000F00045300208B1BB020831300208B1BB02082A
:10010000000000000000000000000000B1BB020879
:10011000795B0208715B0208B1BB0208B1BB02083F
:100120007D5C0208695C0208555C0208415C0208BB
:100130002B5C0208B1BB02080000000000000000B8
:10014000B1BB0208B1BB0208B1BB0208000000004D
:10015000000000000000000000000000000000009F
:100160000000000000000000B1BB0208B1BB0208A3
:10017000B1BB020800000000000000000000000009
:0801800000000000B1BB020801
:10018800436A8269D154436A02690133934228BFA2
:100198000023426B4362136843F080031360704787
:1001A8000346026A4169885CD96801328A4228BFDD
:1001B8000022C0B21A627047826A406A131A584213
:1001C80058417047426A836A00699A4238BF1218D8
:1001D800D31A0138C01A7047C269036A9A422FBFFE
:1001E800D01AC0688018C01A704783681A68937A52
:1001F8000133DBB20A2B937205D9507802490023E8
:1002080021F8103093727047C648002070B54F4CE3
:10021800237814200133B3FBF0F200FB1233237070
:100228004B4B5D68186D9A68A94208440CD293F844
:100238005850002D00F0858000F58030824238D378
:10024800C2F5803202440AE08242F9D293F858504B
:10025800002D0CBF00254FF48035821A521B5960BF
:100268006178DA600022013183F8582014229860FE
:1002780091FBF2F002FB10116170A178D86801318E
:1002880091FBF2F502FB1512A27040F68C22904207
:100298003CD9197893F9552091422BD10A1F0C2A81
:1002A80028D893F85620182A06D8013283F8562001
:1002B80004E04FF48035D0E783F8541093F95420C4
:1002C80091420FD193F8570060B1224C224D002083
:1002D800904211DB204800240F2A13DD1F480278C2
:1002E80001320270012283F8572083F8551000224A
:1002F8001A7070BD0022D9E754F8046F25F8106011
:100308000130E5E720F812400132E5E793F857207D
:10031800DAB1A0F2EF2140F2DA52914207D81A7806
:100328000F2A04D8111D013243F82100E0E700220A
:1003380083F85720104699180432402A0861FAD1E8
:1003480070BD8242BFF47CAF87E770BD780A002099
:10035800F824002004250020C6480020C4480020B6
:1003680010B50B48037814240133B3FBF4F204FBF3
:100378001233084A0370136D01330B4413654FF6AB
:10038800FF73994204BF012382F8583010BD00BFA3
:10039800780A0020F82400200120704701207047C7
:1003A80070B5114C05460E4600220023D4E902011F
:1003B8002BF010F820B10AA3D3E90023C4E90223E3
:1003C80030462AF039FDD4E902232AF0C5FE2BF085
:1003D80033F804EB4504208270BD00BFAFF3008002
:1003E800ABAAAAAAAA461040780A00200E4B984247
:1003F8000AD0A3F57843984212D003F58063984257
:1004080010D04FF0FF3070470023084A142101FB39
:1004180003231A8A013292B21A82188A80B270476C
:100428000123F2E70223F0E700300140D009002061
:1004380008B540F2E9330289920707D5017340F203
:10044800E9330289D20709D5007B05E0013B9BB25D
:10045800002BF0D1FFF7CAFFC0B208BD013B9BB229
:10046800002BEED1F6E7A0F13003DAB2092A01D861
:1004780018467047A0F16103052B01D8573870471B
:10048800A0F14103052B94BF37384FF0FF30704778
:10049800F0B50124B0FBF4F58D4203D200271CB956
:1004A8001C70F0BD4C43F5E7B0FBF4F604FB1600F6
:1004B800B4FBF1F41FB9002E01DC002CEFD1092E9A
:1004C80003F1010E08DD002A14BF372557253544EE
:1004D8001D7001377346E2E73025F8E703685A1CB8
:1004E80002601970704703685A1C026019707047DF
:1004F8002DE9F84F002B14BF4FF030094FF02009B9
:100508000A9B141E07468846BABF64424FF0010B87
:100518004FF0000B13F8012B02B1DCB9BBF1000F4F
:100528001ED1254615F1FF3516D223462C460A9DC5
:100538005E1B05EB060A15F8011B99B9BBF1000F04
:1005480005D02546002D10DC002CA8BFA24450463B
:10055800BDE8F88F013CDDE749463846C047E1E78A
:100568000023E4E73846C047E3E749463846C04732
:10057800013DE7E7D0ED006AD0ED057AE6EE807A36
:10058800B0EE407AB0EE670AD0ED037AD0ED016A9A
:1005980067EEC07AE7EE267AD0ED066A77EEA67A9D
:1005A800D0ED026AC0ED057AD0ED047A67EEC07A24
:1005B800E7EE267AC0ED067A70477047704710B5A7
:1005C800224B18B91B6802221A8210BD20491C68E8
:1005D80000200886237813F07F030A4616D1637A31
:1005E800990644BF022182F8301013F0400F92F8A8
:1005F800303014BF43F0010323F0010382F8303098
:10060800144B1B681B699847134810BD012B19D060
:10061800022B19D1637913F0800F03F00F034FEA0F
:10062800830303F1804303F5B8431B6805D003F047
:100638003003102BE4D10123E0E703F44053B3F572
:10064800805FF7E701F1300010BD00BF287300207C
:10065800780A0020A47A0020A80A002010B5064CC9
:1006680018B9236801221A8210BD044B1B689B68C5
:10067800984720680C3010BD28730020A47A002009
:1006880010B5064C18B9236801221A8210BD044B14
:100698001B681B68984720680A3010BD2873002023
:1006A800A47A002038B582681468A27803463AB95B
:1006B8000123A370A1801146BDE8384029F074BB1E
:1006C800A08889B2814238BF5A68E1803DBF12686C
:1006D800D26A121A091A38BF89182181064A617824
:1006E800208922F811000025A5700121184629F05B
:1006F8005BFBA57238BD00BFC6480020094B07EE5A
:10070800901A53F82030B8EEE77A93ED040AD3ED47
:10071800057A10B5A7EE270ADC682BF023FE2060C7
:1007280010BD00BF844600202DE9F0410B4DDFF8D5
:1007380030802C686A69012714400CB9BDE8F08143
:10074800B4FA84F3C3F11F0307FA03F658F8230039
:100758000368984724EA06046E61EEE70004014046
:1007680094240020EFF31183102282F312880849A1
:100778000A6801320A60074A074990680860074911
:10078800002008601268DBB283F31188704700BF4D
:100798004C73002010E000E0BC190020B8190020BC
:1007A800064B1B684BB1DA6830B1054B1988054B0D
:1007B80093FBF1F31360704710607047182700200F
:1007C8003427002020A1070003689B6A03B118475B
:1007D800704703685B6A03B11847704703689B69F1
:1007E800184703685B69184703681B69184703685B
:1007F800DB68184703689B68184703685B681847F5
:1008080003681B6818470368DB692DE9F041054652
:100818000E4617468BB90C463B1B3344002B01DCB4
:10082800BDE8F0812846FFF7E5FF0028FAD014F864
:10083800011B2846FFF7E4FFEEE7BDE8F041184743
:10084800E1E7014B1868DBE7AC3C002038B505460A
:100858000C4614F8011B01B938BD2846FFF7D0FF34
:10086800F7E70B4B1B681B0110B406D5094B1B6837
:100878005B050AD55DF8044B92E5074B53F8203029
:100888001BB107289CBFDB6819605DF8044B7047F3
:10089800605D0020987300203426002010B50446BF
:1008A8000846216011B1194625F0CBF8BDF80810AB
:1008B800206822F017FC206843681A68536C43F4D8
:1008C8000043536413889BB243F00103138022F062
:1008D800F3FB0023E060036010BDF0B5094E3468F7
:1008E8003F2C0DDC0FC8084F4FEA041E0EEB07051E
:1008F80085E80F00054B1B684EF80730013434605B
:10090800F0BD00BF80240020802000204C73002010
:100918001FB5ADF80A30BDF81830ADF8040041F441
:100928008041ADF80C306846BDF81C30ADF80610B3
:10093800ADF80820ADF80E30FFF7CFFF05B05DF831
:1009480004FB1FB5ADF804006846ADF80610FFF7C4
:10095800C4FF05B05DF804FB094B53F8203059B1CA
:1009680003B970471A689B88102103FA01F1916155
:1009780070471A689B88F8E7002BFAD1704700BFC8
:10098800FCEE0208054B53F8202032B19388126818
:10099800918A0B4218BF1B0493617047FCEE020852
:1009A80010B50409013C052C00F00F0215D80C4BBA
:1009B80033F8141041FA02F313F001000ED00120AD
:1009C8009040013808402AF01DFF064B1B5D184473
:1009D800054B0C2202FB003010BD002010BD00BFEB
:1009E800F0EE020874E502085C1D002010B10368EF
:1009F80082881A85704710B1036882889A617047A7
:100A0800F8B5164690F90C2014235343104AD558CC
:100A180083689A0704460F4606D40069FFF7E6FF85
:100A28000120002105F094FB39462846FFF700FD18
:100A380031462846FFF7FCFCA3689B0706D4012033
:100A4800002105F085FB2069FFF7D5FF0120F8BDDF
:100A5800D009002030B1036882881B8A1A4214BF6B
:100A68000120002070475FE65EE65DE65CE65BE637
:100A78005AE659E603689B6A18472DE9F34104468C
:100A8800184616460D461F462AF07CF82368E6727B
:100A980028440022A0720092D3F8148032463B46C4
:100AA80029462046C04702B0BDE8F081036810B56A
:100AB80004465B689847236820469B689847A37B51
:100AC800013BA37310BD036810B504461B68984723
:100AD800236820469B689847A37B0133A37310BD06
:100AE800036810B59B680446984701232373FF23C6
:100AF800637310BDF8B584894FF6FF754FF47A74A7
:100B08000BB90120F8BD82B1167801320789BF07F9
:100B18000DD506734FF47A740689F60711D5067B4E
:100B280009B10E700131013BEAE7FF26EEE7013C0F
:100B3800A4B2AC42EAD1FFF759FC003018BF01203B
:100B4800F8BD013CA4B2AC42E6D1F4E770B5164654
:100B580090F90C20142353430C4AD55883689A07FC
:100B6800044602D40069FFF741FF2846FFF760FCFE
:100B78000123002231462846FFF7BCFFA3689B07E4
:100B880002D42069FFF737FF012070BDD00900208B
:100B9800F8B5164690F90C201F46142353430D4A06
:100BA800D55883689A07044602D40069FFF71EFFE8
:100BB8002846FFF73DFC3B46002231462846FFF712
:100BC80099FFA3689B0702D42069FFF714FF01204F
:100BD800F8BD00BFD0090020F8B51F4690F90C30C9
:100BE8000446142058430C4B1D58A36816469A0710
:100BF80003D42069FFF7FAFE00BF3B463246284679
:100C0800FFF778FFA3689B0703D400BF2069FFF7AD
:100C1800F2FE0120F8BD00BFD0090020F8B5067922
:100C2800012E0546964609D0022E1FD18368DB07A0
:100C380058BF41F08001BDE8F84087E70C4B90F9B8
:100C48000C00182404FB003463786BB16B7BA17231
:100C58005B0023720023637223750223A370E6608E
:100C6800226125F0F1F8237D1846F8BD0023FBE743
:100C7800B47200202DE9F0410479012C05468E4616
:100C88001F4609D0022C20D18468E40758BF41F0E0
:100C98008001BDE8F0417BE70D4B90F90C0018246A
:100CA80004FB003463786BB16B7BA1725B00237229
:100CB8000023637223750223A370E760226125F085
:100CC800C3F8237D1846BDE8F0810023FAE700BF8A
:100CD800B472002073B50379012B0D4616460AD06D
:100CE800022B25D18368DB0758BF01F07F01FFF78E
:100CF80087FE02B070BD90F90C10427B0D488DF84C
:100D08000760182404FB010460780028F1D063729E
:100D1800E3600DF1070323610023520023750223CA
:100D280008462272A572A37025F08EF8207DE0E7B0
:100D38000020DEE7B47200200A4B70B50E465D6BEA
:100D4800811C89000446F2B201F0FC012846FFF735
:100D5800C1FFA1000931320A2846C9B2BDE8704076
:100D6800B8E700BF780A00202DE9F0410E4E804612
:100D7800002406F12807E0B200F0030343450ED132
:100D880036F8145037F81430EB1A002BB8BF5B4212
:100D9800052B04DD2946FFF7CFFF27F8145001344F
:100DA800102CE8D1BDE8F081880A002038B50E4D36
:100DB8001022002141F2D774B4FBF0F4686BFFF7FE
:100DC80089FF012005F0D5F9621ED2B2FE21686BB9
:100DD800FFF780FF012005F0CCF9686B8022002125
:100DE800BDE8384076E700BF780A002073B502797D
:100DF800022A22D103238DF8033090F90C001F4CEE
:100E08008DF8022004238DF804301423434302A8EC
:100E18000844E3581A49002601258DF800608DF82A
:100E280001508B4210F8080C09D0A1F578418B428B
:100E38001FD001F580618B421DD002B070BD3146D4
:100E48001A8822F040021204120C14251A8005FB9D
:100E580001411A88C96822F0380231F810101204CA
:100E6800120C0A431A801A8892B242F040021A8081
:100E7800E3E72946E4E71146E2E700BFD00900208E
:100E88000030014010B5427A044632B1036800F1DF
:100E98000A01406898470023637210BD124B53F84B
:100EA800200070B5F8B1114A062303FB002393F91B
:100EB8000140621C16D01879A8B10D4A0D4E155D77
:100EC800DA7864211423002061438C18013B36F83A
:100ED80014402A4410FA84F0F7D11423B0FBF3F03D
:100EE80080B270BD002070BD983800203A270020DD
:100EF800342900205827002038B503200D46144611
:100F0800FFF7CCFF07EE900AB8EE677ADFED0A7AB2
:100F180027EE277A5DB1F8EE047AF0EE006AE7EE84
:100F2800267A9FED067A67EE877AC5ED007A0CB1CE
:100F3800034B236038BD00BF6740533A00007A4432
:100F48003313904330B5094B0949C0B28B4200D3E3
:100F580030BD5A88140406D55D68DC68C2F30B02FC
:100F680000FB025222601433F0E700BF805D0308E3
:100F78000461030870B5448806460D46C4F30B04A3
:100F88000021224628462DF070FA3169084B994213
:100F980008D3084B994205D222462846BDE870403E
:100FA8002AF0E6BF19B12846BDE87040084770BD71
:100FB80004610308806303084388426813F4004F00
:100FC8001EBFC9B2C3F30B0301FB03221146D1E7CD
:100FD800064B07498B4202D30023184670471A88EC
:100FE800C2F30B029042F8D01433F3E7805D030894
:100FF80004610308024A136823EA0000106070477E
:101008007C350020024A136818431060704700BFFF
:101018007C3500202DE9F341056906460F467DBB66
:10102800D0F80080C8F30A0323B30023D6F8008061
:10103800019328F015FE042819D1224C236943F0A6
:1010480001032361BBB2A8F8003028F009FE042888
:101058002ED108F102030193019B3F0C1F8028F059
:10106800FFFD2369042823F00103236125D06FF0D5
:10107800010505E028F0F4FD042805D04FF0FF3500
:10108800284602B0BDE8F0810E4C236943F0020304
:101098002361C4F81480236943F04003236128F0D6
:1010A800DFFD2369042823F002032361BDD0E5E7AF
:1010B800236923F001032361D9E7336804333360DC
:1010C800DEE700BF00200240F8B504460D468E1842
:1010D8000027B54201D12069F8BDE368591CE160D9
:1010E800234415F8012B1A720429F2D1A16820466D
:1010F800FFF790FFE7602061EBE738B58D180C46E5
:10110800AC4200D138BD14F8011B1BF031FBF7E7E6
:1011180070B501221049114C114E0020FFF7EDFF68
:1011280022884AB1A518B54213D2052A11D92146F9
:10113800FFF7E3FF2C46F3E721460222FFF7DDFF26
:101148006388084AC31AA41A074A584214805841A7
:1011580070BD002070BD00BF00E8030801E8030867
:1011680000000408FCE70308B419002030B5024465
:101178000446944201D1002011E014F8013B11F813
:10118800015BA3F141001928A5F1410098BF203364
:10119800192898BF2035581B01D1002DE9D130BD41
:1011A80070B5034610F8012B202AFAD0092AF8D086
:1011B8002D2A0ABF034601254FF0FF35591E00248A
:1011C8000A2611F8010FFFF74EF90A2802D905FB84
:1011D80004F070BD06FB0404F3E730B50278202A5A
:1011E800034600F10100F9D0092AF7D02D2A47D18A
:1011F8000346BFEE000A9FED3A7A1A46F2EE046AF9
:10120800134612F8010BA0F13001CCB2092C3DD9DC
:101218002E280BD1F2EE046A1146B0EE666A0B4630
:1012280011F8012B303AD0B2092838D91A7802F0CF
:10123800DF02452A4FD15A782D2A3BD102330120AB
:10124800013B00220A2513F8011F3039CCB2092CC2
:1012580036D9B2F59A7F28BF4FF49A72DFED216A2A
:101268001346F7EE007A072B2DD802F00702F2EEAC
:10127800046A62BB88B3C7EE276A20EE260A30BD2F
:101288002B2A08BF0346B7EE000AB4E707EE901A08
:10129800F8EEE77AE7EE267AB0EE677AB0E707EE7F
:1012A800902AF8EEE77AC7EEA65A66EE866A37EE17
:1012B800257AB4E72B2A14BF013302330020BFE795
:1012C80005FB0212BFE767EEA67A083BCBE767EE9D
:1012D800A67A013ACDE7F7EE007A67EE276ACCE7FF
:1012E8000000000020BCBE4CB5EEC00ADFED2D7A30
:1012F800F1EE10FACCBF30EE270A30EE670ADFEDC8
:101308002A7A20EE270A30B5FDEEC07A87B017EEAC
:10131800904A054684EAE470002303A9A0EBE47030
:1013280000930193029328F009FD002CACBF202301
:101338002D2303A88DF8003029F024FC012822D1A0
:1013480030238DF801308DF802308DF8033003A971
:1013580068462DF092F8684629F014FC0338C4B2A8
:101368002246694628462DF0BFF800232B550F4921
:1013780028462DF082F80DEB040128462DF07DF863
:10138800284607B030BD022805D130238DF801303A
:101398008DF80230DBE7032804BF30238DF80130D5
:1013A800D5E700BF6F12033A00007A44534C030894
:1013B80070B5064615460846B6FBF2F414B1204649
:1013C800FFF7F6FF05FB1464024B1B5D00F8013BB9
:1013D80070BD00BFC8330308084BD3E9002352EAA5
:1013E800030108D006490968521843F10003C0E90F
:1013F8000023012070470020704700BF903500206F
:101408004C730020F0B5264E04460F460FCE8DB023
:101418006D460FC50FCE0FC596E80F0085E80F0083
:1014280014F0030335D1642194FBF1F201FB12425D
:1014380042B94FF4C87294FBF2F302FB1343003332
:1014480018BF0123C3F11D0340F26D12019304205C
:10145800631E93FBF0F002FB04046FF0630093FB40
:10146800F0F020444FF4C87493FBF4F318440630AA
:1014780000220721013F5DF822309742184490FB73
:10148800F1F4C4EBC404A0EB040004D1181A0DB0A5
:10149800F0BD0123D6E701320C2AECD10020F6E793
:1014A8007CE50208F8B514461D4606464FF47A72E4
:1014B8000023204629462AF03DF92C4B3C220344C0
:1014C80093FBF2F002FB1031B17190FBF2F102FBD9
:1014D8001102182072714FF4616293FBF2F292FBD1
:1014E800F0F100FB112232712149224A93FBF2F2FA
:1014F80093FBF1F3980040F2B55392FBF3F103FB31
:101508001123B3F5896F2DDA40F2DA2293422BDCEE
:10151800B3F5B77FB4BF002201221749182707FB8C
:1015280002170B2137F811E0734501DA0139F9D1B7
:1015380000F5FA6010443080481CB0700C2000FBA5
:1015480002120E4901EB4202013392F838209B1A2D
:10155800F3704FF47A720023204629462AF0EAF8FD
:101568003281F8BD0322D8E70222D6E780BC92C7B1
:10157800801F860780510100ACE5020874E5020867
:1015880037B504466846FFF727FF054638B1DDE959
:1015980000232046FFF786FF284603B030BD01230D
:1015A8002080A370E37020716071A0712081F3E73F
:1015B80010B50288C378A2F5FA62591E40F2B554F4
:1015C800930804FB031381780C24013902F0030209
:1015D80004FB02120C49847901EB42021821128F94
:1015E8001344027901FB0323427900893C2101FB62
:1015F8000323064A224401FB03234FF47A72002195
:10160800C2FB030110BD00BF74E5020880436D38BA
:101618000B684A689A4206D05A1C0A601B7800B1C7
:101628000370012070470020704710B5026811460A
:10163800531C036011F8024B0160D31C51780360FE
:1016480093781B0443EA0123111D0160D0782343DA
:1016580043EA006010BD03685A1C02601A4612F87B
:10166800021B0260587841EA0020704791E80C009C
:101678009B1A012B10B5044606DD0846FFF7EBFF61
:1016880004B12080012010BD002010BD03685A1C41
:1016980002601878704738B5044609C81B1A9A4280
:1016A800154606DC2AF064FC22682A4422600120E0
:1016B80038BD002038BD38B50446006815462AF004
:1016C80057FC22682A44226038BD03685A1C02600D
:1016D800197003685A1C02600A0A1A7003685A1CB7
:1016E80002600A0C1A700368090E5A1C026019700D
:1016F800704703685A1C026019700368090A5A1C6B
:101708000260197070472DE9F04F89B082468B4608
:1017180016461C4600270DF114083178002934D0EC
:10172800252904D050460136D8470137F5E77178A6
:101738002D2905BFB178F51CB51C012618BF002658
:10174800302906BF2978012300230293A1F1300331
:1017580008BF0135092B4FF0000907D80846FEF7E6
:1017680082FE0A2815D90EB1C9F100096C2940F08A
:101778008B802A78642A05F1010600F0BC801BD80A
:10178800252A62D00BD8002AC7D1384609B0BDE84F
:10179800F08F0A2303FB090915F8011BDEE7582A15
:1017A8001BD0632AB9D1354621785046D847261D23
:1017B800013734462E46B0E7732A3AD008D8662A4D
:1017C80049D06E2AA9D13546236804341F60F1E751
:1017D800752A00F08B80782A9FD1A2F158004242E6
:1017E80004F10405434642411021206807E02D23F7
:1017F8008DF8143040420DF1150300220A21FEF73E
:1018080047FE2C46CDF80080029B4A465946504672
:10181800FEF76EFE074480E72D238DF81430404212
:101828000DF1150300220A21FEF732FE2E46039C15
:10183800E8E73546236800934A4600235946504650
:10184800FEF756FE261D0744B3E7354625215046C8
:10185800D8470137AEE73546073424F00703D3E904
:10186800000103F1080429F007FE00EE100A4046C3
:10187800FFF73AFDCDF80080029B4A46594650468C
:10188800FEF736FE074495E764293CD00BD8252996
:10189800DCD003D800293FF478AF8BE758290FD064
:1018A800632981D086E77329C4D004D86629D3D0A8
:1018B8006E2989D07EE775290FD078297FF47AAF11
:1018C80058394A4204F104064A4120684346102127
:1018D8003446FEF7DDFD2E4694E7231D03930022D0
:1018E80043460A212068FEF7D3FD9FE7251D43469E
:1018F80000220A2179E72068002804F10405FFF690
:1019080076AF434679E72068231D0028039383DBDD
:10191800434687E70EB40FB505AB019053F8042B87
:101928000649039301A8FFF7EEFE019B00221A70F7
:1019380004B05DF804EB03B0704700BFEF04000883
:101948000FB437B50B490C48096800680B4D06AB56
:1019580053F8042B0193FFF7D6FE04462868FEF7D8
:1019680040FF0028FAD0204603B0BDE8304004B05C
:10197800704700BF8424002088240020AC3C00204D
:101988002DE9F04F00F1100E85B0074605460026F8
:1019980000F14009B0462B46BC4616E0F4EC016A5B
:1019A8001AED047AD3ED007AE6EEC77AC3ED007A31
:1019B800AC420AF1100AF1D108F10108B8F1040F9C
:1019C8000CF1040C03F1040303D0AEF11004E24659
:1019D800EEE74FEA860B73464B451ED003EB0B0A26
:1019E800B8469C4609E0FCEC016A18ED047AD4ED8F
:1019F800047AE6EEC77AC4ED047AD44508F11008F3
:101A0800F1D1D4ED046A95ED007AC6EE877A1033E9
:101A180017EE90CA44F810CFDEE70136042E05F120
:101A280014050EF1100E07F10407B3D10024009439
:101A380001940294039402F1100C074606466C4682
:101A480052F8045B2560EE463546BD4228D1624512
:101A580004F1040406F1100605F11407F0D104AEF0
:101A680000F13C050A4656F8044D42F80C4F2C4646
:101A78000434A34202F10402D1ED037A1BD12A46B1
:101A8800D2ED006A87EEA67A103B8342A5F11405D1
:101A9800A1F1040181ED047AE4D105B0BDE8F08F2D
:101AA800BEEC017AD4ED007AF5EC016AE6EEC77A6D
:101AB800C4ED007AC9E7D4ED006A92ED007AE6EE4B
:101AC800C77AC1ED037AD3E71FB50C4602466946CB
:101AD8001030FFF755FFDDED007AB6EE007A67EEBD
:101AE800877AC4ED007ADDED017A67EE877AC4ED76
:101AF800017ADDED027A67EE877AC4ED027A04B0E6
:101B080010BDD1ED007A90ED066AD0ED095AB8EE15
:101B1800E77AD0ED047AE7EE077AB7EE005AC0ED1F
:101B2800047AD1ED017AF8EEE76AD0ED057AE7EEAE
:101B3800267AC0ED057AD1ED027AF8EEE77AA7EEBB
:101B4800276A80ED066A90ED076A36EE076A80ED2F
:101B5800076A90ED086AA7EE266A80ED086A26EE05
:101B6800A66A75EE865AA7EE076AC0ED095AD0ED47
:101B78000A5AE6EEA75AA7EEA76AC0ED0A5AD0EDB0
:101B88000B5A75EEA65AC0ED0B5AD0ED0C5AE7EE7B
:101B9800275AC0ED0C5AD0ED0D5AE6EEA75AC0ED03
:101BA8000D5AD0ED0E5AE7EEA75AC0ED0E5AD0EDF9
:101BB8000F5A75EEA75AC0ED0F5AD0ED105A75EEB0
:101BC800875AC0ED105AD0ED115A75EEA65AC0EDDD
:101BD800115AD0ED125A75EEA75AC0ED125AD0ED2F
:101BE800135A75EE855AC0ED135AD0ED005AE7EE38
:101BF800065A90ED017AC0ED005AA6EE867A80ED7D
:101C0800017A90ED027AA7EE867AD0ED037A80ED1C
:101C1800027A37EE866A80ED036A704700F1400168
:101C2800034600221A615A619A61DA6110338B42C5
:101C380040F8042BF6D1704780EAE073A3EBE07319
:101C48008B4206DB002801DD401A704702D00844A9
:101C580070470020704744F25063984203DDA0F5B6
:101C68000C40A0387047034B9842BCBF00F50C40AD
:101C7800A0307047B0B9FFFFF0EEE06AB0EEC07A6E
:101C8800F4EEC76AF1EE10FAD4BFB0EE476AB0EED0
:101C9800666AB5EE406AF1EE10FA48D0F4EEC76A0B
:101CA800F1EE10FA54BFF0EE475AF0EE665AC5EE60
:101CB800867A9FED206ADFED205A9FED205AE7EEE5
:101CC800865A9FED1F6AA7EEA56ADFED1E5AE7EE5A
:101CD800865A9FED1D6AA7EEA56ADFED1C5AA7EE8E
:101CE800A55AF7EE005AE7EE855AB1EE466AC6EEF7
:101CF800257AF4EEC76AF1EE10FA48BF9FED147A20
:101D0800F5EEC00A48BF77EE677AF1EE10FA48BFE1
:101D18009FED107AB5EEC00A48BF77EE677AF1EE0C
:101D280010FA48BFF1EE677AB0EE670A7047DFED48
:101D38000A7ABEE739094E3DE3B59EBE69A2163E52
:101D480088FA16BE45FE7FBFA7DFA8B499FB243FDB
:101D5800DB0FC93FDB0F494000000000FDEEC07AF1
:101D680017EE903A2033402B43D8DFED237A9FEDCE
:101D7800237AB4EEE70AF1EE10FA28DCDFED207AD8
:101D88009FED1E7AB4EEE70AF1EE10FA22D4DFEDE9
:101D98001D7AB4EEE70AF1EE10FA1EDD30EE670A9E
:101DA80037EEC00A60EE007ADFED176A9FED177A0A
:101DB800A7EEA67ADFED166AE7EE876A9FED157A39
:101DC800A7EEA67A20EE276AA6EE070A704730EE3D
:101DD800470ACEE730EE070AD4E79FED0F7AB4EE54
:101DE800C70AF1EE10FA44BF30EE270A37EE400A70
:101DF800D8E79FED0A0A7047DB0F4940DB0FC9405F
:101E0800DB0F49C0DB0FC93F9A7C2E36FAAF4FB9BA
:101E18003587083CA4AA2ABEDB0FC9BF0000000012
:101E2800DFED027A30EE270A98E700BFDB0FC93FE3
:101E380091ED005A08B5B0EE450AFFF7F1FFF0EE54
:101E4800405AB0EE450AFFF789FFD1ED014AB0EEDE
:101E5800405AB0EE640AFFF7E3FFB0EE404AB0EE36
:101E6800640AFFF77BFF91ED023AF0EE403AB0EEDC
:101E7800430AFFF7D5FFF0EE404AB0EE430AFFF7FA
:101E88006DFF25EEA46A65EE806A65EE247A64EE3D
:101E9800244A25EE007AC0ED004AF0EE664AE3EEE9
:101EA800A74AB0EE463AC0ED034AF1EE634AA4EE03
:101EB800873AE3EEA67AA4EE867A24EE400A25EE67
:101EC800445A65EE845A80ED010AC0ED023A80ED6D
:101ED800043A80ED055A80ED067AC0ED077AC0ED28
:101EE800085A08BD38B5334CB4FBF2F4A142F0EE01
:101EF800404A1D46F7EE005A4FF0000453D207EE51
:101F0800901A9FED2D7ADFED2D6AF8EE677A67EE6D
:101F1800877A07EE102AB8EE477A27EE267AC5EEBA
:101F2800876A87EEA63AB0EE430AFFF717FFF0EE8E
:101F3800402AB0EE430AFFF773FF74EEA44AF8EEA6
:101F4800006A82EEA47AF5B1012D25D077EE257AC4
:101F580020EE260A85EE276A75EEC75A80ED006ADC
:101F680084EE276AC0EE276A80ED016A85EEA77ABB
:101F780083EEA76AC0ED036A80ED026A80ED047AF9
:101F88008461446138BD35EEC04AB6EE005A24EE8D
:101F9800055AF0EE453AD9E720EE264AF0EE653AC2
:101FA800B0EE655AD2E7C0ED005A44608460C46060
:101FB8000461E5E720A10700DB0FC940BD3786357E
:101FC80000239FED010A8DE7F304353F30B507EE96
:101FD800902A2DED028BB8EE670A07EE903AF8EEDC
:101FE800677A83B080EE270A0D46044601922AF0EC
:101FF800AFF930EE008AB0EE000AF0EE480A2AF097
:1020080025FB2AF0B7FCF0EE480AF0EE408AB0EE65
:10201800000A2AF01BFBF7EE007A30EE670A0199F6
:1020280088EE800A01232A46204603B0BDEC028BC5
:10203800BDE8304056E7D0ED017AF5EE407AF1EE92
:1020480010FA09D1DFED0E7A60EEA70AB7EE007A32
:10205800C7EE207AC0ED017A90ED017AD0ED007AD2
:1020680080ED021A31EE077A30EE670AC1EE076A90
:10207800E6EE807AB0EE670AC0ED007A704700BFDE
:10208800DB0FC94090ED017AD0ED007AC0ED020A6D
:1020980030EE877A30EE670AC0EE876AE6EE807A1D
:1020A800B0EE670AC0ED007A70474840082310F088
:1020B800800F4FEA400018BF80F0D500013BC0B246
:1020C800F5D1704710B50A440C46944200D110BDB2
:1020D80014F8011BFFF7E9FFF7E74A09012301F0AC
:1020E8001F0103FA01F150F822300B4340F8223067
:1020F80070470EB4244B70B51B68002BA5B006467C
:1021080030DA224B224C19684FF47A7304A8B1FBD9
:10211800F3F203FB12131F49FFF7FCFB04AB034464
:102128000393299A1C492AAB054603A80293FFF793
:10213800EAFA039B591C03910A211970039B591C45
:102148000391002119700246206880B103681B6A58
:1021580003B1984704A92068FEF778FB16B12068F8
:102168001AF036FB25B0BDE8704003B070470B4B42
:102178001B68002BF6D002212A4400910A44FD2056
:1021880004A91DF0BDF9EDE7605D00204C73002047
:1021980030290020ED330308E5040008EC24002072
:1021A80038B5144B1C68033004EB9002B2F5807FFD
:1021B80014D8114D1A6005EB8404104D55F82130E0
:1021C80020F003001844920045F82100C2F580620F
:1021D8000B490020FFF78DFF204638BD0949002034
:1021E800FFF787FF084A136843F000731360002461
:1021F800F2E700BF24190020D00A00202819002087
:10220800F93303081C340308285C00200E4B0F4ADE
:102218001B689BB223F0070303EBC00002443E296E
:102228004FEA42020AD94B09C80604BF03F1FF333B
:102238009BB29B0243F40043136070474B08C907E5
:1022480048BF01339B02F7E7505C0040063000208E
:10225800054B1B689BB223F0070303EBC000034B3D
:1022680003445B0019607047505C00400230002056
:1022780070B5002240F60F7648F2800502F18053CF
:1022880003F5B8539B0042EA05041968013231404E
:102298002143042A1960F1D1024B40F080001860F4
:1022A80070BD00BF4C5C004008B50B4B002093F894
:1022B8002C10FFF7ABFF094B1B68187A082806D1CA
:1022C800074B4FF480521A80064B10221A80A0F157
:1022D80009035842584108BD74090020287300209A
:1022E800A07A0020A27A00202DE9F0412E4D2C681A
:1022F800228ADAB9267A042E18D12C4C2C48237855
:10230800012B0FD12B4B19682B4B89B221F00701F8
:102318000B445B001A603023038022702B681E7206
:10232800BDE8F081102303800726F7E7B4F814808E
:10233800A36942458CBF02260426904528BF9046D3
:102348001FFA88F7384698471A4B1B689BB223F048
:10235800070303F1005303F540535B0008F1010242
:102368001B689BB203F1005303F5405352105B0006
:1023780000218A4211D139460020FFF769FF238ADC
:10238800DB1B2382638A1F44094B678230221A8031
:102398000A4B4FF440521A80C0E730F802EB23F89A
:1023A80021E00131E5E700BF28730020AC7A002066
:1023B800A27A0020505C004002300020A07A002061
:1023C8000F4BDA684378D243C2F30222C2F1040108
:1023D8008B400F2121FA02F281780A401343094900
:1023E80002781B018818DBB280F8003350090123FA
:1023F80002F01F0203FA02F241F82020704700BFE2
:1024080000ED00E000E100E0C27802B1D8E703780F
:1024180001215A0903F01F0301FA03F3203202498C
:1024280041F82230704700BF00E100E02DE9FF418C
:10243800154600284FD08488B4FA84F4C4F11F04E8
:10244800621C48D0254E006832194FF00F0C92F8E4
:102458009870234A42F82410E1B201F0030201F017
:10246800FC0101F1804101F580319200D1F808E0CA
:102478000CFA02FC2EEA0C0EC1F808E0D1F808E0CC
:10248800C0F38720904040EA0E00164A88604FF05B
:10249800010808FA04F1116002A8029400248DF8DA
:1024A8000D308DF80C408DF80E8027F06BFB0E4B2D
:1024B800DA5DAA420FDDDD55F319AA1193F8A830A9
:1024C8008DF8043001A88DF805208DF806408DF8A8
:1024D8000780FFF775FF04B0BDE8F08174E50208D6
:1024E8009424002014040140D4240020084BDA6806
:1024F800D10709D4DA68D20608D4DB6813F0040FD0
:1025080014BF032004207047012070470220704741
:1025180000200240036823F001031B041B0C036026
:102528000023036043608360C360294B984204D151
:10253800284A536843F00F0326E0274B984204D1FA
:10254800244A536843F0F0031EE0244B984204D118
:10255800204A536843F4706316E0214B984204D133
:102568001C4A536843F470430EE01E4B984204D152
:10257800184A536843F4702306E01B4B984205D170
:10258800144A536843F4700353607047174B9842DA
:1025980004D1104A536843F07063F5E7144B98422E
:1025A80001D1144AC5E7144B984201D1114AC8E732
:1025B800124B984201D10F4ACBE7114B984201D1F7
:1025C8000C4ACEE70F4B9842DFD10A4AD1E700BF49
:1025D80008000240000002401C0002403000024097
:1025E80044000240580002406C0002408000024053
:1025F80008040240000402401C0402403004024067
:1026080044040240580402402DE9F04100230F68B9
:102618001D464FF0010E03260EFA05FC3CEA0702A0
:1026280032D10C79621E012A19D8826806FA03F899
:1026380022EA080282604A79D0F808809A4042EA81
:1026480008028260828892B222EA0C0282808A7929
:10265800B0F804C0AA4042EA0C0292B28280D0F8D4
:1026680000C006FA03F2D24302EA0C0CC0F800C01C
:10267800D0F800C09C4044EA0C040460C4681440CC
:10268800CA799A402243C2600135102D03F1020332
:10269800C2D1BDE8F08137B50C46054608B30368DA
:1026A80003F138439B0A104A134493F8AF0027F00C
:1026B800E9FAAB88009304F003038DF80430C4F3FF
:1026C80081038DF805306946C4F3001328688DF836
:1026D8000630C4F341148DF80740FFF795FF03B0A7
:1026E80030BD4FF0FF33DEE774E5020800B1D2E7F2
:1026F800704708B5FEF754F948B11D2282710E22C1
:10270800C271002202722021BDE80840EEE708BD30
:1027180010B503681A79022A044602D1987AFFF79D
:10272800E8FF00232371236010BD70B51E46244DB9
:10273800244B9D4219D26C798C423AD12C7984422F
:1027480001D0002835D12C7A944232D12C682C2221
:10275800002120462BF089FE25602B792371EA8819
:10276800A260012B03D0022B0BD0002407E0E87AEB
:10277800FEF716F960616B7A2373AB7A63732046B0
:1027880070BDE87AFEF70CF960616B7A2373A87A5A
:10279800FEF706F90546206168B10E23C3710023D0
:1027A800867103720D21FFF7A1FF2069FEF723F957
:1027B800E5E70C35BDE72046FFF7AAFF2C46DEE724
:1027C80080630308EC63030800232DE9F7431A46E6
:1027D80021210120FFF7A9FF224C0546606300284C
:1027E8003DD00526962003F0C4FC0DF10702002118
:1027F8002846FEF713FA074658B300221146606BC5
:10280800FEF768FA3C20FEF7D1FA012003F0B1FC8C
:1028180000265FFA86F84FEA8805D4F83490EDB2BE
:10282800A91D002201F0FE014846FEF753FAE91DF2
:102838000022C9B24846FEF74DFA013640F2DC5193
:102848004046FEF779FA102EE3D1384603B0BDE8CA
:10285800F083013EC6D1606BFFF75AFFF5E70746E4
:10286800F3E700BF780A0020F7B50C461546064680
:10287800A0B3036803F13842194B03EB92230F27E7
:1028880093F8AF0027F0FEF93068B6880096B6FADC
:1028980086F3C3F11F039BB203F00702DB0800EBCA
:1028A80083039200196A974021EA07011962196A9D
:1028B80095400D431D6204F003038DF80430C4F302
:1028C80081038DF805306946C4F30013C4F341143D
:1028D8008DF806308DF80740FFF796FE03B0F0BD7F
:1028E80074E502082DE9F04F254D85B0074603939E
:1028F80095F858349DF838B0052B8846914608D984
:1029080020490020FFF7F5FB0024204605B0BDE86C
:10291800F08F03F084FB064680B395F85844387965
:10292800631C5FFA83FA85F858A4FEF739F805F2B4
:102938005C4504EB440405EBC404054628B10422B5
:1029480082710222C27180F808A0BBF1000F0DD07D
:102958003A7A02212846FFF787FF039B00934246F5
:102968004B4631462046FDF799FFCEE72846112110
:10297800FFF7BCFE2846FEF739F8EEE70446C4E741
:10298800780A00202A34030830B52DED028B1F4B3E
:1029980083B01C68B4FBF1F303F57F43FF331B0CD2
:1029A8000092B4FBF3F40023B4FBF1F52146AAB27C
:1029B800F0EE408AB0EE608AFFF794FF08B3B5EEF8
:1029C800408A07EE904AF1EE10FAF8EE677A08BFEF
:1029D80006EE905A9FED0E7A0ABFF8EE666A27EE69
:1029E800888A86EE876A4FF00103037218BF88EE63
:1029F800076A27EE467A80ED056AA7EEA87A80ED89
:102A0800047A03B0BDEC028B30BD00BF280900205A
:102A180000007A44F8B5724E142505FB006504469B
:102A2800287A27F02FF92A7A02F01F015209012388
:102A3800022A03FA01F300F09F80032A00F0A18024
:102A4800012A03D1674A916A0B439362142303FB5B
:102A58000463651C5879FDF7A3FFEDB2074620B162
:102A68000D2383710B23C3710572142303FB0463C5
:102A7800D879FDF795FF18B10D238371C3710572DD
:102A8800142303FB04639879FDF78AFF20B10D2313
:102A980083710C23C3710572142505FB0465AB7A99
:102AA8006A7A002B72D04E213846FFF7DDFEE879AE
:102AB800FDF776FF6A7A2E21FFF7D6FEA879FDF793
:102AC8006FFF6A7A142505FB04650E21FFF7CCFE1B
:102AD800287928B1FDF764FF6A7A0D21FFF7C4FE53
:102AE80014236343404AF358934259D102F5604294
:102AF800D16841F48051D160D16821F48051D1600E
:102B0800142202FB0462927A002A64D0002108464B
:102B18009A8822F480521204120C9A809A8892B2EF
:102B280042F480529A801A8802F4415242F4457263
:102B38001143014319809A8822F470621204120C1E
:102B480042F4E0629A809A8B22F400621204120C1A
:102B58009A8307221A821A8892B242F040021A8097
:102B6800142303FB04642079002837D0FDF718FFED
:102B7800BDE8F840FDF73FBF1A4AD1680B43D36060
:102B880064E7184A11690B4313615FE70E21384661
:102B9800FFF76AFEE879FDF703FF6A7A0E218BE7F3
:102BA800124A93420AD102F5EC32116941F480418C
:102BB8001161116921F480411161A1E70C4A934226
:102BC8009ED102F5EA32116941F40041116111699F
:102BD80021F40041F0E70121022099E7F8BD00BF88
:102BE800D0090020001002400030014000380040A9
:102BF800003C0040A64B5A6802F00C02042A2DE95A
:102C0800F04100F0B580082A00F0B680A1490160C3
:102C1800002A40F0AF8059689F4FC1F303117E5CD2
:102C28000168F6B221FA06F444605D68C5F302252E
:102C380017F805E024FA0EFEC0F808E05D68C5F351
:102C4800C2257D5DEDB2EC40C460D3F82C804FEA1C
:102C5800181808F00F0C07EB4C0C18F0100FBCF804
:102C680010C01FFA8CFC00F09C80BCF1000F00F033
:102C78009880B2FBFCFCC0F810C0D3F82CC04FEA17
:102C88005C2C0CF00F0807EB48071CF0100F3F8A6C
:102C9800BFB200F08880002F00F08580B2FBF7F704
:102CA80047611F6BFF065ABF7A4F876181611F6BAF
:102CB800BF065ABF774FC761C1611F6B7F065ABFF6
:102CC800744F076201621F6BFF056ED58A426CD193
:102CD800AE426AD1570047621F6BFF0467D58A422C
:102CE80065D1AE4263D1570087621F6BBF0560D5BF
:102CF8008A425ED1AE425CD15700C7621F6B7F0526
:102D080059D58A4257D1AE4255D1570047641F6BF7
:102D18003F0552D58A4250D1AE424ED15700876402
:102D28001F6BBF044BD58A4249D1AE4247D14A00F6
:102D3800C2641A6B920744D104631A6B12F4403FC1
:102D480056D1C0F834E01A6B12F4402F6AD1C0F89B
:102D580038E01A6B12F4401F7FD1C0F83CE01A6BC0
:102D680012F4400F40F09E80C0F840E0BDE8F081CA
:102D78004A4A026000224EE75A685968C90349BFA7
:102D8800D96A4749454C01F00F01C2F3834248BF55
:102D9800013102F1020248BFB4FBF1F14A4302607B
:102DA80039E7016169E741617BE7446294E784623E
:102DB8009BE7C462A2E74464A9E78464B0E784643B
:102DC800B7E71A6B02F00302012A01D10163B4E7E5
:102DD8001A6B02F00302022A03D14FF40042026385
:102DE800ABE71A6B02F00302032AA6D1294AF6E7D9
:102DF8001A6B02F44032B2F5803F01D14163A2E779
:102E08001A6B02F44032B2F5003F03D14FF400428E
:102E1800426398E71A6B02F44032B2F5403F92D110
:102E28001C4AF5E71A6B02F44022B2F5802F01D153
:102E380081638EE71A6B02F44022B2F5002F03D1AA
:102E48004FF40042826384E71A6B02F44022B2F521
:102E5800402F7FF47EAF0F4AF4E71A6B02F440125A
:102E6800B2F5801F01D1C16379E71A6B02F44012F1
:102E7800B2F5001F03D14FF40042C2636FE71A6B2B
:102E880002F44012B2F5401F7FF469AF014AF4E73B
:102E98000010024000127A0000000020001BB7005A
:102EA80000093D001A6B02F44002B2F5800F02D10E
:102EB8000164BDE8F0811A6B02F44002B2F5000F1C
:102EC80004D14FF400430364BDE8F0811B6B03F4A5
:102ED8004003B3F5400FF7D1004BF4E700127A0036
:102EE800F0B5446B8668236823F001032360837977
:102EF80013F004010CBF4FF0000E4FF4805E05463E
:102F080013F0020F4379206820F001002060606808
:102F180014BF4FF40052002220F44050002942EA26
:102F28000002626014BF4FF48067002713F0010F9E
:102F380014BF042100219B07236823F4B05323F016
:102F48000C0343EA0E0348BF41F008013B430B431F
:102F58002360A36895B023F44073A3606846FFF725
:102F680049FE284B9C4239D10C9A23681F0448BF5C
:102F78005200B2FBF6F306FB1322B2EB560F22689F
:102F880028BF0133160406D5C3F3420223F00F030A
:102F98001B041B0C13439BB2A3816B79A87913F014
:102FA800020F0CBF00224FF4003200F00101DC07D1
:102FB80048BF42F480326B6B01B359680A435A60C8
:102FC8009A6801074CBF42F0080222F008029A6092
:102FD8001A6842F001021A6015B0F0BD0A4B9C4213
:102FE80001D10D9AC1E7094B9C4201D10E9ABCE769
:102FF800074B9C420CBF0F9A109AB6E7596821EA12
:103008000202DCE70038014000440040004800406C
:10301800004C0040417163E7816061E72DE9F04FA2
:103028001F46714B85B09842894690469DF83850A6
:103038009DF83C6056D16D4C6D4B23606D4B6361C0
:1030480003F58073A36160634FF480734E20E360DF
:103058002361A76026F016FE3420FDF7A1FC834605
:103068003520FDF79DFC4FF0010A07238DE8080481
:10307800014633462A46584622F086FD25238DF818
:103088000C3000238DF80DA08DF80E308DF80FA0B0
:1030980003A8FFF795F900232362E361A362636243
:1030A800C4F82C90C4F830806571A760A6712046DA
:1030B800FFF716FF15F0010F636B05D020221A6287
:1030C8001A6842F020021A60AA0742BF1A6842F042
:1030D80080021A601A6842F001021A60204605B0A0
:1030E800BDE8F08F444B98422ED1444C404B2360AE
:1030F8004FF48073E3602361414B6361606303F5C0
:1031080080737120A361A76026F0BCFD1220FDF733
:1031180047FC82461320FDF743FC07234FF0020EBD
:103128008DE80840014633462A46504622F02CFDD9
:1031380026238DF80C30002201238DF80D308DF8F0
:103148000E208DF80F30A3E72E4B984223D12E4C3A
:10315800274B23604FF48073E36023612B4B63613B
:10316800606303F580737320A361A76026F08AFD6E
:103178003A20FDF715FC82463B20FDF711FC05219E
:1031880004238DE80A002A4633460146504622F0B9
:10319800FBFC3423CDE71E4B984222D11D4C144B27
:1031A80023604FF48073E36023611B4B63616063AA
:1031B80003F580737420A361A76026F063FD3C20AB
:1031C800FDF7EEFB82464220FDF7EAFB052301935B
:1031D8000093014633462A46504622F0D5FC352353
:1031E800A7E700207BE700BF003801407C72002081
:1031F8002CE60208640F00200044004044720020BE
:1032080064110020004C00400C7200206413002060
:1032180000500040D47100206415002020B10078CF
:10322800B0FA80F0400970470120704708B52021A6
:103238002BF032F90346184623B10278202A03F10D
:103248000103F8D008BD2DE9F8430D46164681461E
:10325800002440F634074FF019084846FFF7E6FF08
:10326800814690B1FDF79CFFB842A8BF3846B0F53B
:10327800617FB8BF4FF46170A0F5617090FBF8F002
:103288004CB928703378013333700134022CE4D1FF
:103298004846BDE8F8836870F4E770B50546084607
:1032A8000E4627F06FFC3146044602462846FDF7D5
:1032B8005DFF60B92B5DA3F13002092A08D923F01C
:1032C8002003413B192B03D9601C284470BD002002
:1032D80070BD08B51E4B1F4C1D68A06819F078FA20
:1032E800284619F075FAA06841798B0703D441F094
:1032F8000201FDF773FA00210846FDF72DFB0021B6
:103308000120FDF729FBA068FDF777FA70B10121CC
:103318000020FDF721FBA068FDF769FA0146284661
:10332800FDF76EFA00210846FDF716FB2846FDF763
:1033380064FA0028E7D001210846FDF70DFB28466E
:10334800FDF755FA0146A068FDF75AFAD7E700BF1E
:10335800643C00208432002010B4447A631C044486
:10336800DBB24372A172027A9A4203D85DF8044B29
:10337800FDF788BD5DF8044B70470FB413B5084CD2
:103388000849206804AB53F8042B0193FEF7BBF9F6
:103398002068FDF777FD02B0BDE8104004B0704723
:1033A800603C0020613300082DE9F743B24CB34D6F
:1033B800AC42C0F04C810020FDF7C4FDB048B14ECE
:1033C8001BF074FB4FF40020FDF71CFE4FF4800047
:1033D800FDF718FE002402203471FDF713FE80204B
:1033E800FDF710FE4FF48060FDF70CFE4FF48030BF
:1033F800FDF708FE4FF40020FDF704FEA24A402125
:103408000123916102274FF480711360D760116323
:1034180054629E4A5A21D171962151814FF47A7E85
:103428005021A2F804E0D37094719181984A082140
:103438004FF00F0C5170A2F802C0964AD7709170E5
:10344800954A052010705370944A0321117040F278
:103458004C4111834FF0070840F26C7182F80580E7
:1034680051838F4A0421137051708E4A40F2F7310C
:1034780011804FF4FA654FF475719180D5801372FD
:103488005580894AC8214FF496691071507191711D
:10349800A2F80090D771854A7180A52714805780BB
:1034A8009480834A1E261672824A137050701371D4
:1034B8009370D37082F806807F4A0A20107082F8D1
:1034C80001C07E4A937113705370D3714FF4FA732D
:1034D8001382938240F2DC539385794B5182D182D7
:1034E800A2F820E082F82A60D58503F150021C700A
:1034F8005C709C70DC7004339A42F8D140F6340654
:10350800002200961146104640F27E4324F074FCD7
:1035180040F2A46501210095084640F214530022A8
:1035280024F06AFC03220095114640F2145302204D
:1035380024F062FC03220095104640F2145309213E
:1035480024F05AFC00962B4603220821042024F07C
:1035580053FC2B46009603220121052024F04CFC45
:10356800002003F03DFB574B1B682820D877192013
:1035780083F820005A2083F824004B2083F8350074
:103588004FF49670A3F85000A3F85200A3F8440033
:103598001C214FF0000E42F2107083F82310C3F87C
:1035A80054E02D219864412264204FF0010E83F8E5
:1035B80021209977322283F8251014270A214626DC
:1035C8002325A3F83EE083F839004FF4FA7E83F808
:1035D8002B00962083F83410A3F858E083F83B10AA
:1035E80083F8222083F8264083F8337083F84060FC
:1035F80083F843509C87DC6483F8272083F82840AD
:1036080083F8294083F83A2083F82A2083F82C107D
:1036180083F82D0083F82E7083F82F602A4B1B68DF
:103628003C20187236201A709872D8724FF4C8620B
:1036380024205D7218735C7099709A80234B1878F7
:1036480003F0CEFA03B0BDE8F0430FF009BBB4F9BC
:103658000230002B4FF00001204603DBFDF7ACFCE5
:103668001434A5E6FDF7A8FC01212046FDF7A4FCCB
:1036780002212046F2E700BF805D030804610308C9
:1036880065340308D2460020487B002044430020CC
:10369800584300206C4300206A43002080430020E8
:1036A800F8440020E06F0020C04C00207C38002047
:1036B8001819002083350020084D0020A47300202D
:1036C8001C4B0020704C0020D44C002034350020C6
:1036D800074B1B68597A4A1C1944D2B25A7288722D
:1036E800197A914202D81846FDF7CCBB704700BF43
:1036F800603C002038B5094D441E14F8011F01B97B
:1037080038BD2868427A531C0244DBB24372917276
:10371800027A9A42F1D8FDF7B5FBEEE7603C00204B
:1037280008B504460648FFF7E5FF064B1868FDF79D
:10373800A9FB054B186819F04BF8204613F00AFE50
:103748006E340308603C0020643C002010B5044639
:103758000748FFF7CFFFFFF727FE03F05FFA054999
:103768002046FFF79AFD08B9FFF7DAFF10BD00BF42
:103778007A3403081B380308044808B5FFF7BAFF72
:1037880003F04CFA0020FFF7CBFF00BF903403088A
:1037980008B5084B1868FDF775FB074B00241C702B
:1037A800064B1C60064B1C7019F0E4FB2046FFF723
:1037B800B7FF00BF603C00206C3C0020683C002044
:1037C8009976002008B50120FFF7AAFF08B504483C
:1037D800FFF790FF034B1868BDE80840FDF752BBA0
:1037E80097340308603C0020004883E77B3C0308CB
:1037F80038B5064D002455F834000134FFF77AFF38
:10380800FFF7F2FF232CF6D138BD00BF80F902087C
:1038180010B5064C0B46024605492068FDF773FFB4
:103828002068FDF72FFBBDE81040DDE7603C002075
:10383800613300080FB407B504A951F8040B0191CE
:10384800FFF7E6FF03B05DF804EB04B070472DE91D
:10385800F0411048104E114FDFF84880FFF7EAFF9B
:103868000125002474B90E4BDA689200D2F5806203
:1038780005D056F824103846FFF7DCFF06E001347F
:103888000135EFE758F82420002AF2D1232DF6D18C
:10389800BDE8F0819C34030858E60208B2340308F6
:1038A80018190020281900201FB5094B0293094B4D
:1038B8000193094B0093094A094B0A490A48FFF743
:1038C800B9FF0A490A4805B05DF804EBB2E700BF42
:1038D800EB340308F3340308FC340308C634030844
:1038E800C0340308CE340308D3340308083503086A
:1038F800493503082DE9F04F5448554D8DB0FFF771
:1039080099FF0026B046B146524B1A6800239342ED
:1039180023DB0136122E05F14805F5D14E4988689A
:10392800CA680C680969400940EAC2624FF47A73B0
:103938004A48B4FBF3F3FFF77DFF0A2298FBF2F342
:1039480002FB138099FBF2F1009002FB11924448AC
:10395800FFF770FF0DB0BDE8F08F424951F8231012
:103968008D4201D00133D2E7AC6A5CB107EE904AD0
:10397800DFED3D6AF8EEE77A86EEA77AFDEEC77AC4
:1039880017EE904A2F6B6A6BEB6BD5F838A07F095E
:1039980047EAC26752090B922146E217CDE908129D
:1039A800099A63430AFB0233A4FB0A0141F2883BEC
:1039B8001BEB000B19444FF0000C4CEB010C4FF4BF
:1039C8007A7200235846614627F004FF0B9B099A38
:1039D8000A90634307FB0233A4FB070141F2883BCB
:1039E8001BEB000B19444FF0000C4CEB010C0023AF
:1039F8004FF47A725846614627F0ECFE032E18BF42
:103A08000A9B0A99019718BF99444FF47A722B6C54
:103A1800B3FBF2F306934FF00A0318BF804490FB00
:103A2800F3F203FB120004920A9A92FBF3F203FBEF
:103A38001213059003930292CDF800A023462A683A
:103A48000A483146FFF7F6FE63E700BF5235030820
:103A5800F8010020E002001000000010CE35030835
:103A6800F0350308E402001000247449993503086E
:103A780010B50C4C03461846FFF7D0FB30B10A4B83
:103A88000A485978BDE810400131D3E61846FDF7D9
:103A980087FB0138022804D8C0B203F00DFA234688
:103AA800E9E710BDF2470308343500201E36030845
:103AB80010B50C4C03461846FFF7B0FB30B10A4B63
:103AC8000A481978BDE810400131B3E61846FDF7F9
:103AD80067FB0138022804D8C0B203F0FCF923467A
:103AE800E9E710BDF24703083435002026360308FD
:103AF8002DE9FF410A480488856846888788D0F8F8
:103B08000C8025F023FF8DE88001029033462A4679
:103B180021460448FFF78EFE04B0BDE8F08100BFDF
:103B2800C009002031360308F8B5437913F0C00204
:103B3800044602D0402A17D0F8BD03F00F03062B25
:103B480006D123F0B1FFBDE8F8400146164871E6FA
:103B580023F0C2FF0546204623F0A6FF2946024669
:103B6800BDE8F840114865E683791148114E124FB7
:103B7800202B96BF114D002505EBC305FFF7BAFDB5
:103B880000242B799C4202D3BDE8F8402CE614B1FE
:103B98003046FFF7AFFD2B68384653F82410FFF77F
:103BA800ECFB0134EDE700BF8C3603089C360308B4
:103BB800B3360308C33603084E3B03084C250308F5
:103BC80070B54379164603F00F028AB00546062AF7
:103BD8004CD8DFE802F0041316181B1D49000C78B6
:103BE80013F0C00344D0402B3CD12146284623F093
:103BF80043FF002856D0FFF7C0FB33E091F900409F
:103C0800EEE70C88ECE7B1F90040E9E70C68E7E774
:103C180091ED000A6846FDF767FB01462648FFF765
:103C2800ACFBFEB16B7913F0C00F1BD1284623F013
:103C380053FF07EE900A6846B8EEE70AFDF754FB13
:103C480001461E48FFF799FB284623F02DFF07EE93
:103C5800900A6846B8EE670AFDF746FB0146174822
:103C6800FFF78BFB0AB070BD1348F9E70024B7E7EC
:103C7800042A0CBF124813482146FFF77EFB002E8A
:103C8800F0D06B7913F0C00FECD1284623F024FF55
:103C98000446284623F008FF214602460A48FFF753
:103CA8006CFBDFE76946284623F0AFFF6A462146EA
:103CB8000648FFF7BFFDD5E74F3B03084E3B030817
:103CC800B0360308FA3B0308C5360308CC360308A8
:103CD80038B50D46044623F05DFF2A4601462046C6
:103CE800BDE838406CE72DE9F04F81468DB0884635
:103CF8000026474BF418474B1868FDF7C3F894F8AB
:103D080005B00BF030034B4549D1204623F020FF86
:103D1800FDF75EF90546204623F0F0FEAA680192F9
:103D280017188246204623F035FF0BF00F01054691
:103D3800019A062968D8DFE801F0043A3F43484C65
:103D48005A0012F80A200378D31AD3F1000A4AEB72
:103D5800030A18F0200F02D0BAF1000F1FD102A9F0
:103D6800204623F052FF18F0400F0DD0BAF1000F93
:103D78000AD102A92848FFF700FB524629462046E7
:103D8800FFF71EFFFFF730FD02A92448FFF7F5FAF9
:103D9800002239462046FFF713FFFFF725FD0936B5
:103DA80040F6E2339E42A4D10DB0BDE8F08F12F97F
:103DB8000A2090F90030C7E732F80A200388C3E7E1
:103DC80032F90A20B0F90030BEE752F80A20036839
:103DD800BAE797ED007AD0ED007AB4EE677AF1EEA3
:103DE80010FA0CBF4FF0010A4FF0000AB1E7204665
:103DF80023F05AFE2946421C38462AF063FBB0FAE3
:103E080080FA4FEA5A1AA4E74FF0000AA1E700BF68
:103E1800CCFA0208603C0020E9360308EA360308B9
:103E2800022810B50C460CD802F0C2FE054B064815
:103E380059780131FFF7FEFC21463020BDE81040DB
:103E480051E710BD34350020F4360308022810B5B8
:103E58000C4610D802F0C4FE074B08481978013107
:103E6800FFF7E8FC21461020FFF73DFF2146202000
:103E7800BDE8104037E710BD34350020FC36030894
:103E88000CB407B510F0400009D069B92320FFF73A
:103E98001FFC05A904980191FFF7BAFC012003B0A3
:103EA8005DF804EB02B070470020F8E70CB4830615
:103EB80007B500D551B905A904980191FFF7A8FCE9
:103EC800012003B05DF804EB02B070470020F8E76A
:103ED8002DE9F04F824687B091460E4615460027D9
:103EE800337896F9028004937378059396F803B0B3
:103EF800B8F1000F34D0B9F1000F36D02B78049CFC
:103F08006A7895F90210E8789C422CD1059C944275
:103F180029D1884527D1ABEB000EDEF1000444EB34
:103F28000E040390029101920093114A3B462146E8
:103F38005046FFF7A5FF059B0193049B0093CDF81E
:103F48000CB03B46CDF80880094A21465046013757
:103F5800FFF7ACFF102F06F1040605F10405BFD1E9
:103F680007B0BDE8F08F0024DBE74C46E3E700BF6D
:103F7800093703082DE9FF47DFF89CA081469046E2
:103F88000D4616460027B8F1000F42D0B5F90020BB
:103F9800B6F900309A4296F9062038D1B5F90200F0
:103FA800B6F90210884232D1B5F90400B6F9041006
:103FB80088422CD195F90610881A41424141039252
:103FC800B6F904200292B6F90220019200935246F3
:103FD8003B4648460C46FFF753FF95F906300393D6
:103FE800B5F904300293B5F90230019335F9083B6D
:103FF800009352463B46214648460137FFF756FF95
:10400800082F06F10806BED104B0BDE8F0870021EC
:10401800D5E74446E1E700BF1D3703082DE9F04F17
:10402800DFF8B0A085B080460F4614460026062368
:10403800734303930025039B2B44FA1892F8C0B0EE
:10404800002C42D02344524693F8C0300193ABEB86
:104058000301D1F1000949EB0109009533464946AE
:104068004046FFF70DFF8DE8200833465246494683
:1040780040460135FFF71AFF062DDCD10136062E22
:10408800D5D107F1E40A134F00251AF8019BF4B1C2
:104098006319404693F8E4300193A9EB03025642B2
:1040A8005641009506233A463146FFF7E9FE8DE86A
:1040B800200206233A46314640460135FFF7F6FE10
:1040C8000B2DE2D105B0BDE8F08FA146CBE726461F
:1040D800EDE700BF323703082DE9FF47DFF86CA092
:1040E800814690460E4615460027B8F1000F2AD0A3
:1040F8002B8832889A4224D174886A88A21A54423A
:104108005441EA780292AA780192009352463B46BB
:1041180021464846FFF7B4FEF3780293B37801933B
:1041280036F8043B009352463B4621464846013741
:10413800FFF7BCFE102F05F10405D6D104B0BDE889
:10414800F0870024DDE74446E6E700BF463703086A
:104158002DE9F04FDFF868808FB007468A4616468B
:1041680000240DF124095AF824300293494602A884
:1041780026F032F816B356F82430029D0393EB1A52
:104188005D420DF1100B5D41594603A826F024F855
:10419800CDF800B02346424629463846FFF770FE60
:1041A8002346CDF800904246294638460134FFF7A9
:1041B8007DFE202CD7D10FB0BDE8F08F3546EFE754
:1041C800583703082DE9F347DFF868A081460F4602
:1041D800904602260024B8F1000F28D037F8242092
:1041E80038F824309A4238F806201ED1BD5BA91A47
:1041F8004D424D4101920093524623462946484676
:10420800FFF73EFEBB5B019337F82430009352461C
:104218002346294648460134FFF748FE042C06F198
:104228000406D8D102B0BDE8F0870025E2E745468C
:10423800E8E700BF623703082DE9F04F2DED088B42
:10424800DFF80C9197B0804692460D46144600263A
:1042580095ED008AB5EE408AF1EE10FA71D0D5EDF1
:10426800019A95ED029AD5ED038ABAF1000F3FD075
:1042780094ED000A94ED01BAD4ED02AA94ED03AAD4
:10428800B4EE408AF1EE10FA60D1F4EE4B9AF1EEFA
:1042980010FA5BD1B4EE6A9AF1EE10FA56D1F4EE48
:1042A8004A8AF1EE10FA0CBF0127002712A8FDF781
:1042B8001BF8B0EE4B0A83460EA8FDF715F8B0EED2
:1042C8006A0A05900AA8FDF70FF8B0EE4A0A0490AA
:1042D80006A8FDF709F8049A059B0390029201933A
:1042E800CDF800B033464A4639464046FFF7C8FD88
:1042F800B0EE480A12A8FCF7F7FFB0EE690A0746C5
:104308000EA8FCF7F1FFB0EE490A83460AA8FCF7AD
:10431800EBFFB0EE680A049006A8FCF7E5FF049BE3
:10432800039002938DE8800833464A4600214046B0
:104338000136FFF7BBFD0C2E05F1100504F1100442
:1043480086D117B0BDEC088BBDE8F08F0027ADE72C
:10435800733703082DE9F04F834687B092460C4621
:10436800164600274FF019094FF46178BAF1000F8B
:104378004DD0A378B17832798B42337845D1207803
:10438800984242D16578707885423ED1E578F078D8
:1043980085423AD12079904237D165797079281AC7
:1043A800454245410592F27804927278019119FBD1
:1043B800028219FB03830392029373790093154ACF
:1043C8003B4629465846FFF75BFD23790593E3787A
:1043D800049363780F4A19FB03830393237819FB2B
:1043E80003830293A37801936379009329463B469C
:1043F80058460137FFF75AFD0C2F04F1060406F161
:104408000606B3D107B0BDE8F08F0025CAE75546C8
:10441800DBE700BF873703082DE9F04F354FDFF89A
:10442800DCA087B0814690460C46164602F13C0B4C
:1044380094F90420002330495956914254D00C3342
:104448003C2BF8D10C365E4504F10C04F0D107B0D2
:10445800BDE8F08F96F90430F1799A42326841D17B
:10446800206890423ED16579707985423AD1A57924
:10447800B079854236D1257A307A854232D1E579CC
:10448800681A4542454157F821100491317A57F886
:1044980021100391B17957F8211002917179009296
:1044A80057F821100191524629464846FFF7E8FC83
:1044B800E27994F9043057F822200492227A57F8C6
:1044C80022200392A27957F822200292627957F8A3
:1044D8002220019222680092294652464846FFF758
:1044E800E5FCAFE70025CEE7B8F1000FB2D14546AD
:1044F800DEE700BFC0200308887B0020A53703083B
:104508002DE9F04F834685B092460D4616460027A2
:104518004FF019094FF46178BAF1000F3DD02B78AC
:1045280032789342F37836D168787178884232D1FC
:10453800A878B17888422ED1EC78E11A4C424C41E7
:1045480019FB03830393B37819FB038302937378EE
:1045580021468DE80C0058463B46114AFFF790FC6F
:10456800EB780F4A19FB03830393AB7819FB03839A
:1045780002936B78019315F8043B009321463B4660
:1045880058460137FFF792FC142F06F10406C3D1F1
:1045980005B0BDE8F08F0024D2E75446E0E700BF3D
:1045A800C23703082DE9F04F0E468DB07349044613
:1045B800FEF773FE0546002840F0AA8070492046A1
:1045C800FEF76BFE0546002840F0A4806D492046A2
:1045D800FEF763FE0546002840F09E8020466A49A3
:1045E800FEF75BFE0028054612BF1024254601246D
:1045F8000EB144F02004654B654E93F8009093F893
:104608000180644F0193BE42C0F08880FEF7CCFE63
:10461800484602F0E5FA404602F0CAFA5E492846E2
:10462800FEF73BFE08B144F0400414F0110F00F00F
:1046380097810020FFF738F904F03003302B02D1BE
:104648005648FFF7F7F8564D564AD5ED007ADFF889
:1046580078A1DFF878B1F5EE407AF1EE10FA0CBFE8
:10466800012100212046FFF721FC2A464E4D4F49E3
:104678002046FFF7E1FD95F902104D4AB1FA81F1A4
:1046880049092046FFF712FC2A464A492046FFF707
:104698001FFC494A49492046FFF76CFC484B1E68F5
:1046A800484B1F684FF000085AF82850002D43D196
:1046B800DFF81CA1A84667EA060B434B53F82850BD
:1046C800002D00F087802B78FBB14FF0010909FA23
:1046D80008F917EA090F0BD066EA070313EA090F6E
:1046E80052462B4614BF012100212046FFF7C8FB84
:1046F80016EA090F09D01BEA090F2B46524614BFC8
:10470800012100212046FFF7D1FB08F10108D4E779
:1047180001246DE702246BE7042469E77288B06816
:10472800716812F4004FC2F30B0218BF02EB420289
:1047380027F01EFC143666E72B78DBB14FF0010931
:1047480009FA08F967EA060313EA090F14BF0121F9
:1047580000212B465A462046FFF792FB66EA0703DC
:1047680013EA090F5A462B4614BF0121002120469F
:10477800FFF79CFB08F1010896E700BFEA3703083A
:10478800F9370308F13703080138030834350020E6
:10479800805D03080461030805380308123803081C
:1047A800D029002024380308C1450020B42A00205D
:1047B800333803089447002002460020544700205D
:1047C800F83600207C350020E4E60208403803086B
:1047D8004C380308794BDFF840821E68784BDFF8C5
:1047E8003C921B687340DB4303934FF0010B039A21
:1047F8000BFA05F31A4218BF5F46724A08BF002732
:10480800334002934FF00C0303FB05233946D3F8DA
:1048180008A014BF42464A4653462046FFF730FBDD
:10482800029A5346002A14BF4A4642463946204651
:104838005D44FFF73BFB162DD7D100236248634E3A
:10484800634F8DF820308DF810308DF821308DF8B9
:1048580011308DF822308DF812308DF823308DF814
:1048680013305D460BEB06021BF8003012F8011CF2
:104878000CAA1A440DF1300E02F8201C1BF8072070
:1048880096440EF8101C2DB1A3EB020EDEF10005C4
:1048980045EB0E050BF1010BBBF1050FE2D100262C
:1048A80008AB4C4A8DF8146029462046FFF7E8FA11
:1048B80004AB484A29462046FFF7F8FA464A4749D2
:1048C8002046FFF7A9FD464A46492046FFF740FC27
:1048D800454A46492046FFF7FFFB414A41492046E1
:1048E800FFF79CFB424A43492046FFF709FE424A2C
:1048F80042492046FFF72EFD414A42492046FFF72C
:1049080061FC21463046FFF7EEF9E1063DD5019BF3
:10491800214630461F785D78FFF798FA2146012036
:10492800FFF794FA21460220FFF790FA2146304615
:10493800FFF776FA21460120FFF772FA2146022096
:10494800FFF76EFA384602F04BF9284602F030F9C4
:10495800791C2D48FEF76EFF691C2C48FEF76AFF8C
:10496800A20704D5019B21461878FFF76FFA630761
:1049780004D5019B21465878FFF752FA244C254B61
:104988009C420DD30DB0BDE8F08F019B21461878ED
:10499800FFF75CFA019B21465878FFF741FADFE7F9
:1049A80062886068A16812F4004FC2F30B0218BF56
:1049B80002EB420227F0DCFA1434E0E7D447002087
:1049C80060450020801A0308A4430020141C030833
:1049D8008043002057380308487B0020E8830020E4
:1049E800FC300020FC3300207C3100207C34002087
:1049F8001C4B00201A4C002086290020742B002014
:104A08000A4C0020FA4B0020263603081E360308FD
:104A1800805D030804610308D5370308DF370308FE
:104A28000121BFE50021BDE5F7B50746FEF7F6FB16
:104A3800044630B1002222490120FFF761FD03B08E
:104A4800F0BD3846FCF7ACFB1328054630DC860081
:104A5800781C8DF80740FEF7E9FB194C074640B172
:104A6800FCF79EFB28289EBF012304F825008DF83B
:104A780007303846FEF7DAFB074650B1FCF790FBE3
:104A88000D2806D8A31958709DF8073001338DF802
:104A98000730B11C0DF1070221443846FEF7D3FB5D
:104AA8009DF80730042BCAD0002344F82530C6E708
:104AB8001323224603490448FEF7BCFEBFE700BFA4
:104AC8001C4B00205E3803086438030808B5FEF75D
:104AD80011FEBDE80840FEF787BE2DE9F043964B6E
:104AE80096481968964CDFF80883A9B04FF47A7392
:104AF800B1FBF3F1FEF79EFE07A8FCF741FD914BD1
:104B080007A9B3F900200AA825F0F0FA0AA98E48E7
:104B1800FEF790FE10F01AFB6422B0FBF2F102FBE4
:104B280011028A488A4B00781B7804EB800092B205
:104B3800D0F81001009089B28648FEF77BFE864BBC
:104B480086481968864BB1FBF3F1FEF716FC854BD6
:104B58001E68002504F5907704F59E790123AB4083
:104B680033420BD057F8253043B118F8052059F8CF
:104B7800251053F822207C48FEF7FFFB0135072D4E
:104B8800ECD1FEF731FE7948754DFFF79FFF14A869
:104B9800FEF730F814997648B1FBF5F1FEF74AFEB6
:104BA80015997448B1FBF5F1FEF744FE1699724861
:104BB800B1FBF5F1FEF73EFE17997048B1FBF5F130
:104BC800FEF738FE10F024F904EB8000D0F86451A9
:104BD80010F03EF904EB8000D0F8646110F006F99B
:104BE80004EB8000D0F8647110F0E2F8804610F011
:104BF800A9F804EB800004EB8804D0F8643103932F
:104C08005F4B0293D4F8643101932A4633460097E8
:104C18005C495D485D4D5E4E5E4FFEF70BFE5E4B98
:104C28005E4A1C88EB685E495E489B00C3F580635A
:104C3800FEF700FE5C4A5D4B5D48A4B2D31A2146DC
:104C4800B5F89C205B4DFEF7F5FD5B48FFF73EFF8E
:104C5800002455F824103046FEF78FFB3846FEF73F
:104C680049FD564BE15C4FEA8408002957D1544866
:104C7800FEF740FD5348FEF73DFD534B58F803102F
:104C8800002950D14E48FFF721FF0134042CE0D110
:104C98004E4B4F481988FEF770FB4E4B1A6F002A8F
:104CA80045D007EE902ADFED4C6AF8EEE77A86EEFB
:104CB800A77AFDEEC77ACDED047AD3F8B820002A9A
:104CC80037D007EE902ADFED446AF8EEE77A86EEF1
:104CD800A77AFDEEC77ACDED057A9B6A5BB107EE40
:104CE800903ADFED3D6AF8EEE77A86EEA77AFDEEB8
:104CF800C77A17EE903A394A394811880093049ACE
:104D0800059BFEF797FD374B3748196821F0784126
:104D180021F07F01FEF78EFD29B0BDE8F08333480E
:104D2800FEF72BFBA6E73148FEF784FDADE70492BA
:104D3800C3E70592D1E700BF4C7300208138030810
:104D480058E60208C47B00209B380308FB3100208A
:104D58008C380020AC38030828090020CF38030815
:104D680040420F00345D0020DF380308E7380308AD
:104D7800FC3803080E3903082039030832390308C0
:104D88009A390308443903084739030818190020D9
:104D9800243A03082C3A0308FC7200200020001073
:104DA800001800009F3903080000040800E8030801
:104DB800D7390308CCE70208113A03083627002040
:104DC800483B0308423A030898380020D8010010ED
:104DD8004C3A0308F801002000247449C42B002031
:104DE8005C3A0308285C0020993A03083B3A030818
:104DF800513800202DE9F0430024DFF86080DFF807
:104E080060908BB00746254604EB08066946304695
:104E180022F0FBFE3946684629F08DFB78B16946D9
:104E28004846FEF7AAFA00213046FEF751FFFEF782
:104E3800DBFC3046FEF778FEFEF7D6FC0135093478
:104E480040F6E2339C42DFD115B90348FFF73EFE36
:104E58000BB0BDE8F08300BFB63A0308CCFA0208ED
:104E6800EE3603082DE9F0472DED028B8AB0804617
:104E780025F088FE054628B1012824D198F800308D
:104E88002A2B20D18948DFF84482894FFFF71EFE7C
:104E9800002404EB08066946304622F0B6FE69464F
:104EA8003846FEF76AFA29463046FEF711FF0934FC
:104EB800FEF79AFC40F6E2339C42EAD10AB0BDEC18
:104EC800028BBDE8F0873D21404629F0E5FA00282D
:104ED80000F0DF80034613F8012C202A03F1FF318C
:104EE80030D0A3EB0803441C2278202A04F10101E6
:104EF8002AD0DFF8D8A10027DEB207EBC705554452
:104F08006946284622F081FE684625F03BFE694640
:104F1800814602464046FCF729F9002840F0BD804A
:104F2800B14540F0BA806B7903F00F08B8F1060F6D
:104F38000CD1204625F026FE21460246284622F0BE
:104F480036FEBBE70B46C6E70C46CDE713F0C003B9
:104F58000AD0402B5ED05748FEF7CCFB2846FEF718
:104F6800E3FDFEF741FCA9E72378002BF3D0524973
:104F7800204629F0CEFA0646204625F003FE864252
:104F8800E9D12046FCF729F92846B0EE408A22F0FC
:104F9800A3FD07EE900AF8EEE77AB4EEE78AF1EEA1
:104FA80010FAD8DB284622F07FFD07EE900AF8EECB
:104FB800677AB4EEE78AF1EE10FACCD8B8F1050FAB
:104FC80017D0B8F1040F1FD1214614F8013B202B4C
:104FD800FAD0092BF8D0013900230A2011F8012F43
:104FE800303AD2B2092A02D800FB0323F6E708EECA
:104FF800103A284622F0CEFDB8F1050F36D8DFE882
:1050080008F032323E3E42452046FCF7C9F808EE29
:10501800100AEEE7AB799FED298A202B96BF284E20
:10502800064606EBC306002796F804A03B46B94699
:10503800574503D3B9F1000FDBD18CE7002BF9D129
:1050480033686FF0004253F827002146FCF78EF8CA
:10505800002808BF08EE107A0ABF012300234FF08A
:1050680001090137E4E718EE103A0370694615485C
:10507800FEF783F900212846FEF72AFE1EE718EE00
:10508800103A0380F2E780ED008AEFE780ED008AAE
:10509800ECE74046FFF7AEFE10E70137B7F5A97F0A
:1050A8007FF42BAF0848FFF711FD07E7C33A030861
:1050B800EE360308EE3A0308D53A0308000000006C
:1050C8004C250308E33A0308B63A0308CCFA020869
:1050D80070B50346FEF7A2F830B3254B1C680134BF
:1050E800172C05D823490C2202FB041295686DBBC6
:1050F800204A25460C210135172D0EDD002501FB20
:105108000520866856B11D6017F04CFC32462946CA
:105118001948FEF78FFB2C4621E0F0D9A542EAD1C9
:105128001648BDE87040D1E41846FCF739F817284E
:10513800044605D80F4A0C2303FB00239D682DB9AC
:1051480021460F48BDE87040FEF774BB084B1C6051
:1051580017F028FC2A4621460748FEF76BFB0C236C
:105168005C43044B185DBDE8704017F031BC00BFCC
:1051780034000020801A0308273B0308FD3A03087F
:10518800113B03082DE9F74F804625F0FBFC474DFE
:10519800DFF844912F680446F0B94548454EFEF7BC
:1051A800ECF8012519F80430013B05FA03F33B42FA
:1051B80009EB040203D091683046FEF7DEF80C34A0
:1051C800B4F5847FEED117B93B48FEF793FA03B0E4
:1051D800BDE8F04FFEF708BB024638494046FBF7EA
:1051E800C5FF064670B93648324DFEF783FA09EB1B
:1051F8000603284699680C36FEF7BFF8B6F5907F87
:10520800F5D1E4E798F800302D2B03BF08F1010829
:1052180004F1FF344FF0010A4FF0000A00260C2376
:1052280003FB069B0193DBF80830009319462246DE
:105238004046FBF79BFF019B00282FD1BAF1000FD6
:1052480019D0162E0BD11F4B2B601F48FEF752FAB0
:1052580000991E4803B0BDE8F04FFEF7EBBA172ED1
:1052680001D16B68F0E79BF800305A1E0123934088
:105278001F432F60E9E7162E03D1C5F800A0144894
:10528800E4E7172E17BF9BF800306F6003F1FF3279
:1052980001231EBF93409F432F60F0E70136182E6D
:1052A800BED10C4803B0BDE8F04F0FE460450020C4
:1052B8003C3B03084D3B0308463B0308523B0308AD
:1052C800573B0308FFFF3F00623B03084E3B0308C0
:1052D8006B3B0308B63A0308801A03082DE9F84324
:1052E800054625F04FFC0446D0B9314B31481D68BE
:1052F800314EDFF8D480FEF7FDF9012756F8241067
:1053080051B10B7833B107FA04F32B4202D040466F
:10531800FEF733F80134F1E7BDE8F843FEF764BA65
:10532800024626492846FBF721FF78B92448254C30
:10533800254DFEF7DFF954F8041F0029ECD00B784F
:10534800002BF8D02846FEF718F8F4E72B78DFF89A
:1053580068902D2B03BF013504F1FF344FF001088D
:105368004FF00008002659F8267027B91748BDE8FD
:10537800F843FFF7ABBB224639462846FBF7F6FE53
:1053880098B90120B040B8F1000F0AD0FBF732FEFF
:105398000F48FEF7AFF939460E48BDE8F843FEF767
:1053A80049BAFBF72FFE0C48F3E70136DBE700BFED
:1053B8007C350020733B0308E4E60208523B0308EF
:1053C800813B0308E0E602087D3B0308B63A030880
:1053D800623B03084E3B03086B3B03082DE9F34788
:1053E800204E21483768214CDFF89080DFF8849000
:1053F800DFF88CA0FFF76AFB0025BD4202DB02B094
:10540800BDE8F08733689D4229DCA288D3B2172B08
:1054180018D808EB8303D3F88431002B08BF4B4618
:1054280021685046FDF7A9FFE3885A040CD5E089A6
:105438000090A389628921890D48FEF7FBF901359F
:105448001034DAE70B4BEBE71B0405D5E268A168DB
:105458000948FEF7EFF9F2E7FEF7C6F9EFE7002390
:105468009B88FFDE802400208D3B030880200020DD
:10547800C83B0308F2470308DA3B030858E602086A
:10548800B93B03080148FFF721BB00BFE43B030811
:10549800F7B50346FDF7C2FE044618B1FFF7F2FF61
:1054A80003B0F0BD01AA1D491C4F184626F004FFA1
:1054B8002646254640B90B2D18D919490B23024613
:1054C8001848FEF7B7F9EBE744B1012C0AD001AA56
:1054D80039460020013426F0EFFEEBE7FBF760FECB
:1054E8000546F4E7FBF75CFE0646F0E7022C0DD113
:1054F800A6F57A73B3F57A7F05D94FF4FA634FF4BA
:105508007A720949DCE7094B23F81560074B08480C
:1055180033F915202946FEF78DF9C1E7434C0308F6
:105528005E38030864380308D8530308BA460020D5
:10553800F03B03082DE9F341044625F023FB04283A
:105548003DD1631EE11C5A78A2F16100192898BF69
:10555800203A03F8012F8B42F5D1DFF874802546F5
:10556800271D15F8016B4046314628F095FF20B1FC
:105578003146284628F090FF20B1FFF783FF02B09C
:10558800BDE8F081BD42ECD1204619F08FFA0E48F3
:105598000E4CFEF7AFF80E4800231A1902A95278EC
:1055A8000A44195C02F8081C0133042BF5D10023C6
:1055B800694608488DF80430FEF73CF9DFE7002813
:1055C800E5D0FFF75FFFE2E7FD3B030880430020DB
:1055D800141C03084F3B030870B58AB0044625F035
:1055E800D1FAC2B22AB926490120FEF771FC0AB0E5
:1055F80070BD052223492046FBF7B8FD40B91520A8
:10560800FBF7E6FC0028F2D01D49FBF7B3FCEEE7F8
:10561800204601AA1C491C4E26F04EFE002402AD6D
:1056280078B1052C02D1FFF72DFFE0E7FBF7B8FDB5
:1056380001AA45F824003146002026F03DFE013439
:10564800EEE7052CEFD1029A0F2AECD8039D072D1F
:10565800E9D8049C162CE6D8059800F17D03FA2BAE
:10566800E1D80699FF29DED8054B03F8225003EB51
:10567800820398705C70D9700448FFF7ADFFB6E7F5
:10568800C1450020033C0308434C0308F2470308C4
:105698007FB50546FDF7C2FD98BB04462B78002B65
:1056A80037D1052C3DD1BDF90440A3B2072B38D81A
:1056B800BDF90610A1F2EE239BB240F2DC50834202
:1056C8002FD8BDF90820A2F2EE239BB2834228D836
:1056D800BDF90A00814224DC824222DB914220DCAF
:1056E800BDF90C5005F17D039BB2FA2B19D8194B63
:1056F80023F8341003EBC4035A8098809D7104B0DA
:1057080070BD14490022012004B0BDE87040FEF7C6
:1057180031BC2D2B03D0A3F13002092A15D8042C53
:1057280003DD04B0BDE87040ACE62846FBF738FD61
:1057380004AB661C03EB440424F80C0C15F8013F79
:10574800303B092BFAD93446A8E7202BE9D101359B
:105758002646F8E7024600207FB50346FDF75EFDC2
:10576800044630B100221F490120FEF757FC04B05F
:1057780070BD6A461C491C4E184626F09DFD01ADB9
:10578800C0B1032C02D1FFF77DFEF0E7FBF708FD5F
:105798006A4645F824003146002026F08DFD013484
:1057A800EEE70628EFD10A2AEDD80E48104480F813
:1057B800E43012E0032CE6D1039B0F2BE3D80199C8
:1057C800029AC8B20528ECD8052ADCD8054C06256B
:1057D80005FB0040104480F8C0300448FEF72AF862
:1057E800C5E700BFFC300020434C030832370308EC
:1057F8002DE9F0410646FDF711FD044630B10022BF
:1058080024490120BDE8F041FEF766BC3046FBF7AD
:10581800C7FC0F2805462EDC3046FDF707FDDFF8EC
:1058280084801D4F064620353046FBF7B9FC38F812
:105838001430984227DC012C11D0022C13D027F801
:10584800250030462C2128F027FE064678B101367F
:1058580001230134BBB1032CE6D1BDE8F08107EB8D
:1058680085039870EDE707EB8503D870E9E7A21E7A
:1058780053425341EDE722460F2308490848BDE843
:10588800F041FDF7D7BF002347F82530BDE8F041C8
:10589800F8E500BF7C310020FC3000205E380308AA
:1058A800643803083CE802082DE9F04F87B0054644
:1058B800FDF7B4FC044638B1002256490120FEF732
:1058C80047FC07B0BDE8F08F2846FBF769FC1F28A6
:1058D800074600F398802846FDF7A8FC4D4B009436
:1058E80043F827400646A046A246A1462546A346B9
:1058F8000193494BE1B2E05C0DF10C0C0023B64674
:1059080016F8012B1AB1904210D00A2B0AD106AE14
:10591800334490424FF0000603F80C6C08D0FFF7B0
:10592800B1FDCEE703F80C200133E8E70246EEE7C5
:1059380001390EF10106032932D8DFE801F04E1FC4
:10594800025BDFF8E8C00DF10B004FF0010E10F814
:10595800011F49B30023314AD25C8A4203D0013384
:10596800072BF8D15346002212F80CA08A453DD1E6
:105978000EFA02F248EA02089A46E8E70DF10B012E
:105988004FF0010C11F8012F72B10023244813F8CD
:1059980000E0964526D10CFA03F349EA0309F1E73A
:1059A80003A8FBF7FDFB83460134052CA1D1009B1E
:1059B800019A05F00F0545EA834545EA895949EA00
:1059C8000A2A4FEA0B134AEA0838DBB248EA03030B
:1059D80042F827300DF044F973E703A8FBF7E0FB22
:1059E8000546E1E70133062BD0D1CBE70132062A81
:1059F800BAD1C1E703A8FBF7D3FB03460F28C8BFFA
:105A080000230093D0E71F23224606490648FDF7E6
:105A180011FF56E7FC30002042E802084A3103082B
:105A2800443103085E380308643803085131030819
:105A38002DE9F0410546FDF7F1FB064630B100229D
:105A480028490120BDE8F041FEF7BCBB6FF00042D9
:105A580025492846FBF78AFB70B9224B4FF47A7127
:105A68004FF4FA6219805A809980DA8019815A8134
:105A78009981DA81BDE8F0812846FBF791FB03287C
:105A8800044626D82846FDF7D1FB064668B1FBF741
:105A980087FB012507463046FDF7C8FB10B1FBF729
:105AA8007FFB25B9BDE8F041ECE40546F3E7A7F232
:105AB800EE2240F2DC539A42F4D8A0F2EE229A4247
:105AC800F0D8084B23F8247003EB84035880BDE812
