:020000040800F2
:1000000000000220551F030863C00208990F03086F
:100010001920030819200308192003080000000014
:1000200000000000000000000000000061C00208A5
:100030005FC00208000000005DC0020855DC000837
:1000400019200308192003081920030819200308A0
:100050001920030819200308858E00088D8E0008DA
:10006000192003088B8E0008898E00088DC10208B4
:100070007DC1020869C1020855C1020841C10208D8
:100080002DC1020819C1020819200308192003080C
:10009000192003081920030819200308878E000877
:1000A000B1C202088DC2020869C20208D5C20208A4
:1000B00059C2020845C2020831C2020819200308C9
:1000C0001920030819200308192003081920030820
:1000D00019200308D14E020819200308C54E020852
:1000E000838E0008192003081DC30208E5C1020819
:1000F000C1C102089DC1020809C2020805C1020867
:1001000019200308192003081DC20208192003083A
:10011000B94E020819200308192003081920030802
:10012000F1C00208DDC00208C9C00208B5C002085B
:10013000A1C0020800000000000000001920030810
:10014000192003081920030819200308D1BA02084E
:100150008DC0020879C0020865C00208AD4E0208D1
:10016000192003081920030819200308192003087F
:1001700019200308192003081920030800000000B3
:10018000000000001920030800000000000000002B
:1001900019200308000000000000000019200308D7
:1001A000000000000000000000000000192003080B
:1001B000192003081920030819200308192003082F
:0401C00019200308F7
:0801C400B01A03000100000065
:1001CC009C1D0020020B000000022400C81D002012
:0801DC00020F000000022800E0
:1080000083681A68937A0133DBB20A2B937205D91D
:1080100050780349002321F810309372704700BF55
:108020006E37002070B54F4C237814200133B3FB1A
:10803000F0F200FB123323704B4B5D68186D9A68A9
:10804000A94208440CD293F85850002D00F08580C6
:1080500000F58030824238D3C2F5803202440AE013
:108060008242F9D293F85850002D0CBF00254FF4EE
:108070008035821A521B59606178DA600022013122
:1080800083F858201422986091FBF2F002FB101143
:108090006170A178D868013191FBF2F502FB1512ED
:1080A000A27040F68C2290423CD9197893F9552061
:1080B00091422BD10A1F0C2A28D893F85620182A4F
:1080C00006D8013283F8562004E04FF48035D0E71B
:1080D00083F8541093F9542091420FD193F857002C
:1080E00060B1224C224D0020904211DB2048002438
:1080F0000F2A13DD1F48027801320270012283F833
:10810000572083F8551000221A7070BD0022D9E75D
:1081100054F8046F25F810600130E5E720F81240AC
:108120000132E5E793F85720DAB1A0F2EF2140F2EF
:10813000DA52914207D81A780F2A04D8111D013259
:1081400043F82100E0E7002283F8572010469918F1
:108150000432402A0861FAD170BD8242BFF47CAF7C
:1081600087E770BD48140020B4260020C0260020F8
:108170006E3700204C37002010B50B4803781424CC
:108180000133B3FBF4F204FB1233084A0370136D9E
:1081900001330B4413654FF6FF73994204BF01236B
:1081A00082F8583010BD00BF48140020B4260020CB
:1081B000012070470120704770B5114C05460E46EE
:1081C00000220023D4E9020129F028FB20B10AA3F0
:1081D000D3E90023C4E90223304629F051F8D4E959
:1081E000022329F0DDF929F04BFB04EB4504208242
:1081F00070BD00BFAFF30080ABAAAAAAAA46104088
:10820000481400200E4B98420AD0A3F578439842B8
:1082100012D003F58063984210D04FF0FF307047C2
:108220000023084A142101FB03231A8A013292B267
:108230001A82188A80B270470123F2E70223F0E71E
:108240000030014000000020F8B584894FF6FF7629
:108250004FF47A740BB90120F8BD92B11578013250
:108260000789BF070FD5ADB285814FF47A740589B0
:10827000ED0712D58589ADB209B10D700131013B11
:10828000E8E7FF25ECE7013CA4B2B442E8D1FFF7F0
:10829000B9FF003018BF0120F8BD013CA4B2B442C0
:1082A000E5D1F4E708B540F2E9330289920708D531
:1082B00089B2818140F2E9330289D20709D58089E8
:1082C00005E0013B9BB2002BEFD1FFF79BFFC0B253
:1082D00008BD013B9BB2002BEED1F6E7A0F13003C5
:1082E000DAB2092A01D818467047A0F16103052BBC
:1082F00001D857387047A0F14103052B94BF373898
:108300004FF0FF307047F0B50124B0FBF4F58D421B
:1083100003D200271CB91C70F0BD4C43F5E7B0FB3D
:10832000F4F604FB1600B4FBF1F41FB9002E01DCD7
:10833000002CEFD1092E03F1010E08DD002A14BF35
:108340003725572535441D7001377346E2E7302540
:10835000F8E703685A1C02601970704703685A1CDA
:108360000260197070472DE9F84F002B14BF4FF0D1
:1083700030094FF020090A9B141E07468846BABFF1
:1083800064424FF0010B4FF0000B13F8012B02B1C8
:10839000DCB9BBF1000F1ED1254615F1FF3516D211
:1083A00023462C460A9D5E1B05EB060A15F8011BA9
:1083B00099B9BBF1000F05D02546002D10DC002C2B
:1083C000A8BFA2445046BDE8F88F013CDDE749460E
:1083D0003846C047E1E70023E4E73846C047E3E713
:1083E00049463846C047013DE7E7D0ED006AD0ED89
:1083F000057AE6EE807AB0EE407AB0EE670AD0ED0C
:10840000037AD0ED016A67EEC07AE7EE267AD0ED06
:10841000066A77EEA67AD0ED026AC0ED057AD0ED55
:10842000047A67EEC07AE7EE267AC0ED067A7047E6
:10843000704743230B800148704700BF3C00002079
:1084400010B5074CD4F88000FF2807D005490A6B07
:10845000343123F089F8FF23C4F88030002010BDA8
:10846000000000204814002008B5D0F8E4355B6A0D
:108470009847002008BD08B5D0F8E4351B6A984736
:10848000002008BDD0F8E43510B504461B689847B5
:10849000D4F8E8359B689847002010BD08B5D0F89F
:1084A000E435DB6903B19847002008BD08B590F8B2
:1084B000123180F81331042380F81231D0F8E835F6
:1084C000DB689847002008BD10B5D0F8E8350446B1
:1084D0001B699847032384F81231002010BD70B542
:1084E0004B784C69012B27D182691568136914B93F
:1084F00064F3060305E08E68B442F9D94E6166F371
:10850000060343F400231361C478012C05D10B78D2
:108510000E6900EB83039B695E6145F004451560BD
:1085200044B94B6933B102690978506B01238B4020
:1085300003435363002070BD0B788E6800EB830308
:108540005A6D156813696CB966F3060343F400238A
:108550001361C378012B04BF0B69536145F00445D7
:108560001560E7E74E61EFE72DE9F0414A780C78B6
:108570004B69012A51D100EB840EDEF818703D687A
:108580003E6963F312061BBB62F3DC463E61C278B0
:10859000012A2CD10C697C61CC78012C07D10069AF
:1085A0008068C00554BF45F0005545F0805545F042
:1085B0000445012C3D6008D13AB99BB20333C96828
:1085C000DEF8D0009B10934222D10020BDE8F0815C
:1085D000D1F808C003EB0C02013AB2FBFCF262F3E3
:1085E000DC46CA78012A08BF62F35E76CEE7CE7811
:1085F000012ED1D0002BCFD0D0F810C00126DCF84E
:10860000348006FA04F444EA0804CCF83440C3E7A2
:1086100051F8224004600132D5E700EB84048A68F7
:10862000646D25682669ABB962F31206012363F312
:10863000DC462661C378012B04BF0B696361CB78EC
:10864000012B03D14B79A3B145F0005545F004450A
:108650002560BAE71344013BB3FBF2F363F3DC4656
:10866000C3F30903534363F31206C3F312034B61CD
:10867000DFE745F08055E9E770B501F07F05282474
:1086800004FB050104FB05040126C4F82821C4F8F5
:108690002C21002201F58E7184F81D6184F81C5193
:1086A000C4F83421C4F830311DB9FFF718FF002099
:1086B00070BDFFF759FFFAE71F4BDA6B0F2A70B551
:1086C00002F101011E4602D0D963002070BD1B4C8F
:1086D0000023F3632378002BF7D1194D2A68B2F5F4
:1086E000006F08BF2B60174B29681B68994202D1A5
:1086F00000232370E9E78CBFC1F500635B1A336484
:10870000336C402B8AB20CD9403B40313364012397
:108710002370296040230C490A448121FFF7ACFFF4
:10872000D3E7194429604FF0000131640EBF0221E4
:1087300001219BB22170EEE748140020EC6A002072
:10874000D4610020F06A0020F46A002070B5174D53
:108750002B78012B2C4603D1154E336C5BB92B7053
:108760002378022B16D100231A468121FFF784FFBC
:10877000002323700EE00F490C68402BA2B20BD9E6
:10878000403B403433640C6040230B490A44812150
:10879000FFF772FF002070BD1C440C604FF0000119
:1087A00031640ABF02219BB22970EEE7EC6A002017
:1087B00048140020D4610020F46A002010B504465B
:1087C0001346C4F83C21C4F83821022280F8112154
:1087D0000A460021FFF750FF002010BD70B501F0E0
:1087E0007F04282606FB040506FB0401C5F8883330
:1087F000002385F87443C5F88023C5F88C3385F8C9
:108800007533C37806FB0404012B08BFC5F8842325
:1088100094F8743301F55D711BB9FFF760FE002019
:1088200070BDFFF7A1FEFAE738B5282303FB01016D
:10883000074DB1F88C130446284625F0EDFA402385
:108840002A4601212046FFF7C9FF002038BD00BF9E
:108850008C14002030B54A780B780025012A2C466C
:1088600010D100EB830102FA03F3896963F30F046B
:1088700002696FF3CF350D60D36923EA0403D36136
:10888000002030BD00EB8302516D012202FA03F398
:1088900063F31F44ECE770B504460125002680F819
:1088A000445180F8455100F5A271FFF7D3FF04F55C
:1088B000677184F89C5384F89D632046FFF7CAFFD4
:1088C000022384F86C3104F5B67184F86D512046AA
:1088D000FFF7C0FF22F080FE304670BD30B54C7807
:1088E0000B78012C4FF000021DD100EB830504FA38
:1088F00003F3AD6963F30F022B681C040DD48C687D
:1089000064F30A03CC78C98864F3934361F3995301
:1089100043F0805343F400432B600369D9690A4351
:10892000DA61002030BD00EB8304656D012404FA98
:1089300003F363F31F42DFE72DE9F041044601250D
:10894000022700264FF0400880F8445180F8455136
:10895000C0F84C8180F84771A0F84A5180F848610E
:1089600000F5A271FFF7BAFF04F5677184F89C5314
:1089700084F89D63C4F8A48384F89F7384F8A0638B
:108980002046FFF7ABFF0823C4F87431032304F536
:10899000B67184F86F3184F86C7184F86D51A4F865
:1089A00072712046FFF79AFF064B1F715E7122F02D
:1089B00019FE4346044A29462046FFF70FFF30467A
:1089C000BDE8F081D40B00208C140020F8B50446DB
:1089D00000254027012680F8745380F87553C0F8AD
:1089E0007C7380F8775300F55D71FFF777FF04F52E
:1089F0008E7184F81C5184F81D61C4F8247184F8C8
:108A00001F51A4F822512046FFF768FFD4F8E8353B
:108A100084F81261A0785B6898472846F8BD0E4B31
:108A2000DA68D20310D4DA68D1060FD4DA68D20536
:108A30000ED4DA6812F0E00F0CD1DB6813F0020FED
:108A400014BF082009207047012070470620704796
:108A50000220704707207047003C024007B50923F9
:108A60008DF80730FFF7DBFF8DF807009DF8073022
:108A7000012BF7D09DF8070003B05DF804FB38B573
:108A800082681468A27803463AB90123A370A180D2
:108A90001146BDE8384026F0C9BCA08889B28142A1
:108AA00038BF5A68E1803DBF1268D26A121A091AAB
:108AB00038BF89182181064A6178208922F811007F
:108AC0000025A5700121184626F0B0FCA57238BD1E
:108AD0006E370020094B07EE901A53F82030B8EE9D
:108AE000E77A93ED040AD3ED057A10B5A7EE270ACD
:108AF000DC6829F01BFE206010BD00BF7044002020
:108B00002DE9F0410B4DDFF830802C686A690127B0
:108B100014400CB9BDE8F081B4FA84F3C3F11F032B
:108B200007FA03F658F823000368984724EA060476
:108B30006E61EEE7003C01405826002070B50A78CF
:108B400012F0600406460D462BD0202C30D1CC8884
:108B50004B7804B312060CD522461E49184622F063
:108B600003FDEA881B493046FFF728FE0024204613
:108B700070BD194AC0F89443C2F88030174AC0F853
:108B800090430323146380F81131343223460021CB
:108B9000FFF724FEEAE702221144184622F0E4FC23
:108BA000E5E74B780A2B07D00B2B0AD0062BDED13A
:108BB00026F06AF80224DAE701220949FFF7FEFDF0
:108BC000D5E78B781BB9054AC2F88430CEE726F08A
:108BD0005BF8CCE77C140020000000204814002043
:108BE000CC14002003681B6818470368DB692DE973
:108BF000F04105460E4617468BB90C463B1B3344E5
:108C0000002B01DCBDE8F081284605F067FB002859
:108C1000FAD014F8011B2846FFF7E4FFEEE7BDE8A1
:108C2000F0411847014B1868DCE700BFA44C002056
:108C300038B505460C4614F8011B01B938BD284665
:108C4000FFF7D0FFF7E70C4B1B681B0110B407D5EB
:108C50000A4B1B685B050BD55DF8044BFFF7ACBAFC
:108C6000074B53F820301BB107289CBFDB68196005
:108C70005DF8044B704700BF403C0020187B00208B
:108C8000F0270020F0B5094E34683F2C0DDC0FC8EA
:108C9000074F4FEA041E0EEB070585E80F00054B52
:108CA0001B684EF8073001343460F0BD38260020D0
:108CB00038220020F47200201FB5ADF80A30BDF84C
:108CC0001830ADF8040041F48041ADF80C3068462E
:108CD000BDF81C30ADF80610ADF80820ADF80E3028
:108CE000FFF7D0FF05B05DF804FB10B50409013CA7
:108CF000032C00F00F0215D80B4B33F8141041FA77
:108D000002F313F001000ED001209040013808401A
:108D100028F09CFF054B1B5D1844054B0C2202FB01
:108D2000003010BD002010BD045303084C49030857
:108D3000508E002010B1036882885A83704710B1AA
:108D4000036882881A83704770B5164690F90C2024
:108D5000142353430C4AD55883689A07044602D417
:108D60000069FFF7E7FF2846FFF79CFA012300227E
:108D700031462846FFF768FAA3689B0702D42069AA
:108D8000FFF7DDFF012070BD00000020F8B516469A
:108D900090F90C201F46142353430D4AD55883687D
:108DA0009A07044602D40069FFF7C4FF2846FFF77C
:108DB00079FA3B46002231462846FFF745FAA36878
:108DC0009B0702D42069FFF7BAFF0120F8BD00BF5E
:108DD00000000020F8B5164690F90C201F46142319
:108DE00053430D4AD55883689A07044602D4006954
:108DF000FFF7A0FF2846FFF755FA3B463246002111
:108E00002846FFF721FAA3689B0702D42069FFF7E1
:108E100096FF0120F8BD00BF00000020F8B51646FF
:108E200090F90C2014235343104AD55883689A07AD
:108E300004460F4606D40069FFF77CFF012000219D
:108E400004F0ECFE39462846FFF72CFA3146284656
:108E5000FFF728FAA3689B0706D40120002104F03D
:108E6000DDFE2069FFF76BFF0120F8BD0000002048
:108E700030B1036882881B691A4214BF01200020A8
:108E800070473DE63CE63BE63AE639E638E62DE952
:108E9000F3410446184616460D461F4628F096F83C
:108EA0002368E67228440022A0720092D3F814804E
:108EB00032463B4629462046C04702B0BDE8F08115
:108EC000036810B504465B689847236820469B6892
:108ED0009847A37B013BA37310BD036810B50446FC
:108EE0001B689847236820469B689847A37B0133FB
:108EF000A37310BD036810B59B680446984701230F
:108F00002373FF23637310BD30B40579022D06D19E
:108F10008368DB0758BF41F0800130BC14E70020B4
:108F200030BC704770B40679022E06D18468E4071D
:108F300058BF41F0800170BC28E7002070BC70472A
:108F400030B40579022D06D18368DB0758BF01F0E4
:108F50007F0130BC62E7002030BC70470A4B70B51F
:108F60000E46D3F88850811C89000446F2B201F005
:108F7000FC012846FFF7E4FFA1000931320A284628
:108F8000C9B2BDE87040DBE7481400202DE9F0418C
:108F90000E4E8046002406F17C07E0B200F0030389
:108FA00043450ED136F8145037F81430EB1A002B25
:108FB000B8BF5B42052B04DD2946FFF7CFFF27F83A
:108FC00014500134102CE8D1BDE8F0815814002071
:108FD00038B50F4D1022002141F2D774B4FBF0F4E4
:108FE000D5F88800FFF7ACFF012004F028FE621ED0
:108FF000D2B2FE21D5F88800FFF7A2FF012004F0CD
:109000001EFED5F8880080220021BDE8384097E791
:109010004814002070B40679022E06D18468E40753
:1090200058BF41F0800170BCD4E6002070BC70478E
:1090300073B50279022A22D103238DF8033090F907
:109040000C001F4C8DF8022004238DF804301423EB
:10905000434302A80844E3581A49002601258DF825
:1090600000608DF801508B4210F8080C09D0A1F572
:1090700078418B421FD001F580618B421DD002B038
:1090800070BD31461A8822F040021204120C1425D9
:109090001A8005FB01411A88C96822F0380231F8AC
:1090A00010101204120C0A431A801A8892B242F06D
:1090B00040021A80E3E72946E4E71146E2E700BFF1
:1090C000000000200030014010B5427A044632B161
:1090D000036800F10A01406898470023637210BDDD
:1090E000124B53F8200070B5F8B1114A062303FB68
:1090F000002393F90140621C16D01879A8B10D4ADB
:109100000D4E155DDA7864211423002061438C181C
:10911000013B36F814402A4410FA84F0F7D11423A6
:10912000B0FBF3F080B270BD002070BD2836002087
:10913000DD280020802C0020FC28002038B50320EA
:109140000D461446FFF7CCFF07EE900AB8EE677A9B
:10915000DFED0A7A27EE277A5DB1F8EE047AF0EEB9
:10916000006AE7EE267A9FED067A67EE877AC5ED0C
:10917000007A0CB1034B236038BD00BF6740533AFF
:1091800000007A443313904330B5094B0949C0B20B
:109190008B4200D330BD5A88140406D55D68DC6864
:1091A000C2F30B0200FB025222601433F0E700BF4F
:1091B000A0C3030810C7030870B5448806460D46CF
:1091C000C4F30B040021224628462BF03DFB3169F5
:1091D000084B994208D3084B994205D222462846AB
:1091E000BDE870402BF00BBB19B12846BDE87040BC
:1091F000084770BD10C703088CC90308438842683C
:1092000013F4004F1EBFC9B2C3F30B0301FB0322CB
:109210001146D1E7064B07498B4202D3002318467B
:1092200070471A88C2F30B029042F8D01433F3E768
:10923000A0C3030810C70308024A136823EA00000A
:1092400010607047A0930020F8B50468C4F30D04C3
:1092500005460E4604B32F68FFF700FC092840F0CE
:109260008880454C236923F440732361236943F4C8
:1092700000732361236943F0010323613E60FFF71C
:10928000EDFB2369092823F00103236171D12B68C9
:1092900004332B600020F8BD384B394A93422BD958
:1092A00002F58042934226D902F5804293422AD9A0
:1092B00002F58042934228D902F58032934226D9A2
:1092C00002F50032934224D902F50032934222D9AA
:1092D00002F50032934220D902F5003293421ED9A2
:1092E00002F5802293421CD9B3F1016F1BD30520F4
:1092F00004F0E0FCFBE70824FFF7B0FB092814D0DA
:109300004FF0FF30F8BD1024F6E71824F4E72024CE
:10931000F2E72824F0E73024EEE73824ECE7402495
:10932000EAE74824E8E75824E6E7134F3B6923F4CB
:1093300040733B613B6943F400733B613B6923F03D
:10934000F8033B613B6943F002031C433C613B690A
:1093500043F480333B61FFF781FB3B6923F0020359
:109360003B613B69092823F0F8033B613FF473AF8D
:10937000C6E76FF00100F8BD003C02400040000865
:10938000FF3F0008F8B504460D468E180027B54289
:1093900001D12069F8BDE368591CE160234415F848
:1093A000012B1A720429F2D1206918B9A16820464C
:1093B000FFF74AFF2061E760E9E738B58D180C46F2
:1093C000AC4200D138BD14F8011B16F0B5FFF7E729
:1093D00070B501221049114C114E0020FFF7EDFF2E
:1093E00022884AB1A518B54213D2052A11D92146BF
:1093F000FFF7E3FF2C46F3E721460222FFF7DDFFEC
:109400006388084AC31AA41A074A5842148058416C
:1094100070BD002070BD00BF004000080140000882
:1094200000800008FC3F0008881E002030B5024480
:109430000446944201D1002011E014F8013B11F8D8
:10944000015BA3F141001928A5F1410098BF203329
:10945000192898BF2035581B01D1002DE9D130BD06
:1094600070B5034610F8012B202AFAD0092AF8D04B
:109470002D2A0ABF034601254FF0FF35591E00244F
:109480000A2611F8010FFEF729FF0A2802D905FB69
:1094900004F070BD06FB0404F3E730B50278202A1F
:1094A000034600F10100F9D0092AF7D02D2A47D14F
:1094B0000346BFEE000A9FED3A7A1A46F2EE046ABE
:1094C000134612F8010BA0F13001CCB2092C3DD9A2
:1094D0002E280BD1F2EE046A1146B0EE666A0B46F6
:1094E00011F8012B303AD0B2092838D91A7802F095
:1094F000DF02452A4FD15A782D2A3BD10233012071
:10950000013B00220A2513F8011F3039CCB2092C87
:1095100036D9B2F59A7F28BF4FF49A72DFED216AEF
:109520001346F7EE007A072B2DD802F00702F2EE71
:10953000046A62BB88B3C7EE276A20EE260A30BDF4
:109540002B2A08BF0346B7EE000AB4E707EE901ACD
:10955000F8EEE77AE7EE267AB0EE677AB0E707EE44
:10956000902AF8EEE77AC7EEA65A66EE866A37EEDC
:10957000257AB4E72B2A14BF013302330020BFE75A
:1095800005FB0212BFE767EEA67A083BCBE767EE62
:10959000A67A013ACDE7F7EE007A67EE276ACCE7C4
:1095A0000000000020BCBE4CB5EEC00ADFED2D7AF5
:1095B000F1EE10FACCBF30EE270A30EE670ADFED8D
:1095C0002A7A20EE270A30B5FDEEC07A87B017EE72
:1095D000904A054684EAE470002303A9A0EBE470F6
:1095E00000930193029325F0FBFE002CACBF2023D7
:1095F0002D2303A88DF8003027F0E8FC012822D1A4
:1096000030238DF801308DF802308DF8033003A936
:1096100068462BF021F9684627F0D8FC0338C4B21D
:109620002246694628462BF04EF900232B550F4958
:1096300028462BF011F90DEB040128462BF00CF90C
:10964000284607B030BD022805D130238DF80130FF
:109650008DF80230DBE7032804BF30238DF801309A
:10966000D5E700BF6F12033A00007A44AEB1030899
:1096700070B5064615460846B6FBF2F414B120460E
:10968000FFF7F6FF05FB1464024B1B5D00F8013B7E
:1096900070BD00BF24960308084BD3E9002352EAAB
:1096A000030108D006490968521843F10003C0E9D4
:1096B0000023012070470020704700BF0060002099
:1096C000F4720020F0B5264E04460F460FCE8DB042
:1096D0006D460FC50FCE0FC596E80F0085E80F0049
:1096E00014F0030335D1642194FBF1F201FB124223
:1096F00042B94FF4C87294FBF2F302FB13430033F8
:1097000018BF0123C3F11D0340F26D120193042021
:10971000631E93FBF0F002FB04046FF0630093FB05
:10972000F0F020444FF4C87493FBF4F3184406306F
:1097300000220721013F5DF822309742184490FB38
:10974000F1F4C4EBC404A0EB040004D1181A0DB06A
:10975000F0BD0123D6E701320C2AECD10020F6E758
:1097600050490308F8B514461D4606464FF47A7270
:1097700000232046294628F001FA2C4B3C220344C2
:1097800093FBF2F002FB1031B17190FBF2F102FB9E
:109790001102182072714FF4616293FBF2F292FB96
:1097A000F0F100FB112232712149224A93FBF2F2BF
:1097B00093FBF1F3980040F2B55392FBF3F103FBF6
:1097C0001123B3F5896F2DDA40F2DA2293422BDCB4
:1097D000B3F5B77FB4BF002201221749182707FB52
:1097E00002170B2137F811E0734501DA0139F9D17D
:1097F00000F5FA6010443080481CB0700C2000FB6B
:1098000002120E4901EB4202013392F834209B1AF6
:10981000F3704FF47A7200232046294628F0AEF9FF
:109820003281F8BD0322D8E70222D6E780BC92C776
:10983000801F860780510100804903084C490308B6
:1098400037B504466846FFF727FF054638B1DDE91E
:1098500000232046FFF786FF284603B030BD0123D2
:109860002080A370E37020716071A0712081F3E704
:1098700010B50288C378A2F5FA62591E40F2B554B9
:10988000930804FB031381780C24013902F00302CE
:1098900004FB02120C49847901EB42021821928EDA
:1098A0001344027901FB0323427900893C2101FB27
:1098B0000323064A224401FB03234FF47A7200215A
:1098C000C2FB030110BD00BF4C49030880436D3843
:1098D0000B684A689A4206D05A1C0A601B7800B18D
:1098E0000370012070470020704710B502681146D0
:1098F000531C036011F8024B0160D31C51780360C4
:1099000093781B0443EA0123111D0160D07823439F
:1099100043EA006010BD03685A1C02601A4612F840
:10992000021B0260587841EA0020704791E80C0061
:109930009B1A012B10B5044606DD0846FFF7EBFF26
:1099400004B12080012010BD002010BD03685A1C06
:1099500002601878704738B5044609C81B1A9A4245
:10996000154606DC2AF04BFF22682A4422600120BB
:1099700038BD002038BD38B50446006815462AF0C9
:109980003EFF22682A44226038BD03685A1C0260E8
:10999000197003685A1C02600A0A1A7003685A1C7C
:1099A00002600A0C1A700368090E5A1C02601970D2
:1099B000704703685A1C026019700368090A5A1C30
:1099C0000260197070472DE9F04F89B082468B46CE
:1099D00016461C4600270DF114083178002934D0B2
:1099E000252904D050460136D8470137F5E771786C
:1099F0002D2905BFB178F51CB51C012618BF00261E
:109A0000302906BF2978012300230293A1F13003F6
:109A100008BF0135092B4FF0000907D80846FEF7AB
:109A20005DFC0A2815D90EB1C9F100096C2940F076
:109A30008B802A78642A05F1010600F0BC801BD8CF
:109A4000252A62D00BD8002AC7D1384609B0BDE814
:109A5000F08F0A2303FB090915F8011BDEE7582ADA
:109A60001BD0632AB9D1354621785046D847261DE8
:109A7000013734462E46B0E7732A3AD008D8662A12
:109A800049D06E2AA9D13546236804341F60F1E716
:109A9000752A00F08B80782A9FD1A2F158004242AB
:109AA00004F10405434642411021206807E02D23BC
:109AB0008DF8143040420DF1150300220A21FEF703
:109AC00022FC2C46CDF80080029B4A46594650465F
:109AD000FEF749FC074480E72D238DF814304042FF
:109AE0000DF1150300220A21FEF70DFC2E46039C02
:109AF000E8E73546236800934A4600235946504616
:109B0000FEF731FC261D0744B3E7354625215046B4
:109B1000D8470137AEE73546073424F00703D3E9C9
:109B2000000103F1080427F0CBFE00EE100A4046C6
:109B3000FFF73AFDCDF80080029B4A465946504651
:109B4000FEF711FC074495E764293CD00BD8252982
:109B5000DCD003D800293FF478AF8BE758290FD029
:109B6000632981D086E77329C4D004D86629D3D06D
:109B70006E2989D07EE775290FD078297FF47AAFD6
:109B800058394A4204F104064A41206843461021EC
:109B90003446FEF7B8FB2E4694E7231D03930022BC
:109BA00043460A212068FEF7AEFB9FE7251D43468A
:109BB00000220A2179E72068002804F10405FFF655
:109BC00076AF434679E72068231D0028039383DBA3
:109BD000434687E70EB40FB505AB019053F8042B4D
:109BE0000649039301A8FFF7EEFE019B00221A70BD
:109BF00004B05DF804EB03B0704700BF5D8300085C
:109C00000FB437B50B490C48096800680B4D06AB1B
:109C100053F8042B0193FFF7D6FE0446286804F09E
:109C200054FB0028FAD0204603B0BDE8304004B011
:109C3000704700BF3C26002040260020A44C002096
:109C40002DE9F04F00F1100E85B0074605460026BD
:109C500000F14009B0462B46BC4616E0F4EC016A20
:109C60001AED047AD3ED007AE6EEC77AC3ED007AF6
:109C7000AC420AF1100AF1D108F10108B8F1040F61
:109C80000CF1040C03F1040303D0AEF11004E2461E
:109C9000EEE74FEA860B73464B451ED003EB0B0AEB
:109CA000B8469C4609E0FCEC016A18ED047AD4ED54
:109CB000047AE6EEC77AC4ED047AD44508F11008B8
:109CC000F1D1D4ED046A95ED007AC6EE877A1033AF
:109CD00017EE90CA44F810CFDEE70136042E05F1E6
:109CE00014050EF1100E07F10407B3D100240094FF
:109CF00001940294039402F1100C074606466C4648
:109D000052F8045B2560EE463546BD4228D16245D7
:109D100004F1040406F1100605F11407F0D104AEB5
:109D200000F13C050A4656F8044D42F80C4F2C460B
:109D30000434A34202F10402D1ED037A1BD12A4676
:109D4000D2ED006A87EEA67A103B8342A5F1140596
:109D5000A1F1040181ED047AE4D105B0BDE8F08FF2
:109D6000BEEC017AD4ED007AF5EC016AE6EEC77A32
:109D7000C4ED007AC9E7D4ED006A92ED007AE6EE10
:109D8000C77AC1ED037AD3E780EAE073A3EBE0730F
:109D90008B4206DB002801DD401A704702D00844E0
:109DA00070470020704744F25063984203DDA0F5ED
:109DB0000C40A0387047034B9842BCBF00F50C40E4
:109DC000A0307047B0B9FFFFF0EEE06AB0EEC07AA5
:109DD000F4EEC76AF1EE10FAD4BFB0EE476AB0EE07
:109DE000666AB5EE406AF1EE10FA48D0F4EEC76A42
:109DF000F1EE10FA54BFF0EE475AF0EE665AC5EE97
:109E0000867A9FED206ADFED205A9FED205AE7EE1B
:109E1000865A9FED1F6AA7EEA56ADFED1E5AE7EE90
:109E2000865A9FED1D6AA7EEA56ADFED1C5AA7EEC4
:109E3000A55AF7EE005AE7EE855AB1EE466AC6EE2D
:109E4000257AF4EEC76AF1EE10FA48BF9FED147A56
:109E5000F5EEC00A48BF77EE677AF1EE10FA48BF18
:109E60009FED107AB5EEC00A48BF77EE677AF1EE43
:109E700010FA48BFF1EE677AB0EE670A7047DFED7F
:109E80000A7ABEE739094E3DE3B59EBE69A2163E89
:109E900088FA16BE45FE7FBFA7DFA8B499FB243F12
:109EA000DB0FC93FDB0F494000000000FDEEC07A28
:109EB00017EE903A2033402B43D8DFED237A9FED05
:109EC000237AB4EEE70AF1EE10FA28DCDFED207A0F
:109ED0009FED1E7AB4EEE70AF1EE10FA22D4DFED20
:109EE0001D7AB4EEE70AF1EE10FA1EDD30EE670AD5
:109EF00037EEC00A60EE007ADFED176A9FED177A41
:109F0000A7EEA67ADFED166AE7EE876A9FED157A6F
:109F1000A7EEA67A20EE276AA6EE070A704730EE73
:109F2000470ACEE730EE070AD4E79FED0F7AB4EE8A
:109F3000C70AF1EE10FA44BF30EE270A37EE400AA6
:109F4000D8E79FED0A0A7047DB0F4940DB0FC94095
:109F5000DB0F49C0DB0FC93F9A7C2E36FAAF4FB9F1
:109F60003587083CA4AA2ABEDB0FC9BF0000000049
:109F7000DFED027A30EE270A98E700BFDB0FC93F1A
:109F800038B5334CB4FBF2F4A142F0EE404A1D4622
:109F9000F7EE005A4FF0000453D207EE901A9FEDEF
:109FA0002D7ADFED2D6AF8EE677A67EE877A07EE95
:109FB000102AB8EE477A27EE267AC5EE876A87EE32
:109FC000A63AB0EE430AFFF771FFF0EE402AB0EE7A
:109FD000430AFFF7CDFF74EEA44AF8EE006A82EE62
:109FE000A47AF5B1012D25D077EE257A20EE260A48
:109FF00085EE276A75EEC75A80ED006A84EE276AFF
:10A00000C0EE276A80ED016A85EEA77A83EEA76A23
:10A01000C0ED036A80ED026A80ED047A84614461D8
:10A0200038BD35EEC04AB6EE005A24EE055AF0EEC1
:10A03000453AD9E720EE264AF0EE653AB0EE655A89
:10A04000D2E7C0ED005A44608460C4600461E5E773
:10A0500020A10700DB0FC940BD37863500239FEDE7
:10A06000010A8DE7F304353F30B507EE902A2DED58
:10A07000028BB8EE670A07EE903AF8EE677A83B083
:10A0800080EE270A0D460446019228F045FB30EE8B
:10A09000008AB0EE000AF0EE480A28F0BBFC28F077
:10A0A0004DFEF0EE480AF0EE408AB0EE000A28F0CD
:10A0B000B1FCF7EE007A30EE670A019988EE800A6B
:10A0C00001232A46204603B0BDEC028BBDE8304098
:10A0D00056E7D0ED017AF5EE407AF1EE10FA09D1AB
:10A0E000DFED0E7A60EEA70AB7EE007AC7EE207AAF
:10A0F000C0ED017A90ED017AD0ED007A80ED021A80
:10A1000031EE077A30EE670AC1EE076AE6EE807A32
:10A11000B0EE670AC0ED007A704700BFDB0FC940A0
:10A1200090ED017AD0ED007AC0ED020A30EE877A28
:10A1300030EE670AC0EE876AE6EE807AB0EE670A14
:10A14000C0ED007A70474840082310F0800F4FEAB6
:10A15000400018BF80F0D500013BC0B2F5D1704778
:10A1600010B50A440C46944200D110BD14F8011BEE
:10A17000FFF7E9FFF7E74A09012301F01F0103FA9E
:10A1800001F150F822300B4340F8223070470EB4F2
:10A19000244B70B51B68002BA5B0064630DA224B65
:10A1A000224C19684FF47A7304A8B1FBF3F203FB55
:10A1B00012131F49FFF70EFD04AB03440393299AC2
:10A1C0001C492AAB054603A80293FFF7FCFB039B3F
:10A1D000591C03910A211970039B591C03910021FA
:10A1E00019700246206880B103681B6A03B1984762
:10A1F00004A92068FEF71CFD16B1206816F0CCF803
:10A2000025B0BDE8704003B070470B4B1B68002BB6
:10A21000F6D002212A4400910A44FD2004A911F03D
:10A22000B7F8EDE7403C0020F47200207C2C0020C1
:10A230004996030853830008A826002038B5144B1C
:10A240001C68033004EB9002B2F5007F14D8114D66
:10A250001A6005EB8404104D55F8213020F00300FE
:10A260001844920045F82100C2F500620B49002015
:10A27000FFF78DFF204638BD09490020FFF787FF13
:10A28000084A136843F0007313600024F2E700BF2C
:10A29000F81D0020F4140020FC1D00205596030832
:10A2A000789603080092002010B54CB2002C01F003
:10A2B0007F034FF02802B5BF02FB030102FB01013F
:10A2C00001F58E7101F55D710122DBB28A70002CFF
:10A2D0004FEAD4720B704A7000EB83000ADA82698D
:10A2E0001368002B01DA43F0804343F4001313603A
:10A2F000002010BD426D1368F7E782B00023019380
:10A300000C4A036819690191013A10D0019900299A
:10A31000F8DA019A42F001020192019A1A61054AA3
:10A3200019690191013A02D00199C907F8D40020B6
:10A3300002B07047410D0300084A182363F3060278
:10A34000436D1A61C278012A06D100F2CC505861DF
:10A350001A684FF080221A60704700BF0000086042
:10A3600010B5042380F81131002304461A4619461B
:10A37000FEF782F92046FFF7DFFF002010BD10B581
:10A38000044671BB90F81131032B1BD1D0F89023F8
:10A39000D0F87C339A4217D9C178012908BFD0F888
:10A3A0008013A2EB030204BFC918C0F880139342C4
:10A3B00028BF1346C0F890239BB2D0F88023002119
:10A3C000FEF70CFA002010BDD0F8E4351B6923B16C
:10A3D00090F81221032A00D198472046FFF7C0FFCA
:10A3E000F0E7D0F8E4359B69002BEBD090F8122110
:10A3F000032AE7D19847E5E7F0B590F8CF1590F834
:10A40000D12590F8CE3590F8D05590F8CC6590F8DD
:10A41000CD7503EB012305EB022590F8D31590F8D9
:10A42000D22502EB0122012185B080F8111106F03E
:10A430001F0192B29BB2ADB2012904468DF80860AB
:10A440008DF80970ADF80A30ADF80C50ADF80E205B
:10A45000C0F8402100F00E8105D3022900F01E81D2
:10A4600006F0800187E1092F64D8DFE817F0BA0011
:10A47000F8006300CC0063005B000A006300AD00DD
:10A480007A00ADF806201A0A013A062A52D8DFE807
:10A4900002F0040C295151515100D0F8EC351B68E1
:10A4A000A0780DF1060198470AE0D0F8E4358078ED
:10A4B0009B6A0DF10601984702234370C4F8F0052A
:10A4C000BDF80620002A47D0BDF80E30002B43D03F
:10A4D0009A4228BF1A46ADF8062001462046FEF7EC
:10A4E0006DF939E0DBB2052B24D8DFE803F0030770
:10A4F0000B0F1317D0F8EC355B68D1E7D0F8EC35CB
:10A500009B68CDE7D0F8EC35DB68C9E7D0F8EC35CF
:10A510001B69C5E7D0F8EC355B69C1E7D0F8EC35CD
:10A520009B69BDE735B92AB990F81211032903F0E8
:10A530007F0503D1204624F0A7FB0DE063F30A1248
:10A54000036980F8145119680A431A60FFF708FF7D
:10A550002DB1022384F81231002005B0F0BD012393
:10A56000F8E7D9B2894D012985F8AC18E2D890F8FE
:10A570001231022B0FD0032BDCD1C1B9022380F89A
:10A580001231D0F8E43580F810115B689847204606
:10A59000FFF7E6FEE0E70029F9D00121032380F868
:10A5A000101180F812312046FDF76CFFEFE790F8AC
:10A5B00010110129EBD0D0F8E4355B68984795F885
:10A5C000AC1884F81011EEE7012AB3D190F81231DB
:10A5D000022B04D0032BADD100F588717EE76C49C6
:10A5E0007CE790F81231023B012BA3D8674B002285
:10A5F000C3F8B428D0F8182112B10222C3F8B42845
:10A60000022264496AE7012B08D1C4F81831D4F852
:10A61000E43502A99B6820469847B8E7022B9BD1F6
:10A6200015F0FF0F98D103692D0A013D5B680122E7
:10A63000042D05D8DFE805F004030D0F11000222F8
:10A6400062F30613514AC2F8B838012384F8163170
:10A650009DE70322F4E70422F2E70522F0E790F8F1
:10A660001221023A012A3FF665AF012B7FF474AF45
:10A670000023CAE790F81231032B7FF45CAFEDB2F0
:10A68000012D3FF657AFD0F8E43502A99B689847F3
:10A69000BDF80E30002B7FF45FAF78E706F0600660
:10A6A000202EE9B205D1D0F8E43502A99B6898477D
:10A6B00052E7012F11D041D3032F7FF44DAF90F813
:10A6C0001221022A54D0032A7FF435AF002B9ED1E9
:10A6D0004A069CD0FFF7E8FD99E790F81221022A7C
:10A6E00046D0032A7FF427AF002B7FF435AF11F05B
:10A6F0007F023FF44CAF6DB2002D4FF02803B5BF81
:10A7000003FB020103FB010101F58E7101F55D718F
:10A7100000238B700A70EB0F00EB82024B70002D50
:10A72000B4BF9269526DC978136802396FF35553FB
:10A73000012998BF43F08053136068E790F8123105
:10A74000022B15D0032B7FF4F6AE15F0800F0F4BC4
:10A750004FF0280214D001F07F0102FB010191F8B3
:10A760001E215AB10122C3F8BC280B490222B5E6CA
:10A770004B063FF4F1AEFFF797FDEDE60022F2E75E
:10A7800002FB010191F87623EBE700BF481400209B
:10A79000F81C0020FC1C0020041D002038B50446D5
:10A7A00000295BD190F81131022B1ED1D0F838313D
:10A7B000D0F82421934226D9C178012908BFD0F8C6
:10A7C0002811A3EB020304BF5218C0F82821C0F8D7
:10A7D0003831D0F828219BB20021FDF74DFF00232E
:10A7E0001A4619462046FDF7F9FF94F81631012B59
:10A7F00007D1204A2369D2F8B8285A60002384F888
:10A800001631002038BDD0F83C31B3FBF2F502FB25
:10A81000153565B99A420AD8D0F84021934206D23C
:10A820002B462A46FDF728FFC4F84051D7E7D4F855
:10A83000E435DB682BB194F81221032A01D12046BC
:10A840009847052384F8113100231A4619462046FB
:10A85000FDF7C4FF2046FFF76FFDC6E7D0F8E435EB
:10A860005B69002BCDD090F81221032AC9D19847FB
:10A87000C7E700BF48140020104BDA684378D24382
:10A88000C2F30222C2F10401C9B28B400F2141FA86
:10A8900002F28178DBB20A401343094902781B01B6
:10A8A0008818DBB280F800335009012302F01F0240
:10A8B00003FA02F241F82020704700BF00ED00E0EB
:10A8C00000E100E0C27802B1D6E7037801215A091D
:10A8D00003F01F0301FA03F32032024941F822304A
:10A8E000704700BF00E100E029492A4A8B6803F065
:10A8F0000C0310B50C2B49D8DFE803F04848484852
:10A90000484848480748484838004A684B68214A40
:10A91000496803F03F03B2FBF3F31D4A5268C1F3E9
:10A9200088114B43C2F3014201325200B3FBF2F3F0
:10A930000360174C184AA368C3F30313134493F836
:10A9400084100368CB404360A168C1F382211144A5
:10A9500091F8841023FA01F18160A168C1F34231BA
:10A960000A4492F88420D340C36010BD4A684B6803
:10A97000084A496803F03F03B2FBF3F3044A526804
:10A98000C1F388114B43C2F30272CDE70260D0E7F6
:10A99000003802400024F400000000202DE9F043BC
:10A9A0000D6800220126032406FA02FC3CEA050396
:10A9B0003DD15700D0F800E004FA07F3DB430EEA7C
:10A9C000030EC0F800E091F804E0D0F800900EFA11
:10A9D00007F80EF1FF3E48EA0908BEF1010FC0F882
:10A9E000008017D8D0F808E003EA0E0383604B79A3
:10A9F000D0F808E0BB4043EA0E038360436823EAD3
:10AA00000C0343608B79D0F804E093409BB243EA97
:10AA10000E034360C36804FA07FE23EA0E03C36013
:10AA2000CB79D0F80CE0BB4043EA0E03C36001329F
:10AA3000102AB9D1BDE8F083F7B50C461546064695
:10AA4000002836D003681C4A03F13F4303F57E0318
:10AA500002EB93230F2793F8940024F049F9306810
:10AA6000B6880096B6FA86F3C3F11F039BB203F0D3
:10AA70000702DB0800EB83039200196A974021EA82
:10AA800007011962196A95400D431D6204F0030322
:10AA90008DF80430C4F381038DF805306946C4F3A2
:10AAA0000013C4F341148DF806308DF80740FFF70A
:10AAB00075FF03B0F0BD00BF4C4903082DE9F04716
:10AAC000774C142606FB00460546307A24F010F930
:10AAD000327A02F01F0152090123032A03FA01F31B
:10AAE00064D0042A67D0022A03D16E4A516A0B430C
:10AAF0005362142303FB05436F1C5879FEF7F5F8E6
:10AB0000FFB2824620B10D2383710B23C3710772FC
:10AB1000142303FB0543D879FEF7E7F8804618B104
:10AB20000D238371C3710772142303FB05439879C6
:10AB3000FEF7DBF8064620B10D2383710C23C371A9
:10AB40000772142303FB05435F7A93F80A903A4691
:10AB5000B9F1000F34D04A215046FFF76DFF3A4655
:10AB60002A214046FFF768FF3A46142707FB0547AE
:10AB700030460A21FFF760FF3E7936B13046FEF7D6
:10AB8000B4F87A7A0921FFF757FF14235D43464A48
:10AB9000635993421BD102F58432516A41F48051CA
:10ABA0005162516A21F4805151621DE03D4A116A9F
:10ABB0000B4313629DE73B4A11690B43136198E70E
:10ABC0000A215046FFF738FF3A460A21C9E7374ABB
:10ABD00093422CD102F50032116A41F48041116296
:10ABE000116A21F480411162B9F1000F53D00022A3
:10ABF0001046198801F4415141F445710A4302435A
:10AC00001A809A8B22F400621204120C9A83072293
:10AC10001A821A8892B242F040021A80002E3DD069
:10AC20003046FEF762F8BDE8F047FEF788B8204AE4
:10AC3000934209D102F5FE32116A41F400411162DA
:10AC4000116A21F40041CEE71A4A934209D102F574
:10AC50008232516A41F400515162516A21F400512B
:10AC6000A2E7154A934209D102F56842516A41F4BC
:10AC700080115162516A21F4801195E70F4A934285
:10AC8000B2D102F56442516A41F400115162516A35
:10AC900021F4001188E701220220AAE7BDE8F0872D
:10ACA0000000002000380240003001400038004021
:10ACB000003C00400034014000500140005401407D
:10ACC00037B50C46054608B30368114A03F13F4304
:10ACD00003F57E0302EB932393F8940024F008F825
:10ACE000AB88009304F003038DF80430C4F38103B0
:10ACF0008DF805306946C4F3001328688DF80630D6
:10AD0000C4F341148DF80740FFF748FE03B030BD8F
:10AD10004C4903082DE9F74FBF4D98469DF8303058
:10AD2000009395F8C038052B81468B46924608D98A
:10AD3000BA490020FFF72BFA0026304603B0BDE8E1
:10AD4000F08F02F0D2FE07460028F5D095F8C048F3
:10AD500099F80400621CD2B204EB440305F6C40661
:10AD600006EBC30685F8C0280192FDF7BEFF034637
:10AD700028B104218171019A02720221C171009AE5
:10AD800062B399F8082002211846FFF755FE1823F0
:10AD900003FB04553846C5F8C4785A4651461AF0A4
:10ADA0001DF8D5F8C438D3F804C09CF8063013F069
:10ADB000040503F002001BD04FF0000A0546574679
:10ADC0004FF0040950469CF805E0DCF80030BEF175
:10ADD000030F4AD8DFE80EF012639DD81846112100
:10ADE0000093FFF76DFF009B1846FDF7A3FFCEE72A
:10ADF00007464FF4807AA9460120E4E71A8C22F036
:10AE000001021204120C1A841A8CB3F804B0198BC4
:10AE100022F0020212043843120C21F073010243A3
:10AE20007F480904090C83421FFA8BFB41F0600143
:10AE300003D000F58060834209D14FF6F3771740C5
:10AE40003D432BF4407B45EA09024BEA0A0BA3F889
:10AE500004B01983C3F834801A841A8B22F00802D4
:10AE60001204120C42F008021A83DCF800306A491E
:10AE7000B3F844206FEA42426FEA524292B2A3F81A
:10AE800044201A8892B242F001021A801822BEF1C0
:10AE9000030F00F2BA80DFE80EF0AAB2B4B61A8C43
:10AEA00022F010021204120C1A84198CB3F804B0A8
:10AEB0001A8B074322F4E64221F02001584812047D
:10AEC0000904120C090C83421FFA8BFB42F4C042A6
:10AED00041EA071103D000F5806083420BD121F0D5
:10AEE000800747EA051525F040052BF4406B45EA3D
:10AEF00009114BEA8A0BA3F804B01A83C3F838800F
:10AF000019841A8B22F400621204120C42F40062BB
:10AF1000AAE71A8C22F480721204120C1A841A8C7A
:10AF2000B3F804B0998B074321F0730122F4007247
:10AF30003B4809041204090C120C83421FFA8BFBD4
:10AF400041F0600142EA072203D000F580608342AD
:10AF50000BD122F4006747EA052525F480652BF420
:10AF6000405B45EA09224BEA0A1BA3F804B0998327
:10AF7000C3F83C801A849A8B22F008021204120C47
:10AF800042F008029A8370E71A8C22F4805212046D
:10AF9000120C1A84B3F8209099889A8B29F40059DE
:10AFA0004FEA094938434FEA194922F4E64249EA8F
:10AFB00000391B481204120C834289B242F4C04289
:10AFC00003D000F58060834203D121F4804141EA3F
:10AFD0008A1199809A83C3F84080A3F820909A8BB5
:10AFE00022F400621204120C42F40062CAE7343305
:10AFF00002FB04140022C4F8D0381A609DE63833EE
:10B00000F6E73C33F4E74033F2E7002302FB041495
:10B01000C4F8D0381B60FFDE481400208696030871
:10B0200000000140F0B52DED028B234B83B00646A6
:10B0300000681C680D461746F0EE408AB0EE608A44
:10B0400021F052F9B4FBF0F0B0FBF5F404F57F44C5
:10B05000FF34240C0097B0FBF4F40023B4FBF5F5A7
:10B060002146AAB23046FFF755FE08B3B5EE408A36
:10B0700007EE904AF1EE10FAF8EE677A08BF06EE96
:10B08000905A9FED0E7A0ABFF8EE666A27EE888A1C
:10B0900086EE876A4FF00103037218BF88EE076AD5
:10B0A00027EE467A80ED056AA7EEA87A80ED047A4D
:10B0B00003B0BDEC028BF0BDC001002000007A445B
:10B0C00008B5FDF712FE48B11D2282710E22C27131
:10B0D000002202722021BDE80840F1E508BD10B54C
:10B0E00003681A79022A044602D1987AFFF7E8FF2A
:10B0F00000232371236010BD70B51E46214D224BE5
:10B100009D4218D26C798C4234D12C79844200D083
:10B1100080BB2C7A94422DD12C682C220021204611
:10B1200029F092FB25602B792371EA88A260012B1C
:10B1300003D0022B05D000241AE02046FFF7CFFFF2
:10B14000F9E7E87AFDF7D1FD60616B7A2373A87A9D
:10B15000FDF7CBFD0546206170B10E23C3710023BE
:10B16000867103720921FFF7ABFD2069FDF7E7FD4A
:10B17000204670BD0C35C3E72046FFF7B0FF2C46D4
:10B18000F6E700BFCC010008E401000800232DE928
:10B19000F7431A4621210120FFF7AEFF234C054655
:10B1A000C4F8880000283FD00526962002F047FD0D
:10B1B0000DF1070200212846FDF7A6FE074660B301
:10B1C00000221146D4F88800FDF7BAFE3C20FDF7B6
:10B1D000FFFE012002F033FD00265FFA86F84FEAF9
:10B1E0008805D4F88890EDB2A91D002201F0FE0177
:10B1F0004846FDF7A5FEE91D0022C9B24846FDF705
:10B200009FFE013640F2DC514046FDF7A7FE102EAE
:10B21000E3D1384603B0BDE8F083013EC5D1D4F890
:10B220008800FFF75CFFF4E70746F2E748140020C8
:10B2300020B10078B0FA80F04009704701207047D3
:10B2400003689FED1A7AD3F81D00DFED196AD3F871
:10B2500019309FED186A07EE900AF8EE677A77EEDC
:10B26000C77A77EEA77A87EEA67AF7EE007A37EEFE
:10B27000677A06EE903ADFED107AF8EEE66A27EE8E
:10B28000677ADFED0E7A66EEA76AC6EE867ADFEDA4
:10B290000C6A77EEE67ADFED0B6A77EEA67A09B1F3
:10B2A00081ED007A0AB1C2ED007A70479AC9CC44A8
:10B2B0009AC94C4600E0FF440E76D745000048434B
:10B2C0000000484233938843436A8269D154436AF9
:10B2D00002690133934228BF0023426B4362D36863
:10B2E00043F08003D36070470346026A4169885C7B
:10B2F000D96801328A4228BF0022C0B21A62704760
:10B30000826A406A131A584258417047426A836AF7
:10B3100000699A4238BF1218D31A0138C01A704710
:10B32000C269036A9A422FBFD01AC0688018C01A37
:10B330007047F0B5446B8668A38923F400531B045F
:10B340001B0CA381817911F004030CBF4FF0000E98
:10B350004FF4805E11F0020F14BF4FF40057002726
:10B36000002B437914BF4FF48061002113F0010FCB
:10B37000054614BF042000209B07238A9BB223F4B8
:10B38000405343EA07032382A28922F4B05222F0F9
:10B390000C0248BF40F0080041EA0E0312041843B3
:10B3A000120C0243A281A28A22F44072120485B0D8
:10B3B000120CA2826846FFF797FA234B9C4203D0F7
:10B3C00003F580639C4235D10399A389192213F4B4
:10B3D000004F02FB01F214BF7100B100B2FBF1F1AA
:10B3E000A28964261204B1FBF6F34FEA031006FBB0
:10B3F000131321D5DA003232B2FBF6F202F0070263
:10B4000042EA00039BB22381AB796A6B13F0080F09
:10B41000938A0BBF23F008039BB21B0443F008037D
:10B4200008BF1B0C938293899BB243F40053938112
:10B4300005B0F0BD0299C8E71B013233B3FBF6F348
:10B4400003F00F030343DDE700100140417170E793
:10B4500081606EE708B5202129F00DFA03461846F1
:10B4600023B10278202A03F10103F8D008BD2DE9A9
:10B47000F8430D4616468146002440F634074FF047
:10B4800019084846FFF7E6FF814690B1FDF7E8FF4F
:10B49000B842A8BF3846B0F5617FB8BF4FF46170BD
:10B4A000A0F5617090FBF8F04CB928703378013347
:10B4B00033700134022CE4D14846BDE8F88368704B
:10B4C000F4E770B5054608460E4625F07FFD314687
:10B4D000044602462846FDF7A9FF60B92B5DA3F19B
:10B4E0003002092A08D923F02003413B192B03D944
:10B4F000601C284470BD002070BD10B4447A631CE9
:10B500000444DBB24372A172027A9A4203D85DF816
:10B51000044BFDF7D9BD5DF8044B70470FB413B56C
:10B52000084C0949206804AB53F8042B0193FEF73B
:10B530004AFA2068FDF7C8FD02B0BDE8104004B02B
:10B54000704700BF584C0020FBB4000873B5046876
:10B5500000232376042305460DEB0302FF2120463A
:10B56000FDF7E0FC10B9002002B070BD04236A466C
:10B57000FF212868FDF7D6FC0028F4D09DF80410C0
:10B580008B09023B012BEED99DF800309DF8052078
:10B590009DF8015002EB012205EB0325C2F30D02D9
:10B5A000C5F30D05531B002BB8BF5B42FF2BDADC44
:10B5B0009DF806109DF807309DF8026003EB01230B
:10B5C0009DF8031001EB06215B1149115E1A002E54
:10B5D000B8BF7642FF2EC6DC01262A440B44324116
:10B5E00033412676C4F81D20C4F81930BCE707B5EE
:10B5F000012301AAFF210068FDF794FC03B05DF868
:10B6000004FB13B502230C4601AA00210068FDF7D4
:10B6100089FC60B15CB19DF80530DB099A001344E8
:10B620009DF9042002EB820203EB4203238002B067
:10B6300010BDFDF7DABA38B5144C154DAC4211D334
:10B640000020FDF7A1FD13480FF0D8FC124A136843
:10B6500043F48003136000BF104B1878BDE83840F6
:10B6600003F05AB9B4F90230002B4FF00001204624
:10B6700003DBFDF7C3FD1434E0E7FDF7BFFD012157
:10B680002046FDF7BBFD02212046F2E7A0C30308D8
:10B6900010C70308C1960308A09300206C930020F4
:10B6A000074B1B68597A4A1C1944D2B25A728872E5
:10B6B000197A914202D81846FDF706BD704700BFBF
:10B6C000584C002038B5094D441E14F8011F01B92B
:10B6D00038BD2868427A531C0244DBB2437291722F
:10B6E000027A9A42F1D8FDF7EFFCEEE7584C0020C1
:10B6F00008B504460648FFF7E5FF064B1868FDF756
:10B70000E3FC054B186814F047FE204608F024F9C6
:10B71000CA960308584C00205C4C002010B5044623
:10B720000748FFF7CFFFFFF786FF03F013F905493E
:10B730002046FFF7C6FE08B9FFF7DAFF10BD00BFCD
:10B74000D6960308579E0308044808B5FFF7BAFFCA
:10B7500003F000F90020FFF7CBFF00BFEC960308D1
:10B76000034808B5FFF7AEFF0120FFF7C1FF00BF98
:10B77000F396030808B50448FFF7A4FF034B1868C5
:10B78000BDE80840FDF7A0BC0C970308584C00200A
:10B79000004897E7AD9F03082DE9F0410D4D0E4F8E
:10B7A000DFF83880002466196059FFF78BFF716855
:10B7B00011B13846FFF7B2FEB16811B14046FFF74C
:10B7C000ADFE1034FFF7E4FFB4F5F87FEBD1BDE830
:10B7D000F08100BFBC5903081197030817970308AD
:10B7E00010B5064C0B46024605492068FEF7EBF8FB
:10B7F0002068FDF769FCBDE81040C9E7584C0020FF
:10B80000FBB400080FB407B504A951F8040B01916B
:10B81000FFF7E6FF03B05DF804EB04B070472DE9D5
:10B82000F3411B481B4C1C4D1C4FDFF87480FFF785
:10B83000E9FF04F51376E2792168A37994F808E02A
:10B8400055F8233005EB820201F13F41D2F88C001C
:10B85000A28801F57E01B2FA82F2890ABEF1000FD8
:10B860000ED00190CDF800E0C2F11F0241314046F8
:10B87000FFF7C8FF0C34B442DDD102B0BDE8F0815F
:10B880000090C2F11F0241313846FFF7BBFFF1E7DC
:10B890001D970308508E0020FC49030849970308B0
:10B8A000399703082DE9F0411048114E114FDFF888
:10B8B0004C80FFF7A7FF0125002474B90E4B1A68CE
:10B8C0009200D2F5006205D056F824103846FFF7F2
:10B8D00099FF06E001340135EFE758F82420002AEB
:10B8E000F2D1232DF6D1BDE8F08100BF57970308B0
:10B8F000FC4903086D970308F81D0020FC1D00207B
:10B900001FB5094B0293094B0193094B0093094A58
:10B91000094B0A490A48FFF775FF0A490A4805B06A
:10B920005DF804EB6EE700BF9E970308A697030837
:10B93000AF9703086EB803087B9703088197030845
:10B9400086970308BB970308FC9703082DE9F04F7F
:10B950005448554D8DB0FFF755FF0026B046B1460F
:10B96000524B1A680023934223DB0136112E05F156
:10B970004805F5D14E498868CA680C6809694009CC
:10B9800040EAC2624FF47A734A48B4FBF3F3FFF71C
:10B9900039FF0A2298FBF2F302FB138099FBF2F1C4
:10B9A000009002FB11924448FFF72CFF0DB0BDE858
:10B9B000F08F424951F823108D4201D00133D2E774
:10B9C000AC6A5CB107EE904ADFED3D6AF8EEE77ACB
:10B9D00086EEA77AFDEEC77A17EE904A2F6B6A6B58
:10B9E000EB6BD5F838A07F0947EAC26752090B9282
:10B9F0002146E217CDE90812099A63430AFB023394
:10BA0000A4FB0A0141F2883B1BEB000B19444FF0E9
:10BA1000000C4CEB010C4FF47A720023584661463F
:10BA200026F0FCF80B9B099A0A90634307FB02334C
:10BA3000A4FB070141F2883B1BEB000B19444FF0BC
:10BA4000000C4CEB010C00234FF47A72584661460F
:10BA500026F0E4F8032E18BF0A9B0A99019718BF35
:10BA600099444FF47A722B6CB3FBF2F306934FF0C8
:10BA70000A0318BF804490FBF3F203FB1200049208
:10BA80000A9A92FBF3F203FB1213059003930292BE
:10BA9000CDF800A023462A680A483146FFF7B2FED7
:10BAA00063E700BF05980308F80E0020E896002021
:10BAB0001094002081980308A3980308EC960020B6
:10BAC000002474494C98030810B50C4C03461846E2
:10BAD000FFF7AEFB30B10A4B0A485978BDE8104079
:10BAE00001318FE61846FDF7BBFC0138022804D867
:10BAF000C0B203F07FF82346E9E710BDD4AD0308D8
:10BB00006C930020D198030810B50C4C03461846DE
:10BB1000FFF78EFB30B10A4B0A481978BDE8104098
:10BB200001316FE61846FDF79BFC0138022804D866
:10BB3000C0B203F06EF82346E9E710BDD4AD0308A8
:10BB40006C930020D9980308F8B5437913F0C0022C
:10BB5000044602D0402A17D0F8BD03F00F03062B8D
:10BB600006D121F0FBFDBDE8F8400146164849E644
:10BB700021F00CFE0546204621F0F0FD2946024644
:10BB8000BDE8F84011483DE683791148114E124F47
:10BB90001E2B96BF114D002505EBC305FFF792FD47
:10BBA00000242B799C4202D3BDE8F840F0E514B1A3
:10BBB0003046FFF787FD2B68384653F82410FFF70F
:10BBC000ADFC0134EDE700BFE4980308F4980308E6
:10BBD0000B9903081B990308109D0308B082030802
:10BBE00070B54379164603F00F028AB00546062A5F
:10BBF0004CD8DFE802F0041316181B1D49000C781E
:10BC000013F0C00344D0402B3CD12146284621F0FC
:10BC10008DFD002856D0FFF781FC33E091F90040FC
:10BC2000EEE70C88ECE7B1F90040E9E70C68E7E7DC
:10BC300091ED000A6846FDF7B7FC01462648FFF77C
:10BC40006DFCFEB16B7913F0C00F1BD1284621F0BB
:10BC50009DFD07EE900A6846B8EEE70AFDF7A4FCE2
:10BC600001461E48FFF75AFC284621F077FD07EEF3
:10BC7000900A6846B8EE670AFDF796FC0146174839
:10BC8000FFF74CFC0AB070BD1348F9E70024B7E792
:10BC9000042A0CBF124813482146FFF73FFC002E30
:10BCA000F0D06B7913F0C00FECD1284621F06EFD77
:10BCB0000446284621F052FD214602460A48FFF775
:10BCC0002DFCDFE76946284621F05EFE6A462146E4
:10BCD0000648FFF797FDD5E71A970308109D03085C
:10BCE00008990308BC9D03081D99030824990308BB
:10BCF00038B50D46044621F0A7FD2A4601462046E8
:10BD0000BDE838406CE72DE9F04F81468DB088469C
:10BD10000026474BF418474B1868FDF7D5F994F8FF
:10BD200005B00BF030034B4549D1204621F06AFDA8
:10BD3000FDF770FA0546204621F03AFDAA68019207
:10BD400017188246204621F07FFD0BF00F010546B3
:10BD5000019A062968D8DFE801F0043A3F43484CCD
:10BD60005A0012F80A200378D31AD3F1000A4AEBDA
:10BD7000030A18F0200F02D0BAF1000F1FD102A958
:10BD8000204621F001FE18F0400F0DD0BAF1000F4F
:10BD90000AD102A92848FFF7C1FB5246294620468E
:10BDA000FFF71EFFFFF7F4FC02A92448FFF7B6FBDC
:10BDB000002239462046FFF713FFFFF7E9FC09365A
:10BDC00040F66D339E42A4D10DB0BDE8F08F12F95C
:10BDD0000A2090F90030C7E732F80A200388C3E749
:10BDE00032F90A20B0F90030BEE752F80A200368A1
:10BDF000BAE797ED007AD0ED007AB4EE677AF1EE0B
:10BE000010FA0CBF4FF0010A4FF0000AB1E72046CC
:10BE100021F0A4FC2946421C384628F042FDB0FA25
:10BE200080FA4FEA5A1AA4E74FF0000AA1E700BFD0
:10BE30003C630308584C00204199030842990308C9
:10BE40000CB407B510F0400009D069B92320FFF702
:10BE500027FC05A904980191FFF7C2FC012003B05B
:10BE60005DF804EB02B070470020F8E70CB48306DD
:10BE700007B500D551B905A904980191FFF7B0FCA9
:10BE8000012003B05DF804EB02B070470020F8E732
:10BE90002DE9F04F824687B091460E4615460027A1
:10BEA000337896F9028004937378059396F803B07B
:10BEB000B8F1000F34D0B9F1000F36D02B78049CC4
:10BEC0006A7895F90210E8789C422CD1059C94423E
:10BED00029D1884527D1ABEB000EDEF1000444EBFD
:10BEE0000E040390029101920093114A3B462146B1
:10BEF0005046FFF7A5FF059B0193049B0093CDF8E7
:10BF00000CB03B46CDF80880094A2146504601371F
:10BF1000FFF7ACFF102F06F1040605F10405BFD1B1
:10BF200007B0BDE8F08F0024DBE74C46E3E700BF35
:10BF30004C9903082DE9FF47DFF89CA08146904605
:10BF40000D4616460027B8F1000F42D0B5F9002083
:10BF5000B6F900309A4296F9062038D1B5F90200B8
:10BF6000B6F90210884232D1B5F90400B6F90410CE
:10BF700088422CD195F90610881A4142414103921A
:10BF8000B6F904200292B6F90220019200935246BB
:10BF90003B4648460C46FFF753FF95F9063003939E
:10BFA000B5F904300293B5F90230019335F9083B35
:10BFB000009352463B46214648460137FFF756FF5D
:10BFC000082F06F10806BED104B0BDE8F0870021B5
:10BFD000D5E74446E1E700BF609903082DE9F34740
:10BFE000DFF868A081460F46904602260024B8F18B
:10BFF000000F28D037F8242038F824309A4238F837
:10C0000006201ED1BD5BA91A4D424D4101920093FD
:10C010005246234629464846FFF712FFBB5B019371
:10C0200037F82430009352462346294648460134C7
:10C03000FFF71CFF042C06F10406D8D102B0BDE8BE
:10C04000F0870025E2E74546E8E700BF7599030859
:10C050002DE9F04F2DED088BDFF80C9197B080465D
:10C0600092460D461446002695ED008AB5EE408AAC
:10C07000F1EE10FA71D0D5ED019A95ED029AD5ED59
:10C08000038ABAF1000F3FD094ED000A94ED01BA93
:10C09000D4ED02AA94ED03AAB4EE408AF1EE10FAB0
:10C0A00060D1F4EE4B9AF1EE10FA5BD1B4EE6A9ADD
:10C0B000F1EE10FA56D1F4EE4A8AF1EE10FA0CBF06
:10C0C0000127002712A8FDF76FFAB0EE4B0A83464E
:10C0D0000EA8FDF769FAB0EE6A0A05900AA8FDF706
:10C0E00063FAB0EE4A0A049006A8FDF75DFA049AD6
:10C0F000059B039002920193CDF800B033464A4667
:10C1000039464046FFF79CFEB0EE480A12A8FDF7FC
:10C110004BFAB0EE690A07460EA8FDF745FAB0EEF5
:10C12000490A83460AA8FDF73FFAB0EE680A049070
:10C1300006A8FDF739FA049B039002938DE8800866
:10C1400033464A46002140460136FFF78FFE0C2E4B
:10C1500005F1100504F1100486D117B0BDEC088B71
:10C16000BDE8F08F0027ADE7869903082DE9F04F71
:10C17000834687B092460C46164600274FF01909B1
:10C180004FF46178BAF1000F4DD0A378B1783279CD
:10C190008B42337845D12078984242D165787078C7
:10C1A00085423ED1E578F07885423AD120799042B7
:10C1B00037D165797079281A454245410592F27860
:10C1C00004927278019119FB028219FB0383039296
:10C1D000029373790093154A3B4629465846FFF768
:10C1E0002FFE23790593E378049363780F4A19FBB4
:10C1F00003830393237819FB03830293A3780193AA
:10C200006379009329463B4658460137FFF72EFED7
:10C210000C2F04F1060406F10606B3D107B0BDE801
:10C22000F08F0025CAE75546DBE700BF9A9903085F
:10C230002DE9F04F354FDFF8DCA087B081469046FE
:10C240000C46164602F13C0B94F9042000233049B9
:10C250005956914254D00C333C2BF8D10C365E45E4
:10C2600004F10C04F0D107B0BDE8F08F96F904306A
:10C27000F1799A42326841D1206890423ED1657985
:10C28000707985423AD1A579B079854236D1257A3F
:10C29000307A854232D1E579681A4542454157F8EE
:10C2A00021100491317A57F821100391B17957F890
:10C2B000211002917179009257F821100191524694
:10C2C00029464846FFF7BCFDE27994F9043057F857
:10C2D00022200492227A57F822200392A27957F85A
:10C2E00022200292627957F822200192226800925D
:10C2F000294652464846FFF7B9FDAFE70025CEE78D
:10C30000B8F1000FB2D14546DEE700BFF88D030853
:10C3100054910020B89903082DE9F04F834685B069
:10C3200092460D46164600274FF019094FF46178E2
:10C33000BAF1000F3DD02B7832789342F37836D1A2
:10C3400068787178884232D1A878B17888422ED145
:10C35000EC78E11A4C424C4119FB03830393B37808
:10C3600019FB03830293737821468DE80C0058462D
:10C370003B46114AFFF764FDEB780F4A19FB038334
:10C380000393AB7819FB038302936B78019315F841
:10C39000043B009321463B4658460137FFF766FDB4
:10C3A000142F06F10406C3D105B0BDE8F08F0024B8
:10C3B000D2E75446E0E700BFD5990308F7B5074632
:10C3C000FEF736FF044630B1002222490120FFF774
:10C3D000A3FF03B0F0BD3846FDF742F81328054629
:10C3E00030DC8600781C8DF80740FFF733F8194CD5
:10C3F000074640B1FDF734F828289EBF012304F812
:10C4000025008DF807303846FFF724F8074650B16D
:10C41000FDF726F80D2806D8A31958709DF80730A7
:10C4200001338DF80730B11C0DF107022144384665
:10C43000FFF71DF89DF80730042BCAD0002344F8FD
:10C440002530C6E71323224603490448FFF7DAF9EB
:10C45000BFE700BF10620020E8990308EE990308C7
:10C4600008B5FFF72FF9BDE80840FFF791B92DE9AE
:10C47000F043A94BA9481968A94DDFF8548399B036
:10C480004FF47A73B1FBF3F1FFF7BCF907A8FDF79E
:10C49000D7F9A44B07A9B3F900200EA821F006FE96
:10C4A0000EA9A148FFF7AEF90DF042FB6422B0FBE4
:10C4B000F2F102FB11029D489D4B00781B7805EBC1
:10C4C000800092B2D0F8DC00009089B29948FFF762
:10C4D00099F9994B99481968994BB1FBF3F1FFF71A
:10C4E0001DF8984B1E68002405F1EC0705F58479CA
:10C4F0000123A34033420BD057F8243043B118F83E
:10C50000042059F8241053F822208F48FFF706F82A
:10C510000134072CECD1FFF73BF98C48884CDFF84D
:10C52000B482FFF79DFF0AA8FEF7DEF90A99884852
:10C53000B1FBF4F1FFF766F90B998648B1FBF4F112
:10C54000FFF760F90C998448B1FBF4F1FFF75AF951
:10C550000D998248B1FBF4F1FFF754F90DF048F959
:10C5600005EB8000D0F830610DF030F905EB80006C
:10C57000D0F830710DF00CF904460DF0D3F805EB4E
:10C58000800005EB8404D0F83021754B0392D4F879
:10C590003021744C029301920097324672497348DD
:10C5A000734E744FFFF72EF92368734A734974482A
:10C5B0009B00C3F50063FFF725F9724A724B73487D
:10C5C000D31A0021B4F89020FFF71CF97048FFF748
:10C5D00047FF002456F824103846FEF79FFF4046D8
:10C5E000FFF770F86B4BE15C4FEA8409002974D1C6
:10C5F0006948FFF767F86948FFF764F8684B59F82E
:10C60000031000296DD16448FFF72AFF0134042C80
:10C61000E0D1644B64481988FEF780FF634B1A6FC2
:10C62000002A62D007EE902ADFED616AF8EEE77A21
:10C6300086EEA77AFDEEC77ACDED047AD3F8B8205E
:10C64000002A54D007EE902ADFED596AF8EEE77A17
:10C6500086EEA77AFDEEC77ACDED057A9B6A5BB1CF
:10C6600007EE903ADFED526AF8EEE77A86EEA77AA7
:10C67000FDEEC77A17EE903A4E4A4F4811884F4E5A
:10C680000093049A059BDFF85081FFF7BBF84C48F4
:10C69000FFF718F8346824F0784424F07F04012769
:10C6A0003CBBFFF775F833685B0113D506A821F092
:10C6B00006F978B90698B0F5A27F9BBF00EBC004DD
:10C6C0004048204600190EA921F05EF90EA93E4807
:10C6D000FFF798F819B0BDE8F0833C48FEF71EFF5D
:10C6E00089E73A48FFF78EF890E70492A6E70592AB
:10C6F000B4E794FAA4F3B3FA83F307FA03F2062B30
:10C7000024EA0204CCDD05EB83034046D3F8341160
:10C71000FEF704FFC4E700BFF47200200B9A030881
:10C72000FC490308F8720020259A030812360020FD
:10C730001C360020369A0308C0010020599A0308CD
:10C7400040420F00A03C0020699A0308719A030838
:10C75000869A0308989A0308AA9A0308BC9A0308C1
:10C76000CE9A0308F81D0020D39A0308D69A03082E
:10C770003C4B0308AE9B0308000002200018000099
:10C78000299B03080080000800400008619B030803
:10C790009B9B0308D92800200A9D0308CC9B030813
:10C7A00028360020E0950020D69B0308F80E0020D4
:10C7B000002474491C2F0020E69B030800920020EF
:10C7C000239C03083C6303083A9C0308C59B0308A9
:10C7D000E1350020B69B0308109D03082DE9F043C6
:10C7E0000024DFF86080DFF860908BB007462546B4
:10C7F00004EB08066946304621F0C6F8394668461B
:10C8000028F088F878B169464846FEF787FE00218F
:10C810003046FFF76DFAFEF7BBFF3046FFF794F99D
:10C82000FEF7B6FF0135093440F66D339C42DFD187
:10C8300015B90348FFF714FE0BB0BDE8F08300BF45
:10C840004E9C03083C630308469903082DE9F04712
:10C850002DED028B8AB0804624F0B8FB054628B146
:10C86000012824D198F800302A2B20D18A48DFF8FB
:10C8700048828A4FFFF7F4FD002404EB080669465E
:10C88000304621F081F869463846FEF747FE2946D2
:10C890003046FFF72DFA0934FEF77AFF40F66D3384
:10C8A0009C42EAD10AB0BDEC028BBDE8F0873D2185
:10C8B000404627F0E0FF002800F0DF80034613F831
:10C8C000012C202A03F1FF3130D0A3EB0803441CD4
:10C8D0002278202A04F101012AD0DFF8DCA1002708
:10C8E000DEB207EBC70555446946284621F04CF8EF
:10C8F000684624F06BFB6946814602464046FCF7D9
:10C9000095FD002840F0BD80B14540F0BA806B79BC
:10C9100003F00F08B8F1060F0CD1204624F056FBA7
:10C9200021460246284620F09CFFBBE70B46C6E79F
:10C930000C46CDE713F0C0030AD0402B5ED0584818
:10C94000FEF7C0FE2846FFF7FFF8FEF721FFA9E734
:10C950002378002BF3D05349204627F0C9FF064621
:10C96000204624F033FB8642E9D12046FCF795FDB2
:10C970002846B0EE408A20F009FF07EE900AF8EE54
:10C98000E77AB4EEE78AF1EE10FAD8DB284620F019
:10C99000E5FE07EE900AF8EE677AB4EEE78AF1EE6C
:10C9A00010FACCD8B8F1050F17D0B8F1040F1FD189
:10C9B000214614F8013B202BFAD0092BF8D001397D
:10C9C00000230A2011F8012F303AD2B2092A02D8E6
:10C9D00000FB0323F6E708EE103A284620F034FF68
:10C9E000B8F1050F36D8DFE808F032323E3E424556
:10C9F0002046FCF735FD08EE100AEEE7AB799FED17
:10CA00002A8A1E2B96BF294E064606EBC306002730
:10CA100096F804A03B46B946574503D3B9F1000F39
:10CA2000DBD18CE7002BF9D133686FF0004253F86B
:10CA300027002146FCF7FAFC002808BF08EE107A10
:10CA40000ABF012300234FF001090137E4E718EE84
:10CA5000103A037069461648FEF760FD002128462B
:10CA6000FFF746F91EE718EE103A0380F2E780ED73
:10CA7000008AEFE780ED008AECE74046FFF7AEFE64
:10CA800010E7013740F245139F427FF42AAF09486F
:10CA9000FFF7E6FC06E700BF5B9C03084699030826
:10CAA000869C03086D9C030800000000B082030808
:10CAB0007B9C03084E9C03083C63030870B5034647
:10CAC000FEF7B6FB30B3254B1C680134172C05D894
:10CAD00023490C2202FB041295686DBB204A2546AF
:10CAE0000C210135172D0EDD002501FB0520866880
:10CAF00056B11D6013F03AFD324629461948FEF73B
:10CB000081FE2C4621E0F0D9A542EAD11648BDE8C5
:10CB10007040A5E41846FCF7A3FC1728044605D886
:10CB20000F4A0C2303FB00239D682DB921460F48B3
:10CB3000BDE87040FEF766BE084B1C6013F016FDA2
:10CB40002A4621460748FEF75DFE0C235C43044B52
:10CB5000185DBDE8704013F01FBD00BF94000020B9
:10CB6000C0570308BF9C0308959C0308A99C0308B1
:10CB700008B50948FFF774FC084B1868FCF7A4FADD
:10CB8000074B00241C70074B1C60074B1C7013F0F4
:10CB9000D5FF2046FEF7ACFDD49C0308584C00207E
:10CBA000644C0020604C0020A08400202DE9F74F49
:10CBB000804624F00BFA484DDFF848912F68044670
:10CBC000F0B94648464EFEF7A9FC012519F8043095
:10CBD000013B05FA03F33B4209EB040203D09168E1
:10CBE0003046FEF79BFC0C34B4F5847FEED117B9C8
:10CBF0003C48FEF767FD03B0BDE8F04FFEF7C8BD47
:10CC0000024639494046FCF711FC064670B93748E0
:10CC1000334DFEF757FD09EB0603284699680C369D
:10CC2000FEF77CFCB6F5907FF5D1E4E798F800308C
:10CC30002D2B03BF08F1010804F1FF344FF0010A66
:10CC40004FF0000A00260C2303FB069B0193DBF840
:10CC500008300093194622464046FCF7E7FB019B4B
:10CC600000282FD1BAF1000F19D0162E0BD1204B6E
:10CC70002B602048FEF726FD00991F4803B0BDE851
:10CC8000F04FFEF7BFBD172E01D16B68F0E79BF8A0
:10CC900000305A1E012393401F432F60E9E7162EF0
:10CCA00003D1C5F800A01548E4E7172E17BF9BF87D
:10CCB00000306F6003F1FF3201231EBF93409F439A
:10CCC0002F60F0E70136182EBED10D4803B0BDE845
:10CCD000F04FFFF7C5BB00BF4C430020FE9C03088C
:10CCE0000F9D0308089D0308149D0308199D030860
:10CCF000FFFF3F00249D0308109D03082D9D03089E
:10CD00004E9C0308C05703082DE9F84F054624F050
:10CD10005DF9344F0446D7F80090C0B93248334D1E
:10CD2000334FFEF7CFFC012655F8241059B10B788C
:10CD30003BB106FA04F313EA090F02D03846FEF7B6
:10CD4000EDFB0134F0E7BDE8F84FFEF721BD0246E8
:10CD500028492846FCF76AFB78B92748274C244D18
:10CD6000FEF7B0FC54F8041F0029ECD00B78002B20
:10CD7000F8D02846FEF7D2FBF4E72B78DFF86CB04A
:10CD80002D2B03BF013504F1FF344FF0010A4FF0A2
:10CD9000000A00265BF82680B8F1000F04D118487D
:10CDA000BDE8F84FFFF75CBB224641462846FCF73A
:10CDB0003DFBA0B90120B040BAF1000F0AD0FCF74A
:10CDC0003BFA1048FEF77EFC41460F48BDE8F84F9D
:10CDD000FEF718BD40EA090038600C48F2E701365A
:10CDE000D8E700BFA0930020359D03089C4B0308A3
:10CDF0003F9D0308149D0308439D0308984B0308B7
:10CE00004E9C0308249D0308109D03082D9D0308D4
:10CE10002DE9F347204E21483768214CDFF89080F8
:10CE2000DFF88490DFF88CA0FFF71AFB0025BD42E5
:10CE300002DB02B0BDE8F08733689D4229DCA2889E
:10CE4000D3B2172B18D808EB8303D3F82432002B66
:10CE500008BF4B4621685046FEF760FBE3885A0442
:10CE60000CD5E0890090A389628921890D48FEF7DD
:10CE7000C9FC01351034DAE70B4BEBE71B0405D591
:10CE8000E268A1680948FEF7BDFCF2E7FEF780FC06
:10CE9000EFE700239B88FFDE382600204F9D030824
:10CEA000382200208A9D0308D4AD03089C9D030806
:10CEB000FC4903087B9D03080148FFF7D1BA00BF76
:10CEC000A69D0308F7B50346FEF7B2F9044618B16C
:10CED000FFF7F2FF03B0F0BD01AA1D491C4F184631
:10CEE00025F0CFFB2646254640B90B2D18D9194908
:10CEF0000B2302461848FEF785FCEBE744B1012CF2
:10CF00000AD001AA39460020013425F0BAFBEBE72C
:10CF1000FCF7A6FA0546F4E7FCF7A2FA0646F0E7A6
:10CF2000022C0DD1A6F57A73B3F57A7F05D94FF4AB
:10CF3000FA634FF47A720949DCE7094B23F815606C
:10CF4000074B084833F915202946FEF75BFCC1E77B
:10CF5000C6B10308E8990308EE990308E9B8030885
:10CF6000A6440020B29D03082DE9F341044624F0B5
:10CF70002DF804283DD1631EE11C5A78A2F161000E
:10CF8000192898BF203A03F8012F8B42F5D1DFF81A
:10CF900074802546271D15F8016B4046314627F061
:10CFA0006AFC20B13146284627F065FC20B1FFF726
:10CFB00083FF02B0BDE8F081BD42ECD120460EF007
:10CFC0001DF80E480E4CFEF77DFB0E4800231A1983
:10CFD00002A952780A44195C02F8081C0133042B98
:10CFE000F5D10023694608488DF80430FEF70AFCA5
:10CFF000DFE70028E5D0FFF75FFFE2E7BF9D03080A
:10D00000D49000207B5603081A97030870B58AB0A5
:10D01000044623F0DBFFC2B22AB926490120FEF7FD
:10D0200037FF0AB070BD052223492046FCF7FEF900
:10D0300040B91520FCF7EEF80028F2D01D49FCF7A6
:10D04000BBF8EEE7204601AA1C491C4E25F019FB4F
:10D05000002402AD78B1052C02D1FFF72DFFE0E7E7
:10D06000FCF7FEF901AA45F824003146002025F01E
:10D0700008FB0134EEE7052CEFD1029A0F2AECD819
:10D08000039D072DE9D8049C162CE6D8059800F1DD
:10D090007D03FA2BE1D80699FF29DED8054B03F86A
:10D0A000225003EB820398705C70D9700448FFF73C
:10D0B000ADFFB6E7AD430020C59D0308C6B1030828
:10D0C000D4AD03087FB50546FEF7B2F898BB044619
:10D0D0002B78002B37D1052C3DD1BDF90440A3B2EC
:10D0E000072B38D8BDF90610A1F2EE239BB240F20F
:10D0F000DC5083422FD8BDF90820A2F2EE239BB268
:10D10000834228D8BDF90A00814224DC824222DB16
:10D11000914220DCBDF90C5005F17D039BB2FA2B46
:10D1200019D8194B23F8341003EBC4035A809880A4
:10D130009D7104B070BD14490022012004B0BDE807
:10D140007040FEF7F7BE2D2B03D0A3F13002092A61
:10D1500015D8042C03DD04B0BDE87040ACE62846C9
:10D16000FCF77EF904AB661C03EB440424F80C0CBA
:10D1700015F8013F303B092BFAD93446A8E7202B9C
:10D18000E9D101352646F8E7EE4300202DE9F041CC
:10D190000546FEF74DF8064630B100222849012029
:10D1A000BDE8F041FEF71ABF6FF00042254928465E
:10D1B000FCF73CF970B9224B4FF47A714FF4FA62E4
:10D1C00019805A809980DA8019815A819981DA818F
:10D1D000BDE8F0812846FCF743F90328044626D829
:10D1E0002846FEF737F9064668B1FCF739F90125FC
:10D1F00007463046FEF72EF910B1FCF731F925B994
:10D20000BDE8F04158E60546F3E7A7F2EE2240F20A
:10D21000DC539A42F4D8A0F2EE229A42F0D8084B9E
:10D2200023F8247003EB84035880BDE8F081324674
:10D23000032305490548BDE8F041FEF7E3BA00BF06
:10D240002E3A0020C59D0308CB9D0308EE990308E4
:10D2500070B50446FDF7ECFF064630B100222E49BA
:10D260000120BDE87040FEF7F3BE05222B492046A1
:10D27000FCF7DCF838B92849002243181030C028E0
:10D280001A60FAD170BD2046FCF7EAF80B28054673
:10D2900039D82046FEF7DEF8064640B3FCF7FDF825
:10D2A0001D4B03EB051383ED000A01243046FEF706
:10D2B000D1F8064638B1FCF7F0F8174B03EB05132D
:10D2C00083ED010A01343046FEF7C4F8064638B152
:10D2D000FCF7E3F8104B03EB051383ED020A01346E
:10D2E0003046FEF7B7F820B9BDE87040E4E50446E3
:10D2F000DCE7FCF7D2F8084B032C03EB051585EDB2
:10D30000030AF1D1AAE732460B2305490548BDE8D7
:10D310007040FEF777BA00BF282D0020C59D030896
:10D32000E8990308EE9903082DE9F7438146FDF7D4
:10D330007FFF064638B1002237490120FEF716FF6D
:10D3400003B0BDE8F0834846FCF78AF80B28044692
:10D350005BDC0625454309F101008DF80760FEF707
:10D3600079F8DFF8B480814605EB0807464638B106
:10D37000FCF776F803289EBF012378718DF80730FB
:10D380004846FEF767F8814660B1FCF769F80D285A
:10D3900008D8062303FB046398709DF80730013317
:10D3A0008DF807300DF1070239464846FEF75FF861
:10D3B000FEF750F8814660B1FCF752F8302808D8E3
:10D3C000062303FB0463D8709DF8073001338DF802
:10D3D00007304846FEF73EF860B1FCF741F80D28EB
:10D3E00008D8062303FB04649DF80730207101333D
:10D3F0008DF807309DF80730062BA1D0002345F8A3
:10D400000830BB80FFF758FD9AE70B2332460349EB
:10D410000348FEF7F7F993E7DE2C0020E8990308AC
:10D42000EE9903082DE9FF410346FDF701FF38B1EE
:10D4300036490022012004B0BDE8F041FEF7F8BEF5
:10D4400001900290039018465D1CFCF709F844B265
:10D45000204613F021F8064600283AD08DF80840FF
:10D4600001242846FDF7F6FF074620B1FBF7F8FF39
:10D4700001340190E4B2DFF8988000253846FDF7CA
:10D48000E9FF0746F8B1FBF7EBFF002258F822103E
:10D490008842D3B203D00132112AF7D1002358F8C1
:10D4A000232090420FD1022D1BD0032D1ED0012D21
:10D4B00011D05A1E0F2A03D88DF809300134E4B276
:10D4C0000135042DDAD1052C16D804B0BDE8F041A1
:10D4D000F2E40446C5E71A1F042AF1D88DF80A3091
:10D4E000ECE7082BECD88DF80C30E7E75A1F052A3B
:10D4F000E6D88DF80B30E1E701AB03CB306018685C
:10D500007160B06004B0BDE8F08100BF14910020EC
:10D51000F88D030810B504460348FEF7D3F82046FB
:10D52000BDE81040FEF79CBF0C970308022810B519
:10D530000C4610D801F0D8F90748FFF7EBFF074B6E
:10D54000074859780131FEF75DF921463020BDE8E2
:10D550001040FEF7D8BB10BDD39D03086C9300208C
:10D56000E39D0308022810B50C4614D801F0D4F945
:10D570000948FFF7CFFF094B094819780131FEF739
:10D5800041F921461020FEF7BEFB21462020BDE8D0
:10D590001040FEF7B8BB10BD11B003086C9300201B
:10D5A000EB9D03082DE9F04F0E468DB07C490446F3
:10D5B000FDF787FF0546002840F0BC8079492046EA
:10D5C000FDF77FFF0546002840F0B68076492046EB
:10D5D000FDF777FF0546002840F0B08020467349EC
:10D5E000FDF76FFF0028054612BF102425460124D1
:10D5F0000EB144F020046E4B6E4E93F8009093F8F9
:10D6000001806D4F0193BE42C0F09A80FEF713F87F
:10D61000484601F081F9404601F066F9674928461D
:10D62000FDF74FFF08B144F0400414F0110F00F073
:10D63000C1816348FFF76EFF0020FEF761F904F037
:10D640003003302B02D15F48FFF764FF5E4D5F4827
:10D65000DFF8B0A1DFF8B0B1FFF75CFF5C48FFF77F
:10D6600059FFD5ED007A5B4AF5EE407AF1EE10FAFB
:10D670000CBF012100212046FEF7F8FB2A4656493F
:10D68000564D2046FEF7E4FC5548FFF743FF95F959
:10D690000210544AB1FA81F149092046FEF7E6FB2F
:10D6A0002A4651492046FEF7F3FB5048FFF732FF68
:10D6B0004F4A50492046FEF73DFC4F48FFF72AFFEE
:10D6C0004E4B1E684E4B1F684FF000085AF828500A
:10D6D000002D43D1DFF834A1A84667EA060B494B79
:10D6E00053F82850002D00F093802B78FBB14FF0B9
:10D6F000010909FA08F917EA090F0BD066EA0703CE
:10D7000013EA090F52462B4614BF0121002120467F
:10D71000FEF796FB16EA090F09D01BEA090F2B4604
:10D72000524614BF012100212046FEF79FFB08F15D
:10D730000108D4E701245BE7022459E7042457E7F2
:10D740007288B068716812F4004FC2F30B0218BF00
:10D7500002EB420227F053F8143654E72B78DBB182
:10D760004FF0010909FA08F967EA060313EA090FFD
:10D7700014BF012100212B465A462046FEF760FBCC
:10D7800066EA070313EA090F5A462B4614BF012124
:10D7900000212046FEF76AFB08F1010896E700BF6A
:10D7A0000D9E030811B00308D39D0308149E0308BF
:10D7B0006C930020A0C3030810C70308189E030839
:10D7C0009BB10308259E0308282D002057B00308AD
:10D7D0003DB10308609E03080C2E0020AD430020DD
:10D7E0006F9E0308799E030880450020869E0308EB
:10D7F000EE430020404500208C9E0308C893002083
:10D80000A09300209C4B0308949E0308A09E03084D
:10D810007F48DFF86C82DFF86C92FFF77BFE7D4B70
:10D820001E687D4B1B687340DB4303934FF0010B75
:10D83000039A0BFA05F31A4218BF5F46774A08BFEE
:10D840000027334002934FF00C0303FB05233946B6
:10D85000D3F808A014BF42464A4653462046FEF776
:10D86000EFFA029A5346002A14BF4A464246394606
:10D8700020465D44FEF7FAFA162DD7D16848694E66
:10D88000694FFFF747FE002368488DF820308DF878
:10D8900010308DF821308DF811308DF822308DF850
:10D8A00012308DF823308DF813305D460BEB0602F5
:10D8B0001BF8003012F8011C0CAA1A440DF1300EAE
:10D8C00002F8201C1BF8072096440EF8101C2DB1FE
:10D8D000A3EB020EDEF1000545EB0E050BF1010B8B
:10D8E000BBF1050FE2D1002608AB514A8DF8146058
