:020000040800F2
:10000000000001100DED0208D7D1010821A201085E
:10001000C9ED0208C9ED0208C9ED020800000000A0
:10002000000000000000000000000000D5D1010821
:10003000D3D1010800000000D1D10108CF10000881
:10004000C9ED0208C9ED0208C9ED0208C9ED0208B0
:10005000C9ED0208C9ED0208771400087F140008F2
:10006000C9ED02087D1400087B14000891D6010830
:100070007DD6010869D6010855D6010841D6010888
:100080002DD6010819D60108C9ED0208C9ED0208EC
:10009000C9ED0208C9ED0208C9ED0208791400088B
:1000A000D1D70108A9D7010881D70108F9D70108DC
:1000B0006DD7010859D7010845D70108C9ED0208D5
:1000C000C9ED0208C9ED0208C9ED0208C9ED020830
:1000D000C9ED020811E00108C9ED020805E00108B8
:1000E00075140008C9ED0208D9E80108F5D6010821
:1000F000CDD60108A5D601081DD7010805D60108EF
:10010000C9ED0208C9ED020831D70108C9ED02089E
:10011000C9ED0208C9ED0208C9ED0208C9ED0208DF
:10012000F1D50108DDD50108C9D50108B5D501080B
:10013000A1D50108C9ED0208C9ED0208C9ED020800
:10014000C9ED0208C9ED0208C9ED020843CC010857
:100150008DD5010879D5010865D50108F9DF0108B9
:10016000C9ED0208C9ED0208C9ED0208C9ED02088F
:10017000C9ED0208C9ED0208C9ED0208C9ED02087F
:08018000C9ED0208C9ED0208F7
:1001880020B10078B0FA80F040097047012070472C
:100198000368D3F8190007EE100AC9B1D3F81D3067
:1001A800DFED166A9FED166A07EE903AF8EE677A69
:1001B80077EEE67A77EEA77AC7EE866AF7EE007AE8
:1001C80076EEE77ADFED0F6A67EEE67AC1ED007A40
:1001D8009AB1DFED0D7ADFED0D6AB8EEC77A27EE3A
:1001E800277AC7EE267A9FED0A7A77EEC77A9FEDCF
:1001F800097A77EE877AC2ED007A70479AC9CC44BB
:100208009AC94C460E76D7450000484300E0FF44A3
:10021800000048423393884370B530B34C6844B902
:10022800426815685679AB890222B24023EA020374
:10023800AB818A683AB943681D68AB8923F001032A
:100248001B041B0CAB81816044B14468216864794C
:100258008D890223A3402B439BB28B812AB143682B
:100268001A68938943F00103938170BD436A8269D8
:10027800D154436A02690133934228BF0023426B79
:100288004362D36843F08003D36070470346026A31
:100298004169885CD96801328A4228BF0022C0B20D
:1002A8001A627047D0E90902131A58425841704738
:1002B800D0E9092300699A4238BF1218D31A0138C5
:1002C800C01A7047D0E907239A422FBFD01AC068D6
:1002D8008018C01A704783681A68937A0133DBB2B2
:1002E8000A2B937205D950780249002321F810305F
:1002F80093727047D238002070B5534B1A78142483
:100308000132B2FBF4F004FB10229C68586D1A709D
:10031800A142DA6808440CD293F85C40002C00F043
:100328008F8000F5803082423DD3C2F5803202448E
:100338000AE08242F9D293F85C40002C14BF4FF4D3
:1003480080340024821A121BC3E9021093F860104B
:100358001A610022013183F85C20142291FBF2F02B
:1003680002FB101183F8601093F8611018690131CD
:1003780091FBF2F402FB141283F8612040F68C2200
:1003880090423FD91A7993F959108A4250B21ED136
:10039800111F0C291BD893F85A10182906D80131B7
:1003A80083F85A1004E04FF48034CBE783F8580000
:1003B80093F958108A4202D193F85B10D1B90122FF
:1003C80083F85B2083F8590000221A7170BD002160
:1003D800E6E705EB8106366924F8116001318A42A7
:1003E800F7DC1A4900240F2A08DD19490A78013276
:1003F8000A70E4E70021154C164DF0E721F8124089
:100408000132F0E793F85B20002ADFD0A0F2EF2159
:1004180040F2DA52914207D81A790F2A04D803EB2E
:10042800820101324861D0E700220A4883F85B2044
:1004380011461346C2180433402B1161FAD1C5E79F
:100448008242FFF47FAF70E770150020D238002099
:10045800B03800207415002010B50A4B1A781424FF
:100468000132B2FBF4F004FB10221A705A6D01320B
:100478000A445A654FF6FF72914204BF012283F87D
:100488005C2010BD70150020024B53F820305981B4
:10049800704700BFC48A00200120704701207047C0
:1004A8000D4B1A683F2AF0B59C4613DC0B4C17011C
:1004B8000346E61900F1100E18685968354603C559
:1004C800083373452E46F7D1054B1B68E3510132BB
:1004D800CCF80020F0BD00BFEC2D0020EC29002056
:1004E800D063002070B5104C05460E46002200234C
:1004F800D4E91A012EF072F820B109A3D3E9002338
:10050800C4E91A2330462DF097FDD4E91A232DF0BB
:1005180027FF2EF095F804EB4504A4F8700070BD91
:10052800ABAAAAAAAA461040701500200E4B984202
:1005380013D0A3F57843984211D003F5806398420D
:100548000FD10223094A142101FB03231A8A01321D
:1005580092B21A82188A80B270470023F2E7012308
:10056800F0E74FF0FF3070470030014044020020B0
:1005780008B540F2E933028992070BD589B2818127
:1005880040F2E9330289D2070CD4013B9BB2002B1D
:10059800F8D103E0013B9BB2002BECD1FFF7C6FF7B
:1005A800C0B208BD8089FBE730B50278202A03462F
:1005B80000F10100F9D0092AF7D02D2A4BD10346C2
:1005C800BFEE000A9FED3C7A1A46F2EE046A134623
:1005D80012F8010BA0F13001CCB2092C41D92E2818
:1005E8000BD1F2EE046A1146B0EE666A0B4611F8BA
:1005F800012B303AD0B209283CD91A7802F0DF0230
:10060800452A53D15A782D2A3FD102330120013B84
:1006180000220A2513F8011F3039CCB2092C3AD927
:10062800B2F59A7F1346DFED256A28BF4FF49A7317
:100638001A46F7EE007A072A30D8DA086FF0070171
:1006480001FB0233F2EE046A63BB88B3C7EE276A84
:1006580020EE260A30BD2B2A08BF0346B7EE000A53
:10066800B0E707EE901AF8EEE77AE7EE267AB0EEF2
:10067800677AACE707EE902AF8EEE77AC7EEA65A53
:1006880066EE866A37EE257AB0E72B2A14BF013367
:1006980002330020BBE705FB0212BBE767EEA67A30
:1006A800083AC8E767EEA67A013BCDE7F7EE007A8D
:1006B80067EE276ACCE700BF0000000020BCBE4CF4
:1006C800A0F13003DAB2092A01D818467047A0F120
:1006D8006103052B01D857387047A0F14103052B5A
:1006E80094BF37384FF0FF307047F0B50124B0FBA6
:1006F800F4F58D4203D200271CB91C70F0BD4C43A1
:10070800F5E7B0FBF4F604FB1600B4FBF1F42FB9DF
:10071800002E03DC002CEFD1302505E0092EFBDD8F
:10072800002A14BF3725572535441D70013701337A
:10073800E2E703685A1C02601970704703685A1C84
:100748000260197070472DE9F84F002B14BF4FF065
:1007580030094FF020090A9B141E07468846BABF85
:1007680064424FF0010B4FF0000B13F8012B02B15C
:1007780034B9BBF1000F0ED000230A9D5E1B0EE0BA
:10078800013CF2E749463846C04715F1FF35F9D232
:1007980023462C46F1E72546F7E73846C04705EBE0
:1007A800060A15F8011B0029F7D1BBF1000F05D087
:1007B8002546002D05DC002CA8BFA2445046BDE804
:1007C800F88F49463846C047013DF2E7D0ED006A48
:1007D800D0ED057AE6EE807AB0EE407AB0EE670AA0
:1007E800D0ED037AD0ED016A67EEC07AE6EE877A3B
:1007F800D0ED066A77EEA67AD0ED026AC0ED057AEA
:10080800D0ED047A67EEC07AE6EE877AC0ED067A14
:100818007047704743230B80004870470000002052
:1008280010B5074C606CFF2807D00649D1F8902016
:10083800943119F0B6FDFF236364002010BD00BF9A
:10084800000000207015002008B5D0F8E4355B6A78
:100858009847002008BD08B5D0F8E4351B6A9847CA
:10086800002008BDD0F8E43510B504461B68984749
:10087800D4F8E8359B689847002010BD08B5D0F833
:10088800E435DB6903B19847002008BD08B590F846
:10089800123180F81331042380F81231D0F8E8358A
:1008A800DB689847002008BD10B5D0F8E835044645
:1008B8001B699847032384F81231002010BDF0B556
:1008C8004B784C69012B27D182691568136914B9D3
:1008D80064F3060305E08E68A642F9D24E6166F31A
:1008E800060343F400231361C478012C05D10B7867
:1008F8000E6900EB83039B695E6145F00445156052
:1009080044B94B6933B102690978506B01238B40B4
:10091800034353630020F0BD0B788F6800EB83031B
:1009280007F07F065A6D156813696CB966F30603FC
:1009380043F400231361C378012B04BF0B6953618F
:1009480045F004451560E5E74F61EFE72DE9F04113
:1009580091F801E00D784B69CE78BEF1010F4FD1C7
:1009680000EB850CDCF818703A683C6963F31204F4
:1009780093B96EF3DC443C61C478012C1BD10D693A
:100988007D61012E25D100698068C00554BF42F001
:10099800005242F080521CE0D1F8088008EB030EA8
:1009A8000EF1FF3E012EBEFBF8FE6EF3DC4408BFDD
:1009B80066F35E74DFE7012EE5D053B1D0F810E09E
:1009C8000120DEF8348000FA05F545EA0805CEF87E
:1009D800345042F00442012E3A6009D144B99BB226
:1009E8000333C968DCF8D0009B102246934202D139
:1009F8000020BDE8F08151F8224004600132F5E79B
:100A080000EB8505D1F808C06F6DCCF312053A6884
:100A18003C69A3B965F31204012363F3DC443C6128
:100A2800C378012B04BF0B697B61012E03D14B797D
:100A3800A3B142F0005242F004423A60D8E763445E
:100A4800013BB3FBFCF3C3F3090363F3DC446B43DF
:100A5800C3F3120363F312044B61E0E742F08052E0
:100A6800E9E770B501F07F05282404FB050104FBC4
:100A780005040126C4F82821C4F82C21002201F518
:100A88008E7184F81D6184F81C51C4F83421C4F8AF
:100A980030311DB9FFF713FF002070BDFFF756FF77
:100AA800FAE7244BD3F89C200F2A70B502F1010114
:100AB8001D4603D0C3F89C10002070BD1E490023BA
:100AC800C5F89C300B78002BF6D11C4C2268B2F587
:100AD800006F08BF23601A4B22681B689A4202D134
:100AE80000230B70E8E78CBFC2F500639B1AC5F8BA
:100AF800A030D5F8A030402B0FD9403B02F140067A
:100B0800C5F8A03001230B70266040230D4911FA67
:100B180082F28121FFF7A5FFCEE702EB03062660EC
:100B28004FF00004C5F8A0400EBF022401249BB278
:100B38000C70EBE770150020CC5B0020245B0020D4
:100B4800285B0020CD5B002070B51A490B78012B7B
:100B58000C4604D1184DD5F8A0305BB90B7023783A
:100B6800022B18D100231A468121FFF77AFF0023B0
:100B7800237010E0114C402B22680ED9403B02F143
:100B88004001C5F8A030216040230D4911FA82F2D6
:100B98008121FFF766FF002070BD03EB0206266087
:100BA8004FF00004C5F8A0400ABF02249BB20C70A5
:100BB800EBE700BFCC5B002070150020245B002011
:100BC800CD5B002010B504461346C4F83C21C4F898
:100BD8003821022280F811210A460021FFF741FF3F
:100BE800002010BD70B50C46282606FB040506FB40
:100BF8000101C5F88833002385F87443C5F88023BC
:100C0800C5F88C3385F87533C37806FB0404012BCB
:100C180008BFC5F8842394F8743301F55D711BB9D6
:100C2800FFF74DFE002070BDFFF790FEFAE738B5DC
:100C3800282303FB0101074DB1F88C13044628460D
:100C480019F077FB40232A4601212046FFF7CAFF07
:100C5800002038BD1416002030B50B7849780122E1
:100C68009A4000EB830301294FF000052C460CBF86
:100C78009B695B6D92B20CBF62F30F0462F31F4471
:100C88006FF3CF3502691D60D36923EA0403D3618A
:100C9800002030BD40F2011310B500F5A2710446E2
:100CA800A0F84431FFF7D8FF0123A4F89C3304F5DA
:100CB80067712046FFF7D0FF4FF48173A4F86C31B9
:100CC80004F5B6712046FFF7C7FF19F0ABFB00200B
:100CD80010BD0B7830B501224D789A4000EB8303A4
:100CE800012D0CBF9D695D6D2B6892B24FF0000419
:100CF8000CBF62F30F0462F31F441A040DD48A6810
:100D080062F30A03CA7862F39343CA8862F3995379
:100D180043F0805343F400432B600369DA691443BA
:100D2800DC61002030BD2DE9F04140F2011304469A
:100D3800022600254FF040080127A0F84431C0F8EA
:100D48004C8180F84761A0F84A7180F8485100F555
:100D5800A271FFF7BEFF04F56771A4F89C73C4F88D
:100D6800A48384F89F6384F8A0532046FFF7B1FF5B
:100D78004FF48173A4F86C310823C4F87431032349
:100D880004F5B67184F86F31A4F872612046FFF754
:100D9800A0FF074B1E715D7119F04CFB4346054AD5
:100DA80039462046FFF71EFF2846BDE8F08100BF00
:100DB800280200201416002070B50025402604469D
:100DC800A0F87453C0F87C6380F8775300F55D7120
:100DD800FFF77FFF4FF48073A4F81C3104F58E7180
:100DE800C4F8246184F81F51A4F822512046FFF763
:100DF80070FF012384F81231D4F8E835A0785B68D5
:100E08009847284670BD0E4BDA68D20310D4DA68CA
:100E1800D1060FD4DA68D2050ED4DA6812F0E00FE2
:100E28000CD1DB6813F0020F14BF082009207047AB
:100E3800012070470620704702207047072070473E
:100E4800003C024007B509238DF80730FFF7DBFFA8
:100E58008DF807009DF80730012BF7D09DF80700A3
:100E680003B05DF804FB08B5202130F07EFB034693
:100E7800184623B10278202A03F10103F8D008BDEF
:100E880038B583681C688BB2A178024631B9A38053
:100E98000123A370BDE838401AF04ABDA088E3805A
:100EA800984281BF51680968C96A091A94BF1B1A18
:100EB8005B1823816178064B208923F811000025EF
:100EC800A570012110461AF033FDA57238BD00BF88
:100ED800D238002038B50A4C07EE901A54F8203062
:100EE800B8EEE77A93ED040AD3ED057A0546A7EE46
:100EF800270A2EF0F1FA54F82530DB68186038BD5F
:100F0800C48A00202DE9F0410B4DDFF830802C68B1
:100F18006A69012714400CB9BDE8F081B4FA84F37A
:100F2800C3F11F0307FA03F658F82300036898472C
:100F380024EA06046E61EEE7003C0140D463002019
:100F480070B50A7812F0600406460D462BD0202CA6
:100F580030D1CC884B7804B312060CD522461F49F1
:100F6800184619F01EFAEA881C493046FFF72AFE8F
:100F78000024204670BD1A4AC0F894435364194AA5
:100F8800C0F890430323C2F8904080F8113194329E
:100F980023460021FFF726FEEAE7022211441846FD
:100FA80019F0FFF9E5E74B780A2B08D00B2B0BD08B
:100FB800062BDED130461AF027FC0224D9E701229D
:100FC8000949FFF7FFFDD4E78B781BB9054AC2F83A
:100FD800E430CDE71AF018FCCBE700BF0416002078
:100FE8000000002070150020541600202DE97848D4
:100FF800214B5A68214BC2F308028AB9EFF31182D8
:1010080072B91F481F491D6886681A689542FAD147
:10101800D1F8EC209642F6D81B4BD3E900231AE00E
:10102800EFF31182102181F3128801F1E0218E681B
:10103800086810F4803F13481EBF0124C0F8E84038
:101048008E681968D0F8E850D3B283F311880E4B34
:10105800D3E900230D444FF47A74A2FB04BC04FBCB
:1010680003CCBBEB06006CF100012DF0B7FCE4FBF0
:101078000501BDE8788800BF00ED00E0D0630020DE
:1010880010E000E070150020B0870020F8B5044695
:101098000D46FFF7ABFF06460F46FFF7A7FF821B7B
:1010A80061EB0703AB4208BFA242F6D3F8BD10B507
:1010B800044614F1FF3400D210BD4FF47A700021B9
:1010C800FFF7E4FFF5E7EFF31183102282F31288AC
:1010D80008490A6801320A60074A08499068C1F855
:1010E800EC000020C1F8E8001268DBB283F3118835
:1010F800704700BFD063002010E000E070150020AA
:1011080003689B6A03B11847704703685B6A03B1B9
:101118001847704703689B69184703685B69184755
:1011280003681B6918470368DB68184703689B68EE
:10113800184703685B68184703681B681847036803
:10114800DB6970B506460C4615467BB90D442B1B6A
:10115800002B00DC70BD3046FFF7E8FF0028FAD00E
:1011680014F8011B3046FFF7E7FFF0E7BDE87040D1
:101178001847E4E7014B1868DEE700BFCC4B0020B6
:1011880038B505460C4614F8011B01B938BD284688
:10119800FFF7D2FFF7E70D4B1B681B0110B407D50B
:1011A8000B4B1B685B050DD55DF8044BFFF79AB92F
:1011B800084B03EB8003D3F8F0301BB107289CBF22
:1011C800DB6819605DF8044B704700BF209600206B
:1011D800C06C0020701500201FB5ADF80A30BDF8AE
:1011E8001830ADF8040041F48041ADF80C30684681
:1011F800BDF81C30ADF80610ADF80820ADF80E307B
:10120800FFF74EF905B05DF804FB1FB5ADF8040013
:101218006846ADF80610FFF743F905B05DF804FB22
:10122800064B53F820303BB19A881B6859690A422B
:1012380001D05A8370471A83704700BFDC1903082E
:1012480010B50409013C032C00F00F0215D80C4B13
:1012580033F8141041FA02F313F001000CD0012006
:101268009040013808402DF0D1FB064B1B5D184417
:10127800054B0C2202FB003010BD0020FCE700BF2C
:10128800D419030844160308EC26002010B103689B
:1012980082885A83704710B1036882881A8370471E
:1012A800F8B5164690F90C2014235343104AD55824
:1012B80083689A0704460F4606D40069FFF7E6FFDD
:1012C80001200021FFF7E2FE39462846FFF750F9D2
:1012D80031462846FFF74CF9A3689B0706D401203E
:1012E8000021FFF7D3FE2069FFF7D5FF0120F8BDE5
:1012F8004402002028B10368828809B11A83704724
:101308005A837047044B01461868044B1B780BB985
:1013180081F00101EEE700BFDC2E0020E02E002066
:10132800024B81F0010153F82000E3E7DC190308C0
:1013380008B51E4B1E4C1D68A0681EF0D7F928463C
:101348001EF0D4F9A06841798B0703D441F002015B
:10135800FFF7E0FE00210846FFF7E2FF0021012029
:10136800FFF7DEFFA068FFF7E4FE70B1012100205F
:10137800FFF7D6FFA068FFF7D6FE01462846FFF71D
:10138800DBFE00210846FFF7CBFF2846FFF7D1FE1A
:101398000028E7D001210846FFF7C2FF2846FFF7DB
:1013A800C2FE0146A068FFF7C7FED7E7844B0020BE
:1013B800A491002080B580460B25013D02D172B66C
:1013C8001CF004FE01210846FFF7AAFF0021084689
:1013D800FFF7A6FF08F10106322705240120FFF7D1
:1013E8001FFF0020FFF71CFF0120FFF78BFF384687
:1013F800FFF75DFE0120FFF713FF0020FFF710FF46
:101408000020FFF77FFF3846FFF751FE74B1013C1B
:10141800E4D14FF4FA70FFF74AFEFA2726B94FF4E1
:101428007A70FFF744FEC8E70024D7E7013EF5E7E6
:1014380030B1036882881B691A4214BF012000205A
:10144800704728B18088B0FA80F0C0F11F0070475B
:101458004FF0FF30704730B1006800F13F4000F5B1
:101468007E00800A70474FF0FF3070474AE549E533
:1014780048E547E546E545E537B504468B6821600C
:101488000D46984701232373FF220023A373627339
:10149800E3732B6B13B120469847E0730B4B93F81B
:1014A80010311BB1E37B23F00103E37323685B6B0B
:1014B8004BB1214601A8984728B1BDF80630013B39
:1014C800238203B030BDFF23FAE700BF7015002068
:1014D80003689B6A18472DE9F341044618461646E7
:1014E8000D461F462CF04EFC2368E6722844002265
:1014F800A0720092D3F8148032463B462946204613
:10150800C04702B0BDE8F081036810B504465B68C7
:101518009847236820469B689847A37B013BA373A1
:1015280010BD036810B504461B6898472368204619
:101538009B689847A37B0133A37310BD10B503685C
:1015480004469B68984701232373FF23637310BDE8
:10155800F8B584894FF6FF764FF47A740BB90120F9
:101568001CE082B1157801320789BF070DD5ADB2ED
:1015780085814FF47A740589ED0710D4013CA4B233
:10158800B442F8D105E0FF25EEE7013CA4B2B4422D
:10159800EAD1FEF7CBFF003018BF0120F8BD8589DE
:1015A800ADB209B10D700131013BD7E770B51646F0
:1015B80090F90C20142353430C4AD55883689A0792
:1015C800044602D40069FFF761FE2846FEF7D0FF03
:1015D8000123002231462846FFF7BAFFA3689B077C
:1015E80002D42069FFF757FE012070BD4402002095
:1015F800F8B5164690F90C201F46142353430D4A9C
:10160800D55883689A07044602D40069FFF73EFE5E
:101618002846FEF7ADFF3B46002231462846FFF735
:1016280097FFA3689B0702D42069FFF734FE0120C7
:10163800F8BD00BF44020020F8B5164690F90C200A
:101648001F46142353430D4AD55883689A07044606
:1016580002D40069FFF71AFE2846FEF789FF3B46C9
:10166800324600212846FFF773FFA3689B0702D480
:101678002069FFF710FE0120F8BD00BF44020020DA
:10168800F8B51F4690F90C300446142058430C4B0B
:101698001D58A36816469A0703D42069FFF7F6FD7C
:1016A80000BF3B4632462846FFF752FFA3689B0718
:1016B80003D400BF2069FFF7EEFD0120F8BD00BF8D
:1016C80044020020F8B50679012E054609D0022EFD
:1016D8001FD18368DB0758BF41F08001BDE8F8409F
:1016E80064E70D4B90F90C00182404FB0034637870
:1016F8006BB16B7BA1725B0023720023637223754D
:101708000223A370C4E903621CF0F8FD237D184688
:10171800F8BD0023FBE700BF648700202DE9F041F6
:101728000479012C05461F4609D0022C20D1846873
:10173800E40758BF41F08001BDE8F04158E70D4B80
:1017480090F90C00182404FB003463786BB16B7BB0
:10175800A1725B0023720023637223750223A370B6
:10176800C4E903721CF0CAFD237D1846BDE8F08168
:101778000023FAE76487002073B504680023237602
:10178800042305460DEB0302FF212046FFF7C6FFA1
:1017980010B9002002B070BD04236A46FF212868F2
:1017A800FFF7BCFF0028F4D09DF804108B09023B1A
:1017B800012BEED99DF800309DF805209DF80150C9
:1017C80002EB012205EB0325C2F30D02C5F30D055B
:1017D800531B002BB8BF5B42FF2BDADC9DF80610C9
:1017E8009DF807309DF8026003EB01239DF8031074
:1017F80001EB06215B1149115E1A002EB8BF764233
:10180800FF2EC6DC01262A440B443241334126769A
:10181800C4F81D20C4F81930BCE707B5012301AA94
:10182800FF210068FFF77AFF03B05DF804FB13B5EA
:1018380002230C4601AA00210068FFF76FFF60B180
:101848005CB19DF80530DB099A0013449DF904202A
:1018580002EB820203EB4203238002B010BD73B592
:101868000379012B0D4616460AD0022B25D1836831
:10187800DB0758BF01F07F01FFF712FD02B070BD12
:1018880090F90C10427B0E488DF80760182404FB71
:10189800010460780028F1D06372E3600DF107035A
:1018A8002361002352002375022308462272A57281
:1018B800A3701CF023FD207DE0E70020DEE700BFD9
:1018C80064870020094B70B5841CD3F81451A40018
:1018D800E4B20E46CAB228462146FFF7C0FF611C93
:1018E800320A2846C9B2BDE87040B8E77015002032
:1018F8002DE9F0410E4E8046002406F1A807E0B21B
:1019080000F0030343450ED136F8145037F814306D
:10191800EB1A002BB8BF5B42052B04DD2946FFF705
:10192800D1FF27F814500134102CE8D1BDE8F0811C
:10193800E015002038B50F4BD3F8145110220021C0
:1019480041F2D774B4FBF0F42846FFF788FF012072
:10195800FFF7ADFB621ED2B2FE212846FFF77FFFDC
:101968000120FFF7A4FB284680220021BDE838406B
:1019780075E700BF701500202DE9F0410679012EAA
:1019880005469E4609D0022E20D18468E40758BF38
:1019980041F08001BDE8F0414EE60D4B90F90C0096
:1019A800182404FB003463786BB16B7BA1725B0075
:1019B8002372002323750223A3706672C4E903E22D
:1019C8001CF09CFC237D1846BDE8F0810023FAE753
:1019D8006487002073B50479022C39D1032390F968
:1019E8000C008DF8033004238DF80430142343438E
:1019F8001A4E1B48F3588DF80240002501228342F5
:101A08008DF800508DF8012024D0A0F5784083424D
:101A180022D0144A93421BD1204602AA11441A88A4
:101A280011F8084C22F040021204120C14211A80FA
:101A380001FB00601A88C16822F0380231F81410DE
:101A48001204120C0A431A801A8842F040021A80C3
:101A580002B070BD2846E0E71046DEE744020020E9
:101A680000300140003C004010B5427A044632B1D3
:101A7800036800F10A01406898470023637210BDAB
:101A8800064B1B68597A4A1C1944D2B25A7288729A
:101A9800197A914201D81846E6E77047804B002032
:101AA80010B4447A631C0444DBB24372A172027A14
:101AB8009A4202D85DF8044BD6E75DF8044B7047AC
:101AC80038B5094D441E14F8011F01B938BD2868FE
:101AD800427A531C0244DBB243729172027A9A42F0
:101AE800F1D8FFF7C1FFEEE7804B002008B50446A8
:101AF8000648FFF7E5FF064B1868FFF7B5FF054BEB
:101B080018681DF0F3FD204605F02CFA1C6A03083E
:101B1800804B0020844B0020044808B5FFF7D0FF15
:101B280005F01CFC0020FFF7E1FF00BF286A03084E
:101B3800034808B5FFF7C4FF0120FFF7D7FF00BF30
:101B48002F6A030808B50448FFF7BAFF034B186863
:101B5800BDE8084088E700BF486A0308804B0020BA
:101B68000048ADE74671030808B5FFF7A9FFBDE8CF
:101B78000840F5E708B50948FFF7F6FF084B18686D
:101B8800FFF772FF074B00241C70074B1C60074BC4
:101B98001C701EF04BFC2046FFF7A8FF4D6A030897
:101BA800804B00208C4B0020884B0020487600207A
:101BB80008B50848FFF7D8FF1BF0B6FC1BF05AFB26
:101BC80018B10548BDE80840CEE76420FFF76FFA72
:101BD800F4E700BF776A0308826A03080048C3E78E
:101BE800886A030810B504460348FFF769FF2046D2
:101BF800BDE81040B8E700BF486A0308124B53F825
:101C0800200070B5E0B1114A062303FB002393F9C5
:101C18000140621C15D0187990B10D4A0D4E155D22
:101C2800DA7864211423002061438C18013B36F8CC
:101C380014402A442044F8D11423B0FBF3F080B2B6
:101C480070BD0020FCE700BF08430020E52E0020FF
:101C580097320020042F002038B503200D46144683
:101C6800FFF7CCFF07EE100A8DB1DFED0B7AB8EE67
:101C7800477AF0EE006A27EE277AF8EE047AE7EE64
:101C8800267A9FED067A67EE877AC5ED007A0CB161
:101C9800034B236038BD00BF6740533A00007A44C5
:101CA8003313904330B5084B08498B4200D330BDFD
:101CB8005A88140406D55D68DC68C2F30B0200FB81
:101CC800025222601433F0E7D49903086C9D03088C
:101CD80070B544880B460546C4F30B042246002120
:101CE80018462FF02BFC2969084A9142034607D36E
:101CF800074A914204D22246BDE870402DF00CBA42
:101D080019B11846BDE87040084770BD6C9D0308BE
:101D1800F09F03084388426813F4004F1EBFC9B2FE
:101D2800C3F30B0301FB03221146D1E7064B074916
:101D38008B4202D30023184670471A88C2F30B025D
:101D48009042F8D01433F3E7D49903086C9D030844
:101D5800024A136823EA000010607047BC3900206B
:101D6800024A136818431060704700BFBC3900204E
:101D7800F8B50468C4F30D0405460E4604B32F688D
:101D8800FFF760F8092840F08780454C236923F461
:101D980040732361236943F400732361236943F08B
:101DA800010323613E60FFF74DF82369092823F0FA
:101DB8000103236170D12B6804332B60002034E0C9
:101DC800384B394A93422AD902F58042934225D9A1
:101DD80002F58042934229D902F58042934227D9DD
:101DE80002F58032934225D902F50032934223D975
:101DF80002F50032934221D902F5003293421FD9ED
:101E080002F5003293421DD902F5802293421BD974
:101E1800B3F1016F1AD30520FFF7CCFA0824FFF7B6
:101E280011F8092814D04FF0FF30F8BD1024F6E758
:101E38001824F4E72024F2E72824F0E73024EEE71A
:101E48003824ECE74024EAE74824E8E75824E6E7A2
:101E5800134F3B6923F440733B613B6943F40073C0
:101E68003B613B6923F0F8033B613B6943F00203A4
:101E78001C433C613B6943F480333B61FEF7E2FF5E
:101E88003B6923F002033B613B69092823F0F8030F
:101E98003B613FF474AFC6E76FF00100C5E700BFD0
:101EA800003C024000000E08FF3F0008F8B5044659
:101EB8000D468E180027B542206900D1F8BDE368A9
:101EC800591CE160234415F8012B1A720429F2D138
:101ED80018B9A1682046FFF74BFFC4E90370EAE789
:101EE80038B50C468D18AC4200D138BD14F8011B2A
:101EF8001DF0D0FBF7E770B501221149114C124EC5
:101F08000020FFF7EDFF22884AB1A518B54214D288
:101F1800052A12D92146FFF7E3FF2C46F3E70222F0
:101F28002146FFF7DDFF6388084AC31AA41A084A46
:101F38005842A2F83841584170BD0020FCE700BF64
:101F480000000E0801000E0800001008FCFF0D0834
:101F58007015002030B50244904201D1002311E0F1
:101F680010F8013BA3F14104192C11F8014BA4F11D
:101F7800410598BF2033192D98BF20341B1B01D170
:101F8800002CE9D1184630BD70B5054608460E4606
:101F98002BF0F8FE3146044602462846FFF7DAFFE2
:101FA80060B92B5DA3F13002092A06D923F020037A
:101FB800413B192B01D9601C284470BD0020FCE767
:101FC80010B504460748FFF77BFD05F0D9FD05F07D
:101FD800C5F905492046FFF7D7FF08B9FFF786FD81
:101FE80010BD00BF946A03082470030870B5034647
:101FF80010F8012B202AFAD0092AF8D02D2A0ABF76
:10200800034601254FF0FF35591E00240A2611F812
:10201800010FFEF755FB0A2802D905FB04F070BD35
:1020280006FB0404F3E770B50D461446FEF71BFFE4
:102038000646A0B1FFF7DAFF40F634039842A8BF7E
:102048001846B0F5617FB8BF4FF461701923A0F549
:10205800617090FBF3F028702378013323703046C9
:10206800FEF701FF0646A0B1FFF7C0FF40F63403B4
:102078009842A8BF1846B0F5617FB8BF4FF46170A9
:102088001923A0F5617090FBF3F068702378013391
:102098002370304670BDB5EEC00ADFED2D7AF1EE43
:1020A80010FACCBF30EE270A30EE670ADFED297A46
:1020B80020EE270A30B5FDEEC07A87B017EE904AB9
:1020C800054684EAE470002303A9A0EBE470CDE997
:1020D8000033029319F0DCFB002CACBF20232D2326
:1020E80003A88DF800302BF04DFE012822D13023B3
:1020F8008DF801308DF802308DF8033003A9684659
:102108002FF024FA68462BF03DFE0338C4B222466D
:10211800694628462FF050FA00232B550E492846C9
:102128002FF014FA0DEB040128462FF00FFA284679
:1021380007B030BD022805D130238DF801308DF865
:102148000230DBE7032804BF30238DF80130D5E7E0
:102158006F12033A00007A44897C030870B506467A
:1021680015460846B6FBF2F414B12046FFF7F6FF11
:1021780005FB1464024B1B5D00F8013B70BD00BFFA
:10218800AA6A03080A4B2DE90048D3E900BC5BEAB8
:102198000C030AD0074909681BEB01024CF1000344
:1021A800C0E900230120BDE800880020FBE700BF4C
:1021B80078920020D0630020F0B5264E04460F46E2
:1021C8000FCE8DB06D460FC50FCE0FC596E80F0028
:1021D80085E80F0014F0030335D1642194FBF1F274
:1021E80001FB124242B94FF4C87294FBF2F302FBAE
:1021F8001343003318BF0123C3F11D0340F26D12CE
:1022080001930420631E93FBF0F002FB04046FF0BB
:10221800630093FBF0F020444FF4C87493FBF4F38D
:102228001844063000220721013F5DF8223097420A
:10223800184490FBF1F4C4EBC404A0EB040004D1EF
:10224800181A0DB0F0BD0123D6E701320C2AECD1E3
:102258000020F6E748160308F8B514461D4606465A
:102268004FF47A720023204629462CF067FB2C4B4A
:102278003C22034493FBF2F002FB1031B17190FB56
:10228800F2F102FB1102182072714FF4616293FBA4
:10229800F2F292FBF0F100FB112232712149224A3D
:1022A80093FBF2F293FBF1F3980040F2B55392FBE3
:1022B800F3F103FB1123B3F5896F2DDA40F2DA222B
:1022C80093422BDCB3F5B77FB4BF00220122174934
:1022D800182707FB02170B2137F811C09C4501DDB1
:1022E8000139F9D100F5FA6010443080481CB0700B
:1022F8000C2000FB02120E4901EB4202013392F856
:1023080034209B1AF3704FF47A7200232046294632
:102318002CF014FB3281F8BD0322D8E70222D6E75D
:1023280080BC92C7801F8607805101007816030879
:102338004416030837B505466846FFF723FF0446E9
:1023480038B1DDE900232846FFF786FF204603B0B1
:1023580030BD40F2011328806B80A880A8712881C5
:10236800F4E710B50288C178A2F5FA62930801393A
:1023780040F2B55404FB031381780C24013902F0B0
:10238800030204FB02120C49847901EB4202182172
:10239800928E1344027901FB0323427900893C2180
:1023A80001FB0323054A224401FB03234FF47A72FD
:1023B8000021C2FB030110BD4416030880436D3899
:1023C800D1E900329A4206D05A1C0A6008B11B783B
:1023D8000370012070470020704710B5026811464D
:1023E800531C036011F8024B0160D31C5178036041
:1023F80093781B0443EA0123111D0160D07823431D
:1024080043EA006010BD03685A1C02601A4612F8BD
:10241800021B0260587841EA00207047D1E9002386
:102428009B1A012B10B5044605DD0846FFF7EBFFA4
:102438002080012010BD0020FCE703685A1C0260C0
:102448001878704738B50446D0E900031B1A9A4239
:10245800154606DC2CF060FE22682A442260012022
:1024680038BD0020FCE738B50446006815462CF056
:1024780053FE22682A44226038BD03685A1C026051
:10248800197003685A1C02600A0A1A7003685A1CF9
:1024980002600A0C1A700368090E5A1C026019704F
:1024A800704703685A1C026019700368090A5A1CAD
:1024B8000260197070472DE9F04F89B082468B464B
:1024C80015461C4600270DF1140829786E1C51B3D7
:1024D800252903D05046D847013742E069782D298D
:1024E80005BFA978EE1CAE1C012518BF00253029B0
:1024F80006BF3178012300230293A1F1300308BFFE
:102508000136092B4FF0000916D96C2940F0A0803C
:102518003278642A06F1010544D024D8252A7BD0D4
:1025280014D8002AD1D1384609B0BDE8F08F0A2363
:1025380016F8011B03FB09090846FEF7C1F80A282B
:10254800F5D9002DE1D0C9F10009DEE7582A1AD0E3
:10255800632ABAD12E4621785046D847251D01371F
:102568002C463546B1E7732A4AD008D8662A56D091
:102578006E2AAAD12E46236804341F60F1E7752A13
:102588000AD0782AA1D1A2F15800424204F10406E7
:1025980043464241102103E0261D434600220A21FA
:1025A800206807E02068002804F104061ADB434687
:1025B80000220A21FEF799F83446CDF80080029BE4
:1025C8004A4659465046FEF7BEF807447DE720685C
:1025D80000280EDB434600220A210434FEF785F862
:1025E8003546EAE72D238DF8143040420DF11503E6
:1025F800DEE72D238DF8143040420DF11503EAE78C
:102608002E46236800934A46002359465046FEF753
:102618009AF8251D0744A3E72E4625215AE72E469A
:10262800073424F00703D3E9000103F108042CF070
:1026380027F800EE100A4046FFF72DFDCDF8008080
:10264800029B4A4659465046FEF77DF8074488E7FC
:102658006429BCD00CD82529DFD003D800293FF441
:1026680062AF7EE7582911D063293FF474AF78E749
:102678007329C6D005D86629D2D06E293FF47BAF1E
:102688006FE775290DD078297FF46BAF58394A4226
:102698004A412068251D43461021FEF726F82C469E
:1026A8009EE7231D03932068434600220A21FEF774
:1026B8001CF83546039C80E70FB413B5084C09494C
:1026C800206804AB53F8042B0193FFF7F4FE20684D
:1026D800FFF7CAF902B0BDE8104004B0704700BF68
:1026E800804B0020A91A0008F8B50C4C0C4E0D4F71
:1026F80004F510752068FFF7E3F9616811B13046F9
:10270800FFF7DAFFA16811B13846FFF7D5FF10349B
:10271800FFF726FAAC42EDD1F8BD00BFFC4903082B
:10272800CF6A0308D56A030810B5074C0B46024662
:1027380006492068FFF7BFFE2068FFF795F9BDE856
:102748001040FFF70DBA00BF804B0020A91A0008FF
:102758000FB407B504A951F8040B0191FFF7E4FF82
:1027680003B05DF804EB04B070472DE9F34719484E
:10277800194C1A4D1A4FDFF86C80FFF7E9FF04F582
:102788004076A379E27994F808A005EB820205EB7C
:1027980083032046D2F82091D3F89430FEF75BFEED
:1027A80000F141012046FEF74CFE0246BAF1000F47
:1027B8000AD0CDE900A94046FFF7CAFF0C34A6426B
:1027C800DFD102B0BDE8F087CDF800903846FFF7BA
:1027D800BFFFF3E7DB6A0308EC2600204416030872
:1027E800076B0308F76A0308F8B51048104D114E37
:1027F800114FFFF7ADFF002474B9104BD3F83C31EB
:102808006FF003025A4312F500620BD055F82410FA
:102818003046FFF79DFF03E057F82420002AF5D142
:10282800222C01D00134E7E7F8BD00BF156B03087F
:10283800D81603082B6B0308B0160020701500206B
:102848001FB5094B0293094B0193094B0093094AA1
:10285800094B0A490A48FFF77BFF0A490A4805B0AD
:102868005DF804EB74E700BF7F870308616B03081A
:102878006A6B03083F6B0308396B0308446B030852
:10288800496B0308766B0308B76B03082DE9F04F13
:102898005348544D8DB0FFF75BFF0026B046B14654
:1028A800514B1A680023934223DB0136152E05F19C
:1028B8004805F5D14D49D1E9020240090C6809697A
:1028C80040EAC2624FF47A734948B4FBF3F3FFF766
:1028D8003FFF0A2298FBF2F302FB138099FBF2F107
:1028E800009002FB11924348FFF732FF0DB0BDE89C
:1028F800F08F414951F823108D4201D00133D2E7BE
:10290800AC6A5CB107EE904ADFED3C6AF8EEE77A14
:1029180086EEA77AFDEEC77A17EE904AD5E90C72D3
:102928007F0947EAC2675209D5E90EA30B922146EF
:10293800E217CDE90812099A63430AFB0233A4FBA4
:102948000A0141F2883B1BEB000B19444FF0000CC5
:102958004CEB010C4FF47A720023584661462CF078
:102968003DF80B9B099A0A90634307FB0233A4FBCB
:10297800070141F2883B1BEB000B19444FF0000C98
:102988004CEB010C00234FF47A72584661462CF048
:1029980025F8032E18BF0A9B0A9918BF99444FF4CB
:1029A8007A722B6CB3FBF2F306934FF00A0318BF4D
:1029B800804490FBF3F203FB1200CDE904200A9A4D
:1029C80092FBF3F203FB1213CDE90223CDE900A732
:1029D80023462A680A483146FFF7BAFE65E700BF72
:1029E800C06B0308E80E0020EC0200100000001085
:1029F8003C6C03085E6C0308F00200100024744964
:102A0800076C030810B50C4C03461846FDF7B8FBD5
:102A180030B10A4B0A485978BDE81040013197E6B1
:102A28001846FFF7E3FA0138022804D8C0B205F0C7
:102A38007FF82346E9E710BD7F8703082437002085
:102A48008C6C030810B50C4C03461846FDF798FB30
:102A580030B10A4B0A481978BDE81040013177E6D1
:102A68001846FFF7C3FA0138022804D8C0B205F0A7
:102A78006EF82346E9E710BD7F8703082437002056
:102A8800946C030838B50346FDF77AFB80B3214BF5
:102A98009B6C0133172B21D81F490C2202FB031210
:102AA8001C4695684DB91C4A0C210134172C17DDBA
:102AB800002401FB042085689DB1164B9C641CF022
:102AC800F5FE2A4621461548FFF742FE0C235C43D3
:102AD800114B185DBDE838401DF000BA1C46E2E70E
:102AE800E7D99C42E1D10E48BDE83840FFF73CB831
:102AF8001846FFF77BFA1728044606D8064A0C231F
:102B080003FB00239D68002DD7D121460548BDE869
:102B180038401DE600000020F44F0308C96C030884
:102B28009F6C0308B36C0308F7B50346FDF728FB51
:102B3800044618B1FFF752F803B0F0BD01AA1D49C9
:102B48001C4F18462CF07CFC2646254640B90B2D18
:102B580018D919490B2302461848FFF7F9FDEBE786
:102B680044B1012C0AD001AA3946002001342CF0C6
:102B780067FCEBE7FFF73AFA0546F4E7FFF736FAA2
:102B88000646F0E7022C0DD1A6F57A73B3F57A7FE5
:102B980005D94FF4FA634FF47A720949DCE7094B17
:102BA80023F81560074B084833F915202946FFF725
:102BB800CFFDC1E7A17C0308DE6C0308E46C0308C1
:102BC800B78C0308F48A0020016D03082DE9F3414E
:102BD80004462BF0D7F804283DD1631E2546E11C96
:102BE80013F8012FA2F16100192898BF203A8B42EF
:102BF8001A70F5D1DFF87080271D15F8016B404673
:102C080031462EF0B2FC20B1314628462EF0ADFCFC
:102C180020B1FEF7E3FF02B0BDE8F081BD42ECD180
:102C2800204611F06BF80E480E4CFEF749FF0E488F
:102C380000231A1902A952780A44195C02F8081CE0
:102C48000133042BF5D10023694608488DF8043078
:102C5800FFF77EFDDFE70028E5D0FEF7BFFFE2E7DC
:102C68000E6D03082C3C002006310308D86A0308BF
:102C78002DE9F74F80462BF085F8474DDFF8449152
:102C88002F680446F0B94548454EFFF715FD012564
:102C980019F80430013B05FA03F33B4209EB04023F
:102CA80003D091683046FFF707FD0C34B4F5847FF4
:102CB800EED117B93B48FEF703FF03B0BDE8F04F6C
:102CC800FEF74EBF024638494046FFF743F906462D
:102CD80070B93648324DFEF7F3FE09EB0603284675
:102CE80099680C36FFF7E8FCB6F5907FF5D1E4E774
:102CF80098F800302D2B03BF08F1010804F1FF34C8
:102D08004FF0010A4FF0000A00260C2303FB069B34
:102D18000193DBF808300093194622464046FFF736
:102D280019F9019B00282ED1BAF1000F18D0162EE0
:102D38000AD11F4B2B601F48FEF7C2FE00991E48A0
:102D480003B0BDE8F04F03E5172E01D16B68F1E73A
:102D58009BF800305A1E012393401F432F60EAE777
:102D6800162E03D1C5F800A01448E5E7172E17BFA3
:102D78009BF800306F6003F1FF3201231EBF9340C0
:102D88009F432F60F0E70136182EBFD10C4803B0DF
:102D9800BDE8F04FFEF7E8BE98890020146D0308DF
:102DA800256D03081E6D03082A6D03082F6D03089F
:102DB800FFFF3F00476D0308266D0308506D0308A9
:102DC8003A6D0308F44F03082DE9F84305462AF045
:102DD800D9FF0446D0B9304B30481D68304EDFF873
:102DE800D080FEF76DFE012756F8241051B10B78FC
:102DF80033B107FA04F32B4202D04046FFF75CFCDC
:102E08000134F1E7BDE8F843FEF7AABE02462549BA
:102E18002846FFF79FF878B92348244C244DFEF73D
:102E28004FFE54F8041F0029ECD00B78002BF8D083
:102E38002846FFF741FCF4E72B78DFF864902D2B48
:102E480003BF013504F1FF344FF001084FF00008CB
:102E5800002659F8267027B91648BDE8F843FEF74A
:102E680083BE224639462846FFF774F890B90120F8
:102E7800B040B8F1000F09D0FEF76AFF0E48FEF720
:102E88001FFE39460D48BDE8F84361E4FEF768FFC8
:102E98000B48F4E70136DCE7BC390020586D03081D
:102EA800B41703082A6D0308666D0308B0170308F2
:102EB800626D03083A6D0308476D0308266D030821
:102EC800506D03082DE9FF410A4804888568468843
:102ED8008788D0F80C801AF0ADF90097CDE9018009
:102EE80033462A4621460448FFF732FC04B0BDE8C1
:102EF800F08100BF18030020726D03082DE9F34725
:102F0800204E21483768214CDFF89080DFF8849004
:102F1800DFF88CA0FEF728FE0025BD4202DB02B0D8
:102F2800BDE8F08733689D4229DCA288D3B2172B0D
:102F380018D808EB8303D3F8F431002B08BF4B46AD
:102F480021685046FFF7B8FBE3885A040CD5E0899E
:102F58000090A389628921890D48FFF7F9FB0135A3
:102F68001034DAE70B4BEBE71B0405D5D4E9021262
:102F78000948FFF7EDFBF2E7FEF7F2FDEFE7002364
:102F88009B88FFDEEC2D0020CD6D0308EC29002086
:102F9800086E03087F8703081A6E0308441603089F
:102FA800F96D0308F8B5447914F0C003054602D05A
:102FB800402B17D0F8BD1DF04DFF04F00F04062C70
:102FC800064605D10146BDE8F8401648FFF7C0BBE4
:102FD80028461DF06BFF32460146BDE8F84012480E
:102FE800FFF7B6BB83791148114E124F212B96BFBC
:102FF800114D002505EBC305FEF762FD00242B7972
:103008009C4203D3BDE8F840FEF7AABD14B1304690
:10301800FEF756FD2B68384653F82410FFF74CFB93
:103028000134ECE7246E0308346E03084B6E030882
:103038005B6E0308266D03084451030870B5437995
:10304800164603F00F028AB00546062A4CD8DFE878
:1030580002F0041316181B1D49000C7813F0C00366
:1030680044D0402B3CD1214628461DF0DBFE0028E9
:1030780056D0FFF721FB33E091F90040EEE70C88CA
:10308800ECE7B1F90040E9E70C68E7E791ED000AE1
:103098006846FFF700F801462648FFF70DFBFEB12A
:1030A8006B7913F0C00F1BD128461DF0FFFE07EE09
:1030B800900A6846B8EEE70AFEF7EDFF01461E489B
:1030C800FFF7FAFA28461DF0C5FE07EE900A684693
:1030D800B8EE670AFEF7DFFF01461748FFF7ECFA7C
:1030E8000AB070BD1348F9E70024B7E7042A0CBFFB
:1030F800124813482146FFF7DFFA002EF0D06B790B
:1031080013F0C00FECD128461DF0D0FE0446284627
:103118001DF0A0FE214602460A48FFF7CDFADFE778
:10312800694628461DF0ACFF6A4621460648FFF767
:103138000FFBD5E7D86A0308266D0308486E030815
:10314800159403085D6E0308646E030838B50D46D0
:1031580004461DF007FF2A4601462046BDE83840D0
:103168006CE72DE9F0430024DFF86080DFF8609019
:103178008BB00746264604EBC405454469462846F5
:103188001DF07EFF394668462EF03DFA78B1694653
:103198004846FFF791FA00212846FFF7D7FFFEF7C8
:1031A800DFFC2846FFF7FEFEFEF7DAFC01360134A5
:1031B80040F255139C42DED116B90348FEF7D4FC01
:1031C8000BB0BDE8F08300BF3A6D03089C240308E8
:1031D800C06E03082DE9F0472DED028B8AB0074633
:1031E8002AF0D0FD064620B1012824D13B782A2BAD
:1031F80021D18948DFF84082884FFEF7B5FC0024CA
:1032080004EBC4054544694628461DF039FF694664
:103218003846FFF751FA31462846FFF797FF013441
:10322800FEF79EFC40F255139C42E9D10AB0BDEC72
:10323800028BBDE8F0873D2138462EF096F900282C
:1032480000F0E580034613F8012C202A03F1FF3132
:103258002DD0DB1B441C2278202A04F1010128D040
:10326800DFF8D4A14FF00008DEB208EBC8055544DA
:10327800694628461DF004FF68462AF083FD694622
:10328800814602463846FEF765FEA0B9B14512D11F
:103298006B7903F00F08B8F1060F16D120462AF013
:1032A80071FD2146024628461DF069FEBEE70B4621
:1032B800C9E70C46CFE708F1010840F255139845D5
:1032C800D3D15748FEF750FCB0E713F0C0030AD03B
:1032D800402B5ED05348FEF7F3FB2846FFF762FE0B
:1032E800FEF73EFCA2E72378002BF3D04E49204698
:1032F8002EF077F9064620462AF044FD8642E9D1A9
:103308002046FDF751F92846B0EE408A1DF0CEFD63
:1033180007EE900AF8EEE77AF4EEC87AF1EE10FAC2
:10332800D8D828461DF096FD07EE900AF8EE677A81
:10333800F4EEC87AF1EE10FACCDBB8F1050F17D02D
:10334800B8F1040F1FD1214614F8013B202BFAD005
:10335800092BF8D0013900230A2011F8012F303A3F
:10336800D2B2092A02D800FB0323F6E708EE103A86
:1033780028461DF0F7FDB8F1050F35D8DFE808F04D
:1033880031313D3D41442046FEF730FE08EE100A3B
:10339800EEE7AB799FED258A212B96BF244E064692
:1033A80006EBC306002796F804A03B46B946BA4583
:1033B80000D91BB1B9F1000F8CD0D9E733686FF091
:1033C800004253F827002146FEF7C4FD002808BF35
:1033D80008EE107A0ABF012300234FF001090137D4
:1033E800E5E718EE103A037069461248FFF764F9EA
:1033F80000212846FFF7AAFE18E718EE103A0380C6
:10340800F2E780ED008AEFE780ED008AECE73846C6
:10341800FFF7A7FE0AE700BF816E0308C06E030826
:103428003A6D0308AC6E0308936E030800000000B1
:1034380044510308A16E03089C2403082DE9F04FAA
:1034480081468DB088460026464BF418464B1868CE
:10345800FEF70AFB94F805B00BF030034B4549D151
:1034680020461DF05DFDFEF761FC054620461DF077
:103478002DFDAA6801921718824620461DF072FD9C
:103488000BF00F010546019A062968D8DFE801F01C
:10349800043A3F43484C5A0012F80A200378D31ADA
:1034A800D3F1000A4AEB030A18F0200F02D0BAF150
:1034B800000F1FD102A920461DF0E2FD18F0400FB1
:1034C8000DD0BAF1000F0AD102A92848FFF7F4F885
:1034D800524629462046FFF7B1FDFEF741FB02A9F7
:1034E8002348FFF7E9F8002239462046FFF7A6FDF2
:1034F800FEF736FB093640F6FD339E42A4D10DB0E7
:10350800BDE8F08F12F90A2090F90030C7E732F8C9
:103518000A200388C3E732F90A20B0F90030BEE771
:1035280052F80A200368BAE797ED007AD0ED007ADE
:10353800B4EE677AF1EE10FA0CBF4FF0010A4FF0C3
:10354800000AB1E720461DF085FC2946421C384692
:103558002EF020F8B0FA80FA4FEA5A1AA4E74FF092
:10356800000AA1E79C240308804B0020BB6E0308D7
:10357800BC6E0308022810B50C460FD803F0B8FE3D
:103588000748FEF72FFB074B074859780131FFF72B
:10359800DFF821463020BDE810404FE710BD00BFDE
:1035A800C66E030824370020D66E0308022810B51B
:1035B8000C4613D803F0B4FE0948FEF713FB094B79
:1035C800094819780131FFF7C3F821461020FFF7A1
:1035D80035FF21462020BDE810402FE710BD00BF71
:1035E8003B8A030824370020DE6E03080CB407B5B5
:1035F80010F0400009D069B92320FEF741FA05A967
:1036080004980191FFF790F8012003B05DF804EBEE
:1036180002B070470020F8E70CB4830607B500D560
:1036280051B905A904980191FFF77EF8012003B06C
:103638005DF804EB02B070470020F8E72DE9F04F81
:10364800824687B091460E4615460027337896F98C
:10365800028004937378059396F803B0B8F1000FCD
:1036680032D0B9F1000F34D02B78049C6A7895F9E0
:103678000210E8789C422AD1059C944227D18845BB
:1036880025D1ABEB000CDCF1000444EB0C04CDE9D4
:103698000210CDE9003221463B460F4A5046FFF75B
:1036A800A5FF059B0193049B0093CDE9028B3B4644
:1036B800094A214650460137FFF7AEFF102F06F1A1
:1036C800040605F10405C1D107B0BDE8F08F002458
:1036D800DDE74C46E5E700BFEB6E030870B58AB03E
:1036E80004462AF04FFBC2B22AB926490120FFF747
:1036F800A5FF0AB070BD052223492046FEF72AFC23
:1037080040B91520FEF712FB0028F2D01D49FEF73C
:10371800DFFAEEE7204601AA1C491C4E2BF090FE6A
:10372800002402AD78B1052C02D1FEF757FAE0E784
:10373800FEF75CFC01AA45F82400314600202BF076
:103748007FFE0134EEE7052CEFD1029A0F2AECD860
:10375800039D072DE9D8049C162CE6D8059800F19E
:103768007D03FA2BE1D80699FF29DED8054B03F82B
:10377800225003EB820398705C70D9700448FFF7FD
:10378800ADFFB6E7F9890020FF6E0308A17C0308A6
:103798007F8703082DE9FF47DFF894A0814690460C
:1037A8000D4616460027B8F1000F3FD0B6F9003095
:1037B800B5F90010B6F90220B6F9040096F906C06A
:1037C800994231D1B5F9021091422DD1B5F90410C1
:1037D800814229D195F90610A1EB0C04614261419F
:1037E800CDE90032CDE9020C3B46524648460C462C
:1037F800FFF7FCFE95F906300393B5F90430029300
:10380800B5F90230019335F9083B009352463B461F
:10381800214648460137FFF7FFFE082F06F1080644
:10382800C1D104B0BDE8F0870021D9E74446E1E7FB
:10383800056F030830B585B00546FCF7A1FC0028E4
:1038480058D02D490022012005B0BDE83040A1E73D
:103858002D2B03D0A3F13002092A46D8042C04DD0D
:1038680005B0BDE83040FEF7B9B92846FEF7BEFB03
:1038780004AB621C03EB440424F80C0C15F8013F5C
:10388800303B092BFAD914462B78002BE0D1052CB4
:10389800E6D1BDF9040083B2072BE1D8BDF9064093
:1038A800A4F2EE239BB240F2DC529342D8D8BDF981
:1038B8000810A1F2EE239BB29342D1D8BDF90A2099
:1038C8009442CDDC9142CBDBBDF90C5005F17D0370
:1038D8009BB2FA2BC4D8084B23F8304003EBC00343
:1038E80059809A809D7105B030BD202BB8D1013523
:1038F8002246C8E70446C7E73A8A00202DE9F04F78
:10390800804685B00E461546894692460027002413
:1039180009EB040393F8C0300393002D48D00AEB59
:103928000403039A93F8C030D11AD1F1000B4BEB82
:10393800010BCDE90043204A3B4659464046FFF774
:1039480055FE039B1C4ACDE9004359463B46404679
:103958000134FFF761FE062CDAD10137062F09F191
:1039680006090AF1060AD2D106F1E40A124E002429
:103978001AF8019BF5B12B19404693F8E430A9EBEE
:10398800030257425741CDE90043324606233946E0
:10399800FFF72CFECDE9004906233246394640465A
:1039A8000134FFF739FE0B2CE2D105B0BDE8F08FEA
:1039B800AB46C6E72F46EDE71A6F03087FB5034607
:1039C800FCF7DEFB044630B100221F490120FFF757
:1039D80095FF04B070BD6A461C491C4E18462BF072
:1039E8002FFD01ADC0B1032C02D1FEF7F7F8F0E7C7
:1039F800FEF7FCFA6A4645F82400314600202BF011
:103A08001FFD0134EEE70628EFD10A2AEDD80E484B
:103A1800104480F8E43012E0032CE6D1039B0F2B0E
:103A2800E3D8DDE90112C8B20528ECD8052ADCD8AC
:103A3800054C062505FB0040104480F8C0300448BA
:103A4800FEF786FEC5E700BF748F0020A17C03083F
:103A58001A6F03082DE9FF47DFF86CA081469046EE
:103A68000E4615460027B8F1000F2AD02B88328859
:103A78009A4224D174886A88A21A54425441EA7836
:103A88000292AA782146CDE9003248463B46524682
:103A9800FFF7ACFDF3780293B378019336F8043B53
:103AA800009352463B46214648460137FFF7B4FD8E
:103AB800102F05F10405D6D104B0BDE8F087002425
:103AC800DDE74446E6E700BF2E6F03082DE9F04125
:103AD8000646FCF755FB044628B10022244901207C
:103AE800BDE8F041B6E73046FEF780FA0F280546F4
:103AF8002EDC3046FDF7B7F9DFF884801D4F064607
:103B080020353046FEF772FA38F81430984227DC30
:103B1800012C11D0022C13D027F8250030462C2177
:103B28002DF023FD064678B1013601230134BBB1DF
:103B3800032CE6D1BDE8F08107EB85039870EDE72B
:103B480007EB8503D870E9E7A21E53425341EDE71E
:103B580022460F2308490948BDE8F041FEF7F8BDA1
:103B6800002347F82530BDE8F041FEF737B800BF1D
:103B7800F48F0020748F0020DE6C0308E46C0308C7
:103B8800981803082DE9F04FDFF868808FB00746D2
:103B98008A46164600240DF124095AF82430029367
:103BA800494602A818F0B4F816B356F82430029D16
:103BB8000393EB1A5D420DF1100B5D41594603A8C2
:103BC80018F0A6F8CDF800B02346424629463846F4
:103BD800FFF70CFD2346CDF80090424629463846AB
:103BE8000134FFF719FD202CD7D10FB0BDE8F08FB5
:103BF8003546EFE7406F03082DE9F04F87B00546DB
:103C0800FCF7BEFA044638B1002263490120FFF7E9
:103C1800B9FF07B0BDE8F08F2846FEF7E7F91F287F
:103C2800074600F3B1802846FDF71DF95A4B00946A
:103C380043F82740834625462646A046A146A24685
:103C48000193564BE1B2E05C0DF10C0E0023DC460B
:103C58001BF8012B1AB1904211D00A2B0BD10DF190
:103C6800180E734490424FF0000E03F80CEC08D085
:103C7800FDF7B4FFCDE703F80E200133E7E702466E
:103C8800EDE701390CF1010B03293FD8DFE801F01A
:103C98005A2602730DF10B014FF0010E11F8013F86
:103CA800C3B300223E4810F802C09C4503D001323D
:103CB800072AF7D14A46542B53D04F2B53D0422BC7
:103CC80053D04E2B53D0492B53D0572B04D1052317
:103CD8000EFA03F348EA03089146DFE70DF10B02F9
:103CE800012112F8013FABB14E2B30D0452B30D01B
:103CF800532B30D0572B30D0552B30D0442BF0D10C
:103D0800052301FA03F34AEA030AEAE703A8FEF7E0
:103D18006DF906460134052C93D1009B05F00F057B
:103D280045EA834545EA8A5A4AEA0929360149EAB1
:103D38000838019BF6B248EA060643F8276023F0E4
:103D48008BFE66E703A8FEF751F90546E2E7002374
:103D5800D7E70123D5E70223D3E70323D1E70423D9
:103D6800CFE70023B4E70123B2E70223B0E7032338
:103D7800AEE70423ACE703A8FEF738F903460F289B
:103D8800C8BF00230093C5E71F23224605490648FC
:103D9800FEF7DEFC3DE700BF748F00209E18030885
:103DA8005E4E0308DE6C0308E46C03082DE9F34754
:103DB800DFF868A081460F46904602260024B8F135
:103DC800000F28D038F8243037F8241038F80620A7
:103DD80099421ED1BD5BA91A4D424D41CDE9003231
:103DE8002946234652464846FFF700FCBB5B019331
:103DF80037F8243000935246234629464846013472
:103E0800FFF70AFC042C06F10406D8D102B0BDE87D
:103E1800F0870025E2E74546E8E700BF4A6F030858
:103E28002DE9F0410546FCF7ABF9064628B100221A
:103E380027490120BDE8F041B8E76FF00042254965
:103E48002846FEF787F870B9214B4FF47A714FF482
:103E5800FA6219805A809980DA8019815A81998189
:103E6800DA81BDE8F0812846FEF7C0F80328044649
:103E780026D82846FCF7F7FF064670B1FEF7B6F8D5
:103E8800012507463046FCF7EEFF10B1FEF7AEF805
:103E98002DB9BDE8F041FDF7A1BE0546F2E7A7F24E
:103EA800EE2240F2DC539A42F3D8A0F2EE229A4274
:103EB800EFD8074B23F8247003EB84035880D0E72E
:103EC8003246032304490548BDE8F041FEF740BCEB
:103ED800F0430020FF6E03085B6F0308E46C0308DF
:103EE8002DE9F04F2DED088BDFF80C9197B0804647
:103EF80092460D461446002695ED008AB5EE408A96
:103F0800F1EE10FA70D0D5ED019A95ED029AD5ED43
:103F1800038ABAF1000F3ED094ED000A94ED01BA7D
:103F2800D4ED02AA94ED03AAB4EE408AF1EE10FA99
:103F38005FD1F4EE4B9AF1EE10FA5AD1B4EE6A9AC8
:103F4800F1EE10FA55D1F4EE4A8AF1EE10FA0CBFF0
:103F58000127002712A8FEF79EF8B0EE4B0A834609
:103F68000EA8FEF798F8B0EE6A0A05900AA8FEF7C0
:103F780092F8B0EE4A0A049006A8FEF78CF8059B62
:103F8800049A03900292CDE900B34A463346394673
:103F98004046FFF72BFBB0EE480A12A8FEF77BF865
:103FA800B0EE690A07460EA8FEF775F8B0EE490AA2
:103FB80083460AA8FEF76FF8B0EE680A049006A8D0
:103FC800FEF769F8049B0390CDE901B300973346E7
:103FD8004A46002140460136FFF71EFB0C2E05F12C
:103FE800100504F1100487D117B0BDEC088BBDE8AB
:103FF800F08F0027AEE700BF636F030870B5044673
:10400800FCF7BEF8064628B100222E490120BDE87B
:10401800704065E705222C492046FDF79BFF40B913
:104028002849002201EB001301300C281A60F9D14D
:1040380070BD2046FDF7DAFF0B2805463AD8204622
:10404800FCF711FF064648B3FCF7AEFA1D4B03EB2D
:10405800051383ED000A01243046FCF704FF0646E9
:1040680038B1FCF7A1FA174B03EB051383ED010AEE
:1040780001343046FCF7F7FE064638B1FCF794FAEF
:10408800104B03EB051383ED020A01343046FCF7AD
:10409800EAFE28B9BDE87040FDF7A0BD0446DBE79D
:1040A800FCF782FA074B032C03EB051585ED030A91
:1040B800AAD0EFE732460B2304490548BDE8704013
:1040C800FEF746BB888C0020FF6E0308DE6C0308F1
:1040D800E46C03082DE9F04F834687B092460C46FE
:1040E800164600274FF019094FF46178BAF1000F0E
:1040F8004DD0B078A5783378727896F803C096F8E2
:1041080004E07179854240D125789D423DD165789A
:1041180095423AD1E578654537D12579754534D149
:1041280065798D4214BF0025012519FB028219FB10
:104138000383CDE9010303920091CDE904CE3B4608
:10414800144A29465846FFF751FA23790593E3782C
:10415800049363780F4A19FB03830393237819FBAD
:1041680003830293A37801936379009329463B461E
:1041780058460137FFF750FA0C2F04F1060406F1F0
:104188000606B3D107B0BDE8F08F0025CDE7554648
:10419800DBE700BF776F03082DE9F7438146FBF79C
:1041A800EFFF064638B1002237490120FFF792FF9A
:1041B80003B0BDE8F0834846FDF718FF0B28044616
:1041C8005BDC0625454309F101008DF80760FCF723
:1041D8004AFEDFF8B480814605EB0807464638B149
:1041E800FDF704FF03289EBF012378718DF807307F
:1041F8004846FCF738FE814660B1FDF7F7FE0D280A
:1042080008D8062303FB046398709DF80730013330
:104218008DF807300DF1070239464846FDF703FFD0
:10422800FCF721FE814660B1FDF7E0FE302808D892
:104238009DF80730062202FB04620133D0708DF826
:1042480007304846FCF70FFE60B1FDF7CFFE0D289A
:1042580008D89DF80730062202FB04640133207158
:104268008DF807309DF80730062BA1D0002345F8BC
:104278000830BB80FDF7B2FC9AE70B2332460349AE
:104288000348FEF765FA93E73E8C0020DE6C0308CE
:10429800E46C03082DE9F04F89B002F13003374F81
:1042A800DFF8E0A00793814690460C46164694F93D
:1042B800040000230C2202FB03F1314D49578142CF
:1042C80056D00133042BF6D1079B0C36B34204F1C8
:1042D8000C04ECD109B0BDE8F08F96F904303268CF
:1042E800717996F806C096F808E096F807B09842F3
:1042F8003CD12068904239D16079884236D1A07982
:10430800604533D1207A704530D1E579A5EB0B00B3
:104318004542454157F82B0057F82110049057F8AB
:104328002E00039057F82C000290CDE90021484652
:1043380052462946FFF75AF9E27994F9043057F8BA
:1043480022200492227A57F822200392A27957F861
:1043580022200292627957F8222001922268009264
:10436800294652464846FFF757F9ADE70025D1E7F9
:10437800B8F1000FB1D14546DEE700BF0863030876
:1043880070640020956F03082DE9FF410346FBF791
:10439800F7FE30B136490022012004B0BDE8F041F3
:1043A80078E7CDE90100039018465D1CFDF71EFE75
:1043B80044B220461BF012FA064600283BD08DF87E
:1043C800084001242846FCF74EFD074620B1FDF7BA
:1043D8000DFE01340190E4B2DFF8988000253846DC
:1043E800FCF741FD0746F8B1FDF700FE002258F83A
:1043F80022108842D3B203D00132112AF7D1002308
:1044080058F8232090420FD1022D1CD0032D1FD025
:10441800012D12D05A1E0F2A03D88DF80930013405
:10442800E4B20135042DDAD1052C17D804B0BDE863
:10443800F041FDF7D3BB0446C4E71A1F042AF0D89D
:104448008DF80A30EBE7082BEBD88DF80C30E6E74F
:104458005A1F052AE5D88DF80B30E0E701AB03CBEE
:10446800306018687160B06004B0BDE8F08100BFCA
:104478003C640020086303082DE9F04F834685B0AB
:1044880092460D46164600274FF019094FF46178F9
:10449800BAF1000F3ED032782C787178B378F07882
:1044A800944235D16C788C4232D1AC789C422FD171
:1044B800EC78A4EB000CDCF1000444EB0C0419FBD1
:1044C800008019FB0383CDE90113039000923B465A
:1044D800114A21465846FFF789F8EB780E4A19FB2E
:1044E80003830393AB7819FB038302936B780193DF
:1044F80015F8043B009321463B4658460137FFF721
:104508008BF8142F06F10406C2D105B0BDE8F08F70
:104518000024D4E75446E0E7B26F03082DE9F04FD2
:104528000F468DB07A490646FDF72EFD0546002850
:1045380040F0AC8077493046FDF726FD0546002857
:1045480040F0A68074493046FDF71EFD0546002858
:1045580040F0A08071493046FDF716FD0028054659
:104568000ABF0124102435460FB144F020046C4BD7
:104578006C4E93F8009093F801806B4F0193BE4204
:10458800C0F08A8003F0FCFA484602F0C9FE4046B3
:1045980002F0AEFE65492846FDF7F6FC08B144F086
:1045A800400414F0110F00F0C7816148FDF71AFBB1
:1045B8000020FEF745F904F03003302B02D15D48A6
:1045C800FDF710FB5C4D5D48DFF8A8A1DFF8A8B146
:1045D800FDF708FB5A48FDF705FBD5ED007A594A67
:1045E800F5EE407AF1EE10FA0CBF012100212046C9
:1045F800FFF712F82A465449544D2046FFF770FC3D
:104608005348FDF7EFFA95F90210524AB1FA81F1D1
:1046180049092046FFF700F82A464F492046FFF788
:104628000DF84E48FDF7DEFA4D4A4E492046FFF791
:10463800B1F84D48FDF7D6FA4C4B1E684C4B1F6835
:104648004FF000085AF828509DB32B78DBB14FF093
:10465800010909FA08F967EA060313EA090F14BF02
:10466800012100212B465A462046FEF7BFFF66EA85
:10467800070313EA090F5A462B4614BF01210021EC
:104688002046FEF7C9FF08F10108DBE701246BE7C4
:10469800022469E7042467E77388C3F30B021B0449
:1046A800D6E9011048BF02EB42022AF035FD143664
:1046B80065E7DFF8C8A0A84667EA060B2D4B53F854
:1046C8002850002D5CD02B78FBB14FF0010909FA76
:1046D80008F917EA090F0BD066EA070313EA090F6E
:1046E80052462B4614BF012100212046FEF77EFFCB
:1046F80016EA090F09D01BEA090F2B46524614BFC8
:10470800012100212046FEF787FF08F10108D5E7BF
:10471800DA6F03083B8A0308C66E0308E16F0308D3
:1047280024370020D49903086C9D0308E56F03081B
:10473800C58B0308F26F0308888C0020818A030860
:10474800678B03082D7003086C8D0020F989002001
:104758003C70030846700308228F0020537003083A
:104768003A8A0020E28E002059700308384500205C
:10477800BC390020B4170308617003086D70030882
:104788008448DFF89C92DFF89C82FDF72BFA824B75
:104798001E68824B1B687340DB4303934FF0010B89
:1047A800039A0BFA05F31A4218BF5F467C4A08BF02
:1047B8000027334002934FF00C0303FB05233946CF
:1047C800D3F808A00CBF4A46424653462046FEF797
:1047D8000DFF029A5346002A14BF4A4642463946FC
:1047E80020465D44FEF718FF162DD7D16D486E4E52
:1047F8006E4FFDF7F7F900236D48089304935D4663
:104808000BEB06021BF8003012F8011C0CAA1A4424
:104818000DF1300C02F8201C1BF8072094440CF80A
:10482800101C2DB1A3EB020CDCF1000545EB0C05C7
:104838000BF1010BBBF1050FE2D1002608AB5D4A75
:104848008DF8146029462046FEF7D0FE04AB594A7D
:1048580029462046FEF7E0FE5748FDF7C3F9574AB8
:1048680057492046FFF716FD5648FDF7BBF9564A4B
:1048780056492046FFF786F95548FDF7B3F9554ADA
:1048880055492046FFF7E6F85448FDF7ABF94E4A7C
:104898004E492046FFF732F85148FDF7A3F9514A2F
:1048A80051492046FFF7E8FD5048FDF79BF9504A6B
:1048B80050492046FFF70EFC4F48FDF793F94F4A41
:1048C8004F492046FFF772FA4E48FDF78BF93046FC
:1048D8002146FEF7B3FDE00643D5019B214630464D
:1048E8001F785D78FEF762FE21460120FEF75EFE26
:1048F80021460220FEF75AFE21463046FEF73AFED0
:1049080021460120FEF736FE21460220FEF732FE40
:10491800384602F005FD284602F0EAFC3A48FDF761
:1049280061F9791C3948FDF713FF3948691CFDF70F
:104938000FFF3848FDF756F9A10704D5019B21461A
:104948001878FEF733FE620704D5019B2146587894
:10495800FEF710FE304C314B9C420DD30DB0BDE834
:10496800F08F019B21461878FEF720FE019B214617
:104978005878FEF7FFFDDFE76388C3F30B021B04DB
:10498800D4E9010148BF02EB42022AF0C5FB143406
:10499800E1E700BFEE870308648F002098890020B4
:1049A800F44F030878700308063103082C3C0020F4
:1049B800BC4400207C700308248B03083C6400205E
:1049C800F4880020546D0308748F0020F8940020A8
:1049D80088700308F48F00207895002083700308FE
:1049E8008E700308168B00207A8E002092700308C0
:1049F8003E8C00202C8E00209B700308F043002082
:104A0800E0430020DA6F0308A3700308946C0308DE
:104A18008C6C0308C6700308D49903086C9D0308BE
:104A2800CF6F0308C56F0308012177E5002175E5FD
:104A3800F7B50746FBF7A4FB044630B1002222492C
:104A48000120FFF719FD03B0F0BD3846FDF7CEFA97
:104A58001328054630DC8600781C8DF80740FCF7E3
:104A680002FA194C074640B1FDF7C0FA28289EBF44
:104A7800012304F825008DF807303846FCF7F3F9D0
:104A8800074650B1FDF7B2FA0D2806D8A319587099
:104A98009DF8073001338DF80730B11C0DF107027E
:104AA80021443846FDF7BFFA9DF80730042BCAD0D9
:104AB800002344F82530C6E7132322460349044857
:104AC800FDF746FEBFE700BF168B0020DE6C03082B
:104AD800E46C03080EB40FB505AB019053F8042B32
:104AE8000649039301A8FDF7E6FC019B00221A7012
:104AF80004B05DF804EB03B0704700BF4507000839
:104B08000FB437B50B490C48096800680B4D06AB64
:104B180053F8042B0193FDF7CEFC04462868FCF7F4
:104B2800FCFA0028FAD0204603B0BDE8304004B0B3
:104B3800704700BFF02D0020F42D0020CC4B002042
:104B48002DE9F04F87B00346FBF71AFB064620B164
:104B5800FDF744F807B0BDE8F08F05AA6049DFF813
:104B6800AC91DFF8ACA1DFF8ACB118462AF068FCCC
:104B780034460546B0464FF0FF37A5B9594B78B2D1
:104B88000C2606FB05F2D118D256824200F08B8023
:104B98000135042DF5D1B8F1000F34D1524839460A
:104BA800FFF7AEFFD6E7012E0ED0022E11D01EB9A8
:104BB8002846FDF71BFA074605AA494900202AF0AE
:104BC8003FFC01360546D8E72846FDF70FFA804630
:104BD800F2E7494628462CF016FD20B943492846F5
:104BE8002CF011FD08B144F00104514628462CF080
:104BF8000AFD28B9594628462CF005FD0028DBD0C7
:104C080044F00204D8E7002C08BF03240023E4B2D0
:104C18000293CDE900841A4619461AF087FD054625
:104C280010B939463248BBE7424639463148FFF7A2
:104C380067FF39463048FFF763FF304B1C68204652
:104C48001AF054FD28461AF051FD00210846FCF7D9
:104C580067FB00210120FCF763FB2046FCF769FA9B
:104C680070B101210020FCF75BFB2046FCF75BFAE2
:104C780001462846FCF760FA00210846FCF750FB7D
:104C88002846FCF756FA0028E7D001210020FCF757
:104C980047FB2846FCF747FA01462046FCF74CFA42
:104CA80000210846D7E74D68002D3FF474AF394618
:104CB8001348FFF725FF54B16979A14207D022466E
:104CC8001048FFF71DFFE1B22846FCF723FAEB6A0C
:104CD800002BAED00C48FFF713FF0023EB62A8E7C8
:104CE800A17C030870640020E57003089F7703081F
:104CF8000D7103082C71030897710308844B002079
:104D0800497103086171030881710308DF700308A2
:104D1800E2700308977703082DE9F04F4FF0000C75
:104D280085B0864607468046054600F1400908F1E9
:104D3800100B2B463E4612E0F4EC016A1AED047A99
:104D4800D3ED007AE6EEC77AC3ED007AAC420AF1F9
:104D5800100AF1D104335B4506F1040602D0B246CD
:104D68004446F3E71E464E451CD006EB0C0BBA46EC
:104D7800B04607E0F8EC016A1AED047AE6EEC77A65
:104D8800C4ED047AD845D4ED047A0AF1100AF1D1B9
:104D9800D5ED006A87EEA67A103617EE108A44F829
:104DA800108FE0E70CF1040CBCF1100F05F11405AD
:104DB80007F104079846BAD10023009301930293A0
:104DC800039302F1100705466C4652F8043B44F879
:104DD800043B6E467346AB4224D1BA420EF1100E24
:104DE80003F11405F1D1403004AE01F1100305467A
:104DF80056F8044D43F8044C1A1F0446AC42D2ED51
:104E0800007A1AD150ED016A87EEA67A8A42A0F19B
:104E18001400A4F11005134682ED007AE8D105B01C
:104E2800BDE8F08FB6EC017A54ED017AF3EC016A33
:104E3800E6EEC77A44ED017ACDE7F4EC016AB3EC0B
:104E4800017AE6EEC77AC2ED007AD7E71FB50C46BD
:104E5800024669461030FFF75FFFDDED007AB6EED7
:104E6800007A67EE877AC4ED007ADDED017A67EEA5
:104E7800877AC4ED017ADDED027A67EE877AC4EDB0
:104E8800027A04B010BDD1ED007A90ED066AD0ED3B
:104E9800095AB8EEE77AD0ED047AE7EE077AB7EE6A
:104EA800005AC0ED047AD1ED017AF8EEE76AD0ED48
:104EB800057AE7EE267AC0ED057AD1ED027AF8EEAA
:104EC800E77AA7EE276A80ED066A90ED076A36EE64
:104ED800076A80ED076A90ED086AA7EE266A80EDFA
:104EE800086A26EEA66A75EE865AA7EE076AC0ED2E
:104EF800095AD0ED0A5AE6EEA75AA7EEA76AC0EDFE
:104F08000A5AD0ED0B5A75EEA65AC0ED0B5AD0EDE1
:104F18000C5AE7EE275AC0ED0C5AD0ED0D5AE6EEC2
:104F2800A75AC0ED0D5AD0ED0E5AE7EEA75AC0EDBC
:104F38000E5AD0ED0F5A75EEA75AC0ED0F5AD0EDA4
:104F4800105A75EE875AC0ED105AD0ED115A75EE09
:104F5800A65AC0ED115AD0ED125A75EEA75AC0EDF7
:104F6800125AD0ED135A75EE855AC0ED135AD0ED8A
:104F7800005AE7EE065A90ED017AC0ED005AA6EE07
:104F8800867A80ED017A90ED027AA7EE867AD0EDE6
:104F9800037A80ED027A37EE866A80ED036A7047FD
:104FA80000F14001034600221A615A619A61DA61F0
:104FB80010338B4240F8042BF6D1704780EAE07337
:104FC800A3EBE0738B4206DB002801DD401A704733
:104FD80002D0084470470020704744F2506398425A
:104FE80003DDA0F50C40A0387047034B9842BCBFC6
:104FF80000F50C40A0307047B0B9FFFFF0EEE06A52
:10500800B0EEC07AF4EEC76AF1EE10FAD4BFB0EE93
:10501800476AB0EE666AB5EE406AF1EE10FA48D01B
:10502800F4EEC76AF1EE10FA54BFF0EE475AF0EE0C
:10503800665AC5EE867A9FED206ADFED205A9FED0D
:10504800205AE7EE865A9FED1F6AA5EEA76ADFEDA4
:105058001E5AE6EE275A9FED1D6AA5EEA76ADFEDF8
:105068001C5AA7EEA55AF7EE005AE5EE275AB1EEFC
:10507800466AC6EE257AF4EEC76AF1EE10FA48BF22
:105088009FED147AF5EEC00A48BF77EE677AF1EE25
:1050980010FA48BF9FED107AB5EEC00A48BF77EE08
:1050A800677AF1EE10FA48BFF1EE677AB0EE670A58
:1050B8007047DFED0A7ABEE739094E3DE3B59EBE7B
:1050C80069A2163E88FA16BE45FE7FBFA7DFA8B4C0
:1050D80099FB243FDB0FC93FDB0F4940000000006C
:1050E800FDEEC07A17EE903A2033402B43D8DFED1F
:1050F800237A9FED237AB4EEE70AF1EE10FA28DC62
:10510800DFED207A9FED1E7AB4EEE70AF1EE10FA91
:1051180022D4DFED1D7AB4EEE70AF1EE10FA1EDDB7
:1051280030EE670A37EEC00A60EE007ADFED176AE4
:105138009FED177AA7EEA67ADFED166AE7EE876A83
:105148009FED157AA7EEA67A20EE276AA6EE070A43
:10515800704730EE470ACEE730EE070AD4E79FEDF6
:105168000F7AB4EEC70AF1EE10FA44BF30EE270A00
:1051780037EE400AD8E79FED0A0A7047DB0F49402F
:10518800DB0FC940DB0F49C0DB0FC93F9A7C2E36C5
:10519800FAAF4FB93587083CA4AA2ABEDB0FC9BFAE
:1051A80000000000DFED027A30EE270A98E700BF22
:1051B800DB0FC93F91ED005A08B5B0EE450AFFF77D
:1051C800F1FFF0EE405AB0EE450AFFF789FFD1ED46
:1051D800014AB0EE405AB0EE640AFFF7E3FFB0EEC2
:1051E800404AB0EE640AFFF77BFF91ED023AF0EE19
:1051F800403AB0EE430AFFF7D5FFF0EE404AB0EE72
:10520800430AFFF76DFF25EEA46A65EE806A65EE36
:10521800247A64EE244A25EE007AC0ED004AF0EEC6
:10522800664AE3EEA74AB0EE463AC0ED034AF1EE0D
:10523800634AA4EE873AE3EEA67AA4EE867A24EED1
:10524800400A25EE445A65EE845A80ED010AC0ED05
:10525800023A80ED043A80ED055A80ED067AC0EDF9
:10526800077AC0ED085A08BD38B52F4CB4FBF2F4E4
:10527800A142B0EE405A1D46F7EE005A4FF0000426
:105288004BD207EE901A9FED297ADFED296AF8EEE6
:10529800677A67EE877A07EE102AB8EE477A27EE24
:1052A800267AC5EE876AC7EEA64AB0EE640AFFF70B
:1052B80017FFB0EE404AB0EE640AFFF773FF35EE11
:1052C800055A012D84EE056A1CBF75EEC06AB6EE5C
:1052D800007AB8EE005A76EE257A12BF26EE877A63
:1052E80060EE056AB0EE657AC7EE274A86EEA77AC1
:1052F80020EE050A80ED017A80EE277A75EEC65A0F
:1053080080ED037A85EEA77AC0ED004AC0ED024A27
:1053180080ED047A8461446138BDC0ED005A446070
:105328008460C4600461F5E720A10700DB0FC94071
:10533800BD37863500239FED010A95E7F304353F15
:1053480030B507EE902A2DED028BB8EE670A07EE0E
:10535800903AF8EE677A83B080EE270A0D46044645
:1053680001922AF0B1F930EE008AB0EE000AF0EEB0
:10537800480A2AF0B3F92AF043FBF0EE480AF0EEA7
:10538800408AB0EE000A2AF0A9F9F7EE007A30EE6A
:10539800670A019988EE800A01232A46204603B04D
:1053A800BDEC028BBDE830405EE7D0ED017AF5EE4A
:1053B800407AF1EE10FA09D1DFED0E7A60EEA70A15
:1053C800B7EE007AC7EE207AC0ED017A90ED017A47
:1053D800D0ED007A80ED021A31EE077A30EE670AD6
:1053E800C1EE076AE6EE807AB0EE670AC0ED007A91
:1053F800704700BFDB0FC94090ED017AD0ED007A0D
:10540800C0ED020A30EE877A30EE670AC0EE876A8E
:10541800E6EE807AB0EE670AC0ED007A7047484041
:10542800082310F0800F4FEA400018BF80F0D50025
:10543800013BC0B2F5D1704710B50A440C469442FE
:1054480000D110BD14F8011BFFF7E9FFF7E74A097F
:10545800012301F01F0103FA01F150F822300B4338
:1054680040F8223070470EB4244B70B51B68002BEF
:10547800A5B0064630DA224B224C19684FF47A73ED
:1054880004A8B1FBF3F203FB12131F49FFF722FB39
:1054980004AB03440393299A1C492AAB054603A885
:1054A8000293FDF708F8039B591C03910A21197010
:1054B800039B591C0391002119700246206880B192
:1054C80003681B6A03B1984704A92068FBF758FED4
:1054D80016B120681AF00AF925B0BDE8704003B08B
:1054E80070470B4B1B68002BF6D002212A44009111
:1054F8000A44FD2004A90EF0D3FDEDE72096002014
:10550800D0630020082E0020C57103083B0700085F
:105518000C2E002038B5174BD3F83C21033002EB92
:105528009005B5F5007F19D803F5E674C3F83C512A
:1055380003EB810304EB8204D3F840210E4920F0E9
:10554800030010446FF003026A43C3F8400102F5F8
:1055580000620020FFF787FF204638BD074900207A
:10556800FFF781FF064A136843F0007313600024B5
:10557800F2E700BF70150020D1710308F471030829
:10558800E8950020224B02682DE9F04706460025E1
:105598001F4653F835108A4209D1EDB20D2D0AD9AC
:1055A8001C490020FFF75FFF0020BDE8F0870135A8
:1055B8000E2DEED1F4E7DFF8648058F825A0C14637
:1055C800BAF1000F15D10A216420FFF7A3FF48F8AC
:1055D800250008B91049E5E7642251462BF0AEFFD3
:1055E80058F8253007EBC507C3E90073DB615B6337
:1055F800DB64707959F82540182101FB004300222B
:1056080018469E60C3E903221A750430CDE700BF2F
:10561800E81903080272030827720308F0790020CA
:105628004BB201F07F02002B10B54FF02804B5BF34
:1056380004FB020104FB010101F58E7101F55D71A6
:105648000124DB0F8C700A704B7000EB820053B1A1
:1056580082691368002B01DA43F0804343F4001396
:105668001360002010BD426D1368F7E782B0002375
:1056780001930D4A036819690191013A10D0019903
:105688000029F8DA019A42F001020192019A1A619E
:10569800054A19690191013A02D00199C907F8D45C
:1056A800002002B0704700BF410D0300436D064A59
:1056B8001A61C278012A06D100F2CC5058611A68E2
:1056C8004FF080221A6070471800086010B5042354
:1056D80080F81131002304461A461946FBF7C1F930
:1056E8002046FFF7E3FF002010BD10B5044671BB4C
:1056F80090F81131032B1BD1D0F89023D0F87C33CC
:105708009A4217D9C178012908BFD0F88013A2EBB3
:10571800030204BFC918C0F88013934228BF134678
:10572800C0F890239BB2D0F880230021FBF75AFAE7
:10573800002010BDD0F8E4351B6923B190F8122180
:10574800032A00D198472046FFF7C0FFF0E7D0F8BA
:10575800E4359B69002BEBD090F81221032AE7D19E
:105768009847E5E7F0B590F8CF2590F8CE3590F852
:10577800D05590F8D37590F8CC1590F8CD6503EB1B
:10578800022390F8D12505EB022590F8D22502EBEB
:105798000722012785B080F8117101F01F0792B226
:1057A8009BB2ADB2012F04468DF808108DF8096040
:1057B800ADF80A30ADF80C50ADF80E20C0F8402115
:1057C80000F0098105D3022F00F0198101F0800152
:1057D80082E1092E5ED8DFE816F0B500F3005D001F
:1057E800C7005D0057000A005D00A80076001D0A8A
:1057F800022DADF806200BD0032D25D0012D49D15F
:10580800D0F8EC351B68A0780DF10601984709E03F
:10581800D0F8E43580789B6A0DF106019847457009
:10582800C4F8F005BDF80620002A47D0BDF80E30B0
:10583800002B43D09A4228BF1A46ADF806200146ED
:105848002046FBF7BFF939E0DBB2052B22D8DFE8A9
:1058580003F003070B0F1317D0F8EC355B68D2E79A
:10586800D0F8EC359B68CEE7D0F8EC35DB68CAE7B2
:10587800D0F8EC351B69C6E7D0F8EC355B69C2E7B0
:10588800D0F8EC359B69BEE725B91AB990F8121122
:10589800032903D1204615F0B7FF0FE003F07F0579
:1058A80063F30A12036980F8145119680A431A60ED
:1058B800FFF70CFF2DB1022384F81231002005B048
:1058C800F0BD0123F8E7D9B2884D012985F8E01920
:1058D800E0D890F81231022B0CD0032BDAD1B9B9E9
:1058E800022380F81231D0F8E43580F810115B6893
:1058F800984709E041B10121032380F8101180F88D
:1059080012312046FAF7AEFF2046FFF7DFFED5E753
:1059180090F810110129F7D0D0F8E4355B68984762
:1059280095F8E01984F81011EBE7012AB2D190F844
:105938001231022B04D0032BACD100F588717FE71C
:105948006B497DE790F81231023B012BA2D8674BD7
:105958000022C3F8E829D0F8182112B10222C3F8AE
:10596800E829022263496BE7012B08D1C4F81831F2
:10597800D4F8E43502A99B6820469847C4E7022B6F
:105988009CD115F0FF0F99D103692D0A023D5B6880
:10599800032D03D8DFE805F00C0E1012012262F384
:1059A8000613524AC2F8EC39012384F81631ABE7E2
:1059B8000222F4E70322F2E70422F0E70522EEE7E9
:1059C80090F81221023A012A3FF664AF012B7FF4C6
:1059D80075AF0023CAE790F81231032B7FF45AAF52
:1059E800EDB2012D3FF656AFD0F8E43502A99B6819
:1059F8009847BDF80E30002B7FF460AF84E701F0C4
:105A08006001202905D1D0F8E43502A99B689847A0
:105A180054E7012EE9B211D041D3032E7FF44EAFE3
:105A280090F81221022A54D0032A7FF433AF002BB6
:105A38009ED14A069CD0FFF7F3FD99E790F8122112
:105A4800022A46D0032A7FF425AF002B7FF436AF15
:105A580011F07F033FF458AF6DB2002D4FF02802CC
:105A6800B5BF02FB030102FB010101F58E7101F5CF
:105A78005D710022ED0F0B708A704D7000EB83038F
:105A88005DB19A69C978136802396FF355530129D2
:105A980098BF43F0805313606AE75A6DF2E790F8B5
:105AA8001231022B15D0032B7FF4F4AE15F0800FC2
:105AB8000E4B4FF0280214D001F07F0102FB0101C8
:105AC80091F81E215AB10122C3F8F0290A4902228D
