:020000040800F2
:1000000000000110814B030837DF0208FD4301089F
:100010003D4C03083D4C03083D4C03080000000024
:1000200000000000000000000000000035DF0208B2
:1000300033DF02080000000031DF0208550E00081F
:100040003D4C03083D4C03083D4C03083D4C030860
:100050003D4C03083D4C0308BF100008C7100008C2
:100060003D4C0308C5100008C3100008714A02087F
:10007000614A0208514A0208414A0208314A02080C
:100080001D4A0208094A02083D4C03083D4C03087A
:100090003D4C03083D4C03083D4C0308C1100008CB
:1000A000AD4B0208854B02085D4B0208D54B020898
:1000B000494B0208354B0208214B02083D4C03080E
:1000C0003D4C03083D4C03083D4C03083D4C0308E0
:1000D0003D4C0308991402088D140208811402088B
:1000E000BD1000083D4C030809770208D14A0208F8
:1000F000A94A0208814A0208F94A0208F549020899
:100100003D4C03083D4C03080D4B02083D4C0308D1
:1001100075140208691402083D4C03083D4C03089D
:10012000E1490208CD490208B9490208A549020877
:10013000914902083D4C03083D4C03083D4C03081F
:100140003D4C03083D4C03083D4C03087D710208FB
:100150007D49020869490208554902083D4C0308D7
:100160003D4C03083D4C03083D4C03083D4C03083F
:100170003D4C03083D4C03083D4C03083D4C03082F
:080180003D4C03083D4C03084F
:10018800436A826930B5D154436A04690133A34292
:1001980028BF00234362836BFBB1196811F001018A
:1001A80020D11A68856922F001021A60826A154412
:1001B800DD60456AAA4235BFAA1AA21A5A605A6077
:1001C8004FF0000280F850201A6838BF856242F06C
:1001D800010228BF81621A6030BDC26DD36843F046
:1001E8008003D36030BD10B5446BC16803464069D5
:1001F80044B1DA6C8C1A013A005D08BF0A46C0B2F5
:10020800DA6410BD1A6A805C01328A4228BF22462D
:10021800C0B21A6210BD836B13B190F850007047DA
:10022800836A406A1B1A584258417047416A836A78
:100238000269994238BF8918CB1A816B21B1496884
:100248000B44511E8B4202D2501EC01A7047002028
:100258007047436B4BB1C26C5B689342A3EB0203DC
:100268002EBF1846C068C0187047C269036A9A4210
:100278002FBFD01AC0688018C01A704710F80A3CFF
:100288000133DBB20A2B00F80A3C07D910F8131C1B
:10029800034A002322F8113000F80A3C704700BFD7
:1002A8009A4C0020F0B54D4E337814200133B3FB3F
:1002B800F0F200FB12333370494B58681A6D9C6892
:1002C80081420A4404D293F8580008B102F58032FA
:1002D80044480778B2FBF7F2944232D293F8585068
:1002E8001DB14FF4803595FBF7F5101B451BDD60FC
:1002F800596071789A6000201422013183F85800FF
:1003080091FBF2F002FB10117170B178D8680131DD
:1003180091FBF2F402FB1412B27040F68C22904268
:1003280041D9197893F95520914230D10A1F0C2AE6
:100338002DD893F85620182A0BD8013283F8562066
:1003480009E04FF4803090FBF7F0001B1044D860B0
:10035800CEE783F8541093F9542091420FD193F8C3
:10036800570060B1204C214D0020904211DB1F48FE
:1003780000240F2A13DD1E48027801320270012280
:1003880083F8572083F8551000221A70F0BD002218
:10039800D4E754F8046F25F810600130E5E720F839
:1003A80012400132E5E793F85720B2B1A0F2EF21ED
:1003B80040F2DA52914207D81A780F2A04D8111D50
:1003C800013243F82100E0E7002283F85720104665
:1003D80099180432402A0861FAD1F0BDB81B0020F0
:1003E80084370020A4000020903700209A4C002079
:1003F800784C002010B50B48037814240133B3FB64
:10040800F4F204FB1233084A0370136D01330B44F2
:1004180013654FF6FF73994204BF012382F85830E1
:1004280010BD00BFB81B002084370020024B53F8D2
:1004380020301B681960704748680020064B53F845
:100448002030A1F57A701A6819894FF47A734143FC
:1004580091FBF3F1116070474868002070477047BE
:10046800F0B5094E34683F2C0DDC0FC8074F4FEA32
:10047800041E0EEB070585E80F00054B1B684EF8B8
:10048800073001343460F0BD543700205433002065
:10049800187A002070B5104C05460E46002200233D
:1004A800D4E9020133F0B6FF20B109A3D3E9002350
:1004B800C4E90223304633F0DFFCD4E9022333F0E9
:1004C8006BFE33F0EFFF04EB4504208270BD00BFE4
:1004D800ABAAAAAAAA461040B81B00200E4B984205
:1004E8000AD0A3F57843984212D003F58063984266
:1004F80010D04FF0FF3070470023084A142101FB49
:1005080003235A89013292B25A81588980B27047BE
:100518000123F2E70223F0E7003001400000002049
:10052800A0F13003DAB2092A01D818467047A0F1C1
:100538006103052B01D857387047A0F14103052BFB
:1005480094BF37384FF0FF30704703685A1C026079
:100558001970704703685A1C0260197070472DE9BA
:10056800F84F002B14BF4FF030094FF020090A9BB9
:10057800141E07468846BABF64424FF0010B4FF07D
:10058800000B13F8012B02B1DCB9BBF1000F1ED12F
:10059800254615F1FF3516D223462C460A9D5E1BCB
:1005A80005EB060A15F8011B99B9BBF1000F05D038
:1005B8002546002D10DC002CA8BFA2445046BDE8FB
:1005C800F88F013CDDE749463846C047E1E700239C
:1005D800E4E73846C047E3E749463846C047013DA7
:1005E800E7E7D0ED006AD0ED057AE6EE807AB0EE66
:1005F800407AB0EE670AD0ED037AD0ED016A67EE73
:10060800C07AE7EE267AD0ED066A77EEA67AD0EDC4
:10061800026AC0ED057AD0ED047A67EEC07AE7EE9B
:10062800267AC0ED067A7047704743230B8001484D
:10063800704700BF3C00002010B5074CD4F880007C
:10064800FF2807D005490A6B343126F03EF8FF230E
:10065800C4F88030002010BD00000020B81B002026
:1006680008B5D0F8E4355B6A9847002008BD08B59E
:10067800D0F8E4351B6A9847002008BDD0F8E43567
:1006880010B504461B689847D4F8E8359B68984726
:10069800002010BD08B5D0F8E435DB6903B19847F0
:1006A800002008BD08B590F8123180F813310423F2
:1006B80080F81231D0F8E835DB689847002008BD8B
:1006C80010B5D0F8E83504461B699847032384F829
:1006D8001231002010BD70B54B784C69012B27D121
:1006E80082691568136914B964F3060305E08E6816
:1006F800B442F9D94E6166F3060343F4002313614B
:10070800C478012C05D10B780E6900EB83039B6933
:100718005E6145F00445156044B94B6933B102691F
:100728000978506B01238B4003435363002070BD4D
:100738000B788E6800EB83035A6D156813696CB9E2
:1007480066F3060343F400231361C378012B04BF47
:100758000B69536145F004451560E7E74E61EFE723
:100768002DE9F0414A780C784B69012A51D100EB08
:10077800840EDEF818703D683E6963F312061BBBF1
:1007880062F3DC463E61C278012A2CD10C697C6197
:10079800CC78012C07D100698068C00554BF45F0AA
:1007A800005545F0805545F00445012C3D6008D1C1
:1007B8003AB99BB20333C968DEF8D0009B10934264
:1007C80022D10020BDE8F081D1F808C003EB0C026B
:1007D800013AB2FBFCF262F3DC46CA78012A08BF90
:1007E80062F35E76CEE7CE78012ED1D0002BCFD043
:1007F800D0F810C00126DCF8348006FA04F444EA84
:100808000804CCF83440C3E751F8224004600132B0
:10081800D5E700EB84048A68646D25682669ABB95E
:1008280062F31206012363F3DC462661C378012BC9
:1008380004BF0B696361CB78012B03D14B79A3B15A
:1008480045F0005545F004452560BAE71344013BDF
:10085800B3FBF2F363F3DC46C3F30903534363F3D7
:100868001206C3F312034B61DFE745F08055E9E751
:1008780070B501F07F05282404FB050104FB05047D
:100888000126C4F82821C4F82C21002201F58E7114
:1008980084F81D6184F81C51C4F83421C4F830313F
:1008A8001DB9FFF718FF002070BDFFF759FFFAE7E1
:1008B8001F4BDA6B0F2A70B502F101011E4602D0F8
:1008C800D963002070BD1B4C0023F3632378002BF1
:1008D800F7D1194D2A68B2F5006F08BF2B60174B86
:1008E80029681B68994202D100232370E9E78CBF6D
:1008F800C1F500635B1A3364336C402B8AB20CD9A0
:10090800403B4031336401232370296040230C4964
:100918000A448121FFF7ACFFD3E7194429604FF05F
:10092800000131640EBF022101219BB22170EEE764
:10093800B81B002014720020FC71002000720020F7
:100948001572002070B5174D2B78012B2C4603D15A
:10095800154E336C5BB92B702378022B16D100230C
:100968001A468121FFF784FF002323700EE00F4908
:100978000C68402BA2B20BD9403B403433640C6066
:1009880040230B490A448121FFF772FF002070BD04
:100998001C440C604FF0000131640ABF02219BB275
:1009A8002970EEE714720020B81B0020FC710020AB
:1009B8001572002010B504461346C4F83C21C4F84B
:1009C8003821022280F811210A460021FFF750FF42
:1009D800002010BD70B501F07F04282606FB040531
:1009E80006FB0401C5F88833002385F87443C5F86D
:1009F8008023C5F88C3385F87533C37806FB040467
:100A0800012B08BFC5F8842394F8743301F55D7190
:100A18001BB9FFF760FE002070BDFFF7A1FEFAE7E3
:100A280038B5282303FB0101074DB1F88C130446A0
:100A3800284625F015FE40232A4601212046FFF7C7
:100A4800C9FF002038BD00BFFC1B002030B54A7824
:100A58000B780025012A2C4610D100EB830102FAFD
:100A680003F3896963F30F0402696FF3CF350D60EF
:100A7800D36923EA0403D361002030BD00EB83026D
:100A8800516D012202FA03F363F31F44ECE770B5DA
:100A980004460125002680F8445180F8455100F5A8
:100AA800A271FFF7D3FF04F5677184F89C5384F8AB
:100AB8009D632046FFF7CAFF022384F86C3104F5D2
:100AC800B67184F86D512046FFF7C0FF25F03EFE51
:100AD800304670BD30B54C780B78012C4FF00002D1
:100AE8001DD100EB830504FA03F3AD6963F30F022C
:100AF8002B681C040DD48C6864F30A03CC78C9886D
:100B080064F3934361F3995343F0805343F40043F0
:100B18002B600369D9690A43DA61002030BD00EB14
:100B28008304656D012404FA03F363F31F42DFE7CE
:100B38002DE9F04104460125022700264FF0400820
:100B480080F8445180F84551C0F84C8180F84771CD
:100B5800A0F84A5180F8486100F5A271FFF7BAFF82
:100B680004F5677184F89C5384F89D63C4F8A483E2
:100B780084F89F7384F8A0632046FFF7ABFF08232F
:100B8800C4F87431032304F5B67184F86F3184F81E
:100B98006C7184F86D51A4F872712046FFF79AFFC2
:100BA800064B1F715E7125F0D7FD4346044A29465E
:100BB8002046FFF70FFF3046BDE8F081841A002079
:100BC800FC1B0020F8B5044600254027012680F8C4
:100BD800745380F87553C0F87C7380F8775300F528
:100BE8005D71FFF777FF04F58E7184F81C5184F866
:100BF8001D61C4F8247184F81F51A4F822512046BD
:100C0800FFF768FFD4F8E83584F81261A0785B68CC
:100C180098472846F8BD0E4BDA68D20310D4DA6834
:100C2800D1060FD4DA68D2050ED4DA6812F0E00FD4
:100C38000CD1DB6813F0020F14BF0820092070479D
:100C48000120704706207047022070470720704730
:100C5800003C024007B509238DF80730FFF7DBFF9A
:100C68008DF807009DF80730012BF7D09DF8070095
:100C780003B05DF804FB38B504460B4614F80E1CA7
:100C880050F8040C49B924F80C3C012304F80E3C34
:100C98000A22BDE8384020F0D0B934F80C1C24F8FA
:100CA8000A3C8B4238BF0268A3EB010338BFD16A04
:100CB80014F80F2C38BF5B1824F8083C074B34F89D
:100CC800081C23F81210002504F80E5C0A220121E2
:100CD80020F0B3F904F8065C38BD00BF9A4C002038
:100CE800A1F57A7107EE901A084B9FED097A9FEDEE
:100CF800090A53F82030F8EEE77A10B5A7EE870A0C
:100D08001C6834F01DFB206010BD00BF486800203F
:100D18003D0AD73F0000D243094B53F8203010B5A5
:100D28001C681523594307EE901AB8EEE70AF3EE4C
:100D3800087A80EE270A34F003FB206010BD00BF5C
:100D480048680020074B53F8203010B51C680C2366
:100D58004B4300EE103ABAEEEE0A34F0F1FA206096
:100D680010BD00BF486800202DE9F0410B4DDFF8A9
:100D780030802C686A69012714400CB9BDE8F081FD
:100D8800B4FA84F3C3F11F0307FA03F658F82300F3
:100D98000368984724EA06046E61EEE7003C0140C8
:100DA8001054002070B50A7812F0600406460D460B
:100DB8002BD0202C30D1CC884B7804B312060CD51C
:100DC80022461E49184625F080FCEA881B49304611
:100DD800FFF7F0FD0024204670BD194AC0F894437F
:100DE800C2F88030174AC0F890430323146380F890
:100DF8001131343223460021FFF7ECFDEAE70222E5
:100E08001144184625F061FCE5E74B780A2B07D01A
:100E18000B2B0AD0062BDED129F090FD0224DAE74D
:100E280001220949FFF7C6FDD5E78B781BB9054AAA
:100E3800C2F88430CEE729F081FDCCE7EC1B002016
:100E480000000020B81B00203C1C0020EFF3118399
:100E5800102282F3128808490A6801320A60074A98
:100E68000749906808600749002008601268DBB2EB
:100E780083F31188704700BF187A002010E000E063
:100E8800F0240020EC240020074A084B12781B6845
:100E98000AB980F001002BB11A689B8808B1138346
:100EA80070475383704700BFA8390020A439002039
:100EB80003689B6A03B11847704703685B6A03B10C
:100EC8001847704703689B69184703685B691847A8
:100ED80003681B6918470368DB68184703689B6841
:100EE800184703685B68184703681B681847036856
:100EF800DB692DE9F04105460E4617468BB90C46CD
:100F08003B1B3344002B01DCBDE8F0812846FFF78A
:100F1800E5FF0028FAD014F8011B2846FFF7E4FF84
:100F2800EEE7BDE8F0411847E1E7014B1868DBE759
:100F380054CB002038B505460C4614F8011B01B9FE
:100F480038BD2846FFF7D0FFF7E70C4B1B681B019D
:100F580010B407D50A4B1B685B050BD55DF8044B2D
:100F6800FFF798BA074B53F820301BB107289CBFEE
:100F78001B6819605DF8044B704700BF384C0020AF
:100F880058C10020C03800201FB5ADF80A30BDF8A0
:100F98001830ADF8040041F48041ADF80C306846D3
:100FA800BDF81C30ADF80610ADF80820ADF80E30CD
:100FB800FFF756FA05B05DF804FB1FB5ADF804005D
:100FC8006846ADF80610FFF74BFA05B05DF804FB6C
:100FD800084B53F8203049B123B970471A689B88E9
:100FE800138370471A689B8853837047002BF5D189
:100FF800704700BF707D0308064B53F820303BB1A3
:101008009A881B6859690A4201D05A8370471A8323
:10101800704700BF707D030810B50409013C032C1C
:1010280000F00F0215D80C4B33F8141041FA02F3F4
:1010380013F001000ED0012090400138084033F031
:1010480017FC064B1B5D1844054B0C2202FB0030B5
:1010580010BD002010BD00BF687D03080478030898
:101068000831002010B1036882885A83704710B194
:10107800036882881A83704730B1036882881B69C5
:101088001A4214BF01200020704728B18088B0FAA6
:1010980080F0C0F11F0070474FF0FF30704730B14B
:1010A800006800F13F4000F57E00800A70474FF06D
:1010B800FF30704758E657E656E655E654E653E6DD
:1010C80038B504468B6821600D4698470123237381
:1010D800FF220023A3736273E3732B6B13B12046C3
:1010E8009847E073044B93F888301BB1E37B23F0F7
:1010F8000103E37338BD00BFB81B002003689B6A77
:10110800184703685B6A184737B54D1C8572046831
:10111800C27200250095A469A04703B030BD2DE92F
:10112800F04105468AB018460F4690461C4632F0F4
:1011380049FD3B189DF84060AB72EB7B85F80B804E
:1011480036EA030319D0F20717D5114BC8221B68DA
:10115800B3FBF2F3DB0706F0FE060ED51F2828BF07
:101168001F2004460246202102A836F0C6FA0AAB20
:101178001C44002304F8203C02AC2B6800965E69EE
:101188004246234639462846B0470AB0BDE8F081B2
:10119800187A00202DE9F3410446184616460D46F4
:1011A8001F4632F00FFD2368E67228440022A07221
:1011B8000092D3F8148032463B4629462046C04761
:1011C80002B0BDE8F081036810B504465B68984733
:1011D800236820469B689847A37B013BA37310BDF7
:1011E800036810B504461B689847236820469B6827
:1011F8009847A37B0133A37310BD03681B69184785
:10120800036810B59B680446984701232373FF239E
:10121800637310BD154B984230B508D0A3F57843D9
:1012280098421FD003F5806398421DD030BD00223C
:1012380003880F4C23F040031B041B0C1425038068
:1012480005FB02420388126923F0380332F81120A3
:101258001B041B0C1343038003889BB243F0400319
:10126800038030BD0122E3E70222E1E700300140BC
:1012780000000020F8B584894FF6FF764FF47A74A1
:101288000BB90120F8BD92B1157801320789BF0763
:101298000FD5ADB285814FF47A740589ED0712D563
:1012A8008589ADB209B10D700131013BE8E7FF2531
:1012B800ECE7013CA4B2B442E8D1FFF70FF90030E3
:1012C80018BF0120F8BD013CA4B2B442E5D1F4E74F
:1012D80008B540F2E9330289920708D589B28181BD
:1012E80040F2E9330289D20709D5808905E0013B3C
:1012F8009BB2002BEFD1FFF7F1F8C0B208BD013B5C
:101308009BB2002BEED1F6E770B5164690F90C208B
:1013180014235343094AD55804460069FFF7A2FE2F
:101328002846FFF7D5FF0123002231462846FFF75C
:10133800A1FF2069FFF79BFE012070BD000000207F
:10134800F8B5164690F90C20142353430D4A044669
:10135800D55800690F46FFF785FE0120002106F0E9
:101368002FF839462846FFF7B3FF31462846FFF7DE
:10137800AFFF2069FFF77BFE0120002106F020F86F
:101388000120F8BD00000020094B0A49DA6842F044
:10139800807210B5DA60084A08685468D96841F064
:1013A8008071D9605168091B8142F7D310BD00BF15
:1013B800F0ED00E0A0000020001000E0F8B5114EAC
:1013C800114F05460924013C14F0FF04306802D18E
:1013D800BDE8F84046E6FFF745FEFFF7D5FF2B06C8
:1013E80038680BD5FFF743FEFFF7CEFF6D00306876
:1013F800EDB2FFF73CFEFFF7C7FFE4E7FFF732FE69
:10140800F2E700BFE89F0020E49F002038B50F4CAA
:101418000F4D2068FFF726FEFFF7B6FF2868FFF795
:1014280026FEFFF7B1FF2068FFF721FEFFF7ACFFAC
:101438002868FFF721FE20B12068FFF713FE00207F
:1014480038BD2068FFF70EFE012038BDE89F002058
:10145800E49F002038B50B4D0B4C2868FFF702FEBF
:10146800FFF792FF2068FFF7FDFDFFF78DFF286863
:10147800FFF7FDFDFFF788FF2068FFF7F8FDBDE8DF
:10148800384081E7E89F0020E49F002070B5114CA8
:10149800114E2068FFF7EBFD3068FFF7E8FDFFF716
:1014A80073FF2068FFF7E8FD054610B900252846B8
:1014B80070BD2068FFF7D6FDFFF766FF2068FFF7CD
:1014C800DBFD0028F2D13068FFF7CCFDFFF75CFFA9
:1014D800EDE700BFE49F0020E89F00202DE9F041E0
:1014E800174690F90C20142353430E4A0546006909
:1014F80052F80380FFF7B6FD00BF00260C46BE4237
:1015080004F10C0406DB00BF2869FFF7B0FD0120D9
:10151800BDE8F08114E90E004046FFF7ABFE013646
:10152800EDE700BF0000002070B40579012D1346D7
:1015380008D0022D0BD18368DB0758BF41F080012A
:1015480070BCE1E62A46407B70BC29F03BBF002016
:1015580070BC70472DE9F0471E460379012B0446FD
:10156800884617462ED0022B33D1856890F90C1087
:10157800194A142315F0010503FB01F313D0D558BC
:101588000069FFF76FFD41462846FFF7A1FE334685
:10159800002239462846FFF76DFE2069FFF767FDF0
:1015A8000120BDE8F08752F803900069FFF75AFD63
:1015B80048F080014846FFF78BFE33462A463946F5
:1015C8004846E8E71346407B3246BDE8F04729F035
:1015D800F9BE0020BDE8F08700000020F8B50479C6
:1015E800012C0E46174609D0022C2BD18368DB0745
:1015F80058BF01F07F01BDE8F840A1E6457BFFF741
:1016080045FF044678B1680000F0FE00FFF7D6FEFB
:10161800FFF7FCFE044640B9FFF71CFF0A4A13888F
:1016280001339BB213802046F8BD3046FFF7C6FE53
:10163800FFF7ECFE3846FFF7C1FEFFF7E7FEFFF7BE
:1016480009FFF0E70024EEE7E09F00200A4B70B5A1
:101658000E46D3F88C50811C89000446F2B201F082
:10166800FC012846FFF7BAFFA1000931320A2846D3
:10167800C9B2BDE87040B1E7B81B00202DE9F041C0
:101688000E4E8046002406F18007E0B200F0030306
:1016980043450ED136F8145037F81430EB1A002BA6
:1016A800B8BF5B42052B04DD2946FFF7CFFF27F8BB
:1016B80014500134102CE8D1BDE8F081C81B00207B
:1016C80038B50F4D1022002141F2D774B4FBF0F465
:1016D800D5F88C00FFF782FF012005F082FE621E1C
:1016E800D2B2FE21D5F88C00FFF778FF012005F073
:1016F80078FED5F88C0080220021BDE838406DE7DF
:10170800B81B00201FB50479022C08D10191029260
:1017180001A901220393FFF7E1FE04B010BD0020E8
:10172800FBE70379022B82B019D18DF80230002231
:1017380003238DF800208DF80330012204238DF84F
:1017480001208DF8043090F90C2002AB19441423C1
:101758005343044A11F8081CD05802B05AE502B0A5
:10176800704700BF0000002010B5427A044632B12D
:10177800036800F10A01406898470023637210BDAE
:10178800124B53F8200070B5F8B1114A062303FB39
:10179800002393F90140621C16D01879A8B10D4AAC
:1017A8000D4E155DDA7864211423002061438C18EE
:1017B800013B36F814402A4410FA84F0F7D1142378
:1017C800B0FBF3F080B270BD002070BD0042002075
:1017D800AD390020CC3C0020CC39002038B503209E
:1017E8000D461446FFF7CCFF07EE900AB8EE677A6D
:1017F800DFED0A7A27EE277A5DB1F8EE047AF0EE8B
:10180800006AE7EE267A9FED067A67EE877AC5EDDD
:10181800007A0CB1034B236038BD00BF6740533AD0
:1018280000007A443313904330B5094B0949C0B2DC
:101838008B4200D330BD5A88140406D55D68DC6835
:10184800C2F30B0200FB025222601433F0E700BF20
:10185800F8160408A41A040870B5448806460D460C
:10186800C4F30B0400212246284635F046FF3169AF
:10187800084B994208D3084B994205D2224628467C
:10188800BDE8704033F062BB19B12846BDE870402E
:10189800084770BDA41A0408181D04084388426844
:1018A80013F4004F1EBFC9B2C3F30B0301FB03229D
:1018B8001146D1E7064B07498B4202D3002318464D
:1018C80070471A88C2F30B029042F8D01433F3E73A
:1018D800F8160408A41A0408024A136823EA000048
:1018E80010607047B0450020F8B50468C4F30D04D3
:1018F80005460E4604B32F68FFF7ACF9092840F0F7
:101908008880454C236923F440732361236943F499
:1019180000732361236943F0010323613E60FFF7ED
:1019280099F92369092823F00103236171D12B68F0
:1019380004332B600020F8BD384B394A93422BD929
:1019480002F58042934226D902F5804293422AD971
:1019580002F58042934228D902F58032934226D973
:1019680002F50032934224D902F50032934222D97B
:1019780002F50032934220D902F5003293421ED973
:1019880002F5802293421CD9B3F1016F1BD30520C5
:1019980005F048FDFBE70824FFF75CF9092814D097
:1019A8004FF0FF30F8BD1024F6E71824F4E72024A0
:1019B800F2E72824F0E73024EEE73824ECE7402467
:1019C800EAE74824E8E75824E6E7134F3B6923F49D
:1019D80040733B613B6943F400733B613B6923F00F
:1019E800F8033B613B6943F002031C433C613B69DC
:1019F80043F480333B61FFF72DF93B6923F0020381
:101A08003B613B69092823F0F8033B613FF473AF5E
:101A1800C6E76FF00100F8BD003C024000000E0868
:101A2800FF3F0008F8B504460D468E180027B5425A
:101A380001D12069F8BDE368591CE160234415F819
:101A4800012B1A720429F2D1206918B9A16820461D
:101A5800FFF74AFF2061E760E9E738B58D180C46C3
:101A6800AC4200D138BD14F8011B12F001FEF7E7B3
:101A780070B501221049114C114E0020FFF7EDFFFF
:101A880022884AB1A518B54213D2052A11D9214690
:101A9800FFF7E3FF2C46F3E721460222FFF7DDFFBD
:101AA8006388084AC31AA41A074A5842148058413E
:101AB80070BD002070BD00BF00000E0801000E08B8
:101AC80000001008FCFF0D08E824002030B502448F
:101AD8000446944201D1002011E014F8013B11F8AA
:101AE800015BA3F141001928A5F1410098BF2033FB
:101AF800192898BF2035581B01D1002DE9D130BDD8
:101B080070B5034610F8012B202AFAD0092AF8D01C
:101B18002D2A0ABF034601254FF0FF35591E002420
:101B28000A2611F8010FFEF7FBFC0A2802D905FB6B
:101B380004F070BD06FB0404F3E730B50278202AF0
:101B4800034600F10100F9D0092AF7D02D2A47D120
:101B58000346BFEE000A9FED3A7A1A46F2EE046A8F
:101B6800134612F8010BA0F13001CCB2092C3DD973
:101B78002E280BD1F2EE046A1146B0EE666A0B46C7
:101B880011F8012B303AD0B2092838D91A7802F066
:101B9800DF02452A4FD15A782D2A3BD10233012042
:101BA800013B00220A2513F8011F3039CCB2092C59
:101BB80036D9B2F59A7F28BF4FF49A72DFED216AC1
:101BC8001346F7EE007A072B2DD802F00702F2EE43
:101BD800046A62BB88B3C7EE276A20EE260A30BDC6
:101BE8002B2A08BF0346B7EE000AB4E707EE901A9F
:101BF800F8EEE77AE7EE267AB0EE677AB0E707EE16
:101C0800902AF8EEE77AC7EEA65A66EE866A37EEAD
:101C1800257AB4E72B2A14BF013302330020BFE72B
:101C280005FB0212BFE767EEA67A083BCBE767EE33
:101C3800A67A013ACDE7F7EE007A67EE276ACCE795
:101C48000000000020BCBE4CB5EEC00ADFED2D7AC6
:101C5800F1EE10FACCBF30EE270A30EE670ADFED5E
:101C68002A7A20EE270A30B5FDEEC07A87B017EE43
:101C7800904A054684EAE470002303A9A0EBE470C7
:101C880000930193029329F0A5F8002CACBF202300
:101C98002D2303A88DF8003031F094FF012822D1BC
:101CA80030238DF801308DF802308DF8033003A908
:101CB800684635F02AFD684631F084FF0338C4B21F
:101CC80022466946284635F057FD00232B550F4913
:101CD800284635F01AFD0DEB0401284635F015FDB0
:101CE800284607B030BD022805D130238DF80130D1
:101CF8008DF80230DBE7032804BF30238DF801306C
:101D0800D5E700BF6F12033A00007A447CE9030864
:101D180070B5064615460846B6FBF2F414B12046DF
:101D2800FFF7F6FF05FB1464024B1B5D00F8013B4F
:101D380070BD00BFB0D40308F0B50124B0FBF4F5C2
:101D48008D4203D200271CB91C70F0BD4C43F5E747
:101D5800B0FBF4F604FB1600B4FBF1F41FB9002E37
:101D680001DC002CEFD1092E03F1010E08DD002A59
:101D780014BF3725572535441D7001377346E2E7F0
:101D88003025F8E7084BD3E9002352EA030108D0CD
:101D980006490968521843F10003C0E900230120ED
:101DA80070470020704700BFE0540020187A0020D8
:101DB800F0B5264E04460F460FCE8DB06D460FC5C2
:101DC8000FCE0FC596E80F0085E80F0014F0030347
:101DD80035D1642194FBF1F201FB124242B94FF470
:101DE800C87294FBF2F302FB1343003318BF0123BC
:101DF800C3F11D0340F26D1201930420631E93FB8F
:101E0800F0F002FB04046FF0630093FBF0F0204451
:101E18004FF4C87493FBF4F31844063000220721EA
:101E2800013F5DF822309742184490FBF1F4C4EB6F
:101E3800C404A0EB040004D1181A0DB0F0BD0123AE
:101E4800D6E701320C2AECD10020F6E7087803081F
:101E5800F8B514461D4606464FF47A72002320460C
:101E6800294632F09DFC2C4B3C22034493FBF2F0B4
:101E780002FB1031B17190FBF2F102FB1102182044
:101E880072714FF4616293FBF2F292FBF0F100FB86
:101E9800112232712149224A93FBF2F293FBF1F3AA
:101EA800980040F2B55392FBF3F103FB1123B3F50D
:101EB800896F2DDA40F2DA2293422BDCB3F5B77F33
:101EC800B4BF002201221749182707FB02170B216C
:101ED80037F811E0734501DA0139F9D100F5FA60F4
:101EE80010443080481CB0700C2000FB02120E49D0
:101EF80001EB4202013392F834209B1AF3704FF43D
:101F08007A7200232046294632F04AFC3281F8BD15
:101F18000322D8E70222D6E780BC92C7801F860733
:101F280080510100387803080478030837B504465F
:101F38006846FFF727FF054638B1DDE9002320464C
:101F4800FFF786FF284603B030BD01232080A37029
:101F5800E37020716071A0712081F3E737B5054601
:101F6800FFF7E4FF044640B1054B02AA1B8822F89C
:101F7800023D2946284629F038FB204603B030BDEB
:101F8800D8A0002010B50288C378A2F5FA62591EBD
:101F980040F2B554930804FB031381780C240139EB
:101FA80002F0030204FB02120C49847901EB42029D
:101FB8001821928E1344027901FB03234279008988
:101FC8003C2101FB0323064A224401FB03234FF46F
:101FD8007A720021C2FB030110BD00BF0478030818
:101FE80080436D380B684A689A4206D05A1C0A60CA
:101FF8001B7800B10370012070470020704710B5AE
:1020080002681146531C036011F8024B0160D31C8F
:102018005178036093781B0443EA0123111D016082
:10202800D078234343EA006010BD03685A1C02605D
:102038001A4612F8021B0260587841EA00207047DD
:1020480091E80C009B1A012B10B5044606DD0846E2
:10205800FFF7EBFF04B12080012010BD002010BD68
:1020680003685A1C02601878704738B5044609C8D6
:102078001B1A9A42154606DC32F068FF22682A4489
:102088002260012038BD002038BD38B504460068FC
:10209800154632F05BFF22682A44226038BD036887
:1020A8005A1C0260197003685A1C02600A0A1A70E6
:1020B80003685A1C02600A0C1A700368090E5A1C3D
:1020C80002601970704703685A1C0260197003682F
:1020D800090A5A1C0260197070472DE9F04F89B03F
:1020E80082468B4616461C4600270DF114083178A7
:1020F800002934D0252904D050460136D847013765
:10210800F5E771782D2905BFB178F51CB51C0126B6
:1021180018BF0026302906BF29780123002302931F
:10212800A1F1300308BF0135092B4FF0000907D88A
:102138000846FEF7F5F90A2815D90EB1C9F10009C4
:102148006C2940F08B802A78642A05F1010600F09A
:10215800BC801BD8252A62D00BD8002AC7D13846A4
:1021680009B0BDE8F08F0A2303FB090915F8011B24
:10217800DEE7582A1BD0632AB9D135462178504664
:10218800D847261D013734462E46B0E7732A3AD081
:1021980008D8662A49D06E2AA9D13546236804345E
:1021A8001F60F1E7752A00F08B80782A9FD1A2F191
:1021B8005800424204F10405434642411021206878
:1021C80007E02D238DF8143040420DF1150300224D
:1021D8000A21FFF7B1FD2C46CDF80080029B4A4644
:1021E80059465046FEF7BBF9074480E72D238DF882
:1021F800143040420DF1150300220A21FFF79CFD1F
:102208002E46039CE8E73546236800934A46002398
:1022180059465046FEF7A3F9261D0744B3E735464D
:1022280025215046D8470137AEE73546073424F014
:102238000703D3E9000103F1080432F053F900EE73
:10224800100A4046FFF700FDCDF80080029B4A4681
:1022580059465046FEF783F9074495E764293CD070
:102268000BD82529DCD003D800293FF478AF8BE7B9
:1022780058290FD0632981D086E77329C4D004D8A0
:102288006629D3D06E2989D07EE775290FD07829A1
:102298007FF47AAF58394A4204F104064A4120686B
:1022A800434610213446FFF747FD2E4694E7231D89
:1022B8000393002243460A212068FFF73DFD9FE76C
:1022C800251D434600220A2179E72068002804F1E9
:1022D8000405FFF676AF434679E72068231D0028FA
:1022E800039383DB434687E70EB40FB505AB019034
:1022F80053F8042B0649039301A8FFF7EEFE019B50
:1023080000221A7004B05DF804EB03B0704700BFF8
:102318005D0500082DE9F043384B8DB00CAA1B88E9
:1023280022F80E3D064609A829F05FF9BDF92220DA
:102338003C2192FBF1F301FB132109B21DB2BDF858
:1023480024300029B8BF4942B3F5FA6F44D39DF849
:102358002630013B0B2B3FD89DF82730013B1E2B25
:102368003AD89DF82830172B36D89DF829303B2BC2
:1023780032D89DF82A303B2B2ED8BDF82C30B3F537
:102388007A7F29D20124002D9DF827009DF8287016
:102398009DF829E09DF82AC0BDF82C800791B4BFAC
:1023A8004FF02D094FF02B09002DB8BF6D428DE875
:1023B8008140BDF824209DF826300695CDF814906C
:1023C800CDF81080CDF80CC00D493046FFF78CFFD2
:1023D80020460DB0BDE8F08300200123ADF82400AD
:1023E8008DF826308DF827308DF828008DF82900D3
:1023F8008DF82A00ADF82C000446C4E7D8A00020C8
:10240800D5D403080FB437B50B490C4809680068E0
:102418000B4D06AB53F8042B0193FFF75EFE044601
:102428002868FEF752FD0028FAD0204603B0BDE820
:10243800304004B0704700BF583700205C37002098
:1024480054CB00202DE9F04F00F1100E85B007465F
:102458000546002600F14009B0462B46BC4616E06A
:10246800F4EC016A1AED047AD3ED007AE6EEC77A45
:10247800C3ED007AAC420AF1100AF1D108F1010863
:10248800B8F1040F0CF1040C03F1040303D0AEF10E
:102498001004E246EEE74FEA860B73464B451ED022
:1024A80003EB0B0AB8469C4609E0FCEC016A18ED00
:1024B800047AD4ED047AE6EEC77AC4ED047AD445FA
:1024C80008F11008F1D1D4ED046A95ED007AC6EE52
:1024D800877A103317EE90CA44F810CFDEE701363A
:1024E800042E05F114050EF1100E07F10407B3D1FF
:1024F8000024009401940294039402F1100C0746FE
:1025080006466C4652F8045B2560EE463546BD42E9
:1025180028D1624504F1040406F1100605F11407F8
:10252800F0D104AE00F13C050A4656F8044D42F8D5
:102538000C4F2C460434A34202F10402D1ED037A75
:102548001BD12A46D2ED006A87EEA67A103B834259
:10255800A5F11405A1F1040181ED047AE4D105B0D7
:10256800BDE8F08FBEEC017AD4ED007AF5EC016A93
:10257800E6EEC77AC4ED007AC9E7D4ED006A92EDB9
:10258800007AE6EEC77AC1ED037AD3E71FB50C46A9
:10259800024669461030FFF755FFDDED007AB6EECA
:1025A800007A67EE877AC4ED007ADDED017A67EE8E
:1025B800877AC4ED017ADDED027A67EE877AC4ED99
:1025C800027A04B010BDD1ED007A90ED066AD0ED24
:1025D800095AB8EEE77AD0ED047AE7EE077AB7EE53
:1025E800005AC0ED047AD1ED017AF8EEE76AD0ED31
:1025F800057AE7EE267AC0ED057AD1ED027AF8EE93
:10260800E77AA7EE276A80ED066A90ED076A36EE4C
:10261800076A80ED076A90ED086AA7EE266A80EDE2
:10262800086A26EEA66A75EE865AA7EE076AC0ED16
:10263800095AD0ED0A5AE6EEA75AA7EEA76AC0EDE6
:102648000A5AD0ED0B5A75EEA65AC0ED0B5AD0EDCA
:102658000C5AE7EE275AC0ED0C5AD0ED0D5AE6EEAB
:10266800A75AC0ED0D5AD0ED0E5AE7EEA75AC0EDA5
:102678000E5AD0ED0F5A75EEA75AC0ED0F5AD0ED8D
:10268800105A75EE875AC0ED105AD0ED115A75EEF2
:10269800A65AC0ED115AD0ED125A75EEA75AC0EDE0
:1026A800125AD0ED135A75EE855AC0ED135AD0ED73
:1026B800005AE7EE065A90ED017AC0ED005AA6EEF0
:1026C800867A80ED017A90ED027AA7EE867AD0EDCF
:1026D800037A80ED027A37EE866A80ED036A7047E6
:1026E80000F14001034600221A615A619A61DA61D9
:1026F80010338B4240F8042BF6D1704703684268C8
:1027080080689342DEBF11461A460B469842A8BF1E
:1027180018469042B8BF1046704780EAE073A3EBB2
:10272800E0738B4206DB002801DD401A704702D0B7
:10273800084470470020704748F6A043984203DDDC
:10274800A0F50C40A03870470028B8BFC0187047E3
:1027580044F25063984203DDA0F50C40A03870475E
:10276800034B9842BCBF00F50C40A030704700BF37
:10277800B0B9FFFF08B52DED028BB0EEC08AF0EEC0
:10278800408AB7EE000A30EE480A33F06DF99FED43
:102798000E7ADFED0E7AE8EE077A9FED0D7AA8EE55
:1027A800277ADFED0C7AE8EE077AF5EEC08ABDEC01
:1027B800028BF1EE10FA27EE800A44BFDFED067AAD
:1027C80037EEC00A08BD00BF306E99BC2716983D89
:1027D800843459BEA40DC93FDB0F4940F0EEE06ACE
:1027E800B0EEC07AF4EEC76AF1EE10FAD4BFB0EEDC
:1027F800476AB0EE666AB5EE406AF1EE10FA48D064
:10280800F4EEC76AF1EE10FA54BFF0EE475AF0EE54
:10281800665AC5EE867A9FED206ADFED205A9FED55
:10282800205AE7EE865A9FED1F6AA7EEA56ADFEDEC
:102838001E5AE7EE865A9FED1D6AA7EEA56ADFEDE0
:102848001C5AA7EEA55AF7EE005AE7EE855AB1EEE4
:10285800466AC6EE257AF4EEC76AF1EE10FA48BF6A
:102868009FED147AF5EEC00A48BF77EE677AF1EE6D
:1028780010FA48BF9FED107AB5EEC00A48BF77EE50
:10288800677AF1EE10FA48BFF1EE677AB0EE670AA0
:102898007047DFED0A7ABEE739094E3DE3B59EBEC3
:1028A80069A2163E88FA16BE45FE7FBFA7DFA8B408
:1028B80099FB243FDB0FC93FDB0F494000000000B4
:1028C800FDEEC07A17EE903A2033402B43D8DFED67
:1028D800237A9FED237AB4EEE70AF1EE10FA28DCAA
:1028E800DFED207A9FED1E7AB4EEE70AF1EE10FADA
:1028F80022D4DFED1D7AB4EEE70AF1EE10FA1EDD00
:1029080030EE670A37EEC00A60EE007ADFED176A2C
:102918009FED177AA7EEA67ADFED166AE7EE876ACB
:102928009FED157AA7EEA67A20EE276AA6EE070A8B
:10293800704730EE470ACEE730EE070AD4E79FED3E
:102948000F7AB4EEC70AF1EE10FA44BF30EE270A48
:1029580037EE400AD8E79FED0A0A7047DB0F494077
:10296800DB0FC940DB0F49C0DB0FC93F9A7C2E360D
:10297800FAAF4FB93587083CA4AA2ABEDB0FC9BFF6
:1029880000000000DFED027A30EE270A98E700BF6A
:10299800DB0FC93F91ED005A08B5B0EE450AFFF7C5
:1029A800F1FFF0EE405AB0EE450AFFF789FFD1ED8E
:1029B800014AB0EE405AB0EE640AFFF7E3FFB0EE0A
:1029C800404AB0EE640AFFF77BFF91ED023AF0EE61
:1029D800403AB0EE430AFFF7D5FFF0EE404AB0EEBA
:1029E800430AFFF76DFF25EEA46A65EE806A65EE7F
:1029F800247A64EE244A25EE007AC0ED004AF0EE0F
:102A0800664AE3EEA74AB0EE463AC0ED034AF1EE55
:102A1800634AA4EE873AE3EEA67AA4EE867A24EE19
:102A2800400A25EE445A65EE845A80ED010AC0ED4D
:102A3800023A80ED043A80ED055A80ED067AC0ED41
:102A4800077AC0ED085A08BD38B5334CB4FBF2F428
:102A5800A142F0EE404A1D46F7EE005A4FF000043E
:102A680053D207EE901A9FED2D7ADFED2D6AF8EE1E
:102A7800677A67EE877A07EE102AB8EE477A27EE6C
:102A8800267AC5EE876A87EEA63AB0EE430AFFF7C4
:102A980017FFF0EE402AB0EE430AFFF773FF74EE1B
:102AA800A44AF8EE006A82EEA47AF5B1012D25D089
:102AB80077EE257A20EE260A85EE276A75EEC75A44
:102AC80080ED006A84EE276AC0EE276A80ED016A0D
:102AD80085EEA77A83EEA76AC0ED036A80ED026AE5
:102AE80080ED047A8461446138BD35EEC04AB6EEA3
:102AF800005A24EE055AF0EE453AD9E720EE264A68
:102B0800F0EE653AB0EE655AD2E7C0ED005A44607F
:102B18008460C4600461E5E720A10700DB0FC940B9
:102B2800BD37863500239FED010A8DE7F304353F55
:102B380030B507EE902A2DED028BB8EE670A07EE46
:102B4800903AF8EE677A83B080EE270A0D4604467D
:102B5800019232F0EBFB30EE008AB0EE000AF0EEA4
:102B6800480A32F0EDFD32F07FFFF0EE480AF0EE51
:102B7800408AB0EE000A32F0E3FDF7EE007A30EE5C
:102B8800670A019988EE800A01232A46204603B085
:102B9800BDEC028BBDE8304056E790ED017AB5EE0A
:102BA800407AF1EE10FA07EE901A0BD19FED0F7AEA
:102BB800F8EEE77AF7EE006A67EE877A86EEA77A8C
:102BC80080ED017A90ED017AD0ED007AC0ED020A2D
:102BD80030EE877A30EE670AC0EE876AE6EE807AD2
:102BE800B0EE670AC0ED007A704700BFDB0FC9403E
:102BF8004840082310F0800F4FEA400018BF80F0CB
:102C0800D500013BC0B2F5D1704710B50A440C4657
:102C1800944200D110BD14F8011BFFF7E9FFF7E754
:102C28004A09012301F01F0103FA01F150F822308B
:102C38000B4340F8223070470EB4254B70B51B6823
:102C4800002BA5B0064630DA224B234C19684FF406
:102C58007A7304A8B1FBF3F203FB12131F49FFF7C1
:102C680043FB04AB03440393299A1D492AAB054649
:102C780003A80293FFF731FA039B591C03910A2119
:102C88001970039B591C0391002119700246206892
:102C980080B103681B6A03B1984704A92068FEF74E
:102CA80049F916B1206811F00FFD25B0BDE8704054
:102CB80003B070470B4B1B68002BF6D002212A4447
:102CC80000910A44FD2004A91CF046FFEDE700BF6F
:102CD800384C0020187A0020C83C002003D503088F
:102CE800530500087837002038B5144B1C680330AA
:102CF80004EB9002B2F5807F14D8114D1A6005EBF1
:102D08008404104D55F8213020F003001844920037
:102D180045F82100C2F580620B490020FFF78CFFBF
:102D2800204638BD09490020FFF786FF084A136886
:102D380043F0007313600024F2E700BF6024002012
:102D4800681C0020642400200FD5030832D503082E
:102D5800C04A002010B54CB2002C01F07F034FF0A0
:102D68002802B5BF02FB030102FB010101F58E71C8
:102D780001F55D710122DBB28A70002C4FEAD47232
:102D88000B704A7000EB83000ADA82691368002B23
:102D980001DA43F0804343F400131360002010BDB0
:102DA800426D1368F7E782B0002301930C4A036869
:102DB80019690191013A10D001990029F8DA019AAC
:102DC80042F001020192019A1A61054A19690191BA
:102DD800013A02D00199C907F8D4002002B070471F
:102DE800410D0300084A182363F30602436D1A6174
:102DF800C278012A06D100F2CC5058611A684FF007
:102E080080221A60704700BF0000086010B50423D4
:102E180080F81131002304461A461946FDF728FDAB
:102E28002046FFF7DFFF002010BD10B5044671BB38
:102E380090F81131032B1BD1D0F89023D0F87C33B4
:102E48009A4217D9C178012908BFD0F88013A2EB9C
:102E5800030204BFC918C0F88013934228BF134661
:102E6800C0F890239BB2D0F880230021FDF7B2FD73
:102E7800002010BDD0F8E4351B6923B190F8122169
:102E8800032A00D198472046FFF7C0FFF0E7D0F8A3
:102E9800E4359B69002BEBD090F81221032AE7D187
:102EA8009847E5E7F0B590F8CF1590F8D12590F858
:102EB800CE3590F8D05590F8CC6590F8CD7503EBE9
:102EC800012305EB022590F8D31590F8D22502EBE3
:102ED8000122012185B080F8111106F01F0192B27C
:102EE8009BB2ADB2012904468DF808608DF80970CF
:102EF800ADF80A30ADF80C50ADF80E20C0F84021FE
:102F080000F00E8105D3022900F01E8106F0800131
:102F180087E1092F64D8DFE817F0BA00F8006300EA
:102F2800CC0063005B000A006300AD007A00ADF8D6
:102F380006201A0A013A062A52D8DFE802F0040CE1
:102F4800295151515100D0F8EC351B68A0780DF18A
:102F5800060198470AE0D0F8E43580789B6A0DF1BD
:102F68000601984702234370C4F8F005BDF806200F
:102F7800002A47D0BDF80E30002B43D09A4228BF14
:102F88001A46ADF8062001462046FDF713FD39E044
:102F9800DBB2052B24D8DFE803F003070B0F131768
:102FA800D0F8EC355B68D1E7D0F8EC359B68CDE715
:102FB800D0F8EC35DB68C9E7D0F8EC351B69C5E714
:102FC800D0F8EC355B69C1E7D0F8EC359B69BDE713
:102FD80035B92AB990F81211032903F07F0503D1F6
:102FE800204627F0ABFC0DE063F30A12036980F872
:102FF800145119680A431A60FFF708FF2DB102231C
:1030080084F81231002005B0F0BD0123F8E7D9B2E9
:10301800894D012985F8B014E2D890F81231022BB5
:103028000FD0032BDCD1C1B9022380F81231D0F8BC
:10303800E43580F810115B6898472046FFF7E6FEF4
:10304800E0E70029F9D00121032380F8101180F866
:1030580012312046FDF712FBEFE790F81011012915
:10306800EBD0D0F8E4355B68984795F8B01484F84D
:103078001011EEE7012AB3D190F81231022B04D0D7
:10308800032BADD100F588717EE76C497CE790F899
:103098001231023B012BA3D8674B0022C3F8B82496
:1030A800D0F8182112B10222C3F8B82402226449C8
:1030B8006AE7012B08D1C4F81831D4F8E43502A91D
:1030C8009B6820469847B8E7022B9BD115F0FF0F65
:1030D80098D103692D0A013D5B680122042D05D8AA
:1030E800DFE805F004030D0F1100022262F3061356
:1030F800514AC2F8BC34012384F816319DE70322F3
:10310800F4E70422F2E70522F0E790F81221023AE8
:10311800012A3FF665AF012B7FF474AF0023CAE79D
:1031280090F81231032B7FF45CAFEDB2012D3FF61E
:1031380057AFD0F8E43502A99B689847BDF80E3020
:10314800002B7FF45FAF78E706F06006202EE9B227
:1031580005D1D0F8E43502A99B68984752E7012FBA
:1031680011D041D3032F7FF44DAF90F81221022ADA
:1031780054D0032A7FF435AF002B9ED14A069CD049
:10318800FFF7E8FD99E790F81221022A46D0032AB2
:103198007FF427AF002B7FF435AF11F07F023FF4A7
:1031A8004CAF6DB2002D4FF02803B5BF03FB0201F1
:1031B80003FB010101F58E7101F55D7100238B7030
:1031C8000A70EB0F00EB82024B70002DB4BF9269BE
:1031D800526DC978136802396FF35553012998BFA6
:1031E80043F08053136068E790F81231022B15D032
:1031F800032B7FF4F6AE15F0800F0F4B4FF028022B
:1032080014D001F07F0102FB010191F81E215AB18F
:103218000122C3F8C0240B490222B5E64B063FF44D
:10322800F1AEFFF797FDEDE60022F2E702FB0101A0
:1032380091F87623EBE700BFB81B00206C20002034
:10324800702000207820002038B5044600295BD182
:1032580090F81131022B1ED1D0F83831D0F8242142
:10326800934226D9C178012908BFD0F82811A3EBC9
:10327800020304BF5218C0F82821C0F83831D0F82A
:1032880028219BB20021FDF7F3FA00231A461946BC
:103298002046FDF79FFB94F81631012B07D1204AF1
:1032A8002369D2F8BC245A60002384F81631002020
:1032B80038BDD0F83C31B3FBF2F502FB153565B9E2
:1032C8009A420AD8D0F84021934206D22B462A4681
:1032D800FDF7CEFAC4F84051D7E7D4F8E435DB68F7
:1032E8002BB194F81221032A01D1204698470523CF
:1032F80084F8113100231A4619462046FDF76AFB67
:103308002046FFF76FFDC6E7D0F8E4355B69002B70
:10331800CDD090F81221032AC9D19847C7E700BF3A
:10332800B81B00200023036043608360C36003610F
:1033380043618361C361036243628362C36203635F
:103348004363836370470368134A10B51A40CC6817
:103358000B6823434C6923438C692343CC6923437B
:103368000C6A23434C6A23438C6A23434C6B2343E4
:103378008C6B2343134303604269CB6A0C6B22F0C6
:1033880007022343134343610B6943604B6883601F
:103398008B68C36010BD00BF3F801CF0036823F03A
:1033A800010303600023036043608360C36003611B
:1033B800212343612A4B984203D13D2243F8082C2C
:1033C8007047284B984204D14FF4746243F8202C7C
:1033D8007047254B984204D14FF4741243F8382CA7
:1033E8007047224B984204D14FF0746243F8502C36
:1033F80070471F4B984203D11E4A43F8642C70470C
:103408001D4B984203D11D4A43F87C2C70471C4B36
:10341800984203D11B4A43F8942C70471A4B9842A0
:1034280004D14FF03D5243F8AC2C17E0174B9842AB
:10343800C3D0174B9842C7D0164B9842CCD0164BE6
:103448009842D1D0154B9842D6D0154B9842DAD035
:10345800144B9842DED0144B9842E2D0704700BF1C
:1034680010600240286002404060024058600240FC
:10347800706002403D00002088600240400F00203C
:10348800A060024000003D20B86002401064024085
:10349800286402404064024058640240706402405C
:1034A80088640240A0640240B8640240204A9368DD
:1034B80003F00C03042B10B520D0082B20D01D4B93
:1034C8001B4C0360A3681C4AC3F30313134493F80B
:1034D80084100368CB404360A168C1F38221114482
:1034E80091F8841023FA01F18160A168C1F3423197
:1034F8000A4492F88420D340C36010BD0F4BDFE725
:103508005468516852686302C2F3881201F03F019F
:103518004CBF0A4B074BB3FBF1F35343044A5268C1
:10352800C2F3014201325200B3FBF2F3C8E700BF15
:10353800003802400024F4000000002000127A0045
:10354800F0B5C46D8668A38923F400531B041B0CD3
:10355800A381817911F004030CBF4FF0000E4FF4E2
:10356800805E11F0020F14BF4FF400570027002BA4
:10357800437914BF4FF48061002113F0010F054611
:1035880014BF042000209B07238A9BB223F44053D6
:1035980043EA07032382A28922F4B05222F00C02E4
:1035A80048BF40F0080041EA0E0312041843120C09
:1035B8000243A281A28A22F44072120485B0120C3E
:1035C800A2826846FFF772FF234B9C4203D003F5A3
:1035D80080639C4235D10399A389192213F4004FC3
:1035E80002FB01F214BF7100B100B2FBF1F1A28934
:1035F80064261204B1FBF6F34FEA031006FB13131B
:1036080021D5DA003232B2FBF6F202F0070242EAC2
:1036180000039BB22381AB79EA6D13F0080F938AFC
:103628000BBF23F008039BB21B0443F0080308BF39
:103638001B0C938293899BB243F40053938105B08A
:10364800F0BD0299C8E71B013233B3FBF6F303F070
:103658000F030343DDE700BF0010014041716FE72E
:1036680081606DE72DE9F0479846664B90B0984227
:103678008A4691469DF860609DF8647040F090809D
:103688003B463246414600201DF008FF0025012335
:1036980080F850300562C56185624562C0F82CA08B
:1036A800C0F830904671C0F8088087710446FFF76B
:1036B80047FFF20734D5636B002B00F0918001A817
:1036C800FFF730FEA36D02934FF480330B934FF452
:1036D80080630793E3680593E36B01934FF480736A
:1036E8000A93606B636903930695089509950C9591
:1036F8000D950E950F950495FFF750FE01A9606B87
:10370800FFF721FE626BE16D136843F0010313605C
:103718008B8A9BB243F040038B8253689BB2E3646D
:10372800B30733D5A36B002B63D001A8FFF7FAFDCD
:10373800636D02934FF480330B934FF480630793C8
:1037480023690593236C019300254023A06B049300
:103758000695089509950C950D950E950F950A9562
:10376800FFF71CFE01A9A06BFFF7EDFDA36B5A69DB
:1037780042F080025A611A6842F016021A60E26D3D
:103788005D60938A9BB243F080039382E26D9389D4
:103798009BB243F400539381204610B0BDE8F087F4
:1037A800194B984204D13B463246414601206BE70B
:1037B800164B984204D13B4632464146022063E705
:1037C800134B984204D13B463246414603205BE7FF
:1037D800104B984213D13B4632464146042053E7EA
:1037E800E36D4FF6DF721A80DA6842F02002DA6081
:1037F80096E7E26DD36843F08003D360C6E7002004
:10380800CBE700BF001001400044004000480040E2
:10381800004C0040005000402DE9F0430D680022A4
:103828000126032406FA02FC3CEA05033DD15700B1
:10383800D0F800E004FA07F3DB430EEA030EC0F801
:1038480000E091F804E0D0F800900EFA07F80EF1C5
:10385800FF3E48EA0908BEF1010FC0F8008017D8FA
:10386800D0F808E003EA0E0383604B79D0F808E04B
:10387800BB4043EA0E038360436823EA0C034360BA
:103888008B79D0F804E093409BB243EA0E0343607F
:10389800C36804FA07FE23EA0E03C360CB79D0F8A5
:1038A8000CE0BB4043EA0E03C3600132102AB9D1D1
:1038B800BDE8F083F7B50C461546064690B3FDF70C
:1038C800EEFB194B18440F2790F8940027F06AF87C
:1038D80030463368FDF7D9FB80B200F00702C00814
:1038E80003EB80009200016A974021EA0701016218
:1038F800016A9540B288009204F003020D438DF8E6
:103908000420C4F3810205628DF805206946C4F3DA
:1039180000121846C4F341148DF806208DF80740AC
:10392800FFF77AFF03B0F0BD047803082DE9F047EC
:10393800142606FB00F37B4CE218E1587A4B06FB91
:103948000046994204BF012313730546307A27F0D5
:1039580029F8327A02F01F0152090123032A03FAD7
:1039680001F364D0042A67D0022A03D16F4A516A4E
:103978000B435362142303FB05436F1C5879FDF76F
:103988004BFBFFB2824620B10D2383710B23C37119
:103998000772142303FB0543D879FDF73DFB8046E6
:1039A80018B10D238371C3710772142303FB0543F8
:1039B8009879FDF731FB064620B10D2383710C235E
:1039C800C3710772142303FB05435F7A93F80C90C5
:1039D8003A46B9F1000F34D04A215046FFF76AFF42
:1039E8003A462A214046FFF765FF3A46142707FB67
:1039F800054730460A21FFF75DFF3E7936B130466C
:103A0800FDF70AFB7A7A0921FFF754FF14235D4377
:103A1800474A635993421BD102F58432516A41F4F3
:103A280080515162516A21F4805151621DE03F4A30
:103A3800116A0B4313629DE73C4A11690B431361FA
:103A480098E70A215046FFF735FF3A460A21C9E7A9
:103A5800384A93422CD102F50032116A41F4804170
:103A68001162116A21F480411162B9F1000F53D03B
:103A780000221046198801F4415141F445710A4366
:103A880002431A809A8B22F400621204120C9A8361
:103A980007221A821A8892B242F040021A80002E37
:103AA8003DD03046FDF7B8FABDE8F047FDF7DFBA7C
:103AB8001D4A934209D102F5FE32116A41F40041D0
:103AC8001162116A21F40041CEE71B4A934209D1E1
:103AD80002F58232516A41F400515162516A21F46F
:103AE8000051A2E7154A934209D102F56842516A8A
:103AF80041F480115162516A21F4801195E7104A0E
:103B08009342B2D102F56442516A41F40011516204
:103B1800516A21F4001188E701220220AAE7BDE8D2
:103B2800F08700BF00000020003C00400038024041
:103B3800003001400038004000340140005001408E
:103B48000054014037B50C460546E8B1FDF7A7FA21
:103B58000E4B184490F8940026F024FFAB8800938D
:103B680004F003038DF80430C4F381038DF80530A5
:103B78006946C4F3001328688DF80630C4F341146D
:103B88008DF80740FFF748FE03B030BD04780308FE
:103B98002DE9F04F444C94F8C45485B0052D1746D0
:103BA80006468B4602939DF8382009D93F490020E4
:103BB800FFF742F84FF00008404605B0BDE8F08F27
:103BC8006B1C5FFA83FA0079039284F8C4A4FDF7AA
:103BD80023FA04F5996808EB05188146039A28B179
:103BE800042181710221C17180F808A0002A34D013
:103BF800327A02214846FFF75DFE5A463946306858
:103C08001DF0C3FBB279029B009371793068C2F34F
:103C18004003C2F380021DF0AFF8B37913F0010F2F
:103C2800336808D0B3F844206FEA42426FEA524240
:103C380092B2A3F844201A8892B242F001021A8084
:103C480072792D010C2A25D8DFE802F00F242424EC
:103C58001B2424241E242424210048461121FFF774
:103C680071FF4846FDF7FEF9C7E703F134022C441B
:103C7800C4F8CC340023C4F8C824A4F8D074136062
:103C88009AE703F13802F2E703F13C02EFE703F1A8
:103C98004002ECE72C440022C4F8C824A4F8D074ED
:103CA800C4F8CC341260FFDEB81B002040D50308EE
:103CB80008B5FDF7B1F948B11D2282710E22C27113
:103CC800002202722021BDE808403BE708BD10B57C
:103CD80003681A79022A044602D1987AFFF7E8FFA6
:103CE80000232371236010BD70B51E46254D264B59
:103CF8009D4201D300241AE06C798C423AD12C7988
:103D0800844201D0002835D12C7A944232D12C68D3
:103D18002C220021204633F0F0FC25602B792371FA
:103D2800EA88A260012B04D0E4D3022B0AD02046F3
:103D380070BDE87AFDF770F960616B7A2373AB7A2E
:103D48006373F4E7E87AFDF767F960616B7A2373C8
:103D5800A87AFDF761F90546206168B10E23C371A1
:103D68000023867103720921FFF7ECFE2069FDF735
:103D78007EF9DCE70C35BBE72046FFF7A8FF2C46A9
:103D8800D5E700BF181D0408FC1D04082DE9F843F9
:103D980000231A461F210120FFF7A6FF1D4D0446E8
:103DA800C5F88C002F4638B11FF01DF8044630B90D
:103DB800D5F88C00FFF78BFF2046BDE8F88300227A
:103DC8001146D5F88C00FDF709FC3C20FDF778FC7E
:103DD800012003F006FB00265FFA86F84FEA880503
:103DE800D7F88C90EDB2A91D002201F0FE014846DB
:103DF800FDF7F4FBE91D0022C9B24846FDF7EEFBCA
:103E0800013640F2DC514046FDF720FC102EE3D18C
:103E1800D2E700BFB81B002030B500F13601084BCF
:103E2800024603F1100453F8045B42F8045BA34212
:103E3800F9D112301B8813808842F0D130BD00BF01
:103E4800B478030820B10078B0FA80F040097047D0
:103E58000120704708B5202133F066FC0346184658
:103E680023B10278202A03F10103F8D008BD2DE917
:103E7800F8430D4616468146002440F634074FF0B5
:103E880019084846FFF7E6FF814690B1FDF738FE6E
:103E9800B842A8BF3846B0F5617FB8BF4FF461702B
:103EA800A0F5617090FBF8F04CB9287033780133B5
:103EB80033700134022CE4D14846BDE8F8836870B9
:103EC800F4E770B5054608460E462FF07BFE3146EE
:103ED800044602462846FDF7F9FD60B92B5DA3F1BB
:103EE8003002092A08D923F02003413B192B03D9B2
:103EF800601C284470BD002070BD08B51E4B1F4CC7
:103F08001D68A06810F0E0FB284610F0DDFBA068F3
:103F180041798B0703D441F00201FCF7D3FF00215C
:103F28000846FDF755F800210120FDF751F8A06873
:103F3800FCF7D7FF70B101210020FDF749F8A06810
:103F4800FCF7C9FF01462846FCF7CEFF00210846CA
:103F5800FDF73EF82846FCF7C4FF0028E7D001210A
:103F68000846FDF735F82846FCF7B5FF0146A06876
:103F7800FCF7BAFFD7E700BF0CCB00201C48002095
:103F880010B4447A631C0444DBB24372A172027A0F
:103F98009A4203D85DF8044BFDF7E6BB5DF8044B85
:103FA80070470FB413B5084C0849206804AB53F8A0
:103FB800042B0193FEF791F82068FDF7D5FB02B0BA
:103FC800BDE8104004B0704708CB0020893F0008C6
:103FD800A0F2DC50164BB0F5FA7FA8BF4FF4FA7088
:103FE800984210B5B8BF18460C461146FEF795FB27
:103FF80000B207EE900A9FED0F7AF8EEE77AE4B286
:1040080087EE870AFBEE096AE0EE006A07EE904A3F
:10401800B8EE677ADFED087AE7EE267A67EE807AFF
:10402800B3EE090A87EE800A31F08AF900B210BDB2
:104038000CFEFFFF0000C84200401C450E4B1B68E9
:10404800590702D50D4A1278A2B19A0602D50C4A30
:1040580012787AB10B4A92F8A00058B10A4A12882D
:104068000AB19B0707D4094BB3F84800003018BFC2
:1040780001207047012070470C4C0020A8960020B2
:10408800943C0020089700201C42002034050010B2
:10409800084A03465079C01A18BF0120032B28BFCD
:1040A80000235371044AC3EBC30302EB8303034A9F
:1040B8001360704770440020D04200204C43002019
:1040C80070B50B4E35792D1A18BF01250328044603
:1040D80034BF044600242046FDF7A6FB054B347187
:1040E80004EBC40403EB4404034B28461C6070BD76
:1040F8007044002028240020448D002038B5134C3B
:10410800134DAC420DD30020FDF78EFB114814F07F
:1041180011F9114B1879FFF7D3FFBDE8384019F0B2
:1041280013BBB4F90230002B4FF00001204603DB2B
:10413800FDF7B4FB1434E4E7FDF7B0FB012120469A
:10414800FDF7ACFB02212046F2E700BFF816040891
:10415800A41A04087BD5030870440020044B9B79FB
:1041680013B9044B18687047034B9888704700BF11
:104178007044002070060010DAC80020074B1B6846
:10418800597A4A1C1944D2B25A728872197A9142E1
:1041980002D81846FDF7E8BA704700BF08CB0020E0
:1041A80038B5094D441E14F8011F01B938BD2868F7
:1041B800427A531C0244DBB243729172027A9A42E9
:1041C800F1D8FDF7D1FAEEE708CB002008B5044690
:1041D8000648FFF7E5FF064B1868FDF7C5FA054BDB
:1041E800186810F071FA20460EF022FC84D50308F6
:1041F80008CB00200CCB0020034808B5FFF7D0FF00
:104208000120FFF7E3FF00BF90D5030808B5044875
:10421800FFF7C6FF034B1868BDE80840FDF7A4BACE
:10422800A9D5030808CB00200048B9E7CADD030870
:104238002DE9F0410D4D0E4FDFF838800024661946
:104248006059FFF7ADFF716811B13846FFF7A9FE55
:10425800B16811B14046FFF7A4FE1034FFF7E4FF40
:10426800B4F5187FEBD1BDE8F08100BF94D0030806
:10427800AED50308B4D5030810B5064C0B46024664
:1042880005492068FDF729FF2068FDF76DFABDE8AC
:104298001040C9E708CB0020893F00080FB407B5D4
:1042A80004A951F8040B0191FFF7E6FF03B05DF88C
:1042B80004EB04B070472DE9F74F1F481F4C204D01
:1042C800204FFFF7EBFF04F51376A37994F808B0B5
:1042D80005EB83032046D3F81490E37905EB8303B9
:1042E800D3F898A0BBF1000F16D0FCF7D8FE804693
:1042F8002046FCF7CAFECDF804A00246CDF800B06F
:104308004B4608F141011048FFF7C8FF0C34A6429C
:10431800DBD103B0BDE8F08FFCF7C1FE8346204631
:10432800FCF7B3FECDF800A002464B460BF1410165
:104338003846FFF7B3FFE9E7BAD50308083100208C
:10434800B4780308E6D50308D6D503082DE9F0416B
:104358001048114E114FDFF84C80FFF79FFF0125E1
:10436800002474B90E4B9A6B9200D2F5806205D086
:1043780056F824103846FFF791FF06E0013401355E
:10438800EFE758F82420002AF2D1212DF6D1BDE814
:10439800F08100BFF4D50308C87803080AD60308DB
:1043A80028240020642400201FB5074B0293074BE4
:1043B8000193074B0093074A074B08490848FFF742
:1043C8006DFF05B05DF804FB48D6030850D6030816
:1043D80059D603081ED6030818D603082BD6030897
:1043E80030D603082DE9F04F5448554D8DB0FFF7EE
:1043F80055FF0026B046B146524B1A680023934237
:1044080023DB0136192E05F14805F5D14E49886898
:10441800CA680C680969400940EAC2624FF47A73B5
:104428004A48B4FBF3F3FFF739FF0A2298FBF2F38B
:1044380002FB138099FBF2F1009002FB11924448B1
:10444800FFF72CFF0DB0BDE8F08F424951F823105B
:104458008D4201D00133D2E7AC6A5CB107EE904AD5
:10446800DFED3D6AF8EEE77A86EEA77AFDEEC77AC9
:1044780017EE904A2F6B6A6BEB6BD5F838A07F0963
:1044880047EAC26752090B922146E217CDE90812A2
:10449800099A63430AFB0233A4FB0A0141F2883BF1
:1044A8001BEB000B19444FF0000C4CEB010C4FF4C4
:1044B8007A7200235846614630F0C2F90B9B099A7C
:1044C8000A90634307FB0233A4FB070141F2883BD0
:1044D8001BEB000B19444FF0000C4CEB010C0023B4
:1044E8004FF47A725846614630F0AAF9062E18BF82
:1044F8000A9B0A99019718BF99444FF47A722B6C5A
:10450800B3FBF2F306934FF00A0318BF804490FB05
:10451800F3F203FB120004920A9A92FBF3F203FBF4
:104528001213059003930292CDF800A023462A683F
:104538000A483146FFF7B2FE63E700BF65D60308B5
:10454800A0020020BC04001000000010E1D60308FF
:1045580003D70308C004001000247449ACD603082C
:104568002DE9FF410A480488856846888788D0F87D
:104578000C802DF011FB8DE88001029033462A460D
:1045880021460448FFF78AFE04B0BDE8F08100BF69
:10459800401B002031D70308F8B5437913F0C00257
:1045A800044602D0402A17D0F8BD03F00F03062BAB
:1045B80006D121F0ADFCBDE8F840014616486DE68D
:1045C80021F0BEFC0546204621F0A2FC2946024601
:1045D800BDE8F840114861E683791148114E124F41
:1045E800262B96BF114D002505EBC305FFF7D8FD17
:1045F80000242B799C4202D3BDE8F84014E614B19C
:104608003046FFF7CDFD2B68384653F82410FFF7E6
:10461800C8FC0134EDE700BF8CD703089CD703081A
:10462800B3D70308C3D70308BAD9030890B7030858
:1046380070B54379164603F00F028AB00546062A7C
:104648004CD8DFE802F0041316181B1D49000C783B
:1046580013F0C00344D0402B3CD12146284621F01A
:104668003FFC002856D0FFF79CFC33E091F900404E
:10467800EEE70C88ECE7B1F90040E9E70C68E7E7FA
:1046880091ED000A01A8FDF7DFFA01462648FFF779
:1046980088FCFEB16B7913F0C00F1BD1284621F0BE
:1046A8004FFC07EE900A01A8B8EEE70AFDF7CCFA2E
:1046B80001461E48FFF775FC284621F029FC07EE45
:1046C800900A01A8B8EE670AFDF7BEFA0146174836
:1046D800FFF767FC0AB070BD1348F9E70024B7E795
:1046E800042A0CBF124813482146FFF75AFC002E33
:1046F800F0D06B7913F0C00FECD1284621F020FCE4
:104708000446284621F004FC214602460A48FFF7E1
:1047180048FCDFE701A9284621F010FD01AA21463F
:104728000648FFF7BBFDD5E7B7D50308BAD9030894
:10473800B0D7030838F70308C5D70308CCD7030850
:1047480038B50D46044621F059FC2A460146204654
:10475800BDE838406CE72DE9F04F81468DB08846BA
:104768000026474BF418474B1868FCF7FDFF94F8F0
:1047780005B00BF030034B4549D1204621F01CFC15
:10478800FDF798F80546204621F0ECFBAA6801924F
:1047980017188246204621F031FC0BF00F01054620
:1047A800019A062968D8DFE801F0043A3F43484CEB
:1047B8005A0012F80A200378D31AD3F1000A4AEBF8
:1047C800030A18F0200F02D0BAF1000F1FD103A975
:1047D800204621F0B3FC18F0400F0DD0BAF1000FBD
:1047E8000AD103A92848FFF7DCFB52462946204690
:1047F800FFF71EFFFFF718FD03A92448FFF7D1FBB9
:10480800002239462046FFF713FFFFF70DFD0A3651
:1048180040F6B6539E42A4D10DB0BDE8F08F12F910
:104828000A2090F90030C7E732F80A200388C3E766
:1048380032F90A20B0F90030BEE752F80A200368BE
:10484800BAE797ED007AD0ED007AB4EE677AF1EE28
:1048580010FA0CBF4FF0010A4FF0000AB1E72046EA
:1048680021F056FB2946421C384632F073FFB0FA55
:1048780080FA4FEA5A1AA4E74FF0000AA1E700BFEE
:104888009081030808CB0020E9D70308EAD703087A
:104898000CB407B510F0400009D069B92320FFF720
:1048A8006DFC05A904980191FFF7E6FC012003B00F
:1048B8005DF804EB02B070470020F8E70CB48306FB
:1048C80007B500D551B905A904980191FFF7D4FCA3
:1048D800012003B05DF804EB02B070470020F8E750
:1048E8002DE9F04F824687B091460E4615460027BF
:1048F800337896F9028004937378059396F803B099
:10490800B8F1000F34D0B9F1000F36D02B78049CE1
:104918006A7895F90210E8789C422CD1059C94425B
:1049280029D1884527D1ABEB000EDEF1000444EB1A
:104938000E040390029101920093114A3B462146CE
:104948005046FFF7A5FF059B0193049B0093CDF804
:104958000CB03B46CDF80880094A2146504601373D
:10496800FFF7ACFF102F06F1040605F10405BFD1CF
:1049780007B0BDE8F08F0024DBE74C46E3E700BF53
:10498800F4D703082DE9F04FDFF8FCB085B0804676
:10499800894617460E4615464FF0000A002F6ED07E
:1049A80072686B689A4268D1B468AB6824F07F4437
:1049B80023F07F43E31A5C425C4195F90A30039384
:1049C800B5F908300293B5F906300193B5F904300A
:1049D80000935A46534621464046FFF759FF96F939
:1049E8000A300393B6F908300293B6F906300193FA
:1049F800B6F9043000935A465346214640460AF118
:104A0800010AFFF75BFFBAF1080F06F10C0605F182
:104A18000C05C3D177B3002426460025012303FAE9
:104A280005FA3A5959F8043053403AEA030314BFD7
:104A38004FF0010B4FF0000B12EA0A0F06D0009559
:104A48003346104A59464046FFF722FF59F80430CA
:104A58001AEA030F06D0009533460A4A59464046DB
:104A6800FFF72CFF0135172DD8D10136082E04F198
:104A78000C04D2D105B0BDE8F08F00249DE73C4678
:104A8800ADE700BF1DD8030808D803082DE9F04F8B
:104A9800DFF8B0A085B080460F46144600260623EE
:104AA800734303930025039B2B44FA1892F8C0B074
:104AB800002C42D02344524693F8C0300193ABEB0C
:104AC8000301D1F1000949EB010900953346494634
:104AD8004046FFF7DDFE8DE820083346524649463A
:104AE80040460135FFF7EAFE062DDCD10136062ED9
:104AF800D5D107F1E40A134F00251AF8019BF4B148
:104B08006319404693F8E4300193A9EB0302564237
:104B18005641009506233A463146FFF7B9FE8DE81F
:104B2800200206233A46314640460135FFF7C6FEC5
:104B38000B2DE2D105B0BDE8F08FA146CBE72646A4
:104B4800EDE700BF32D803082DE9FF47DFF86CA076
:104B5800814690460E4615460027B8F1000F2AD028
:104B68002B8832889A4224D174886A88A21A5442BF
:104B78005441EA780292AA780192009352463B4641
:104B880021464846FFF784FEF3780293B3780193F1
:104B980036F8043B009352463B46214648460137C7
:104BA800FFF78CFE102F05F10405D6D104B0BDE83F
:104BB800F0870024DDE74446E6E700BF46D803084F
:104BC8002DE9F04FDFF868808FB007468A46164611
:104BD80000240DF124095AF824300293494602A80A
:104BE80026F0FCFD16B356F82430029D0393EB1A09
:104BF8005D420DF1100B5D41594603A826F0EEFD0C
:104C0800CDF800B02346424629463846FFF740FE15
:104C18002346CDF800904246294638460134FFF72E
:104C28004DFE202CD7D10FB0BDE8F08F3546EFE709
:104C380058D803082DE9F347DFF868A081460F46E6
:104C4800904602260024B8F1000F28D037F8242017
:104C580038F824309A4238F806201ED1BD5BA91ACC
:104C68004D424D41019200935246234629464846FB
:104C7800FFF70EFEBB5B019337F8243000935246D2
:104C88002346294648460134FFF718FE042C06F14E
:104C98000406D8D102B0BDE8F0870025E2E7454612
:104CA800E8E700BF62D803082DE9F04F2DED088B27
:104CB800DFF80C9197B0804692460D4614460026C0
:104CC80095ED008AB5EE408AF1EE10FA71D0D5ED77
:104CD800019A95ED029AD5ED038ABAF1000F3FD0FB
:104CE80094ED000A94ED01BAD4ED02AA94ED03AA5A
:104CF800B4EE408AF1EE10FA60D1F4EE4B9AF1EE80
:104D080010FA5BD1B4EE6A9AF1EE10FA56D1F4EECD
:104D18004A8AF1EE10FA0CBF0127002712A8FCF707
:104D280093FFB0EE4B0A83460EA8FCF78DFFB0EE5A
:104D38006A0A05900AA8FCF787FFB0EE4A0A0490B1
:104D480006A8FCF781FF049A059B03900292019341
:104D5800CDF800B033464A4639464046FFF798FD3D
:104D6800B0EE480A12A8FCF76FFFB0EE690A0746D2
:104D78000EA8FCF769FFB0EE490A83460AA8FCF7BB
:104D880063FFB0EE680A049006A8FCF75DFF049B79
:104D9800039002938DE8800833464A460021404636
:104DA8000136FFF78BFD0C2E05F1100504F11004F8
:104DB80086D117B0BDEC088BBDE8F08F0027ADE7B2
:104DC80073D803082DE9F04F834687B092460C4606
:104DD800164600274FF019094FF46178BAF1000F11
:104DE8004DD0A378B17832798B42337845D1207889
:104DF800984242D16578707885423ED1E578F0785E
:104E080085423AD12079904237D165797079281A4C
:104E1800454245410592F27804927278019119FB56
:104E2800028219FB03830392029373790093154A54
:104E38003B4629465846FFF72BFD23790593E3782F
:104E4800049363780F4A19FB03830393237819FBB0
:104E580003830293A37801936379009329463B4621
:104E680058460137FFF72AFD0C2F04F1060406F116
:104E78000606B3D107B0BDE8F08F0025CAE755464E
:104E8800DBE700BF87D803082DE9F04F354FDFF87F
:104E9800DCA087B0814690460C46164602F1400BCE
:104EA80094F90220002330495956914254D00C33CA
:104EB800602BF8D108365E4504F10804F0D107B03C
:104EC800BDE8F08F96F9023071799A42328841D163
:104ED800208890423ED1E578F07885423AD125790C
:104EE8003079854236D1A579B079854232D1657954
:104EF800681A4542454157F821100491B17957F88D
:104F080021100391317957F821100291F17800921C
:104F180057F821100191524629464846FFF7B8FC38
:104F2800627994F9023057F822200492A27957F84E
:104F380022200392227957F822200292E27857F829
:104F48002220019222880092294652464846FFF7BD
:104F5800B5FCAFE70025CEE7B8F1000FB2D1454662
:104F6800DEE700BF7CB2030878A00020A5D80308BC
:104F78002DE9F04F834685B092460D461646002728
:104F88004FF019094FF46178BAF1000F3DD02B7832
:104F980032789342F37836D168787178884232D182
:104FA800A878B17888422ED1EC78E11A4C424C416D
:104FB80019FB03830393B37819FB03830293737874
:104FC80021468DE80C0058463B46114AFFF760FC25
:104FD800EB780F4A19FB03830393AB7819FB038320
:104FE80002936B78019315F8043B009321463B46E6
:104FF80058460137FFF762FC142F06F10406C3D1A7
:1050080005B0BDE8F08F0024D2E75446E0E700BFC2
:10501800C2D80308F7B50746FEF714FF044630B1B7
:10502800002222490120FFF7A3FF03B0F0BD384654
:10503800FCF766FD1328054630DC8600781C8DF8E1
:105048000740FEF707FF194C074640B1FCF758FD2B
:1050580023289EBF012304F825008DF80730384621
:10506800FEF7F8FE074650B1FCF74AFD0D2806D8B2
:10507800A31958709DF8073001338DF80730B11C1B
:105088000DF1070221443846FEF7F1FE9DF807307E
:10509800042BCAD0002344F82530C6E71323224640
:1050A80003490448FFF7FAF8BFE700BFF06800209B
:1050B800D5D80308DBD8030808B5FFF771F8BDE8B1
:1050C8000840FFF7B1B82DE9F0430024DFF85C8011
:1050D800DFF85C908BB00746254604EB080601A96B
:1050E800304621F02BF8394601A832F06CFB78B134
:1050F80001A94846FEF755FF00213046FFF720FB7F
:10510800FFF792F83046FFF747FAFFF78DF80135B9
:105118000A3440F6B6539C42DFD115B90248FFF76E
:10512800CBFF0BB0BDE8F083F8D8030890810308E3
:10513800EED703082DE9F04F2DED028B8BB080469A
:105148002EF040FD054628B1012824D198F80030FA
:105158002A2B20D18A48DFF848828A4FFFF7ACFF14
:10516800002404EB080601A9304620F0E7FF01A956
:105178003846FEF716FF29463046FFF7E1FA0A34AB
:10518800FFF752F840F6B6539C42EAD10BB0BDEC9B
:10519800028BBDE8F08F3D21404632F0C5FA002869
:1051A80000F0E080034613F8012C202A03F1FF31B8
:1051B80031D0A3EB0807441C2378202B04F101020B
:1051C8002BD0DFF8DCB100264FF00A0A0AFB06B53F
:1051D80001A9284620F0B2FF01A82EF0F3FC01A98E
:1051E800814602464046FCF771FC002840F0BE802C
:1051F800FBB2994540F0BA806B7903F00F08B8F11B
:10520800060F0CD120462EF0DDFC2146024628462A
:1052180020F001FFBAE70B46C5E71446CCE713F0C8
:10522800C0030AD0402B5ED05748FEF7B9FF284686
:10523800FFF7B2F9FEF7F8FFA8E72378002BF3D0C1
:105248005249204632F0ADFA064620462EF0BAFC06
:105258008642E9D12046FCF770FC2846B0EE408A29
:1052680020F06EFE07EE900AF8EEE77AB4EEE78AD1
:10527800F1EE10FAD8DB284620F04AFE07EE900A35
:10528800F8EE677AB4EEE78AF1EE10FACCD8B8F106
:10529800050F17D0B8F1040F1FD1214614F8013BB0
:1052A800202BFAD0092BF8D0013900230A2011F855
:1052B800012F303AD2B2092A02D800FB0323F6E7BD
:1052C80008EE103A284620F099FEB8F1050F36D8B6
:1052D800DFE808F032323E3E42452046FCF710FC3B
:1052E80008EE100AEEE7AB799FED298A262B96BFC8
:1052F800284E064606EBC306002796F804A03B4650
:10530800B946574503D3B9F1000FDBD18CE7002B21
:10531800F9D133686FF0004253F827002146FCF7B3
:10532800D5FB002808BF08EE107A0ABF0123002326
:105338004FF001090137E4E718EE103A037001A9AC
:105348001548FEF72EFE00212846FFF7F9F91DE75C
:1053580018EE103A0380F2E780ED008AEFE780ED5F
:10536800008AECE74046FFF7AEFE0FE7013640F251
:105378005F139E427FF42AAF0848FFF79DFE05E7BA
:1053880005D90308EED7030830D9030817D903084D
:105398000000000090B7030825D90308F8D80308CF
:1053A8009081030870B50346FEF74CFD30B3254BDA
:1053B8001C680134172C05D823490C2202FB04125F
:1053C80095686DBB204A25460C210135172D0EDD49
:1053D800002501FB0520866856B11D600FF07CFA98
:1053E800324629461948FEF759FF2C4621E0F0D9E4
:1053F800A542EAD11648BDE870405DE61846FCF7BC
:105408007FFB1728044605D80F4A0C2303FB00230B
:105418009D682DB921460F48BDE87040FEF73EBF94
:10542800084B1C600FF058FA2A4621460748FEF739
:1054380035FF0C235C43044B185DBDE870400FF04A
:1054480069BD00BF940000205C7F030869D9030888
:105458003FD9030853D9030808B50948FFF72CFEBC
:10546800084B1868FCF780F9074B00241C70074BA1
:105478001C60074B1C701FF003FD2046FEF7A6FEBC
:105488007ED9030808CB002014CB002010CB0020C5
:10549800908300202DE9F74F80462EF093FB474D6F
:1054A800DFF844912F680446F0B94548454EFEF7A9
:1054B80078FD012519F80430013B05FA03F33B4256
:1054C80009EB040203D091683046FEF76AFD0C34FC
:1054D800B4F5847FEED117B93B48FEF761FE03B0FF
:1054E800BDE8F04FFEF7A0BE024638494046FCF73B
:1054F800EDFA064670B93648324DFEF751FE09EB13
:105508000603284699680C36FEF74BFDB6F5907FE2
:10551800F5D1E4E798F800302D2B03BF08F1010816
:1055280004F1FF344FF0010A4FF0000A00260C2363
:1055380003FB069B0193DBF80830009319462246CB
:105548004046FCF7C3FA019B00282FD1BAF1000F9F
:1055580019D0162E0BD11F4B2B601F48FEF720FECB
:1055680000991E4803B0BDE8F04FFEF797BE172E0E
:1055780001D16B68F0E79BF800305A1E0123934075
:105588001F432F60E9E7162E03D1C5F800A0144881
:10559800E4E7172E17BF9BF800306F6003F1FF3266
:1055A80001231EBF93409F432F60F0E70136182E5A
:1055B800BED10C4803B0BDE8F04F7DE5A43D002006
:1055C800A8D90308B9D90308B2D90308BED9030872
:1055D800C3D90308FFFF3F00CED90308BAD903088F
:1055E800D7D90308F8D803085C7F03082DE9F84FDA
:1055F80005462EF0E7FA334F0446D7F80090C0B9B5
:105608003148324D324FFEF7CBFD012655F82410B4
:1056180059B10B783BB106FA04F313EA090F02D02B
:105628003846FEF7BEFC0134F0E7BDE8F84FFEF758
:10563800FBBD024627492846FCF748FA78B92648B0
:10564800264C234DFEF7ACFD54F8041F0029ECD07E
:105658000B78002BF8D02846FEF7A3FCF4E72B784C
:10566800DFF868B02D2B03BF013504F1FF344FF08C
:10567800010A4FF0000A00265BF82680B8F1000FF7
:1056880003D11748BDE8F84F16E52246414628469B
:10569800FCF71CFAA0B90120B040BAF1000F0AD0FB
:1056A800FCF71AF90F48FEF77BFD41460E48BDE8A6
:1056B800F84FFEF7F3BD40EA090038600B48F2E7FF
:1056C8000136D9E7B0450020DFD903089C790308E3
:1056D800E9D90308BED90308EDD903089879030866
:1056E800F8D80308CED90308BAD90308D7D90308CC
:1056F80030B5264C264885B0FEF752FD94F8243084
:10570800032B04D8234805B0BDE83040D4E494F80E
:105718003200E26B94F83A3094F82810029094F82A
:1057280031000190208F009052081B48FEF739FC89
:1057380004F12C05313415F8010BFEF71FFDA542C5
:10574800F9D1164C1648FEF72BFD6278032A13D8B8
:10575800DFE802F0080806021248FEF721FD0BE018
:105768001148FAE71148FEF71BFD41F2B413E35C58
:10577800022B06D0032B06D005B0BDE83040FEF75B
:1057880053BD0B48E9E70B48E7E700BFDCBD002045
:10579800F9D9030803DA030812DA0308B8AB0020C2
:1057A80040DA030850DA030856DA030863DA030814
:1057B80069DA030882DA03082DE9F043B14BB248ED
:1057C8001968B24DDFF8708399B04FF47A73B1FB62
:1057D800F3F1FEF763FD08A8FCF7A8FB08A90FA8DA
:1057E800FCF798FD0FA9AA48FEF758FD11F09AFD9D
:1057F8006422B0FBF2F102FB1102A648A64B007826
:105808001B7805EB800092B2D0F86C01009089B249
:10581800A248FEF743FDA24BA2481968A24BB1FB70
:10582800F3F1FEF7BEFBA14B1E68002405F5BE7719
:1058380005F5CC790123A34033420BD057F8243027
:1058480043B118F8042059F8241053F82220984836
:10585800FEF7A7FB0134072CECD1FEF7E5FC9548D1
:10586800914CFFF729FC0BA8FDF720FE0B999248F5
:10587800B1FBF4F1FEF712FD0C999048B1FBF4F17D
:10588800FEF70CFD0D998E48B1FBF4F1FEF706FD0D
:105898000E998C48B1FBF4F1FEF700FD11F062FBA4
:1058A80005EB8000D0F8C07111F07CFB05EB80009F
:1058B800D0F8C08111F044FB05EB8000D0F8C0910E
:1058C80011F020FB044611F0D9FA064611F0F0FA5F
:1058D80005EB800005EB8606D0F8C031039305EB95
:1058E8008404D6F8C0310293D4F8C03176490193C4
:1058F8003A4643467548CDF80090FEF7CFFC0020A5
:10590800FFF7F6FE724E734B734A1C88B36B7349EC
:105918007348744FDFF824829B00C3F58063FEF759
:10592800BDFC714A714B7248A4B2D31A2146B6F82D
:10593800C020704EFEF7B2FC6F48FFF7BDFB002495
:1059480056F824103846FEF72CFB4046FEF728FC94
:105958006A4BE15C4FEA8409002974D16848FEF774
:105968001FFC6848FEF71CFC674B59F80310002918
:105978006DD16348FFF7A0FB0134042CE0D1634BE1
:1059880063481988FEF70DFB624B1A6F002A62D034
:1059980007EE902ADFED606AF8EEE77A86EEA77ADE
:1059A800FDEEC77ACDED047AD3F89021002A54D0C1
:1059B80007EE902ADFED586AF8EEE77A86EEA77AC6
:1059C800FDEEC77ACDED057A9B6A5BB107EE903A9A
:1059D800DFED516AF8EEE77A86EEA77AFDEEC77A30
:1059E80017EE903A4D4A4E4811884E4E0093049A4D
:1059F800059BDFF84C81FEF751FC4B48FEF7D0FBC6
:105A0800346824F0784424F07F0401273CBBFEF777
:105A18000BFC33685B0113D507A820F02AFB78B983
:105A2800079BB3F5AF7F9DBF404C0A2000FB0340A6
:105A380020460FA920F082FB0FA93D48FEF72EFC57
:105A480019B0BDE8F0833B48FEF7ABFA89E739485F
:105A5800FEF724FC90E70492A6E70592B4E794FACF
:105A6800A4F3B3FA83F307FA03F2062B24EA020439
:105A7800CCDD05EB83034046D3F8C411FEF791FA59
:105A8800C4E700BF187A002094DA0308B478030842
:105A9800AEDA030858430020E8440020BFDA0308C0
:105AA800D8090020E2DA030840420F000C4C00201D
:105AB800F2DA0308FADA03080FDB030821DB03082C
:105AC80033DB030845DB030857DB03085ADB03080D
