:020000040800F2
:1000000000000110E9E40208030F020811D50208FC
:10001000A5E50208A5E50208A5E502080000000024
:10002000000000000000000000000000010F0208B6
:10003000FF0E020800000000FD0E0208C59C00082B
:10004000A5E50208A5E50208A5E50208A5E5020860
:10005000A5E50208A5E502088B100008931000082A
:10006000A5E50208911000088F100008817D0208A4
:10007000717D0208617D0208517D02083D7D020804
:10008000297D0208157D0208A5E50208A5E50208FC
:10009000A5E50208A5E50208A5E502088D100008FF
:1000A000957E0208717E02084D7E0208B97E020824
:1000B0003D7E02082D7E02081D7E0208A5E502088D
:1000C000A5E50208A5E50208A5E50208A5E50208E0
:1000D000A5E50208ED7F0208E17F0208D57F02084E
:1000E00089100008A5E5020841130208D97D02081D
:1000F000B57D0208917D0208FD7D0208017D0208A0
:10010000A5E50208A5E502080D7E0208A5E502089E
:10011000C97F0208A5E50208A5E50208A5E50208D1
:10012000ED7C0208D97C0208C57C0208B17C02087B
:100130009D7C0208A5E50208A5E50208A5E50208E0
:10014000A5E50208A5E50208A5E50208750902086B
:10015000897C0208757C02085F7C0208BD7F02086A
:10016000A5E50208A5E50208A5E50208A5E502083F
:10017000A5E50208A5E50208A5E50208A5E502082F
:08018000A5E50208A5E502084F
:1001880083681A68937A0133DBB20A2B937205D914
:1001980050780349002321F810309372704700BF4C
:1001A800C243002070B54F4C237814200133B3FBB1
:1001B800F0F200FB123323704B4B5D68186D9A68A0
:1001C800A94208440CD293F85850002D00F08580BD
:1001D80000F58030824238D3C2F5803202440AE00A
:1001E8008242F9D293F85850002D0CBF00254FF4E5
:1001F8008035821A521B59606178DA600022013119
:1002080083F858201422986091FBF2F002FB101139
:100218006170A178D868013191FBF2F502FB1512E3
:10022800A27040F68C2290423CD9197893F9552057
:1002380091422BD10A1F0C2A28D893F85620182A45
:1002480006D8013283F8562004E04FF48035D0E711
:1002580083F8541093F9542091420FD193F8570022
:1002680060B1224C224D0020904211DB204800242E
:100278000F2A13DD1F48027801320270012283F829
:10028800572083F8551000221A7070BD0022D9E754
:1002980054F8046F25F810600130E5E720F81240A3
:1002A8000132E5E793F85720DAB1A0F2EF2140F2E6
:1002B800DA52914207D81A780F2A04D8111D013250
:1002C80043F82100E0E7002283F8572010469918E8
:1002D8000432402A0861FAD170BD8242BFF47CAF73
:1002E80087E770BD78190020DC310020E831002054
:1002F800C2430020A043002010B50B480378142403
:100308000133B3FBF4F204FB1233084A0370136D94
:1003180001330B4413654FF6FF73994204BF012361
:1003280082F8583010BD00BF78190020DC31002059
:10033800012070470120704770B5114C05460E46E4
:1003480000220023D4E902012DF02EFD20B10AA3DA
:10035800D3E90023C4E9022330462DF057FAD4E943
:1003680002232DF0E3FB2DF051FD04EB4504208220
:1003780070BD00BFAFF30080ABAAAAAAAA4610407E
:10038800781900200E4B98420AD0A3F5784398427A
:1003980012D003F58063984210D04FF0FF307047B9
:1003A8000023084A142101FB03231A8A013292B25E
:1003B8001A82188A80B270470123F2E70223F0E715
:1003C80000300140E0020020F8B584894FF6FF763E
:1003D8004FF47A740BB90120F8BD92B11578013247
:1003E8000789BF070FD5ADB285814FF47A740589A7
:1003F800ED0712D58589ADB209B10D700131013B08
:10040800E8E7FF25ECE7013CA4B2B442E8D1FFF7E6
:10041800B9FF003018BF0120F8BD013CA4B2B442B6
:10042800E5D1F4E708B540F2E9330289920708D527
:1004380089B2818140F2E9330289D20709D58089DE
:1004480005E0013B9BB2002BEFD1FFF79BFFC0B249
:1004580008BD013B9BB2002BEED1F6E7A0F13003BB
:10046800DAB2092A01D818467047A0F16103052BB2
:1004780001D857387047A0F14103052B94BF37388E
:100488004FF0FF307047F0B50124B0FBF4F58D4212
:1004980003D200271CB91C70F0BD4C43F5E7B0FB34
:1004A800F4F604FB1600B4FBF1F41FB9002E01DCCE
:1004B800002CEFD1092E03F1010E08DD002A14BF2C
:1004C8003725572535441D7001377346E2E7302537
:1004D800F8E703685A1C02601970704703685A1CD1
:1004E8000260197070472DE9F84F002B14BF4FF0C8
:1004F80030094FF020090A9B141E07468846BABFE8
:1005080064424FF0010B4FF0000B13F8012B02B1BE
:10051800DCB9BBF1000F1ED1254615F1FF3516D207
:1005280023462C460A9D5E1B05EB060A15F8011B9F
:1005380099B9BBF1000F05D02546002D10DC002C21
:10054800A8BFA2445046BDE8F88F013CDDE7494604
:100558003846C047E1E70023E4E73846C047E3E709
:1005680049463846C047013DE7E7D0ED006AD0ED7F
:10057800057AE6EE807AB0EE407AB0EE670AD0ED02
:10058800037AD0ED016A67EEC07AE7EE267AD0EDFD
:10059800066A77EEA67AD0ED026AC0ED057AD0ED4C
:1005A800047A67EEC07AE7EE267AC0ED067A7047DD
:1005B800704743230B800148704700BF00000020AC
:1005C80010B5064C606CFF2806D005490A6B34311B
:1005D8001FF066FEFF236364002010BD00000020AA
:1005E8007819002008B5D0F8E4355B6A98470020F0
:1005F80008BD08B5D0F8E4351B6A9847002008BD47
:10060800D0F8E43510B504461B689847D4F8E835A7
:100618009B689847002010BD08B5D0F8E435DB6921
:1006280003B19847002008BD08B590F8123180F84A
:100638001331042380F81231D0F8E835DB68984785
:10064800002008BD10B5D0F8E83504461B69984766
:10065800032384F81231002010BD70B54B784C6923
:10066800012B27D182691568136914B964F306034D
:1006780005E08E68B442F9D94E6166F3060343F487
:1006880000231361C478012C05D10B780E6900EBA7
:1006980083039B695E6145F00445156044B94B6965
:1006A80033B102690978506B01238B4003435363CC
:1006B800002070BD0B788E6800EB83035A6D1568B7
:1006C80013696CB966F3060343F400231361C37816
:1006D800012B04BF0B69536145F004451560E7E73A
:1006E8004E61EFE72DE9F0414A780C784B69012A11
:1006F80051D100EB840EDEF818703D683E6963F353
:1007080012061BBB62F3DC463E61C278012A2CD17B
:100718000C697C61CC78012C07D100698068C00520
:1007280054BF45F0005545F0805545F00445012C6F
:100738003D6008D13AB99BB20333C968DEF8D000EE
:100748009B10934222D10020BDE8F081D1F808C067
:1007580003EB0C02013AB2FBFCF262F3DC46CA7806
:10076800012A08BF62F35E76CEE7CE78012ED1D09B
:10077800002BCFD0D0F810C00126DCF8348006FA60
:1007880004F444EA0804CCF83440C3E751F82240A2
:1007980004600132D5E700EB84048A68646D25683B
:1007A8002669ABB962F31206012363F3DC462661BE
:1007B800C378012B04BF0B696361CB78012B03D18C
:1007C8004B79A3B145F0005545F004452560BAE7DB
:1007D8001344013BB3FBF2F363F3DC46C3F30903B1
:1007E800534363F31206C3F312034B61DFE745F08B
:1007F8008055E9E770B501F07F05282404FB050161
:1008080004FB05040126C4F82821C4F82C21002281
:1008180001F58E7184F81D6184F81C51C4F83421E7
:10082800C4F830311DB9FFF718FF002070BDFFF77D
:1008380059FFFAE71F4BDA6B0F2A70B502F1010175
:100848001E4602D0D963002070BD1B4C0023F36301
:100858002378002BF7D1194D2A68B2F5006F08BF2D
:100868002B60174B29681B68994202D1002323701B
:10087800E9E78CBFC1F500635B1A3364336C402B26
:100888008AB20CD9403B403133640123237029607C
:1008980040230C490A448121FFF7ACFFD3E71944F0
:1008A80029604FF0000131640EBF022101219BB283
:1008B8002170EEE7781900207C6A0020F86000209B
:1008C800806A0020846A002070B5174D2B78012BB0
:1008D8002C4603D1154E336C5BB92B702378022B51
:1008E80016D100231A468121FFF784FF00232370C5
:1008F8000EE00F490C68402BA2B20BD9403B4034A4
:1009080033640C6040230B490A448121FFF772FFCE
:10091800002070BD1C440C604FF0000131640ABF18
:1009280002219BB22970EEE77C6A0020781900202A
:10093800F8600020846A002010B504461346C4F805
:100948003C21C4F83821022280F811210A460021EE
:10095800FFF750FF002010BD70B501F07F04282676
:1009680006FB040506FB0401C5F88833002385F857
:100978007443C5F88023C5F88C3385F87533C3787C
:1009880006FB0404012B08BFC5F8842394F87433CC
:1009980001F55D711BB9FFF760FE002070BDFFF720
:1009A800A1FEFAE738B5282303FB0101074DB1F88A
:1009B8008C130446284621F07DFE40232A46012157
:1009C8002046FFF7C9FF002038BD00BFBC19002032
:1009D80030B54A780B780025012A2C4610D100EB57
:1009E800830102FA03F3896963F30F0402696FF361
:1009F800CF350D60D36923EA0403D361002030BDED
:100A080000EB8302516D012202FA03F363F31F44E2
:100A1800ECE770B504460125002680F8445180F8BB
:100A2800455100F5A271FFF7D3FF04F5677184F80B
:100A38009C5384F89D632046FFF7CAFF022384F87D
:100A48006C3104F5B67184F86D512046FFF7C0FF8C
:100A58001FF05EFC304670BD30B54C780B78012C29
:100A68004FF000021DD100EB830504FA03F3AD69D2
:100A780063F30F022B681C040DD48C6864F30A031B
:100A8800CC78C98864F3934361F3995343F0805356
:100A980043F400432B600369D9690A43DA610020F3
:100AA80030BD00EB8304656D012404FA03F363F39E
:100AB8001F42DFE72DE9F041044601250227002601
:100AC8004FF0400880F8445180F84551C0F84C81F7
:100AD80080F84771A0F84A5180F8486100F5A27182
:100AE800FFF7BAFF04F5677184F89C5384F89D6397
:100AF800C4F8A48384F89F7384F8A0632046FFF7A2
:100B0800ABFF0823C4F87431032304F5B67184F8E5
:100B18006F3184F86C7184F86D51A4F872712046B5
:100B2800FFF79AFF064B1F715E711FF0F7FB4346F4
:100B3800044A29462046FFF70FFF3046BDE8F081FA
:100B480054050020BC190020F8B5044600254027AC
:100B5800012680F8745380F87553C0F87C7380F8C8
:100B6800775300F55D71FFF777FF04F58E7184F810
:100B78001C5184F81D61C4F8247184F81F51A4F82D
:100B880022512046FFF768FFD4F8E83584F812614F
:100B9800A0785B6898472846F8BD0E4BDA68D20300
:100BA80010D4DA68D1060FD4DA68D2050ED4DA6820
:100BB80012F0E00F0CD1DB6813F0020F14BF08200D
:100BC80009207047012070470620704702207047AF
:100BD80007207047003C024007B509238DF807300D
:100BE800FFF7DBFF8DF807009DF80730012BF7D0E2
:100BF8009DF8070003B05DF804FB38B582681468F7
:100C0800A27803463AB90123A370A1801146BDE832
:100C1800384022F0BBB9A08889B2814238BF5A68EF
:100C2800E1803DBF1268D26A121A091A38BF8918C2
:100C38002181064A6178208922F811000025A570D3
:100C48000121184622F0A2F9A57238BDC24300203E
:100C5800094B07EE901A53F82030B8EEE77A93ED77
:100C6800040AD3ED057A10B5A7EE270ADC682EF042
:100C7800C5F9206010BD00BF143F0020F0B5094E33
:100C880034683F2C0DDC0FC8074F4FEA041E0EEBEB
:100C9800070585E80F00054B1B684EF8073001343F
:100CA8003460F0BDB8310020B82D002084720020D7
:100CB8002DE9F0410B4DDFF830802C686A69012777
:100CC80014400CB9BDE8F081B4FA84F3C3F11F03F2
:100CD80007FA03F658F823000368984724EA06043D
:100CE8006E61EEE7003C01405CAA002070B50A780E
:100CF80012F0600406460D462AD0202C2FD1CC884D
:100D08004B78FCB112060CD522461E4918461FF036
:100D1800C7FAEA881B493046FFF70EFE0024204632
:100D280070BD194AC0F894435364184AC0F89043F8
:100D38000323146380F81131343223460021FFF76E
:100D48000BFEEBE70222114418461FF0A9FAE6E76A
:100D58004B780A2B07D00B2B0AD0062BDFD121F0BA
:100D680061FD0224DBE701220949FFF7E5FDD6E72B
:100D78008B781BB9054AC2F88430CFE721F052FDC1
:100D8800CDE700BFAC190020000000207819002032
:100D9800FC19002003681B6818470368DB692DE904
:100DA800F04105460E4617468BB90C463B1B3344AB
:100DB800002B01DCBDE8F081284609F063F8002823
:100DC800FAD014F8011B2846FFF7E4FFEEE7BDE868
:100DD800F0411847014B1868DCE700BF7CA30020EE
:100DE80038B505460C4614F8011B01B938BD28462C
:100DF800FFF7D0FFF7E70C4B1B681B0110B407D5B2
:100E08000A4B1B685B050BD55DF8044BFFF794BADA
:100E1800074B53F820301BB107289CBFDB681960CB
:100E28005DF8044B704700BF404A0020444A002048
:100E3800183300201FB5ADF80A30BDF81830ADF8EA
:100E4800040041F48041ADF80C306846BDF81C3010
:100E5800ADF80610ADF80820ADF80E30FFF70EFF1C
:100E680005B05DF804FB1FB5ADF804006846ADF8A1
:100E78000610FFF703FF05B05DF804FB064B53F8B7
:100E880020303BB19A881B6859690A4201D05A83BD
:100E980070471A83704700BFAC15030810B50409E2
:100EA800013C042C00F00F0215D80C4B33F8141039
:100EB80041FA02F313F001000ED0012090400138EE
:100EC80008402DF089F9064B1B5D1844054B0C2290
:100ED80002FB003010BD002010BD00BFA0150308A4
:100EE80024120308F829002010B1036882885A8365
:100EF800704710B1036882881A83704770B5164628
:100F080090F90C20142353430C4AD55883689A0748
:100F1800044602D40069FFF7E7FF2846FFF782FA84
:100F28000123002231462846FFF74EFAA3689B07A3
:100F380002D42069FFF7DDFF012070BDE002002028
:100F4800F8B5164690F90C201F46142353430D4A52
:100F5800D55883689A07044602D40069FFF7C4FF8E
:100F68002846FFF75FFA3B46002231462846FFF73E
:100F78002BFAA3689B0702D42069FFF7BAFF012068
:100F8800F8BD00BFE0020020F8B5164690F90C2025
:100F98001F46142353430D4AD55883689A070446BD
:100FA80002D40069FFF7A0FF2846FFF73BFA3B464B
:100FB800324600212846FFF707FAA3689B0702D4A8
:100FC8002069FFF796FF0120F8BD00BFE00200206E
:100FD800F8B5164690F90C2014235343104AD558F7
:100FE80083689A0704460F4606D40069FFF77CFF1A
:100FF8000120002108F046FE39462846FFF712FA7C
:1010080031462846FFF70EFAA3689B0706D401204D
:10101800002108F037FE2069FFF76BFF0120F8BDBB
:10102800E002002028B10368828809B11A8370475A
:101038005A837047024B81F0010153F82000F1E711
:10104800AC15030830B1036882881B691A4214BFC3
:1010580001200020704728B18088B0FA80F0C0F1E4
:101068001F0070474FF0FF30704730B1006800F143
:101078003F4000F57E00800A70474FF0FF30704710
:1010880016E615E614E613E612E611E637B5044649
:101098008B6821600D46984701232373FF220023A4
:1010A800A3736273E3732B6B13B120469847E07305
:1010B8000B4B93F888301BB1E37B23F00103E373F8
:1010C80023685B6B4BB1214601A8984728B1BDF84E
:1010D8000630013B238203B030BDFF23FAE700BF8F
:1010E800781900202DE9F3410446184616460D46A6
:1010F8001F462CF031FA2368E67228440022A072B9
:101108000092D3F8148032463B4629462046C04711
:1011180002B0BDE8F081036810B504465B689847E3
:10112800236820469B689847A37B013BA37310BDA7
:10113800036810B504461B689847236820469B68D7
:101148009847A37B0133A37310BD036810B59B6850
:101158000446984701232373FF23637310BD038953
:101168009B0752BF01200089C0F3C0107047F8B533
:101178000679012E0546964609D0022E1FD18368AE
:10118800DB0758BF41F08001BDE8F840B6E60D4BDB
:1011980090F90C00182404FB003463786BB16B7B66
:1011A800A1725B0023720023637223750223A3706C
:1011B800E66022611AF045F8237D1846F8BD002341
:1011C800FBE700BFDCAA00202DE9F0410479012CDF
:1011D80005468E461F4609D0022C20D18468E407B4
:1011E80058BF41F08001BDE8F041A9E60D4B90F9E8
:1011F8000C00182404FB003463786BB16B7BA1727C
:101208005B0023720023637223750223A370E760D7
:1012180022611AF016F8237D1846BDE8F0810023F4
:10122800FAE700BFDCAA002073B50379012B0D464D
:1012380016460AD0022B25D18368DB0758BF01F078
:101248007F01FFF7C5FE02B070BD90F90C10427B1C
:101258000D488DF80760182404FB01046078002805
:10126800F1D06372E3600DF107032361002352009C
:101278002375022308462272A572A37019F0E1FFB4
:10128800207DE0E70020DEE7DCAA00200A4B70B5ED
:101298000E46D3F88C50811C89000446F2B201F046
:1012A800FC012846FFF7C0FFA1000931320A284691
:1012B800C9B2BDE87040B7E7781900202DE9F041C0
:1012C8000E4E8046002406F18007E0B200F00303CA
:1012D80043450ED136F8145037F81430EB1A002B6A
:1012E800B8BF5B42052B04DD2946FFF7CFFF27F87F
:1012F80014500134102CE8D1BDE8F0818819002081
:1013080038B50F4D1022002141F2D774B4FBF0F428
:10131800D5F88C00FFF788FF012008F0C4FC621E96
:10132800D2B2FE21D5F88C00FFF77EFF012008F02D
:10133800BAFCD5F88C0080220021BDE8384073E75C
:10134800781900202DE9F0410679012E05469646C8
:101358009C4609D0022E21D18468E40758BF41F089
:101368008001BDE8F0410FE60D4B90F90C00182400
:1013780004FB0034637873B16B7BA1725B0023724A
:10138800002323750223A3706672C4F80CC022617F
:1013980019F057FF237D1846BDE8F0810023FAE7CE
:1013A800DCAA0020F8B51F4690F90C30044614203A
:1013B80058430C4B1D58A36816469A0703D4206956
:1013C800FFF792FD00BF3B4632462846FEF7FCFF7A
:1013D800A3689B0703D400BF2069FFF78AFD01209B
:1013E800F8BD00BFE002002073B50279022A22D1BD
:1013F80003238DF8033090F90C001F4C8DF8022060
:1014080004238DF804301423434302A80844E35806
:101418001A49002601258DF800608DF801508B428D
:1014280010F8080C09D0A1F578418B421FD001F5BE
:1014380080618B421DD002B070BD31461A8822F0FF
:1014480040021204120C14251A8005FB01411A8867
:10145800C96822F0380231F810101204120C0A433D
:101468001A801A8892B242F040021A80E3E72946AD
:10147800E4E71146E2E700BFE00200200030014047
:1014880010B5427A044632B1036800F10A01406897
:1014980098470023637210BD124B53F8200070B5B3
:1014A800F8B1114A062303FB002393F90140621C9B
:1014B80016D01879A8B10D4A0D4E155DDA78642159
:1014C8001423002061438C18013B36F814402A4449
:1014D80010FA84F0F7D11423B0FBF3F080B270BD9A
:1014E800002070BDC8420020053400202C370020A1
:1014F8002434002038B503200D461446FFF7CCFFEE
:1015080007EE900AB8EE677ADFED0A7A27EE277AB7
:101518005DB1F8EE047AF0EE006AE7EE267A9FED08
:10152800067A67EE877AC5ED007A0CB1034B236023
:1015380038BD00BF6740533A00007A4433139043E4
:1015480030B5094B0949C0B28B4200D330BD5A8827
:10155800140406D55D68DC68C2F30B0200FB025276
:1015680022601433F0E700BF38930308A8960308F5
:1015780070B5448806460D46C4F30B040021224684
:1015880028462FF0C9FD3169084B994208D3084B0A
:10159800994205D222462846BDE870402FF097BDF3
:1015A80019B12846BDE87040084770BDA8960308E1
:1015B800229903084388426813F4004F1EBFC9B23A
:1015C800C3F30B0301FB03221146D1E7064B07497E
:1015D8008B4202D30023184670471A88C2F30B02C5
:1015E8009042F8D01433F3E738930308A896030819
:1015F800024A136823EA000010607047B8460020CA
:10160800F8B50468C4F30D0405460E4604B32F6804
:10161800FFF7E2FA092840F08880454C236923F453
:1016280040732361236943F400732361236943F002
:10163800010323613E60FFF7CFFA2369092823F0ED
:101648000103236171D12B6804332B600020F8BD9E
:10165800384B394A93422BD902F58042934226D916
:1016680002F5804293422AD902F58042934228D952
:1016780002F58032934226D902F50032934224D9EA
:1016880002F50032934222D902F50032934220D962
:1016980002F5003293421ED902F5802293421CD9EA
:1016A800B3F1016F1BD3052008F032FBFBE70824D8
:1016B800FFF792FA092814D04FF0FF30F8BD102434
:1016C800F6E71824F4E72024F2E72824F0E730248A
:1016D800EEE73824ECE74024EAE74824E8E7582412
:1016E800E6E7134F3B6923F440733B613B6943F4DE
:1016F80000733B613B6923F0F8033B613B6943F0AE
:1017080002031C433C613B6943F480333B61FFF7B0
:1017180063FA3B6923F002033B613B69092823F024
:10172800F8033B613FF473AFC6E76FF00100F8BD03
:10173800003C024000000E08FF3F0008F8B50446D0
:101748000D468E180027B54201D12069F8BDE3681F
:10175800591CE160234415F8012B1A720429F2D1AF
:10176800206918B9A1682046FFF74AFF2061E760A1
:10177800E9E738B58D180C46AC4200D138BD14F8ED
:10178800011B28F04BFFF7E770B501221049114CF7
:10179800114E0020FFF7EDFF22884AB1A518B54287
:1017A80013D2052A11D92146FFF7E3FF2C46F3E7A8
:1017B80021460222FFF7DDFF6388084AC31AA41AEC
:1017C800074A58421480584170BD002070BD00BFC0
:1017D80000000E0801000E0800001008FCFF0D08AC
:1017E800EC29002030B502440446944201D100207F
:1017F80011E014F8013B11F8015BA3F1410019282D
:10180800A5F1410098BF2033192898BF2035581BEF
:1018180001D1002DE9D130BD70B5034610F8012B78
:10182800202AFAD0092AF8D02D2A0ABF0346012512
:101838004FF0FF35591E00240A2611F8010FFEF754
:101848000DFE0A2802D905FB04F070BD06FB04044E
:10185800F3E730B50278202A034600F10100F9D0F9
:10186800092AF7D02D2A47D10346BFEE000A9FED7B
:101878003A7A1A46F2EE046A134612F8010BA0F1FE
:101888003001CCB2092C3DD92E280BD1F2EE046AD6
:101898001146B0EE666A0B4611F8012B303AD0B209
:1018A800092838D91A7802F0DF02452A4FD15A7828
:1018B8002D2A3BD102330120013B00220A2513F8CF
:1018C800011F3039CCB2092C36D9B2F59A7F28BF1E
:1018D8004FF49A72DFED216A1346F7EE007A072B70
:1018E8002DD802F00702F2EE046A62BB88B3C7EE95
:1018F800276A20EE260A30BD2B2A08BF0346B7EE1A
:10190800000AB4E707EE901AF8EEE77AE7EE267ACF
:10191800B0EE677AB0E707EE902AF8EEE77AC7EEFE
:10192800A65A66EE866A37EE257AB4E72B2A14BFE4
:10193800013302330020BFE705FB0212BFE767EE61
:10194800A67A083BCBE767EEA67A013ACDE7F7EE31
:10195800007A67EE276ACCE70000000020BCBE4C86
:10196800B5EEC00ADFED2D7AF1EE10FACCBF30EEFD
:10197800270A30EE670ADFED2A7A20EE270A30B50B
:10198800FDEEC07A87B017EE904A054684EAE47007
:10199800002303A9A0EBE47000930193029321F0C4
:1019A800A5FA002CACBF20232D2303A88DF8003006
:1019B8002BF0D2FD012822D130238DF801308DF88B
:1019C80002308DF8033003A968462FF0ADFB684656
:1019D8002BF0C2FD0338C4B22246694628462FF0D0
:1019E800DAFB00232B550F4928462FF09DFB0DEB02
:1019F800040128462FF098FB284607B030BD02287E
:101A080005D130238DF801308DF80230DBE703284B
:101A180004BF30238DF80130D5E700BF6F12033AB9
:101A280000007A441B78030870B506461546084638
:101A3800B6FBF2F414B12046FFF7F6FF05FB146479
:101A4800024B1B5D00F8013B70BD00BF1464030826
:101A5800084BD3E9002352EA030108D00649096874
:101A6800521843F10003C0E9002301207047002009
:101A7800704700BF785F002084720020F0B5264EC2
:101A880004460F460FCE8DB06D460FC50FCE0FC55D
:101A980096E80F0085E80F0014F0030335D16421A0
:101AA80094FBF1F201FB124242B94FF4C87294FB65
:101AB800F2F302FB1343003318BF0123C3F11D03E4
:101AC80040F26D1201930420631E93FBF0F002FBB9
:101AD80004046FF0630093FBF0F020444FF4C874E3
:101AE80093FBF4F31844063000220721013F5DF808
:101AF80022309742184490FBF1F4C4EBC404A0EBE5
:101B0800040004D1181A0DB0F0BD0123D6E7013244
:101B18000C2AECD10020F6E72C120308F8B514467D
:101B28001D4606464FF47A720023204629462CF0BB
:101B3800EBFA2C4B3C22034493FBF2F002FB1031EE
:101B4800B17190FBF2F102FB1102182072714FF48F
:101B5800616293FBF2F292FBF0F100FB1122327109
:101B68002149224A93FBF2F293FBF1F3980040F2E9
:101B7800B55392FBF3F103FB1123B3F5896F2DDA0B
:101B880040F2DA2293422BDCB3F5B77FB4BF0022D0
:101B980001221749182707FB02170B2137F811E014
:101BA800734501DA0139F9D100F5FA601044308043
:101BB800481CB0700C2000FB02120E4901EB4202D7
:101BC800013392F838209B1AF3704FF47A7200238D
:101BD800204629462CF098FA3281F8BD0322D8E72E
:101BE8000222D6E780BC92C7801F86078051010079
:101BF8005C1203082412030837B504466846FFF749
:101C080027FF054638B1DDE900232046FFF786FFA8
:101C1800284603B030BD01232080A370E3702071F3
:101C28006071A0712081F3E737B50546FFF7E4FF3F
:101C3800044640B1054B02AA1B8822F8023D2946FA
:101C4800284620F05CFE204603B030BDD48A002030
:101C580010B50288C378A2F5FA62591E40F2B5544D
:101C6800930804FB031381780C24013902F0030262
:101C780004FB02120C49847901EB42021821128FED
:101C88001344027901FB0323427900893C2101FBBB
:101C98000323064A224401FB03234FF47A720021EE
:101CA800C2FB030110BD00BF2412030880436D3836
:101CB8000B684A689A4206D05A1C0A601B7800B121
:101CC8000370012070470020704710B50268114664
:101CD800531C036011F8024B0160D31C5178036058
:101CE80093781B0443EA0123111D0160D078234334
:101CF80043EA006010BD03685A1C02601A4612F8D5
:101D0800021B0260587841EA0020704791E80C00F5
:101D18009B1A012B10B5044606DD0846FFF7EBFFBA
:101D280004B12080012010BD002010BD03685A1C9A
:101D380002601878704738B5044609C81B1A9A42D9
:101D4800154606DC2FF0C3F922682A4422600120D8
:101D580038BD002038BD38B50446006815462FF058
:101D6800B6F922682A44226038BD03685A1C02600A
:101D7800197003685A1C02600A0A1A7003685A1C10
:101D880002600A0C1A700368090E5A1C0260197066
:101D9800704703685A1C026019700368090A5A1CC4
:101DA8000260197070472DE9F04F89B082468B4662
:101DB80016461C4600270DF114083178002934D046
:101DC800252904D050460136D8470137F5E7717800
:101DD8002D2905BFB178F51CB51C012618BF0026B2
:101DE800302906BF2978012300230293A1F130038B
:101DF80008BF0135092B4FF0000907D80846FEF740
:101E08002DFB0A2815D90EB1C9F100096C2940F03B
:101E18008B802A78642A05F1010600F0BC801BD863
:101E2800252A62D00BD8002AC7D1384609B0BDE8A8
:101E3800F08F0A2303FB090915F8011BDEE7582A6E
:101E48001BD0632AB9D1354621785046D847261D7C
:101E5800013734462E46B0E7732A3AD008D8662AA6
:101E680049D06E2AA9D13546236804341F60F1E7AA
:101E7800752A00F08B80782A9FD1A2F1580042423F
:101E880004F10405434642411021206807E02D2350
:101E98008DF8143040420DF1150300220A21FEF797
:101EA800F2FA2C46CDF80080029B4A465946504625
:101EB800FEF719FB074480E72D238DF814304042C4
:101EC8000DF1150300220A21FEF7DDFA2E46039CC8
:101ED800E8E73546236800934A46002359465046AA
:101EE800FEF701FB261D0744B3E73546252150467A
:101EF800D8470137AEE73546073424F00703D3E95E
:101F0800000103F108042BF0A1FF00EE100A40467F
:101F1800FFF726FDCDF80080029B4A4659465046F9
:101F2800FEF7E1FA074495E764293CD00BD8252948
:101F3800DCD003D800293FF478AF8BE758290FD0BD
:101F4800632981D086E77329C4D004D86629D3D001
:101F58006E2989D07EE775290FD078297FF47AAF6A
:101F680058394A4204F104064A4120684346102180
:101F78003446FEF788FA2E4694E7231D0393002281
:101F880043460A212068FEF77EFA9FE7251D43464F
:101F980000220A2179E72068002804F10405FFF6E9
:101FA80076AF434679E72068231D0028039383DB37
:101FB800434687E70EB40FB505AB019053F8042BE1
:101FC8000649039301A8FFF7EEFE019B00221A7051
:101FD80004B05DF804EB03B0704700BFE5040008E7
:101FE8000FB437B50B490C48096800680B4D06ABB0
:101FF80053F8042B0193FFF7D6FE0446286807F030
:1020080038FF0028FAD0204603B0BDE8304004B0BD
:10201800704700BFBC310020C03100207CA30020E5
:102028002DE9F04F00F1100E85B007460546002651
:1020380000F14009B0462B46BC4616E0F4EC016AB4
:102048001AED047AD3ED007AE6EEC77AC3ED007A8A
:10205800AC420AF1100AF1D108F10108B8F1040FF5
:102068000CF1040C03F1040303D0AEF11004E246B2
:10207800EEE74FEA860B73464B451ED003EB0B0A7F
:10208800B8469C4609E0FCEC016A18ED047AD4EDE8
:10209800047AE6EEC77AC4ED047AD44508F110084C
:1020A800F1D1D4ED046A95ED007AC6EE877A103343
:1020B80017EE90CA44F810CFDEE70136042E05F17A
:1020C80014050EF1100E07F10407B3D10024009493
:1020D80001940294039402F1100C074606466C46DC
:1020E80052F8045B2560EE463546BD4228D162456C
:1020F80004F1040406F1100605F11407F0D104AE4A
:1021080000F13C050A4656F8044D42F80C4F2C469F
:102118000434A34202F10402D1ED037A1BD12A460A
:10212800D2ED006A87EEA67A103B8342A5F114052A
:10213800A1F1040181ED047AE4D105B0BDE8F08F86
:10214800BEEC017AD4ED007AF5EC016AE6EEC77AC6
:10215800C4ED007AC9E7D4ED006A92ED007AE6EEA4
:10216800C77AC1ED037AD3E71FB50C460246694624
:102178001030FFF755FFDDED007AB6EE007A67EE16
:10218800877AC4ED007ADDED017A67EE877AC4EDCF
:10219800017ADDED027A67EE877AC4ED027A04B03F
:1021A80010BDD1ED007A90ED066AD0ED095AB8EE6F
:1021B800E77AD0ED047AE7EE077AB7EE005AC0ED79
:1021C800047AD1ED017AF8EEE76AD0ED057AE7EE08
:1021D800267AC0ED057AD1ED027AF8EEE77AA7EE15
:1021E800276A80ED066A90ED076A36EE076A80ED89
:1021F800076A90ED086AA7EE266A80ED086A26EE5F
:10220800A66A75EE865AA7EE076AC0ED095AD0EDA0
:102218000A5AE6EEA75AA7EEA76AC0ED0A5AD0ED09
:102228000B5A75EEA65AC0ED0B5AD0ED0C5AE7EED4
:10223800275AC0ED0C5AD0ED0D5AE6EEA75AC0ED5C
:102248000D5AD0ED0E5AE7EEA75AC0ED0E5AD0ED52
:102258000F5A75EEA75AC0ED0F5AD0ED105A75EE09
:10226800875AC0ED105AD0ED115A75EEA65AC0ED36
:10227800115AD0ED125A75EEA75AC0ED125AD0ED88
:10228800135A75EE855AC0ED135AD0ED005AE7EE91
:10229800065A90ED017AC0ED005AA6EE867A80EDD6
:1022A800017A90ED027AA7EE867AD0ED037A80ED76
:1022B800027A37EE866A80ED036A704700F14001C2
:1022C800034600221A615A619A61DA6110338B421F
:1022D80040F8042BF6D1704780EAE073A3EBE07373
:1022E8008B4206DB002801DD401A704702D0084403
:1022F80070470020704744F25063984203DDA0F510
:102308000C40A0387047034B9842BCBF00F50C4006
:10231800A0307047B0B9FFFFF0EEE06AB0EEC07AC7
:10232800F4EEC76AF1EE10FAD4BFB0EE476AB0EE29
:10233800666AB5EE406AF1EE10FA48D0F4EEC76A64
:10234800F1EE10FA54BFF0EE475AF0EE665AC5EEB9
:10235800867A9FED206ADFED205A9FED205AE7EE3E
:10236800865A9FED1F6AA7EEA56ADFED1E5AE7EEB3
:10237800865A9FED1D6AA7EEA56ADFED1C5AA7EEE7
:10238800A55AF7EE005AE7EE855AB1EE466AC6EE50
:10239800257AF4EEC76AF1EE10FA48BF9FED147A79
:1023A800F5EEC00A48BF77EE677AF1EE10FA48BF3B
:1023B8009FED107AB5EEC00A48BF77EE677AF1EE66
:1023C80010FA48BFF1EE677AB0EE670A7047DFEDA2
:1023D8000A7ABEE739094E3DE3B59EBE69A2163EAC
:1023E80088FA16BE45FE7FBFA7DFA8B499FB243F35
:1023F800DB0FC93FDB0F494000000000FDEEC07A4B
:1024080017EE903A2033402B43D8DFED237A9FED27
:10241800237AB4EEE70AF1EE10FA28DCDFED207A31
:102428009FED1E7AB4EEE70AF1EE10FA22D4DFED42
:102438001D7AB4EEE70AF1EE10FA1EDD30EE670AF7
:1024480037EEC00A60EE007ADFED176A9FED177A63
:10245800A7EEA67ADFED166AE7EE876A9FED157A92
:10246800A7EEA67A20EE276AA6EE070A704730EE96
:10247800470ACEE730EE070AD4E79FED0F7AB4EEAD
:10248800C70AF1EE10FA44BF30EE270A37EE400AC9
:10249800D8E79FED0A0A7047DB0F4940DB0FC940B8
:1024A800DB0F49C0DB0FC93F9A7C2E36FAAF4FB914
:1024B8003587083CA4AA2ABEDB0FC9BF000000006C
:1024C800DFED027A30EE270A98E700BFDB0FC93F3D
:1024D80091ED005A08B5B0EE450AFFF7F1FFF0EEAE
:1024E800405AB0EE450AFFF789FFD1ED014AB0EE38
:1024F800405AB0EE640AFFF7E3FFB0EE404AB0EE90
:10250800640AFFF77BFF91ED023AF0EE403AB0EE35
:10251800430AFFF7D5FFF0EE404AB0EE430AFFF753
:102528006DFF25EEA46A65EE806A65EE247A64EE96
:10253800244A25EE007AC0ED004AF0EE664AE3EE42
:10254800A74AB0EE463AC0ED034AF1EE634AA4EE5C
:10255800873AE3EEA67AA4EE867A24EE400A25EEC0
:10256800445A65EE845A80ED010AC0ED023A80EDC6
:10257800043A80ED055A80ED067AC0ED077AC0ED81
:10258800085A08BD38B5334CB4FBF2F4A142F0EE5A
:10259800404A1D46F7EE005A4FF0000453D207EEAA
:1025A800901A9FED2D7ADFED2D6AF8EE677A67EEC7
:1025B800877A07EE102AB8EE477A27EE267AC5EE14
:1025C800876A87EEA63AB0EE430AFFF717FFF0EEE8
:1025D800402AB0EE430AFFF773FF74EEA44AF8EE00
:1025E800006A82EEA47AF5B1012D25D077EE257A1E
:1025F80020EE260A85EE276A75EEC75A80ED006A36
:1026080084EE276AC0EE276A80ED016A85EEA77A14
:1026180083EEA76AC0ED036A80ED026A80ED047A52
:102628008461446138BD35EEC04AB6EE005A24EEE6
:10263800055AF0EE453AD9E720EE264AF0EE653A1B
:10264800B0EE655AD2E7C0ED005A44608460C460B9
:102658000461E5E720A10700DB0FC940BD378635D7
:1026680000239FED010A8DE7F304353F30B507EEEF
:10267800902A2DED028BB8EE670A07EE903AF8EE35
:10268800677A83B080EE270A0D46044601922CF043
:10269800ABFC30EE008AB0EE000AF0EE480A2CF0EF
:1026A80021FE2CF0B3FFF0EE480AF0EE408AB0EEBF
:1026B800000A2CF017FEF7EE007A30EE670A01994F
:1026C80088EE800A01232A46204603B0BDEC028B1F
:1026D800BDE8304056E7D0ED017AF5EE407AF1EEEC
:1026E80010FA09D1DFED0E7A60EEA70AB7EE007A8C
:1026F800C7EE207AC0ED017A90ED017AD0ED007A2C
:1027080080ED021A31EE077A30EE670AC1EE076AE9
:10271800E6EE807AB0EE670AC0ED007A704700BF37
:10272800DB0FC94090ED017AD0ED007AC0ED020AC6
:1027380030EE877A30EE670AC0EE876AE6EE807A76
:10274800B0EE670AC0ED007A70474840082310F0E1
:10275800800F4FEA400018BF80F0D500013BC0B29F
:10276800F5D1704710B50A440C46944200D110BD0B
:1027780014F8011BFFF7E9FFF7E74A09012301F005
:102788001F0103FA01F150F822300B4340F82230C0
:1027980070470EB4244B70B51B68002BA5B00646D5
:1027A80030DA224B224C19684FF47A7304A8B1FB33
:1027B800F3F203FB12131F49FFF7FCFB04AB0344BE
:1027C8000393299A1C492AAB054603A80293FFF7ED
:1027D800EAFA039B591C03910A211970039B591C9F
:1027E8000391002119700246206880B103681B6AB2
:1027F80003B1984704A92068FEF7F2FA16B12068D9
:1028080027F038FF25B0BDE8704003B070470B4B88
:102818001B68002BF6D002212A4400910A44FD20AF
:1028280004A913F0A3FDEDE7404A002084720020BC
:102838002837002039640308DB040008D031002061
:1028480038B5144B1C68033004EB9002B2F5007FD6
:1028580014D8114D1A6005EB8404104D55F8213039
:1028680020F003001844920045F82100C2F50062E8
:102878000B490020FFF78DFF204638BD094900208D
:10288800FFF787FF084A136843F0007313600024BA
:10289800F2E700BF5C290020281A002060290020E8
:1028A8004564030868640308D4AF002010B54CB22F
:1028B800002C01F07F034FF02802B5BF02FB030193
:1028C80002FB010101F58E7101F55D710122DBB298
:1028D8008A70002C4FEAD4720B704A7000EB8300A8
:1028E8000ADA82691368002B01DA43F0804343F463
:1028F80000131360002010BD426D1368F7E782B023
:10290800002301930C4A036819690191013A10D018
:1029180001990029F8DA019A42F001020192019A1C
:102928001A61054A19690191013A02D00199C9074A
:10293800F8D4002002B07047410D0300084A18235C
:1029480063F30602436D1A61C278012A06D100F2C8
:10295800CC5058611A684FF080221A60704700BF47
:102968000000086010B5042380F8113100230446E4
:102978001A461946FDF73EFF2046FFF7DFFF002005
:1029880010BD10B5044671BB90F81131032B1BD153
:10299800D0F89023D0F87C339A4217D9C17801290E
:1029A80008BFD0F88013A2EB030204BFC918C0F80F
:1029B8008013934228BF1346C0F890239BB2D0F8E7
:1029C80080230021FDF7C8FF002010BDD0F8E435B2
:1029D8001B6923B190F81221032A00D19847204699
:1029E800FFF7C0FFF0E7D0F8E4359B69002BEBD088
:1029F80090F81221032AE7D19847E5E7F0B590F857
:102A0800CF1590F8D12590F8CE3590F8D05590F89C
:102A1800CC6590F8CD7503EB012305EB022590F802
:102A2800D31590F8D22502EB0122012185B080F858
:102A3800111106F01F0192B29BB2ADB201290446F2
:102A48008DF808608DF80970ADF80A30ADF80C50B3
:102A5800ADF80E20C0F8402100F00E8105D3022900
:102A680000F01E8106F0800187E1092F64D8DFE8B5
:102A780017F0BA00F8006300CC0063005B000A009E
:102A88006300AD007A00ADF806201A0A013A062A5A
:102A980052D8DFE802F0040C295151515100D0F806
:102AA800EC351B68A0780DF1060198470AE0D0F8CC
:102AB800E43580789B6A0DF106019847022343703C
:102AC800C4F8F005BDF80620002A47D0BDF80E303E
:102AD800002B43D09A4228BF1A46ADF8062001467B
:102AE8002046FDF729FF39E0DBB2052B24D8DFE8C3
:102AF80003F003070B0F1317D0F8EC355B68D1E729
:102B0800D0F8EC359B68CDE7D0F8EC35DB68C9E741
:102B1800D0F8EC351B69C5E7D0F8EC355B69C1E73F
:102B2800D0F8EC359B69BDE735B92AB990F8121190
:102B3800032903F07F0503D120461FF073FE0DE043
:102B480063F30A12036980F8145119680A431A607A
:102B5800FFF708FF2DB1022384F81231002005B0D9
:102B6800F0BD0123F8E7D9B2894D012985F8B018DD
:102B7800E2D890F81231022B0FD0032BDCD1C1B967
:102B8800022380F81231D0F8E43580F810115B6820
:102B980098472046FFF7E6FEE0E70029F9D0012133
:102BA800032380F8101180F812312046FDF728FD24
:102BB800EFE790F810110129EBD0D0F8E4355B6805
:102BC800984795F8B01884F81011EEE7012AB3D1A8
:102BD80090F81231022B04D0032BADD100F5887187
:102BE8007EE76C497CE790F81231023B012BA3D8B1
:102BF800674B0022C3F8B828D0F8182112B1022276
:102C0800C3F8B828022264496AE7012B08D1C4F83E
:102C18001831D4F8E43502A99B6820469847B8E7EC
:102C2800022B9BD115F0FF0F98D103692D0A013DA6
:102C38005B680122042D05D8DFE805F004030D0FB9
:102C48001100022262F30613514AC2F8BC3801236C
:102C580084F816319DE70322F4E70422F2E70522FF
:102C6800F0E790F81221023A012A3FF665AF012BEE
:102C78007FF474AF0023CAE790F81231032B7FF476
:102C88005CAFEDB2012D3FF657AFD0F8E43502A99D
:102C98009B689847BDF80E30002B7FF45FAF78E74C
:102CA80006F06006202EE9B205D1D0F8E43502A975
:102CB8009B68984752E7012F11D041D3032F7FF427
:102CC8004DAF90F81221022A54D0032A7FF435AF71
:102CD800002B9ED14A069CD0FFF7E8FD99E790F8B3
:102CE8001221022A46D0032A7FF427AF002B7FF453
:102CF80035AF11F07F023FF44CAF6DB2002D4FF0AD
:102D08002803B5BF03FB020103FB010101F58E7126
:102D180001F55D7100238B700A70EB0F00EB8202E6
:102D28004B70002DB4BF9269526DC978136802398F
:102D38006FF35553012998BF43F08053136068E738
:102D480090F81231022B15D0032B7FF4F6AE15F054
:102D5800800F0F4B4FF0280214D001F07F0102FBC7
:102D6800010191F81E215AB10122C3F8C0280B496C
:102D78000222B5E64B063FF4F1AEFFF797FDEDE60C
:102D88000022F2E702FB010191F87623EBE700BF8E
:102D9800781900202C220020302200203822002020
:102DA80038B5044600295BD190F81131022B1ED1A9
:102DB800D0F83831D0F82421934226D9C178012996
:102DC80008BFD0F82811A3EB020304BF5218C0F8BB
:102DD8002821C0F83831D0F828219BB20021FDF70E
:102DE80009FD00231A4619462046FDF7B5FD94F85B
:102DF8001631012B07D1204A2369D2F8BC285A6022
:102E0800002384F81631002038BDD0F83C31B3FBDC
:102E1800F2F502FB153565B99A420AD8D0F8402177
:102E2800934206D22B462A46FDF7E4FCC4F84051EB
:102E3800D7E7D4F8E435DB682BB194F81221032ADC
:102E480001D120469847052384F8113100231A46FA
:102E580019462046FDF780FD2046FFF76FFDC6E7BF
:102E6800D0F8E4355B69002BCDD090F81221032A05
:102E7800C9D19847C7E700BF78190020104BDA6816
:102E88004378D243C2F30222C2F10401C9B28B4093
:102E98000F2141FA02F28178DBB20A401343094953
:102EA80002781B018818DBB280F80033500901232F
:102EB80002F01F0203FA02F241F82020704700BF17
:102EC80000ED00E000E100E0C27802B1D6E7037847
:102ED80001215A0903F01F0301FA03F320320249C2
:102EE80041F82230704700BF00E100E082B00023C3
:102EF800019300930B0F00900193019B21F07F41F8
:102F080053B1009B14330093009B1B68194214BFF4
:102F18000120002002B07047009B090C1833F2E72B
:102F2800838A008B9BB243EA004321F07F4018401C
:102F3800431A584258417047204A936803F00C03DB
:102F4800042B10B520D0082B20D01D4B1B4C036040
:102F5800A3681C4AC3F30313134493F84810036887
:102F6800CB404360A168C1F38221114491F8481015
:102F780023FA01F18160A168C1F342310A4492F851
:102F88004820D340C36010BD0F4BDFE75468516839
:102F980052686302C2F3881201F03F014CBF0A4B2A
:102FA800074BB3FBF1F35343044A5268C2F301429F
:102FB80001325200B3FBF2F3C8E700BF0038024009
:102FC8000024F4000000002000127A002DE9F043EC
:102FD8000D6800220126032406FA02FC3CEA0503D8
:102FE8003DD15700D0F800E004FA07F3DB430EEABE
:102FF800030EC0F800E091F804E0D0F800900EFA53
:1030080007F80EF1FF3E48EA0908BEF1010FC0F8C3
:10301800008017D8D0F808E003EA0E0383604B79E4
:10302800D0F808E0BB4043EA0E038360436823EA14
:103038000C0343608B79D0F804E093409BB243EAD9
:103048000E034360C36804FA07FE23EA0E03C36055
:10305800CB79D0F80CE0BB4043EA0E03C3600132E1
:10306800102AB9D1BDE8F083F7B50C4615460646D7
:1030780090B3FDF7FAFF194B18440F2790F8980002
:103088001FF0F2FC30463368FDF7E5FF80B200F030
:103098000702C00803EB80009200016A974021EA0A
:1030A80007010162016A9540B288009204F00302A8
:1030B8000D438DF80420C4F3810205628DF80520C4
:1030C8006946C4F300121846C4F341148DF806206B
:1030D8008DF80740FFF77AFF03B0F0BD241203080C
:1030E800F8B57B4E142505FB00650446287A1FF0C9
:1030F800BBFC2A7A02F01F0152090123032A03FAB2
:1031080001F362D0042A65D0022A03D1714A516AB8
:103118000B435362142303FB0463651C5879FDF7C2
:10312800BDFEEDB2074620B10D2383710B23C37199
:103138000572142303FB0463D879FDF7AFFE18B1B9
:103148000D238371C3710572142303FB04639879FB
:10315800FDF7A4FE20B10D2383710C23C371057202
:10316800142505FB0465AB7A6A7A002B37D04A210F
:103178003846FFF779FFE879FDF790FE6A7A2A2149
:10318800FFF772FFA879FDF789FE6A7A142505FB17
:1031980004650A21FFF768FF287928B1FDF77EFE4C
:1031A8006A7A0921FFF760FF142363434A4AF358F8
:1031B80093421ED102F58432516A41F48051516222
:1031C800516A21F48051516220E0424A116A0B434E
:1031D80013629FE73F4A11690B4313619AE70A217B
:1031E8003846FFF741FFE879FDF758FE6A7A0A2169
:1031F800C6E73A4A934232D102F50032116A41F4E5
:1032080080411162116A21F480411162142202FB8B
:103218000462927A002A56D101220220198801F408
:10322800415141F445710A4302431A809A8B22F4B2
:1032380000621204120C9A8307221A821A8892B228
:1032480042F040021A80142303FB0464207900280A
:103258003CD0FDF723FEBDE8F840FDF74ABE204A02
:10326800934209D102F5FE32116A41F4004111621C
:10327800116A21F40041C8E71A4A934209D102F5BC
:103288008232516A41F400515162516A21F400516D
:1032980099E7154A934209D102F56842516A41F407
:1032A80080115162516A21F480118CE70F4A9342D0
:1032B800ACD102F56442516A41F400115162516A7D
:1032C80021F400117FE700221046A7E7F8BD00BFF0
:1032D800E002002000380240003001400038004081
:1032E800003C0040003401400050014000540140BF
:1032F80037B50C460546E8B1FDF7B7FE0E4B184446
:1033080090F898001FF0B0FBAB88009304F003031B
:103318008DF80430C4F381038DF805306946C4F391
:10332800001328688DF80630C4F341148DF807405F
:10333800FFF74CFE03B030BD241203082DE9F74F08
:10334800BF4D98469DF83030009395F8C4380E2B41
:1033580081468B46924608D9BA490020FFF719FAE8
:103368000026304603B0BDE8F08F06F0F2FB0746B2
:103378000028F5D095F8C44899F80400621CD2B228
:1033880004EB440305F6C80606EBC30685F8C42813
:103398000192FDF783FD034628B104218171019A4A
:1033A80002720221C171009A62B399F808200221C1
:1033B8001846FFF759FE182303FB04553846C5F88D
:1033C800C8785A46514624F095FDD5F8C838D3F840
:1033D80004C09CF8063013F0040503F002001BD06B
:1033E8004FF0000A054657464FF0040950469CF82E
:1033F80005E0DCF80030BEF1030F4AD8DFE80EF034
:1034080012639DD8184611210093FFF771FF009BA6
:103418001846FDF769FDCEE707464FF4807AA946BE
:103428000120E4E71A8C22F001021204120C1A841B
:103438001A8CB3F804B0198B22F002021204384334
:10344800120C21F0730102437F480904090C8342DE
:103458001FFA8BFB41F0600103D000F580608342C6
:1034680009D14FF6F37717403D432BF4407B45EAEB
:1034780009024BEA0A0BA3F804B01983C3F8348095
:103488001A841A8B22F008021204120C42F0080265
:103498001A83DCF800306A49B3F844206FEA4242E4
:1034A8006FEA524292B2A3F844201A8892B242F0CC
:1034B80001021A801822BEF1030F00F2BA80DFE879
:1034C8000EF0AAB2B4B61A8C22F010021204120C32
:1034D8001A84198CB3F804B01A8B074322F4E64215
:1034E80021F02001584812040904120C090C8342E7
:1034F8001FFA8BFB42F4C04241EA071103D000F5E2
:10350800806083420BD121F0800747EA051525F03A
:1035180040052BF4406B45EA09114BEA8A0BA3F8E6
:1035280004B01A83C3F8388019841A8B22F4006215
:103538001204120C42F40062AAE71A8C22F4807278
:103548001204120C1A841A8CB3F804B0998B07432E
:1035580021F0730122F400723B4809041204090C9B
:10356800120C83421FFA8BFB41F0600142EA0722EA
:1035780003D000F5806083420BD122F4006747EA4C
:10358800052525F480652BF4405B45EA09224BEAC2
:103598000A1BA3F804B09983C3F83C801A849A8B59
:1035A80022F008021204120C42F008029A8370E713
:1035B8001A8C22F480521204120C1A84B3F8209048
:1035C80099889A8B29F400594FEA094938434FEAF8
:1035D800194922F4E64249EA00391B481204120C40
:1035E800834289B242F4C04203D000F5806083422E
:1035F80003D121F4804141EA8A1199809A83C3F862
:103608004080A3F820909A8B22F400621204120CD6
:1036180042F40062CAE7343302FB04140022C4F8FF
:10362800D4381A609DE63833F6E73C33F4E7403384
:10363800F2E7002302FB0414C4F8D4381B60FFDE51
:10364800781900208164030800000140F0B52DEDD1
:10365800028B234B83B0064600681C680D4617464C
:10366800F0EE408AB0EE608A24F02AFCB4FBF0F059
:10367800B0FBF5F404F57F44FF34240C0097B0FB4D
:10368800F4F40023B4FBF5F52146AAB23046FFF75F
:1036980055FE08B3B5EE408A07EE904AF1EE10FAEF
:1036A800F8EE677A08BF06EE905A9FED0E7A0ABFC9
:1036B800F8EE666A27EE888A86EE876A4FF001037D
:1036C800037218BF88EE076A27EE467A80ED056A0E
:1036D800A7EEA87A80ED047A03B0BDEC028BF0BDAA
:1036E800D807002000007A4408B5FDF7D7FB48B199
:1036F8001D2282710E22C271002202722021BDE8B1
:103708000840F5E508BD10B503681A79022A044691
:1037180002D1987AFFF7E8FF00232371236010BDD8
:1037280070B51E46244D254B9D4219D26C798C42AA
:103738003AD12C79844201D0002835D12C7A944290
:1037480032D12C682C22002120462DF0E5FC256082
:103758002B792371EA88A260012B03D0022B0BD0AE
:10376800002407E0E87AFDF799FB60616B7A237320
:10377800AB7A6373204670BDE87AFDF78FFB606112
:103788006B7A2373A87AFDF789FB0546206168B137
:103798000E23C3710023867103720921FFF7A8FD68
:1037A8002069FDF7A6FBE5E70C35BDE72046FFF7E6
:1037B800AAFF2C46DEE700BF24990308B499030842
:1037C80000232DE9F7431A4621210120FFF7A8FF1E
:1037D800234C0546C4F88C0000283FD005269620C7
:1037E80006F061FA0DF1070200212846FDF7BFFC3B
:1037F800074660B300221146D4F88C00FDF714FD8B
:103808003C20FDF77DFD012006F04DFA00265FFA09
:1038180086F84FEA8805D4F88C90EDB2A91D0022ED
:1038280001F0FE014846FDF7FFFCE91D0022C9B280
:103838004846FDF7F9FC013640F2DC514046FDF7F9
:1038480025FD102EE3D1384603B0BDE8F083013ED4
:10385800C5D1D4F88C00FFF756FFF4E70746F2E726
:1038680078190020A0F2DC50164BB0F5FA7FA8BFFB
:103878004FF4FA70984210B5B8BF18460C46114676
:10388800FEF72AFD00B207EE900A9FED0F7AF8EED8
:10389800E77AE4B287EE870AFBEE096AE0EE006A8F
:1038A80007EE904AB8EE677ADFED087AE7EE267AF7
:1038B80067EE807AB3EE090A87EE800A2BF09EFB4A
:1038C80000B210BD0CFEFFFF0000C84200401C45BE
:1038D80030B500F13C01074B024603F1140453F8DC
:1038E800045B42F8045BA342F9D114308842F2D158
:1038F80030BD00BFC41203082DE9F0410D4D0E4F35
:10390800DFF8388000246619605903F0C3FE716837
:1039180011B1384603F094FEB16811B1404603F086
:103928008FFE103403F01CFFB4F5007FEBD1BDE827
:10393800F08100BF545A0308BC640308C26403083A
:10394800012105F067BE002105F064BE0F4B1B681E
:10395800590702D50E4A1278AAB19A0603D50D4A1C
:1039680092F838207AB10C4A92F8C00058B10B4A44
:1039780012880AB19B0707D4094BB3F848000030F6
:1039880018BF012070470120704700BFB84A0020C7
:103998005A480020904C0020B8480020E4420020FB
:1039A800A80300102DE9F043AE4C256815F0040675
:1039B80087B006D001210020FDF73CFB07B0BDE829
:1039C800F083FFF7C3FFA84B002800F00F8145F4F0
:1039D800007525601E70A54B93F82930012B2368CC
:1039E80014BF43F4802323F480232360A04B1B7867
:1039F80043B929F0F3F92368002800F0038143F460
:103A0800002323601AF048FB40B129F00FFA23681D
:103A1800002800F0FA8043F400032360954E2368E1
:103A280037683A0754BF43F4807323F480732360E4
:103A3800914B1B88632B23684FF008008CBF43F41D
:103A4800806323F48063236029F0AEF98046002860
:103A580040F0E080132029F0A7F9002840F0DA8030
:103A6800092029F0A1F9002840F0D480FB0640F194
:103A7800CF80032029F098F9002840F0CB8023203C
:103A880029F092F905461AF007FB90B1B8F1000F3A
:103A980040F0C280132029F087F9002840F0BC804C
:103AA800032029F081F9002840F0B680232029F06E
:103AB8007BF9724B5A789946002A00F0B280704B15
:103AC800704A93F80080B8F1000F03D16E4BDB7990
:103AD800022B07D1137A002B00F0A08087F0010792
:103AE80007F0010823685F0704D41DB1002808BF48
:103AF8004FF0010892F9F937002B14DDD2F85C3247
:103B08000393D2F86032049303A9D2F86432059380
:103B1800012268461FF0C0FB684627F0B3FFB9F8DA
:103B28000E30984202D8B8F1000F7AD0236843F4D7
:103B380000632360554B1A68100776D53368D9059A
:103B480073D4236843F480539207236071D5336894
:103B58009B056ED4236843F40053236010F01CFDCA
:103B68002368002869D143F400432360484B187840
:103B780068B9256825F0784323F07F03002B5FD0D0
:103B880029F012F900285BD045F480452560122001
:103B980029F00AF9236800285AD043F48033172003
:103BA800236029F001F92368002854D043F4003336
:103BB8001B20236029F0F8F8236800284ED043F032
:103BC800807323602368334A23F0784323F07F030C
:103BD80003B10223137006F00BF82F4B1B68C01AB1
:103BE8000028FFF6EBAE12F0EDFEE7E61A7825F4B2
:103BF80000752560002A7FF4EEAE0120187027F0CA
:103C08004BF9E8E623F40023FBE623F4000304E77A
:103C1800454638E7012536E701204AE74FF0010815
:103C280060E7236823F4006383E7236823F4805361
:103C38008AE7236823F400538FE723F4004394E7CB
:103C4800002029F0B1F80028A1D125F480459DE78E
:103C580023F48033A3E723F40033A9E723F0807328
:103C6800AFE700BFD4AF0020C0250020D8AF0020A8
:103C7800F0370020444A002064040010084E002059
:103C8800E53F0020788C0020104F0020B84A002023
:103C9800840100204D46002050460020084A034673
:103CA8005078C01A18BF0120032B28BF0023537077
:103CB800044AC3EBC30302EB8303034A1360704750
:103CC8008446002040430020F8A1002070B50B4E28
:103CD80035782D1A18BF01250328044634BF044639
:103CE80000242046FDF72CFC054B347004EB8404BB
:103CF80003EB8404034B28461C6070BD84460020F7
:103D0800C2250020244F00202DE9F04F8DB012F07D
:103D18009BF9DFF8B881684BA3EB08034FF0030960
:103D28000193182200210DEB02002DF0F5F9019BFB
:103D38000793624BCDF818801A69002ABFBF604A02
:103D48005A6002F188325A600CAC0125F3228DF8D2
:103D58002C50DA607E2304F8243D2A46214606A822
:103D6800FDF7ECFC21462A460020FDF702FD554CE4
:103D7800ADF80E004FF0000B534B9C423DD302228E
:103D880004A9002406A8ADF81040FDF7D7FCBDF83B
:103D98000E00022204A9FDF7ECFC0CA9022221F86E
:103DA800220D06A8FDF7CAFC099878B108ABC0F146
:103DB8000402214618442DF0AFF90A9818B9089959
:103DC80006A8FDF71DFC00230A9009939DF82C30E6
:103DD8000A9A23B139490B6943F000430B61B9F1E1
:103DE80001095FD0002A9CD198F800307E2B5BD166
:103DF800FDF7CAFC00285AD156E062888DF815B044
:103E0800C2F30B06B31DADF810302388C3F30B01C2
:103E18001B0B8DF814301304ADF812101BD40622B6
:103E280004A906A8FDF78AFCBDF80E00062204A91D
:103E3800FDF79FFC3246ADF80E00616806A8FDF755
:103E48007DFCBDF80E0061683246FDF792FCADF8C6
:103E58000E00143490E700273D460135EDB20622E6
:103E680004A906A88DF81550FDF768FCBDF80E00EA
:103E7800062204A9FDF77DFC6368ADF80E0003EB8C
:103E8800070A3246514606A8FDF758FCBDF80E0051
:103E980032465146FDF76DFC032DADF80E00374450
:103EA800DBD1D6E7002A9FD0052005F031FF12F0BC
:103EB800AFF80DB0BDE8F08F00001008003C0240DC
:103EC8002301674538930308A896030800000E08E5
:103ED8002C4A38B51368590753D52B4D2B4923F075
:103EE800040313602B6808701A0315D5284C227830
:103EF8000B2A0BD80123934040F6030119400BD13C
:103F080013F4C06F02D0FF2022F03CFD214B1A6849
:103F1800214B5A600B232370204C94F84C305BB330
:103F28001C4B226D1B689B1A4FF47A72B3FBF2F399
:103F3800092B21D9226C13442364194B93ED000AF1
:103F48002BF05CF8636DC01A6423B0FBF3F0636C6C
:103F580018442B6860649B070CD510F071FC48B1BD
:103F6800104BA26D1B689B1AA26C1A44A264E26DE6
:103F78001344E365FFF7C8FE0520BDE8384026F086
:103F88008BBF38BDD4AF0020404A002006A60020D1
:103F9800E4A1002084720020E8A10020C0250020B0
:103FA800909400204C4C00202DE9F04F2DED048B0F
:103FB80083B012F049F86B4C6B4B9C42C0F0858083
:103FC8006A4C2078FFF782FE6078FFF767FE684B3F
:103FD8005A899989914228BF0022198A28BF5A8193
:103FE800DA89914224BF0022DA81624A0192136879
:103FF800998FD88F884224BF00229A875E4B5F48EA
:104008001A7C597C914224BF00221A74FDF7F0FAF9
:104018005B4B1B78012B02D14020FDF7E9FA594E82
:1040280000252C46B046FF2748F2BC39AA59530848
:1040380003F07733900800F03330D31A1B1AD008F6
:1040480000F011301B1A03EB131312F0010103F0F7
:104058000F33B3FBF7F0C0EB002018BF0134A3EB1C
:10406800000318BFE4B2012B0AD9022B0ED111B1FB
:1040780012EA090F04D108EB050028F0DBFC28B18F
:104088000C35482DD2D1013C022C06D90D20FDF764
:104098009DFA10B13B49FDF76BFA3B4A3B4C938BB9
:1040A800518B643B8B42A8BF0B465383237A042B66
:1040B80084BF00232372237A013B032B6CD8DFE8EB
:1040C80013F087018E019A01A101B4F90230002B87
:1040D800A7BF4FF00009C8464FF001084FF0030989
:1040E80046464E4501D9143466E7294FA6EB080A1F
:1040F8003D88002D00F09D81264B7919994280F06A
:104108009881052D40F2958122887888C2F30B02A8
:10411800904224D17A7902F0030296421FD1514687
:10412800204697F804B0FDF745FA2188BBEB113F0C
:1041380012D1B4F802E06068CEF30B01AA1F8A42DC
:10414800A8BF0A461EF4004F1CBF5FFA8AF301FBA2
:104158000300B91D2CF0BBFF0136F6B2C1E70F46CC
:10416800C6E700BF38930308A896030884460020D2
:10417800FEA10020884E002012A200200063040641
:10418800308B0020E48B0020084E0020724E002067
:1041980001000E0800001008E388B3F5F57FA8BFFA
:1041A8004FF4F573E38000BF00200EF0E2FBA34B51
:1041B8001A68002800F0328122F080621A60A04B51
:1041C8002788196865880E78ED1B642205FB06F3BD
:1041D80093FBF2F39B4A3B44138091F80190B2B2EF
:1041E80002EB820EC6F1640C52424FEA4E0EC9F140
:1041F800640B92B200245FFA8CFC4FF00A0A4FF469
:104208007A7813B2002B40F30C81604603FB03F16C
:1042180009FB01F110FB00F091FBF0F05844434317
:1042280093FBFAF373441BB287496B4393FBF8F390
:104238003B4421F8143001340A320B2C92B2E0D1FD
:10424800824C834D10F05CFB3022002181482CF019
:1042580063FF0EF0E9FC21797F4B6422C82012FB32
:10426800010199606179A3F8308012FB0102DA60DC
:10427800012100221A615A619A61DA611A625A624E
:1042880083F8282083F829205A859A85DA85997138
:10429800724BB3F90420002A40F0C780B3F9062016
:1042A800002A40F0C280B3F90820002A40F0BD80FF
:1042B800B3F90A20B2F5805F40F0B780B3F90C205B
:1042C800B2F5805F40F0B180B3F90E30B3F5805F8E
:1042D80040F0AB802B6823F400732B6010F02EFBAA
:1042E8005F4ADFED607AB2F876105F4B5F4CDFF81B
:1042F8008C8107EE101AB8EEC77AB2F87810C7EEBC
:10430800276A04F5EA77052607EE101AB8EEC77A89
:10431800C3ED006AC7EE276AB2F87A1007EE101AE2
:10432800B8EEC77AC3ED016AC7EE276AB2F87C1007
:1043380092F87E201A7407EE101AB8EEC77AC3ED09
:10434800026AC7EE276AC3ED036A2677C4F81880A5
:10435800667764612046142200219C342CF0DCFE30
:10436800A742F2D12B68DB0601D526F047FF019B57
:10437800DFED3F8A1C68B4F9503007EE903AF8EE4A
:10438800E77AB2EE049A87EE890A20EE280AFEF749
:1043980097F8B4F9523007EE903AF8EEE77AB0EEB3
:1043A800408A87EE890A20EE280AFEF789F8314B01
:1043B80028EE000A002283ED000A2F4B1A7019F02C
:1043C8008BFE03B0BDEC048BBDE8F04F11F020BEAE
:1043D800E38840F63C729342A8BF1346E2E6E388BE
:1043E800B3F5FA5FA8BF4FF4FA53B3F5FA6FB8BF45
:1043F8004FF4FA63D6E6E388B3F57A5FA8BF4FF4C3
:104408007A53F2E7E388B3F5FA4FA8BF4FF4FA43BB
:10441800B3F5FA7FB8BF4FF4FA73C3E642F080628F
:10442800CCE60CBF01203046F0E62B6843F400735D
:1044380053E751462046FDF7BDF88DE6D4AF00207E
:10444800244F002040AF002020260020104F0020DD
:10445800444A0020EC610020D8AF002012A20020BE
:10446800C025002000401C4630040010E801001060
:1044780035FA8E3C54040010C0050010D812030809
:1044880010B50446FFF70AFC18B1FFF73DFCFFF72B
:104498008BFD601CC0B2BDE8104026F0DFBD10B532
:1044A8000446FFF713FC18B1FFF72EFCFFF77CFD5D
:1044B800601CC0B2BDE8104026F0D0BD08B5FFF7BB
:1044C80023FCFFF771FD0120BDE8084026F0C6BDBA
:1044D80038B5154C154DAC4211D30020FDF730F816
:1044E800134811F079FD134A136843F480031360ED
:1044F80000BF114B1878BDE83840FFF7E7BBB4F9A7
:104508000230002B4FF00001204603DBFDF752F884
:104518001434E0E7FDF74EF801212046FDF74AF88C
:1045280002212046F2E700BF38930308A896030843
:10453800C8640308B8460020844600202DE9F04FDF
:104548002DED0C8BABB0CDE90201C9499FEDC99A9D
:104558000B68C94A9D6AC94B059207EE905A1D60BF
:10456800C74B0493F8EEE77A186867EE897A10F07B
:10457800040FC2ED007A894614D0C24B1B68DA06D4
:1045880008D519F089FD28B1BF4B1A7C12B993F8E8
:1045980020303BB1BD49D1E92023561943EBE577DB
:1045A800C1E92067BA4FBB4CFB78002B40F013845D
:1045B800A368B8489847002840F02684B64BB74D02
:1045C8001B6813F0020F00F04681AB682846984735
:1045D800002800F03D81B24BB24AB34C1878174618
:1045E8000023E9181228B1F90E1008BF44F8131077
:1045F80042F813100233062BF3D1AC4EB6F8008004
:10460800B146B8F1000F00F0A58516AC6A7DA54942
:10461800204610F021F81899169A81EAE173A3EB65
:10462800E17307EE903AF8EEE77AF7EE086AC7EE1C
:10463800A65A82EAE273A3EBE27307EE103AB8EEE9
:10464800C77A179BF4EEC75AF1EE10FA40F3388593
:1046580083EAE370A0EBE37006EE100AB8EEC66AD0
:10466800F4EEC65AF1EE10FA40F32A850029D4BFB9
:104678000121002100F35285DFF848C21CF80130FF
:104688009BBB824F8A480C2303FB0173C268D3F893
:10469800886006EB02080669D3F88C204069C3F8E5
:1046A80088803244D3F89060C3F88C203044B9F83D
:1046B8000060C3F89000012E17D10CF801604FF488
:1046C800C87690FBF6F098FBF6F1C3F89000C3F8B3
:1046D800881092FBF6F2C3F88C20D7F8D03002206D
:1046E8000133C7F8D03026F0B9FC684FD7F8D0307E
:1046F800062B40F0A9802046FDF7E0FD002688370C
:10470800B91920460C36FDF74CFD482EF8D10FA9F3
:104718002046FDF729FD0FAEDFF89891B346B04665
:104728000027B8EC010A2AF069FC07EB09030237F5
:10473800062F9880F5D12046FDF7C0FD5D4F5E4AF3
:10474800DFF858E10020A44612A9B7EE007AB7F9BD
:1047580004801368BEF80C60A3EB08031293B7F942
:1047680006805368A3EB08031393B7F9088093688E
:1047780006EE106AA3EB08031493431003F1010833
:10478800B8EEC66A0CEB08180DF1980A4FF000094C
:1047980051F8296007EE906AF8EEE76A09F1010915
:1047A800C6EE867AB9F1030FD8ED006AE7EEA76A7C
:1047B800E8EC016ADAED006AE7EEA76AEAEC016A5A
:1047C800E6D12AAE06EB031858ED0D7A77EE877A14
:1047D80006EB830348ED0D7A53ED147A77EE877A6A
:1047E800013043ED147ADDED197A77EE877A0628E1
:1047F800CDED197A02F10C02A9D122461AA8FDF7CB
:104808000FFC9DED120A9FED2D8A2A4F2AF0FEFE1D
:104818008DED0F0A9DED130A2AF0F8FE8DED100AB2
:104828009DED140A2AF0F2FE00248DED110ABBEC6E
:10483800010A20EE080A2AF0E1FBE3190234062CEB
:104848005881F4D1FFF73AFE184A1388013B1380C8
:104858001B4B01221A70DDE902230C4CD4E93667A0
:10486800C4E936230C4B1B689B0740F12B852BE0D2
:1048780050060010BD378635E83F00206837002015
:10488800D4AF0020444A0020E84E0020C025002074
:10489800FEA100206C370020B84A0020CC0500108B
:1048A80050B000200C00001054B00020E44200205A
:1048B8000000001012A200204826002000008045B9
:1048C800C4010010E6420020D24B1B78002B00F0F8
:1048D800F984D14A9FEDD17AD2ED017AD04B95ED8A
:1048E8000A0A67EE877AC3ED007AD2ED027A67EE9C
:1048F800877AC3ED017AD2ED037A67EE877A9FED66
:10490800C97AC3ED027AD5ED077AC74B67EE877A85
:10491800C3ED007AD5ED087A67EE877AC3ED017AA0
:10492800D5ED097A67EE877AC3ED027A2AF06EFE32
:10493800F0EE408A95ED0B0A2AF068FEB0EE408A48
:1049480095ED0C0A2AF062FEB84B1B780E2B16D197
:10495800DFEDB77AB74B6A6BDA6068EEA78A28EEA4
:10496800278A20EE270AFDEEE88ABDEEC88ABDEE4A
:10497800C00AC3ED008A83ED018A83ED020ADDE9EE
:104988000201801B61EB070129F078FB07EE900A12
:1049980027EE890A0DF065FBA74B02935A79002A86
:1049A80000F01285A54BA64D1B6813F0100340F0CC
:1049B8009084ADF85830ADF85A30ADF85C302B889B
:1049C800ADF85E30EB799F4A9F4E12889F4D03EBFE
:1049D800430359009E4B1B6813F4805F40F2DC537D
:1049E80018BF1A46002312B21F460DF1580E581868
:1049F80030448078012800F0B584C0F0AB840228E8
:104A080000F0B7840133042BF1D1924DFEF7CAFFB1
:104A180095F820700695904D002F40F0A5852B78CD
:104A28000BB119F04BFD94F8681100232B708B4DD6
:104A3800002939D18A4B9FED8B7AD3ED0E7A85F810
:104A4800C0100022002377EE877AC5E90223C5E962
:104A58000E23C5E916230023834AC5F8F830C5F8A4
:104A6800FC30C5F80031C5F80431C5F8B430C5F8D4
:104A7800D030C5F8DC30C5F8B830C5F8D430C5F842
:104A8800E030C5F8BC30C5F8D830C5F8E4302B6440
:104A9800AB642B66AB660123C5ED3A7AC5ED3B7A6C
:104AA8006A646A6684F8683105F0A2F806460F461B
:104AB8000DF012FA002840F0CB850023C5F8A83085
:104AC800C5F8AC30C5F8B030684B85F8C0001B6835
:104AD800C4F86C313046394614F053FD14F0D0F95F
:104AE800634BDFF8A081B3F9042002EB8202520085
:104AF800002842F07B8107EE902A9FED4D9ADFED6A
:104B0800479AC8F8B421F8EEE77A88F80B0087EEE0
:104B1800898A584DDFF844A14FF0010928EE298A07
:104B2800B0EE480AFDF76AFC88ED6E0AB0EE480A56
:104B3800FDF7C6FCD5E90023B6EB020B67EB030CC7
:104B4800002144F61F60614508BF584588ED6F0A8B
:104B580088F8049080F0C480C5E90067404E9AED5B
:104B68003A7AD6ED0E7A444FB4EEE77AF1EE10FABF
:104B7800C5E902BC414D40F1ED859AED388ADAED80
:104B8800378ADAED34AA9AED35AAC8ED61AA28EE7B
:104B9800080A88ED62AAA8EEA80AC8ED67AA88EDF7
:104BA80068AAC8ED648A88ED658AC8ED6A8A88EDC6
:104BB8006B8A2AF02BFD022388F8083088F8093020
:104BC8002A4B2F4A1B68C8F8E431FDEEE87A47F60D
:104BD800FF7117EE903A8B42A8BF0B469342FDEE49
:104BE800C87AB8BF13463B8017EE903A8B42FDEE69
:104BF800EAAABDEECAAAA8BF0B46934288ED710A7D
:104C080088F80290C5ED00AA85ED01AAB8BF134641
:104C18003AE000BFC40100102C06001035FA8E3CA3
:104C2800040600108F2A75441006001050B00020AA
:104C38000000C84254B00020D8AF0020444A0020E9
:104C4800104F0020724E0020F819030890470020EA
:104C5800404A0020308B00206C620020B8480020B9
:104C6800644800206F12833A83F9223E8472002040
:104C7800C40500103027002088AF00207CAF00203A
:104C88005A80FFFF788C00209AED3B7AD6ED0E7A99
:104C98007B80B4EEE77AF1EE10FA40F184859AF859
:104CA800F030DAED3F1A9AED3E1ADAED390A9AED4C
:104CB800360A002B14BF02210121012027F0F8F841
:104CC800DAED3A7ABC4AFCEEE77A17EE903ADAED7A
:104CD8003B7A1380FCEEE77AB84A17EE903A1380D5
:104CE80004F086FFB64A0D4600211180B5490646F4
:104CF800C879022804BF012717808F7A022F02BFC4
:104D0800178847F0020717800F7A022F02BF17880B
:104D180047F0040717809AF810708B461FB1178860
:104D280047F0100717809BF80B70022F02BF1788F7
:104D380047F020071780A44A136823F080071760FC
:104D4800049A126812F0040240F039858BF8122098
:104D58009E4BDFF8D0B21A789D4E7AB1069BB6F911
:104D680006101A8B914209DC9A4A1279032A41F0FB
:104D78003081994A527A002A01F02E81924F974D3C
:104D88003A6812F0100F41F062818E4A9449127805
:104D9800242000FB0212D289D00502F14F80914AEB
:104DA8005279002A01F04E818F490968890701F07C
:104DB80049810FFA82F80DF05FF8DFED8C7AB4EED6
:104DC800E70AF1EE10FAB7EE007A41F10A81B0EE87
:104DD800670A01F00DB9DFF84882264604F008FF9B
:104DE8002369824653B9029BAAEB030AD8F800301C
:104DF800AA4464339A45F1DBFFF7DABB304698479B
:104E08000028F0D0FFF7D4BB794EB6F84850002DF3
:104E18007CD1B4F92620B4F92030704EDFF808B2FE
:104E2800DFF808A2734F9B1A3360B4F92820B4F94D
:104E380022309B1A7360B4F92A20B4F92430314621
:104E48009B1A304694F83C20B3600FF005FC3046BE
:104E58000FF02DFCD94656F8253007EE903A9BF80E
:104E68000030B8EEE78AD4ED077A012B4FEA8508BF
:104E780028EE278A04D1B0EE480A2AF0BFF8386035
:104E8800022D08D099F800300B2B04D1B0EE480A57
:104E98002AF0B4F83860584A584B58F802001B6892
:104EA800B0EE480A9847022DB0EE408A06D099F82D
:104EB80000300B2B02D12AF0A1F8B860504A514BB0
:104EC80058F802001B68B0EE480A984799F8003075
:104ED800022BB0EE408A02D12AF090F838604A4A94
:104EE8004A4B58F802001B68B0EE480A9847484AEF
:104EF800484B58F802001B6898470135032DAAEC67
:104F0800010A07F10407A6D1FFF758BB7B78424F87
:104F1800DFED428A08EE103A07F1060B3546B04637
:104F28004FF0000AB8F8482037F9021FB2F57A7F27
:104F380004BFC6F800A0C5F81CA033680B44336052
:104F4800EB6907EE901A0133012BF8EEE77AEB6173
:104F58006ED1C5ED047AC5ED037AC5ED058A012A3F
:104F6800A7F806A040F08980EB69012BC1BF03F1C7
:104F7800FF3307EE903A95ED067AF8EEE77AD4BF5C
:104F8800B0EE680A87EE270A2AF040FB18EE103ABE
:104F9800002B6AD0F8EEC87AF4EEC07AF1EE10FA77
:104FA80063D54FF47A73A8F848301D4B00225A6035
:104FB8009A60DA60FFF702BB64A5002066A50020AE
:104FC80062A50020788C0020444A0020840100203B
:104FD800EA460020623F002000390020000000104F
:104FE800CC4D030884460020D04700209A99193FE9
:104FF800A803001054B000209800001040000010D2
:10500800F80000103400001058010010380000109B
:10501800B80100103C0000108A3700200000000092
:105028002C0600109047002050B0002030060010D9
:10503800D5ED035A07EE103A37EEE56AF8EEC76A7F
:1050480086EE267AD5ED056A37EE257A77EEC77AA9
:1050580085ED047AE6EE276A85ED037AF0EE667A46
:10506800C5ED066AC5ED056A79E733684FF47A72CB
:1050780003F5FA7393FBF2F3FB80BB4506F10406D4
:1050880005F114057FF44EAFB8F84800012813D194
:10509800B4F92A10B4F92830B4F926200091B64999
:1050A800FDF777FBD9F8003000200021C3E90C0197
:1050B800C3E91001C3E90E01B8F84830013B72E7B3
:1050C800C7EE265A83EAE371A1EBE37106EE101AE4
:1050D800B8EEC66AF4EEC65AF1EE10FA0ADDF4EE3E
:1050E800E57AF1EE10FA05D5002ACCBF022103219A
:1050F800FFF7C2BAC6EE265AB4EEE57AF1EE10FA18
:105108007FF5A6ABF4EEE57AF1EE10FA7FF5A0ABE9
:10511800002BD4BF05210421FFF7AEBA3388B3F5BD
:10512800C87F7FF4A9AA00229448954F1346D35507
:105138000132062A03604360836000F10C00F6D157
:10514800904AC2F8D030904A136823F40073136071
:10515800FFF792BA8D4B8E4CDA68B4F904108D4E75
:10516800511AB4F90A204FF480504A43196992FB46
:10517800F0F2DA60B4F906208A1AB4F90C10514337
:105188005A6991FBF0F11961B4F90810511AB4F990
:105198000E204A43394692FBF0F238465A616A7D3E
:1051A8000FF05AFA38460FF082FAAB8907EE903AB8
:1051B800F8EEE77A3246434657F8231007EE101AFE
:1051C800B8EEC77A0133C7EE276A032BE2EC016A0F
:1051D800F2D195ED077ADFED707AB0EEC77AB4EECA
:1051E800E77AF1EE10FA11DC95ED087AB0EEC77A9D
:1051F800B4EEE77AF1EE10FA08DC95ED097AB0EE34
:10520800C77AB4EEE77AF1EE10FA02DD6B6B013380
:105218006B63624A624B6348314692ED026AD2ED93
:10522800016AF1EC017A92ED007A76EE266A8842FC
:10523800C6EE265A77EEC76A93ED026AA5EEA67AFD
:10524800D3ED016A76EE266A17EE107AC6EE265A74
:1052580042F80C7B37EEC77AD3ED007AF0EE676A36
:10526800D7EE076AE5EEA67A17EE907AC1ED027AD4
:1052780043F80C7BD1D16388A3B9237C002B3FF47E
:10528800E7AADFF83C81484F002496ED000A58F859
:1052980024003B6898470134032CA6EC010AF4D19A
:1052A800FFF7D6BADFF81C91B046002798ED000A40
:1052B80009EB0700FBF759F91C37542FA8EC010A32
:1052C800F4D1DAE7394B0022DA611A625A62FFF741
:1052D80063BB374B1E68B5F90830B6F9500000EECD
:1052E800103AB8EEC00A0CF070FCB5F90A30ADF807
:1052F800580000EE103AB6F95200B8EEC00A0CF0A9
:1053080064FC2C4BADF85A001B681B7B07EE903AE7
:10531800B5F90C30F8EEE77A06EE903AB2EE047A78
:1053280067EE877AF8EEE66A9FED237A76EEA76A4B
:1053380077EEA77A66EE876A86EEA77ADFED1F7AA0
:1053480077EE677AF1EE677AFDEEE77A17EE903A34
:10535800FFF733BB029800EB4300408D25F813009C
:10536800FFF750BB032B14BF25F81370EA80FFF733
:1053780049BB3EF81300F1E7D16403084826002032
:10538800E6420020C0250020444A0020000000100A
:1053980012A20020E8050010CDCCFC406C040010DF
:1053A80090040010F405001008050010CC0500104A
:1053B800884E0020244F002000007A440000FA4361
:1053C80060050010B4040010944B954E1A68954F70
:1053D800DFF87092B7F90000934D9846336812F4DD
:1053E800807F14BF597B197A99F80020FEF73AFAA2
:1053F800D8F80030288013F4807F336899F80020AB
:1054080014BF597B197AB7F90200FEF72BFAD8F8BE
:105418000030688013F4807F336899F8012014BF46
:10542800997B597AB7F90400FEF71CFAD8F80010EE
:10543800404202B2C805AA8016D530682E88C37BC0
:10544800B5F802E013FB06F3642693FBF6F32B8012
:10545800037C407C13FB0EF310FB02F093FBF6F386
:1054680090FBF6F06B80A880704BB7F90620188B7C
:10547800824257DBB2F5FA6FA8BF4FF4FA62131AEB
:105488004FF47A72C0F5FA605A43B2FBF0F290B268
:10549800B0F57A7F48D3664B5B88029A12791BB2C3
:1054A800EB80002A57D04A067FF5AFAA614BDFEDA3
:1054B800627AB3F904300A2293FBF2F35F4A128846
:1054C8009B1A1BB208EE103AB8EEC88A28EE278A53
:1054D800B0EE480AFCF7F4FFF0EE408AB0EE480A56
:1054E800FCF78CFFB5F9023007EE103AB5F9003039
:1054F800B8EEC77A06EE903A67EE407AF8EEE66ABA
:10550800E8EEA67A20EE260AFDEEE77AA8EE870AEC
:1055180017EE903AFDEEC07A2B8017EE903A6B802A
:10552800FFF773BA0246AAE76427B0FBF7F004EB6B
:105538004003B3F960606FF06303434304EB40003A
:1055480013FA82F2B0F962309B1B534393FBF7F3D3
:1055580033449BB2A1E702982A8842856A888285EB
:10556800AA88C28503869EE72B78EBB994F8E030C9
:10557800002B3FF454AA324FDFF8AC900026A7F175
:10558800700A4FF01C0808FB06A0B7EC010AFAF7EE
:10559800ECFFFDEEC07A17EE902A29F816200136A6
:1055A800042EF0D1FFF73BBA94F8E0605EB107EE45
:1055B800907A94ED397AF8EEE77AF4EE477AF1EEDC
:1055C80010FA1BD00026DFF880A0DFF88090BFB269
:1055D80009EB0600DAF8002039461C36FDF740F8DA
:1055E800702EF5D1069B93F8203007EE903AF8EE2E
:1055F800677A0123C4ED397A84F8E030104A0A4901
:10560800002331F9130007EE900A0133F8EEE77A28
:10561800042BE2EC017AF4D1A8E700BFD0470020C0
:10562800244F0020EA46002090470020308B0020BD
:10563800724E0020C405001035FA8E3C1E62002010
:1056480018270020584F00202C060010A8260020FC
:10565800A94B95ED2D6AD3ED006A93ED017AD3ED50
:10566800027A76EEC66A16A9CDED166AD5ED2E6ACF
:1056780037EE667A08468DED177A95ED2F7A77EE34
:10568800C77ACDED187A1DF041FF169BDDED177A2C
:10569800C5F8A830049BF1EE677A1B68CDED177A40
:1056A800C5ED2B7ADDED187A5B07C5ED2C7A24D48D
:1056B80095F8C03023BB914B9FED916AD3ED006AFA
:1056C80037EEE67AE7EE066AB0EEC77AC3ED006A0F
:1056D8008C4BDB7806EE903AF8EEE66A8A4BB4EE2D
:1056E800E67AF1EE10FA1B6829D5D4F86C219B1ADA
:1056F800FA2B27D9012385F8C03095F8C0300BB3B1
:105708007E4B93ED007A77EEC77AC5ED2C7AD5ED0E
:105718002A7A7E4BFDEEE77A17EE902AD5ED2B7AA2
:105728001A80FDEEE77A17EE902AD5ED2C7A5A808A
:10573800FDEEE77A17EE902A9A80FFF7CBB9C4F806
:105748006C31DAE70023C5F8A830C5F8AC30C5F8E5
:10575800B030DCE79AED347ADAED357A88ED617AA3
:105768000023C8ED627A88ED677AC8ED687ABDEEE5
:10577800C77AFDEEE77AC8F89031C8F89431C8F8CE
:10578800A831C8F8AC31C8F8C431002388F808300B
:1057980088F8093088F8023085ED007AC5ED017A7D
:1057A8003B80FFF771BADFED5A1A9AED3E1A9AED6F
:1057B800360A0021F0EE610A0846FFF77FBA002298
:1057C800544F8BF805208BF806209BF800204FF0EB
:1057D800240C0CFB0272D78913F0100234D0324625
:1057E8002B46384617F0E0FE4B4E73790BB1002379
:1057F800B370B3790BB10023F370337B23B1474AFD
:10580800138843F040031380737B23B1434A138802
:1058180043F080031380B37B23B1404A138843F4D9
:105828008073138096ED720A3D4F29F0E7FB96EDE1
:10583800730A386029F0E2FB96ED740A786029F063
:10584800DDFBB860FFF784BA17F0080FDFF8E890BF
:1058580076D0344BD4F880715D60C4F88061A9F8C3
:105868000020A9F80220A9F8042000283ED02E48DC
:10587800F21B824205DDC4F88861DD6017F050FD37
:10588800B2E79BF80320294FE2B1D4F88801DD6024
:10589800274BC4F88861A6EB0008984523DCFB8BEE
:1058A80000EE103AB8EEC00A0120B1EE400A25F029
:1058B80011FF404617F0D2FD404617F073FD164B16
:1058C80001229A71BBF914281A49B7F92C301344EC
:1058D8000A884988934203DB99420A46A8BF1A46B8
:1058E800154BDA8080E717F01BFDE8E7134B1B88A0
:1058F800A9F8063078E700BF10060010580000200D
:105908000AD7233B644800208472002068A5002041
:1059180000000000CC4D0308788C002062A5002010
:1059280070A5002040270020400D0300084E0020ED
:105938003F0D0300724E002090470020104F0020BA
:10594800FB070ED5D4F89021324B3348C4F8906148
:10595800B21A9A4245602ADDC4F89861C56017F00A
:10596800DFFCB80717D52D48D4F8A02145602C488E
:10597800C4F8A0618078DFF8B0A0B21A002845D139
:105988009AF80C902348824258DD264AC4F8A86148
:10599800556017F09DFC7D077FF526AF224B6422EA
:1059A800D3F8E03193FBF2F3204A13801CE79BF80D
:1059B800032092B1D4F89821C560A6EB020A1C4ACC
:1059C800C4F8986192451EDC504617F047FD5046D2
:1059D80017F0E8FC144A01209071114A154BB2F9EE
:1059E8002C00BBF91428B3F802E010441A8890423E
:1059F80003DB86457246A8BF02460F4812B2A9F8D3
:105A080006200280ADE717F08BFCE3E74FF00009B2
:105A1800B8E700BF400D0300502700206027002092
:105A2800084E002068270020788C002040060010CF
:105A38003F0D0300724E002078AF00209AF808202E
:105A4800002A00F0C1829AF80220002A00F04A8257
:105A5800ED48D4F8A8214560C4F8A861B9F1000F51
:105A680040F03D82E94BB51A9D4200F3AA8225F029
:105A7800DDFD9AED728A90ED000ADAED738A9AF8E4
:105A88000C20E34B38EE408A9AED050A28EE008A8E
:105A980090ED010A78EEC08A9AED070A68EE808ACE
:105AA800002A00F03E829B8A0AEE903A28EEA80A65
:105AB800F8EE6AAAA8EE080A29F0A8FDB4EEEA0AE8
:105AC800F1EE10FAF0EE40BA09DDC8EE007AF0EE19
