:020000040800F2
:10000000002000103192020821C701086D82020809
:100010001FC701081DC701081BC701080000000019
:1000200000000000000000000000000019C70108E7
:1000300017C701080000000015C7010825070008C0
:10004000CD920208CD920208CD920208CD9202080C
:10005000CD920208CD920208650900086F090008D8
:100060006D0900086B09000869090008519301082F
:100070004193010831930108219301080D93010870
:10008000F9920108E5920108CD920208CD9202088A
:10009000DDBF0108CD920208CD9202086709000871
:1000A000B990010811910108A59001083591010846
:1000B00001910108F1900108E1900108CD92020838
:1000C000CD920208CD920208CD920208CD9202088C
:1000D000CD92020875920108699201085D920108AB
:1000E00063090008CD920208CDBF0108CD92020835
:1000F000DD900108CD920208CD900108CD92020852
:10010000000000000000000000000000CD92020886
:10011000CD920208CD920208CD920208CD9202083B
:10012000D1920108BD920108A99201089592010897
:1001300081920108CD92020800000000000000003A
:10014000CD920208CD920208CD9202080000000074
:10015000000000000000000000000000000000009F
:100160000000000000000000CD920208CD920208BD
:10017000CD92020800000000000000000000000016
:0801800000000000CD9202080E
:10018800436A8269D154436A02690133934228BFA2
:100198000023426B4362136843F080031360704787
:1001A8000346026A4169885CD96801328A4228BFDD
:1001B8000022C0B21A627047826A406A131A584213
:1001C80058417047426A836A00699A4238BF1218D8
:1001D800D31A0138C01A7047C269036A9A422FBFFE
:1001E800D01AC0688018C01A704783681A68937A52
:1001F8000133DBB20A2B937205D9507802490023E8
:1002080021F8103093727047FA52002070B54F4CA5
:10021800237814200133B3FBF0F200FB1233237070
:100228004B4B5D68186D9A68A94208440CD293F844
:100238005850002D00F0858000F58030824238D378
:10024800C2F5803202440AE08242F9D293F858504B
:10025800002D0CBF00254FF48035821A521B5960BF
:100268006178DA600022013183F8582014229860FE
:1002780091FBF2F002FB10116170A178D86801318E
:1002880091FBF2F502FB1512A27040F68C22904207
:100298003CD9197893F9552091422BD10A1F0C2A81
:1002A80028D893F85620182A06D8013283F8562001
:1002B80004E04FF48035D0E783F8541093F95420C4
:1002C80091420FD193F8570060B1224C224D002083
:1002D800904211DB204800240F2A13DD1F480278C2
:1002E80001320270012283F8572083F8551000224A
:1002F8001A7070BD0022D9E754F8046F25F8106011
:100308000130E5E720F812400132E5E793F857207D
:10031800DAB1A0F2EF2140F2DA52914207D81A7806
:100328000F2A04D8111D013243F82100E0E700220A
:1003380083F85720104699180432402A0861FAD1E8
:1003480070BD8242BFF47CAF87E770BD880900208A
:1003580098210020A4210020FA520020F852002001
:1003680010B50B48037814240133B3FBF4F204FBF3
:100378001233084A0370136D01330B4413654FF6AB
:10038800FF73994204BF012382F8583010BD00BFA3
:10039800880900209821002001207047012070471B
:1003A80070B5114C05460E4600220023D4E902011F
:1003B80028F09EFB20B10AA3D3E90023C4E9022355
:1003C800304628F0C7F8D4E9022328F053FA28F079
:1003D800C1FB04EB4504208270BD00BFAFF3008071
:1003E800ABAAAAAAAA46104088090020A0F13003A7
:1003F800DAB2092A01D818467047A0F16103052B23
:1004080001D857387047A0F14103052B94BF3738FE
:100418004FF0FF307047F0B50124B0FBF4F58D4282
:1004280003D200271CB91C70F0BD4C43F5E7B0FBA4
:10043800F4F604FB1600B4FBF1F41FB9002E01DC3E
:10044800002CEFD1092E03F1010E08DD002A14BF9C
:100458003725572535441D7001377346E2E73025A7
:10046800F8E703685A1C02601970704703685A1C41
:100478000260197070472DE9F84F002B14BF4FF038
:1004880030094FF020090A9B141E07468846BABF58
:1004980064424FF0010B4FF0000B13F8012B02B12F
:1004A800DCB9BBF1000F1ED1254615F1FF3516D278
:1004B80023462C460A9D5E1B05EB060A15F8011B10
:1004C80099B9BBF1000F05D02546002D10DC002C92
:1004D800A8BFA2445046BDE8F88F013CDDE7494675
:1004E8003846C047E1E70023E4E73846C047E3E77A
:1004F80049463846C047013DE7E7D0ED006AD0EDF0
:10050800057AE6EE807AB0EE407AB0EE670AD0ED72
:10051800037AD0ED016A67EEC07AE7EE267AD0ED6D
:10052800066A77EEA67AD0ED026AC0ED057AD0EDBC
:10053800047A67EEC07AE7EE267AC0ED067A70474D
:100548007047704710B5224B18B91B6802221A82EF
:1005580010BD20491C6800200886237813F07F030B
:100568000A4616D1637A990644BF022182F83010F0
:1005780013F0400F92F8303014BF43F0010323F01A
:10058800010382F83030144B1B681B6998471348E5
:1005980010BD012B19D0022B19D1637913F0800FEC
:1005A80003F00F034FEA830303F1804303F5B843D5
:1005B8001B6805D003F03003102BE4D10123E0E7DA
:1005C80003F44053B3F5805FF7E701F1300010BD45
:1005D800285F002088090020004E0020B80900206C
:1005E80010B5064C18B9236801221A8210BD044BB5
:1005F8001B689B68984720680C3010BD285F002056
:10060800004E002010B5064C18B9236801221A8242
:1006180010BD044B1B681B68984720680A3010BD42
:10062800285F0020004E002038B582681468A27840
:1006380003463AB90123A370A1801146BDE83840AA
:1006480026F02AB8A08889B2814238BF5A68E1806A
:100658003DBF1268D26A121A091A38BF8918218157
:10066800064A6178208922F811000025A570012129
:10067800184626F011F8A57238BD00BFFA520020BE
:10068800094B07EE901A53F82030B8EEE77A93ED4D
:10069800040AD3ED057A10B5A7EE270ADC6829F01D
:1006A800E3F9206010BD00BF6C2D0020F0B5094EA5
:1006B80034683F2C0DDC0FC8074F4FEA041E0EEBC1
:1006C800070585E80F00054B1B684EF80730013415
:1006D8003460F0BD64210020641D00202C5F0020E0
:1006E8002DE9F0410B4DDFF830802C686A6901274D
:1006F80014400CB9BDE8F081B4FA84F3C3F11F03C8
:1007080007FA03F658F823000368984724EA060412
:100718006E61EEE700040140D03A0020EFF3118348
:10072800102282F3128808490A6801320A60074ACF
:100738000749906808600749002008601268DBB222
:1007480083F31188704700BF2C5F002010E000E0A1
:100758004C1700204817002003689B6A03B118470C
:10076800704703685B6A03B11847704703689B6961
:10077800184703685B69184703681B6918470368CB
:10078800DB68184703689B68184703685B68184765
:1007980003681B6818470368DB692DE9F0410546C3
:1007A8000E4617468BB90C463B1B3344002B01DC25
:1007B800BDE8F0812846FFF7E5FF0028FAD014F8D5
:1007C800011B2846FFF7E4FFEEE7BDE8F0411847B4
:1007D800E1E7014B1868DBE79C57002038B5054670
:1007E8000C4614F8011B01B938BD2846FFF7D0FFA5
:1007F800F7E70B4B1B681B0110B406D5094B1B68A8
:100808005B050AD55DF8044BCAE5074B53F8203061
:100818001BB107289CBFDB6819605DF8044B704763
:10082800B04D002094670020D42200201FB5ADF8F9
:100838000A30BDF81830ADF8040041F48041ADF835
:100848000C306846BDF81C30ADF80610ADF808202D
:10085800ADF80E30FFF72AFF05B05DF804FB1FB5B1
:10086800ADF804006846ADF80610FFF71FFF05B0A5
:100878005DF804FB074B1B781844074B53F82020FE
:1008880032B193881268918A0B4218BF1B04936196
:10089800704700BF7D21002060C6020810B504091A
:1008A800013C052C00F00F0215D80C4B33F814103E
:1008B80041FA02F313F001000ED0012090400138F4
:1008C800084028F02DFB064B1B5D1844054B0C22F5
:1008D80002FB003010BD002010BD00BF54C6020846
:1008E80094BC0208F41A002010B1036882881A85A3
:1008F800704710B1036882889A61704738B183885D
:100908000268002914BF002110218B4093617047B1
:10091800044B01461868044B1B780BB981F00101A0
:10092800ECE700BFB8230020BC230020044B1B7851
:100938001844044B81F0010153F82000DEE700BFA2
:100948007D21002060C6020830B1036882881B8AB6
:100958001A4214BF012000207047C1E6C0E6BFE676
:10096800BEE6BDE6BCE6BBE62DE9F3410446184603
:1009780016460D461F4627F093FC2368E672284466
:100988000022A0720092D3F8148032463B462946D2
:100998002046C04702B0BDE8F081036810B50446A0
:1009A8005B689847236820469B689847A37B013B70
:1009B800A37310BD036810B504461B6898472368E5
:1009C80020469B689847A37B0133A37310BD036837
:1009D80010B59B680446984701232373FF2363736C
:1009E80010BD0F4B98420AD0A3F57843984212D015
:1009F80003F58063984210D04FF0FF307047002312
:100A0800084A142101FB03231A8A013292B21A827E
:100A1800188A80B270470123F2E70223F0E700BF8B
:100A280000300140E408002008B540F2E9330289AB
:100A3800920707D5017340F2E9330289D20709D535
:100A4800007B05E0013B9BB2002BF0D1FFF7C9FF0B
:100A5800C0B208BD013B9BB2002BEED1F6E770B5E2
:100A6800164690F90C20142353430C4AD558836832
:100A78009A07044602D40069FFF736FF2846FFF7B5
:100A8800D3FF01223146284625F09AFCA3689B072C
:100A980002D42069FFF72DFF012070BDE408002073
:100AA800F8B5164690F90C201F46142353430C4AF8
:100AB800D55883689A07044602D40069FFF714FFE3
:100AC8002846FFF7B1FF3A463146284625F078FC1C
:100AD800A3689B0702D42069FFF70BFF0120F8BD2C
:100AE800E4080020F8B5164690F90C201423534367
:100AF800104AD55883689A0704460F4606D40069F9
:100B0800FFF7F2FE0120002104F042FE3946284694
:100B1800FFF78AFF31462846FFF786FFA3689B0741
:100B280006D40120002104F033FE2069FFF7E1FE1E
:100B38000120F8BDE4080020F8B50679012E054625
:100B4800964609D0022E1FD18368DB0758BF41F0B3
:100B58008001BDE8F84082E70C4B90F90C0018249E
:100B680004FB003463786BB16B7BA1725B0023726A
:100B78000023637223750223A370E660226118F0D4
:100B8800EBFB237D1846F8BD0023FBE7103C002053
:100B98002DE9F0410479012C05468E461F4609D0FF
:100BA800022C20D18468E40758BF41F08001BDE8D9
:100BB800F04175E70D4B90F90C00182404FB003444
:100BC80063786BB16B7BA1725B0023720023637245
:100BD80023750223A370E760226118F0BDFB237D13
:100BE8001846BDE8F0810023FAE700BF103C00205A
:100BF80073B50379012B0D4616460AD0022B25D171
:100C08008368DB0758BF01F07F01FFF76BFF02B075
:100C180070BD90F90C10427B0D488DF807601824C0
:100C280004FB010460780028F1D06372E3600DF1E1
:100C3800070323610023520023750223084622720A
:100C4800A572A37018F088FB207DE0E70020DEE79E
:100C5800103C00200A4B70B50E465D6B811C890064
:100C68000446F2B201F0FC012846FFF7C1FFA100DB
:100C78000931320A2846C9B2BDE87040B8E700BF5A
:100C8800880900202DE9F0410E4E8046002406F127
:100C98002807E0B200F0030343450ED136F814509C
:100CA80037F81430EB1A002BB8BF5B42052B04DD74
:100CB8002946FFF7CFFF27F814500134102CE8D14C
:100CC800BDE8F0819809002038B50E4D10220021AA
:100CD80041F2D774B4FBF0F4686BFFF789FF012089
:100CE80004F067FD621ED2B2FE21686BFFF780FF39
:100CF800012004F05EFD686B80220021BDE83840C9
:100D080076E700BF8809002073B50279022A22D14C
:100D180003238DF8033090F90C001F4C8DF8022046
:100D280004238DF804301423434302A80844E358ED
:100D38001A49002601258DF800608DF801508B4274
:100D480010F8080C09D0A1F578418B421FD001F5A5
:100D580080618B421DD002B070BD31461A8822F0E6
:100D680040021204120C14251A8005FB01411A884E
:100D7800C96822F0380231F810101204120C0A4324
:100D88001A801A8892B242F040021A80E3E7294694
:100D9800E4E71146E2E700BFE40800200030014024
:100DA800F0B50D4B0D4E0446B34201D30020F0BD03
:100DB800587988420DD11D79A54200D04CB9187ACE
:100DC800904206D118680779AF4202D10568AB4254
:100DD800EDD00C33E8E700BF48370308C0370308F5
:100DE80010B5427A044632B1036800F10A0140683E
:100DF80098470023637210BD10B50023054A1946B1
:100E080052F82340844208BF42F823100133042BD0
:100E1800F6D110BD2C330020124B53F8200070B5CA
:100E2800F8B1114A062303FB002393F90140621C21
:100E380016D01879A8B10D4A0D4E155DDA786421DF
:100E48001423002061438C18013B36F814402A44CF
:100E580010FA84F0F7D11423B0FBF3F080B270BD20
:100E6800002070BD2C330020C1230020BC250020A9
:100E7800E023002038B503200D461446FFF7CCFFC9
:100E880007EE900AB8EE677ADFED0A7A27EE277A3E
:100E98005DB1F8EE047AF0EE006AE7EE267A9FED8F
:100EA800067A67EE877AC5ED007A0CB1034B2360AA
:100EB80038BD00BF6740533A00007A44331390436B
:100EC80030B5094B0949C0B28B4200D330BD5A88AE
:100ED800140406D55D68DC68C2F30B0200FB0252FD
:100EE80022601433F0E700BF70310308CC340308E4
:100EF80070B5448806460D46C4F30B04002122460B
:100F080028462AF041FE3169084B994208D3084B1C
:100F1800994205D222462846BDE870402AF00FBE05
:100F280019B12846BDE87040084770BDCC340308A5
:100F3800483703084388426813F4004F1EBFC9B2FC
:100F4800C3F30B0301FB03221146D1E7064B074904
:100F58008B4202D30023184670471A88C2F30B024B
:100F68009042F8D01433F3E770310308CC34030807
:100F7800024A136823EA00001060704734340020E6
:100F88002DE9F341056906460F467DBBD0F8008080
:100F9800C8F30A0323B30023D6F80080019325F091
:100FA80081F9042819D1224C236943F001032361F4
:100FB800BBB2A8F8003025F075F904282ED108F145
:100FC80002030193019B3F0C1F8025F06BF92369F5
:100FD800042823F00103236125D06FF0010505E003
:100FE80025F060F9042805D04FF0FF35284602B0F7
:100FF800BDE8F0810E4C236943F002032361C4F875
:101008001480236943F04003236125F04BF92369D9
:10101800042823F002032361BDD0E5E7236923F008
:1010280001032361D9E7336804333360DEE700BF87
:1010380000200240F8B504460D468E180027B54238
:1010480001D12069F8BDE368591CE160234415F813
:10105800012B1A720429F2D1A1682046FFF790FFEC
:10106800E7602061EBE738B58D180C46AC4200D13B
:1010780038BD14F8011B22F05BFDF7E770B50122BB
:101088001049114C114E0020FFF7EDFF22884AB19C
:10109800A518B54213D2052A11D92146FFF7E3FF57
:1010A8002C46F3E721460222FFF7DDFF6388084A52
:1010B800C31AA41A074A58421480584170BD002028
:1010C80070BD00BF00E8030801E803080000040839
:1010D800FCE703084417002030B502440446944254
:1010E80001D1002011E014F8013B11F8015BA3F1D4
:1010F80041001928A5F1410098BF2033192898BF4D
:101108002035581B01D1002DE9D130BD70B50346FB
:1011180010F8012B202AFAD0092AF8D02D2A0ABF64
:10112800034601254FF0FF35591E00240A2611F801
:10113800010FFFF75BF90A2802D905FB04F070BD1F
:1011480006FB0404F3E730B50278202A034600F1D1
:101158000100F9D0092AF7D02D2A47D10346BFEE5E
:10116800000A9FED3A7A1A46F2EE046A134612F81C
:10117800010BA0F13001CCB2092C3DD92E280BD19E
:10118800F2EE046A1146B0EE666A0B4611F8012BBE
:10119800303AD0B2092838D91A7802F0DF02452A45
:1011A8004FD15A782D2A3BD102330120013B00222E
:1011B8000A2513F8011F3039CCB2092C36D9B2F5FB
:1011C8009A7F28BF4FF49A72DFED216A1346F7EE33
:1011D800007A072B2DD802F00702F2EE046A62BBF0
:1011E80088B3C7EE276A20EE260A30BD2B2A08BF2F
:1011F8000346B7EE000AB4E707EE901AF8EEE77A6E
:10120800E7EE267AB0EE677AB0E707EE902AF8EEB6
:10121800E77AC7EEA65A66EE866A37EE257AB4E70D
:101228002B2A14BF013302330020BFE705FB02124B
:10123800BFE767EEA67A083BCBE767EEA67A013AE6
:10124800CDE7F7EE007A67EE276ACCE700000000EA
:1012580020BCBE4CB5EEC00ADFED2D7AF1EE10FAD7
:10126800CCBF30EE270A30EE670ADFED2A7A20EE8F
:10127800270A30B5FDEEC07A87B017EE904A0546CA
:1012880084EAE470002303A9A0EBE47000930193BF
:10129800029325F0DDF9002CACBF20232D2303A8F1
:1012A8008DF8003026F0FCFF012822D130238DF87C
:1012B80001308DF802308DF8033003A968462AF012
:1012C8006BFC684626F0ECFF0338C4B22246694638
:1012D80028462AF098FC00232B550F4928462AF067
:1012E8005BFC0DEB040128462AF056FC284607B0A3
:1012F80030BD022805D130238DF801308DF8023039
:10130800DBE7032804BF30238DF80130D5E700BFA1
:101318006F12033A00007A44A01B030870B5064612
:1013280015460846B6FBF2F414B12046FFF7F6FF5F
:1013380005FB1464024B1B5D00F8013B70BD00BF48
:1013480030090308084BD3E9002352EA030108D007
:1013580006490968521843F10003C0E90023012037
:1013680070470020704700BFA82E00202C5F002087
:10137800F0B5264E04460F460FCE8DB06D460FC50C
:101388000FCE0FC596E80F0085E80F0014F0030391
:1013980035D1642194FBF1F201FB124242B94FF4BA
:1013A800C87294FBF2F302FB1343003318BF012306
:1013B800C3F11D0340F26D1201930420631E93FBD9
:1013C800F0F002FB04046FF0630093FBF0F020449C
:1013D8004FF4C87493FBF4F3184406300022072135
:1013E800013F5DF822309742184490FBF1F4C4EBBA
:1013F800C404A0EB040004D1181A0DB0F0BD0123F9
:10140800D6E701320C2AECD10020F6E79CBC020892
:10141800F8B514461D4606464FF47A720023204656
:10142800294627F015FD2C4B3C22034493FBF2F090
:1014380002FB1031B17190FBF2F102FB110218208E
:1014480072714FF4616293FBF2F292FBF0F100FBD0
:10145800112232712149224A93FBF2F293FBF1F3F4
:10146800980040F2B55392FBF3F103FB1123B3F557
:10147800896F2DDA40F2DA2293422BDCB3F5B77F7D
:10148800B4BF002201221749182707FB02170B21B6
:1014980037F811E0734501DA0139F9D100F5FA603E
:1014A80010443080481CB0700C2000FB02120E491A
:1014B80001EB4202013392F838209B1AF3704FF483
:1014C8007A7200232046294627F0C2FC3281F8BDF3
:1014D8000322D8E70222D6E780BC92C7801F86077E
:1014E80080510100CCBC020894BC020837B5044600
:1014F8006846FFF727FF054638B1DDE90023204697
:10150800FFF786FF284603B030BD01232080A37073
:10151800E37020716071A0712081F3E710B5028833
:10152800C378A2F5FA62591E40F2B554930804FB39
:10153800031381780C24013902F0030204FB021220
:101548000C49847901EB42021821128F1344027965
:1015580001FB0323427900893C2101FB0323064A4E
:10156800224401FB03234FF47A720021C2FB0301DA
:1015780010BD00BF94BC020880436D380B684A68F0
:101588009A4206D05A1C0A601B7800B103700120E9
:1015980070470020704710B502681146531C03605D
:1015A80011F8024B0160D31C5178036093781B0437
:1015B80043EA0123111D0160D078234343EA006008
:1015C80010BD03685A1C02601A4612F8021B02601A
:1015D800587841EA0020704791E80C009B1A012BCB
:1015E80010B5044606DD0846FFF7EBFF04B120807E
:1015F800012010BD002010BD03685A1C0260187835
:10160800704738B5044609C81B1A9A42154606DCC5
:101618002AF095FA22682A442260012038BD002069
:1016280038BD38B50446006815462AF088FA22689D
:101638002A44226038BD03685A1C02601970036886
:101648005A1C02600A0A1A7003685A1C02600A0CC3
:101658001A700368090E5A1C0260197070470368F3
:101668005A1C026019700368090A5A1C0260197032
:1016780070472DE9F04F89B082468B4616461C46C6
:1016880000270DF114083178002934D0252904D019
:1016980050460136D8470137F5E771782D2905BF3F
:1016A800B178F51CB51C012618BF0026302906BFE5
:1016B8002978012300230293A1F1300308BF0135E3
:1016C800092B4FF0000907D80846FEF78FFE0A28B5
:1016D80015D90EB1C9F100096C2940F08B802A7820
:1016E800642A05F1010600F0BC801BD8252A62D0C7
:1016F8000BD8002AC7D1384609B0BDE8F08F0A23B5
:1017080003FB090915F8011BDEE7582A1BD0632AD9
:10171800B9D1354621785046D847261D0137344679
:101728002E46B0E7732A3AD008D8662A49D06E2ADE
:10173800A9D13546236804341F60F1E7752A00F003
:101748008B80782A9FD1A2F15800424204F1040507
:10175800434642411021206807E02D238DF81430BC
:1017680040420DF1150300220A21FEF754FE2C46D3
:10177800CDF80080029B4A4659465046FEF77BFE4C
:10178800074480E72D238DF8143040420DF11503EE
:1017980000220A21FEF73FFE2E46039CE8E7354665
:1017A800236800934A46002359465046FEF763FED5
:1017B800261D0744B3E7354625215046D84701374B
:1017C800AEE73546073424F00703D3E9000103F1F7
:1017D800080427F0DFF900EE100A4046FFF73AFD4B
:1017E800CDF80080029B4A4659465046FEF743FE14
:1017F800074495E764293CD00BD82529DCD003D8C9
:1018080000293FF478AF8BE758290FD0632981D09E
:1018180086E77329C4D004D86629D3D06E2989D025
:101828007EE775290FD078297FF47AAF58394A4274
:1018380004F104064A412068434610213446FEF765
:10184800EAFD2E4694E7231D0393002243460A210E
:101858002068FEF7E0FD9FE7251D434600220A2188
:1018680079E72068002804F10405FFF676AF4346BF
:1018780079E72068231D0028039383DB434687E725
:101888000EB40FB505AB019053F8042B064903932A
:1018980001A8FFF7EEFE019B00221A7004B05DF864
:1018A80004EB03B0704700BF750400080FB437B5E8
:1018B8000B490C48096800680B4D06AB53F8042B1C
:1018C8000193FFF7D6FE04462868FEF752FF00286A
:1018D800FAD0204603B0BDE8304004B0704700BFDE
:1018E800682100206C2100209C5700202DE9F04F32
:1018F80000F1100E85B007460546002600F14009A4
:10190800B0462B46BC4616E0F4EC016A1AED047AA0
:10191800D3ED007AE6EEC77AC3ED007AAC420AF15D
:10192800100AF1D108F10108B8F1040F0CF1040C08
:1019380003F1040303D0AEF11004E246EEE74FEAE8
:10194800860B73464B451ED003EB0B0AB8469C46E4
:1019580009E0FCEC016A18ED047AD4ED047AE6EEAD
:10196800C77AC4ED047AD44508F11008F1D1D4ED52
:10197800046A95ED007AC6EE877A103317EE90CA9E
:1019880044F810CFDEE70136042E05F114050EF1F8
:10199800100E07F10407B3D10024009401940294B7
:1019A800039402F1100C074606466C4652F8045B95
:1019B8002560EE463546BD4228D1624504F104044F
:1019C80006F1100605F11407F0D104AE00F13C054C
:1019D8000A4656F8044D42F80C4F2C460434A342EC
:1019E80002F10402D1ED037A1BD12A46D2ED006A36
:1019F80087EEA67A103B8342A5F11405A1F10401F4
:101A080081ED047AE4D105B0BDE8F08FBEEC017A2F
:101A1800D4ED007AF5EC016AE6EEC77AC4ED007AF7
:101A2800C9E7D4ED006A92ED007AE6EEC77AC1ED17
:101A3800037AD3E71FB50C46024669461030FFF714
:101A480055FFDDED007AB6EE007A67EE877AC4EDD1
:101A5800007ADDED017A67EE877AC4ED017ADDED73
:101A6800027A67EE877AC4ED027A04B010BDD1ED30
:101A7800007A90ED066AD0ED095AB8EEE77AD0ED13
:101A8800047AE7EE077AB7EE005AC0ED047AD1ED92
:101A9800017AF8EEE76AD0ED057AE7EE267AC0ED2E
:101AA800057AD1ED027AF8EEE77AA7EE276A80ED9B
:101AB800066A90ED076A36EE076A80ED076A90EDD0
:101AC800086AA7EE266A80ED086A26EEA66A75EE11
:101AD800865AA7EE076AC0ED095AD0ED0A5AE6EE13
:101AE800A75AA7EEA76AC0ED0A5AD0ED0B5A75EEB1
:101AF800A65AC0ED0B5AD0ED0C5AE7EE275AC0EDA6
:101B08000C5AD0ED0D5AE6EEA75AC0ED0D5AD0ED9D
:101B18000E5AE7EEA75AC0ED0E5AD0ED0F5A75EEE1
:101B2800A75AC0ED0F5AD0ED105A75EE875AC0ED7E
:101B3800105AD0ED115A75EEA65AC0ED115AD0EDD3
:101B4800125A75EEA75AC0ED125AD0ED135A75EE17
:101B5800855AC0ED135AD0ED005AE7EE065A90EDBB
:101B6800017AC0ED005AA6EE867A80ED017A90EDF2
:101B7800027AA7EE867AD0ED037A80ED027A37EE04
:101B8800866A80ED036A704700F14001034600222F
:101B98001A615A619A61DA6110338B4240F8042B5A
:101BA800F6D1704780EAE073A3EBE0738B4206DB63
:101BB800002801DD401A704702D008447047002011
:101BC800704744F25063984203DDA0F50C40A038FA
:101BD8007047034B9842BCBF00F50C40A0307047DB
:101BE800B0B9FFFFF0EEE06AB0EEC07AF4EEC76A73
:101BF800F1EE10FAD4BFB0EE476AB0EE666AB5EE01
:101C0800406AF1EE10FA48D0F4EEC76AF1EE10FA25
:101C180054BFF0EE475AF0EE665AC5EE867A9FED4D
:101C2800206ADFED205A9FED205AE7EE865A9FED95
:101C38001F6AA7EEA56ADFED1E5AE7EE865A9FEDEA
:101C48001D6AA7EEA56ADFED1C5AA7EEA55AF7EEA6
:101C5800005AE7EE855AB1EE466AC6EE257AF4EEEA
:101C6800C76AF1EE10FA48BF9FED147AF5EEC00A84
:101C780048BF77EE677AF1EE10FA48BF9FED107A09
:101C8800B5EEC00A48BF77EE677AF1EE10FA48BFA2
:101C9800F1EE677AB0EE670A7047DFED0A7ABEE7C1
:101CA80039094E3DE3B59EBE69A2163E88FA16BEB6
:101CB80045FE7FBFA7DFA8B499FB243FDB0FC93FD0
:101CC800DB0F494000000000FDEEC07A17EE903AA5
:101CD8002033402B43D8DFED237A9FED237AB4EEEF
:101CE800E70AF1EE10FA28DCDFED207A9FED1E7A84
:101CF800B4EEE70AF1EE10FA22D4DFED1D7AB4EE65
:101D0800E70AF1EE10FA1EDD30EE670A37EEC00A78
:101D180060EE007ADFED176A9FED177AA7EEA67AD4
:101D2800DFED166AE7EE876A9FED157AA7EEA67AC9
:101D380020EE276AA6EE070A704730EE470ACEE77C
:101D480030EE070AD4E79FED0F7AB4EEC70AF1EE3A
:101D580010FA44BF30EE270A37EE400AD8E79FED65
:101D68000A0A7047DB0F4940DB0FC940DB0F49C047
:101D7800DB0FC93F9A7C2E36FAAF4FB93587083C3E
:101D8800A4AA2ABEDB0FC9BF00000000DFED027A5B
:101D980030EE270A98E700BFDB0FC93F91ED005AE4
:101DA80008B5B0EE450AFFF7F1FFF0EE405AB0EE85
:101DB800450AFFF789FFD1ED014AB0EE405AB0EE6F
:101DC800640AFFF7E3FFB0EE404AB0EE640AFFF79B
:101DD8007BFF91ED023AF0EE403AB0EE430AFFF78E
:101DE800D5FFF0EE404AB0EE430AFFF76DFF25EE4F
:101DF800A46A65EE806A65EE247A64EE244A25EECC
:101E0800007AC0ED004AF0EE664AE3EEA74AB0EE6B
:101E1800463AC0ED034AF1EE634AA4EE873AE3EE90
:101E2800A67AA4EE867A24EE400A25EE445A65EE98
:101E3800845A80ED010AC0ED023A80ED043A80ED43
:101E4800055A80ED067AC0ED077AC0ED085A08BD3C
:101E580038B5334CB4FBF2F4A142F0EE404A1D46CB
:101E6800F7EE005A4FF0000453D207EE901A9FED98
:101E78002D7ADFED2D6AF8EE677A67EE877A07EE3E
:101E8800102AB8EE477A27EE267AC5EE876A87EEDB
:101E9800A63AB0EE430AFFF717FFF0EE402AB0EE7D
:101EA800430AFFF773FF74EEA44AF8EE006A82EE65
:101EB800A47AF5B1012D25D077EE257A20EE260AF1
:101EC80085EE276A75EEC75A80ED006A84EE276AA8
:101ED800C0EE276A80ED016A85EEA77A83EEA76ACD
:101EE800C0ED036A80ED026A80ED047A8461446182
:101EF80038BD35EEC04AB6EE005A24EE055AF0EE6B
:101F0800453AD9E720EE264AF0EE653AB0EE655A32
:101F1800D2E7C0ED005A44608460C4600461E5E71C
:101F280020A10700DB0FC940BD37863500239FED90
:101F3800010A8DE7F304353F30B507EE902A2DED01
:101F4800028BB8EE670A07EE903AF8EE677A83B02C
:101F580080EE270A0D460446019227F07BFD30EEFD
:101F6800008AB0EE000AF0EE480A27F0F1FE28F0E9
:101F780083F8F0EE480AF0EE408AB0EE000A27F047
:101F8800E7FEF7EE007A30EE670A019988EE800ADC
:101F980001232A46204603B0BDEC028BBDE8304041
:101FA80056E7D0ED017AF5EE407AF1EE10FA09D154
:101FB800DFED0E7A60EEA70AB7EE007AC7EE207A58
:101FC800C0ED017A90ED017AD0ED007A80ED021A29
:101FD80031EE077A30EE670AC1EE076AE6EE807ADC
:101FE800B0EE670AC0ED007A704700BFDB0FC9404A
:101FF8004840082310F0800F4FEA400018BF80F0D7
:10200800D500013BC0B2F5D1704710B50A440C4663
:10201800944200D110BD14F8011BFFF7E9FFF7E760
:102028004A09012301F01F0103FA01F150F8223097
:102038000B4340F8223070470EB4254B70B51B682F
:10204800002BA5B0064630DA224B234C19684FF412
:102058007A7304A8B1FBF3F203FB12131F49FFF7CD
:102068000FFC04AB03440393299A1D492AAB054688
:1020780003A80293FFF7FDFA039B591C03910A2159
:102088001970039B591C039100211970024620689E
:1020980080B103681B6A03B1984704A92068FEF75A
:1020A8009DFB16B1206821F06FFD25B0BDE870409A
:1020B80003B070470B4B1B68002BF6D002212A4453
:1020C80000910A44FD2004A91DF098FFEDE700BF28
:1020D800B04D00202C5F0020B825002055090308CA
:1020E8006B0400088C21002038B5144B1C680330A1
:1020F80004EB9002B2F5807F14D8114D1A6005EBFD
:102108008404104D55F8213020F003001844920043
:1021180045F82100C2F580620B490020FFF78CFFCB
:10212800204638BD09490020FFF786FF084A136892
:1021380043F0007313600024F2E700BFB4160020D8
:10214800E0090020B8160020610903088409030883
:10215800784C00200E4B0F4A1B689BB223F00703F4
:1021680003EBC00002443E294FEA42020AD94B0958
:10217800C80604BF03F1FF339BB29B0243F400433C
:10218800136070474B08C90748BF01339B02F7E744
:10219800505C004006300020054B1B689BB223F0C2
:1021A800070303EBC000034B03445B00196070474F
:1021B800505C00400230002070B5002240F60F76D7
:1021C80048F2800502F1805303F5B8539B0042EAB8
:1021D80005041968013231402143042A1960F1D1FC
:1021E800024B40F08000186070BD00BF4C5C00409E
:1021F80008B50B4B002093F82C10FFF7ABFF094BE9
:102208001B68187A082806D1074B4FF480521A80A9
:10221800064B10221A80A0F109035842584108BD04
:102228006C080020285F0020FA4D0020FC4D00209B
:102238002DE9F0412E4D2C68228ADAB9267A042E2F
:1022480018D12C4C2C482378012B0FD12B4B196813
:102258002B4B89B221F007010B445B001A60302335
:10226800038022702B681E72BDE8F0811023038062
:102278000726F7E7B4F81480A36942458CBF022605
:102288000426904528BF90461FFA88F73846984795
:102298001A4B1B689BB223F0070303F1005303F5A5
:1022A80040535B0008F101021B689BB203F1005325
:1022B80003F5405352105B0000218A4211D1394680
:1022C8000020FFF769FF238ADB1B2382638A1F44F0
:1022D800094B678230221A800A4B4FF440521A8009
:1022E800C0E730F802EB23F821E00131E5E700BF51
:1022F800285F0020084E0020FC4D0020505C004064
:1023080002300020FA4D00200F4BDA684378D243A0
:10231800C2F30222C2F104018B400F2121FA02F21A
:1023280081780A401343094902781B018818DBB2F7
:1023380080F800335009012302F01F0203FA02F269
:1023480041F82020704700BF00ED00E000E100E008
:10235800C27802B1D8E7037801215A0903F01F03B4
:1023680001FA03F32032024941F82230704700BFD6
:1023780000E100E0084BDA68D10709D4DA68D20630
:1023880008D4DB6813F0040F14BF0320042070473F
:102398000120704702207047002002402DE9F041DB
:1023A80000230F681D464FF0010E03260EFA05FCA8
:1023B8003CEA070232D10C79621E012A19D88268D8
:1023C80006FA03F822EA080282604A79D0F80880FF
:1023D8009A4042EA08028260828892B222EA0C029B
:1023E80082808A79B0F804C0AA4042EA0C0292B20C
:1023F8008280D0F800C006FA03F2D24302EA0C0C3D
:10240800C0F800C0D0F800C09C4044EA0C04046046
:10241800C4681440CA799A402243C2600135102D1D
:1024280003F10203C2D1BDE8F081F7B50C461546A9
:102438000646A0B3036803F138421A4B03EB922314
:102448000F2793F8980023F03FFF3068B68800966E
:10245800B6FA86F3C3F11F039BB203F00702DB0849
:1024680000EB83039200196A974021EA0701196279
:10247800196A95400D431D6204F003038DF804307A
:10248800C4F381038DF805306946C4F30013C4F31F
:1024980041148DF806308DF80740FFF77FFF03B031
:1024A800F0BD00BF94BC020837B50C460546F8B12C
:1024B800036803F138420F4B03EB922393F898001B
:1024C80023F002FFAB88009304F003038DF8043077
:1024D800C4F381038DF805306946C4F300132868F6
:1024E8008DF80630C4F341148DF80740FFF756FF06
:1024F80003B030BD94BC02082DE9F74FB34D9846A0
:102508009DF83030009395F85834092B81468B4656
:10251800924608D9AE490020FFF78EFD00263046C6
:1025280003B0BDE8F08F03F09AF807460028F5D00D
:1025380095F8584499F80400621CD2B204EB44039D
:1025480005F25C4606EBC30685F858240192FEF7AF
:10255800A5F9034628B104218171019A027202216A
:10256800C171009A52B399F8082002211846FFF762
:102578005CFF182303FB04555A465146C5F85C74A2
:10258800384616F0DBFDD5F85C34D3F804E09EF845
:10259800063013F0040103F0020219D00025114699
:1025A80028464FF0040C2A469EF80570DEF80030E5
:1025B800032F51D8DFE807F0126499CD184611218E
:1025C8000093FFF771FF009B1846FEF78DF9D0E7DF
:1025D80010464FF480758C460122E5E7D3F8209029
:1025E80029F00109C3F82090D3F820B0D3F804A04B
:1025F800D3F818900243774829F4803929F07309F1
:102608002BF0020B834249F0600942EA0B020FD01B
:1026180000F5006083420BD000F54060834207D08C
:1026280000F58060834203D000F58060834208D1C2
:1026380022F00C020A432AF4407A4CEA020245EAE4
:102648000A0AC3F804A0C3F81890C3F834801A62C1
:102658009A6942F008029A61DEF800305B495A6CC8
:1026680042F400425A641A8892B242F001021A8077
:102678001822032F00F2A380DFE807F0939B9D9FA9
:10268800D3F8209029F01009C3F82090D3F820B08F
:10269800D3F804A0D3F8189002434E4829F0807963
:1026A80029F4E6492BF0200B834249F4C0494BEA50
:1026B800021203D000F5006083420BD122F08002A1
:1026C80042EA011222F040022AF4406A42EA0C125D
:1026D8004AEA850AC3F804A0C3F81890C3F83880FA
:1026E8001A629A6942F40062B5E7D3F8209029F497
:1026F8008079C3F82090D3F820B0D3F804A0D3F899
:102708001C900243334829F073092BF4007B834261
:1027180049F060094BEA022203D000F500608342C9
:102728000BD122F4006242EA012222F480622AF4E8
:10273800405A42EA0C224AEA051AC3F804A0C3F830
:102748001C90C3F83C801A62DA6942F00802DA6128
:1027580082E7196A21F480511962196AD3F8049042
:10276800D3F81CC021F40051024341EA023219494E
:102778002CF4E64C8B424CF4C04C03D001F50061BC
:102788008B4203D129F4804949EA8519C3F804909A
:10279800C3F81CC0C3F840801A62DA6942F40062C8
:1027A800D5E7343302FB04140022C4F868341A60F5
:1027B800B5E63833F6E73C33F4E74033F2E7002375
:1027C80002FB0414C4F868341B60FFDE880900208B
:1027D80092090308002C014030B52DED028B1F4BE8
:1027E80083B01C68B4FBF1F303F57F43FF331B0C84
:1027F8000092B4FBF3F40023B4FBF1F52146AAB22E
:10280800F0EE408AB0EE608AFFF776FE08B3B5EEC8
:10281800408A07EE904AF1EE10FAF8EE677A08BFA0
:1028280006EE905A9FED0E7A0ABFF8EE666A27EE1A
:10283800888A86EE876A4FF00103037218BF88EE14
:10284800076A27EE467A80ED056AA7EEA87A80ED3A
:10285800047A03B0BDEC028B30BD00BFD801002064
:1028680000007A4408B5FEF719F848B11D228271B4
:102878000E22C271002202722021BDE8084013E630
:1028880008BD10B503681A79022A044602D1987A5D
:10289800FFF7E8FF00232371236010BD70B51E46C3
:1028A800244D254B9D4219D26C798C423AD12C7912
:1028B800844201D0002835D12C7A944232D12C6838
:1028C8002C220021204629F05FF925602B792371FD
:1028D800EA88A260012B03D0022B0BD0002407E06A
:1028E800E87AFDF7DBFF60616B7A2373AB7A637379
:1028F800204670BDE87AFDF7D1FF60616B7A2373DB
:10290800A87AFDF7CBFF0546206168B10E23C37195
:102918000023867103720D21FFF7C6FD2069FDF7BC
:10292800E8FFE5E70C35BDE72046FFF7AAFF2C4690
:10293800DEE700BF48370308C037030800232DE946
:10294800F7431A4621210120FFF7A8FF224C05462C
:10295800606300283DD00526962002F02AFF0DF17D
:10296800070200212846FEF7E7F8074658B3002279
:102978001146606BFEF73CF93C20FEF7A5F90120F3
:1029880002F017FF00265FFA86F84FEA8805D4F8A8
:102998003490EDB2A91D002201F0FE014846FEF771
:1029A80027F9E91D0022C9B24846FEF721F9013688
:1029B80040F2DC514046FEF74DF9102EE3D138467F
:1029C80003B0BDE8F083013EC6D1606BFFF759FF45
:1029D800F5E70746F3E700BF88090020A64B5A68C9
:1029E80002F00C02042A2DE9F04100F0B580082A13
:1029F80000F0B680A1490160002A40F0AF80596814
:102A08009F4FC1F303117E5C0168F6B221FA06F408
:102A180044605D68C5F3022517F805E024FA0EFE48
:102A2800C0F808E05D68C5F3C2257D5DEDB2EC40F5
:102A3800C460D3F82C804FEA181808F00F0C07EB85
:102A48004C0C18F0100FBCF810C01FFA8CFC00F0EA
:102A58009C80BCF1000F00F09880B2FBFCFCC0F831
:102A680010C0D3F82CC04FEA5C2C0CF00F0807EB11
:102A780048071CF0100F3F8ABFB200F08880002F73
:102A880000F08580B2FBF7F747611F6BFF065ABF5E
:102A98007A4F876181611F6BBF065ABF774FC76145
:102AA800C1611F6B7F065ABF744F076201621F6BBB
:102AB800FF056ED58A426CD1AE426AD15700476293
:102AC8001F6BFF0467D58A4265D1AE4263D15700B8
:102AD80087621F6BBF0560D58A425ED1AE425CD16A
:102AE8005700C7621F6B7F0559D58A4257D1AE423E
:102AF80055D1570047641F6B3F0552D58A4250D1C4
:102B0800AE424ED1570087641F6BBF044BD58A4233
:102B180049D1AE4247D14A00C2641A6B920744D1E8
:102B280004631A6B12F4403F56D1C0F834E01A6BB4
:102B380012F4402F6AD1C0F838E01A6B12F4401F23
:102B48007FD1C0F83CE01A6B12F4400F40F09C8033
:102B5800C0F840E0BDE8F081484A026000224EE734
:102B68005A685968C90349BFD96A4649434C01F0B4
:102B78000F01C2F3834248BF013102F1020248BF8C
:102B8800B4FBF1F14A43026039E7016169E7416149
:102B98007BE7446294E784629BE7C462A2E74464EB
:102BA800A9E78464B0E78464B7E71A6B02F003020C
:102BB800012A01D10163B4E71A6B02F00302022A69
:102BC80003D14FF400420263ABE71A6B02F0030231
:102BD800032AA6D1294AF6E71A6B02F44032B2F565
:102BE800803F01D14163A2E71A6B02F44032B2F58B
:102BF800003F03D14FF40042426398E71A6B02F496
:102C08004032B2F5403F92D11C4AF5E71A6B02F404
:102C18004022B2F5802F01D181638EE71A6B02F44E
:102C28004022B2F5002F03D14FF40042826384E7BB
:102C38001A6B02F44022B2F5402F7FF47EAF0F4AA0
:102C4800F4E71A6B02F44012B2F5801F01D1C16398
:102C580079E71A6B02F44012B2F5001F03D14FF462
:102C68000042C2636FE71A6B02F44012B2F5401FCC
:102C78007FF469AF014AF4E70010024000127A00BD
:102C88000000002000093D001A6B02F44002B2F572
:102C9800800F02D10164BDE8F0811A6B02F4400292
:102CA800B2F5000F04D14FF400430364BDE8F0818E
:102CB8001B6B03F44003B3F5400FF7D1004BF4E767
:102CC80000127A00F0B5446B8668236823F001038C
:102CD8002360837913F004010CBF4FF0000E4FF40A
:102CE800805E054613F0020F4379206820F001004A
:102CF8002060606814BF4FF40052002220F4405056
:102D0800002942EA0002626014BF4FF4806700277E
:102D180013F0010F14BF042100219B07236823F43B
:102D2800B05323F00C0343EA0E0348BF41F00801F7
:102D38003B430B432360A36895B023F44073A3601F
:102D48006846FFF74BFE284B9C4239D10C9A236802
:102D58001F0448BF5200B2FBF6F306FB1322B2EB86
:102D6800560F226828BF0133160406D5C3F3420262
:102D780023F00F031B041B0C13439BB2A3816B7935
:102D8800A87913F0020F0CBF00224FF4003200F0B4
:102D98000101DC0748BF42F480326B6B01B359680C
:102DA8000A435A609A6801074CBF42F0080222F0B1
:102DB80008029A601A6842F001021A6015B0F0BD64
:102DC8000A4B9C4201D10D9AC1E7094B9C4201D1A3
:102DD8000E9ABCE7074B9C420CBF0F9A109AB6E7B5
:102DE800596821EA0202DCE700380140004400404B
:102DF80000480040004C0040417163E7816061E792
:102E08002DE9F04F1F465B4B85B0984289469046A6
:102E18009DF838509DF83C6055D1574C574B23606E
:102E2800574B636103F58073A36160634FF480734C
:102E38004E20E3602361A76023F046FA2620FDF7C1
:102E48002DFD83462720FDF729FD4FF0010A334663
:102E58000146CDF800A02A46584623F06BFA2523F0
:102E68008DF80C3000238DF80DA08DF80E308DF8FC
:102E78000FA003A8FFF748FA00232362E361A362C7
:102E88006362C4F82C90C4F830806571A760A6719D
:102E98002046FFF717FF15F0010F636B05D02022BE
:102EA8001A621A6842F020021A60AA0742BF1A681A
:102EB80042F080021A601A6842F001021A60204645
:102EC80005B0BDE8F08F2F4B98422BD12E4C2B4BE1
:102ED80023604FF48073E36023612C4B636160636C
:102EE80003F580737120A361A76023F0EDF9122028
:102EF800FDF7D4FC82461320FDF7D0FC0223009393
:102F0800014633462A46504623F014FA26238DF804
:102F18000C30002201238DF80D308DF80E208DF82D
:102F28000F30A6E71A4B984221D11A4C134B236055
:102F38004FF48073E3602361174B6361606303F5AB
:102F480080737220A361A76023F0BEF92A20FDF7E1
:102F5800A5FC82462B20FDF7A1FC03230093014624
:102F680033462A46504623F0E5F92723CFE70020C9
:102F7800A6E700BF00380140D83B002034BD020856
:102F8800D40E002000440040A03B0020D4100020B4
:102F980000480040683B0020D412002020B100788F
:102FA800B0FA80F0400970470120704708B5202129
:102FB80028F001FE0346184623B10278202A03F1BF
:102FC8000103F8D008BD2DE9F8430D4616468146A1
:102FD800002440F634074FF019084846FFF7E6FF8B
:102FE800814690B1FEF792F8B842A8BF3846B0F5CE
:102FF800617FB8BF4FF46170A0F5617090FBF8F085
:103008004CB928703378013333700134022CE4D181
:103018004846BDE8F8836870F4E770B50546084689
:103028000E4625F03DF93146044602462846FEF78D
:1030380053F860B92B5DA3F13002092A08D923F0AF
:103048002003413B192B03D9601C284470BD002084
:1030580070BD08B51E4B1F4C1D68A06820F094FD7C
:10306800284620F091FDA06841798B0703D441F0F0
:103078000201FDF77BFB00210846FDF757FC002104
:103088000120FDF753FCA068FDF77FFB70B101211B
:103098000020FDF74BFCA068FDF771FB01462846B0
:1030A800FDF776FB00210846FDF740FC2846FDF7B2
:1030B8006CFB0028E7D001210846FDF737FC2846BD
:1030C800FDF75DFB0146A068FDF762FBD7E700BF8F
:1030D800545700209C4E002010B4447A631C0444CA
:1030E800DBB24372A172027A9A4203D85DF8044BAC
:1030F800FDF776BE5DF8044B70470FB413B5084C66
:103108000849206804AB53F8042B0193FEF7B1FA81
:103118002068FDF765FE02B0BDE8104004B07047B6
:1031280050570020E130000870B5454C454DAC4281
:1031380071D30020FDF7C4FE43481CF031FA434A1E
:10314800136843F480031360414B40229A61414B5A
:10315800C8221A80404B05225A7401229A743F4BA8
:103168001B78934208D13E4B04221A724FF4FA425C
:10317800DA804FF47A721A803A4B3B4D1B6832481A
:103188003A4C24229A7783F82120394B02221A716B
:1031980000229A71374B1422DA729A721A731CF051
:1031A800FFF995E80F0084E80F0005F110030FCB35
:1031B80004F1100686E80F0005F120030FCB04F197
:1031C800200686E80F0005F130030FCB04F1300626
:1031D80086E80F0005F140030FCB04F1400686E8AE
:1031E8000F0005F150030FCB04F1500686E80F00DD
:1031F80005F160030FCB04F16006703586E80F0017
:1032080095E80F00703484E80F001B4B1878BDE870
:10321800704003F06CB9B4F90230002B4FF0000194
:10322800204603DBFDF786FE143480E7FDF782FEB7
:1032380001212046FDF77EFE02212046F2E700BF6D
:1032480070310308CC340308CD0903083434002056
:10325800946E0020884D0020F86E00207C2100200C
:10326800F85B0020C03C002060BD0208D02600208A
:10327800103D00208A17002000340020074B1B68EF
:10328800597A4A1C1944D2B25A728872197A9142F0
:1032980002D81846FDF7A4BD704700BF505700205C
:1032A80038B5094D441E14F8011F01B938BD286806
:1032B800427A531C0244DBB243729172027A9A42F8
:1032C800F1D8FDF78DFDEEE75057002008B504460C
:1032D8000648FFF7E5FF064B1868FDF781FD054B2B
:1032E800186820F051FC204610F04AFAD609030865
:1032F800505700205457002008B5084B1868FDF7B0
:103308006FFD074B00241C70064B1C60064B1C709D
:103318000DF0FEF92046FFF7D9FF00BF50570020F7
:103328005C57002058570020956A002008B50120F6
:10333800FFF7CCFF08B50448FFF7B2FF034B186846
:10334800BDE80840FDF74CBDE209030850570020CE
:103358000048A5E74111030838B5064D002455F883
:1033680034000134FFF79CFFFFF7F2FF1E2CF6D163
:1033780038BD00BFECF5020810B5064C0B460246F6
:1033880005492068FEF775F92068FDF729FDBDE8B5
:103398001040DDE750570020E13000080FB407B5B2
:1033A80004A951F8040B0191FFF7E6FF03B05DF89B
:1033B80004EB04B070472DE9F0411048104E114F4E
:1033C800DFF84880FFF7EAFF0125002474B90E4BA7
:1033D8001A689200D2F5806205D056F82410384653
:1033E800FFF7DCFF06E001340135EFE758F8242049
:1033F800002AF2D1232DF6D1BDE8F081E7090308B0
:10340800E0BD0208FD090308B4160020B816002024
:103418001FB5094B0293094B0193094B0093094AC5
:10342800094B0A490A48FFF7B9FF0A490A4805B093
:103438005DF804EBB2E700BF3C0A0308440A03083E
:103448004D0A0308110A03080B0A03081F0A030898
:10345800240A0308590A03089A0A03082DE9F04FB9
:103468005448554D8DB0FFF799FF0026B046B14638
:10347800524B1A680023934223DB01360F2E05F1C5
:103488004805F5D14E498868CA680C680969400939
:1034980040EAC2624FF47A734A48B4FBF3F3FFF789
:1034A8007DFF0A2298FBF2F302FB138099FBF2F1ED
:1034B800009002FB11924448FFF770FF0DB0BDE881
:1034C800F08F424951F823108D4201D00133D2E7E1
:1034D800AC6A5CB107EE904ADFED3D6AF8EEE77A38
:1034E80086EEA77AFDEEC77A17EE904A2F6B6A6BC5
:1034F800EB6BD5F838A07F0947EAC26752090B92EF
:103508002146E217CDE90812099A63430AFB023300
:10351800A4FB0A0141F2883B1BEB000B19444FF056
:10352800000C4CEB010C4FF47A72002358466146AC
:1035380025F0DEFC0B9B099A0A90634307FB0233D4
:10354800A4FB070141F2883B1BEB000B19444FF029
:10355800000C4CEB010C00234FF47A72584661467C
:1035680025F0C6FC032E18BF0A9B0A99019718BFBD
:1035780099444FF47A722B6CB3FBF2F306934FF035
:103588000A0318BF804490FBF3F203FB1200049275
:103598000A9A92FBF3F203FB12130590039302922B
:1035A800CDF800A023462A680A483146FFF7F6FE00
:1035B80063E700BFA30A0308B803002070050010E2
:1035C800000000101F0B0308410B030874050010CE
:1035D80000247449EA0A030810B50C4C034618463F
:1035E800FFF7DCFC30B10A4B0A485978BDE81040B7
:1035F8000131D3E61846FDF789FD0138022804D8C1
:10360800C0B202F065FF2346E9E710BD3E26030875
:10361800003400206F0B030810B50C4C0346184605
:10362800FFF7BCFC30B10A4B0A481978BDE81040D6
:103638000131B3E61846FDF769FD0138022804D8C0
:10364800C0B202F073FF2346E9E710BD3E26030827
:1036580000340020770B0308F8B5437913F0C00253
:10366800044602D0402A17D0F8BD03F00F03062BFA
:1036780006D124F023F9BDE8F840014616488DE646
:1036880024F032F90546204624F018F92946024666
:10369800BDE8F840114881E683791148114E124F70
:1036A8001E2B96BF114D002505EBC305FFF7F8FD4E
:1036B80000242B799C4202D3BDE8F84048E614B1B7
:1036C8003046FFF7EDFD2B68384653F82410FFF716
:1036D80014FD0134EDE700BF820B0308920B0308C9
:1036E800A90B0308B90B03081410030848FC0208C7
:1036F80070B54379164603F00F028AB00546062ACC
:103708004CD8DFE802F0041316181B1D49000C788A
:1037180013F0C00344D0402B3CD12146284624F066
:10372800B7F8002856D0FFF7E8FC33E091F90040DD
:10373800EEE70C88ECE7B1F90040E9E70C68E7E749
:1037480091ED000A6846FDF785FD01462648FFF71A
:10375800D4FCFEB16B7913F0C00F1BD1284624F0BE
:10376800C3F807EE900A6846B8EEE70AFDF772FD5F
:1037780001461E48FFF7C1FC284624F09FF807EED3
:10378800900A6846B8EE670AFDF764FD01461748D7
:10379800FFF7B3FC0AB070BD1348F9E70024B7E798
:1037A800042A0CBF124813482146FFF7A6FC002E36
:1037B800F0D06B7913F0C00FECD1284624F094F8C0
:1037C8000446284624F07AF8214602460A48FFF7BC
:1037D80094FCDFE76946284624F01FF96A4621462B
:1037E8000648FFF7DBFDD5E715100308141003089A
:1037F800A60B0308C0100308BB0B0308C20B030881
:1038080038B50D46044624F0CDF82A460146204630
:10381800BDE838406CE72DE9F04F81468DB0884609
:103828000026474BF418474B1868FDF7D9FA94F867
:1038380005B00BF030034B4549D1204624F090F8F1
:10384800FDF784FB0546204624F060F8AA6801923B
:1038580017188246204624F0A5F80BF00F010546FC
:10386800019A062968D8DFE801F0043A3F43484C3A
:103878005A0012F80A200378D31AD3F1000A4AEB47
:10388800030A18F0200F02D0BAF1000F1FD102A9C5
:10389800204624F0C2F818F0400F0DD0BAF1000FFE
:1038A8000AD102A92848FFF728FC52462946204693
:1038B800FFF71EFFFFF74CFD02A92448FFF71DFC88
:1038C800002239462046FFF713FFFFF741FD09366E
:1038D80040F6B5339E42A4D10DB0BDE8F08F12F981
:1038E8000A2090F90030C7E732F80A200388C3E7B6
:1038F80032F90A20B0F90030BEE752F80A2003680E
:10390800BAE797ED007AD0ED007AB4EE677AF1EE77
:1039180010FA0CBF4FF0010A4FF0000AB1E7204639
:1039280023F0CCFF2946421C384628F05AF9B0FA51
:1039380080FA4FEA5A1AA4E74FF0000AA1E700BF3D
:103948008CD0020850570020DF0B0308E00B030857
:10395800022810B50C460CD802F0A2FD054B06480B
:1039680059780131FFF71AFD21463020BDE8104093
:1039780051E710BD00340020EA0B0308022810B5F7
:103988000C4610D802F0B3FD074B084819780131EE
:10399800FFF704FD21461020FFF73DFF21462020B8
:1039A800BDE8104037E710BD00340020F20B0308D3
:1039B8000CB407B510F0400009D069B92320FFF70F
:1039C8005DFC05A904980191FFF7D6FC012003B01E
:1039D8005DF804EB02B070470020F8E70CB48306EA
:1039E80007B500D551B905A904980191FFF7C4FCA2
:1039F800012003B05DF804EB02B070470020F8E73F
:103A08002DE9F04F824687B091460E4615460027AD
:103A1800337896F9028004937378059396F803B087
:103A2800B8F1000F34D0B9F1000F36D02B78049CD0
:103A38006A7895F90210E8789C422CD1059C94424A
:103A480029D1884527D1ABEB000EDEF1000444EB09
:103A58000E040390029101920093114A3B462146BD
:103A68005046FFF7A5FF059B0193049B0093CDF8F3
:103A78000CB03B46CDF80880094A2146504601372C
:103A8800FFF7ACFF102F06F1040605F10405BFD1BE
:103A980007B0BDE8F08F0024DBE74C46E3E700BF42
:103AA800FF0B03082DE9FF47DFF89CA081469046ED
:103AB8000D4616460027B8F1000F42D0B5F9002090
:103AC800B6F900309A4296F9062038D1B5F90200C5
:103AD800B6F90210884232D1B5F90400B6F90410DB
:103AE80088422CD195F90610881A41424141039227
:103AF800B6F904200292B6F90220019200935246C8
:103B08003B4648460C46FFF753FF95F906300393AA
:103B1800B5F904300293B5F90230019335F9083B41
:103B2800009352463B46214648460137FFF756FF69
:103B3800082F06F10806BED104B0BDE8F0870021C1
:103B4800D5E74446E1E700BF130C03082DE9F34726
:103B5800DFF868A081460F46904602260024B8F197
:103B6800000F28D037F8242038F824309A4238F843
:103B780006201ED1BD5BA91A4D424D41019200930A
:103B88005246234629464846FFF712FFBB5B01937E
:103B980037F82430009352462346294648460134D4
:103BA800FFF71CFF042C06F10406D8D102B0BDE8CB
:103BB800F0870025E2E74546E8E700BF280C030840
:103BC8002DE9F04F2DED088BDFF80C9197B080466A
:103BD80092460D461446002695ED008AB5EE408AB9
:103BE800F1EE10FA71D0D5ED019A95ED029AD5ED66
:103BF800038ABAF1000F3FD094ED000A94ED01BAA0
:103C0800D4ED02AA94ED03AAB4EE408AF1EE10FABC
:103C180060D1F4EE4B9AF1EE10FA5BD1B4EE6A9AE9
:103C2800F1EE10FA56D1F4EE4A8AF1EE10FA0CBF12
:103C38000127002712A8FDF70DFBB0EE4B0A8346BB
:103C48000EA8FDF707FBB0EE6A0A05900AA8FDF773
:103C580001FBB0EE4A0A049006A8FDF7FBFA049AA5
:103C6800059B039002920193CDF800B033464A4673
:103C780039464046FFF79CFEB0EE480A12A8FDF709
:103C8800E9FAB0EE690A07460EA8FDF7E3FAB0EEC6
:103C9800490A83460AA8FDF7DDFAB0EE680A0490DF
:103CA80006A8FDF7D7FA049B039002938DE88008D5
:103CB80033464A46002140460136FFF78FFE0C2E58
:103CC80005F1100504F1100486D117B0BDEC088B7E
:103CD800BDE8F08F0027ADE7390C03082DE9F04F58
:103CE800834687B092460C46164600274FF01909BE
:103CF8004FF46178BAF1000F4DD0A378B1783279DA
:103D08008B42337845D12078984242D165787078D3
:103D180085423ED1E578F07885423AD120799042C3
:103D280037D165797079281A454245410592F2786C
:103D380004927278019119FB028219FB03830392A2
:103D4800029373790093154A3B4629465846FFF774
:103D58002FFE23790593E378049363780F4A19FBC0
:103D680003830393237819FB03830293A3780193B6
:103D78006379009329463B4658460137FFF72EFEE4
:103D88000C2F04F1060406F10606B3D107B0BDE80E
:103D9800F08F0025CAE75546DBE700BF4D0C030846
:103DA8002DE9F04F354FDFF8DCA087B0814690460B
:103DB8000C46164602F1300B94F9042000233049D2
:103DC8005956914254D00C33302BF8D10C365E45FD
:103DD80004F10C04F0D107B0BDE8F08F96F9043077
:103DE800F1799A42326841D1206890423ED1657992
:103DF800707985423AD1A579B079854236D1257A4C
:103E0800307A854232D1E579681A4542454157F8FA
:103E180021100491317A57F821100391B17957F89C
:103E2800211002917179009257F8211001915246A0
:103E380029464846FFF7BCFDE27994F9043057F863
:103E480022200492227A57F822200392A27957F866
:103E580022200292627957F8222001922268009269
:103E6800294652464846FFF7B9FDAFE70025CEE799
:103E7800B8F1000FB2D14546DEE700BF44F40208AE
:103E8800C86E00206B0C03082DE9F04F834685B0FF
:103E980092460D46164600274FF019094FF46178EF
:103EA800BAF1000F3DD02B7832789342F37836D1AF
:103EB80068787178884232D1A878B17888422ED152
:103EC800EC78E11A4C424C4119FB03830393B37815
:103ED80019FB03830293737821468DE80C0058463A
:103EE8003B46114AFFF764FDEB780F4A19FB038341
:103EF8000393AB7819FB038302936B78019315F84E
:103F0800043B009321463B4658460137FFF766FDC0
:103F1800142F06F10406C3D105B0BDE8F08F0024C4
:103F2800D2E75446E0E700BF880C03082DE9F04FBC
:103F38000E468DB073490446FFF76FF80546002812
:103F480040F0AA8070492046FFF767F80546002828
:103F580040F0A4806D492046FFF75FF80546002829
:103F680040F09E8020466A49FFF757F8002805462A
:103F780012BF1024254601240EB144F02004654BDD
:103F8800654E93F8009093F80180644F0193BE4208
:103F9800C0F08880FFF7C8F8484602F0A8FA404603
:103FA80002F07EFA5E492846FFF737F808B144F078
:103FB800400414F0110F00F088810020FFF728FA60
:103FC80004F03003302B02D15648FFF7E7F9564D7D
:103FD800564AD5ED007ADFF878A1DFF878B1F5EE2A
:103FE800407AF1EE10FA0CBF012100212046FFF7BC
:103FF800F5FC2A464E4D4F492046FFF7E1FD95F95D
:1040080002104D4AB1FA81F149092046FFF7E6FC52
:104018002A464A492046FFF7F3FC494A49492046BF
:10402800FFF740FD484B1E68484B1F684FF00008DB
:104038005AF82850002D43D1DFF81CA1A84667EA9A
:10404800060B434B53F82850002D00F087802B783F
:10405800FBB14FF0010909FA08F917EA090F0BD06B
:1040680066EA070313EA090F52462B4614BF0121DB
:1040780000212046FFF79CFC16EA090F09D01BEA2D
:10408800090F2B46524614BF012100212046FFF795
:10409800A5FC08F10108D4E701246DE702246BE7C9
:1040A800042469E77288B068716812F4004FC2F39B
:1040B8000B0218BF02EB420227F041FD143666E7F7
:1040C8002B78DBB14FF0010909FA08F967EA060312
:1040D80013EA090F14BF012100212B465A46204636
:1040E800FFF766FC66EA070313EA090F5A462B46F0
:1040F80014BF012100212046FFF770FC08F10108D8
:1041080096E700BFB00C0308BF0C0308B70C030800
:10411800C70C03080034002070310308CC340308AE
:10412800CB0C0308D80C0308D0260020EA0C03089F
:10413800355D0020B4270020F90C0308385E002004
:10414800765D0020F85D00202435002034340020FE
:104158006CBE0208060D0308120D0308724BDFF847
:1041680014821E68714BDFF810921B687340DB43A2
:1041780003934FF0010B039A0BFA05F31A4218BF89
:104188005F466B4A08BF0027334002934FF00C0389
:1041980003FB05233946D3F808A014BF42464A4614
:1041A80053462046FFF704FC029A5346002A14BFE0
:1041B8004A464246394620465D44FFF70FFC162D15
:1041C800D7D100235B485C4E5C4F8DF820308DF8CA
:1041D80010308DF821308DF811308DF822308DF89F
:1041E80012308DF823308DF813305D460BEB060244
:1041F8001BF8003012F8011C0CAA1A440DF1300EFD
:1042080002F8201C1BF8072096440EF8101C2DB14C
:10421800A3EB020EDEF1000545EB0E050BF1010BD9
:10422800BBF1050FE2D1002608AB454A8DF81460B2
:1042380029462046FFF7BCFB04AB414A29462046E5
:10424800FFF7CCFB3F4A40492046FFF7A9FD3F4A0C
:104258003F492046FFF718FE3E4A3F492046FFF7F0
:104268003DFD3E4A3E492046FFF770FC2146304658
:10427800FFF7D1FAE1063DD5019B214630461F786C
:104288005D78FFF77BFB21460120FFF777FB21468E
:104298000220FFF773FB21463046FFF759FB214602
:1042A8000120FFF755FB21460220FFF751FB384656
:1042B80002F01DF9284602F0F3F8791C2948FFF7A7
:1042C8006DF8691C2848FFF769F8A20704D5019B17
:1042D80021461878FFF752FB630704D5019B214656
:1042E8005878FFF735FB214C214B9C420DD30DB07C
:1042F800BDE8F08F019B21461878FFF73FFB019B33
:1043080021465878FFF724FBDFE762886068A168D8
:1043180012F4004FC2F30B0218BF02EB420227F05F
:104328000EFC1434E0E700BF785E0020D45C002067
:10433800ACF90208306F0020E1F50208F86E0020A1
:104348001D0D0308946E0020546F00205455002062
:10435800525600208626002074280020425600204D
:1043680032560020770B03086F0B030870310308DF
:10437800CC3403089B0C0308A50C03080121D5E5E0
:104388000021D3E5F7B50746FEF708FE044630B12D
:10439800002222490120FFF777FD03B0F0BD38461F
:1043A800FCF7B4FE1328054630DC8600781C8DF82F
:1043B8000740FEF7FBFD194C074640B1FCF7A6FE87
:1043C80028289EBF012304F825008DF807303846B9
:1043D800FEF7ECFD074650B1FCF798FE0D2806D80D
:1043E800A31958709DF8073001338DF80730B11CB8
:1043F8000DF1070221443846FEF7E5FD9DF8073028
:10440800042BCAD0002344F82530C6E713232246DC
:1044180003490448FEF7C2FFBFE700BF5455002018
:10442800240D03082A0D030808B5FEF739FFBDE877
:104438000840FEF78DBF2DE9F0438F4B8F48196870
:104448008F4CDFF8EC82A9B04FF47A73B1FBF3F12B
:10445800FEF7A4FF07A8FDF749F88A4B07A9B3F9A7
:1044680000200AA821F056F80AA98748FEF796FF07
:1044780010F0E6FF6422B0FBF2F102FB1102834860
:10448800834B00781B7804EB800092B2D0F890013F
:10449800009089B27F48FEF781FF7F4B7F481968FB
:1044A8007F4BB1FBF3F1FEF728FE7E4B1E6800251B
:1044B80004F5D07704F5DE790123AB4033420BD005
:1044C80057F8253043B118F8052059F8251053F846
:1044D80022207548FEF711FE0135072DECD1FEF7B5
:1044E80037FF72486E4D724FFFF79EFF14A8FEF714
:1044F80075FA14996F48B1FBF5F1FEF74FFF15995E
:104508006D48B1FBF5F1FEF749FF16996B48B1FB11
:10451800F5F1FEF743FF17996948B1FBF5F1FEF78E
:104528003DFF10F0FDFD054610F01AFE064610F09E
:10453800C1FD04EB860604EB850504EB8004D5F881
:10454800E421D4F8E43103935E4B02930193009382
:104558005D49D6F8E4315D485D4D5E4EFEF71EFFBD
:104568005D4B5E4A1C882B685D495E489B00C3F51D
:104578008063FEF713FF5C4A5C4B5D48A4B2D31A14
:104588002146B5F890205B4DFEF708FF5A48FFF723
:104598004BFF002455F824103046FEF7AEFD384690
:1045A800FEF77EFE554BE15C4FEA8408002957D19F
:1045B8005348FEF775FE5348FEF772FE524B58F803
:1045C8000310002950D14E48FFF72EFF0134042C68
:1045D800E0D14E4B4E481988FEF78FFD4D4B1A6FB0
:1045E800002A45D007EE902ADFED4B6AF8EEE77A0D
:1045F80086EEA77AFDEEC77ACDED047AD3F8B82017
:10460800002A37D007EE902ADFED436AF8EEE77A02
:1046180086EEA77AFDEEC77ACDED057A9B6A5BB187
:1046280007EE903ADFED3C6AF8EEE77A86EEA77A75
:10463800FDEEC77A17EE903A384A39481188009348
:10464800049A059BFEF7AAFE364B3748196821F0F5
:10465800784121F07F01FEF7A1FE29B0BDE8F08383
:104668003248FEF74AFDA6E73048FEF797FEADE769
:104678000492C3E70592D1E72C5F0020470D030899
:1046880060BD0208286F0020610D03081633002062
:1046980020330020720D0308D8010020950D03086F
:1046A80040420F00844D0020A50D0308AD0D0308FE
:1046B800F20E0308C20D0308D40D0308E60D030823
:1046C800F80D0308600E03080A0E03080D0E030810
:1046D800B4160020EA0E0308583C00200020001001
:1046E80000180000650E03080000040800E803082D
:1046F8009D0E030854BF0208D70E0308BD230020EF
:104708000E100308080F03082C330020680400105B
:10471800120F0308B803002000247449FC25002068
:10472800220F0308784C00205F0F0308010F0308CD
:10473800E43200202DE9F0430024DFF86080DFF840
:1047480060908BB00746254604EB0806694630465C
:1047580023F063F93946684627F07CFA78B1694650
:104768004846FEF7CAFC00213046FFF749F8FEF735
:10477800EFFD3046FEF770FFFEF7EAFD013509341C
:1047880040F6B5339C42DFD115B90348FFF74CFE1C
:104798000BB0BDE8F08300BF7C0F03088CD0020883
:1047A800E40B03082DE9F0472DED028B8AB0804613
:1047B80023F076FD054628B1012824D198F8003069
:1047C8002A2B20D18A48DFF848828A4FFFF72CFE2F
:1047D800002404EB08066946304623F01EF96946B2
:1047E8003846FEF78AFC29463046FFF709F80934AF
:1047F800FEF7AEFD40F6B5339C42EAD10AB0BDECF7
:10480800028BBDE8F0873D21404627F0D4F9002807
:1048180000F0DF80034613F8012C202A03F1FF3152
:1048280030D0A3EB0803441C2278202A04F10101AC
:104838002AD0DFF8DCA10027DEB207EBC705554414
:104848006946284623F0E9F8684623F029FD6946B9
:10485800814602464046FCF73FFC002840F0BD80F8
:10486800B14540F0BA806B7903F00F08B8F1060F34
:104878000CD1204623F014FD21460246284623F099
:104888009EF8BBE70B46C6E70C46CDE713F0C0031E
:104898000AD0402B5ED05848FEF702FD2846FEF7A6
:1048A800DBFEFEF755FDA9E72378002BF3D053492B
:1048B800204627F0BDF90646204623F0F1FC864243
:1048C800E9D12046FCF73FFC2846B0EE408A23F0A9
:1048D8000BF807EE900AF8EEE77AB4EEE78AF1EE05
:1048E80010FAD8DB284622F0E9FF07EE900AF8EE26
:1048F800677AB4EEE78AF1EE10FACCD8B8F1050F72
:1049080017D0B8F1040F1FD1214614F8013B202B12
:10491800FAD0092BF8D0013900230A2011F8012F09
:10492800303AD2B2092A02D800FB0323F6E708EE90
:10493800103A284623F036F8B8F1050F36D8DFE8E4
:1049480008F032323E3E42452046FCF7DFFB08EED7
:10495800100AEEE7AB799FED2A8A1E2B96BF294EE7
:10496800064606EBC306002796F804A03B46B94660
:10497800574503D3B9F1000FDBD18CE7002BF9D1F0
:1049880033686FF0004253F827002146FCF7A4FB78
:10499800002808BF08EE107A0ABF012300234FF051
:1049A80001090137E4E718EE103A03706946164822
:1049B800FEF7A3FB00212846FEF722FF1EE718EEAC
:1049C800103A0380F2E780ED008AEFE780ED008A75
:1049D800ECE74046FFF7AEFE10E7013740F24D1313
:1049E8009F427FF42AAF0948FFF71EFD06E700BF84
:1049F800890F0308E40B0308B40F03089B0F03088F
:104A08000000000048FC0208A90F03087C0F0308F7
:104A18008CD0020870B50346FEF7C0FA30B3254BB8
:104A28001C680134172C05D823490C2202FB0412F8
:104A380095686DBB204A25460C210135172D0EDDE2
:104A4800002501FB0520866856B11D601FF084F91A
:104A5800324629461948FEF7A1FC2C4621E0F0D938
:104A6800A542EAD11648BDE87040DDE41846FCF7D7
:104A78004DFB1728044605D80F4A0C2303FB0023D7
:104A88009D682DB921460F48BDE87040FEF786BCE9
:104A9800084B1C601FF060F92A4621460748FEF7BC
:104AA8007DFC0C235C43044B185DBDE870401FF08F
:104AB80071BC00BF34000020ACF90208ED0F0308F8
:104AC800C30F0308D70F03082DE9F74F804623F0DB
:104AD800E7FB474DDFF844912F680446F0B9454895
:104AE800454EFEF70AFB012519F80430013B05FA8B
:104AF80003F33B4209EB040203D091683046FEF70A
:104B0800FCFA0C34B4F5847FEED117B93B48FEF7B4
:104B1800C7FB03B0BDE8F04FFEF71ABC02463849A0
:104B28004046FCF7D9FA064670B93648324DFEF7CA
:104B3800B7FB09EB0603284699680C36FEF7DDFA41
:104B4800B6F5907FF5D1E4E798F800302D2B03BF38
:104B580008F1010804F1FF344FF0010A4FF0000A90
:104B680000260C2303FB069B0193DBF80830009317
:104B7800194622464046FCF7AFFA019B00282FD180
:104B8800BAF1000F19D0162E0BD11F4B2B601F48FE
:104B9800FEF786FB00991E4803B0BDE8F04FFEF70C
:104BA800FDBB172E01D16B68F0E79BF800305A1E49
:104BB800012393401F432F60E9E7162E03D1C5F860
:104BC80000A01448E4E7172E17BF9BF800306F6069
:104BD80003F1FF3201231EBF93409F432F60F0E78C
:104BE8000136182EBED10C4803B0BDE8F04F1BE4C7
:104BF800D45C002002100308131003080C100308EB
:104C0800181003081D100308FFFF3F0028100308B1
:104C180014100308311003087C0F0308ACF90208CC
:104C28002DE9F84F054623F03BFB344F0446D7F8EF
:104C38000090C0B93248334D334FFEF731FB01269F
:104C480055F8241059B10B783BB106FA04F313EA6E
:104C5800090F02D03846FEF750FA0134F0E7BDE8F4
:104C6800F84FFEF775BB024628492846FCF734FA88
:104C780078B92748274C244DFEF712FB54F8041F37
:104C88000029ECD00B78002BF8D02846FEF735FA2F
:104C9800F4E72B78DFF86CB02D2B03BF013504F156
:104CA800FF344FF0010A4FF0000A00265BF8268017
:104CB800B8F1000F04D11848BDE8F84FFFF7B4BBAE
:104CC800224641462846FCF707FAA0B90120B04021
:104CD800BAF1000F0AD0FCF74BF91048FEF7E0FADA
:104CE80041460F48BDE8F84FFEF758BB40EA0900B7
:104CF80038600C48F2E70136D8E700BF34340020AA
:104D0800391003086CBE0208431003081810030882
:104D18004710030868BE02087C0F03082810030820
:104D280014100308311003082DE9F347204E2148D9
:104D38003768214CDFF89080DFF88490DFF88CA08A
:104D4800FFF772FB0025BD4202DB02B0BDE8F08729
:104D580033689D4229DCA288D3B2172B18D808EBF8
:104D68008303D3F80432002B08BF4B462168504612
:104D7800FEF7C3F9E3885A040CD5E0890090A389AB
:104D8800628921890D48FEF709FB01351034DAE7FD
:104D98000B4BEBE71B0405D5E268A1680948FEF751
:104DA800FDFAF2E7FEF7D4FAEFE700239B88FFDE6F
:104DB8006421002053100308641D00208E1003088E
:104DC8003E260308A010030860BD02087F100308F0
:104DD8000148FFF729BB00BFAA100308F7B503462F
:104DE800FEF7DCF8044618B1FFF7F2FF03B0F0BD98
:104DF80001AA1D491C4F184624F0E1FD2646254608
:104E080040B90B2D18D919490B2302461848FEF74B
:104E1800C5FAEBE744B1012C0AD001AA39460020B3
:104E2800013424F0CCFDEBE7FCF770F90546F4E714
:104E3800FCF76CF90646F0E7022C0DD1A6F57A735B
:104E4800B3F57A7F05D94FF4FA634FF47A720949BA
:104E5800DCE7094B23F81560074B084833F91520A0
:104E68002946FEF79BFAC1E7901B0308240D0308A7
:104E78002A0D030864190308A22D0020B6100308A0
:104E88002DE9F341044623F00BFA04283DD1631EB3
:104E9800E11C5A78A2F16100192898BF203A03F85A
:104EA800012F8B42F5D1DFF874802546271D15F8B0
:104EB800016B4046314626F07EFE20B13146284639
:104EC80026F079FE20B1FFF783FF02B0BDE8F0813C
:104ED800BD42ECD120461AF063FB0E480E4CFEF79B
:104EE800DFF90E4800231A1902A952780A44195CFE
:104EF80002F8081C0133042BF5D100236946084841
:104F08008DF80430FEF74AFADFE70028E5D0FFF70E
:104F18005FFFE2E7C3100308F86E0020E1F502081E
:104F28001510030870B58AB0044623F0B9F9C2B267
:104F38002AB926490120FEF763FD0AB070BD052293
:104F480023492046FCF7C8F840B91520FBF7FEFFB7
:104F58000028F2D01D49FBF7CBFFEEE7204601AA57
:104F68001C491C4E24F02BFD002402AD78B1052C01
:104F780002D1FFF72DFFE0E7FCF7C8F801AA45F8D2
:104F880024003146002024F01AFD0134EEE7052CF8
:104F9800EFD1029A0F2AECD8039D072DE9D8049C7B
:104FA800162CE6D8059800F17D03FA2BE1D806996E
:104FB800FF29DED8054B03F8225003EB82039870D3
:104FC8005C70D9700448FFF7ADFFB6E7355D002087
:104FD800C9100308901B03083E2603087FB5054641
:104FE800FDF7DCFF98BB04462B78002B37D1052C46
:104FF8003DD1BDF90440A3B2072B38D8BDF906103E
:10500800A1F2EE239BB240F2DC5083422FD8BDF9C7
:105018000820A2F2EE239BB2834228D8BDF90A00E9
:10502800814224DC824222DB914220DCBDF90C5013
:1050380005F17D039BB2FA2B19D8194B23F83410CC
:1050480003EBC4035A8098809D7104B070BD144965
:105058000022012004B0BDE87040FEF723BD2D2BCF
:1050680003D0A3F13002092A15D8042C03DD04B0BB
:10507800BDE87040ACE62846FCF748F804AB661C6F
:1050880003EB440424F80C0C15F8013F303B092BC2
:10509800FAD93446A8E7202BE9D101352646F8E7A6
:1050A800765D00202DE9F0410546FDF777FF0646BD
:1050B80030B1002228490120BDE8F041FEF746BD85
:1050C8006FF0004225492846FCF706F870B9224BD4
:1050D8004FF47A714FF4FA6219805A809980DA8015
:1050E80019815A819981DA81BDE8F0812846FCF757
:1050F8000DF80328044626D82846FDF757FF06462C
:1051080068B1FCF703F8012507463046FDF74EFF66
:1051180010B1FBF7FBFF25B9BDE8F04158E605469D
:10512800F3E7A7F2EE2240F2DC539A42F4D8A0F259
:10513800EE229A42F0D8084B23F8247003EB84033C
:105148005880BDE8F0813246032305490548BDE88B
:10515800F041FEF723B900BF42560020C9100308EA
:10516800CF1003082A0D030870B50446FDF716FF93
:10517800064630B100222E490120BDE87040FEF7F6
:105188001FBD05222B492046FBF7A6FF38B9284941
:10519800002243181030C0281A60FAD170BD20468A
:1051A800FBF7B4FF0B28054639D82046FDF7FEFE6D
:1051B800064640B3FBF7C7FF1D4B03EB051383ED12
:1051C800000A01243046FDF7F1FE064638B1FBF728
:1051D800BAFF174B03EB051383ED010A0134304680
:1051E800FDF7E4FE064638B1FBF7ADFF104B03EBC5
:1051F800051383ED020A01343046FDF7D7FE20B9C6
:10520800BDE87040E4E50446DCE7FBF79CFF084B8B
:10521800032C03EB051585ED030AF1D1AAE7324605
:105228000B2305490548BDE87040FEF7B7B800BF35
:10523800D0260020C9100308240D03082A0D0308EE
:105248002DE9F7438146FDF7A9FE064638B100224D
:1052580037490120FEF742FD03B0BDE8F083484618
:10526800FBF754FF0B2804465BDC0625454309F190
:1052780001008DF80760FDF799FEDFF8B4808146DC
:1052880005EB0807464638B1FBF740FF03289EBFE9
:10529800012378718DF807304846FDF787FE81466F
:1052A80060B1FBF733FF0D2808D8062303FB04631E
:1052B80098709DF8073001338DF807300DF107021B
:1052C80039464846FDF77FFEFDF770FE814660B11E
:1052D800FBF71CFF302808D8062303FB0463D870AB
:1052E8009DF8073001338DF807304846FDF75EFE1C
:1052F80060B1FBF70BFF0D2808D8062303FB0464F5
:105308009DF80730207101338DF807309DF807307C
:10531800062BA1D0002345F80830BB80FFF758FDC5
:105328009AE70B23324603490348FEF737F893E719
:1053380086260020240D03082A0D03082DE9F04FC6
:1053480087B00346FDF72AFE064620B1FFF740FD69
:1053580007B0BDE8F08F05AA6149DFF8B091DFF822
:10536800B0A1DFF8B0B1184624F029FB3446054651
:10537800B0464FF0FF37A5B95A4B78B20C2606FB5A
:1053880005F2D118D256824200F08C800135042DE6
:10539800F5D1B8F1000F34D153483946FCF786FAF5
:1053A800D6E7012E0ED0022E11D01EB92846FBF7E3
:1053B800ADFE074605AA4A49002024F000FB013645
:1053C8000546D8E72846FBF7A1FE8046F2E749469E
:1053D800284626F03FFC20B94449284626F03AFCE6
:1053E80008B144F001045146284626F033FC28B998
:1053F8005946284626F02EFC0028DBD044F002044B
:10540800D8E7002C08BF03240023E4B202930194D8
:10541800CDF800801A4619461EF0D6FB054610B98D
:1054280039463348BAE7424639463248FCF73EFA2D
:1054380039463148FCF73AFA304B1C6820461EF0D2
:10544800A3FB28461EF0A0FB00210846FBF76EFAD6
:1054580000210120FBF76AFA2046FBF796F970B1A4
:1054680001210020FBF762FA2046FBF788F9014684
:105478002846FBF78DF900210846FBF757FA28461E
:10548800FBF783F90028E7D001210020FBF74EFA4B
:105498002846FBF774F901462046FBF779F9002105
:1054A8000846D7E74D68002D3FF473AF39461448D6
:1054B800FCF7FCF954B169798C4207D022461148AF
:1054C800FCF7F4F9E1B22846FBF750F9EB6A002B38
:1054D800AED00D48FCF7EAF90023EB62A8E700BF5D
:1054E800901B0308C86E0020E0100308DA100308B8
:1054F80008110308271103089211030854570020C4
:10550800441103085C1103087C110308D710030831
:10551800DD1003080F1503082DE9FF410346FDF7C9
:105528003DFD38B136490022012004B0BDE8F04104
:10553800FEF736BC01900290039018465D1CFBF7FD
:10554800E5FD44B220461EF097FB064600283AD0F7
:105558008DF8084001242846FDF728FD074620B1AC
:10556800FBF7D4FD01340190E4B2DFF89880002500
:105578003846FDF71BFD0746F8B1FBF7C7FD0022CB
:1055880058F822108842D3B203D00132112AF7D139
:10559800002358F8232090420FD1022D1BD0032D51
:1055A8001ED0012D11D05A1E0F2A03D88DF80930AC
:1055B8000134E4B20135042DDAD1052C16D804B033
:1055C800BDE8F04104E40446C5E71A1F042AF1D8EF
:1055D8008DF80A30ECE7082BECD88DF80C30E7E7AB
:1055E8005A1F052AE6D88DF80B30E1E701AB03CB4B
:1055F800306018687160B06004B0BDE8F08100BF29
:10560800946E002044F4020870B538B34C684CB965
:1056180045682A686D79D6680223AB40DB439BB2A4
:105628003340D3608A683AB943681D68EB6823F051
:1056380001031B041B0CEB60816044B144682168C2
:105648006479CD680223A3409BB22B43CB602AB177
:1056580043681A68D36843F00103D36070BD234BD5
:1056680002682DE9F047064600251F4653F8351015
:105678008A4209D1EDB2102D0AD91D490020FCF744
:10568800DBFC0020BDE8F0870135112DEED1F4E7F1
:10569800DFF8648058F825A0C146BAF1000F15D18B
:1056A8000A216420FCF720FD48F8250008B91149B3
:1056B800E5E76422514626F067FA58F8253007EBEB
:1056C800C5071F605B60DB615B63DB64707959F859
:1056D8002540182101FB0043002218461A759E60D8
:1056E8001A61DA600430BDE8F08700BF78C60208A6
:1056F800C0110308E5110308183B00201F4B5A6826
:105708001F4BC2F3080270B582B9EFF311826AB970
:105718001C481D491D6886681A689542FAD1D1F857
:1057280098209642F6D8194B0CCB19E0EFF311826A
:10573800102181F3128801F1E0218E68086810F4C5
:10574800803F11481EBF0124C0F894408E68196834
:10575800D0F89450D3B283F311880C4B0CCB0D4482
:105768004FF47A74A2FB040104FB0311801B61F15E
:10577800000123F0BDFBE4FB050170BD00ED00E076
:105788002C5F002010E000E0B4160020603B0020F1
:10579800F8B504460D46FFF7B1FF06460F46FFF77A
:1057A800ADFF801B61EB0701A94208BFA042F6D3F9
:1057B800F8BD10B5044604B910BD4FF47A70002145
:1057C800FFF7E6FF013CF6E72DE9F04180460B259F
:1057D800013D04D11C4B1D4ADA60BDE8F08101216E
:1057E8000846FBF7A3F800210846FBF79FF808F1E5
:1057F8000106322705240120FBF73CF80020FBF7BF
:1058080039F80120FBF784F83846FFF7D2FF01206A
:10581800FBF730F80020FBF72DF80020FBF778F8AD
:105828003846FFF7C6FF3CB1013CE4D14FF4FA70AB
:10583800FFF7BFFFFA27DEE7013EDCD14FF47A70AD
:10584800FFF7B7FFC4E700BF00ED00E00400FA056A
:105858002DE9F04F8DB019F0DBFEDFF8B481674B0E
:10586800A3EB08034FF003090193182200210DEB65
:10587800020026F089F9019B0793614BCDF8188047
:105888001A69120641BF5F4A5A6002F188325A60AB
:105898000CAC012534228DF82C50DA607E2304F8F4
:1058A800243D2A46214606A8FBF7C4FB21462A4682
:1058B8000020FBF7D8FB544CADF80E004FF0000B5E
:1058C800524B9C423AD3022204A9002406A8ADF800
:1058D8001040FBF7AFFBBDF80E00022204A9FBF74E
:1058E800C2FB0CA9022221F8220D06A8FBF7A2FB95
:1058F800099860B108ABC0F104022146184426F0AB
:1059080043F9089906A8FBF73BFB09940A909DF810
:105918002C300A9A23B13A490B6943F080030B6192
:10592800B9F101095FD0002A9FD198F800307E2B89
:105938005BD1FBF7A3FB00285AD156E062888DF8AB
:1059480015B0C2F30B06B31DADF810302388C3F3AE
:105958000B011B0B8DF814301304ADF812101BD477
:10596800062204A906A8FBF765FBBDF80E0006226F
:1059780004A9FBF778FB3246ADF80E00616806A86B
:10598800FBF758FBBDF80E0061683246FBF76BFB6E
:10599800ADF80E00143493E700273D460135EDB20B
:1059A800062204A906A88DF81550FBF743FBBDF89D
:1059B8000E00062204A9FBF756FB6368ADF80E003B
:1059C80003EB070A3246514606A8FBF733FBBDF83E
:1059D8000E0032465146FBF746FB032DADF80E008C
:1059E8003744DBD1D6E7002A9FD00520FFF7ECFE2D
:1059F80019F0F2FD0DB0BDE8F08F00BF00000408FB
:105A0800002002402301674570310308CC340308A5
:105A180000E8030810B504460748FDF741FCFDF708
:105A280083FBFFF715FF05492046FDF7F6FA08B98D
:105A3800FDF74CFC10BD00BFFF110308E10C030883
:105A4800044808B5FDF72CFCFFF702FF0020FDF71E
:105A58003DFC00BF151203082DE9F04F2DED048B16
:105A680083B019F0D5FD964C964B9C42C0F08380CC
:105A7800954C207800F03BFD6078944C00F010FDC8
:105A8800934B5A899989914224BF00225A81198AD5
:105A9800DA89914224BF0022DA818E4A0192136882
:105AA800D88F998F884224BF00229A87237C627CF2
:105AB80089489A4224BF00232374FBF759FA874B7D
:105AC8001B78012B02D14020FBF752FA844F0026A5
