:020000040800F2
:100000000020001025700208C1700208616002081B
:10001000C1700208C1700208C1700208000000002F
:10002000000000000000000000000000C170020895
:10003000C170020800000000C17002082907000812
:10004000C1700208C1700208C1700208C1700208C4
:10005000C1700208C1700208F1090008FB0900081C
:10006000F9090008F7090008F5090008D91602087F
:10007000C9160208B9160208A91602089516020840
:10008000811602086D160208C1700208C1700208CC
:10009000C1700208C1700208C1700208F3090008AB
:1000A000E512020841130208D11202086513020882
:1000B000311302082113020811130208C17002084B
:1000C000C1700208C1700208C1700208C170020844
:1000D000C170020801160208F9150208F11502089C
:1000E000EF090008C1700208C1700208C17002085F
:1000F0000D130208C1700208F9120208C17002084B
:10010000000000000000000000000000C1700208B4
:10011000C1700208C1700208C1700208C1700208F3
:100120005916020845160208311602081D16020863
:1001300009160208C170020800000000000000005B
:10014000C1700208C1700208C170020800000000FE
:10015000000000000000000000000000000000009F
:100160000000000000000000C1700208C170020819
:10017000C170020800000000000000000000000044
:0801800000000000C17002083C
:10018800436A8269D154436A02690133934228BFA2
:100198000023426B4362136843F080031360704787
:1001A8000346026A4169885CD96801328A4228BFDD
:1001B8000022C0B21A627047826A406A131A584213
:1001C80058417047426A836A00699A4238BF1218D8
:1001D800D31A0138C01A7047C269036A9A422FBFFE
:1001E800D01AC0688018C01A704783681A68937A52
:1001F8000133DBB20A2B937205D9507802490023E8
:1002080021F81030937270477234002070B54F4C4B
:10021800237814200133B3FBF0F200FB1233237070
:100228004B4B5D68186D9A68A94208440CD293F844
:100238005850002D00F0858000F58030824238D378
:10024800C2F5803202440AE08242F9D293F858504B
:10025800002D0CBF00254FF48035821A521B5960BF
:100268006178DA600022013183F8582014229860FE
:1002780091FBF2F002FB10116170A178D86801318E
:1002880091FBF2F502FB1512A27040F68C22904207
:100298003CD9197893F9552091422BD10A1F0C2A81
:1002A80028D893F85620182A06D8013283F8562001
:1002B80004E04FF48035D0E783F8541093F95420C4
:1002C80091420FD193F8570060B1224C224D002083
:1002D800904211DB204800240F2A13DD1F480278C2
:1002E80001320270012283F8572083F8551000224A
:1002F8001A7070BD0022D9E754F8046F25F8106011
:100308000130E5E720F812400132E5E793F857207D
:10031800DAB1A0F2EF2140F2DA52914207D81A7806
:100328000F2A04D8111D013243F82100E0E700220A
:1003380083F85720104699180432402A0861FAD1E8
:1003480070BD8242BFF47CAF87E770BDD008002043
:10035800C81F0020D41F0020723400205034002011
:1003680010B50B48037814240133B3FBF4F204FBF3
:100378001233084A0370136D01330B4413654FF6AB
:10038800FF73994204BF012382F8583010BD00BFA3
:10039800D0080020C81F00200120704701207047A6
:1003A80070B5114C05460E4600220023D4E902011F
:1003B80026F098FA20B10AA3D3E90023C4E902235E
:1003C800304625F0C1FFD4E9022326F04DF926F086
:1003D800BBFA04EB4504208270BD00BFAFF3008078
:1003E800ABAAAAAAAA461040D0080020A0F1300360
:1003F800DAB2092A01D818467047A0F16103052B23
:1004080001D857387047A0F14103052B94BF3738FE
:100418004FF0FF307047F0B50124B0FBF4F58D4282
:1004280003D200271CB91C70F0BD4C43F5E7B0FBA4
:10043800F4F604FB1600B4FBF1F41FB9002E01DC3E
:10044800002CEFD1092E03F1010E08DD002A14BF9C
:100458003725572535441D7001377346E2E73025A7
:10046800F8E703685A1C02601970704703685A1C41
:100478000260197070472DE9F84F002B14BF4FF038
:1004880030094FF020090A9B141E07468846BABF58
:1004980064424FF0010B4FF0000B13F8012B02B12F
:1004A800DCB9BBF1000F1ED1254615F1FF3516D278
:1004B80023462C460A9D5E1B05EB060A15F8011B10
:1004C80099B9BBF1000F05D02546002D10DC002C92
:1004D800A8BFA2445046BDE8F88F013CDDE7494675
:1004E8003846C047E1E70023E4E73846C047E3E77A
:1004F80049463846C047013DE7E7D0ED006AD0EDF0
:10050800057AE6EE807AB0EE407AB0EE670AD0ED72
:10051800037AD0ED016A67EEC07AE7EE267AD0ED6D
:10052800066A77EEA67AD0ED026AC0ED057AD0EDBC
:10053800047A67EEC07AE7EE267AC0ED067A70474D
:10054800704738B582681468A578034645B9012311
:10055800A370A1800A222946BDE8384020F01ABFBE
:10056800A08889B2814238BF5A68E1803DBF1268CD
:10057800D26A121A091A38BF89182181064A617885
:10058800208922F811000025A5700A2201211846A9
:1005980020F000FFA57238BD72340020094B07EE29
:1005A800901A53F82030B8EEE77A93ED040AD3EDA9
:1005B800057A10B5A7EE270ADC6827F0BDF8206099
:1005C80010BD00BF986000202DE9F0410B4DDFF809
:1005D80030802C686A69012714400CB9BDE8F081A5
:1005E800B4FA84F3C3F11F0307FA03F658F823009B
:1005F8000368984724EA06046E61EEE700040140A8
:10060800AC4C002070B538B34C684CB945682A68C2
:100618006D79D6680223AB40DB439BB23340D3608D
:100628008A683AB943681D68EB6823F001031B0424
:100638001B0CEB60816044B1446821686479CD6823
:100648000223A3409BB22B43CB602AB143681A68AC
:10065800D36843F00103D36070BD1E4B5A681E4B2C
:10066800C2F3080270B57AB9EFF3118262B91B4878
:100678001B491D6886681A689542FAD14A6B9642EA
:10068800F7D8184B0CCB17E0EFF31182102181F348
:10069800128801F1E0218E68086810F4803F104844
:1006A8001EBF012404638E681968056BD3B283F3F7
:1006B80011880C4B0CCB0D444FF47A74A2FB040147
:1006C80004FB0311801B61F1000126F00BFBE4FB26
:1006D800050170BD00ED00E0F452002010E000E0DC
:1006E800D0080020185E0020F8B504460D46FFF734
:1006F800B4FF06460F46FFF7B0FF801B61EB07010A
:10070800A94208BFA042F6D3F8BD10B5044604B903
:1007180010BD4FF47A700021FFF7E6FF013CF6E7C1
:10072800EFF31183102282F3128807490A68013215
:100738000A60064A06499068486300200863126800
:10074800DBB283F311887047F452002010E000E018
:10075800D008002003689B6A03B1184770470368F4
:100768005B6A03B11847704703689B6918470368B9
:100778005B69184703681B6918470368DB681847F3
:1007880003689B68184703685B68184703681B6819
:1007980018470368DB692DE9F04105460E46174600
:1007A8008BB90C463B1B3344002B01DCBDE8F081C0
:1007B8002846FFF7E5FF0028FAD014F8011B284661
:1007C800FFF7E4FFEEE7BDE8F0411847E1E7014B2A
:1007D8001868DBE7C437002038B505460C4614F81E
:1007E800011B01B938BD2846FFF7D0FFF7E70B4BCF
:1007F8001B681B0110B406D5094B1B685B050AD59D
:100808005DF8044BCCE5074B53F820301BB10728A3
:100818009CBFDB6819605DF8044B7047A06200203C
:10082800F44C002004210020F0B5094E34683F2C18
:100838000DDC0FC8074F4FEA041E0EEB070585E8CD
:100848000F00054B1B684EF8073001343460F0BDCB
:10085800A41F0020A41B0020F45200201FB5ADF8EF
:100868000A30BDF81830ADF8040041F48041ADF805
:100878000C306846BDF81C30ADF80610ADF80820FD
:10088800ADF80E30FFF7D0FF05B05DF804FB064B5E
:1008980053F8202032B193881268918A0B4218BF0E
:1008A8001B049361704700BF98A2020810B50409A1
:1008B800013C052C00F00F0215D80C4B33F814102E
:1008C80041FA02F313F001000ED0012090400138E4
:1008D800084026F01FFA064B1B5D1844054B0C22F6
:1008E80002FB003010BD002010BD00BF8CA2020822
:1008F800649902089818002010B1036882881A8544
:10090800704710B1036882889A61704738B183884C
:100918000268002914BF002110218B4093617047A1
:10092800044B01461868044B1B780BB981F0010190
:10093800ECE700BF882100208C210020024B81F0C9
:10094800010153F82000E1E798A202082DE9F041DF
:1009580080460B25013D04D11C4B1D4ADA60BDE8D9
:10096800F08101210846FFF7E9FF00210846FFF75B
:10097800E5FF08F10106322705240120FFF787FF6C
:100988000020FFF784FF0120FFF7CAFF3846FFF772
:10099800BCFE0120FFF77BFF0020FFF778FF002057
:1009A800FFF7BEFF3846FFF7B0FE3CB1013CE4D18B
:1009B8004FF4FA70FFF7A9FEFA27DEE7013EDCD113
:1009C8004FF47A70FFF7A1FEC4E700BF00ED00E026
:1009D8000400FA0530B1036882881B8A1A4214BFE2
:1009E800012000207047EFE5EEE5EDE5ECE5EBE5ED
:1009F800EAE5E9E52DE9F3410446184616460D46B1
:100A08001F4625F047FB2368E67228440022A0729F
:100A18000092D3F8148032463B4629462046C04708
:100A280002B0BDE8F081036810B504465B689847DA
:100A3800236820469B689847A37B013BA37310BD9E
:100A4800036810B504461B689847236820469B68CE
:100A58009847A37B0133A37310BD036810B59B6847
:100A68000446984701232373FF23637310BD0F4B7C
:100A780098420AD0A3F57843984212D003F58063D0
:100A8800984210D04FF0FF3070470023084A1421D5
:100A980001FB03231A8A013292B21A82188A80B2A1
:100AA80070470123F2E70223F0E700BF003001405E
:100AB8004800002008B540F2E9330289920707D5BB
:100AC800017340F2E9330289D20709D5007B05E0BA
:100AD800013B9BB2002BF0D1FFF7C9FFC0B208BDA4
:100AE800013B9BB2002BEED1F6E770B5164690F9A4
:100AF8000C20142353430C4AD55883689A0704469C
:100B080002D40069FFF7F8FE2846FFF7D3FF012259
:100B18003146284624F0AAFAA3689B0702D4206924
:100B2800FFF7EFFE012070BD48000020F8B516461B
:100B380090F90C201F46142353430C4AD558836858
:100B48009A07044602D40069FFF7D6FE2846FFF745
:100B5800B1FF3A463146284624F088FAA3689B0735
:100B680002D42069FFF7CDFE0120F8BD480000201F
:100B7800F8B5164690F90C2014235343104AD5585B
:100B880083689A0704460F4606D40069FFF7B4FE47
:100B980001200021FFF7A8FD39462846FFF78AFF04
:100BA80031462846FFF786FFA3689B0706D4012035
:100BB8000021FFF799FD2069FFF7A3FE0120F8BD8A
:100BC8004800002030B40579022D06D18368DB0780
:100BD80058BF41F0800130BC87E7002030BC704727
:100BE80070B40679022E06D18468E40758BF41F034
:100BF800800170BC9AE7002070BC704730B405795A
:100C0800022D06D18368DB0758BF01F07F0130BC95
:100C1800AEE7002030BC70470A4B70B50E469D6B9E
:100C2800811C89000446F2B201F0FC012846FFF756
:100C3800E5FFA1000931320A2846C9B2BDE8704073
:100C4800DCE700BFD00800202DE9F0410E4E8046B9
:100C5800002406F12C07E0B200F0030343450ED14F
:100C680036F8145037F81430EB1A002BB8BF5B4233
:100C7800052B04DD2946FFF7CFFF27F81450013470
:100C8800102CE8D1BDE8F081E008002038B50E4B03
:100C98009D6B1022002141F2D774B4FBF0F4284672
:100CA800FFF7ACFF0120FFF730FD621ED2B2FE2134
:100CB8002846FFF7A3FF0120FFF727FD28468022DB
:100CC8000021BDE8384099E7D008002073B50279C3
:100CD800022A22D103238DF8033090F90C001F4C0F
:100CE8008DF8022004238DF804301423434302A80E
:100CF8000844E3581A49002601258DF800608DF84C
:100D080001508B4210F8080C09D0A1F578418B42AC
:100D18001FD001F580618B421DD002B070BD3146F5
:100D28001A8822F040021204120C14251A8005FBBE
:100D380001411A88C96822F0380231F810101204EB
:100D4800120C0A431A801A8892B242F040021A80A2
:100D5800E3E72946E4E71146E2E700BF4800002040
:100D68000030014010B5427A044632B1036800F100
:100D78000A01406898470023637210BD064B1B6840
:100D8800597A4A1C1944D2B25A728872197A914215
:100D980001D81846E6E770477837002010B4447A3F
:100DA800631C0444DBB24372A172027A9A4202D8ED
:100DB8005DF8044BD6E75DF8044B704738B5094D2C
:100DC800441E14F8011F01B938BD2868427A531C23
:100DD8000244DBB243729172027A9A42F1D8FFF769
:100DE800C1FFEEE7783700200048E7E724EB020868
:100DF80008B5FFF7E3FFBDE80840F5E7124B53F8E5
:100E0800200070B5F8B1114A062303FB002393F9BB
:100E18000140621C16D01879A8B10D4A0D4E155D17
:100E2800DA7864211423002061438C18013B36F8DA
:100E380014402A4410FA84F0F7D11423B0FBF3F0DD
:100E480080B270BD002070BD942100205C6000203D
:100E580040220020CC5E002038B503200D46144601
:100E6800FFF7CCFF07EE900AB8EE677ADFED0A7A53
:100E780027EE277A5DB1F8EE047AF0EE006AE7EE25
:100E8800267A9FED067A67EE877AC5ED007A0CB16F
:100E9800034B236038BD00BF6740533A00007A44D3
:100EA8003313904330B5094B0949C0B28B4200D384
:100EB80030BD5A88140406D55D68DC68C2F30B029D
:100EC80000FB025222601433F0E700BF000C030855
:100ED8005C0F030870B5448806460D46C4F30B043E
:100EE80000212246284628F0B7FC3169084B994270
:100EF80008D3084B994205D222462846BDE87040DF
:100F080028F085BC19B12846BDE87040084770BD77
:100F18005C0F0308D41103084388426813F4004F98
:100F28001EBFC9B2C3F30B0301FB03221146D1E76D
:100F3800064B07498B4202D30023184670471A888C
:100F4800C2F30B029042F8D01433F3E7000C030805
:100F58005C0F0308024A136823EA00001060704718
:100F6800242E00202DE9F341056906460F467DBB76
:100F7800D0F80080C8F30A0323B30023D6F8008012
:100F8800019323F079FD042819D1224C236943F0F9
:100F980001032361BBB2A8F8003023F06DFD0428DB
:100FA8002ED108F102030193019B3F0C1F8023F00F
:100FB80063FD2369042823F00103236125D06FF022
:100FC800010505E023F058FD042805D04FF0FF3552
:100FD800284602B0BDE8F0810E4C236943F00203B5
:100FE8002361C4F81480236943F04003236123F08C
:100FF80043FD2369042823F002032361BDD0E5E7FC
:10100800236923F001032361D9E73368043333608C
:10101800DEE700BF00200240F8B504460D468E18F2
:101028000027B54201D12069F8BDE368591CE16089
:10103800234415F8012B1A720429F2D1A16820461D
:10104800FFF790FFE7602061EBE738B58D180C4695
:10105800AC4200D138BD14F8011B0EF09BFDF7E738
:1010680070B501221049114C114E0020FFF7EDFF19
:1010780022884AB1A518B54213D2052A11D92146AA
:10108800FFF7E3FF2C46F3E721460222FFF7DDFFD7
:101098006388084AC31AA41A074A58421480584158
:1010A80070BD002070BD00BF00E8030801E8030818
:1010B80000000408FCE703080C15002030B50244C2
:1010C8000446944201D1002011E014F8013B11F8C4
:1010D800015BA3F141001928A5F1410098BF203315
:1010E800192898BF2035581B01D1002DE9D130BDF2
:1010F80070B5034610F8012B202AFAD0092AF8D037
:101108002D2A0ABF034601254FF0FF35591E00243A
:101118000A2611F8010FFFF769F90A2802D905FB19
:1011280004F070BD06FB0404F3E730B50278202A0A
:10113800034600F10100F9D0092AF7D02D2A47D13A
:101148000346BFEE000A9FED3A7A1A46F2EE046AA9
:10115800134612F8010BA0F13001CCB2092C3DD98D
:101168002E280BD1F2EE046A1146B0EE666A0B46E1
:1011780011F8012B303AD0B2092838D91A7802F080
:10118800DF02452A4FD15A782D2A3BD1023301205C
:10119800013B00220A2513F8011F3039CCB2092C73
:1011A80036D9B2F59A7F28BF4FF49A72DFED216ADB
:1011B8001346F7EE007A072B2DD802F00702F2EE5D
:1011C800046A62BB88B3C7EE276A20EE260A30BDE0
:1011D8002B2A08BF0346B7EE000AB4E707EE901AB9
:1011E800F8EEE77AE7EE267AB0EE677AB0E707EE30
:1011F800902AF8EEE77AC7EEA65A66EE866A37EEC8
:10120800257AB4E72B2A14BF013302330020BFE745
:1012180005FB0212BFE767EEA67A083BCBE767EE4D
:10122800A67A013ACDE7F7EE007A67EE276ACCE7AF
:101238000000000020BCBE4CB5EEC00ADFED2D7AE0
:10124800F1EE10FACCBF30EE270A30EE670ADFED78
:101258002A7A20EE270A30B5FDEEC07A87B017EE5D
:10126800904A054684EAE470002303A9A0EBE470E1
:1012780000930193029323F053FC002CACBF20236E
:101288002D2303A88DF8003024F004FF012822D173
:1012980030238DF801308DF802308DF8033003A922
:1012A800684628F0E1FA684624F0F4FE0338C4B230
:1012B80022466946284628F00EFB00232B550F4985
:1012C800284628F0D1FA0DEB0401284628F0CCFA7C
:1012D800284607B030BD022805D130238DF80130EB
:1012E8008DF80230DBE7032804BF30238DF8013086
:1012F800D5E700BF6F12033A00007A440AF50208E6
:1013080070B5064615460846B6FBF2F414B12046F9
:10131800FFF7F6FF05FB1464024B1B5D00F8013B69
:1013280070BD00BFDCE30208084BD3E9002352EA92
:10133800030108D006490968521843F10003C0E9BF
:101348000023012070470020704700BFD0530020C1
:10135800F4520020F0B5264E04460F460FCE8DB04D
:101368006D460FC50FCE0FC596E80F0085E80F0034
:1013780014F0030335D1642194FBF1F201FB12420E
:1013880042B94FF4C87294FBF2F302FB13430033E3
:1013980018BF0123C3F11D0340F26D12019304200D
:1013A800631E93FBF0F002FB04046FF0630093FBF1
:1013B800F0F020444FF4C87493FBF4F3184406305B
:1013C80000220721013F5DF822309742184490FB24
:1013D800F1F4C4EBC404A0EB040004D1181A0DB056
:1013E800F0BD0123D6E701320C2AECD10020F6E744
:1013F8006C990208F8B514461D4606464FF47A72F1
:1014080000232046294625F01DFC2C4B3C22034492
:1014180093FBF2F002FB1031B17190FBF2F102FB89
:101428001102182072714FF4616293FBF2F292FB81
:10143800F0F100FB112232712149224A93FBF2F2AA
:1014480093FBF1F3980040F2B55392FBF3F103FBE1
:101458001123B3F5896F2DDA40F2DA2293422BDC9F
:10146800B3F5B77FB4BF002201221749182707FB3D
:1014780002170B2137F811E0734501DA0139F9D168
:1014880000F5FA6010443080481CB0700C2000FB56
:1014980002120E4901EB4202013392F838209B1ADE
:1014A800F3704FF47A7200232046294625F0CAFBD0
:1014B8003281F8BD0322D8E70222D6E780BC92C762
:1014C800801F8607805101009C99020864990208D0
:1014D80037B504466846FFF727FF054638B1DDE90A
:1014E80000232046FFF786FF284603B030BD0123BE
:1014F8002080A370E37020716071A0712081F3E7F0
:1015080010B50288C378A2F5FA62591E40F2B554A4
:10151800930804FB031381780C24013902F00302B9
:1015280004FB02120C49847901EB42021821128F44
:101538001344027901FB0323427900893C2101FB12
:101548000323064A224401FB03234FF47A72002145
:10155800C2FB030110BD00BF6499020880436D38C7
:101568000B684A689A4206D05A1C0A601B7800B178
:101578000370012070470020704710B502681146BB
:10158800531C036011F8024B0160D31C51780360AF
:1015980093781B0443EA0123111D0160D07823438B
:1015A80043EA006010BD03685A1C02601A4612F82C
:1015B800021B0260587841EA0020704791E80C004D
:1015C8009B1A012B10B5044606DD0846FFF7EBFF12
:1015D80004B12080012010BD002010BD03685A1CF2
:1015E80002601878704738B5044609C81B1A9A4231
:1015F800154606DC28F00BF922682A4422600120EF
:1016080038BD002038BD38B504460068154628F0B6
:10161800FEF822682A44226038BD03685A1C02601A
:10162800197003685A1C02600A0A1A7003685A1C67
:1016380002600A0C1A700368090E5A1C02601970BD
:10164800704703685A1C026019700368090A5A1C1B
:101658000260197070472DE9F04F89B082468B46B9
:1016680016461C4600270DF114083178002934D09D
:10167800252904D050460136D8470137F5E7717857
:101688002D2905BFB178F51CB51C012618BF002609
:10169800302906BF2978012300230293A1F13003E2
:1016A80008BF0135092B4FF0000907D80846FEF797
:1016B8009DFE0A2815D90EB1C9F100096C2940F020
:1016C8008B802A78642A05F1010600F0BC801BD8BB
:1016D800252A62D00BD8002AC7D1384609B0BDE800
:1016E800F08F0A2303FB090915F8011BDEE7582AC6
:1016F8001BD0632AB9D1354621785046D847261DD4
:10170800013734462E46B0E7732A3AD008D8662AFD
:1017180049D06E2AA9D13546236804341F60F1E701
:10172800752A00F08B80782A9FD1A2F15800424296
:1017380004F10405434642411021206807E02D23A7
:101748008DF8143040420DF1150300220A21FEF7EE
:1017580062FE2C46CDF80080029B4A465946504608
:10176800FEF789FE074480E72D238DF814304042A8
:101778000DF1150300220A21FEF74DFE2E46039CAB
:10178800E8E73546236800934A4600235946504601
:10179800FEF771FE261D0744B3E73546252150465E
:1017A800D8470137AEE73546073424F00703D3E9B5
:1017B800000103F1080425F0E7F800EE100A40469E
:1017C800FFF73AFDCDF80080029B4A46594650463D
:1017D800FEF751FE074495E764293CD00BD825292C
:1017E800DCD003D800293FF478AF8BE758290FD015
:1017F800632981D086E77329C4D004D86629D3D059
:101808006E2989D07EE775290FD078297FF47AAFC1
:1018180058394A4204F104064A41206843461021D7
:101828003446FEF7F8FD2E4694E7231D0393002265
:1018380043460A212068FEF7EEFD9FE7251D434633
:1018480000220A2179E72068002804F10405FFF640
:1018580076AF434679E72068231D0028039383DB8E
:10186800434687E70FB413B5084C0949206804AB11
:1018780053F8042B0193FFF7EEFE2068FFF772FA86
:1018880002B0BDE8104004B0704700BF78370020B0
:10189800A50D000810B5074C0B46024606492068FE
:1018A800FFF7D9FE2068FFF75DFABDE81040FFF7A3
:1018B8009BBA00BF78370020A50D00080FB407B504
:1018C80004A951F8040B0191FFF7E4FF03B05DF898
:1018D80004EB04B0704770B54379164603F00F0265
:1018E8008AB00546062A4CD8DFE802F00413161819
:1018F8001B1D49000C7813F0C00344D0402B3CD189
:101908002146284620F00CFF002856D0FFF7AAFFF2
:1019180033E091F90040EEE70C88ECE7B1F90040BC
:10192800E9E70C68E7E791ED000A6846FFF784FCF1
:1019380001462748FFF796FFFEB16B7913F0C00FF9
:101948001BD1284620F01CFF07EE900A6846B8EE27
:10195800E70AFFF771FC01461E48FFF783FF284698
:1019680020F0F6FE07EE900A6846B8EE670AFFF721
:1019780063FC01461748FFF775FF0AB070BD1448AD
:10198800F9E70024B7E7042A0CBF13481348214697
:10199800FFF768FF002EF0D06B7913F0C00FECD181
:1019A800284620F0EDFE0446284620F0D1FE2146C8
:1019B80002460B48FFF756FFDFE76946284620F046
:1019C80078FF6A4621460748FFF778FFD5E700BF4A
:1019D800F5E90208F4E902080CE7020897EA0208A8
:1019E80001E4020808E402080CB407B510F040004E
:1019F80009D069B92320FFF7C1F905A90498019115
:101A0800FFF748FF012003B05DF804EB02B0704710
:101A18000020F8E70CB4830607B500D551B905A92D
:101A280004980191FFF736FF012003B05DF804EB3D
:101A380002B070470020F8E70EB40FB505AB01906F
:101A480053F8042B0649039301A8FFF704FE019BF2
:101A580000221A7004B05DF804EB03B0704700BFB1
:101A6800750400080FB437B50B490C4809680068BD
:101A78000B4D06AB53F8042B0193FFF7ECFD04461E
:101A88002868FEF774FE0028FAD0204603B0BDE8A7
:101A9800304004B0704700BFA81F0020AC1F0020D2
:101AA800C43700202DE9F04F00F1100E85B007462D
:101AB8000546002600F14009B0462B46BC4616E014
:101AC800F4EC016A1AED047AD3ED007AE6EEC77AEF
:101AD800C3ED007AAC420AF1100AF1D108F101080D
:101AE800B8F1040F0CF1040C03F1040303D0AEF1B8
:101AF8001004E246EEE74FEA860B73464B451ED0CC
:101B080003EB0B0AB8469C4609E0FCEC016A18EDA9
:101B1800047AD4ED047AE6EEC77AC4ED047AD445A3
:101B280008F11008F1D1D4ED046A95ED007AC6EEFB
:101B3800877A103317EE90CA44F810CFDEE70136E3
:101B4800042E05F114050EF1100E07F10407B3D1A8
:101B58000024009401940294039402F1100C0746A7
:101B680006466C4652F8045B2560EE463546BD4293
:101B780028D1624504F1040406F1100605F11407A2
:101B8800F0D104AE00F13C050A4656F8044D42F87F
:101B98000C4F2C460434A34202F10402D1ED037A1F
:101BA8001BD12A46D2ED006A87EEA67A103B834203
:101BB800A5F11405A1F1040181ED047AE4D105B081
:101BC800BDE8F08FBEEC017AD4ED007AF5EC016A3D
:101BD800E6EEC77AC4ED007AC9E7D4ED006A92ED63
:101BE800007AE6EEC77AC1ED037AD3E780EAE073BC
:101BF800A3EBE0738B4206DB002801DD401A704737
:101C080002D0084470470020704744F2506398425D
:101C180003DDA0F50C40A0387047034B9842BCBFC9
:101C280000F50C40A0307047B0B9FFFFF0EEE06A55
:101C3800B0EEC07AF4EEC76AF1EE10FAD4BFB0EE97
:101C4800476AB0EE666AB5EE406AF1EE10FA48D01F
:101C5800F4EEC76AF1EE10FA54BFF0EE475AF0EE10
:101C6800665AC5EE867A9FED206ADFED205A9FED11
:101C7800205AE7EE865A9FED1F6AA7EEA56ADFEDA8
:101C88001E5AE7EE865A9FED1D6AA7EEA56ADFED9C
:101C98001C5AA7EEA55AF7EE005AE7EE855AB1EEA0
:101CA800466AC6EE257AF4EEC76AF1EE10FA48BF26
:101CB8009FED147AF5EEC00A48BF77EE677AF1EE29
:101CC80010FA48BF9FED107AB5EEC00A48BF77EE0C
:101CD800677AF1EE10FA48BFF1EE677AB0EE670A5C
:101CE8007047DFED0A7ABEE739094E3DE3B59EBE7F
:101CF80069A2163E88FA16BE45FE7FBFA7DFA8B4C4
:101D080099FB243FDB0FC93FDB0F4940000000006F
:101D1800FDEEC07A17EE903A2033402B43D8DFED22
:101D2800237A9FED237AB4EEE70AF1EE10FA28DC65
:101D3800DFED207A9FED1E7AB4EEE70AF1EE10FA95
:101D480022D4DFED1D7AB4EEE70AF1EE10FA1EDDBB
:101D580030EE670A37EEC00A60EE007ADFED176AE8
:101D68009FED177AA7EEA67ADFED166AE7EE876A87
:101D78009FED157AA7EEA67A20EE276AA6EE070A47
:101D8800704730EE470ACEE730EE070AD4E79FEDFA
:101D98000F7AB4EEC70AF1EE10FA44BF30EE270A04
:101DA80037EE400AD8E79FED0A0A7047DB0F494033
:101DB800DB0FC940DB0F49C0DB0FC93F9A7C2E36C9
:101DC800FAAF4FB93587083CA4AA2ABEDB0FC9BFB2
:101DD80000000000DFED027A30EE270A98E700BF26
:101DE800DB0FC93F38B5334CB4FBF2F4A142F0EE37
:101DF800404A1D46F7EE005A4FF0000453D207EE52
:101E0800901A9FED2D7ADFED2D6AF8EE677A67EE6E
:101E1800877A07EE102AB8EE477A27EE267AC5EEBB
:101E2800876A87EEA63AB0EE430AFFF771FFF0EE35
:101E3800402AB0EE430AFFF7CDFF74EEA44AF8EE4D
:101E4800006A82EEA47AF5B1012D25D077EE257AC5
:101E580020EE260A85EE276A75EEC75A80ED006ADD
:101E680084EE276AC0EE276A80ED016A85EEA77ABC
:101E780083EEA76AC0ED036A80ED026A80ED047AFA
:101E88008461446138BD35EEC04AB6EE005A24EE8E
:101E9800055AF0EE453AD9E720EE264AF0EE653AC3
:101EA800B0EE655AD2E7C0ED005A44608460C46061
:101EB8000461E5E720A10700DB0FC940BD3786357F
:101EC80000239FED010A8DE7F304353F30B507EE97
:101ED800902A2DED028BB8EE670A07EE903AF8EEDD
:101EE800677A83B080EE270A0D460446019225F0F2
:101EF80019FC30EE008AB0EE000AF0EE480A25F030
:101F08008FFD25F021FFF0EE480AF0EE408AB0EE92
:101F1800000A25F085FDF7EE007A30EE670A019990
:101F280088EE800A01232A46204603B0BDEC028BC6
:101F3800BDE8304056E7D0ED017AF5EE407AF1EE93
:101F480010FA09D1DFED0E7A60EEA70AB7EE007A33
:101F5800C7EE207AC0ED017A90ED017AD0ED007AD3
:101F680080ED021A31EE077A30EE670AC1EE076A91
:101F7800E6EE807AB0EE670AC0ED007A704700BFDF
:101F8800DB0FC9404840082310F0800F4FEA40009B
:101F980018BF80F0D500013BC0B2F5D1704710B52D
:101FA8000A440C46944200D110BD14F8011BFFF7F7
:101FB800E9FFF7E74A09012301F01F0103FA01F1DC
:101FC80050F822300B4340F8223070470EB4254BAE
:101FD80070B51B68002BA5B0064630DA224B234C9F
:101FE80019684FF47A7304A8B1FBF3F203FB1213D8
:101FF8001F49FFF721FD04AB03440393299A1D49A8
:102008002AAB054603A80293FFF725FB039B591C3F
:1020180003910A211970039B591C0391002119701F
:102028000246206880B103681B6A03B1984704A977
:102038002068FEF7D1FB16B120680DF0DBFD25B056
:10204800BDE8704003B070470B4B1B68002BF6D0FF
:1020580002212A4400910A44FD2004A913F01EFF1E
:10206800EDE700BFA0620020F45200203C220020CF
:1020780025E402086B040008BC1F002038B5144B87
:102088001C68033004EB9002B2F5807F14D8114D20
:102098001A6005EB8404104D55F8213020F0030038
:1020A8001844920045F82100C2F580620B490020CF
:1020B800FFF78CFF204638BD09490020FFF786FF4F
:1020C800084A136843F0007313600024F2E700BF66
:1020D8007C1400202C0900208014002031E4020820
:1020E80054E40208B06C0020224B02682DE9F04746
:1020F800064600251F4653F835108A4209D1EDB22D
:10210800102D0AD91C490020FFF760FF0020BDE808
:10211800F0870135112DEED1F4E7DFF8648058F827
:1021280025A0C146BAF1000F15D10A216420FFF796
:10213800A5FF48F8250008B91049E5E7642251468B
:1021480027F08AFB58F8253007EBC5071F605B604E
:10215800DB615B63DB64707959F82540182101FB6A
:102168000043002218461A759E601A61DA6004302E
:10217800BDE8F087A4A2020862E4020887E4020826
:10218800D45D00200F4BDA684378D243C2F30222B1
:10219800C2F104018B400F2121FA02F281780A4032
:1021A8001343094902781B018818DBB280F8003311
:1021B8005009012302F01F0203FA02F241F820201D
:1021C800704700BF00ED00E000E100E0C27802B116
:1021D800D8E7037801215A0903F01F0301FA03F332
:1021E8002032024941F82230704700BF00E100E088
:1021F80013B5044610B31FF063F901238DF80530B9
:102208008DF80730002223688DF806201B685B795B
:1022180023B102A800F8043DFFF7D8FF23681B6824
:102228009B7923B102A800F8043DFFF7CFFF63684C
:102238001A6813889BB243F00103138002B010BDE3
:10224800084BDA68D10709D4DA68D20608D4DB6803
:1022580013F0040F14BF03200420704701207047B7
:1022680002207047002002402DE9F04100230F684A
:102278001D464FF0010E03260EFA05FC3CEA070244
:1022880032D10C79621E012A19D8826806FA03F83D
:1022980022EA080282604A79D0F808809A4042EA25
:1022A80008028260828892B222EA0C0282808A79CD
:1022B800B0F804C0AA4042EA0C0292B28280D0F878
:1022C80000C006FA03F2D24302EA0C0CC0F800C0C0
:1022D800D0F800C09C4044EA0C040460C468144070
:1022E800CA799A402243C2600135102D03F10203D6
:1022F800C2D1BDE8F081F7B50C4615460646A0B335
:10230800036803F138421A4B03EB92230F2793F823
:10231800980022F0E7FB3068B6880096B6FA86F394
:10232800C3F11F039BB203F00702DB0800EB830332
:102338009200196A974021EA07011962196A9540C3
:102348000D431D6204F003038DF80430C4F38103C8
:102358008DF805306946C4F30013C4F341148DF8B1
:1023680006308DF80740FFF77FFF03B0F0BD00BFD0
:102378006499020837B50C460546F8B1036803F1BD
:1023880038420F4B03EB922393F8980022F0AAFBF4
:10239800AB88009304F003038DF80430C4F3810381
:1023A8008DF805306946C4F3001328688DF80630A7
:1023B800C4F341148DF80740FFF756FF03B030BD52
:1023C800649902082DE9F74FB34D98469DF83030CF
:1023D800009395F85C34092B81468B46924608D9C0
:1023E800AE490020FFF7F2FD0026304603B0BDE8F5
:1023F800F08FFFF779FE07460028F5D095F85C4482
:1024080099F80400621CD2B204EB440305F58C660B
:1024180006EBC30685F85C240192FEF747FA0346EB
:1024280028B104218171019A02720221C171009AB6
:1024380052B399F8082002211846FFF75CFF1823C9
:1024480003FB04555A465146C5F8607438461FF0D8
:1024580037F8D5F86034D3F804E09EF8063013F066
:10246800040103F0020219D00025114628464FF056
:10247800040C2A469EF80570DEF80030032F51D868
:10248800DFE807F0126499CD184611210093FFF791
:1024980071FF009B1846FEF72FFAD0E710464FF45D
:1024A80080758C460122E5E7D3F8209029F00109D0
:1024B800C3F82090D3F820B0D3F804A0D3F818902C
:1024C8000243774829F4803929F073092BF0020B6D
:1024D800834249F0600942EA0B020FD000F5006020
:1024E80083420BD000F54060834207D000F580603E
:1024F800834203D000F58060834208D122F00C02A9
:102508000A432AF4407A4CEA020245EA0A0AC3F866
:1025180004A0C3F81890C3F834801A629A6942F08C
:1025280008029A61DEF800305B495A6C42F40042B6
:102538005A641A8892B242F001021A801822032FB4
:1025480000F2A380DFE807F0939B9D9FD3F82090CB
:1025580029F01009C3F82090D3F820B0D3F804A0CC
:10256800D3F8189002434E4829F0807929F4E649B7
:102578002BF0200B834249F4C0494BEA021203D0E6
:1025880000F5006083420BD122F0800242EA01127A
:1025980022F040022AF4406A42EA0C124AEA850A0A
:1025A800C3F804A0C3F81890C3F838801A629A696F
:1025B80042F40062B5E7D3F8209029F48079C3F893
:1025C8002090D3F820B0D3F804A0D3F81C9002438D
:1025D800334829F073092BF4007B834249F06009E2
:1025E8004BEA022203D000F5006083420BD122F4AB
:1025F800006242EA012222F480622AF4405A42EA46
:102608000C224AEA051AC3F804A0C3F81C90C3F8C0
:102618003C801A62DA6942F00802DA6182E7196AD4
:1026280021F480511962196AD3F80490D3F81CC0B8
:1026380021F40051024341EA023219492CF4E64CD4
:102648008B424CF4C04C03D001F500618B4203D19E
:1026580029F4804949EA8519C3F80490C3F81CC0D5
:10266800C3F840801A62DA6942F40062D5E734336D
:1026780002FB04140022C4F86C341A60B5E638333F
:10268800F6E73C33F4E74033F2E7002302FB041497
:10269800C4F86C341B60FFDED0080020A1E40208F7
:1026A800002C014030B52DED028B1F4B83B01C6808
:1026B800B4FBF1F303F57F43FF331B0C0092B4FB2B
:1026C800F3F40023B4FBF1F52146AAB2F0EE408AF8
:1026D800B0EE608AFFF776FE08B3B5EE408A07EEE3
:1026E800904AF1EE10FAF8EE677A08BF06EE905AB3
:1026F8009FED0E7A0ABFF8EE666A27EE888A86EEA4
:10270800876A4FF00103037218BF88EE076A27EE45
:10271800467A80ED056AA7EEA87A80ED047A03B0C0
:10272800BDEC028B30BD00BFBC01002000007A4424
:1027380008B5FEF7BBF848B11D2282710E22C2719E
:10274800002202722021BDE8084013E608BD10B53A
:1027580003681A79022A044602D1987AFFF7E8FF3B
:1027680000232371236010BD70B51E46214D224BF6
:102778009D4218D26C798C4234D12C79844200D095
:1027880080BB2C7A94422DD12C682C220021204623
:1027980027F062F825602B792371EA88A260012B63
:1027A80003D0022B05D000241AE02046FFF7CFFF04
:1027B800F9E7E87AFEF77AF860616B7A2373A87A0A
:1027C800FEF774F80546206170B10E23C37100232B
:1027D800867103720D21FFF7CDFD2069FEF791F890
:1027E800204670BD0C35C3E72046FFF7B0FF2C46E6
:1027F800F6E700BFD4110308EC11030800232DE904
:10280800F3411A4621210120FFF7AEFF204B044671
:102818009863D8B305259620FDF777FF0DF10702D9
:1028280000212046FEF7CEF9074648B3002211469C
:102838002046FEF7E3F93C20FEF728FA0120FDF7D1
:1028480064FF00265FFA86F84FEA8805EDB2A91DF5
:10285800002201F0FE012046FEF7D0F9E91D002212
:10286800C9B22046FEF7CAF9013640F2DC514046AB
:10287800FEF7D2F9102EE5D1384602B0BDE8F08156
:10288800013DC8D12046FFF762FFF5E70746F3E7A9
:10289800D0080020A64B5A6802F00C02042A2DE941
:1028A800F04100F0B580082A00F0B680A149016027
:1028B800002A40F0AF8059689F4FC1F303117E5C36
:1028C8000168F6B221FA06F444605D68C5F3022592
:1028D80017F805E024FA0EFEC0F808E05D68C5F3B5
:1028E800C2257D5DEDB2EC40C460D3F82C804FEA80
:1028F800181808F00F0C07EB4C0C18F0100FBCF868
:1029080010C01FFA8CFC00F09C80BCF1000F00F096
:102918009880B2FBFCFCC0F810C0D3F82CC04FEA7A
:102928005C2C0CF00F0807EB48071CF0100F3F8ACF
:10293800BFB200F08880002F00F08580B2FBF7F767
:1029480047611F6BFF065ABF7A4F876181611F6B12
:10295800BF065ABF774FC761C1611F6B7F065ABF59
:10296800744F076201621F6BFF056ED58A426CD1F6
:10297800AE426AD1570047621F6BFF0467D58A428F
:1029880065D1AE4263D1570087621F6BBF0560D522
:102998008A425ED1AE425CD15700C7621F6B7F0589
:1029A80059D58A4257D1AE4255D1570047641F6B5B
:1029B8003F0552D58A4250D1AE424ED15700876466
:1029C8001F6BBF044BD58A4249D1AE4247D14A005A
:1029D800C2641A6B920744D104631A6B12F4403F25
:1029E80056D1C0F834E01A6B12F4402F6AD1C0F8FF
:1029F80038E01A6B12F4401F7FD1C0F83CE01A6B24
:102A080012F4400F40F09E80C0F840E0BDE8F0812D
:102A18004A4A026000224EE75A685968C90349BF0A
:102A2800D96A4749454C01F00F01C2F3834248BFB8
:102A3800013102F1020248BFB4FBF1F14A430260DE
:102A480039E7016169E741617BE7446294E78462A1
:102A58009BE7C462A2E74464A9E78464B0E784649E
:102A6800B7E71A6B02F00302012A01D10163B4E748
:102A78001A6B02F00302022A03D14FF400420263E8
:102A8800ABE71A6B02F00302032AA6D1294AF6E73C
:102A98001A6B02F44032B2F5803F01D14163A2E7DC
:102AA8001A6B02F44032B2F5003F03D14FF40042F2
:102AB800426398E71A6B02F44032B2F5403F92D174
:102AC8001C4AF5E71A6B02F44022B2F5802F01D1B7
:102AD80081638EE71A6B02F44022B2F5002F03D10E
:102AE8004FF40042826384E71A6B02F44022B2F585
:102AF800402F7FF47EAF0F4AF4E71A6B02F44012BE
:102B0800B2F5801F01D1C16379E71A6B02F4401254
:102B1800B2F5001F03D14FF40042C2636FE71A6B8E
:102B280002F44012B2F5401F7FF469AF014AF4E79E
:102B38000010024000127A0000000020001BB700BD
:102B480000093D001A6B02F44002B2F5800F02D171
:102B58000164BDE8F0811A6B02F44002B2F5000F7F
:102B680004D14FF400430364BDE8F0811B6B03F408
:102B78004003B3F5400FF7D1004BF4E700127A0099
:102B8800F0B5446B8668236823F0010323608379DA
:102B980013F004010CBF4FF0000E4FF4805E0546A1
:102BA80013F0020F4379206820F00100206060686C
:102BB80014BF4FF40052002220F44050002942EA8A
:102BC8000002626014BF4FF48067002713F0010F02
:102BD80014BF042100219B07236823F4B05323F07A
:102BE8000C0343EA0E0348BF41F008013B430B4383
:102BF8002360A36895B023F44073A3606846FFF789
:102C080049FE284B9C4239D10C9A23681F0448BFBF
:102C18005200B2FBF6F306FB1322B2EB560F226802
:102C280028BF0133160406D5C3F3420223F00F036D
:102C38001B041B0C13439BB2A3816B79A87913F077
:102C4800020F0CBF00224FF4003200F00101DC0734
:102C580048BF42F480326B6B01B359680A435A602B
:102C68009A6801074CBF42F0080222F008029A60F5
:102C78001A6842F001021A6015B0F0BD0A4B9C4276
:102C880001D10D9AC1E7094B9C4201D10E9ABCE7CC
:102C9800074B9C420CBF0F9A109AB6E7596821EA75
:102CA8000202DCE7003801400044004000480040D0
:102CB800004C0040417163E7816061E72DE9F04F06
:102CC8001F465B4B85B09842894690469DF8385020
:102CD8009DF83C6055D1574C574B2360574B636167
:102CE80003F58073A36160634FF480734E20E36043
:102CF8002361A76021F0F6FE1920FDF7D7FD834672
:102D08001A20FDF7D3FD4FF0010A33460146CDF8EE
:102D180000A02A46584621F029FF25238DF80C30BB
:102D280000238DF80DA08DF80E308DF80FA003A8A4
:102D3800FFF728FA00232362E361A3626362C4F801
:102D48002C90C4F830806571A760A6712046FFF703
:102D580017FF15F0010F636B05D020221A621A685D
:102D680042F020021A60AA0742BF1A6842F08002A5
:102D78001A601A6842F001021A60204605B0BDE8E0
:102D8800F08F2F4B98422BD12E4C2B4B23604FF4B6
:102D98008073E36023612C4B6361606303F5807388
:102DA8007120A361A76021F09DFE1220FDF77EFD32
:102DB80082461320FDF77AFD02230093014633462D
:102DC8002A46504621F0D2FE26238DF80C300022E8
:102DD80001238DF80D308DF80E208DF80F30A6E701
:102DE8001A4B984221D11A4C134B23604FF480732D
:102DF800E3602361174B6361606303F5807372209E
:102E0800A361A76021F06EFE2A20FDF74FFD8246E0
:102E18002B20FDF74BFD03230093014633462A463A
:102E2800504621F0A3FE2723CFE70020A6E700BFE6
:102E380000380140945E0020049A0208200E002009
:102E4800004400405C5E0020201000200048004044
:102E5800245E00202012002020B10078B0FA80F013
:102E6800400970470120704730B500F13C01074B1D
:102E7800024603F1140453F8045B42F8045BA342CE
:102E8800F9D114308842F2D130BD00BF309A02081F
:102E980038B5064D002455F834000134FDF78EFF8F
:102EA800FDF7A2FF1E2CF6D138BD00BF28C70208C7
:102EB8002DE9F0411048114E114FDFF84C80FEF714
:102EC800FDFC0125002474B90E4B1A689200D2F556
:102ED800806205D056F824103846FEF7EFFC06E06D
:102EE80001340135EFE758F82420002AF2D1232DC8
:102EF800F6D1BDE8F08100BFDCE40208449A02087C
:102F0800F2E402087C140020801400201FB5094B4D
:102F18000293094B0193094B0093094A094B0A494B
:102F28000A48FEF7CBFC0A490A4805B05DF804EBED
:102F3800FEF7C4BC2DE5020835E502083EE50208A7
:102F480006E5020800E5020810E5020815E5020892
:102F58004AE502088BE502082DE9F04F5448554D23
:102F68008DB0FEF7ABFC0026B046B146524B1A684E
:102F78000023934223DB01360F2E05F14805F5D1D6
:102F88004E498868CA680C680969400940EAC26203
:102F98004FF47A734A48B4FBF3F3FEF78FFC0A2226
:102FA80098FBF2F302FB138099FBF2F1009002FB0D
:102FB80011924448FEF782FC0DB0BDE8F08F4249FB
:102FC80051F823108D4201D00133D2E7AC6A5CB1CD
:102FD80007EE904ADFED3D6AF8EEE77A86EEA77ACB
:102FE800FDEEC77A17EE904A2F6B6A6BEB6BD5F83C
:102FF80038A07F0947EAC26752090B922146E217B7
:10300800CDE90812099A63430AFB0233A4FB0A01BB
:1030180041F2883B1BEB000B19444FF0000C4CEBC2
:10302800010C4FF47A7200235846614623F05AFE89
:103038000B9B099A0A90634307FB0233A4FB070121
:1030480041F2883B1BEB000B19444FF0000C4CEB92
:10305800010C00234FF47A725846614623F042FE71
:10306800032E18BF0A9B0A99019718BF99444FF479
:103078007A722B6CB3FBF2F306934FF00A0318BF76
:10308800804490FBF3F203FB120004920A9A92FB2D
:10309800F3F203FB1213059003930292CDF800A0FC
:1030A80023462A680A483146FEF708FC63E700BF52
:1030B80094E5020830040020D80400100000001035
:1030C80010E6020832E60208DC0400100024744905
:1030D800DBE502082DE9F04F824687B091460E469F
:1030E80015460027337896F9028004937378059380
:1030F80096F803B0B8F1000F34D0B9F1000F36D00C
:103108002B78049C6A7895F90210E8789C422CD1B7
:10311800059C944229D1884527D1ABEB000EDEF1FE
:10312800000444EB0E040390029101920093114AAB
:103138003B4621465046FEF757FC059B0193049BEE
:103148000093CDF80CB03B46CDF80880094A2146DB
:1031580050460137FEF75EFC102F06F1040605F114
:103168000405BFD107B0BDE8F08F0024DBE74C466B
:10317800E3E700BF60E602082DE9FF47DFF89CA0FF
:10318800814690460D4616460027B8F1000F42D0FA
:10319800B5F90020B6F900309A4296F9062038D1E0
:1031A800B5F90200B6F90210884232D1B5F9040027
:1031B800B6F9041088422CD195F90610881A4142B4
:1031C80041410392B6F904200292B6F90220019215
:1031D800009352463B4648460C46FEF705FC95F9D7
:1031E80006300393B5F904300293B5F90230019320
:1031F80035F9083B009352463B462146484601377D
:10320800FEF708FC082F06F10806BED104B0BDE899
:10321800F0870021D5E74446E1E700BF74E60208DD
:103228002DE9F347DFF868A081460F46904602264D
:103238000024B8F1000F28D037F8242038F82430BB
:103248009A4238F806201ED1BD5BA91A4D424D415D
:10325800019200935246234629464846FEF7C4FB8E
:10326800BB5B019337F82430009352462346294626
:1032780048460134FEF7CEFB042C06F10406D8D1EB
:1032880002B0BDE8F0870025E2E74546E8E700BF61
:1032980089E602082DE9F04F834687B092460C462E
:1032A800164600274FF019094FF46178BAF1000F5C
:1032B8004DD0A378B17832798B42337845D12078D4
:1032C800984242D16578707885423ED1E578F078A9
:1032D80085423AD12079904237D165797079281A98
:1032E800454245410592F27804927278019119FBA2
:1032F800028219FB03830392029373790093154AA0
:103308003B4629465846FEF76FFB23790593E37839
:10331800049363780F4A19FB03830393237819FBFB
:1033280003830293A37801936379009329463B466C
:1033380058460137FEF76EFB0C2F04F1060406F120
:103348000606B3D107B0BDE8F08F0025CAE7554699
:10335800DBE700BF9AE602082DE9F04F354FDFF8AA
:10336800DCA087B0814690460C46164602F1300B29
:1033780094F90420002330495956914254D00C3313
:10338800302BF8D10C365E4504F10C04F0D107B0AF
:10339800BDE8F08F96F90430F1799A42326841D14C
:1033A800206890423ED16579707985423AD1A579F5
:1033B800B079854236D1257A307A854232D1E5799D
:1033C800681A4542454157F821100491317A57F857
:1033D80021100391B17957F8211002917179009267
:1033E80057F821100191524629464846FEF7FCFA43
:1033F800E27994F9043057F822200492227A57F897
:1034080022200392A27957F822200292627957F873
:103418002220019222680092294652464846FEF729
:10342800F9FAAFE70025CEE7B8F1000FB2D145466B
:10343800DEE700BFA0E1020800640020B8E6020849
:103448002DE9F04F834685B092460D461646002773
:103458004FF019094FF46178BAF1000F3DD02B787D
:1034680032789342F37836D168787178884232D1CD
:10347800A878B17888422ED1EC78E11A4C424C41B8
:1034880019FB03830393B37819FB038302937378BF
:1034980021468DE80C0058463B46114AFEF7A4FA2F
:1034A800EB780F4A19FB03830393AB7819FB03836B
:1034B80002936B78019315F8043B009321463B4631
:1034C80058460137FEF7A6FA142F06F10406C3D1B1
:1034D80005B0BDE8F08F0024D2E75446E0E700BF0E
:1034E800D5E60208F8B5437913F0C002044602D0C5
:1034F800402A19D0F8BD03F00F03062B07D11FF09F
:1035080027F9BDE8F84001461748FEF7D7B91FF07C
:1035180037F9054620461FF01BF929460246BDE843
:10352800F8401248FEF7CAB983791148114E124F74
:103538001D2B96BF114D002505EBC305FDF73EFC7D
:1035480000242B799C4203D3BDE8F840FDF74CBC1E
:1035580014B13046FDF732FC2B68384653F8241076
:10356800FEF780F90134ECE7E8E60208F8E602081D
:103578000FE702081FE70208F4E90208ECD5020881
:103588002DE9F347204E21483768214CDFF8908019
:10359800DFF88490DFF88CA0FDF72AFC0025BD42F7
:1035A80002DB02B0BDE8F08733689D4229DCA288BF
:1035B800D3B2172B18D808EB8303D3F8A030002B0D
:1035C80008BF4B4621685046FEF74CF9E3885A0479
:1035D8000CD5E0890090A389628921890D48FEF7FE
:1035E8006DF901351034DAE70B4BEBE71B0405D511
:1035F800E268A1680948FEF761F9F2E7FDF7F4FB14
:10360800EFE700239B88FFDEA41F002021E70208C4
:10361800A41B00205CE7020897FB02086EE702087B
:10362800309A02084DE702080148FDF7E1BB00BFE8
:1036380078E702082DE9F0438D4B8E4819688E4CC7
:10364800DFF8E082A9B04FF47A73B1FBF3F1FEF72B
:1036580035F907A8FDF73CFF884B07A9B3F9002007
:103668000AA821F06DFE0AA98548FEF727F911F08E
:1036780027FC6422B0FBF2F102FB11028148824B65
:1036880000781B7804EB800092B2D0F8000100901B
:1036980089B27E48FEF712F97D4B7E4819687E4B49
:1036A800B1FBF3F1FEF7DEF87C4B1E68002504F54C
:1036B800887704F596790123AB4033420BD057F84D
:1036C800253043B118F8052059F8251053F8222061
:1036D8007348FEF7C7F80135072DECD1FDF784FBD9
:1036E80070486D4D704FFDF783FB14A8FFF7D2F8B3
:1036F80014996E48B1FBF5F1FEF7E0F815996C489E
:10370800B1FBF5F1FEF7DAF816996A48B1FBF5F165
:10371800FEF7D4F817996848B1FBF5F1FEF7CEF833
:1037280011F06EF9054611F059F9064611F020F925
:1037380004EB800004EB850504EB8604D0F85421E3
:103748005E4B0392D4F854215D4C0293019300928E
:103758005C49D5F854215C485C4D5D4EFEF7AEF8E7
:1037680023685C4A5C495D489B00C3F58063FEF7AB
:10377800A5F85B4A5B4B5C48D31A0021B4F890204B
:10378800FEF79CF85948FDF733FB002455F8241040
:103798003046FEF767F83846FDF710FB544BE15CFE
:1037A8004FEA8408002957D15248FDF707FB5248D1
:1037B800FDF704FB514B58F80310002950D14D4830
:1037C800FDF716FB0134042CE0D14D4B4D48198808
:1037D800FEF748F84C4B1A6F002A45D007EE902A9E
:1037E800DFED4A6AF8EEE77A86EEA77AFDEEC77A49
:1037F800CDED047AD3F8B820002A37D007EE902A06
:10380800DFED426AF8EEE77A86EEA77AFDEEC77A30
:10381800CDED057A9B6A5BB107EE903ADFED3B6A26
:10382800F8EEE77A86EEA77AFDEEC77A17EE903AB9
:10383800374A384811880093049A059BFEF73EF8EA
:10384800354B3648196821F0784121F07F01FEF7A1
:1038580035F829B0BDE8F0833148FEF703F8A6E74C
:103868002F48FEF72BF8ADE70492C3E70592D1E79E
:10387800F452002084E70208309A020834640020D9
:103888009EE70208523300205C330020AFE70208AD
:10389800BC010020D2E7020840420F0078620020F5
:1038A800E2E70208EAE702082FE90208FFE7020850
:1038B80011E8020823E8020835E8020847E8020888
:1038C8007C1400204CE802084FE80208949B020888
:1038D80027E902080020001000180000A2E80208EA
:1038E8000000040800E80308DAE8020814E90208FE
:1038F8008D210020EEE9020845E902089421002004
:10390800D00300104FE90208300400200024744955
:103918007C2200205FE90208B06C00209CE90208C4
:103928003EE90208F03200207FB50546FFF794FA19
:1039380098BB04462B78002B37D1052C3DD1BDF917
:103948000440A3B2072B38D8BDF90610A1F2EE2324
:103958009BB240F2DC5083422FD8BDF90820A2F276
:10396800EE239BB2834228D8BDF90A00814224DCA9
:10397800824222DB914220DCBDF90C5005F17D0327
:103988009BB2FA2B19D8194B23F8341003EBC40354
:103998005A8098809D7104B070BD1449002201209E
:1039A80004B0BDE87040FFF7E7BB2D2B03D0A3F1AF
:1039B8003002092A15D8042C03DD04B0BDE8704094
:1039C80032E62846FDF794FB04AB661C03EB44047F
:1039D80024F80C0C15F8013F303B092BFAD9344672
:1039E800A8E7202BE9D101352646F8E75E2C002010
:1039F8002DE9F341044622F04DFB04283DD1631E16
:103A0800E11C5A78A2F16100192898BF203A03F8FE
:103A1800012F8B42F5D1DFF874802546271D15F854
:103A2800016B4046314625F02EFF20B1314628462D
:103A380025F029FF20B1FFF7F7FD02B0BDE8F081BE
:103A4800BD42ECD1204611F0A5FC0E480E4CFDF706
:103A5800B5F90E4800231A1902A952780A44195CCC
:103A680002F8081C0133042BF5D1002369460848E5
:103A78008DF80430FDF722FFDFE70028E5D0FFF7D7
:103A8800D3FDE2E7B9E9020818630020BAC60208C4
:103A9800F5E9020808B5202125F0F5FE0346184689
:103AA80023B10278202A03F10103F8D008BD2DE9DB
:103AB800F8430D4616468146002440F634074FF079
:103AC80019084846FFF7E6FF814690B1FDF710FB5D
:103AD800B842A8BF3846B0F5617FB8BF4FF46170EF
:103AE800A0F5617090FBF8F04CB928703378013379
:103AF80033700134022CE4D14846BDE8F88368707D
:103B0800F4E72DE9F7438146FFF7A6F9064638B1F1
:103B1800002238490120FFF7BDFB03B0BDE8F08360
:103B28004846FDF7E5FA0B2804465BDC06254543C5
:103B380009F101008DF80760FFF7ACFFDFF8B480EA
:103B4800814605EB0807464638B1FDF7D1FA032848
:103B58009EBF012378718DF807304846FFF79AFF1A
:103B6800814660B1FDF7C4FA0D2808D8062303FB87
:103B7800046398709DF8073001338DF807300DF114
:103B8800070239464846FFF792FFFFF783FF814651
:103B980060B1FDF7ADFA302808D8062303FB0463AB
:103BA800D8709DF8073001338DF807304846FFF785
:103BB80071FF60B1FDF79CFA0D2808D8062303FBB6
:103BC80004649DF80730207101338DF807309DF8A3
:103BD8000730062BA1D0002345F80830BB80FFF73B
:103BE80023FD9AE70B23324603490448FDF766FE96
:103BF80093E700BF06230020BFE90208C5E90208D1
:103C0800F7B50746FFF728F9044630B100222249E4
:103C18000120FFF715FC03B0F0BD3846FDF768FA40
:103C28001328054630DC8600781C8DF80740FFF71E
:103C380031FF194C074640B1FDF75AFA28289EBFB4
:103C4800012304F825008DF807303846FFF722FFD6
:103C5800074650B1FDF74CFA0D2806D8A31958703D
:103C68009DF8073001338DF80730B11C0DF10702BC
:103C780021443846FFF71BFF9DF80730042BCAD0B4
:103C8800002344F82530C6E7132322460349044895
:103C9800FDF714FEBFE700BFBC600020BFE90208C3
:103CA800C5E9020870B5054608460E4622F0F2F945
:103CB8003146044602462846FDF700FA60B92B5DF6
:103CC800A3F13002092A08D923F02003413B192B1C
:103CD80003D9601C284470BD002070BD2DE9F74F42
:103CE800804622F0D7F9484DDFF848912F680446FE
:103CF800F0B94648464EFDF7B5FD012519F80430E0
:103D0800013B05FA03F33B4209EB040203D0916837
:103D18003046FDF7A7FD0C34B4F5847FEED117B912
:103D28003C48FDF74BF803B0BDE8F04FFDF75CB831
:103D3800024639494046FDF7C1F9064670B9374889
:103D4800334DFDF73BF809EB0603284699680C3616
:103D5800FDF788FDB6F5907FF5D1E4E798F80030D7
:103D68002D2B03BF08F1010804F1FF344FF0010ABD
:103D78004FF0000A00260C2303FB069B0193DBF897
:103D880008300093194622464046FDF797F9019BF3
:103D980000282FD1BAF1000F19D0162E0BD1204BC5
:103DA8002B602048FDF70AF800991F4803B0BDE8CA
:103DB800F04FFDF783BD172E01D16B68F0E79BF834
:103DC80000305A1E012393401F432F60E9E7162E47
:103DD80003D1C5F800A01548E4E7172E17BF9BF8D4
:103DE80000306F6003F1FF3201231EBF93409F43F1
:103DF8002F60F0E70136182EBED10D4803B0BDE89C
:103E0800F04FFCF7F5BF00BFBC2B0020E2E9020829
:103E1800F3E90208ECE90208F8E90208FDE90208FA
:103E2800FFFF3F0015EA0208F4E902081EEA02084B
:103E380008EA0208D0A502082DE9F84F054622F045
:103E480029F9344F0446D7F80090C0B93248334DA9
:103E5800334FFCF7B3FF012655F8241059B10B78FE
:103E68003BB106FA04F313EA090F02D03846FDF70E
:103E7800F9FC0134F0E7BDE8F84FFCF7B5BF02469E
:103E880028492846FDF71AF978B92748274C244DC0
:103E9800FCF794FF54F8041F0029ECD00B78002B92
:103EA800F8D02846FDF7DEFCF4E72B78DFF86CB095
:103EB8002D2B03BF013504F1FF344FF0010A4FF0F9
:103EC800000A00265BF82680B8F1000F04D11848D4
:103ED800BDE8F84FFCF78CBF224641462846FDF75F
:103EE800EDF8A0B90120B040BAF1000F0AD0FDF7F3
:103EF80031F81048FCF762FF41460F48BDE8F84F1B
:103F0800FDF7DCBC40EA090038600C48F2E70136EE
:103F1800D8E700BF242E002026EA0208A49B020846
:103F280030EA0208F8E9020834EA0208A09B02080D
:103F380008EA020815EA0208F4E902081EEA02087B
:103F48002DE9F0410546FEF787FF064630B100220D
:103F580028490120BDE8F041FFF762B96FF000423F
:103F680025492846FDF7AAF870B9224B4FF47A7113
:103F78004FF4FA6219805A809980DA8019815A813F
:103F88009981DA81BDE8F0812846FDF7B1F8032868
:103F9800044627D82846FFF77DFD064670B1FDF791
:103FA800A7F8012507463046FFF774FD10B1FDF765
:103FB8009FF82DB9BDE8F041FFF736BB0546F2E79B
:103FC800A7F2EE2240F2DC539A42F3D8A0F2EE2296
:103FD8009A42EFD8074B23F8247003EB84035880E8
:103FE800BDE8F0813246032304490548BDE8F041A5
:103FF800FDF764BC9836002040EA020846EA020849
:10400800C5E9020870B50346FEF726FF38B3254B0D
:104018001C680134172C05D823490C2202FB041212
:10402800956875BB204A25460C210135172D0EDDF4
:10403800002501FB0520866856B11D600BF0A6FF20
:10404800324629461948FDF739FC2C4622E0F0D9BA
:10405800A542EAD11648BDE87040FCF7C9BE18462B
:10406800FDF746F81728044605D80F4A0C2303FB2A
:1040780000239D682DB921460E48BDE87040FDF724
:104088001DBC084B1C600BF081FF2A4621460748DF
:10409800FDF714FC0C235C43034B185DBDE870402E
:1040A8000BF08CBF30000020D0A5020878EA020887
:1040B8004EEA020862EA0208F7B50346FEF7CCFEAC
:1040C800044618B1FFF7B0FA03B0F0BD01AA1D49C4
:1040D8001C4F184623F0DBFA2646254640B9052D25
:1040E80018D91949052302461848FDF7E7FBEBE7FD
:1040F80044B1012C0AD001AA39460020013423F02A
:10410800C6FAEBE7FCF7F4FF0546F4E7FCF7F0FF27
:104118000646F0E7022C0DD1A6F57A73B3F57A7F3F
:1041280005D94FF4FA634FF47A720949DCE7094B71
:1041380023F81560074B084833F915202946FDF781
:10414800BDFBC1E7FAF40208BFE90208C5E90208A5
:10415800AC020308B06000208DEA020870B58AB08E
:10416800044621F097FFC2B22AB926490120FEF77A
:10417800B1FF0AB070BD052223492046FCF79EFF17
:1041880040B91520FCF7D4FE0028F2D01D49FCF7F1
:10419800A1FEEEE7204601AA1C491C4E23F077FA3F
:1041A800002402AD78B1052C02D1FFF73DFAE0E713
:1041B800FCF79EFF01AA45F824003146002023F0B1
:1041C80066FA0134EEE7052CEFD1029A0F2AECD8F3
:1041D800039D072DE9D8049C162CE6D8059800F114
:1041E8007D03FA2BE1D80699FF29DED8054B03F8A1
:1041F800225003EB820398705C70D9700448FFF773
:10420800ADFFB6E71D2C002040EA0208FAF40208C8
:1042180097FB020808B51E4B1E4C1D68A0680BF0E2
:10422800E9FC28460BF0E6FCA06841798B0703D42B
:1042380041F00201FCF798FA00210846FCF77EFBE2
:1042480000210120FCF77AFBA068FCF79CFA70B10A
:1042580001210020FCF772FBA068FCF78EFA0146EA
:104268002846FCF793FA00210846FCF767FB284626
:10427800FCF789FA0028E7D001210846FCF75EFB25
:104288002846FCF77AFA0146A068FCF77FFAD7E7D8
:104298007C3700209C48002008B504460648FCF7F7
:1042A8008DFD064B1868FCF75DFD054B18680BF093
:1042B800A1FC20460EF024FB9AEA02087837002079
:1042C8007C37002008B5084B1868FCF74BFD074BF6
:1042D80000241C70064B1C60064B1C701DF06AFD08
:1042E8002046FFF7D9FF00BF783700208437002029
:1042F80080370020F54F002008B50120FFF7CCFFDC
:104308002DE9F04F2DED088BDFF80C9197B0804622
:1043180092460D461446002695ED008AB5EE408A71
:10432800F1EE10FA71D0D5ED019A95ED029AD5ED1E
:10433800038ABAF1000F3FD094ED000A94ED01BA58
:10434800D4ED02AA94ED03AAB4EE408AF1EE10FA75
:1043580060D1F4EE4B9AF1EE10FA5BD1B4EE6A9AA2
:10436800F1EE10FA56D1F4EE4A8AF1EE10FA0CBFCB
:104378000127002712A8FCF75FFFB0EE4B0A83461F
:104388000EA8FCF759FFB0EE6A0A05900AA8FCF7D8
:1043980053FFB0EE4A0A049006A8FCF74DFF049AB2
:1043A800059B039002920193CDF800B033464A462C
:1043B80039464046FDF718FBB0EE480A12A8FCF74C
:1043C8003BFFB0EE690A07460EA8FCF735FFB0EED2
:1043D800490A83460AA8FCF72FFFB0EE680A049042
:1043E80006A8FCF729FF049B039002938DE8800838
:1043F80033464A46002140460136FDF70BFB062EA0
:1044080005F1100504F1100486D117B0BDEC088B36
:10441800BDE8F08F0027ADE7A6EA020870B50446AC
:10442800FEF71AFD064628B100222E490120BDE8F4
:10443800704065E705222C492046FCF73FFE40B94D
:10444800284B00221A601A611A621A631A641A65E4
:1044580070BD2046FCF74CFE052805463AD8204694
:10446800FFF718FB064648B3FCF75FFE1D4B03EB4E
:10447800051383ED000A01243046FFF70BFB0646BF
:1044880038B1FCF752FE174B03EB051383ED010A15
:1044980001343046FFF7FEFA064638B1FCF745FE10
:1044A800104B03EB051383ED020A01343046FFF786
:1044B800F1FA28B9BDE87040FFF7B6B80446DBE763
:1044C800FCF733FE074B032C03EB051585ED030AB8
:1044D800F0D1A9E73246052304490548BDE87040F4
:1044E800FDF7ECB95023002040EA0208BFE90208B2
:1044F800C5E902082DE9F04F87B00346FEF7ACFC8A
:10450800064620B1FFF790F807B0BDE8F08F05AA7E
:104518006149DFF8B091DFF8B0A1DFF8B0B1184613
:1045280023F0B5F834460546B0464FF0FF37A5B935
:104538005A4B78B20C2606FB05F2D118D2568242A5
:1045480000F08C800135042DF5D1B8F1000F34D17D
:1045580053483946FDF786FAD6E7012E0ED0022ECB
:1045680011D01EB92846FCF7C3FD074605AA4A49DB
:10457800002023F08CF801360546D8E72846FCF7DA
:10458800B7FD8046F2E74946284625F0CBF920B921
:104598004449284625F0C6F908B144F001045146BB
:1045A800284625F0BFF928B95946284625F0BAF912
:1045B8000028DBD044F00204D8E7002C08BF03240D
:1045C8000023E4B202930194CDF800801A461946FC
:1045D8000BF030FB054610B939463348BAE7424676
:1045E80039463248FDF73EFA39463148FDF73AFA7E
:1045F800304B1C6820460BF0FDFA28460BF0FAFAFF
:1046080000210846FCF79AF900210120FCF796F9E9
:104618002046FCF7B8F870B101210020FCF78EF9AC
:104628002046FCF7AAF801462846FCF7AFF8002117
:104638000846FCF783F92846FCF7A5F80028E7D0D8
:1046480001210020FCF77AF92846FCF796F8014684
:104658002046FCF79BF800210846D7E74D68002D57
:104668003FF473AF39461448FDF7FCF954B1697942
:104678008C4207D022461148FDF7F4F9E1B22846EA
:10468800FCF772F8EB6A002BAED00D48FDF7EAF99B
:104698000023EB62A8E700BFFAF4020800640020D8
:1046A800C3EA0208BDEA0208EBEA02080AEB0208BC
:1046B80075EB02087C37002027EB02083FEB020865
:1046C8005FEB0208BAEA0208C0EA0208B7EF02087C
:1046D8002DE9FF410346FEF7BFFB38B136490022FA
:1046E800012004B0BDE8F041FEF736BE019002900B
:1046F800039018465D1CFCF7FBFC44B220460BF007
:10470800E1FB064600283BD08DF8084001242846E6
:10471800FFF7C0F9074620B1FCF7EAFC0134019025
:10472800E4B2DFF8988000253846FFF7B3F907466A
:10473800F8B1FCF7DDFC002258F822108842D3B209
:1047480003D00132112AF7D1002358F823209042D0
:104758000FD1022D1CD0032D1FD0012D12D05A1EAF
:104768000F2A03D88DF809300134E4B20135042D3D
:10477800DAD1052C17D804B0BDE8F041FEF754BFD4
:104788000446C4E71A1F042AF0D88DF80A30EBE76C
:10479800082BEBD88DF80C30E6E75A1F052AE5D828
:1047A8008DF80B30E0E701AB03CB3060186871601F
:1047B800B06004B0BDE8F081CC630020A0E102083D
:1047C80038B50D4604461EF039F82A4601462046FB
:1047D800BDE83840FDF77FB82DE9F0430024DFF845
:1047E8006080DFF860908BB00746254604EB08062A
:1047F800694630461EF05DF83946684625F092F85D
:1048080078B169464846FDF72DF800213046FFF794
:10481800D7FFFCF7E9FA3046FEF764FEFCF7E4FA46
:104828000135093440F664339C42DFD115B9034899
:10483800FCF7DEFA0BB0BDE8F08300BF08EA020817
:1048480070A70208E2EB02082DE9F0472DED028B74
:104858008AB0804621F01EFC054628B1012824D1E3
:1048680098F800302A2B20D18948DFF84482894FF4
:10487800FCF7BEFA002404EB0806694630461EF031
:1048880018F869463846FCF7EDFF29463046FFF729
:1048980097FF0934FCF7A8FA40F664339C42EAD142
:1048A8000AB0BDEC028BBDE8F0873D21404624F0FC
:1048B800EAFF002800F0DF80034613F8012C202AC5
:1048C80003F1FF3130D0A3EB0803441C2278202ADF
:1048D80004F101012AD0DFF8D8A10027DEB207EBE6
:1048E800C7055544694628461DF0E3FF684621F090
:1048F800D1FB6946814602464046FCF7DFFB0028AB
:1049080040F0BD80B14540F0BA806B7903F00F08E4
:10491800B8F1060F0CD1204621F0BCFB2146024617
:1049280028461DF098FFBBE70B46C6E70C46CDE7C7
:1049380013F0C0030AD0402B5ED05748FCF73EFA6C
:104948002846FEF7CFFDFCF74FFAA9E72378002B9E
:10495800F3D05249204624F0D3FF0646204621F0E2
:1049680099FB8642E9D12046FCF7DFFB2846B0EEEA
:10497800408A1DF005FF07EE900AF8EEE77AB4EEDC
:10498800E78AF1EE10FAD8DB28461DF0E1FE07EEC3
:10499800900AF8EE677AB4EEE78AF1EE10FACCD80E
:1049A800B8F1050F17D0B8F1040F1FD1214614F83C
:1049B800013B202BFAD0092BF8D0013900230A201B
:1049C80011F8012F303AD2B2092A02D800FB03238A
:1049D800F6E708EE103A28461DF030FFB8F1050F4B
:1049E80036D8DFE808F032323E3E42452046FCF732
:1049F8007FFB08EE100AEEE7AB799FED298A1D2BA5
:104A080096BF284E064606EBC306002796F804A074
:104A18003B46B946574503D3B9F1000FDBD18CE7C4
:104A2800002BF9D133686FF0004253F82700214674
:104A3800FCF744FB002808BF08EE107A0ABF0123E0
:104A480000234FF001090137E4E718EE103A03702C
:104A580069461548FCF706FF00212846FFF7B0FE17
:104A68001EE718EE103A0380F2E780ED008AEFE7C0
:104A780080ED008AECE74046FFF7AEFE10E701370D
:104A8800B7F5A27F7FF42BAF0848FCF7B1F907E729
:104A9800A3EB0208E2EB0208CEEB0208B5EB020832
:104AA80000000000ECD50208C3EB020808EA02087F
:104AB80070A702082DE9F04F81468DB08846002680
:104AC800464BF418464B1868FCF74CF994F805B0B7
:104AD8000BF030034B4549D120461DF08DFEFCF705
:104AE80027FA054620461DF05DFEAA6801921718B0
:104AF800824620461DF0A2FE0BF00F010546019AE2
:104B0800062968D8DFE801F0043A3F43484C5A00C8
:104B180012F80A200378D31AD3F1000A4AEB030AE1
:104B280018F0200F02D0BAF1000F1FD102A92046B9
:104B38001DF0BFFE18F0400F0DD0BAF1000F0AD1DA
:104B480002A92848FCF78EFE524629462046FCF763
:104B5800C2FEFCF749F902A92348FCF783FE0022AC
:104B680039462046FCF7B7FEFCF73EF9093640F611
:104B780064339E42A4D10DB0BDE8F08F12F90A202B
:104B880090F90030C7E732F80A200388C3E732F902
:104B98000A20B0F90030BEE752F80A200368BAE7E5
:104BA80097ED007AD0ED007AB4EE677AF1EE10FA5C
:104BB8000CBF4FF0010A4FF0000AB1E720461DF084
:104BC800C7FD2946421C384624F073FEB0FA80FA25
:104BD8004FEA5A1AA4E74FF0000AA1E770A70208A3
:104BE80078370020DDEB0208DEEB0208A0F2DC508B
:104BF800164BB0F5FA7FA8BF4FF4FA70984210B57B
:104C0800B8BF18460C461146FCF7F0FF00B207EE95
:104C1800900A9FED0F7AF8EEE77AE4B287EE870AFA
:104C2800FBEE096AE0EE006A07EE904AB8EE677A92
:104C3800DFED087AE7EE267A67EE807AB3EE090AA6
:104C480087EE800A22F078FD00B210BD0CFEFFFF4F
:104C58000000C84200401C450F4B1B68590702D58D
:104C68000E4A1278AAB19A0603D50D4A92F838204E
:104C78007AB10C4A92F8C00058B10B4A12880AB1AE
:104C88009B0707D4094BB3F84800003018BF012030
:104C980070470120704700BF78620020DC36002092
:104CA800D84B0020E8550020603300209005001004
:104CB8002DE9F043A94C256815F0040687B006D005
:104CC80001210020FBF73AFE07B0BDE8F083FFF7AB
:104CD800C3FFA34B002800F0078145F40075256049
:104CE80083F892609F4B93F82930012B236814BFF7
:104CF80043F4802323F4802323609B4B1B7843B920
:104D08001DF046FF2368002800F0FC8043F40023D0
:104D1800236013F063FD40B11DF062FF2368002893
:104D280000F0F38043F400032360904F23683E684B
:104D3800350754BF43F4807323F4807323608C4B8E
:104D48001B88632B23684FF008008CBF43F48063F3
:104D580023F4806323601DF001FF8046002840F0A3
:104D6800D98013201DF0FAFE002840F0D3800920D6
:104D78001DF0F4FE002840F0CD80F00640F1C88018
:104D880003201DF0EBFE002840F0C48023201DF016
:104D9800E5FE054613F022FD90B1B8F1000F40F092
:104DA800BB8013201DF0DAFE002840F0B5800320F8
:104DB8001DF0D4FE002840F0AF8023201DF0CEFE69
:104DC8006C4B5A789946002A00F0AB806A4B6B4AC4
:104DD80093F80080B8F1000F03D1694BDB79022BFF
:104DE80007D1137A002B00F0998086F0010606F0AF
:104DF80001082368590704D41DB1002808BF4FF0E3
:104E0800010892F9F937002B14DDD2F85C320393CC
:104E1800D2F86032049303A9D2F8643205930122D0
:104E2800684620F003FB68461FF0BAF9B9F80E305F
:104E3800984202D8B8F1000F73D0236843F4006396
:104E48002360504B1B689A076FD53B689B056CD451
:104E5800236843F4005323600FF0ACFE2368002856
:104E680067D143F400432360474B187868B9256835
:104E780025F0784323F07F03002B5DD01DF06EFEF4
:104E8800002859D045F48045256012201DF066FEA3
:104E98002368002858D043F48033172023601DF07E
:104EA8005DFE2368002852D043F400331B202360A2
:104EB8001DF054FE236800284CD043F08073236013
:104EC8002368324A23F0784323F07F0303B1022397
:104ED8001370FBF7C2FB2E4B1B68C01A0028FFF6A5
:104EE800F3AE11F013FBEFE693F8922025F400756A
:104EF8002560002A7FF4F6AE012083F892000BF0BB
:104F08005DF8EFE623F4002302E723F400030BE740
:104F180045463FE701253DE7012051E74FF00108ED
:104F280067E7236823F400638AE7236823F40053C0
:104F380091E723F4004396E700201DF00FFE0028B8
:104F4800A3D125F480459FE723F48033A5E723F414
:104F58000033ABE723F08073B1E700BFB06C0020EB
:104F68007C140020B46C002000230020F44C0020A6
:104F7800D0030010004D0020356100203864002067
:104F8800A838002078620020E40300208136002041
:104F980084360020084A03465078C01A18BF0120FA
:104FA800032B28BF00235370044AC3EBC30302EB4F
:104FB8008303034A13607047F02D0020F03300206C
:104FC800E85B0020022810B50C460CD8FFF7E2FF7A
:104FD800054B064859780131FCF770FC2146302012
:104FE800BDE8104066E510BDF02D0020E8EB020892
:104FF80070B50B4E35782D1A18BF012503280446C5
:1050080034BF044600242046FBF74CFF054B3470A0
:1050180004EB840403EB8404034B28461C6070BD36
:10502800F02D002010150020BC380020022810B5F3
:105038000C4610D8FFF7DCFF074B084819780131F8
:10504800FCF73CFC21461020FFF734FD21462020C8
:10505800BDE810402EE510BDF02D0020F0EB020851
:105068002DE9F04F8DB010F088FDDFF8B481674B63
:10507800A3EB08034FF003090193182200210DEB5D
:10508800020024F0E9FB019B0793614BCDF81880DF
:105098001A69120641BF5F4A5A6002F188325A60A3
:1050A8000CAC012534228DF82C50DA607E2304F8EC
:1050B800243D2A46214606A8FBF7AEFF21462A468C
:1050C8000020FBF7C2FF544CADF80E004FF0000B68
:1050D800524B9C423AD3022204A9002406A8ADF8F8
:1050E8001040FBF799FFBDF80E00022204A9FBF758
:1050F800ACFF0CA9022221F8220D06A8FBF78CFFB1
:10510800099860B108ABC0F104022146184424F0A4
:10511800A3FB089906A8FBF725FF09940A909DF8B8
:105128002C300A9A23B13A490B6943F080030B618A
:10513800B9F101095FD0002A9FD198F800307E2B81
:105148005BD1FBF78DFF00285AD156E062888DF8B5
:1051580015B0C2F30B06B31DADF810302388C3F3A6
:105168000B011B0B8DF814301304ADF812101BD46F
:10517800062204A906A8FBF74FFFBDF80E00062279
:1051880004A9FBF762FF3246ADF80E00616806A875
:10519800FBF742FFBDF80E0061683246FBF755FF8A
:1051A800ADF80E00143493E700273D460135EDB203
:1051B800062204A906A88DF81550FBF72DFFBDF8A7
:1051C8000E00062204A9FBF740FF6368ADF80E0045
:1051D80003EB070A3246514606A8FBF71DFFBDF848
:1051E8000E0032465146FBF730FF032DADF80E0096
:1051F8003744DBD1D6E7002A9FD00520FBF7A6FB72
:1052080010F0E4F80DB0BDE8F08F00BF000004080E
:105218000020024023016745000C03085C0F0308C7
:1052280000E80308044808B5FBF7C8FDFFF718FFB6
:105238000020FFF731F800BFFDEB02082DE9F04F21
:105248002DED048B83B010F098FC964C964B9C4245
:10525800C0F08380954C2078FFF7CAFE6078944CA4
:10526800FFF798FE934B5A899989914224BF0022EF
:105278005A81198ADA89914224BF0022DA818E4A3A
:1052880001921368D88F998F884224BF00229A8789
:10529800237C627C89489A4224BF00232374FBF74D
:1052A80059FE874B1B78012B02D14020FBF752FE99
:1052B800844F00263546B9464FF0FF0848F2BC3AFD
:1052C800F259530803F07733900800F03330D31ABB
:1052D8001B1AD00800F011301B1A03EB131312F03D
:1052E800010103F00F33B3FBF8F0C0EB002018BF47
:1052F8000135A3EB000318BFEDB2012B0AD9022B2D
:105308000ED111B112EA0A0F04D109EB060020F000
:1053180013FB28B10C36302ED2D1013D022D06D90F
:105328000D20FBF705FE10B16649FBF7D3FD664A71
:10533800664D938B518B643B8B42A8BF0B465383BE
:105348002B7A042B84BF00232B722B7A013B032B6F
:105358004FD8DFE803F0787F8B92B4F90230002B46
:10536800A7BF4FF00009C8464FF001084FF00309E6
:1053780046464E4501D9143468E7554FA6EB080A4E
:105388003D88002D00F00182524B7919994280F036
:10539800FC81052D40F2F98122887888C2F30B023E
:1053A800904224D17A7902F0030296421FD15146E5
:1053B800204697F804B0FBF7AFFD2188BBEB113FFF
:1053C80012D1B4F802E06068CEF30B01AA1F8A423A
:1053D800A8BF0A461EF4004F1CBF5FFA8AF301FB00
:1053E8000300B91D24F013FA0136F6B2C1E70F46DF
:1053F800C6E7EB88B3F5F57FA8BF4FF4F573EB80EC
:1054080000BFDFF8D480002640F6643706EB080AB0
:1054180050461DF0B5F9834650461DF099F981466E
:1054280050461DF00BFA9AF8053003F00F03062BCF
:1054380000F29E81DFE813F02D005200750177011C
:105448007F0185016000EB8840F63C729342A8BF5B
:105458001346D4E7EB88B3F5FA5FA8BF4FF4FA53C5
:10546800B3F5FA6FB8BF4FF4FA63C8E7EB88B3F542
:105478007A5FA8BF4FF47A53F2E7EB88B3F5FA4F97
:10548800A8BF4FF4FA43B3F5FA7FB8BF4FF4FA73E5
:10549800B5E700785845C0F25281814534BF0020F5
:1054A800012026E0000C03085C0F0308F02D002003
:1054B800005C0020EC5B00205838002000630406E4
:1054C80018630020CC630020004D002044570020C2
:1054D80001E803080000040870A7020890F90030EA
:1054E8009B4500F32C814FFA89F08342CCBF002002
:1054F8000120002800F03C810936BE4286D1A54A29
:10550800136823F080631360A34BB5F800E0D3F869
:1055180000A06D889AF80070A5EB0E05642205FBC3
:1055280007F393FBF2F39D4A73441380BAB202EB7C
:1055380082035B005242C7F16409009392B20020D3
:105548005FFA89F94FF00A0B4FF47A7813B2002BFF
:1055580040F3138149469AF8016003FB03FC06FBFC
:105568000CFCC6F1640611FB01F19CFBF1F131441E
:105578004B43009993FBFBF30B441BB288496B43E5
:1055880093FBF8F3734421F8103001300A320B28EA
:1055980092B2DBD1834D0FF0E3FC30220021824828
:1055A80024F05AF91DF09CFA2979804B6422C8200E
:1055B80012FB010199606979A3F8308012FB01029E
:1055C800DA60012100221A615A619A61DA611A626D
:1055D8005A6283F8282083F8292099715A859A8578
:1055E800DA85B4F90430724D002B40F0CA80B4F962
:1055F8000630002B40F0C580B4F90830002B40F08D
:10560800C080B4F90A30B3F5805F40F0BA80B4F9CD
:105618000C30B3F5805F40F0B480B4F90E30B3F5C8
:10562800805F40F0AE802B6823F400732B600FF08E
:10563800B5FC604ADFED607AB2F8D0105F4B604C81
:10564800DFF88C8107EE101AB8EEC77AB2F8D210DC
:10565800C7EE276A04F5EA77052607EE101AB8EEB2
:10566800C77AC3ED006AC7EE276AB2F8D41007EE0E
:10567800101AB8EEC77AC3ED016AC7EE276AB2F806
:10568800D61092F8D8201A7407EE101AB8EEC77A16
:10569800C3ED026AC7EE276AC3ED036A2677C4F82A
:1056A8001880667764612046142200219C3424F017
:1056B800D3F8A742F2D12B68DB0601D50AF010FE19
:1056C800019BDFED408A1C68B4F9503007EE903A30
:1056D800F8EEE77AB2EE049A87EE890A20EE280AF5
:1056E800FCF778FBB4F9523007EE903AF8EEE77A17
:1056F800B0EE408A87EE890A20EE280AFCF76AFB9A
:10570800314B28EE000A002283ED000A2F4B1A7055
:1057180013F084F803B0BDEC048BBDE8F04F0FF034
:1057280055BE0088B6E6B0F90000834507DC0FFADD
:1057380089F94845DAE600685845BFF4AEAE00205E
:10574800D7E607EE90BA90ED007AF8EEE77AB4EE75
:10575800E77AF1EE10FAF2DB07EE909AF8EE677A44
:10576800B4EEE77AF1EE10FA94BF01200020C0E60B
:10577800084A136843F08063C5E60CBF0121394627
:10578800E9E62B6843F4007350E751462046FBF7DF
:10579800C3FB29E6B06C0020BC380020C86100209B
:1057A80020160020A83800202C300020B46C0020DF
:1057B800F44C00207C14002000401C460C0600100D
:1057C800F401001035FA8E3CB0030010C803001035
:1057D800289C020810B50446FFF7DCFB18B1FFF758
:1057E8003FFCFFF72BFD601CC0B2BDE810400AF07B
:1057F800D1BC10B50C4C03461846FDF72DFB38B14B
:105808000A4B0B485978BDE810400131FCF756B8EF
:105818001846FBF76DFC0138022804D8C0B2FFF720
:10582800D9FF2346E8E710BD97FB0208F02D0020BA
:1058380004EC020810B50446FFF7DAFB18B1FFF7CD
:105848000FFCFFF7FBFC601CC0B2BDE810400AF07B
:10585800A1BC10B50C4C03461846FDF7FDFA38B14B
:105868000A4B0B481978BDE810400131FCF726B8FF
:105878001846FBF73DFC0138022804D8C0B2FFF7F0
:10588800D9FF2346E8E710BD97FB0208F02D00205A
:105898000CEC020808B5FFF7E3FBFFF7CFFC01208B
:1058A800BDE808400AF076BC38B5154C154DAC4239
:1058B80011D30020FBF7F6FA13480FF06BFD134ADB
:1058C800136843F48003136000BF114B1878BDE8D8
:1058D8003840FFF78DBBB4F90230002B4FF00001C0
:1058E800204603DBFBF718FB1434E0E7FBF714FB57
:1058F80001212046FBF710FB02212046F2E700BFFA
:10590800000C03085C0F030817EC0208242E002083
:10591800F02D00202DE9F04F0E468DB07349044656
:10592800FEF7C0F90546002840F0AA8070492046D5
:10593800FEF7B8F90546002840F0A4806D492046D6
:10594800FEF7B0F90546002840F09E8020466A49D7
:10595800FEF7A8F90028054612BF102425460124A1
:105968000EB144F02004654B654E93F8009093F80F
:105978000180644F0193BE42C0F08880FFF794FF16
:105988004846FFF735FB4046FFF704FB5E492846CB
:10599800FEF788F908B144F0400414F0110F00F044
:1059A80088810020FDF7B2FA04F03003302B02D1D1
:1059B8005648FBF783FF564D564AD5ED007ADFF877
:1059C80078A1DFF878B1F5EE407AF1EE10FA0CBF65
:1059D800012100212046FCF71DF82A464E4D4F496B
:1059E8002046FEF78DFC95F902104D4AB1FA81F177
:1059F80049092046FCF70EF82A464A492046FDF791
:105A080069FB494A49492046FDF7B6FB484B1E68E1
:105A1800484B1F684FF000085AF82850002D43D112
:105A2800DFF81CA1A84667EA060B434B53F8285039
:105A3800002D00F087802B78FBB14FF0010909FA9F
:105A480008F917EA090F0BD066EA070313EA090FEA
:105A580052462B4614BF012100212046FBF7C4FF04
:105A680016EA090F09D01BEA090F2B46524614BF44
:105A7800012100212046FBF7CDFF08F10108D4E7FA
:105A880001246DE702246BE7042469E77288B06893
:105A9800716812F4004FC2F30B0218BF02EB420206
:105AA80023F0B5FE143666E72B78DBB14FF0010919
:105AB80009FA08F967EA060313EA090F14BF012176
:105AC80000212B465A462046FBF78EFF66EA07035D
