:020000040800F2
:1000000000000110396C03089FE00208DD48010878
:10001000F56C0308F56C0308F56C0308000000009C
:100020000000000000000000000000009DE0020849
:100030009BE002080000000099E00208E1B300081C
:10004000F56C0308F56C0308F56C0308F56C030800
:10005000F56C0308F56C0308471000084F10000802
:10006000F56C03084D1000084B100008D51D03085F
:10007000C51D0308B51D0308A51D0308911D030830
:100080007D1D0308691D0308F56C0308F56C030862
:10009000F56C0308F56C0308F56C030849100008BB
:1000A0002D1F0308091F0308E51E0308511F03083D
:1000B000D51E0308C11E0308AD1E0308F56C030816
:1000C000F56C0308F56C0308F56C0308F56C030880
:1000D000F56C0308993C0208F56C0308913C020892
:1000E00045100008F56C0308F93003085D1E03088D
:1000F000351E03080F1E0308851E0308551D03083F
:10010000F56C0308F56C0308991E0308F56C0308E9
:10011000F56C0308F56C0308F56C0308F56C03082F
:10012000411D03082D1D0308191D0308051D0308A3
:10013000F11C0308F56C0308F56C0308F56C030863
:10014000F56C0308F56C0308F56C03086D2B0308C8
:10015000DD1C0308C91C0308B51C0308893C020800
:10016000F56C0308F56C0308F56C0308F56C0308DF
:10017000F56C0308F56C0308F56C0308F56C0308CF
:08018000F56C0308F56C03089F
:1001880083681A68937A0133DBB20A2B937205D914
:1001980050780349002321F810309372704700BF4C
:1001A8007A43002070B5524B1A7814240132B2FBFE
:1001B800F4F004FB10229C68586D1A70A142DA68AA
:1001C80008440CD293F85C40002C00F08B8000F5BA
:1001D800803082423CD3C2F5803202440AE0824237
:1001E800F9D293F85C40002C0CBF00244FF4803403
:1001F800821A121B996093F860101A61002201316B
:1002080083F85C201422D86091FBF2F002FB1011F5
:1002180083F8601093F861101869013191FBF2F4CA
:1002280002FB141283F8612040F68C2290423CD9DC
:10023800197993F9592091422BD10A1F0C2A28D8F1
:1002480093F85A20182A06D8013283F85A2004E075
:100258004FF48034CCE783F8581093F95820914232
:100268000FD193F85B0060B1224C234D00209042DF
:1002780011DB214800240F2A13DD204802780132BF
:100288000270012283F85B2083F8591000221A714A
:1002980070BD0022D9E754F8046F25F810600130CA
:1002A800E5E720F812400132E5E793F85B20EAB170
:1002B800A0F2EF2140F2DA52914207D81A790F2AB8
:1002C80004D803EB820101324861E0E700220C48C0
:1002D80083F85B2011461346C2180433402B116182
:1002E800FAD170BD8242BFF476AF81E770BD00BF1E
:1002F80000160020101600207A43002058430020E2
:100308000416002010B50A4B1A7814240132B2FBE7
:10031800F4F004FB10221A705A6D01320A445A652F
:100328004FF6FF72914204BF012283F85C2010BD92
:1003380000160020024B53F820305981704700BF47
:10034800E07E00200120704701207047F0B5094E7B
:1003580034683F2C0DDC0FC8074F4FEA041E0EEB24
:10036800070585E80F00054B1B684EF80730013478
:100378003460F0BD6036002060320020D8BD002017
:1003880070B5114C05460E4600220023D4E91A0127
:1003980036F09CF820B10AA3D3E90023C4E91A2354
:1003A800304635F0C5FDD4E91A2335F051FF36F053
:1003B800D5F804EB4504A4F8700070BDAFF30080D5
:1003C800ABAAAAAAAA461040001600200E4B9842D3
:1003D8000AD0A3F57843984212D003F58063984277
:1003E80010D04FF0FF3070470023084A142101FB5A
:1003F80003231A8A013292B21A82188A80B270478D
:100408000123F2E70223F0E700300140D811002071
:10041800F8B584894FF6FF764FF47A740BB901204A
:10042800F8BD92B1157801320789BF070FD5ADB273
:1004380085814FF47A740589ED0712D58589ADB2A7
:1004480009B10D700131013BE8E7FF25ECE7013CFC
:10045800A4B2B442E8D1FFF7B9FF003018BF0120B9
:10046800F8BD013CA4B2B442E5D1F4E708B540F2C6
:10047800E9330289920708D589B2818140F2E933CC
:100488000289D20709D5808905E0013B9BB2002B80
:10049800EFD1FFF79BFFC0B208BD013B9BB2002B19
:1004A800EED1F6E7A0F13003DAB2092A01D81846EE
:1004B8007047A0F16103052B01D857387047A0F1A8
:1004C8004103052B94BF37384FF0FF30704703685E
:1004D8005A1C02601970704703685A1C0260197030
:1004E80070472DE9F84F002B14BF4FF030094FF03B
:1004F80020090A9B141E07468846BABF64424FF07B
:10050800010B4FF0000B13F8012B02B1DCB9BBF162
:10051800000F1ED1254615F1FF3516D223462C466D
:100528000A9D5E1B05EB060A15F8011B99B9BBF17C
:10053800000F05D02546002D10DC002CA8BFA244D2
:100548005046BDE8F88F013CDDE749463846C047CC
:10055800E1E70023E4E73846C047E3E74946384681
:10056800C047013DE7E7D0ED006AD0ED057AE6EE39
:10057800807AB0EE407AB0EE670AD0ED037AD0ED1B
:10058800016A67EEC07AE7EE267AD0ED066A77EE62
:10059800A67AD0ED026AC0ED057AD0ED047A67EE4E
:1005A800C07AE7EE267AC0ED067A70477047432393
:1005B8000B800148704700BF0000002010B5074CB1
:1005C800606CFF2807D00649D1F89020943131F0AB
:1005D800B6FFFF236364002010BD00BF00000020A9
:1005E8000016002008B5D0F8E4355B6A984700206B
:1005F80008BD08B5D0F8E4351B6A9847002008BD47
:10060800D0F8E43510B504461B689847D4F8E835A7
:100618009B689847002010BD08B5D0F8E435DB6921
:1006280003B19847002008BD08B590F8123180F84A
:100638001331042380F81231D0F8E835DB68984785
:10064800002008BD10B5D0F8E83504461B69984766
:10065800032384F81231002010BD70B54B784C6923
:10066800012B27D182691568136914B964F306034D
:1006780005E08E68B442F9D94E6166F3060343F487
:1006880000231361C478012C05D10B780E6900EBA7
:1006980083039B695E6145F00445156044B94B6965
:1006A80033B102690978506B01238B4003435363CC
:1006B800002070BD0B788E6800EB83035A6D1568B7
:1006C80013696CB966F3060343F400231361C37816
:1006D800012B04BF0B69536145F004451560E7E73A
:1006E8004E61EFE72DE9F0414A780C784B69012A11
:1006F80051D100EB840EDEF818703D683E6963F353
:1007080012061BBB62F3DC463E61C278012A2CD17B
:100718000C697C61CC78012C07D100698068C00520
:1007280054BF45F0005545F0805545F00445012C6F
:100738003D6008D13AB99BB20333C968DEF8D000EE
:100748009B10934222D10020BDE8F081D1F808C067
:1007580003EB0C02013AB2FBFCF262F3DC46CA7806
:10076800012A08BF62F35E76CEE7CE78012ED1D09B
:10077800002BCFD0D0F810C00126DCF8348006FA60
:1007880004F444EA0804CCF83440C3E751F82240A2
:1007980004600132D5E700EB84048A68646D25683B
:1007A8002669ABB962F31206012363F3DC462661BE
:1007B800C378012B04BF0B696361CB78012B03D18C
:1007C8004B79A3B145F0005545F004452560BAE7DB
:1007D8001344013BB3FBF2F363F3DC46C3F30903B1
:1007E800534363F31206C3F312034B61DFE745F08B
:1007F8008055E9E770B501F07F05282404FB050161
:1008080004FB05040126C4F82821C4F82C21002281
:1008180001F58E7184F81D6184F81C51C4F83421E7
:10082800C4F830311DB9FFF718FF002070BDFFF77D
:1008380059FFFAE7234BD3F89C200F2A70B502F131
:1008480001011E4603D0C3F89C10002070BD1E4C49
:100858000023C6F89C302378002BF6D11B4D2A685C
:10086800B2F5006F08BF2B60194B29681B689942C5
:1008780002D100232370E8E78CBFC1F500635B1A3F
:10088800C6F8A030D6F8A030402B8AB20DD9403B2C
:100898004031C6F8A03001232370296040230D4958
:1008A8000A448121FFF7A6FFCFE7194429604FF0DA
:1008B8000001C6F8A0100EBF022101219BB22170D1
:1008C800EDE700BF00160020D4B50020BCB500201D
:1008D800C0B50020D5B5002070B5194D2B78012B77
:1008E8002C4604D1174ED6F8A0305BB92B7023786C
:1008F800022B17D100231A468121FFF77BFF002323
:1009080023700FE010490C68402BA2B20CD9403B71
:100918004034C6F8A0300C6040230C490A448121B9
:10092800FFF768FF002070BD1C440C604FF0000109
:10093800C6F8A0100ABF02219BB22970EDE700BFDC
:10094800D4B5002000160020BCB50020D5B5002085
:1009580010B504461346C4F83C21C4F838210222D5
:1009680080F811210A460021FFF744FF002010BD3E
:1009780070B501F07F04282606FB040506FB040178
:10098800C5F88833002385F87443C5F88023C5F873
:100998008C3385F87533C37806FB0404012B08BF34
:1009A800C5F8842394F8743301F55D711BB9FFF71A
:1009B80054FE002070BDFFF795FEFAE738B52823EE
:1009C80003FB0101074DB1F88C130446284631F0AA
:1009D80081FD40232A4601212046FFF7C9FF002058
:1009E80038BD00BFA416002030B54A780B78002522
:1009F800012A2C4610D100EB830102FA03F389691E
:100A080063F30F0402696FF3CF350D60D36923EAEE
:100A18000403D361002030BD00EB8302516D012235
:100A280002FA03F363F31F44ECE770B504460125AB
:100A3800002680F8445180F8455100F5A271FFF76F
:100A4800D3FF04F5677184F89C5384F89D632046AE
:100A5800FFF7CAFF022384F86C3104F5B67184F8F5
:100A68006D512046FFF7C0FF31F0AAFD304670BD3A
:100A780030B54C780B78012C4FF000021DD100EBFB
:100A8800830504FA03F3AD6963F30F022B681C04B2
:100A98000DD48C6864F30A03CC78C98864F3934353
:100AA80061F3995343F0805343F400432B60036987
:100AB800D9690A43DA61002030BD00EB8304656D13
:100AC800012404FA03F363F31F42DFE72DE9F04141
:100AD80004460125022700264FF0400880F84451BB
:100AE80080F84551C0F84C8180F84771A0F84A5108
:100AF80080F8486100F5A271FFF7BAFF04F5677145
:100B080084F89C5384F89D63C4F8A48384F89F7385
:100B180084F8A0632046FFF7ABFF0823C4F87431BC
:100B2800032304F5B67184F86F3184F86C7184F886
:100B38006D51A4F872712046FFF79AFF064B1F719A
:100B48005E7131F043FD4346044A29462046FFF7CB
:100B58000FFF3046BDE8F08154150020A416002090
:100B6800F8B5044600254027012680F8745380F81C
:100B78007553C0F87C7380F8775300F55D71FFF703
:100B880077FF04F58E7184F81C5184F81D61C4F850
:100B9800247184F81F51A4F822512046FFF768FFFA
:100BA800D4F8E83584F81261A0785B68984728463D
:100BB800F8BD0E4BDA68D20310D4DA68D1060FD428
:100BC800DA68D2050ED4DA6812F0E00F0CD1DB68CF
:100BD80013F0020F14BF0820092070470120704746
:100BE800062070470220704707207047003C0240EB
:100BF80007B509238DF80730FFF7DBFF8DF80700ED
:100C08009DF80730012BF7D09DF8070003B05DF879
:100C180004FB38B582681468A578034645B90123F2
:100C2800A370A1800A222946BDE8384022F0D4BE2C
:100C3800A08889B2814238BF5A68E1803DBF1268F6
:100C4800D26A121A091A38BF89182181064A6178AE
:100C5800208922F811000025A5700A2201211846D2
:100C680022F0BAFEA57238BD7A430020094B07EE80
:100C7800901A53F82030B8EEE77A93ED040AD3EDD2
:100C8800057A10B5A7EE270ADC6836F0CFFF20609A
:100C980010BD00BFE07E00202DE9F0410B4DDFF8CC
:100CA80030802C686A69012714400CB9BDE8F081CE
:100CB800B4FA84F3C3F11F0307FA03F658F82300C4
:100CC8000368984724EA06046E61EEE7003C014099
:100CD8006853002070B50A7812F0600406460D4685
:100CE8002BD0202C30D1CC884B7804B312060CD5ED
:100CF80022461E49184631F022FCEA881B49304634
:100D0800FFF726FE0024204670BD194AC0F8944318
:100D18005364184AC0F890430323C2F8904080F8FF
:100D28001131943223460021FFF722FEEAE702221E
:100D38001144184631F003FCE5E74B780A2B07D03D
:100D48000B2B0AD0062BDED12FF012FB0224DAE798
:100D580001220949FFF7FCFDD5E78B781BB9054A45
:100D6800C2F8E430CEE72FF003FBCCE7941600205E
:100D78000000002000160020E416002003681B680D
:100D880018470368DB692DE9F04105460E4617460A
:100D98008BB90C463B1B3344002B01DCBDE8F081CA
:100DA80028460AF0F5FF0028FAD014F8011B284657
:100DB800FFF7E4FFEEE7BDE8F0411847014B18687C
:100DC800DCE700BF4CCA002038B505460C4614F8CD
:100DD800011B01B938BD2846FFF7D0FFF7E70D4BD7
:100DE8001B681B0110B407D50B4B1B685B050DD5A1
:100DF8005DF8044BFFF7C4BA084B03EB8003D3F844
:100E0800E8301BB107289CBFDB6819605DF8044B0C
:100E1800704700BF606B0020646B00200016002044
:100E28001FB5ADF80A30BDF81830ADF8040041F42C
:100E38008041ADF80C306846BDF81C30ADF806109E
:100E4800ADF80820ADF80E30FFF780FA05B05DF870
:100E580004FB1FB5ADF804006846ADF80610FFF7AF
:100E680075FA05B05DF804FB10B50409013C032CC4
:100E780000F00F0215D80C4B33F8141041FA02F3A6
:100E880013F001000ED0012090400138084035F0E1
:100E98004BFD064B1B5D1844054B0C2202FB003032
:100EA80010BD002010BD00BFC8A503085CA0030842
:100EB800A898002010B1036882885A83704710B13F
:100EC800036882881A83704770B5164690F90C201B
:100ED800142353430C4AD55883689A07044602D40E
:100EE8000069FFF7E7FF2846FFF7C0FA0123002251
:100EF80031462846FFF78CFAA3689B0702D420697D
:100F0800FFF7DDFF012070BDD8110020F8B51646A7
:100F180090F90C201F46142353430D4AD558836873
:100F28009A07044602D40069FFF7C4FF2846FFF772
:100F38009DFA3B46002231462846FFF769FAA36826
:100F48009B0702D42069FFF7BAFF0120F8BD00BF54
:100F5800D8110020F8B5164690F90C201F46142326
:100F680053430D4AD55883689A07044602D400694A
:100F7800FFF7A0FF2846FFF779FA3B4632460021E3
:100F88002846FFF745FAA3689B0702D42069FFF7B4
:100F980096FF0120F8BD00BFD8110020F8B516460D
:100FA80090F90C2014235343104AD55883689A07A4
:100FB80004460F4606D40069FFF77CFF0120002194
:100FC8000AF0EEF939462846FFF750FA3146284626
:100FD800FFF74CFAA3689B0706D4012000210AF00A
:100FE800DFF92069FFF76BFF0120F8BDD811002059
:100FF80028B10368828809B11A8370475A837047F9
:1010080030B1036882881B691A4214BF012000208E
:10101800704728B18088B0FA80F0C0F11F0070478F
:101028004FF0FF30704730B1006800F13F4000F5E5
:101038007E00800A70474FF0FF3070472CE62BE6A1
:101048002AE629E628E627E637B504468B682160B4
:101058000D46984701232373FF220023A37362736D
:10106800E3732B6B13B120469847E0730B4B93F84F
:1010780008311BB1E37B23F00103E37323685B6B47
:101088004BB1214601A8984728B1BDF80630013B6D
:10109800238203B030BDFF23FAE700BF001600200B
:1010A80003689B6A184703685B6A1847F7B5078A9D
:1010B8009F4204460D4609D301358572E2720468E1
:1010C80000250095A469A04703B0F0BD4FF0FF309C
:1010D800FAE72DE9F04105468AB018460F469046D2
:1010E8001C4634F0CBFD3B189DF84060AB72EB7B9F
:1010F80085F80B8036EA030319D0F20717D5114B90
:10110800C8221B68B3FBF2F3DB0706F0FE060ED518
:101118001F2828BF1F2004460246202102A838F0B5
:1011280018FF0AAB1C44002304F8203C02AC2B68CF
:1011380000965E694246234639462846B0470AB0BB
:10114800BDE8F081D8BD00202DE9F34104461846DA
:1011580016460D461F4634F091FD2368E672284472
:101168000022A0720092D3F8148032463B462946EA
:101178002046C04702B0BDE8F081036810B50446B8
:101188005B689847236820469B689847A37B013B88
:10119800A37310BD036810B504461B6898472368FD
:1011A80020469B689847A37B0133A37310BD03684F
:1011B8001B691847036810B59B68044698470123C4
:1011C8002373FF23637310BD03899B0752BF01205C
:1011D8000089C0F3C0107047F8B50679012E05469E
:1011E800964609D0022E1FD18368DB0758BF41F00D
:1011F8008001BDE8F84067E60C4B90F90C00182414
:1012080004FB003463786BB16B7BA1725B002372C3
:101218000023637223750223A370E660226122F023
:10122800CDFF237D1846F8BD0023FBE710530020AF
:101238002DE9F0410479012C05468E461F4609D058
:10124800022C20D18468E40758BF41F08001BDE832
:10125800F0415BE60D4B90F90C00182404FB0034B8
:1012680063786BB16B7BA1725B002372002363729E
:1012780023750223A370E760226122F09FFF237D7C
:101288001846BDE8F0810023FAE700BF105300209C
:1012980073B50379012B0D4616460AD0022B25D1CA
:1012A8008368DB0758BF01F07F01FFF777FE02B0C4
:1012B80070BD90F90C10427B0D488DF8076018241A
:1012C80004FB010460780028F1D06372E3600DF13B
:1012D8000703236100235200237502230846227264
:1012E800A572A37022F06AFF207DE0E70020DEE708
:1012F800105300200A4B70B50E46D3F80C51811CD0
:1013080089000446F2B201F0FC012846FFF7C0FF4D
:10131800A1000931320A2846C9B2BDE87040B7E7D2
:10132800001600202DE9F0410E4E8046002406F1FB
:10133800A007E0B200F0030343450ED136F814507D
:1013480037F81430EB1A002BB8BF5B42052B04DDCD
:101358002946FFF7CFFF27F814500134102CE8D1A5
:10136800BDE8F0817016002038B50F4D102200211D
:1013780041F2D774B4FBF0F4D5F80C01FFF788FFFD
:1013880001200AF01EF8621ED2B2FE21D5F80C0127
:10139800FFF77EFF01200AF014F8D5F80C0180222F
:1013A8000021BDE8384073E7001600202DE9F04120
:1013B8000679012E054696469C4609D0022E21D173
:1013C8008468E40758BF41F08001BDE8F041C1E5F9
:1013D8000D4B90F90C00182404FB0034637873B1AA
:1013E8006B7BA1725B002372002323750223A37019
:1013F8006672C4F80CC0226122F0E0FE237D184614
:10140800BDE8F0810023FAE710530020F8B51F4625
:1014180090F90C300446142058430C4B1D58A3680F
:1014280016469A0703D42069FFF744FD00BF3B46E0
:1014380032462846FEF7ECFFA3689B0703D400BF9B
:101448002069FFF73CFD0120F8BD00BFD81100203E
:1014580073B50279022A22D103238DF8033090F95B
:101468000C001F4C8DF8022004238DF8043014233F
:10147800434302A80844E3581A49002601258DF879
:1014880000608DF801508B4210F8080C09D0A1F5C6
:1014980078418B421FD001F580618B421DD002B08C
:1014A80070BD31461A8822F040021204120C14252D
:1014B8001A8005FB01411A88C96822F0380231F800
:1014C80010101204120C0A431A801A8892B242F0C1
:1014D80040021A80E3E72946E4E71146E2E700BF45
:1014E800D81100200030014010B5427A044632B1CC
:1014F800036800F10A01406898470023637210BD31
:10150800124B53F8200070B5F8B1114A062303FBBB
:10151800002393F90140621C16D01879A8B10D4A2E
:101528000D4E155DDA7864211423002061438C1870
:10153800013B36F814402A4410FA84F0F7D11423FA
:10154800B0FBF3F080B270BD002070BD4C410020AC
:10155800F53600201C3A00201437002038B5032047
:101568000D461446FFF7CCFF07EE900AB8EE677AEF
:10157800DFED0A7A27EE277A5DB1F8EE047AF0EE0D
:10158800006AE7EE267A9FED067A67EE877AC5ED60
:10159800007A0CB1034B236038BD00BF6740533A53
:1015A80000007A443313904330B5094B0949C0B25F
:1015B8008B4200D330BD5A88140406D55D68DC68B8
:1015C800C2F30B0200FB025222601433F0E700BFA3
:1015D800703E04081C42040870B5448806460D464F
:1015E800C4F30B0400212246284638F0B2FC3169C6
:1015F800084B994208D3084B994205D222462846FF
:10160800BDE8704035F012BF19B12846BDE87040FA
:10161800084770BD1C420408A04404084388426877
:1016280013F4004F1EBFC9B2C3F30B0301FB03221F
:101638001146D1E7064B07498B4202D300231846CF
:1016480070471A88C2F30B029042F8D01433F3E7BC
:10165800703E04081C420408024A136823EA00008A
:1016680010607047E8520020024A1368184310605F
:10167800704700BFE8520020F8B50468C4F30D04B1
:1016880005460E4604B32F68FFF7B2FA092840F062
:101698008880454C236923F440732361236943F40C
:1016A80000732361236943F0010323613E60FFF760
:1016B8009FFA2369092823F00103236171D12B685C
:1016C80004332B600020F8BD384B394A93422BD99C
:1016D80002F58042934226D902F5804293422AD9E4
:1016E80002F58042934228D902F58032934226D9E6
:1016F80002F50032934224D902F50032934222D9EE
:1017080002F50032934220D902F5003293421ED9E5
:1017180002F5802293421CD9B3F1016F1BD3052037
:1017280009F084FEFBE70824FFF762FA092814D0C1
:101738004FF0FF30F8BD1024F6E71824F4E7202412
:10174800F2E72824F0E73024EEE73824ECE74024D9
:10175800EAE74824E8E75824E6E7134F3B6923F40F
:1017680040733B613B6943F400733B613B6923F081
:10177800F8033B613B6943F002031C433C613B694E
:1017880043F480333B61FFF733FA3B6923F00203EC
:101798003B613B69092823F0F8033B613FF473AFD1
:1017A800C6E76FF00100F8BD003C024000000E08DB
:1017B800FF3F0008F8B504460D468E180027B542CD
:1017C80001D12069F8BDE368591CE160234415F88C
:1017D800012B1A720429F2D1206918B9A168204690
:1017E800FFF74AFF2061E760E9E738B58D180C4636
:1017F800AC4200D138BD14F8011B13F0A1F9F7E78A
:1018080070B501221049114C114E0020FFF7EDFF71
:1018180022884AB1A518B54213D2052A11D9214602
:10182800FFF7E3FF2C46F3E721460222FFF7DDFF2F
:101838006388084AC31AA41A074A584214805841B0
:1018480070BD002070BD00BF00000E0801000E082A
:1018580000001008FCFF0D08902A002030B5024453
:101868000446944201D1002011E014F8013B11F81C
:10187800015BA3F141001928A5F1410098BF20336D
:10188800192898BF2035581B01D1002DE9D130BD4A
:1018980070B5034610F8012B202AFAD0092AF8D08F
:1018A8002D2A0ABF034601254FF0FF35591E002493
:1018B8000A2611F8010FFEF7F5FD0A2802D905FBE3
:1018C80004F070BD06FB0404F3E730B50278202A63
:1018D800034600F10100F9D0092AF7D02D2A47D193
:1018E8000346BFEE000A9FED3A7A1A46F2EE046A02
:1018F800134612F8010BA0F13001CCB2092C3DD9E6
:101908002E280BD1F2EE046A1146B0EE666A0B4639
:1019180011F8012B303AD0B2092838D91A7802F0D8
:10192800DF02452A4FD15A782D2A3BD102330120B4
:10193800013B00220A2513F8011F3039CCB2092CCB
:1019480036D9B2F59A7F28BF4FF49A72DFED216A33
:101958001346F7EE007A072B2DD802F00702F2EEB5
:10196800046A62BB88B3C7EE276A20EE260A30BD38
:101978002B2A08BF0346B7EE000AB4E707EE901A11
:10198800F8EEE77AE7EE267AB0EE677AB0E707EE88
:10199800902AF8EEE77AC7EEA65A66EE866A37EE20
:1019A800257AB4E72B2A14BF013302330020BFE79E
:1019B80005FB0212BFE767EEA67A083BCBE767EEA6
:1019C800A67A013ACDE7F7EE007A67EE276ACCE708
:1019D8000000000020BCBE4CB5EEC00ADFED2D7A39
:1019E800F1EE10FACCBF30EE270A30EE670ADFEDD1
:1019F8002A7A20EE270A30B5FDEEC07A87B017EEB6
:101A0800904A054684EAE470002303A9A0EBE47039
:101A18000093019302932EF0EBFD002CACBF202322
:101A28002D2303A88DF8003034F028F9012822D19D
:101A380030238DF801308DF802308DF8033003A97A
:101A4800684638F08EFA684634F018F90338C4B29C
:101A580022466946284638F0BBFA00232B550F4921
:101A6800284638F07EFA0DEB0401284638F079FA5A
:101A7800284607B030BD022805D130238DF8013043
:101A88008DF80230DBE7032804BF30238DF80130DE
:101A9800D5E700BF6F12033A00007A440327040811
:101AA80070B5064615460846B6FBF2F414B1204652
:101AB800FFF7F6FF05FB1464024B1B5D00F8013BC2
:101AC80070BD00BF64030408F0B50124B0FBF4F551
:101AD8008D4203D200271CB91C70F0BD4C43F5E7BA
:101AE800B0FBF4F604FB1600B4FBF1F41FB9002EAA
:101AF80001DC002CEFD1092E03F1010E08DD002ACC
:101B080014BF3725572535441D7001377346E2E762
:101B18003025F8E7084BD3E9002352EA030108D03F
:101B280006490968521843F10003C0E9002301205F
:101B380070470020704700BF60510020D8BD0020CA
:101B4800F0B5264E04460F460FCE8DB06D460FC534
:101B58000FCE0FC596E80F0085E80F0014F00303B9
:101B680035D1642194FBF1F201FB124242B94FF4E2
:101B7800C87294FBF2F302FB1343003318BF01232E
:101B8800C3F11D0340F26D1201930420631E93FB01
:101B9800F0F002FB04046FF0630093FBF0F02044C4
:101BA8004FF4C87493FBF4F318440630002207215D
:101BB800013F5DF822309742184490FBF1F4C4EBE2
:101BC800C404A0EB040004D1181A0DB0F0BD012321
:101BD800D6E701320C2AECD10020F6E760A0030812
:101BE800F8B514461D4606464FF47A72002320467F
:101BF800294634F031FE2C4B3C22034493FBF2F08F
:101C080002FB1031B17190FBF2F102FB11021820B6
:101C180072714FF4616293FBF2F292FBF0F100FBF8
:101C2800112232712149224A93FBF2F293FBF1F31C
:101C3800980040F2B55392FBF3F103FB1123B3F57F
:101C4800896F2DDA40F2DA2293422BDCB3F5B77FA5
:101C5800B4BF002201221749182707FB02170B21DE
:101C680037F811E0734501DA0139F9D100F5FA6066
:101C780010443080481CB0700C2000FB02120E4942
:101C880001EB4202013392F834209B1AF3704FF4AF
:101C98007A7200232046294634F0DEFD3281F8BDF1
:101CA8000322D8E70222D6E780BC92C7801F8607A6
:101CB8008051010090A003085CA0030837B50446D2
:101CC8006846FFF727FF054638B1DDE900232046BF
:101CD800FFF786FF284603B030BD01232080A3709C
:101CE800E37020716071A0712081F3E737B5054674
:101CF800FFF7E4FF044640B1054B02AA1B8822F80F
:101D0800023D294628462EF0BEFB204603B030BDD2
:101D1800A498002010B50288C378A2F5FA62591E6B
:101D280040F2B554930804FB031381780C2401395D
:101D380002F0030204FB02120C49847901EB42020F
:101D48001821928E1344027901FB032342790089FA
:101D58003C2101FB0323064A224401FB03234FF4E1
:101D68007A720021C2FB030110BD00BF5CA003080A
:101D780080436D380B684A689A4206D05A1C0A603C
:101D88001B7800B10370012070470020704710B520
:101D980002681146531C036011F8024B0160D31C02
:101DA8005178036093781B0443EA0123111D0160F5
:101DB800D078234343EA006010BD03685A1C0260D0
:101DC8001A4612F8021B0260587841EA0020704750
:101DD80091E80C009B1A012B10B5044606DD084655
:101DE800FFF7EBFF04B12080012010BD002010BDDB
:101DF80003685A1C02601878704738B5044609C849
:101E08001B1A9A42154606DC35F010FB22682A4454
:101E18002260012038BD002038BD38B5044600686E
:101E2800154635F003FB22682A44226038BD036852
:101E38005A1C0260197003685A1C02600A0A1A7058
:101E480003685A1C02600A0C1A700368090E5A1CAF
:101E580002601970704703685A1C026019700368A1
:101E6800090A5A1C0260197070472DE9F04F89B0B1
:101E780082468B4616461C4600270DF11408317819
:101E8800002934D0252904D050460136D8470137D7
:101E9800F5E771782D2905BFB178F51CB51C012629
:101EA80018BF0026302906BF297801230023029392
:101EB800A1F1300308BF0135092B4FF0000907D8FD
:101EC8000846FEF7EFFA0A2815D90EB1C9F100093C
:101ED8006C2940F08B802A78642A05F1010600F00D
:101EE800BC801BD8252A62D00BD8002AC7D1384617
:101EF80009B0BDE8F08F0A2303FB090915F8011B97
:101F0800DEE7582A1BD0632AB9D1354621785046D6
:101F1800D847261D013734462E46B0E7732A3AD0F3
:101F280008D8662A49D06E2AA9D1354623680434D0
:101F38001F60F1E7752A00F08B80782A9FD1A2F103
:101F48005800424204F104054346424110212068EA
:101F580007E02D238DF8143040420DF115030022BF
:101F68000A21FFF7B1FD2C46CDF80080029B4A46B6
:101F780059465046FEF7B5FA074480E72D238DF8F9
:101F8800143040420DF1150300220A21FFF79CFD91
:101F98002E46039CE8E73546236800934A4600230B
:101FA80059465046FEF79DFA261D0744B3E73546C5
:101FB80025215046D8470137AEE73546073424F087
:101FC8000703D3E9000103F1080434F0E7FA00EE4F
:101FD800100A4046FFF700FDCDF80080029B4A46F4
:101FE80059465046FEF77DFA074495E764293CD0E8
:101FF8000BD82529DCD003D800293FF478AF8BE72C
:1020080058290FD0632981D086E77329C4D004D812
:102018006629D3D06E2989D07EE775290FD0782913
:102028007FF47AAF58394A4204F104064A412068DD
:10203800434610213446FFF747FD2E4694E7231DFB
:102048000393002243460A212068FFF73DFD9FE7DE
:10205800251D434600220A2179E72068002804F15B
:102068000405FFF676AF434679E72068231D00286C
:10207800039383DB434687E70EB40FB505AB0190A6
:1020880053F8042B0649039301A8FFF7EEFE019BC2
:1020980000221A7004B05DF804EB03B0704700BF6B
:1020A800E10400082DE9F043384B8DB00CAA1B88D9
:1020B80022F80E3D064609A82EF0E5F9BDF92220C2
:1020C8003C2192FBF1F301FB132109B21DB2BDF8CB
:1020D80024300029B8BF4942B3F5FA6F44D39DF8BC
:1020E8002630013B0B2B3FD89DF82730013B1E2B98
:1020F8003AD89DF82830172B36D89DF829303B2B35
:1021080032D89DF82A303B2B2ED8BDF82C30B3F5A9
:102118007A7F29D20124002D9DF827009DF8287088
:102128009DF829E09DF82AC0BDF82C800791B4BF1E
:102138004FF02D094FF02B09002DB8BF6D428DE8E7
:102148008140BDF824209DF826300695CDF81490DE
:10215800CDF81080CDF80CC00D493046FFF78CFF44
:1021680020460DB0BDE8F08300200123ADF824001F
:102178008DF826308DF827308DF828008DF8290045
:102188008DF82A00ADF82C000446C4E7A498002076
:10219800890304080FB437B50B490C48096800686F
:1021A8000B4D06AB53F8042B0193FFF75EFE044674
:1021B800286809F0E4FD0028FAD0204603B0BDE8FD
:1021C800304004B0704700BF6436002068360020F5
:1021D8004CCA00202DE9F04F00F1100E85B00746DB
:1021E8000546002600F14009B0462B46BC4616E0DD
:1021F800F4EC016A1AED047AD3ED007AE6EEC77AB8
:10220800C3ED007AAC420AF1100AF1D108F10108D5
:10221800B8F1040F0CF1040C03F1040303D0AEF180
:102228001004E246EEE74FEA860B73464B451ED094
:1022380003EB0B0AB8469C4609E0FCEC016A18ED72
:10224800047AD4ED047AE6EEC77AC4ED047AD4456C
:1022580008F11008F1D1D4ED046A95ED007AC6EEC4
:10226800877A103317EE90CA44F810CFDEE70136AC
:10227800042E05F114050EF1100E07F10407B3D171
:102288000024009401940294039402F1100C074670
:1022980006466C4652F8045B2560EE463546BD425C
:1022A80028D1624504F1040406F1100605F114076B
:1022B800F0D104AE00F13C050A4656F8044D42F848
:1022C8000C4F2C460434A34202F10402D1ED037AE8
:1022D8001BD12A46D2ED006A87EEA67A103B8342CC
:1022E800A5F11405A1F1040181ED047AE4D105B04A
:1022F800BDE8F08FBEEC017AD4ED007AF5EC016A06
:10230800E6EEC77AC4ED007AC9E7D4ED006A92ED2B
:10231800007AE6EEC77AC1ED037AD3E71FB50C461B
:10232800024669461030FFF755FFDDED007AB6EE3C
:10233800007A67EE877AC4ED007ADDED017A67EE00
:10234800877AC4ED017ADDED027A67EE877AC4ED0B
:10235800027A04B010BDD1ED007A90ED066AD0ED96
:10236800095AB8EEE77AD0ED047AE7EE077AB7EEC5
:10237800005AC0ED047AD1ED017AF8EEE76AD0EDA3
:10238800057AE7EE267AC0ED057AD1ED027AF8EE05
:10239800E77AA7EE276A80ED066A90ED076A36EEBF
:1023A800076A80ED076A90ED086AA7EE266A80ED55
:1023B800086A26EEA66A75EE865AA7EE076AC0ED89
:1023C800095AD0ED0A5AE6EEA75AA7EEA76AC0ED59
:1023D8000A5AD0ED0B5A75EEA65AC0ED0B5AD0ED3D
:1023E8000C5AE7EE275AC0ED0C5AD0ED0D5AE6EE1E
:1023F800A75AC0ED0D5AD0ED0E5AE7EEA75AC0ED18
:102408000E5AD0ED0F5A75EEA75AC0ED0F5AD0EDFF
:10241800105A75EE875AC0ED105AD0ED115A75EE64
:10242800A65AC0ED115AD0ED125A75EEA75AC0ED52
:10243800125AD0ED135A75EE855AC0ED135AD0EDE5
:10244800005AE7EE065A90ED017AC0ED005AA6EE62
:10245800867A80ED017A90ED027AA7EE867AD0ED41
:10246800037A80ED027A37EE866A80ED036A704758
:1024780000F14001034600221A615A619A61DA614B
:1024880010338B4240F8042BF6D1704780EAE07392
:10249800A3EBE0738B4206DB002801DD401A70478E
:1024A80002D0084470470020704748F6A04398427D
:1024B80003DDA0F50C40A03870470028B8BFC0184D
:1024C800704744F25063984203DDA0F50C40A038F1
:1024D8007047034B9842BCBF00F50C40A0307047D2
:1024E800B0B9FFFF08B52DED028BB0EEC08AF0EE53
:1024F800408AB7EE000A30EE480A35F02BFF9FED10
:102508000E7ADFED0E7AE8EE077A9FED0D7AA8EEE7
:10251800277ADFED0C7AE8EE077AF5EEC08ABDEC93
:10252800028BF1EE10FA27EE800A44BFDFED067A3F
:1025380037EEC00A08BD00BF306E99BC2716983D1B
:10254800843459BEA40DC93FDB0F4940F0EEE06A60
:10255800B0EEC07AF4EEC76AF1EE10FAD4BFB0EE6E
:10256800476AB0EE666AB5EE406AF1EE10FA48D0F6
:10257800F4EEC76AF1EE10FA54BFF0EE475AF0EEE7
:10258800665AC5EE867A9FED206ADFED205A9FEDE8
:10259800205AE7EE865A9FED1F6AA7EEA56ADFED7F
:1025A8001E5AE7EE865A9FED1D6AA7EEA56ADFED73
:1025B8001C5AA7EEA55AF7EE005AE7EE855AB1EE77
:1025C800466AC6EE257AF4EEC76AF1EE10FA48BFFD
:1025D8009FED147AF5EEC00A48BF77EE677AF1EE00
:1025E80010FA48BF9FED107AB5EEC00A48BF77EEE3
:1025F800677AF1EE10FA48BFF1EE677AB0EE670A33
:102608007047DFED0A7ABEE739094E3DE3B59EBE55
:1026180069A2163E88FA16BE45FE7FBFA7DFA8B49A
:1026280099FB243FDB0FC93FDB0F49400000000046
:10263800FDEEC07A17EE903A2033402B43D8DFEDF9
:10264800237A9FED237AB4EEE70AF1EE10FA28DC3C
:10265800DFED207A9FED1E7AB4EEE70AF1EE10FA6C
:1026680022D4DFED1D7AB4EEE70AF1EE10FA1EDD92
:1026780030EE670A37EEC00A60EE007ADFED176ABF
:102688009FED177AA7EEA67ADFED166AE7EE876A5E
:102698009FED157AA7EEA67A20EE276AA6EE070A1E
:1026A800704730EE470ACEE730EE070AD4E79FEDD1
:1026B8000F7AB4EEC70AF1EE10FA44BF30EE270ADB
:1026C80037EE400AD8E79FED0A0A7047DB0F49400A
:1026D800DB0FC940DB0F49C0DB0FC93F9A7C2E36A0
:1026E800FAAF4FB93587083CA4AA2ABEDB0FC9BF89
:1026F80000000000DFED027A30EE270A98E700BFFD
:10270800DB0FC93F91ED005A08B5B0EE450AFFF757
:10271800F1FFF0EE405AB0EE450AFFF789FFD1ED20
:10272800014AB0EE405AB0EE640AFFF7E3FFB0EE9C
:10273800404AB0EE640AFFF77BFF91ED023AF0EEF3
:10274800403AB0EE430AFFF7D5FFF0EE404AB0EE4C
:10275800430AFFF76DFF25EEA46A65EE806A65EE11
:10276800247A64EE244A25EE007AC0ED004AF0EEA1
:10277800664AE3EEA74AB0EE463AC0ED034AF1EEE8
:10278800634AA4EE873AE3EEA67AA4EE867A24EEAC
:10279800400A25EE445A65EE845A80ED010AC0EDE0
:1027A800023A80ED043A80ED055A80ED067AC0EDD4
:1027B800077AC0ED085A08BD38B5334CB4FBF2F4BB
:1027C800A142F0EE404A1D46F7EE005A4FF00004D1
:1027D80053D207EE901A9FED2D7ADFED2D6AF8EEB1
:1027E800677A67EE877A07EE102AB8EE477A27EEFF
:1027F800267AC5EE876A87EEA63AB0EE430AFFF757
:1028080017FFF0EE402AB0EE430AFFF773FF74EEAD
:10281800A44AF8EE006A82EEA47AF5B1012D25D01B
:1028280077EE257A20EE260A85EE276A75EEC75AD6
:1028380080ED006A84EE276AC0EE276A80ED016A9F
:1028480085EEA77A83EEA76AC0ED036A80ED026A77
:1028580080ED047A8461446138BD35EEC04AB6EE35
:10286800005A24EE055AF0EE453AD9E720EE264AFA
:10287800F0EE653AB0EE655AD2E7C0ED005A446012
:102888008460C4600461E5E720A10700DB0FC9404C
:10289800BD37863500239FED010A8DE7F304353FE8
:1028A80030B507EE902A2DED028BB8EE670A07EED9
:1028B800903AF8EE677A83B080EE270A0D46044610
:1028C800019235F0A9F930EE008AB0EE000AF0EE78
:1028D800480A35F0ABFB35F03DFDF0EE480AF0EE66
:1028E800408AB0EE000A35F0A1FBF7EE007A30EE30
:1028F800670A019988EE800A01232A46204603B018
:10290800BDEC028BBDE8304056E7D0ED017AF5EE1C
:10291800407AF1EE10FA09D1DFED0E7A60EEA70ADF
:10292800B7EE007AC7EE207AC0ED017A90ED017A11
:10293800D0ED007A80ED021A31EE077A30EE670AA0
:10294800C1EE076AE6EE807AB0EE670AC0ED007A5B
:10295800704700BFDB0FC94090ED017AD0ED007AD7
:10296800C0ED020A30EE877A30EE670AC0EE876A59
:10297800E6EE807AB0EE670AC0ED007A704748400C
:10298800082310F0800F4FEA400018BF80F0D500F0
:10299800013BC0B2F5D1704710B50A440C469442C9
:1029A80000D110BD14F8011BFFF7E9FFF7E74A094A
:1029B800012301F01F0103FA01F150F822300B4303
:1029C80040F8223070470EB4244B70B51B68002BBA
:1029D800A5B0064630DA224B224C19684FF47A73B8
:1029E80004A8B1FBF3F203FB12131F49FFF744FBE2
:1029F80004AB03440393299A1C492AAB054603A850
:102A08000293FFF732FA039B591C03910A211970AC
:102A1800039B591C0391002119700246206880B15C
:102A280003681B6A03B1984704A92068FEF7CCF92C
:102A380016B1206812F0B0F825B0BDE8704003B0B8
:102A480070470B4B1B68002BF6D002212A440091DB
:102A58000A44FD2004A919F05FFAEDE7606B002035
:102A6800D8BD0020183A0020B7030408D70400088E
:102A78007C36002038B5144B1C68033004EB9002F8
:102A8800B2F5007F14D8114D1A6005EB8404104D7F
:102A980055F8213020F003001844920045F8210031
:102AA800C2F500620B490020FFF78DFF204638BDB4
:102AB80009490020FFF787FF084A136843F00073AD
:102AC80013600024F2E700BF002A0020301700201E
:102AD800042A0020C3030408E603040868540020FD
:102AE80010B54CB2002C01F07F034FF02802B5BF9F
:102AF80002FB030102FB010101F58E7101F55D7115
:102B08000122DBB28A70002C4FEAD4720B704A7033
:102B180000EB83000ADA82691368002B01DA43F0BC
:102B2800804343F400131360002010BD426D136806
:102B3800F7E782B0002301930C4A036819690191F1
:102B4800013A10D001990029F8DA019A42F00102FD
:102B58000192019A1A61054A19690191013A02D054
:102B68000199C907F8D4002002B07047410D03004D
:102B7800084A182363F30602436D1A61C278012AD2
:102B880006D100F2CC5058611A684FF080221A60C2
:102B9800704700BF0000086010B5042380F81131A9
:102BA800002304461A461946FDF724FE2046FFF77F
:102BB800DFFF002010BD10B5044671BB90F811313D
:102BC800032B1BD1D0F89023D0F87C339A4217D925
:102BD800C178012908BFD0F88013A2EB030204BF13
:102BE800C918C0F88013934228BF1346C0F8902331
:102BF8009BB2D0F880230021FDF7BAFE002010BD5B
:102C0800D0F8E4351B6923B190F81221032A00D1CA
:102C180098472046FFF7C0FFF0E7D0F8E4359B69F6
:102C2800002BEBD090F81221032AE7D19847E5E76B
:102C3800F0B590F8CF1590F8D12590F8CE3590F8EA
:102C4800D05590F8CC6590F8CD7503EB012305EBD2
:102C5800022590F8D31590F8D22502EB0122012124
:102C680085B080F8111106F01F0192B29BB2ADB287
:102C7800012904468DF808608DF80970ADF80A300E
:102C8800ADF80C50ADF80E20C0F8402100F00E81D0
:102C980005D3022900F01E8106F0800187E1092F83
:102CA80064D8DFE817F0BA00F8006300CC006300CE
:102CB8005B000A006300AD007A00ADF806201A0A2E
:102CC800013A062A52D8DFE802F0040C2951515182
:102CD8005100D0F8EC351B68A0780DF10601984733
:102CE8000AE0D0F8E43580789B6A0DF10601984730
:102CF80002234370C4F8F005BDF80620002A47D027
:102D0800BDF80E30002B43D09A4228BF1A46ADF8C2
:102D1800062001462046FDF71BFE39E0DBB2052BF5
:102D280024D8DFE803F003070B0F1317D0F8EC35AE
:102D38005B68D1E7D0F8EC359B68CDE7D0F8EC3587
:102D4800DB68C9E7D0F8EC351B69C5E7D0F8EC3586
:102D58005B69C1E7D0F8EC359B69BDE735B92AB99D
:102D680090F81211032903F07F0503D120462DF0B6
:102D7800FFFA0DE063F30A12036980F81451196829
:102D88000A431A60FFF708FF2DB1022384F81231B5
:102D9800002005B0F0BD0123F8E7D9B2894D01291B
:102DA80085F84019E2D890F81231022B0FD0032B86
:102DB800DCD1C1B9022380F81231D0F8E43580F8AB
:102DC80010115B6898472046FFF7E6FEE0E7002908
:102DD800F9D00121032380F8101180F81231204620
:102DE800FDF70EFCEFE790F810110129EBD0D0F8B1
:102DF800E4355B68984795F8401984F81011EEE7B8
:102E0800012AB3D190F81231022B04D0032BADD193
:102E180000F588717EE76C497CE790F81231023B37
:102E2800012BA3D8674B0022C3F84829D0F81821F2
:102E380012B10222C3F84829022264496AE7012B29
:102E480008D1C4F81831D4F8E43502A99B682046A3
:102E58009847B8E7022B9BD115F0FF0F98D103696B
:102E68002D0A013D5B680122042D05D8DFE805F035
:102E780004030D0F1100022262F30613514AC2F82F
:102E88004C39012384F816319DE70322F4E7042224
:102E9800F2E70522F0E790F81221023A012A3FF6FC
:102EA80065AF012B7FF474AF0023CAE790F81231A5
:102EB800032B7FF45CAFEDB2012D3FF657AFD0F88E
:102EC800E43502A99B689847BDF80E30002B7FF4C3
:102ED8005FAF78E706F06006202EE9B205D1D0F89A
:102EE800E43502A99B68984752E7012F11D041D3D6
:102EF800032F7FF44DAF90F81221022A54D0032AF1
:102F08007FF435AF002B9ED14A069CD0FFF7E8FD31
:102F180099E790F81221022A46D0032A7FF427AFB6
:102F2800002B7FF435AF11F07F023FF44CAF6DB248
:102F3800002D4FF02803B5BF03FB020103FB01017D
:102F480001F58E7101F55D7100238B700A70EB0F2E
:102F580000EB82024B70002DB4BF9269526DC978A4
:102F6800136802396FF35553012998BF43F0805312
:102F7800136068E790F81231022B15D0032B7FF409
:102F8800F6AE15F0800F0F4B4FF0280214D001F069
:102F98007F0102FB010191F81E215AB10122C3F8F9
:102FA80050290B490222B5E64B063FF4F1AEFFF774
:102FB80097FDEDE60022F2E702FB010191F8762386
:102FC800EBE700BF00160020441F0020481F002028
:102FD800501F002038B5044600295BD190F8113104
:102FE800022B1ED1D0F83831D0F82421934226D9AB
:102FF800C178012908BFD0F82811A3EB020304BF48
:103008005218C0F82821C0F83831D0F828219BB2CE
:103018000021FDF7EFFB00231A4619462046FDF76D
:10302800A7FC94F81631012B07D1204A2369D2F85E
:103038004C295A60002384F81631002038BDD0F896
:103048003C31B3FBF2F502FB153565B99A420AD853
:10305800D0F84021934206D22B462A46FDF7CAFBF8
:10306800C4F84051D7E7D4F8E435DB682BB194F8BD
:103078001221032A01D120469847052384F81131EB
:1030880000231A4619462046FDF772FC2046FFF732
:103098006FFDC6E7D0F8E4355B69002BCDD090F81A
:1030A8001221032AC9D19847C7E700BF001600209C
:1030B800104BDA684378D243C2F30222C2F104010A
:1030C800C9B28B400F2141FA02F28178DBB20A4083
:1030D8001343094902781B018818DBB280F80033D2
:1030E8005009012302F01F0203FA02F241F82020DE
:1030F800704700BF00ED00E000E100E0C27802B1D7
:10310800D6E7037801215A0903F01F0301FA03F3F4
:103118002032024941F82230704700BF00E100E048
:1031280082B00023019300930B0F00900193019B41
:1031380021F07F4153B1009B14330093009B1B681F
:10314800194214BF0120002002B07047009B090CEF
:103158001833F2E7838A008B9BB243EA004321F0DD
:103168007F401840431A584258417047036823F07B
:10317800010303600023036043608360C36003614D
:10318800212343612A4B984203D13D2243F8082C5E
:103198007047284B984204D14FF4746243F8202CAE
:1031A8007047254B984204D14FF4741243F8382CD9
:1031B8007047224B984204D14FF0746243F8502C68
:1031C80070471F4B984203D11E4A43F8642C70473E
:1031D8001D4B984203D11D4A43F87C2C70471C4B69
:1031E800984203D11B4A43F8942C70471A4B9842D3
:1031F80004D14FF03D5243F8AC2C17E0174B9842DE
:10320800C3D0174B9842C7D0164B9842CCD0164B18
:103218009842D1D0154B9842D6D0154B9842DAD067
:10322800144B9842DED0144B9842E2D0704700BF4E
:10323800106002402860024040600240586002402E
:10324800706002403D00002088600240400F00206E
:10325800A060024000003D20B860024010640240B7
:10326800286402404064024058640240706402408E
:1032780088640240A0640240B8640240204A93680F
:1032880003F00C03042B10B520D0082B20D01D4BC5
:103298001B4C0360A3681C4AC3F30313134493F83D
:1032A80048100368CB404360A168C1F382211144F0
:1032B80091F8481023FA01F18160A168C1F3423105
:1032C8000A4492F84820D340C36010BD0F4BDFE793
:1032D8005468516852686302C2F3881201F03F01D2
:1032E8004CBF0A4B074BB3FBF1F35343044A5268F4
:1032F800C2F3014201325200B3FBF2F3C8E700BF48
:10330800003802400024F4000000002000127A0077
:103318002DE9F0430D6800220126032406FA02FC79
:103328003CEA05033DD15700D0F800E004FA07F362
:10333800DB430EEA030EC0F800E091F804E0D0F891
:1033480000900EFA07F80EF1FF3E48EA0908BEF1B0
:10335800010FC0F8008017D8D0F808E003EA0E0380
:1033680083604B79D0F808E0BB4043EA0E038360E2
:10337800436823EA0C0343608B79D0F804E0934058
:103388009BB243EA0E034360C36804FA07FE23EACC
:103398000E03C360CB79D0F80CE0BB4043EA0E03C0
:1033A800C3600132102AB9D1BDE8F083F7B50C46E5
:1033B8001546064690B3FDF736FE194B18440F27FD
:1033C80090F894002DF008F830463368FDF721FE98
:1033D80080B200F00702C00803EB80009200016A87
:1033E800974021EA07010162016A9540B28800927C
:1033F80004F003020D438DF80420C4F38102056232
:103408008DF805206946C4F300121846C4F3411428
:103418008DF806208DF80740FFF77AFF03B0F0BD5E
:103428005CA00308F8B57B4E142505FB006504462F
:10343800287A2CF0D1FF2A7A02F01F0152090123C1
:10344800032A03FA01F362D0042A65D0022A03D1C1
:10345800714A516A0B435362142303FB0463651CCE
:103468005879FDF701FDEDB2074620B10D238371B0
:103478000B23C3710572142303FB0463D879FDF78A
:10348800F3FC18B10D238371C3710572142303FB78
:1034980004639879FDF7E8FC20B10D2383710C23B0
:1034A800C3710572142505FB0465AB7A6A7A002B93
:1034B80037D04A213846FFF779FFE879FDF7D4FC81
:1034C8006A7A2A21FFF772FFA879FDF7CDFC6A7A9C
:1034D800142505FB04650A21FFF768FF287928B140
:1034E800FDF7C2FC6A7A0921FFF760FF14236343E2
:1034F8004A4AF35893421ED102F58432516A41F484
:1035080080515162516A21F48051516220E0424A4F
:10351800116A0B4313629FE73F4A11690B4313611A
:103528009AE70A213846FFF741FFE879FDF79CFC46
:103538006A7A0A21C6E73A4A934232D102F5003242
:10354800116A41F480411162116A21F480411162CB
:10355800142202FB0462927A002A56D10122022028
:10356800198801F4415141F445710A4302431A8014
:103578009A8B22F400621204120C9A8307221A8290
:103588001A8892B242F040021A80142303FB0464A2
:10359800207900283CD0FDF767FCBDE8F840FDF72E
:1035A8008EBC204A934209D102F5FE32116A41F4D9
:1035B80000411162116A21F40041C8E71A4A934296
:1035C80009D102F58232516A41F400515162516ABF
:1035D80021F4005199E7154A934209D102F568424E
:1035E800516A41F480115162516A21F480118CE7CB
:1035F8000F4A9342ACD102F56442516A41F400117A
:103608005162516A21F400117FE700221046A7E7B2
:10361800F8BD00BFD811002000380240003001403A
:1036280000380040003C0040003401400050014098
:103638000054014037B50C460546E8B1FDF7F3FCE8
:103648000E4B184490F894002CF0C6FEAB880093FB
:1036580004F003038DF80430C4F381038DF80530BA
:103668006946C4F3001328688DF80630C4F3411482
:103678008DF80740FFF74CFE03B030BD5CA003088F
:103688002DE9F74F374C99469DF83030009394F860
:103698005439052B80468B46924608D9324900207A
:1036A800FFF791F90025284603B0BDE8F08F07F031
:1036B800B6FD0646002852D094F8547998F80400CC
:1036C8007A1CD2B207EB470304F6581505EB4315ED
:1036D80084F854290192FDF7C7FB034628B1042159
:1036E8008171019A02720221C171009A6AB398F835
:1036F800082002211846FFF759FE602303FB074400
:103708005A4651463046C4F8586920F051FA49469D
:10371800D4F858092EF090FDD4F8580943681A686F
:10372800B2F844306FEA43436FEA53439BB2A2F8BE
:10373800443013889BB243F0010313802EF0A4FC9D
:103748000023C4F864090360ADE71846112100930B
:10375800FFF770FF009B1846FDF7ACFBCDE7054669
:10376800A1E700BF00160020FF030408F0B52DED07
:10377800028B234B83B0064600681C680D4617462B
:10378800F0EE408AB0EE608A2EF0E8FBB4FBF0F071
:10379800B0FBF5F404F57F44FF34240C0097B0FB2C
:1037A800F4F40023B4FBF5F52146AAB23046FFF73E
:1037B80067FF08B3B5EE408A07EE904AF1EE10FABB
:1037C800F8EE677A08BF06EE905A9FED0E7A0ABFA8
:1037D800F8EE666A27EE888A86EE876A4FF001035C
:1037E800037218BF88EE076A27EE467A80ED056AED
:1037F800A7EEA87A80ED047A03B0BDEC028BF0BD89
:103808004C04002000007A442DE9F04FB24CB34D2F
:10381800002687B081460121682026606660A66080
:10382800FFF728F902960396AD4EA06099F80C3080
:103838007BB12B79363B012B0BD8032201922278DE
:1038480000926378BDF8082001211220FDF7E8FAFC
:103858009DE099F80F303BB136202CF0DBFE18B113
:1038680002682B689A42E8D099F810303BB12620BC
:103878002CF0D0FE18B12A6803689A42DDD099F876
:103888000720EB68002A40F08E8099F8052012B1D5
:10389800980700F18B8099F80620002A00F08980AB
:1038A80003F0010AD9F8002012B1032A40F08380FE
:1038B80099F8122012B1190700F1A78113F0040F2B
:1038C80040F0DD80BAF1000F61D0BAF1010FBDF808
:1038D80008B076D1284607F0A2FC0746002841D058
:1038E8004FF00008FF2386F8988B287986F8048023
:1038F800C6F80880C6F80C80C6F81080C6F8548050
:1039080086F8583086F8593086F85A8086F85B80F1
:1039180086F85C80FDF7A8FA28B10323837180F844
:1039280007A080F808802A7AE979FFF73FFD6D4AF9
:103938000021384607F0C2FC6B496C4BC6F8A83B1F
:103948006B4BC6F8A41BC6F8AC3B0C31384607F0E5
:1039580039FC012138460A2220F03EF80121384678
:103968002EF07CFBA278A36803EBC20320225A70D6
:103978002379227800920133237100216378019121
:103988005A461320FDF74CFAA3780133A370029B23
:1039980001330D2B029305F114057FF447AF4E4810
:1039A80007B0BDE8F08F4FF0000A7BE74FF0020A3E
:1039B80078E7924676E75A0600F1278113F0200F40
:1039C8007EE79DF80C70484B4FF01C0A0AFB07FA7B
:1039D80053442846049307F022FC804600283AD036
:1039E80006EB0A03002283F89A2B83F8A22B012204
:1039F80083F8997B83F8982B28790592FDF734FA98
:103A08007B1CDBB220B10221059A8171C27103725D
:103A18002A7AE979FFF7CAFC324A0021404607F0C2
:103A28004DFC1C2303FB0767049BC7F8A43B3149E3
:103A3800314BC7F8A83B314BC7F8AC3B5144404623
:103A480007F0C0FB012140460A221FF0C5FF0121F3
:103A580040462EF003FBA278A36803EBC203402282
:103A68005A70E3780133E370039B01220133039317
:103A780001926378227800925A46002181E794F8EF
:103A880001A0BDF80870BAF1050F06D90223019309
:103A98002378009353463A46D6E699F81830B9F891
:103AA8001AB099F80420591E072900F29980DFE816
:103AB80001F00A0E31045D5D5D5DDFED110A5946C6
:103AC800B0EE600A2BE05946DFED0E0AF8E75946DA
:103AD800DFED0D0AF4E700BF1C2C0020B4FC03083E
:103AE8000016002040420F0098210020AD01000878
:103AF8000D030008A42100201B0C00088901000800
:103B0800000000006F12033928293038ACC5A737E8
:103B1800ACC5A7365FED030A1FED030A59462846D0
:103B2800FFF724FE8046002869D0534BC8F80430BC
:103B3800524B43F82A8099F80E30002B54D0A278C3
:103B4800A36803EBC20319225A70A268A1786378AC
:103B580002F8313002EBC100013302224560DBB2CA
:103B680001922278009263703A4686E7063BDBB200
:103B7800022B98BF4249009296BF01EB830341494B
:103B8800D3F89C10132200232846FFF779FD8046BE
:103B9800002834D0DFF800E13B4B93FBFBF2DEE971
:103BA8000001D317994208BF90423CBF10461946FE
:103BB80008F1180BCEE9000112225946D8F8000086
:103BC8002EF078FA38B148220021584636F0C1F96B
:103BD800012388F808302D4B01221A702C4BA5E7D9
:103BE8005946DFED2C0A6BE799F81830A278042BB8
:103BF800A36803EBC2030CBF0D220922A4E702222B
:103C0800019222786378009245E72778BDF808800A
:103C1800072F05D90322637801920097424613E6DD
:103C2800B9F81420184991FBF2F299F804100091A0
:103C380092B2B9F8163014492846FFF721FD2278C8
:103C4800A8B106EB8707A168C7F8E800A07801EBE0
:103C5800C0030A275F7001F830200132D2B2032175
:103C68005D602270009263780191424605E7032166
:103C7800637801910092D1E7750C0008E07E00207E
:103C88005CA00308C0C62D0040420F00D87E00206B
:103C98003D0300086F12833A301F002008B5FDF776
:103CA800E3F848B11D2282710E22C271002202720D
:103CB8002021BDE80840BDE408BD10B503681A79A5
:103CC800022A044602D1987AFFF7E8FF00232371FD
:103CD800236010BD70B51E46244D254B9D4219D258
:103CE8006C798C423AD12C79844201D0002835D1A4
:103CF8002C7A944232D12C682C220021204636F0AE
:103D080028F925602B792371EA88A260012B03D05A
:103D1800022B0BD0002407E0E87AFDF7A5F86061D4
:103D28006B7A2373AB7A6373204670BDE87AFDF72C
:103D38009BF860616B7A2373A87AFDF795F80546BE
:103D4800206168B10E23C3710023867103720921B3
:103D5800FFF770FC2069FDF7B2F8E5E70C35BDE721
:103D68002046FFF7AAFF2C46DEE700BFA044040860
:103D78008445040800232DE9F7431A462121012030
:103D8800FFF7A8FF234C0546C4F80C0100283FD0D4
:103D98000526962007F015FB0DF10702002128469D
:103DA800FDF71AFA074660B300221146D4F80C0151
:103DB800FDF76EFA3C20FDF7D7FA012007F001FB6A
:103DC80000265FFA86F84FEA8805D4F80C91EDB220
:103DD800A91D002201F0FE014846FDF759FAE91D28
:103DE8000022C9B24846FDF753FA013640F2DC51C9
:103DF8004046FDF77FFA102EE3D1384603B0BDE800
:103E0800F083013EC5D1D4F80C01FFF756FFF4E763
:103E18000746F2E7001600202DE9F0411A4D1B4C29
:103E28002B7806460F463BB1D4E90023994208BFD8
:103E3800904224BF00232B70DFF85480D8F820303C
:103E480040469847C2070CD50123237280F002032D
:103E5800C3F340032B70D8E9042392197B41C4E9CA
:103E68000023430744BF012363722369F61A002E17
:103E7800C4BF01232372237A13B9607ABDE8F081A5
:103E88000120BDE8F08100BF656A0020C025002040
:103E9800A89B00202DE9F043AD4C256815F00406D9
:103EA80087B005D001202CF0D7FB07B0BDE8F08320
:103EB80004F00EFCA74B002800F00F8145F40075B4
:103EC80025601E76A44B93F82930012B236814BF74
:103ED80043F4802323F480232360A04B1B7843B949
:103EE80029F088FF2368002800F0038143F40023A9
:103EF800236027F0C5FF40B129F0A4FF23680028FC
:103F080000F0FA8043F400032360954E2368376875
:103F18003A0754BF43F4807323F480732360914BB2
:103F28001B88632B23684FF008008CBF43F4806321
:103F380023F48063236029F0DBFE8046002840F0EC
:103F4800E080132029F0D4FE002840F0DA80092010
:103F580029F0CEFE002840F0D480FB0640F1CF8047
:103F6800032029F0C5FE002840F0CB80232029F04B
:103F7800BFFE054627F084FF90B1B8F1000F40F06E
:103F8800C280132029F0B4FE002840F0BC80032032
:103F980029F0AEFE002840F0B680232029F0A8FEC4
:103FA800714B5A789946002A00F0B2806F4B704ADC
:103FB80093F80080B8F1000F03D16E4BDB79022B28
:103FC80007D1137A002B00F0A08087F0010707F0D3
:103FD800010823685F0704D41DB1002808BF4FF00B
:103FE800010892F9F937002B14DDD2F85C320393FB
:103FF800D2F86032049303A9D2F8643205930122FF
:1040080068462DF089F868462BF0F6FBB9F80E30B3
:10401800984202D8B8F1000F7AD0236843F40063BD
:104028002360554B1A68100776D53368D90573D4C1
:10403800236843F480539207236071D533689B0546
:104048006ED4236843F40053236013F0D7FC23682D
:10405800002869D143F400432360484B187868B9B5
:10406800256825F0784323F07F03002B5FD029F0E3
:104078003FFE00285BD045F480452560122029F0DA
:1040880037FE236800285AD043F480331720236072
:1040980029F02EFE2368002854D043F400331B2057
:1040A800236029F025FE236800284ED043F0807352
:1040B80023602368324A23F0784323F07F0303B157
:1040C8000223137007F022F92E4B1B68C01A002830
:1040D800FFF6EBAE18F04CFAE7E61A7E25F4007509
:1040E8002560002A7FF4EEAE0120187611F05AFA06
:1040F800E8E623F40023FBE623F4000304E745463F
:1041080038E7012536E701204AE74FF0010860E764
:10411800236823F4006383E7236823F480538AE742
:10412800236823F400538FE723F4004394E7002027
:1041380029F0DEFD0028A1D125F480459DE723F470
:104148008033A3E723F40033A9E723F08073AFE7B4
:1041580068540020C02500206C540020C02B00208B
:10416800646B0020D0030010424F00207D7F0020A8
:1041780078A00020706F0020D86B0020D9010020A3
:1041880045460020484600202B4A1368590770B559
:1041980050D52A4D2A4923F0040313602B68087070
:1041A8001A0315D5274C22780B2A0BD801239340E4
:1041B80040F6030119400BD113F4C06F02D0FF2061
:1041C80019F09CF8204B1A68204B5A600B23237077
:1041D8001F4C237B4BB31C4B1E4E1B68F2699B1A6A
:1041E8004FF47A72B3FBF2F3092B1ED922681344F9
:1041F80023602BF01FF8336AC01A6423B0FBF3F076
:10420800636818442B6860609B070CD513F052FD57
:1042180048B1114B726A1B689B1AA2681A44A260C3
:10422800B26A1344B36207F030F90520BDE8704064
:1042380011F0B8B970BD00BF68540020606B002051
:10424800B2470020B1470020D8BD0020904600208A
:104258007CC90020C0250020686D00202DE9F04FA2
:10426800BC4F2DED0C8B3B689FEDBB9A9B6AADB0A4
:10427800CDE904010393039AB84B07EE902A1A601C
:10428800B74AB84B12680893F8EEE77A12F0040FB1
:1042980067EE897AC3ED007A15D0B34B1B68DB064D
:1042A80008D527F0EDFD28B1B04B1A7C12B993F868
:1042B800203043B1AE490398D1E90023141843EBE9
:1042C800E075C1E90045AB4EAB4CF378002B00F02C
:1042D800F484DFF8DC82254607F018F82369CDE975
:1042E8000601002B40F0E284069B049A9A1A039B6D
:1042F8001A44D8F8003064339A42EDDBA3689E482C
:104308009847002800F081809C4BB3F84850002D56
:1043180040F00C85B4F92620B4F92030984EDFF827
:104328009892DFF8A0A2974F9B1A3360B4F928201F
:10433800B4F922309B1A7360B4F92A20B4F92430F6
:1043480031469B1A304694F83C20B36013F0BDFB0D
:10435800304613F0E5FBCB4656F8253007EE903A89
:1043680099F80030B8EEE78AD4ED077A012B4FEAC6
:10437800850828EE278A04D1B0EE480A33F056FCA7
:104388003860022D08D09BF800300B2B04D1B0EE1A
:10439800480A33F04BFC38607B4A7C4B58F80200E3
:1043A8001B68B0EE480A9847022DB0EE408A06D046
:1043B8009BF800300B2B02D133F038FCB860744AFC
:1043C800744B58F802001B68B0EE480A984799F8F1
:1043D8000030022BB0EE408A02D133F027FC38605F
:1043E8006D4A6E4B58F802001B68B0EE480A9847B1
:1043F8006B4A6C4B58F802001B6898470135032D2F
:10440800AAEC010A07F10407A6D1674F0997D7F864
:10441800008018F0400F32D0644E96F8283073B3FD
:10442800039B1C46DD17DDE90423A21A65EB030391
:1044380014461D46DDE9062312196B41104619463C
:1044480091469A4632F0C2F9594BD6ED0F7AD3ED20
:10445800016A07EE100AE7EE267AD3ED026AC6ED86
:104468000F7AD6E91223D6ED107A19EB0204E7EE9B
:10447800267A4AEB0305C6E91245C6ED107A18F00C
:10448800020F4C4C00F08581A3682046984700280D
:1044980000F07C81484B494A3A4D187890460023F1
:1044A800E1181228B1F90E1008BF45F8131042F8A8
:1044B80013100233062BF3D1414EB6F80090B9F130
:1044C800000F00F01B8518AD627D3C49284613F0AB
:1044D800FCFA1A99189A81EAE173A3EBE17307EEE3
:1044E800903AF8EEE77AF7EE086AC7EEA65A82EA3B
:1044F800E273A3EBE27307EE103AB8EEC77A199BA2
:10450800F4EEC75AF1EE10FA40F3AD8483EAE37093
:10451800A0EBE37006EE100AB8EEC66AF4EEC65ACF
:10452800F1EE10FA40F39F840029D4BF0121002145
:1045380000F3C784DFF8908018F80130002B6AD1A7
:10454800DFF888E00E483688C2680C2303FB01E3D5
:10455800012E3DE04C050010BD378635F82A0020B5
:1045680068540020903E0020646B0020486F0020B3
:10457800383A0020D24B0020FC2A0020AC0500105D
:1045880000000010405500209C000010440000105E
:10459800FC000010380000105C0100103C00001006
:1045A800BC01001040000010D86B0020204D0020F6
:1045B80038050010580500103C5500200C0000106C
:1045C800704100203C05001072410020C0250020E9
:1045D800DF6A07EB020907691A6B4069C3F82C9078
:1045E8003A445F6B1A633844586314D108F8016081
:1045F8004FF4C87690FBF6F099FBF6F15863D96250
:1046080092FBF6F21A63DEF8743002200133CEF81A
:10461800743011F0B3F8DFF8B483D8F87430062B8F
:1046280040F0B0802846FDF723FF002608F12C084B
:1046380008EB060128460C36FDF78DFE482EF7D10B
:1046480011A92846FDF76AFE11AEDFF8D8A3B146D6
:104658004FF00008B9EC010A33F0E8FA08EB0A0356
:1046680008F10208B8F1060F9880F3D12846FDF743
:10467800FFFED24ADFF8ACE3DFF8ACC30020A8465F
:1046880014A9B7EE007ABEF904901368BCF80C7050
:10469800A3EB09031493BEF906905368A3EB09032F
:1046A8001593BEF90890936806EE107AA3EB0903F8
:1046B8001693431003F10109B8EEC66A08EB09190D
:1046C8000DF1A00B4FF0000A51F82A7007EE907A0E
:1046D800F8EEE76A0AF1010AC6EE867ABAF1030F24
:1046E800D9ED006AE7EEA76AE9EC016ADBED006A3A
:1046F800E7EEA76AEBEC016AE6D12CAF07EB0319EA
:1047080059ED0D7A77EE877A07EB830349ED0D7A39
:1047180053ED147A77EE877A013043ED147ADDEDA4
:104728001B7A77EE877A0628CDED1B7A02F10C0208
:10473800A9D12A461CA8FDF74DFD9DED140A9FED51
:10474800A08ADFF8E08233F005FE8DED110A9DEDB9
:10475800150A33F0FFFD8DED120A9DED160A33F0B0
:10476800F9FD00258DED130AB6EC010A20EE080AC2
:1047780033F05CFA05EB08030235062D5881F3D1B6
:1047880007F092FA8F4A1388013B13808E4B01225F
:104798001A70DDE904238D4DD5E91E89C5E91E236C
:1047A800099B1B689E0740F18D84874B1B78002B63
:1047B80000F08884864A9FED877AD2ED017A864B8D
:1047C80094ED0A0A67EE877AC3ED007AD2ED027A91
:1047D80067EE877AC3ED017AD2ED037A67EE877ABE
:1047E8009FED7E7AC3ED027AD4ED077A7C4B67EEB3
:1047F800877AC3ED007AD4ED087A67EE877AC3ED3D
:10480800017AD4ED097A67EE877AC3ED027A33F03C
:10481800A1FDF0EE408A94ED0B0A33F09BFDB0EE5B
:10482800408A94ED0C0A33F095FD6E4B1B780E2BE5
:1048380016D1DFED6D7A6D4B626BDA6068EEA78A90
:1048480028EE278A20EE270AFDEEE88ABDEEC88A00
:10485800BDEEC00AC3ED008A83ED018A83ED020A2A
:10486800DDE90401B0EB080061EB090131F0AEFFAE
:1048780007EE900A27EE890A28F011FC5C4B5A795A
:104888009A46002A00F077845A4B5B4C1B6813F059
:10489800100340F01E84ADF86030ADF86230ADF81A
:1048A80064302388ADF86630E379544A544E128850
:1048B800544C03EB43035900534B1B6813F4805FBC
:1048C80040F2DC5318BF1A46002312B21F460DF1FE
:1048D800600E581830448078012800F04284C0F0F7
:1048E8003984022800F044840133042BF1D1FFF706
:1048F800D1FA464B039393F82060002E40F00E85C2
:1049080095F898300BB127F0E9FC95F82011404C48
:10491800002385F89830002939D13E4B9FED3E7A27
:10492800D3ED0E7A84F8C0100022002377EE877A40
:10493800C4E90223C4E90E23C4E916230023374A35
:10494800C4F8F830C4F8FC30C4F80031C4F80431B5
:10495800C4F8B430C4F8D030C4F8DC30C4F8B83087
:10496800C4F8D430C4F8E030C4F8BC30C4F8D83047
:10497800C4F8E4302364A3642366A3660123C4ED6A
:104988003A7AC4ED3B7A6264626685F8203106F0B3
:10499800BDFC06460F4628F0BDFA002840F03685D3
:1049A8000023C4F8A830C4F8AC30C4F8B0301C4BAD
:1049B80084F8C0001B68C5F8243137E0EC250020D6
:1049C8000000804570410020C8010010C02500206B
:1049D8003805001035FA8E3C900500108F2A754472
:1049E8009C0500103C5500200000C842405500209E
:1049F8006C540020646B0020706F0020B84F0020BA
:104A0800A8EF0308504C0020606B0020009C002099
:104A1800D84D0020844D00206F12833A83F9223E3E
:104A2800D8BD0020E64B0020580500103046394616
:104A38001AF0CFFD1AF04CFAA34BDFF8B082B3F9A5
:104A4800042002EB82025200002842F09B8007EE0D
:104A5800902A9FED9E9ADFED9E9AC8F8B421F8EE51
:104A6800E77A88F80B0087EE898A4FF0010928EE6B
:104A7800298AB0EE480AFDF7DBFD88ED6E0AB0EE34
:104A8800480AFDF737FEDFF898E288ED6F0ADEE99D
:104A98000023B6EB020B67EB030C002144F61F6002
:104AA800614508BF584588F8049080F08980CEE9B0
:104AB8000067884E94ED3A7AD6ED0E7A864FB4EEBA
:104AC800E77AF1EE10FACEE902BCDFF858B240F10D
:104AD8001F8594ED388AD4ED378AD4ED34AA94ED45
:104AE80035AAC8ED61AA28EE080A88ED62AAA8EEE0
:104AF800A80AC8ED67AA88ED68AAC8ED648A88ED97
:104B0800658AC8ED6A8A88ED6B8A33F023FC022334
:104B180088F8083088F80930704B714A1B68C8F863
:104B2800E431FDEEE87A47F6FF7117EE903A8B42D2
:104B3800A8BF0B469342FDEEC87AB8BF13463B8028
:104B480017EE903A8B42FDEEEAAABDEECAAAA8BFBC
:104B58000B46934288ED710A88F80290CBED00AAC3
:104B68008BED01AAB8BF134694ED3B7AD6ED0E7AC9
:104B78007B80B4EEE77AF1EE10FA40F1F28494F813
:104B8800F030D4ED3F1A94ED3E1AD4ED390A94ED85
:104B9800360A002B14BF0221012101202BF042F814
:104BA800D4ED3A7A4F4AFCEEE77A17EE903AD4ED14
:104BB8003B7A1380FCEEE77A4B4A17EE903A138063
:104BC80006F0A4FB494E4A4A8B4600211180F17930
:104BD8000229074604BF01201080B07A022802BFCC
:104BE800108840F002001080307A022802BF108836
:104BF80040F004001080207C18B1108840F01000AC
:104C08001080F07A022802BF108840F0200010803F
:104C18003848026822F0800404603748006810F0C1
:104C2800040040F0AA84B074344B354F1B78354CDF
:104C38007BB1039BB4F906201B8B9A4209DC324BEB
:104C48001B79032B41F09280304B5B7A002B01F0EB
:104C58009080284BDFF8D0B01A6812F0100F9846F1
:104C680041F0C1802A493378242000FB0313DB89F3
:104C7800D90501F1AF87274B5E79002E01F0AD8091
:104C8800254909688A0701F0A88036B228F014F986
:104C9800DFED227AB4EEE70AF1EE10FAB7EE007A09
:104CA80041F16B80B0EE670A01F06EB8284698476C
:104CB80000283FF419ABFFF721BBDDE90423CDE958
:104CC8000623FFF71BBB00BF500500100000C842B9
:104CD80035FA8E3C844D002048800020D8BD002045
:104CE8005A80FFFF664700206847002078A0002010
:104CF80064470020646B002068540020D90100201C
:104D0800504C002090420020DE4200200E2C002053
:104D1800ECEA030878420020904C00209A99193F49
:104D2800E82600203C8000200000001096F801B022
:104D3800D14E9FEDD28A1D4606F1060A1C469846BA
:104D48004FF00009B8F8482036F9021FB2F57A7F0B
:104D580004BFC5F80090C4F81C902B680B442B6066
:104D6800E36907EE901A0133012BF8EEE77AE36165
:104D780032D1C4ED047AC4ED037A84ED058A012AA0
:104D8800A6F806904DD1E369012BC1BF03F1FF33AB
:104D980007EE903A94ED067AF8EEE77AD4BFB0EED3
:104DA800480A87EE270A33F0D5FABBF1000F30D056
:104DB80007EE90BAF8EEE77AF4EEC07AF1EE10FA60
:104DC80027D54FF47A73A8F84830AD4B00225A60C3
:104DD8009A60DA60FFF719BBD4ED035A07EE103A70
:104DE80037EEE56AF8EEC76A86EE267AD4ED056AEC
:104DF80037EE257A77EEC77A84ED047AE6EE276AED
:104E080084ED037AF0EE667AC4ED066AC4ED056AAD
:104E1800B5E72B684FF47A7203F5FA7393FBF2F354
:104E2800F380B24505F1040504F114048AD1B8F8F9
:104E38004800012813D19349B1F92830B1F9262047
:104E4800B1F92A1000919049FDF7BDFD3B6800209B
:104E58000021C3E90C01C3E91001C3E90E01B8F848
:104E68004830013BAFE7C7EE265A83EAE371A1EB6E
:104E7800E37106EE101AB8EEC66AF4EEC65AF1EE01
:104E880010FA0ADDF4EEE57AF1EE10FA05D5002AFB
:104E9800CCBF02210321FFF74DBBC6EE265AB4EE64
:104EA800E57AF1EE10FA7FF571ACF4EEE57AF1EE01
:104EB80010FA7FF56BAC002BD4BF05210421FFF756
:104EC80039BB3388B3F5C87F7FF434AB00226F4811
:104ED800DFF8E0E1134602F80E300132062A0360DB
:104EE8004360836000F10C00F5D1694A5367694A51
:104EF800136823F400731360FFF71CBB664B674D00
:104F0800DA68B5F90410664E511AB5F90A204FF45B
:104F180080504A43196992FBF0F2DA60B5F906202D
:104F28008A1AB5F90C1051435A6991FBF0F11961CD
:104F3800B5F90810511AB5F90E204A43414692FBBB
:104F4800F0F240465A61627D12F0BFFD404612F011
:104F5800E7FDA38907EE903AF8EEE77A32464B462A
:104F680058F8231007EE101AB8EEC77A0133C7EEC7
:104F7800276A032BE2EC016AF2D194ED077ADFEDA0
:104F8800497AB0EEC77AB4EEE77AF1EE10FA11DC9E
:104F980094ED087AB0EEC77AB4EEE77AF1EE10FA3B
:104FA80008DC94ED097AB0EEC77AB4EEE77AF1EE50
:104FB80010FA02DD636B013363633B4A3B4B3C48A9
:104FC800314692ED026AD2ED016AF1EC017A92ED76
:104FD800007A76EE266A8842C6EE265A77EEC76AC7
:104FE80093ED026AA5EEA67AD3ED016A76EE266AFB
:104FF80017EE107AC6EE265A42F80C7B37EEC77ABF
:10500800D3ED007AF0EE676AD7EE076AE5EEA67A86
:1050180017EE907AC1ED027A43F80C7BD1D16B88F8
:10502800B3B92B7C002B3FF4B1ABDFF88C90DFF8E1
:105038008C80002596ED000A59F82500D8F8003034
:1050480098470135032DA6EC010AF3D1FFF79EBB63
:10505800DFF86CA0B1464FF0000899ED000A0AEBA2
:105068000800FBF780FA08F11C08B8F1540FA9EC06
:10507800010AF2D1D5E700BF1A2B0020000000007A
:1050880038050010FC2A00203A040408EC2500200A
:10509800C0250020646B002000000010E64B0020B3
:1050A80074050010CDCCFC40D8030010FC030010A0
:1050B8008005001072410020CC0400107404001018
:1050C80020040010C14B0022DA611A625A62FFF70D
:1050D800D5BBBF4B1E68B4F90830B6F9500000EED6
:1050E800103AB8EEC00A10F08BFEB4F90A30ADF8E9
:1050F800600000EE103AB6F95200B8EEC00A10F09F
:105108007FFEB44BADF862001B681B7B07EE903A3C
:10511800B4F90C30F8EEE77A06EE903AB2EE047A7B
:1051280067EE877AF8EEE66A9FEDAB7A76EEA76AC5
:1051380077EEA77A66EE876A86EEA77ADFEDA77A1A
:1051480077EE677AF1EE677AFDEEE77A17EE903A36
:10515800FFF7A5BB0AEB4300408D24F81300FFF7C7
:10516800C3BB032B14BF24F81370E280FFF7BCBB4A
:105178003EF81300F1E79A4B964E1A68994FDFF8FC
:105188008492B7F90000984C9846336812F4807FEF
:1051980014BF597B197A99F8002003F063FAD8F8FC
:1051A8000030208013F4807F336899F8002014BF02
:1051B800597B197AB7F9020003F054FAD8F800308D
:1051C800608013F4807F336899F8012014BF997BBD
:1051D800597AB7F9040003F045FAD8F800104042AC
:1051E80002B2C805A28016D530682688C37BB4F8F9
:1051F80002E013FB06F3642693FBF6F32380037C9B
:10520800407C13FB0EF310FB02F093FBF6F390FBCC
:10521800F6F06380A080754BB7F90620188B8242A0
:1052280057DBB2F5FA6FA8BF4FF4FA62131A4FF4BE
:105238007A72C0F5FA605A43B2FBF0F290B2B0F558
:105248007A7F48D36A4B5B889AF804201BB2E380C4
:10525800002A57D049067FF54AAB664BDFED667AE0
:10526800B3F904300A2293FBF2F3B5F896209B1A9F
:105278001BB208EE103AB8EEC88A28EE278AB0EEBC
:10528800480AFDF737FAF0EE408AB0EE480AFDF713
:10529800CFF9B4F9023007EE103AB4F90030B8EE9D
:1052A800C77A06EE903A67EE407AF8EEE66AE8EEDC
:1052B800A67A20EE260AFDEEE77AA8EE870A17EE10
:1052C800903AFDEEC07A238017EE903A6380FFF79C
:1052D8000EBB0246AAE76427B0FBF7F005EB4003D4
:1052E800B3F980606FF06303434305EB400013FAA2
:1052F80082F2B0F982309B1B534393FBF7F333449C
:105308009BB2A1E72288AAF82A206288AAF82C2052
:10531800A288AAF82E20AAF830309BE795F8983092
:10532800E3B995F89930002B3FF4EAAA334E2E4F93
:105338000024A6F170084FF01C0909FB0480B6ECA4
:10534800010AFBF710F9FDEEC07A17EE903A27F83C
:1053580014300134042CF0D1FFF7D2BA95F89940F3
:105368005CB107EE906A95ED277AF8EEE77AF4EEED
:10537800477AF1EE10FA19D00024DFF88C80204F1C
:10538800B6B23819D8F8002031461C34FDF782FA35
:10539800702CF6D1039B93F8203007EE903AF8EE84
:1053A800677A0123C5ED277A85F89930134A0E49A3
:1053B800002331F9130007EE900A0133F8EEE77A7B
:1053C800042BE2EC017AF4D1ABE700BF58050010DA
:1053D800206F0020846F002000007A440000FA4308
:1053E800904C002090420020504C0020009C00204F
:1053F800B84F00205005001035FA8E3CD02600200A
:1054080060260020B86F002038050010C34B94EDCB
:105418002D6AD3ED006A93ED017AD3ED027A76EE28
:10542800C66A18A9CDED186AD4ED2E6A37EE667AE9
:1054380008468DED197A94ED2F7A77EEC77ACDED7F
:105448001A7A2BF0ADFF189BDDED197AC4F8A83055
:10545800B34BF1EE677A1B68CDED197AC4ED2B7A60
:10546800DDED1A7A5A07C4ED2C7A24D494F8C030AA
:1054780023BBAC4B9FEDAC6AD3ED006A37EEE67AFE
:10548800E7EE066AB0EEC77AC3ED006AA74BDB7891
:1054980006EE903AF8EEE66AA54BB4EEE67AF1EE3F
:1054A80010FA1B6829D5D5F824219B1AFA2B27D97D
:1054B800012384F8C03094F8C0300BB3994B93EDB6
:1054C800007A77EEC77AC4ED2C7AD4ED2A7A994B14
:1054D800FDEEE77A17EE902AD4ED2B7A1A80FDEECE
:1054E800E77A17EE902AD4ED2C7A5A80FDEEE77A07
:1054F80017EE902A9A80FFF799BAC5F82431DAE7AF
:105508000023C4F8A830C4F8AC30C4F8B030DCE7E5
:1055180094ED347AD4ED357A88ED617A0023C8EDBC
:10552800627A88ED677AC8ED687ABDEEC77AFDEED3
:10553800E77AC8F89031C8F89431C8F8A831C8F8A3
:10554800AC31C8F8C431002388F8083088F809302D
:1055580088F802308BED007ACBED017A3B80FFF7BB
:1055680003BBDFED751A94ED3E1A94ED360A00215F
:10557800F0EE610A0846FFF711BB00206F4C70710E
:10558800B071307804944FF0240E0EFB004012F0F6
:105598001002B0F80E9033D03A465B46484625F0E4
:1055A800F5FE73790BB10023B370B3790BB1002307
:1055B800F370337B23B1624A138843F040031380AE
:1055C800737B23B15E4A138843F080031380B37B57
:1055D80023B15B4A138843F48073138096ED720AF3
:1055E800584C32F023FB96ED730A206032F01EFB14
:1055F80096ED740A606032F019FBA060FFF714BBE7
:1056080019F0080F504C4FD05048D5F83831C0F831
:1056180004B0C5F8387122806280A28000293FD08A
:105628004B49FA1A8A4206DDC5F84071C0F80CB039
:105638001AF0C8FDB5E7F278DFF82C81EAB1D5F8A1
:105648004021444BC5F84071A7EB02099945C0F8C1
:105658000CB022DCB8F81E3000EE103AB8EEC00AE2
:105668000120B1EE400A29F005FF48461AF048FE2D
:1056780048461AF0E9FD0123B371B6F914283649F2
:10568800B8F92C3013440A884988934203DB9942BD
:105698000A46A8BF1A46E28083E71AF093FDEAE7B4
:1056A8002E4B1B88E3807CE719F0010F10D0D5F84A
:1056B800482127482A49C5F84871BA1A8242C1F8D0
:1056C80004B057DDC5F85071C1F80CB01AF07AFD76
:1056D80019F0020F16D02349D5F85821C1F804B0A3
:1056E8002149C5F858718878BA1A00286FD1347BD7
:1056F8001748824276DD1D4AC5F86071C2F804B0C9
:105708001AF038FD19F0040F3FF44BAF6422D6F8B5
:10571800E03193FBF2F3164A138042E79C05001030
:1057280068540020580000200AD7233B844D0020ED
:10573800D8BD00206A47002000000000ECEA0308FA
:105748006447002070470020504C0020F8260020B5
:10575800400D03003F0D0300B84F0020706F00207C
:105768000827002018270020424F0020202700206B
:105778005C060010F2789AB1D5F85021C1F80CB047
:105788001449C5F85071BA1A8A421DDC10460692AF
:105798001AF0B6FD069A10461AF056FD0122B271AB
:1057A8000D4A0E48B2F92C10B6F914281144028893
:1057B8004088914203DB88420246A8BF0A4608494E
:1057C80012B2E2800A8083E71AF0FCFCE6E70024C4
:1057D8008EE700BF3F0D0300424F0020B84F002066
:1057E80038800020327A0691002A00F0BA82B27816
:1057F800002A00F04782EA48D5F86021C0F804B0D2
:10580800C5F86071002C40F03B82BB1A0AEE103AD2
:10581800E44B1AEE102A9A4200F3A08229F0D6FD32
:1058280096ED728A90ED000AD6ED738A337B06995D
:1058380038EE408A96ED050A28EE008A90ED010AB6
:1058480078EEC08A96ED070A68EE808A002B00F091
:1058580036828B8A0AEE903A28EEA80AF8EE6AAAEF
:10586800A8EE080A32F076FDB4EEEA0AF1EE10FA74
:10587800F0EE40BA09DDC8EE007AF0EE6ABA27EE1B
:10588800AA8AC8EE807A67EEAA8A3378049986EDE8
:10589800068A242202FB031BC6ED088ABBF80E30D9
:1058A80013F4806FB7EE00BA00F03C82D6F8B4313A
:1058B800D6F8E001C01AFCF704FE42F228339842F9
:1058C800A8BF1846B84B9842B8BF184607EE900ACA
:1058D800F8EEE77A87EE890A20EE290AFCF70AFF34
:1058E8009FEDB27A60EE007AF4EEC77AF1EE10FA24
:1058F80000F11B82F4EE4B7AF1EE10FAC8BFF0EE1D
:105908004B7A8BEEAA7ADFEDAA6AB4EEE67AF1EE6C
:1059180010FA00F10D82B4EE4B7AF1EE10FAF7EEC0
:10592800006AC8BFB0EE667AB0EE4B6AA7EE476A67
:1059380047F6FF7B9F4FD8ED606AA6EEC6BA28EE01
:10594800278A68EEA78A28EE0B0A68EE8B8A88ED0C
:10595800750AC8ED768A32F069F9974B98ED760AA0
:1059680004935845A8BF58469842B8BF184638808F
:1059780032F05CF9049BD8ED758A5845A8BF5846A3
:105988009842B8BF1846788029F020FD98ED768AAD
:1059980090ED047AD0ED036A38EE478A78EEE68A0D
:1059A80028EE080AA8EEA80A32F0D4FCDFED837AC4
:1059B800834BB4EEE70AF1EE10FACCBF9FED817A83
:1059C8009FED817A1A68C1BFC7EE007AF0EEE86AE7
:1059D800B0EEC87A66EEA76AC8BF27EE277AB8EE97
:1059E800CAAADFED7A7A2AEE27AADFED797AD8BF3C
:1059F800F0EE476A6AEE277AD704764A48BF77EE10
:105A0800A77AD2ED008A38EEE7BAB1EE666AB4EE4C
:105A1800C6BAF1EE10FA934600F18D81B4EE66BA7B
:105A2800F1EE10FAC8BFB0EE66BA78EEA78AB4EE07
:105A3800E86AF1EE10FA00F38181F4EE686AF1EE9B
:105A480010FA48BFF0EE668A634F97ED008A78EE49
:105A580067AAF1EE476AF4EEE6AAF1EE10FA00F151
:105A68007081F4EE47AAF1EE10FAC8BFF0EE47AA2B
:105A780037EE888AF4EEC86AF1EE10FA00F3648112
:105A8800B4EE487AF1EE10FA48BFB0EE478A0493B4
:105A980029F09CFCD8ED75BAD0ED030A4F48B0EE5A
:105AA800682AF0EE4B1A0021B0EE4A1AB0EE6B0AE3
:105AB8002BF0F2FBB0EE40BA29F088FCD8ED768ADC
:105AC800D0ED040A46480021B0EE680AB0EE482A34
