:020000040800F2
:10000000000001109D79030873FB0208794A01087A
:10001000597A0308597A0308597A03080000000046
:1000200000000000000000000000000071FB02085A
:100030005B3E030800000000593E030841B400087D
:10004000597A0308597A0308597A0308597A030838
:10005000597A0308597A03084F0F0008570F000810
:10006000597A0308550F0008530F000851DF0208A2
:1000700041DF020831DF020821DF02080DDF02083C
:10008000F9DE0208E5DE0208597A0308597A030806
:10009000597A0308597A0308597A0308510F00085E
:1000A00089E0020861E0020839E00208B1E00208D4
:1000B00029E0020815E0020801E00208597A030865
:1000C000597A0308597A0308597A0308597A0308B8
:1000D000597A0308F9750208F1750208E9750208F2
:1000E0004D0F0008597A03085D3E0308B1DF02088E
:1000F00089DF020861DF0208D9DF0208D1DE0208C9
:10010000597A0308597A0308EDDF0208597A03087F
:10011000E1750208D9750208597A0308597A03086B
:10012000BDDE0208A9DE020895DE020881DE0208B3
:100130006DDE0208597A0308597A0308597A0308D0
:10014000597A0308597A0308597A0308CD38030805
:1001500059DE020845DE020831DE0208597A03083A
:10016000597A0308597A0308597A0308597A030817
:10017000597A0308597A0308597A0308597A030807
:08018000597A0308597A0308BB
:1001880083681A68937A0133DBB20A2B937205D914
:1001980050780349002321F810309372704700BF4C
:1001A800C249002070B5524B1A7814240132B2FBB0
:1001B800F4F004FB10229C68586D1A70A142DA68AA
:1001C80008440CD293F85C40002C00F08B8000F5BA
:1001D800803082423CD3C2F5803202440AE0824237
:1001E800F9D293F85C40002C0CBF00244FF4803403
:1001F800821A121B996093F860101A61002201316B
:1002080083F85C201422D86091FBF2F002FB1011F5
:1002180083F8601093F861101869013191FBF2F4CA
:1002280002FB141283F8612040F68C2290423CD9DC
:10023800197993F9592091422BD10A1F0C2A28D8F1
:1002480093F85A20182A06D8013283F85A2004E075
:100258004FF48034CCE783F8581093F95820914232
:100268000FD193F85B0060B1224C234D00209042DF
:1002780011DB214800240F2A13DD204802780132BF
:100288000270012283F85B2083F8591000221A714A
:1002980070BD0022D9E754F8046F25F810600130CA
:1002A800E5E720F812400132E5E793F85B20EAB170
:1002B800A0F2EF2140F2DA52914207D81A790F2AB8
:1002C80004D803EB820101324861E0E700220C48C0
:1002D80083F85B2011461346C2180433402B116182
:1002E800FAD170BD8242BFF476AF81E770BD00BF1E
:1002F800A81A0020B81A0020C2490020A0490020EE
:10030800AC1A002010B50A4B1A7814240132B2FB3B
:10031800F4F004FB10221A705A6D01320A445A652F
:100328004FF6FF72914204BF012283F85C2010BD92
:10033800A81A0020024B53F820305981704700BF9B
:10034800A0B500200120704701207047F0B5094E84
:1003580034683F2C0DDC0FC8074F4FEA041E0EEB24
:10036800070585E80F00054B1B684EF80730013478
:100378003460F0BDB43E0020B43A002060C70020CD
:1003880070B5114C05460E4600220023D4E91A0127
:1003980036F04EFF20B10AA3D3E90023C4E91A239B
:1003A800304636F077FCD4E91A2336F003FE36F0EF
:1003B80087FF04EB4504A4F8700070BDAFF300801C
:1003C800ABAAAAAAAA461040A81A00200E4B984227
:1003D8000AD0A3F57843984212D003F58063984277
:1003E80010D04FF0FF3070470023084A142101FB5A
:1003F80003231A8A013292B21A82188A80B270478D
:100408000123F2E70223F0E700300140C019002081
:1004180008B540F2E9330289920708D589B281818B
:1004280040F2E9330289D20709D5808905E0013B0A
:100438009BB2002BEFD1FFF7C9FFC0B208BD013B4B
:100448009BB2002BEED1F6E7A0F13003DAB2092A0D
:1004580001D818467047A0F16103052B01D8573819
:100468007047A0F14103052B94BF37384FF0FF3098
:10047800704703685A1C02601970704703685A1C59
:100488000260197070472DE9F84F002B14BF4FF028
:1004980030094FF020090A9B141E07468846BABF48
:1004A80064424FF0010B4FF0000B13F8012B02B11F
:1004B800DCB9BBF1000F1ED1254615F1FF3516D268
:1004C80023462C460A9D5E1B05EB060A15F8011B00
:1004D80099B9BBF1000F05D02546002D10DC002C82
:1004E800A8BFA2445046BDE8F88F013CDDE7494665
:1004F8003846C047E1E70023E4E73846C047E3E76A
:1005080049463846C047013DE7E7D0ED006AD0EDDF
:10051800057AE6EE807AB0EE407AB0EE670AD0ED62
:10052800037AD0ED016A67EEC07AE7EE267AD0ED5D
:10053800066A77EEA67AD0ED026AC0ED057AD0EDAC
:10054800047A67EEC07AE7EE267AC0ED067A70473D
:10055800704743230B800148704700BF000000200C
:1005680010B5074C606CFF2807D00649D1F89020D9
:10057800943132F094FEFF236364002010BD00BF65
:1005880000000020A81A002008B5D0F8E4355B6AFE
:100598009847002008BD08B5D0F8E4351B6A98478D
:1005A800002008BDD0F8E43510B504461B6898470C
:1005B800D4F8E8359B689847002010BD08B5D0F8F6
:1005C800E435DB6903B19847002008BD08B590F809
:1005D800123180F81331042380F81231D0F8E8354D
:1005E800DB689847002008BD10B5D0F8E835044608
:1005F8001B699847032384F81231002010BD70B599
:100608004B784C69012B27D182691568136914B995
:1006180064F3060305E08E68B442F9D94E6166F3C7
:10062800060343F400231361C478012C05D10B7829
:100638000E6900EB83039B695E6145F00445156014
:1006480044B94B6933B102690978506B01238B4077
:1006580003435363002070BD0B788E6800EB83035F
:100668005A6D156813696CB966F3060343F40023E1
:100678001361C378012B04BF0B69536145F004452E
:100688001560E7E74E61EFE72DE9F0414A780C780D
:100698004B69012A51D100EB840EDEF818703D68D1
:1006A8003E6963F312061BBB62F3DC463E61C27807
:1006B800012A2CD10C697C61CC78012C07D1006906
:1006C8008068C00554BF45F0005545F0805545F099
:1006D8000445012C3D6008D13AB99BB20333C9687F
:1006E800DEF8D0009B10934222D10020BDE8F081B3
:1006F800D1F808C003EB0C02013AB2FBFCF262F33A
:10070800DC46CA78012A08BF62F35E76CEE7CE7867
:10071800012ED1D0002BCFD0D0F810C00126DCF8A4
:10072800348006FA04F444EA0804CCF83440C3E7F9
:1007380051F8224004600132D5E700EB84048A684E
:10074800646D25682669ABB962F31206012363F369
:10075800DC462661C378012B04BF0B696361CB7843
:10076800012B03D14B79A3B145F0005545F0044561
:100778002560BAE71344013BB3FBF2F363F3DC46AD
:10078800C3F30903534363F31206C3F312034B6124
:10079800DFE745F08055E9E770B501F07F052824CB
:1007A80004FB050104FB05040126C4F82821C4F84C
:1007B8002C21002201F58E7184F81D6184F81C51EA
:1007C800C4F83421C4F830311DB9FFF718FF0020F0
:1007D80070BDFFF759FFFAE7234BD3F89C200F2A87
:1007E80070B502F101011E4603D0C3F89C10002029
:1007F80070BD1E4C0023C6F89C302378002BF6D120
:100808001B4D2A68B2F5006F08BF2B60194B296889
:100818001B68994202D100232370E8E78CBFC1F519
:1008280000635B1AC6F8A030D6F8A030402B8AB215
:100838000DD9403B4031C6F8A03001232370296010
:1008480040230D490A448121FFF7A6FFCFE7194449
:1008580029604FF00001C6F8A0100EBF0221012147
:100868009BB22170EDE700BFA81A00205CBF0020F2
:1008780044BF002048BF00205DBF002070B5194D5F
:100888002B78012B2C4604D1174ED6F8A0305BB933
:100898002B702378022B17D100231A468121FFF7EA
:1008A8007BFF002323700FE010490C68402BA2B295
:1008B8000CD9403B4034C6F8A0300C6040230C49AA
:1008C8000A448121FFF768FF002070BD1C440C60BA
:1008D8004FF00001C6F8A0100ABF02219BB2297090
:1008E800EDE700BF5CBF0020A81A002044BF00202D
:1008F8005DBF002010B504461346C4F83C21C4F877
:100908003821022280F811210A460021FFF744FF0E
:10091800002010BD70B501F07F04282606FB0405F1
:1009280006FB0401C5F88833002385F87443C5F82D
:100938008023C5F88C3385F87533C37806FB040427
:10094800012B08BFC5F8842394F8743301F55D7151
:100958001BB9FFF754FE002070BDFFF795FEFAE7BC
:1009680038B5282303FB0101074DB1F88C13044661
:10097800284632F05FFC40232A4601212046FFF733
:10098800C9FF002038BD00BF4C1B002030B54A7895
:100998000B780025012A2C4610D100EB830102FABE
:1009A80003F3896963F30F0402696FF3CF350D60B0
:1009B800D36923EA0403D361002030BD00EB83022E
:1009C800516D012202FA03F363F31F44ECE770B59B
:1009D80004460125002680F8445180F8455100F569
:1009E800A271FFF7D3FF04F5677184F89C5384F86C
:1009F8009D632046FFF7CAFF022384F86C3104F593
:100A0800B67184F86D512046FFF7C0FF32F088FCBC
:100A1800304670BD30B54C780B78012C4FF0000291
:100A28001DD100EB830504FA03F3AD6963F30F02EC
:100A38002B681C040DD48C6864F30A03CC78C9882D
:100A480064F3934361F3995343F0805343F40043B1
:100A58002B600369D9690A43DA61002030BD00EBD5
:100A68008304656D012404FA03F363F31F42DFE78F
:100A78002DE9F04104460125022700264FF04008E1
:100A880080F8445180F84551C0F84C8180F847718E
:100A9800A0F84A5180F8486100F5A271FFF7BAFF43
:100AA80004F5677184F89C5384F89D63C4F8A483A3
:100AB80084F89F7384F8A0632046FFF7ABFF0823F0
:100AC800C4F87431032304F5B67184F86F3184F8DF
:100AD8006C7184F86D51A4F872712046FFF79AFF83
:100AE800064B1F715E7132F021FC4346044A2946C9
:100AF8002046FFF70FFF3046BDE8F081001A0020BE
:100B08004C1B0020F8B5044600254027012680F834
:100B1800745380F87553C0F87C7380F8775300F5E8
:100B28005D71FFF777FF04F58E7184F81C5184F826
:100B38001D61C4F8247184F81F51A4F8225120467D
:100B4800FFF768FFD4F8E83584F81261A0785B688D
:100B580098472846F8BD0E4BDA68D20310D4DA68F5
:100B6800D1060FD4DA68D2050ED4DA6812F0E00F95
:100B78000CD1DB6813F0020F14BF0820092070475E
:100B880001207047062070470220704707207047F1
:100B9800003C024007B509238DF80730FFF7DBFF5B
:100BA8008DF807009DF80730012BF7D09DF8070056
:100BB80003B05DF804FB38B582681468A57803466D
:100BC80045B90123A370A1800A222946BDE838400F
:100BD80026F0EEBAA08889B2814238BF5A68E1800F
:100BE8003DBF1268D26A121A091A38BF89182181C2
:100BF800064A6178208922F811000025A5700A228A
:100C08000121184626F0D4FAA57238BDC249002041
:100C1800094B07EE901A53F82030B8EEE77A93EDB7
:100C2800040AD3ED057A10B5A7EE270ADC6837F079
:100C3800ADFE206010BD00BFA0B500202DE9F04139
:100C48000B4DDFF830802C686A69012714400CB915
:100C5800BDE8F081B4FA84F3C3F11F0307FA03F681
:100C680058F823000368984724EA06046E61EEE703
:100C7800003C01405058002070B50A7812F060041A
:100C880006460D462BD0202C30D1CC884B7804B3A7
:100C980012060CD522461E49184632F000FBEA8897
:100CA8001B493046FFF726FE0024204670BD194A2E
:100CB800C0F894435364184AC0F890430323C2F819
:100CC800904080F81131943223460021FFF722FE2C
:100CD800EAE702221144184632F0E1FAE5E74B78D8
:100CE8000A2B07D00B2B0AD0062BDED12DF0AEFC39
:100CF8000224DAE701220949FFF7FCFDD5E78B78E2
:100D08001BB9054AC2F8E430CEE72DF09FFCCCE7CA
:100D18003C1B002000000020A81A00208C1B00208B
:100D280003681B6818470368DB692DE9F04105462D
:100D38000E4617468BB90C463B1B3344002B01DC8F
:100D4800BDE8F08128460BF081F80028FAD014F8A5
:100D5800011B2846FFF7E4FFEEE7BDE8F04118471E
:100D6800014B1868DCE700BFD4D3002038B505462E
:100D78000C4614F8011B01B938BD2846FFF7D0FF0F
:100D8800F7E70D4B1B681B0110B407D50B4B1B680D
:100D98005B050DD55DF8044BFFF7F2BA084B03EB82
:100DA8008003D3F8E8301BB107289CBFDB681960C3
:100DB8005DF8044B704700BF1077002014770020BF
:100DC800A81A00201FB5ADF80A30BDF81830ADF8E4
:100DD800040041F48041ADF80C306846BDF81C3081
:100DE800ADF80610ADF80820ADF80E30FFF7AEFAF2
:100DF80005B05DF804FB1FB5ADF804006846ADF812
:100E08000610FFF7A3FA05B05DF804FB084B53F88A
:100E1800203049B123B970471A689B8813837047FB
:100E28001A689B8853837047002BF5D1704700BF21
:100E380030B30308064B53F820303BB19A881B683F
:100E480059690A4201D05A8370471A83704700BF14
:100E580030B3030810B50409013C032C00F00F025D
:100E680015D80C4B33F8141041FA02F313F00100B3
:100E78000ED0012090400138084036F007FC064BA0
:100E88001B5D1844054B0C2202FB003010BD0020EE
:100E980010BD00BF28B30308BCAD030868380020A4
:100EA80010B1036882885A83704710B1036882883A
:100EB8001A837047F8B5164690F90C20142353434B
:100EC800104AD55883689A0704460F4606D4006925
:100ED800FFF7E6FF012000210AF07CFA3946284690
:100EE800FFF796FA31462846FFF792FAA3689B0760
:100EF80006D4012000210AF06DFA2069FFF7D5FF1A
:100F08000120F8BDC019002030B1036882881B6930
:100F18001A4214BF01200020704728B18088B0FA17
:100F280080F0C0F11F0070474FF0FF30704730B1BC
:100F3800006800F13F4000F57E00800A70474FF0DE
:100F4800FF3070477AE679E678E677E676E675E682
:100F580037B504468B6821600D46984701232373F3
:100F6800FF220023A3736273E3732B6B13B1204634
:100F78009847E0730B4B93F808311BB1E37B23F0E0
:100F88000103E37323685B6B4BB1214601A89847C3
:100F980028B1BDF80630013B238203B030BDFF23E2
:100FA800FAE700BFA81A002003689B6A184703687D
:100FB8005B6A1847F7B5078A9F4204460D4609D36E
:100FC80001358572E272046800250095A469A0477E
:100FD80003B0F0BD4FF0FF30FAE72DE9F0410546C8
:100FE8008AB018460F4690461C4635F0F9FC3B1867
:100FF8009DF84060AB72EB7B85F80B8036EA030303
:1010080019D0F20717D5114BC8221B68B3FBF2F3AE
:10101800DB0706F0FE060ED51F2828BF1F20044652
:101028000246202102A839F044FE0AAB1C440023E2
:1010380004F8203C02AC2B6800965E6942462346C1
:1010480039462846B0470AB0BDE8F08160C700209D
:101058002DE9F3410446184616460D461F4635F05D
:10106800BFFC2368E67228440022A0720092D3F8DD
:10107800148032463B4629462046C04702B0BDE8A8
:10108800F081036810B504465B68984723682046DA
:101098009B689847A37B013BA37310BD036810B5F9
:1010A80004461B689847236820469B689847A37B9B
:1010B8000133A37310BD03681B691847036810B593
:1010C8009B680446984701232373FF23637310BD6D
:1010D800F8B584894FF6FF764FF47A740BB901207E
:1010E800F8BD92B1157801320789BF070FD5ADB2A7
:1010F80085814FF47A740589ED0712D58589ADB2DB
:1011080009B10D700131013BE8E7FF25ECE7013C2F
:10111800A4B2B442E8D1FFF759F9003018BF012052
:10112800F8BD013CA4B2B442E5D1F4E770B5164667
:1011380090F90C20142353430C4AD55883689A0716
:10114800044602D40069FFF7ABFE2846FFF760F9B2
:101158000123002231462846FFF7BAFFA3689B0700
:1011680002D42069FFF7A1FE012070BDC01900203C
:10117800F8B5164690F90C201F46142353430D4A20
:10118800D55883689A07044602D40069FFF788FE99
:101198002846FFF73DF93B46002231462846FFF72F
:1011A80097FFA3689B0702D42069FFF77EFE012002
:1011B800F8BD00BFC0190020F8B5164690F90C20FC
:1011C8001F46142353430D4AD55883689A0704468B
:1011D80002D40069FFF764FE2846FFF719F93B4679
:1011E800324600212846FFF773FFA3689B0702D405
:1011F8002069FFF75AFE0120F8BD00BFC019002082
:1012080003899B0752BF01200089C0F3C0107047B3
:10121800F8B50679012E0546964609D0022E1FD14B
:101228008368DB0758BF41F08001BDE8F8407DE7DF
:101238000C4B90F90C00182404FB003463786BB154
:101248006B7BA1725B0023720023637223750223F8
:10125800A370E660226126F075FC237D1846F8BD70
:101268000023FBE7C07200202DE9F0410479012C2E
:1012780005468E461F4609D0022C20D18468E40713
:1012880058BF41F08001BDE8F04171E70D4B90F97E
:101298000C00182404FB003463786BB16B7BA172DB
:1012A8005B0023720023637223750223A370E76037
:1012B800226126F047FC237D1846BDE8F081002313
:1012C800FAE700BFC072002073B50379012B0D4601
:1012D80016460AD0022B25D18368DB0758BF01F0D8
:1012E8007F01FFF7E7FD02B070BD90F90C10427B5B
:1012F8000D488DF80760182404FB01046078002865
:10130800F1D06372E3600DF10703236100235200FB
:101318002375022308462272A572A37026F012FCD8
:10132800207DE0E70020DEE7C07200200A4B70B5A0
:101338000E46D3F80C51811C89000446F2B201F024
:10134800FC012846FFF7C0FFA1000931320A2846F0
:10135800C9B2BDE87040B7E7A81A00202DE9F041EE
:101368000E4E8046002406F1A007E0B200F0030309
:1013780043450ED136F8145037F81430EB1A002BC9
:10138800B8BF5B42052B04DD2946FFF7CFFF27F8DE
:1013980014500134102CE8D1BDE8F081181B00204E
:1013A80038B50F4D1022002141F2D774B4FBF0F488
:1013B800D5F80C01FFF788FF01200AF01CF8621E1F
:1013C800D2B2FE21D5F80C01FFF77EFF01200AF00A
:1013D80012F8D5F80C0180220021BDE8384073E7E7
:1013E800A81A00202DE9F0410679012E05469646F7
:1013F8009C4609D0022E21D18468E40758BF41F0E9
:101408008001BDE8F041D7E60D4B90F90C00182497
:1014180004FB0034637873B16B7BA1725B002372A9
:10142800002323750223A3706672C4F80CC02261DE
:1014380026F088FB237D1846BDE8F0810023FAE7F3
:10144800C0720020F8B51F4690F90C3004461420ED
:1014580058430C4B1D58A36816469A0703D42069B5
:10146800FFF71EFD00BF3B4632462846FFF730FE19
:10147800A3689B0703D400BF2069FFF716FD01206E
:10148800F8BD00BFC019002073B50279022A22D125
:1014980003238DF8033090F90C001F4C8DF80220BF
:1014A80004238DF804301423434302A80844E35866
:1014B8001A49002601258DF800608DF801508B42ED
:1014C80010F8080C09D0A1F578418B421FD001F51E
:1014D80080618B421DD002B070BD31461A8822F05F
:1014E80040021204120C14251A8005FB01411A88C7
:1014F800C96822F0380231F810101204120C0A439D
:101508001A801A8892B242F040021A80E3E729460C
:10151800E4E71146E2E700BFC019002000300140AF
:1015280010B5427A044632B1036800F10A014068F6
:1015380098470023637210BD124B53F8200070B512
:10154800F8B1114A062303FB002393F90140621CFA
:1015580016D01879A8B10D4A0D4E155DDA786421B8
:101568001423002061438C18013B36F814402A44A8
:1015780010FA84F0F7D11423B0FBF3F080B270BDF9
:10158800002070BD98470020A53F0020CC420020D5
:10159800C43F002038B503200D461446FFF7CCFFA2
:1015A80007EE900AB8EE677ADFED0A7A27EE277A17
:1015B8005DB1F8EE047AF0EE006AE7EE267A9FED68
:1015C800067A67EE877AC5ED007A0CB1034B236083
:1015D80038BD00BF6740533A00007A443313904344
:1015E80030B5094B0949C0B28B4200D330BD5A8887
:1015F800140406D55D68DC68C2F30B0200FB0252D6
:1016080022601433F0E700BFA04C04084C500408D3
:1016180070B5448806460D46C4F30B0400212246E3
:10162800284639F046FB3169084B994208D3084BE4
:10163800994205D222462846BDE8704036F0A8BD3A
:1016480019B12846BDE87040084770BD4C500408E1
:10165800D45204084388426813F4004F1EBFC9B22D
:10166800C3F30B0301FB03221146D1E7064B0749DD
:101678008B4202D30023184670471A88C2F30B0224
:101688009042F8D01433F3E7A04C04084C500408F7
:10169800024A136823EA000010607047004D0020DA
:1016A800024A136818431060704700BF004D0020BD
:1016B800F8B50468C4F30D0405460E4604B32F6854
:1016C800FFF768FA092840F08880454C236923F41D
:1016D80040732361236943F400732361236943F052
:1016E800010323613E60FFF755FA2369092823F0B7
:1016F8000103236171D12B6804332B600020F8BDEE
:10170800384B394A93422BD902F58042934226D965
:1017180002F5804293422AD902F58042934228D9A1
:1017280002F58032934226D902F50032934224D939
:1017380002F50032934222D902F50032934220D9B1
:1017480002F5003293421ED902F5802293421CD939
:10175800B3F1016F1BD3052009F09EFEFBE70824B7
:10176800FFF718FA092814D04FF0FF30F8BD1024FD
:10177800F6E71824F4E72024F2E72824F0E73024D9
:10178800EEE73824ECE74024EAE74824E8E7582461
:10179800E6E7134F3B6923F440733B613B6943F42D
:1017A80000733B613B6923F0F8033B613B6943F0FD
:1017B80002031C433C613B6943F480333B61FFF700
:1017C800E9F93B6923F002033B613B69092823F0EF
:1017D800F8033B613FF473AFC6E76FF00100F8BD53
:1017E800003C024000000E08FF3F0008F8B5044620
:1017F8000D468E180027B54201D12069F8BDE3686F
:10180800591CE160234415F8012B1A720429F2D1FE
:10181800206918B9A1682046FFF74AFF2061E760F0
:10182800E9E738B58D180C46AC4200D138BD14F83C
:10183800011B13F057FAF7E770B501221049114C54
:10184800114E0020FFF7EDFF22884AB1A518B542D6
:1018580013D2052A11D92146FFF7E3FF2C46F3E7F7
:1018680021460222FFF7DDFF6388084AC31AA41A3B
:10187800074A58421480584170BD002070BD00BF0F
:1018880000000E0801000E0800001008FCFF0D08FB
:10189800D82F002030B502440446944201D10020DC
:1018A80011E014F8013B11F8015BA3F1410019287C
:1018B800A5F1410098BF2033192898BF2035581B3F
:1018C80001D1002DE9D130BD70B5034610F8012BC8
:1018D800202AFAD0092AF8D02D2A0ABF0346012562
:1018E8004FF0FF35591E00240A2611F8010FFEF7A4
:1018F800ABFD0A2802D905FB04F070BD06FB040401
:10190800F3E730B50278202A034600F10100F9D048
:10191800092AF7D02D2A47D10346BFEE000A9FEDCA
:101928003A7A1A46F2EE046A134612F8010BA0F14D
:101938003001CCB2092C3DD92E280BD1F2EE046A25
:101948001146B0EE666A0B4611F8012B303AD0B258
:10195800092838D91A7802F0DF02452A4FD15A7877
:101968002D2A3BD102330120013B00220A2513F81E
:10197800011F3039CCB2092C36D9B2F59A7F28BF6D
:101988004FF49A72DFED216A1346F7EE007A072BBF
:101998002DD802F00702F2EE046A62BB88B3C7EEE4
:1019A800276A20EE260A30BD2B2A08BF0346B7EE69
:1019B800000AB4E707EE901AF8EEE77AE7EE267A1F
:1019C800B0EE677AB0E707EE902AF8EEE77AC7EE4E
:1019D800A65A66EE866A37EE257AB4E72B2A14BF34
:1019E800013302330020BFE705FB0212BFE767EEB1
:1019F800A67A083BCBE767EEA67A013ACDE7F7EE81
:101A0800007A67EE276ACCE70000000020BCBE4CD5
:101A1800B5EEC00ADFED2D7AF1EE10FACCBF30EE4C
:101A2800270A30EE670ADFED2A7A20EE270A30B55A
:101A3800FDEEC07A87B017EE904A054684EAE47056
:101A4800002303A9A0EBE4700093019302932CF008
:101A58003DFF002CACBF20232D2303A88DF80030B8
:101A680034F0BEFF012822D130238DF801308DF8E3
:101A780002308DF8033003A9684639F022F9684628
:101A880034F0AEFF0338C4B222466946284639F01E
:101A98004FF900232B550F49284639F012F90DEB61
:101AA8000401284639F00DF9284607B030BD022850
:101AB80005D130238DF801308DF80230DBE703289B
:101AC80004BF30238DF80130D5E700BF6F12033A09
:101AD80000007A44DA34040870B50646154608460C
:101AE800B6FBF2F414B12046FFF7F6FF05FB1464C9
:101AF800024B1B5D00F8013B70BD00BFD410040809
:101B0800F0B50124B0FBF4F58D4203D200271CB9CF
:101B18001C70F0BD4C43F5E7B0FBF4F604FB16006F
:101B2800B4FBF1F41FB9002E01DC002CEFD1092E13
:101B380003F1010E08DD002A14BF37255725354467
:101B48001D7001377346E2E73025F8E7084BD3E903
:101B5800002352EA030108D006490968521843F1E4
:101B68000003C0E90023012070470020704700BF30
:101B7800806C002060C70020F0B5264E04460F4652
:101B88000FCE8DB06D460FC50FCE0FC596E80F006E
:101B980085E80F0014F0030335D1642194FBF1F2BA
:101BA80001FB124242B94FF4C87294FBF2F302FBF4
:101BB8001343003318BF0123C3F11D0340F26D1214
:101BC80001930420631E93FBF0F002FB04046FF002
:101BD800630093FBF0F020444FF4C87493FBF4F3D4
:101BE8001844063000220721013F5DF82230974251
:101BF800184490FBF1F4C4EBC404A0EB040004D136
:101C0800181A0DB0F0BD0123D6E701320C2AECD129
:101C18000020F6E7C0AD0308F8B514461D46064691
:101C28004FF47A7200232046294635F0C7FC2C4B26
:101C38003C22034493FBF2F002FB1031B17190FB9C
:101C4800F2F102FB1102182072714FF4616293FBEA
:101C5800F2F292FBF0F100FB112232712149224A83
:101C680093FBF2F293FBF1F3980040F2B55392FB29
:101C7800F3F103FB1123B3F5896F2DDA40F2DA2271
:101C880093422BDCB3F5B77FB4BF0022012217497A
:101C9800182707FB02170B2137F811E0734501DA03
:101CA8000139F9D100F5FA6010443080481CB07051
:101CB8000C2000FB02120E4901EB4202013392F89C
:101CC80034209B1AF3704FF47A7200232046294679
:101CD80035F074FC3281F8BD0322D8E70222D6E73A
:101CE80080BC92C7801F860780510100F0AD0308B1
:101CF800BCAD030837B504466846FFF727FF05461D
:101D080038B1DDE900232046FFF786FF284603B0F7
:101D180030BD01232080A370E37020716071A07131
:101D28002081F3E737B50546FFF7E4FF044640B1E5
:101D3800054B02AA1B8822F8023D294628462CF0AA
:101D480010FD204603B030BD64A3002010B5028802
:101D5800C378A2F5FA62591E40F2B554930804FB01
:101D6800031381780C24013902F0030204FB0212E8
:101D78000C49847901EB42021821928E13440279AE
:101D880001FB0323427900893C2101FB0323064A16
:101D9800224401FB03234FF47A720021C2FB0301A2
:101DA80010BD00BFBCAD030880436D380B684A689E
:101DB8009A4206D05A1C0A601B7800B103700120B1
:101DC80070470020704710B502681146531C036025
:101DD80011F8024B0160D31C5178036093781B04FF
:101DE80043EA0123111D0160D078234343EA0060D0
:101DF80010BD03685A1C02601A4612F8021B0260E2
:101E0800587841EA0020704791E80C009B1A012B92
:101E180010B5044606DD0846FFF7EBFF04B1208045
:101E2800012010BD002010BD03685A1C02601878FC
:101E3800704738B5044609C81B1A9A42154606DC8D
:101E480036F0A6F922682A442260012038BD002015
:101E580038BD38B504460068154636F099F9226849
:101E68002A44226038BD03685A1C0260197003684E
:101E78005A1C02600A0A1A7003685A1C02600A0C8B
:101E88001A700368090E5A1C0260197070470368BB
:101E98005A1C026019700368090A5A1C02601970FA
:101EA80070472DE9F04F89B082468B4616461C468E
:101EB80000270DF114083178002934D0252904D0E1
:101EC80050460136D8470137F5E771782D2905BF07
:101ED800B178F51CB51C012618BF0026302906BFAD
:101EE8002978012300230293A1F1300308BF0135AB
:101EF800092B4FF0000907D80846FEF7A5FA0A286B
:101F080015D90EB1C9F100096C2940F08B802A78E7
:101F1800642A05F1010600F0BC801BD8252A62D08E
:101F28000BD8002AC7D1384609B0BDE8F08F0A237C
:101F380003FB090915F8011BDEE7582A1BD0632AA1
:101F4800B9D1354621785046D847261D0137344641
:101F58002E46B0E7732A3AD008D8662A49D06E2AA6
:101F6800A9D13546236804341F60F1E7752A00F0CB
:101F78008B80782A9FD1A2F15800424204F10405CF
:101F8800434642411021206807E02D238DF8143084
:101F980040420DF1150300220A21FFF7B1FD2C463E
:101FA800CDF80080029B4A4659465046FEF76BFA28
:101FB800074480E72D238DF8143040420DF11503B6
:101FC80000220A21FFF79CFD2E46039CE8E73546D0
:101FD800236800934A46002359465046FEF753FAB1
:101FE800261D0744B3E7354625215046D847013713
:101FF800AEE73546073424F00703D3E9000103F1BF
:10200800080435F07DF900EE100A4046FFF700FDA0
:10201800CDF80080029B4A4659465046FEF733FAEF
:10202800074495E764293CD00BD82529DCD003D890
:1020380000293FF478AF8BE758290FD0632981D066
:1020480086E77329C4D004D86629D3D06E2989D0ED
:102058007EE775290FD078297FF47AAF58394A423C
:1020680004F104064A412068434610213446FFF72C
:1020780047FD2E4694E7231D0393002243460A2179
:102088002068FFF73DFD9FE7251D434600220A21F2
:1020980079E72068002804F10405FFF676AF434687
:1020A80079E72068231D0028039383DB434687E7ED
:1020B8000EB40FB505AB019053F8042B06490393F2
:1020C80001A8FFF7EEFE019B00221A7004B05DF82C
:1020D80004EB03B0704700BF850400082DE9F04306
:1020E800384B8DB00CAA1B8822F80E3D064609A86D
:1020F8002CF037FBBDF922203C2192FBF1F301FBC8
:10210800132109B21DB2BDF824300029B8BF4942D5
:10211800B3F5FA6F44D39DF82630013B0B2B3FD81B
:102128009DF82730013B1E2B3AD89DF82830172BF5
:1021380036D89DF829303B2B32D89DF82A303B2BD6
:102148002ED8BDF82C30B3F57A7F29D20124002D82
:102158009DF827009DF828709DF829E09DF82AC071
:10216800BDF82C800791B4BF4FF02D094FF02B0913
:10217800002DB8BF6D428DE88140BDF824209DF840
:1021880026300695CDF81490CDF81080CDF80CC007
:102198000D493046FFF78CFF20460DB0BDE8F083AF
:1021A80000200123ADF824008DF826308DF8273063
:1021B8008DF828008DF829008DF82A00ADF82C003C
:1021C8000446C4E764A30020F91004080FB437B527
:1021D8000B490C48096800680B4D06AB53F8042BF3
:1021E8000193FFF75EFE0446286809F026FE0028E2
:1021F800FAD0204603B0BDE8304004B0704700BFB5
:10220800B83E0020BC3E0020D4D300202DE9F04F7A
:1022180000F1100E85B007460546002600F140097A
:10222800B0462B46BC4616E0F4EC016A1AED047A77
:10223800D3ED007AE6EEC77AC3ED007AAC420AF134
:10224800100AF1D108F10108B8F1040F0CF1040CDF
:1022580003F1040303D0AEF11004E246EEE74FEABF
:10226800860B73464B451ED003EB0B0AB8469C46BB
:1022780009E0FCEC016A18ED047AD4ED047AE6EE84
:10228800C77AC4ED047AD44508F11008F1D1D4ED29
:10229800046A95ED007AC6EE877A103317EE90CA75
:1022A80044F810CFDEE70136042E05F114050EF1CF
:1022B800100E07F10407B3D100240094019402948E
:1022C800039402F1100C074606466C4652F8045B6C
:1022D8002560EE463546BD4228D1624504F1040426
:1022E80006F1100605F11407F0D104AE00F13C0523
:1022F8000A4656F8044D42F80C4F2C460434A342C3
:1023080002F10402D1ED037A1BD12A46D2ED006A0C
:1023180087EEA67A103B8342A5F11405A1F10401CA
:1023280081ED047AE4D105B0BDE8F08FBEEC017A06
:10233800D4ED007AF5EC016AE6EEC77AC4ED007ACE
:10234800C9E7D4ED006A92ED007AE6EEC77AC1EDEE
:10235800037AD3E71FB50C46024669461030FFF7EB
:1023680055FFDDED007AB6EE007A67EE877AC4EDA8
:10237800007ADDED017A67EE877AC4ED017ADDED4A
:10238800027A67EE877AC4ED027A04B010BDD1ED07
:10239800007A90ED066AD0ED095AB8EEE77AD0EDEA
:1023A800047AE7EE077AB7EE005AC0ED047AD1ED69
:1023B800017AF8EEE76AD0ED057AE7EE267AC0ED05
:1023C800057AD1ED027AF8EEE77AA7EE276A80ED72
:1023D800066A90ED076A36EE076A80ED076A90EDA7
:1023E800086AA7EE266A80ED086A26EEA66A75EEE8
:1023F800865AA7EE076AC0ED095AD0ED0A5AE6EEEA
:10240800A75AA7EEA76AC0ED0A5AD0ED0B5A75EE87
:10241800A65AC0ED0B5AD0ED0C5AE7EE275AC0ED7C
:102428000C5AD0ED0D5AE6EEA75AC0ED0D5AD0ED74
:102438000E5AE7EEA75AC0ED0E5AD0ED0F5A75EEB8
:10244800A75AC0ED0F5AD0ED105A75EE875AC0ED55
:10245800105AD0ED115A75EEA65AC0ED115AD0EDAA
:10246800125A75EEA75AC0ED125AD0ED135A75EEEE
:10247800855AC0ED135AD0ED005AE7EE065A90ED92
:10248800017AC0ED005AA6EE867A80ED017A90EDC9
:10249800027AA7EE867AD0ED037A80ED027A37EEDB
:1024A800866A80ED036A704700F140010346002206
:1024B8001A615A619A61DA6110338B4240F8042B31
:1024C800F6D1704780EAE073A3EBE0738B4206DB3A
:1024D800002801DD401A704702D0084470470020E8
:1024E800704748F6A043984203DDA0F50C40A03899
:1024F80070470028B8BFC018704744F2506398422C
:1025080003DDA0F50C40A0387047034B9842BCBFD0
:1025180000F50C40A0307047B0B9FFFF08B52DEDAD
:10252800028BB0EEC08AF0EE408AB7EE000A30EEB9
:10253800480A36F0BFFD9FED0E7ADFED0E7AE8EE21
:10254800077A9FED0D7AA8EE277ADFED0C7AE8EE90
:10255800077AF5EEC08ABDEC028BF1EE10FA27EE91
:10256800800A44BFDFED067A37EEC00A08BD00BF17
:10257800306E99BC2716983D843459BEA40DC93FC6
:10258800DB0F4940F0EEE06AB0EEC07AF4EEC76ABD
:10259800F1EE10FAD4BFB0EE476AB0EE666AB5EE57
:1025A800406AF1EE10FA48D0F4EEC76AF1EE10FA7C
:1025B80054BFF0EE475AF0EE665AC5EE867A9FEDA4
:1025C800206ADFED205A9FED205AE7EE865A9FEDEC
:1025D8001F6AA7EEA56ADFED1E5AE7EE865A9FED41
:1025E8001D6AA7EEA56ADFED1C5AA7EEA55AF7EEFD
:1025F800005AE7EE855AB1EE466AC6EE257AF4EE41
:10260800C76AF1EE10FA48BF9FED147AF5EEC00ADA
:1026180048BF77EE677AF1EE10FA48BF9FED107A5F
:10262800B5EEC00A48BF77EE677AF1EE10FA48BFF8
:10263800F1EE677AB0EE670A7047DFED0A7ABEE717
:1026480039094E3DE3B59EBE69A2163E88FA16BE0C
:1026580045FE7FBFA7DFA8B499FB243FDB0FC93F26
:10266800DB0F494000000000FDEEC07A17EE903AFB
:102678002033402B43D8DFED237A9FED237AB4EE45
:10268800E70AF1EE10FA28DCDFED207A9FED1E7ADA
:10269800B4EEE70AF1EE10FA22D4DFED1D7AB4EEBB
:1026A800E70AF1EE10FA1EDD30EE670A37EEC00ACF
:1026B80060EE007ADFED176A9FED177AA7EEA67A2B
:1026C800DFED166AE7EE876A9FED157AA7EEA67A20
:1026D80020EE276AA6EE070A704730EE470ACEE7D3
:1026E80030EE070AD4E79FED0F7AB4EEC70AF1EE91
:1026F80010FA44BF30EE270A37EE400AD8E79FEDBC
:102708000A0A7047DB0F4940DB0FC940DB0F49C09D
:10271800DB0FC93F9A7C2E36FAAF4FB93587083C94
:10272800A4AA2ABEDB0FC9BF00000000DFED027AB1
:1027380030EE270A98E700BFDB0FC93F91ED005A3A
:1027480008B5B0EE450AFFF7F1FFF0EE405AB0EEDB
:10275800450AFFF789FFD1ED014AB0EE405AB0EEC5
:10276800640AFFF7E3FFB0EE404AB0EE640AFFF7F1
:102778007BFF91ED023AF0EE403AB0EE430AFFF7E4
:10278800D5FFF0EE404AB0EE430AFFF76DFF25EEA5
:10279800A46A65EE806A65EE247A64EE244A25EE22
:1027A800007AC0ED004AF0EE664AE3EEA74AB0EEC2
:1027B800463AC0ED034AF1EE634AA4EE873AE3EEE7
:1027C800A67AA4EE867A24EE400A25EE445A65EEEF
:1027D800845A80ED010AC0ED023A80ED043A80ED9A
:1027E800055A80ED067AC0ED077AC0ED085A08BD93
:1027F80038B5334CB4FBF2F4A142F0EE404A1D4622
:10280800F7EE005A4FF0000453D207EE901A9FEDEE
:102818002D7ADFED2D6AF8EE677A67EE877A07EE94
:10282800102AB8EE477A27EE267AC5EE876A87EE31
:10283800A63AB0EE430AFFF717FFF0EE402AB0EED3
:10284800430AFFF773FF74EEA44AF8EE006A82EEBB
:10285800A47AF5B1012D25D077EE257A20EE260A47
:1028680085EE276A75EEC75A80ED006A84EE276AFE
:10287800C0EE276A80ED016A85EEA77A83EEA76A23
:10288800C0ED036A80ED026A80ED047A84614461D8
:1028980038BD35EEC04AB6EE005A24EE055AF0EEC1
:1028A800453AD9E720EE264AF0EE653AB0EE655A89
:1028B800D2E7C0ED005A44608460C4600461E5E773
:1028C80020A10700DB0FC940BD37863500239FEDE7
:1028D800010A8DE7F304353F30B507EE902A2DED58
:1028E800028BB8EE670A07EE903AF8EE677A83B083
:1028F80080EE270A0D460446019236F03DF830EE88
:10290800008AB0EE000AF0EE480A36F03FFA36F0D8
:10291800D1FBF0EE480AF0EE408AB0EE000A36F03D
:1029280035FAF7EE007A30EE670A019988EE800AE8
:1029380001232A46204603B0BDEC028BBDE8304097
:1029480056E7D0ED017AF5EE407AF1EE10FA09D1AA
:10295800DFED0E7A60EEA70AB7EE007AC7EE207AAE
:10296800C0ED017A90ED017AD0ED007A80ED021A7F
:1029780031EE077A30EE670AC1EE076AE6EE807A32
:10298800B0EE670AC0ED007A704700BFDB0FC940A0
:1029980090ED017AD0ED007AC0ED020A30EE877A28
:1029A80030EE670AC0EE876AE6EE807AB0EE670A14
:1029B800C0ED007A70474840082310F0800F4FEAB6
:1029C800400018BF80F0D500013BC0B2F5D1704778
:1029D80010B50A440C46944200D110BD14F8011BEE
:1029E800FFF7E9FFF7E74A09012301F01F0103FA9E
:1029F80001F150F822300B4340F8223070470EB4F2
:102A0800244B70B51B68002BA5B0064630DA224B64
:102A1800224C19684FF47A7304A8B1FBF3F203FB54
:102A280012131F49FFF744FB04AB03440393299A8D
:102A38001C492AAB054603A80293FFF732FA039B09
:102A4800591C03910A211970039B591C03910021F9
:102A580019700246206880B103681B6A03B1984761
:102A680004A92068FEF782F916B1206812F066F909
:102A780025B0BDE8704003B070470B4B1B68002BB6
:102A8800F6D002212A4400910A44FD2004A919F035
:102A98008DFBEDE71077002060C70020C8420020BA
:102AA800271104087B040008CC3E002038B5144BDD
:102AB8001C68033004EB9002B2F5007F14D8114D66
:102AC8001A6005EB8404104D55F8213020F00300FE
:102AD8001844920045F82100C2F500620B49002015
:102AE800FFF78DFF204638BD09490020FFF787FF13
:102AF800084A136843F0007313600024F2E700BF2C
:102B0800482F0020D81B00204C2F00203311040828
:102B180056110408F057002010B54CB2002C01F0F3
:102B28007F034FF02802B5BF02FB030102FB01013E
:102B380001F58E7101F55D710122DBB28A70002CFE
:102B48004FEAD4720B704A7000EB83000ADA82698C
:102B58001368002B01DA43F0804343F40013136039
:102B6800002010BD426D1368F7E782B0002301937F
:102B78000C4A036819690191013A10D0019900299A
:102B8800F8DA019A42F001020192019A1A61054AA3
:102B980019690191013A02D00199C907F8D40020B6
:102BA80002B07047410D0300084A182363F3060278
:102BB800436D1A61C278012A06D100F2CC505861DF
:102BC8001A684FF080221A60704700BF0000086042
:102BD80010B5042380F81131002304461A4619461B
:102BE800FDF7DAFD2046FFF7DFFF002010BD10B526
:102BF800044671BB90F81131032B1BD1D0F89023F8
:102C0800D0F87C339A4217D9C178012908BFD0F887
:102C18008013A2EB030204BFC918C0F880139342C3
:102C280028BF1346C0F890239BB2D0F88023002118
:102C3800FDF770FE002010BDD0F8E4351B6923B104
:102C480090F81221032A00D198472046FFF7C0FFC9
:102C5800F0E7D0F8E4359B69002BEBD090F812210F
:102C6800032AE7D19847E5E7F0B590F8CF1590F833
:102C7800D12590F8CE3590F8D05590F8CC6590F8DD
:102C8800CD7503EB012305EB022590F8D31590F8D9
:102C9800D22502EB0122012185B080F8111106F03E
:102CA8001F0192B29BB2ADB2012904468DF80860AB
:102CB8008DF80970ADF80A30ADF80C50ADF80E205B
:102CC800C0F8402100F00E8105D3022900F01E81D2
:102CD80006F0800187E1092F64D8DFE817F0BA0011
:102CE800F8006300CC0063005B000A006300AD00DD
:102CF8007A00ADF806201A0A013A062A52D8DFE807
:102D080002F0040C295151515100D0F8EC351B68E0
:102D1800A0780DF1060198470AE0D0F8E4358078EC
:102D28009B6A0DF10601984702234370C4F8F00529
:102D3800BDF80620002A47D0BDF80E30002B43D03E
:102D48009A4228BF1A46ADF8062001462046FDF7EC
:102D5800D1FD39E0DBB2052B24D8DFE803F0030707
:102D68000B0F1317D0F8EC355B68D1E7D0F8EC35CA
:102D78009B68CDE7D0F8EC35DB68C9E7D0F8EC35CF
:102D88001B69C5E7D0F8EC355B69C1E7D0F8EC35CD
:102D98009B69BDE735B92AB990F81211032903F0E8
:102DA8007F0503D120462BF051FC0DE063F30A1296
:102DB800036980F8145119680A431A60FFF708FF7D
:102DC8002DB1022384F81231002005B0F0BD012393
:102DD800F8E7D9B2894D012985F84019E2D890F869
:102DE8001231022B0FD0032BDCD1C1B9022380F89A
:102DF8001231D0F8E43580F810115B689847204606
:102E0800FFF7E6FEE0E70029F9D00121032380F867
:102E1800101180F812312046FDF7C4FBEFE790F857
:102E280010110129EBD0D0F8E4355B68984795F884
:102E3800401984F81011EEE7012AB3D190F8123145
:102E4800022B04D0032BADD100F588717EE76C49C5
:102E58007CE790F81231023B012BA3D8674B002284
:102E6800C3F84829D0F8182112B10222C3F848291A
:102E7800022264496AE7012B08D1C4F81831D4F852
:102E8800E43502A99B6820469847B8E7022B9BD1F6
:102E980015F0FF0F98D103692D0A013D5B680122E7
:102EA800042D05D8DFE805F004030D0F11000222F8
:102EB80062F30613514AC2F84C39012384F81631DB
:102EC8009DE70322F4E70422F2E70522F0E790F8F1
:102ED8001221023A012A3FF665AF012B7FF474AF45
:102EE8000023CAE790F81231032B7FF45CAFEDB2F0
:102EF800012D3FF657AFD0F8E43502A99B689847F3
:102F0800BDF80E30002B7FF45FAF78E706F060065F
:102F1800202EE9B205D1D0F8E43502A99B6898477C
:102F280052E7012F11D041D3032F7FF44DAF90F812
:102F38001221022A54D0032A7FF435AF002B9ED1E8
:102F48004A069CD0FFF7E8FD99E790F81221022A7B
:102F580046D0032A7FF427AF002B7FF435AF11F05A
:102F68007F023FF44CAF6DB2002D4FF02803B5BF80
:102F780003FB020103FB010101F58E7101F55D718F
:102F880000238B700A70EB0F00EB82024B70002D50
:102F9800B4BF9269526DC978136802396FF35553FB
:102FA800012998BF43F08053136068E790F8123105
:102FB800022B15D0032B7FF4F6AE15F0800F0F4BC4
:102FC8004FF0280214D001F07F0102FB010191F8B3
:102FD8001E215AB10122C3F850290B490222B5E635
:102FE8004B063FF4F1AEFFF797FDEDE60022F2E75E
:102FF80002FB010191F87623EBE700BFA81A002035
:10300800EC230020F0230020F823002038B50446E4
:1030180000295BD190F81131022B1ED1D0F838313C
:10302800D0F82421934226D9C178012908BFD0F8C5
:103038002811A3EB020304BF5218C0F82821C0F8D6
:103048003831D0F828219BB20021FDF7A5FB0023D9
:103058001A4619462046FDF75DFC94F81631012BF7
:1030680007D1204A2369D2F84C295A60002384F8F2
:103078001631002038BDD0F83C31B3FBF2F502FB25
:10308800153565B99A420AD8D0F84021934206D23C
:103098002B462A46FDF780FBC4F84051D7E7D4F801
:1030A800E435DB682BB194F81221032A01D12046BC
:1030B8009847052384F8113100231A4619462046FB
:1030C800FDF728FC2046FFF76FFDC6E7D0F8E4358A
:1030D8005B69002BCDD090F81221032AC9D19847FB
:1030E800C7E700BFA81A0020104BDA684378D2431C
:1030F800C2F30222C2F10401C9B28B400F2141FA86
:1031080002F28178DBB20A401343094902781B01B5
:103118008818DBB280F800335009012302F01F023F
:1031280003FA02F241F82020704700BF00ED00E0EA
:1031380000E100E0C27802B1D6E7037801215A091C
:1031480003F01F0301FA03F32032024941F8223049
:10315800704700BF00E100E082B0002301930093B4
:103168000B0F00900193019B21F07F4153B1009B0D
:1031780014330093009B1B68194214BF01200020E0
:1031880002B07047009B090C1833F2E7838A008B62
:103198009BB243EA004321F07F401840431A58424B
:1031A80058417047036823F001030360002303605C
:1031B80043608360C3600361212343612A4B9842C3
:1031C80003D13D2243F8082C7047284B984204D17C
:1031D8004FF4746243F8202C7047254B984204D171
:1031E8004FF4741243F8382C7047224B984204D19C
:1031F8004FF0746243F8502C70471F4B984203D12C
:103208001E4A43F8642C70471D4B984203D11D4A4F
:1032180043F87C2C70471C4B984203D11B4A43F857
:10322800942C70471A4B984204D14FF03D5243F802
:10323800AC2C17E0174B9842C3D0174B9842C7D015
:10324800164B9842CCD0164B9842D1D0154B984289
:10325800D6D0154B9842DAD0144B9842DED0144B96
:103268009842E2D0704700BF1060024028600240D8
:103278004060024058600240706002403D000020FB
:1032880088600240400F0020A060024000003D20FE
:10329800B860024010640240286402404064024062
:1032A800586402407064024088640240A06402408E
:1032B800B8640240204A936803F00C03042B10B54D
:1032C80020D0082B20D01D4B1B4C0360A3681C4A40
:1032D800C3F30313134493F848100368CB404360C7
:1032E800A168C1F38221114491F8481023FA01F131
:1032F8008160A168C1F342310A4492F84820D34062
:10330800C36010BD0F4BDFE7546851685268630211
:10331800C2F3881201F03F014CBF0A4B074BB3FBC5
:10332800F1F35343044A5268C2F301420132520096
:10333800B3FBF2F3C8E700BF003802400024F400F2
:103348000000002000127A002DE9F0430D680022E9
:103358000126032406FA02FC3CEA05033DD1570086
:10336800D0F800E004FA07F3DB430EEA030EC0F8D6
:1033780000E091F804E0D0F800900EFA07F80EF19A
:10338800FF3E48EA0908BEF1010FC0F8008017D8CF
:10339800D0F808E003EA0E0383604B79D0F808E020
:1033A800BB4043EA0E038360436823EA0C0343608F
:1033B8008B79D0F804E093409BB243EA0E03436054
:1033C800C36804FA07FE23EA0E03C360CB79D0F87A
:1033D8000CE0BB4043EA0E03C3600132102AB9D1A6
:1033E800BDE8F083F7B50C461546064690B3FDF7E1
:1033F8009EFD194B18440F2790F894002BF05AF9AA
:1034080030463368FDF789FD80B200F00702C00836
:1034180003EB80009200016A974021EA07010162EC
:10342800016A9540B288009204F003020D438DF8BA
:103438000420C4F3810205628DF805206946C4F3AF
:1034480000121846C4F341148DF806208DF8074081
:10345800FFF77AFF03B0F0BDBCAD0308F8B57B4EAB
:10346800142505FB00650446287A2BF023F92A7AEF
:1034780002F01F0152090123032A03FA01F362D063
:10348800042A65D0022A03D1714A516A0B43536258
:10349800142303FB0463651C5879FDF7DBFCEDB2CC
:1034A800074620B10D2383710B23C37105721423C2
:1034B80003FB0463D879FDF7CDFC18B10D238371A4
:1034C800C3710572142303FB04639879FDF7C2FCEA
:1034D80020B10D2383710C23C3710572142505FBDC
:1034E8000465AB7A6A7A002B37D04A213846FFF751
:1034F80079FFE879FDF7AEFC6A7A2A21FFF772FFB7
:10350800A879FDF7A7FC6A7A142505FB04650A214A
:10351800FFF768FF287928B1FDF79CFC6A7A092132
:10352800FFF760FF142363434A4AF35893421ED1BE
:1035380002F58432516A41F480515162516A21F492
:103548008051516220E0424A116A0B4313629FE79F
:103558003F4A11690B4313619AE70A213846FFF77E
:1035680041FFE879FDF776FC6A7A0A21C6E73A4A0C
:10357800934232D102F50032116A41F4804111625E
:10358800116A21F480411162142202FB0462927ACA
:10359800002A56D101220220198801F4415141F430
:1035A80045710A4302431A809A8B22F4006212047E
:1035B800120C9A8307221A821A8892B242F04002A9
:1035C8001A80142303FB0464207900283CD0FDF7FB
:1035D80041FCBDE8F840FDF768BC204A934209D198
:1035E80002F5FE32116A41F400411162116A21F4B8
:1035F8000041C8E71A4A934209D102F58232516A5A
:1036080041F400515162516A21F4005199E7154A79
:10361800934209D102F56842516A41F4801151621E
:10362800516A21F480118CE70F4A9342ACD102F51C
:103638006442516A41F400115162516A21F4001147
:103648007FE700221046A7E7F8BD00BFC019002099
:10365800003802400030014000380040003C004083
:1036680000340140005001400054014037B50C4679
:103678000546E8B1FDF75BFC0E4B184490F8940042
:103688002BF018F8AB88009304F003038DF804308E
:10369800C4F381038DF805306946C4F30013286824
:1036A8008DF80630C4F341148DF80740FFF74CFE3F
:1036B80003B030BDBCAD03082DE9F74F374C994630
:1036C8009DF83030009394F85439052B80468B468A
:1036D800924608D932490020FFF791F9002528467B
:1036E80003B0BDE8F08F07F0B4FD0646002852D0BD
:1036F80094F8547998F804007A1CD2B207EB47037F
:1037080004F6581505EB431584F854290192FDF782
:10371800A1FB034628B104218171019A027202219A
:10372800C171009A6AB398F8082002211846FFF779
:1037380059FE602303FB07445A4651463046C4F8F5
:10374800586923F0DCFE4946D4F858092AF024FECB
:10375800D4F8580943681A68B2F844306FEA43430A
:103768006FEA53439BB2A2F8443013889BB243F0EC
:10377800010313802AF038FD0023C4F864090360AC
:10378800ADE7184611210093FFF770FF009B18461C
:10379800FDF786FBCDE70546A1E700BFA81A002084
:1037A8006F110408F0B52DED028B234B83B006464C
:1037B80000681C680D461746F0EE408AB0EE608A35
:1037C8002AF07CFCB4FBF0F0B0FBF5F404F57F4480
:1037D800FF34240C0097B0FBF4F40023B4FBF5F598
:1037E8002146AAB23046FFF767FF08B3B5EE408A14
:1037F80007EE904AF1EE10FAF8EE677A08BF06EE87
:10380800905A9FED0E7A0ABFF8EE666A27EE888A0C
:1038180086EE876A4FF00103037218BF88EE076AC5
:1038280027EE467A80ED056AA7EEA87A80ED047A3D
:1038380003B0BDEC028BF0BDF00A002000007A4412
:103848002DE9F04FB24CB34D002687B082460121D6
:10385800582026606660A660FFF728F9029603964E
:10386800AD4EA0609AF80F30DBB111202BF040F874
:1038780078B102682B689A420BD103220192227810
:1038880000926378BDF8082001211220FDF79AFA0A
:103898009AE012202BF02CF818B102682B689A4293
:1038A800EBD09AF810303BB11F202BF021F818B15B
:1038B8002A6803689A42E0D09AF80720EB68002A41
:1038C80040F08E809AF8052012B1980700F18B809D
:1038D8009AF80620002A00F0898003F00109DAF836
:1038E800002012B1032A40F083809AF8122012B106
:1038F800190700F1A68113F0040F40F0DD80B9F13B
:10390800000F61D0B9F1010FBDF808B076D1284693
:1039180007F09FFC0746002841D04FF00008FF231E
:1039280086F8988B287986F80480C6F80880C6F847
:103938000C80C6F81080C6F8548086F8583086F88F
:10394800593086F85A8086F85B8086F85C80FDF7E7
:1039580081FA28B10323837180F8079080F80880E2
:103968002A7AE979FFF73EFD6C4A0021384607F0CC
:10397800BFFC6B496B4BC6F8A83B6B4BC6F8A41B46
:10398800C6F8AC3B0C31384607F036FC0121384606
:103998000A2223F00DFC012138462AF00FFCA278F8
:1039A800A36803EBC20320225A702379227800927D
:1039B800013323710021637801915A461320FDF7E2
:1039C80001FAA3780133A370029B01330B2B0293F6
:1039D80005F114057FF446AF4D4807B0BDE8F08FF8
:1039E8004FF000097BE74FF0020978E7914676E748
:1039F8005A0600F1268113F0200F7EE79DF80C701F
:103A0800474B4FF01C0909FB07F94B442846049320
:103A180007F01FFC804600283AD006EB0903002275
:103A280083F89A2B83F8A22B012283F8997B83F8D9
:103A3800982B28790592FDF70DFA7B1CDBB220B193
:103A48000221059A8171C27103722A7AE979FFF716
:103A5800C9FC324A0021404607F04AFC1C2303FBFC
:103A68000767049BC7F8A43B3049314BC7F8A83B0C
:103A7800304BC7F8AC3B4944404607F0BDFB012139
:103A880040460A2223F094FB012140462AF096FB87
:103A9800A278A36803EBC20340225A70E37801338B
:103AA800E370039B01220133039301926378227828
:103AB80000925A46002181E794F80190BDF80870F9
:103AC800B9F10B0F06D902230193237800934B46D3
:103AD8003A46D9E69AF81830BAF81AB09AF8042093
:103AE800591E072900F29880DFE801F00A0E300419
:103AF8005C5C5C5CDFED100A5946B0EE600A2AE0B7
:103B08005946DFED0E0AF8E75946DFED0D0AF4E7EE
:103B1800C431002034FD0308A81A002040420F00D9
:103B280040260020AD0100080D0300084C260020A7
:103B3800BF0B000889010008000000006F1203395C
:103B480028293038ACC5A737ACC5A7365FED030ABE
:103B58001FED030A59462846FFF724FE8046002831
:103B680069D0534BC8F80430524B43F829809AF86F
:103B78000E30002B54D0A278A36803EBC20319229D
:103B88005A70A268A178637802F8313002EBC1005C
:103B9800013302224560DBB2019222780092637001
:103BA8003A4687E7063BDBB2022B98BF42490092B0
:103BB80096BF01EB83034149D3F89C1013220023DD
:103BC8002846FFF779FD8046002834D0DFF800E169
:103BD8003B4B93FBFBF2DEE90001D317994208BF88
:103BE80090423CBF1046194608F1180BCEE9000177
:103BF80012225946D8F800002AF00CFB38B14822A6
:103C08000021584637F055F8012388F808302D4B25
:103C180001221A702C4BA5E75946DFED2C0A6CE7F8
:103C28009AF81830A278042BA36803EBC2030CBFE0
:103C38000D220922A4E702220192227863780092D9
:103C480046E72778BDF80880072F05D9032263784F
:103C580001920097424617E6BAF81420184991FBDA
:103C6800F2F29AF80410009192B2BAF81630144998
:103C78002846FFF721FD2278A8B106EB8707A1683F
:103C8800C7F8E800A07801EBC0030A275F7001F8C5
:103C980030200132D2B203215D6022700092637835
:103CA8000191424606E70321637801910092D1E72A
:103CB800190C0008A0B50020BCAD0308C0C62D0033
:103CC80040420F009CB500203D0300086F12833A64
:103CD800D823002008B5FDF7BDF848B11D22827130
:103CE8000E22C271002202722021BDE80840BDE404
:103CF80008BD10B503681A79022A044602D1987AD9
:103D0800FFF7E8FF00232371236010BD70B51E463E
:103D1800244D254B9D4219D26C798C423AD12C798D
:103D2800844201D0002835D12C7A944232D12C68B3
:103D38002C220021204636F0BCFF25602B79237108
:103D4800EA88A260012B03D0022B0BD0002407E0E5
:103D5800E87AFDF77FF860616B7A2373AB7A637357
:103D6800204670BDE87AFDF775F860616B7A2373B9
:103D7800A87AFDF76FF80546206168B10E23C37174
:103D88000023867103720921FFF770FC2069FDF793
:103D98008CF8E5E70C35BDE72046FFF7AAFF2C466F
:103DA800DEE700BFD4520408DC5304082DE9F843C9
:103DB80000231A4621210120FFF7A8FF1D4D0446C4
:103DC800C5F80C012F4638B11AF0B2FA044630B9DA
:103DD800D5F80C01FFF78DFF2046BDE8F8830022D7
:103DE8001146D5F80C01FDF76FFA3C20FDF7D8FA1B
:103DF800012007F000FB00265FFA86F84FEA8805E5
:103E0800D7F80C91EDB2A91D002201F0FE01484639
:103E1800FDF75AFAE91D0022C9B24846FDF754FADF
:103E2800013640F2DC514046FDF780FA102EE3D10E
:103E3800D2E700BFA81A00202DE9F0411A4D1B4C0B
:103E48002B7806460F463BB1D4E90023994208BFB8
:103E5800904224BF00232B70DFF85480D8F820301C
:103E680040469847C2070CD50123237280F002030D
:103E7800C3F340032B70D8E9042392197B41C4E9AA
:103E88000023430744BF012363722369F61A002EF7
:103E9800C4BF01232372237A13B9607ABDE8F08185
:103EA8000120BDE8F08100BF15760020F02A00202F
:103EB80068A300202DE9F043AE4C256815F00406F0
:103EC80087B006D001210020FCF7A0FF07B0BDE8AD
:103ED800F08304F0FBFBA84B002800F00F8145F4A9
:103EE800007525601E76A54B93F82930012B2368B1
:103EF80014BF43F4802323F480232360A04B1B7852
:103F080043B92DF0EDFE2368002800F0038143F447
:103F18000023236028F080FC40B12DF009FF2368BE
:103F2800002800F0FA8043F400032360954E2368CC
:103F380037683A0754BF43F4807323F480732360CF
:103F4800914B1B88632B23684FF008008CBF43F408
:103F5800806323F4806323602DF086FE804600286A
:103F680040F0E08013202DF07FFE002840F0DA803A
:103F780009202DF079FE002840F0D480FB0640F19E
:103F8800CF8003202DF070FE002840F0CB80232046
:103F98002DF06AFE054628F03FFC90B1B8F1000FFD
:103FA80040F0C28013202DF05FFE002840F0BC8056
:103FB80003202DF059FE002840F0B68023202DF074
:103FC80053FE724B5A789946002A00F0B280704B23
:103FD800704A93F80080B8F1000F03D16E4BDB797B
:103FE800022B07D1137A002B00F0A08087F001077D
:103FF80007F0010823685F0704D41DB1002808BF33
:104008004FF0010892F9F937002B14DDD2F85C3231
:104018000393D2F86032049303A9D2F8643205936B
:10402800012268462BF072FA68462EF053FBB9F865
:104038000E30984202D8B8F1000F7AD0236843F4C2
:1040480000632360554B1A68100776D53368D90585
:1040580073D4236843F480539207236071D533687F
:104068009B056ED4236843F40053236013F0F6FCD9
:104078002368002869D143F400432360484B18782B
:1040880068B9256825F0784323F07F03002B5FD0BB
:104098002DF0EAFD00285BD045F48045256012200C
:1040A8002DF0E2FD236800285AD043F4803317200E
:1040B80023602DF0D9FD2368002854D043F4003341
:1040C8001B2023602DF0D0FD236800284ED043F03C
:1040D800807323602368334A23F0784323F07F03F7
:1040E80003B10223137007F02BF92F4B1B68C01A7A
:1040F8000028FFF6EBAE18F087FBE7E61A7E25F4FA
:1041080000752560002A7FF4EEAE0120187611F0C4
:104118003DFAE8E623F40023FBE623F4000304E772
:10412800454638E7012536E701204AE74FF0010800
:1041380060E7236823F4006383E7236823F480534C
:104148008AE7236823F400538FE723F4004394E7B6
:1041580000202DF089FD0028A1D125F480459DE798
:1041680023F48033A3E723F40033A9E723F0807313
:10417800AFE700BFF0570020F02A0020F4570020D6
:104188006831002014770020D0030010EA55002081
:1041980061B60020CCA80020007B00208877002092
:1041A800D90100209D4C0020A04C00202B4A136808
:1041B800590770B550D52A4D2A4923F004031360D6
:1041C8002B6808701A0315D5274C22780B2A0BD8B0
:1041D8000123934040F6030119400BD113F4C06F3B
:1041E80002D0FF201AF04EFE204B1A68204B5A606E
:1041F8000B2323701F4C237B4BB31C4B1E4E1B6899
:10420800F2699B1A4FF47A72B3FBF2F3092B1ED9A9
:104218002268134423602DF07BFF336AC01A64239D
:10422800B0FBF3F0636818442B6860609B070CD5FB
:1042380013F070FD48B1114B726A1B689B1AA26893
:104248001A44A260B26A1344B36207F061F9052008
:10425800BDE8704011F09AB970BD00BFF05700205A
:1042680010770020324E0020314E002060C7002019
:104278004C4D002004D30020F02A0020187900209B
:104288002DE9F04FBC4F2DED0C8B3B689FEDBB9A91
:104298009B6AADB0CDE904010393039AB84B07EECE
:1042A800902A1A60B74AB84B12680893F8EEE77A72
:1042B80012F0040F67EE897AC3ED007A15D0B34B7C
:1042C8001B68DB0608D528F0A7FA28B1B04B1A7C82
:1042D80012B993F8203043B1AE490398D1E90023CD
:1042E800141843EBE075C1E90045AB4EAB4CF378CD
:1042F800002B00F0F484DFF8DC82254607F020F874
:104308002369CDE90601002B40F0E284069B049A5C
:104318009A1A039B1A44D8F8003064339A42EDDBAA
:10432800A3689E489847002800F081809C4BB3F80A
:104338004850002D40F00C85B4F92620B4F92030FF
:10434800984EDFF89892DFF8A0A2974F9B1A336037
:10435800B4F92820B4F922309B1A7360B4F92A20E2
:10436800B4F9243031469B1A304694F83C20B360A7
:1043780013F0DBFB304613F003FCCB4656F8253030
:1043880007EE903A99F80030B8EEE78AD4ED077A4C
:10439800012B4FEA850828EE278A04D1B0EE480A97
:1043A80034F0F4FA3860022D08D09BF800300B2B5B
:1043B80004D1B0EE480A34F0E9FA38607B4A7C4B05
:1043C80058F802001B68B0EE480A9847022DB0EE74
:1043D800408A06D09BF800300B2B02D134F0D6FA75
:1043E800B860744A744B58F802001B68B0EE480A6B
:1043F800984799F80030022BB0EE408A02D134F089
:10440800C5FA38606D4A6E4B58F802001B68B0EE6A
:10441800480A98476B4A6C4B58F802001B68984743
:104428000135032DAAEC010A07F10407A6D1674F4D
:104438000997D7F8008018F0400F32D0644E96F8EC
:10444800283073B3039B1C46DD17DDE90423A21A49
:1044580065EB030314461D46DDE9062312196B417B
:104468001046194691469A4633F062F8594BD6EDF4
:104478000F7AD3ED016A07EE100AE7EE267AD3ED3C
:10448800026AC6ED0F7AD6E91223D6ED107A19EB37
:104498000204E7EE267A4AEB0305C6E91245C6EDA3
:1044A800107A18F0020F4C4C00F08581A368204662
:1044B8009847002800F07C81484B494A3A4D1878C3
:1044C80090460023E1181228B1F90E1008BF45F8EC
:1044D800131042F813100233062BF3D1414EB6F8ED
:1044E8000090B9F1000F00F01B8518AD627D3C49C2
:1044F800284613F01AFB1A99189A81EAE173A3EB7C
:10450800E17307EE903AF8EEE77AF7EE086AC7EE3D
:10451800A65A82EAE273A3EBE27307EE103AB8EE0A
:10452800C77A199BF4EEC75AF1EE10FA40F3AD843E
:1045380083EAE370A0EBE37006EE100AB8EEC66AF1
:10454800F4EEC65AF1EE10FA40F39F840029D4BF66
:104558000121002100F3C784DFF8908018F80130AA
:10456800002B6AD1DFF888E00E483688C2680C2331
:1045780003FB01E3012E3DE04C050010BD378635F5
:1045880040300020F0570020D84400201477002045
:10459800D87A0020E84200207652002044300020DB
:1045A800BC05001000000010105900209C000010ED
:1045B80044000010FC000010380000105C010010DE
:1045C8003C000010BC01001040000010887700205B
:1045D800C85300203C050010580500100C59002055
:1045E8000C000010BC47002040050010BE4700200A
:1045F800F02A0020DF6A07EB020907691A6B406995
:10460800C3F82C903A445F6B1A633844586314D14A
:1046180008F801604FF4C87690FBF6F099FBF6F1C4
:104628005863D96292FBF6F21A63DEF874300220FE
:104638000133CEF8743011F08BF8DFF8B483D8F872
:104648007430062B40F0B0802846FDF72DFF002679
:1046580008F12C0808EB060128460C36FDF797FEF2
:10466800482EF7D111A92846FDF774FE11AEDFF8E0
:10467800D8A3B1464FF00008B9EC010A34F086F926
:1046880008EB0A0308F10208B8F1060F9880F3D185
:104698002846FDF709FFD24ADFF8ACE3DFF8ACC3E0
:1046A8000020A84614A9B7EE007ABEF90490136852
:1046B800BCF80C70A3EB09031493BEF90690536879
:1046C800A3EB09031593BEF90890936806EE107AD8
:1046D800A3EB09031693431003F10109B8EEC66A68
:1046E80008EB09190DF1A00B4FF0000A51F82A70D8
:1046F80007EE907AF8EEE76A0AF1010AC6EE867AC2
:10470800BAF1030FD9ED006AE7EEA76AE9EC016A8E
:10471800DBED006AE7EEA76AEBEC016AE6D12CAFA5
:1047280007EB031959ED0D7A77EE877A07EB8303C8
:1047380049ED0D7A53ED147A77EE877A013043ED1F
:10474800147ADDED1B7A77EE877A0628CDED1B7A91
:1047580002F10C02A9D12A461CA8FDF757FD9DEDD0
:10476800140A9FEDA08ADFF8E08234F0A3FC8DEDF7
:10477800110A9DED150A34F09DFC8DED120A9DED90
:10478800160A34F097FC00258DED130AB6EC010AE1
:1047980020EE080A34F0FAF805EB08030235062D76
:1047A8005881F3D107F0CAFA8F4A1388013B138066
:1047B8008E4B01221A70DDE904238D4DD5E91E893F
:1047C800C5E91E23099B1B689E0740F18D84874B12
:1047D8001B78002B00F08884864A9FED877AD2EDFB
:1047E800017A864B94ED0A0A67EE877AC3ED007A60
:1047F800D2ED027A67EE877AC3ED017AD2ED037AB9
:1048080067EE877A9FED7E7AC3ED027AD4ED077A58
:104818007C4B67EE877AC3ED007AD4ED087A67EEB1
:10482800877AC3ED017AD4ED097A67EE877AC3ED0A
:10483800027A34F03FFCF0EE408A94ED0B0A34F033
:1048480039FCB0EE408A94ED0C0A34F033FC6E4B20
:104858001B780E2B16D1DFED6D7A6D4B626BDA602B
:1048680068EEA78A28EE278A20EE270AFDEEE88A56
:10487800BDEEC88ABDEEC00AC3ED008A83ED018A89
:1048880083ED020ADDE90401B0EB080061EB0901E0
:1048980032F04EFE07EE900A27EE890A2CF0BBFB99
:1048A8005C4B5A799A46002A00F077845A4B5B4C45
:1048B8001B6813F0100340F01E84ADF86030ADF8AB
:1048C8006230ADF864302388ADF86630E379544A35
:1048D800544E1288544C03EB43035900534B1B6846
:1048E80013F4805F40F2DC5318BF1A46002312B25B
:1048F8001F460DF1600E581830448078012800F0EA
:104908004284C0F03984022800F044840133042B27
:10491800F1D1FFF7CFFA464B039393F82060002EAE
:1049280040F00E8595F898300BB128F0A3F995F86A
:104938002011404C002385F89830002939D13E4B8E
:104948009FED3E7AD3ED0E7A84F8C0100022002342
:1049580077EE877AC4E90223C4E90E23C4E9162353
:104968000023374AC4F8F830C4F8FC30C4F80031E2
:10497800C4F80431C4F8B430C4F8D030C4F8DC301A
:10498800C4F8B830C4F8D430C4F8E030C4F8BC3047
:10499800C4F8D830C4F8E4302364A3642366A3665B
:1049A8000123C4ED3A7AC4ED3B7A6264626685F805
:1049B800203106F0C5FC06460F462CF067FA0028A1
:1049C80040F036850023C4F8A830C4F8AC30C4F8E9
:1049D800B0301C4B84F8C0001B68C5F8243137E0A0
:1049E8001C2B002000008045BC470020C801001097
:1049F800F02A00203C05001035FA8E3C9005001086
:104A08008F2A75449C0500100C5900200000C842EC
:104A180010590020F457002014770020007B002054
:104A28006056002068FE0308F85200201077002026
:104A3800C0A30020805400202C5400206F12833A19
:104A480083F9223E60C700208A52002058050010D2
:104A5800304639461CF0B3FB1CF030F8A34BDFF8A6
:104A6800B082B3F9042002EB82025200002842F01F
:104A78009B8007EE902A9FED9E9ADFED9E9AC8F8DC
:104A8800B421F8EEE77A88F80B0087EE898A4FF0B0
:104A9800010928EE298AB0EE480AFDF7E5FD88ED00
:104AA8006E0AB0EE480AFDF741FEDFF898E288ED9D
:104AB8006F0ADEE90023B6EB020B67EB030C00215B
:104AC80044F61F60614508BF584588F8049080F097
:104AD8008980CEE90067884E94ED3A7AD6ED0E7A51
:104AE800864FB4EEE77AF1EE10FACEE902BCDFF8B1
:104AF80058B240F11F8594ED388AD4ED378AD4ED49
:104B080034AA94ED35AAC8ED61AA28EE080A88ED02
:104B180062AAA8EEA80AC8ED67AA88ED68AAC8ED37
:104B2800648A88ED658AC8ED6A8A88ED6B8A34F0F4
:104B3800C1FA022388F8083088F80930704B714AA6
:104B48001B68C8F8E431FDEEE87A47F6FF7117EE06
:104B5800903A8B42A8BF0B469342FDEEC87AB8BF85
:104B680013463B8017EE903A8B42FDEEEAAABDEE63
:104B7800CAAAA8BF0B46934288ED710A88F802902A
:104B8800CBED00AA8BED01AAB8BF134694ED3B7A92
:104B9800D6ED0E7A7B80B4EEE77AF1EE10FA40F1AA
:104BA800F28494F8F030D4ED3F1A94ED3E1AD4ED27
:104BB800390A94ED360A002B14BF02210121012085
:104BC8002DF09EFFD4ED3A7A4F4AFCEEE77A17EEC5
:104BD800903AD4ED3B7A1380FCEEE77A4B4A17EE15
:104BE800903A138006F0ACFB494E4A4A8B460021A6
:104BF8001180F1790229074604BF01201080B07A9C
:104C0800022802BF108840F002001080307A022883
:104C180002BF108840F004001080207C18B1108872
:104C280040F010001080F07A022802BF108840F08F
:104C3800200010803848026822F080040460374859
:104C4800006810F0040040F0AA84B074344B354F6B
:104C58001B78354C7BB1039BB4F906201B8B9A4219
:104C680009DC324B1B79032B41F09280304B5B7A85
:104C7800002B01F09080284BDFF8D0B01A6812F0B2
:104C8800100F984641F0C1802A493378242000FB50
:104C98000313DB89D90501F1AF87274B5E79002E15
:104CA80001F0AD80254909688A0701F0A88036B26D
:104CB8002CF0BEF8DFED227AB4EEE70AF1EE10FA36
:104CC800B7EE007A41F16B80B0EE670A01F06EB87A
:104CD8002846984700283FF419ABFFF721BBDDE9C8
:104CE8000423CDE90623FFF71BBB00BF50050010C6
:104CF8000000C84235FA8E3C2C54002028B700200A
:104D080060C700205A80FFFFE64D0020E84D0020D4
:104D1800CCA80020E44D002014770020F057002094
:104D2800D9010020F8520020D84800202649002048
:104D3800B631002060F80308C0480020385300202E
:104D48009A99193F182C00201CB700200000001069
:104D580096F801B0D14E9FEDD28A1D4606F1060A9B
:104D68001C4698464FF00009B8F8482036F9021F4B
:104D7800B2F57A7F04BFC5F80090C4F81C902B6880
:104D88000B442B60E36907EE901A0133012BF8EE10
:104D9800E77AE36132D1C4ED047AC4ED037A84ED95
:104DA800058A012AA6F806904DD1E369012BC1BFF7
:104DB80003F1FF3307EE903A94ED067AF8EEE77ABE
:104DC800D4BFB0EE480A87EE270A34F073F9BBF176
:104DD800000F30D007EE90BAF8EEE77AF4EEC07A1A
:104DE800F1EE10FA27D54FF47A73A8F84830AD4B96
:104DF80000225A609A60DA60FFF719BBD4ED035AB3
:104E080007EE103A37EEE56AF8EEC76A86EE267ABC
:104E1800D4ED056A37EE257A77EEC77A84ED047A01
:104E2800E6EE276A84ED037AF0EE667AC4ED066A48
:104E3800C4ED056AB5E72B684FF47A7203F5FA7387
:104E480093FBF2F3F380B24505F1040504F1140471
:104E58008AD1B8F84800012813D19349B1F928300C
:104E6800B1F92620B1F92A1000919049FDF7C7FD44
:104E78003B6800200021C3E90C01C3E91001C3E924
:104E88000E01B8F84830013BAFE7C7EE265A83EA6F
:104E9800E371A1EBE37106EE101AB8EEC66AF4EE00
:104EA800C65AF1EE10FA0ADDF4EEE57AF1EE10FAE0
:104EB80005D5002ACCBF02210321FFF74DBBC6EE62
:104EC800265AB4EEE57AF1EE10FA7FF571ACF4EEFD
:104ED800E57AF1EE10FA7FF56BAC002BD4BF052113
:104EE8000421FFF739BB3388B3F5C87F7FF434ABAF
:104EF80000226F48DFF8E0E1134602F80E30013275
:104F0800062A03604360836000F10C00F5D1694A0A
:104F18005367694A136823F400731360FFF71CBBD7
:104F2800664B674DDA68B5F90410664E511AB5F943
:104F38000A204FF480504A43196992FBF0F2DA6074
:104F4800B5F906208A1AB5F90C1051435A6991FB34
:104F5800F0F11961B5F90810511AB5F90E204A4354
:104F6800414692FBF0F240465A61627D12F0DDFD47
:104F7800404612F005FEA38907EE903AF8EEE77A6C
:104F880032464B4658F8231007EE101AB8EEC77A87
:104F98000133C7EE276A032BE2EC016AF2D194EDE4
:104FA800077ADFED497AB0EEC77AB4EEE77AF1EE28
:104FB80010FA11DC94ED087AB0EEC77AB4EEE77A0D
:104FC800F1EE10FA08DC94ED097AB0EEC77AB4EE87
:104FD800E77AF1EE10FA02DD636B013363633B4A53
:104FE8003B4B3C48314692ED026AD2ED016AF1EC46
:104FF800017A92ED007A76EE266A8842C6EE265A43
:1050080077EEC76A93ED026AA5EEA67AD3ED016A38
:1050180076EE266A17EE107AC6EE265A42F80C7B10
:1050280037EEC77AD3ED007AF0EE676AD7EE076AF3
:10503800E5EEA67A17EE907AC1ED027A43F80C7B7A
:10504800D1D16B88B3B92B7C002B3FF4B1ABDFF81F
:105058008C90DFF88C80002596ED000A59F8250021
:10506800D8F8003098470135032DA6EC010AF3D192
:10507800FFF79EBBDFF86CA0B1464FF0000899ED32
:10508800000A0AEB0800FBF740FA08F11C08B8F11F
:10509800540FA9EC010AF2D1D5E700BF6230002015
:1050A800000000003C05001044300020AA1104084C
:1050B8001C2B0020F02A002014770020000000108C
:1050C8008A52002074050010CDCCFC40D803001093
:1050D800FC03001080050010BE470020CC0400101F
:1050E8007404001020040010C14B0022DA611A6217
:1050F8005A62FFF7D5BBBF4B1E68B4F90830B6F942
:10510800500000EE103AB8EEC00A10F063FEB4F991
:105118000A30ADF8600000EE103AB6F95200B8EE69
:10512800C00A10F057FEB44BADF862001B681B7B39
:1051380007EE903AB4F90C30F8EEE77A06EE903ABA
:10514800B2EE047A67EE877AF8EEE66A9FEDAB7AFC
:1051580076EEA76A77EEA77A66EE876A86EEA77A72
:10516800DFEDA77A77EE677AF1EE677AFDEEE77AF8
:1051780017EE903AFFF7A5BB0AEB4300408D24F8E1
:105188001300FFF7C3BB032B14BF24F81370E2808E
:10519800FFF7BCBB3EF81300F1E79A4B964E1A682E
:1051A800994FDFF88492B7F90000984C9846336815
:1051B80012F4807F14BF597B197A99F8002003F004
:1051C8004EFAD8F80030208013F4807F336899F8BD
:1051D800002014BF597B197AB7F9020003F03FFA8F
:1051E800D8F80030608013F4807F336899F8012084
:1051F80014BF997B597AB7F9040003F030FAD8F84C
:105208000010404202B2C805A28016D53068268830
:10521800C37BB4F802E013FB06F3642693FBF6F3B2
:105228002380037C407C13FB0EF310FB02F093FBFE
:10523800F6F390FBF6F06380A080754BB7F9062073
:10524800188B824257DBB2F5FA6FA8BF4FF4FA62A7
:10525800131A4FF47A72C0F5FA605A43B2FBF0F2AF
:1052680090B2B0F57A7F48D36A4B5B889AF80420ED
:105278001BB2E380002A57D049067FF54AAB664B3C
:10528800DFED667AB3F904300A2293FBF2F3B5F83E
:1052980096209B1A1BB208EE103AB8EEC88A28EE80
:1052A800278AB0EE480AFDF741FAF0EE408AB0EEE0
:1052B800480AFDF7D9F9B4F9023007EE103AB4F903
:1052C8000030B8EEC77A06EE903A67EE407AF8EE0C
:1052D800E66AE8EEA67A20EE260AFDEEE77AA8EE60
:1052E800870A17EE903AFDEEC07A238017EE903ABF
:1052F8006380FFF70EBB0246AAE76427B0FBF7F00E
:1053080005EB4003B3F980606FF06303434305EB9B
:10531800400013FA82F2B0F982309B1B534393FB8F
:10532800F7F333449BB2A1E72288AAF82A206288BF
:10533800AAF82C20A288AAF82E20AAF830309BE7D9
:1053480095F89830E3B995F89930002B3FF4EAAA1C
:10535800334E2E4F0024A6F170084FF01C0909FBAC
:105368000480B6EC010AFBF7D0F8FDEEC07A17EE20
:10537800903A27F814300134042CF0D1FFF7D2BA50
:1053880095F899405CB107EE906A95ED277AF8EEAA
:10539800E77AF4EE477AF1EE10FA19D00024DFF834
:1053A8008C80204FB6B23819D8F8002031461C340A
:1053B800FDF78CFA702CF6D1039B93F8203007EE9A
:1053C800903AF8EE677A0123C5ED277A85F8993087
:1053D800134A0E49002331F9130007EE900A0133EE
:1053E800F8EEE77A042BE2EC017AF4D1ABE700BFE0
:1053F80058050010B07A0020147B002000007A4481
:105408000000FA4338530020D8480020F852002002
:10541800C0A30020605600205005001035FA8E3CCD
:10542800002C0020902B0020487B00203C05001019
:10543800C34B94ED2D6AD3ED006A93ED017AD3ED59
:10544800027A76EEC66A18A9CDED186AD4ED2E6AEE
:1054580037EE667A08468DED197A94ED2F7A77EE55
:10546800C77ACDED1A7A2AF08BF9189BDDED197AF7
:10547800C4F8A830B34BF1EE677A1B68CDED197A02
:10548800C4ED2B7ADDED1A7A5A07C4ED2C7A24D4B0
:1054980094F8C03023BBAC4B9FEDAC6AD3ED006AE7
:1054A80037EEE67AE7EE066AB0EEC77AC3ED006A31
:1054B800A74BDB7806EE903AF8EEE66AA54BB4EE19
:1054C800E67AF1EE10FA1B6829D5D5F824219B1A43
:1054D800FA2B27D9012384F8C03094F8C0300BB3D5
:1054E800994B93ED007A77EEC77AC4ED2C7AD4ED18
:1054F8002A7A994BFDEEE77A17EE902AD4ED2B7AAB
:105508001A80FDEEE77A17EE902AD4ED2C7A5A80AD
:10551800FDEEE77A17EE902A9A80FFF799BAC5F858
:105528002431DAE70023C4F8A830C4F8AC30C4F852
:10553800B030DCE794ED347AD4ED357A88ED617AD1
:105548000023C8ED627A88ED677AC8ED687ABDEE07
:10555800C77AFDEEE77AC8F89031C8F89431C8F8F0
:10556800A831C8F8AC31C8F8C431002388F808302D
:1055780088F8093088F802308BED007ACBED017A93
:105588003B80FFF703BBDFED751A94ED3E1A94EDEF
:10559800360A0021F0EE610A0846FFF711BB002029
:1055A8006F4C7071B071307804944FF0240E0EFB7C
:1055B800004012F01002B0F80E9033D03A465B4625
:1055C800484626F0AFFB73790BB10023B370B3796B
:1055D8000BB10023F370337B23B1624A138843F085
:1055E80040031380737B23B15E4A138843F0800322
:1055F8001380B37B23B15B4A138843F48073138011
:1056080096ED720A584C33F0C1F996ED730A206092
:1056180033F0BCF996ED740A606033F0B7F9A06016
:10562800FFF714BB19F0080F504C4FD05048D5F86D
:105638003831C0F804B0C5F8387122806280A28081
:1056480000293FD04B49FA1A8A4206DDC5F8407155
:10565800C0F80CB01CF0ACFBB5E7F278DFF82C8191
:10566800EAB1D5F84021444BC5F84071A7EB0209CF
:105678009945C0F80CB022DCB8F81E3000EE103A9C
:10568800B8EEC00A0120B1EE400A2CF061FE48468F
:105698001CF02CFC48461CF0CDFB0123B371B6F975
:1056A80014283649B8F92C3013440A88498893429B
:1056B80003DB99420A46A8BF1A46E28083E71CF03A
:1056C80077FBEAE72E4B1B88E3807CE719F0010F94
:1056D80010D0D5F8482127482A49C5F84871BA1A80
:1056E8008242C1F804B057DDC5F85071C1F80CB05A
:1056F8001CF05EFB19F0020F16D02349D5F858218B
:10570800C1F804B02149C5F858718878BA1A002838
:105718006FD1347B1748824276DD1D4AC5F8607127
:10572800C2F804B01CF01CFB19F0040F3FF44BAF97
:105738006422D6F8E03193FBF2F3164A138042E76D
:105748009C050010F0570020580000200AD7233B82
:105758002C54002060C70020EA4D00200000000003
:1057680060F80308E44D0020F04D0020F8520020B6
:10577800282C0020400D03003F0D03006056002038
:10578800007B0020382C0020482C0020EA550020FF
:10579800502C00205C060010F2789AB1D5F8502100
:1057A800C1F80CB01449C5F85071BA1A8A421DDC08
:1057B800104606921CF09AFB069A10461CF03AFB1B
:1057C8000122B2710D4A0E48B2F92C10B6F914280C
:1057D800114402884088914203DB88420246A8BFF0
:1057E8000A46084912B2E2800A8083E71CF0E0FA10
:1057F800E6E700248EE700BF3F0D0300EA550020CE
:105808006056002018B70020327A0691002A00F06E
:10581800BA82B278002A00F04782EA48D5F86021B7
:10582800C0F804B0C5F86071002C40F03B82BB1A88
:105838000AEE103AE44B1AEE102A9A4200F3A082BC
:105848002CF032FD96ED728A90ED000AD6ED738A3F
:10585800337B069938EE408A96ED050A28EE008AD1
:1058680090ED010A78EEC08A96ED070A68EE808A04
:10587800002B00F036828B8A0AEE903A28EEA80AAE
:10588800F8EE6AAAA8EE080A33F014FCB4EEEA0AA5
:10589800F1EE10FAF0EE40BA09DDC8EE007AF0EE4B
:1058A8006ABA27EEAA8AC8EE807A67EEAA8A33789F
:1058B800049986ED068A242202FB031BC6ED088A9A
:1058C800BBF80E3013F4806FB7EE00BA00F03C82DC
:1058D800D6F8B431D6F8E001C01AFCF70EFE42F251
:1058E80028339842A8BF1846B84B9842B8BF184604
:1058F80007EE900AF8EEE77A87EE890A20EE290A81
:10590800FCF714FF9FEDB27A60EE007AF4EEC77AE6
:10591800F1EE10FA00F11B82F4EE4B7AF1EE10FA78
:10592800C8BFF0EE4B7A8BEEAA7ADFEDAA6AB4EE26
:10593800E67AF1EE10FA00F10D82B4EE4B7AF1EE50
:1059480010FAF7EE006AC8BFB0EE667AB0EE4B6A9E
:10595800A7EE476A47F6FF7B9F4FD8ED606AA6EE31
:10596800C6BA28EE278A68EEA78A28EE0B0A68EEE0
:105978008B8A88ED750AC8ED768A33F007F8974B5D
:1059880098ED760A04935845A8BF58469842B8BF80
:105998001846388032F0FAFF049BD8ED758A5845CE
:1059A800A8BF58469842B8BF184678802CF07CFCAF
:1059B80098ED768A90ED047AD0ED036A38EE478A3E
:1059C80078EEE68A28EE080AA8EEA80A33F072FBF9
:1059D800DFED837A834BB4EEE70AF1EE10FACCBF21
:1059E8009FED817A9FED817A1A68C1BFC7EE007A70
:1059F800F0EEE86AB0EEC87A66EEA76AC8BF27EE8E
:105A0800277AB8EECAAADFED7A7A2AEE27AADFED5E
:105A1800797AD8BFF0EE476A6AEE277AD704764AD1
:105A280048BF77EEA77AD2ED008A38EEE7BAB1EE32
:105A3800666AB4EEC6BAF1EE10FA934600F18D81AB
:105A4800B4EE66BAF1EE10FAC8BFB0EE66BA78EEF8
:105A5800A78AB4EEE86AF1EE10FA00F38181F4EE59
:105A6800686AF1EE10FA48BFF0EE668A634F97ED68
:105A7800008A78EE67AAF1EE476AF4EEE6AAF1EE3C
:105A880010FA00F17081F4EE47AAF1EE10FAC8BFDF
:105A9800F0EE47AA37EE888AF4EEC86AF1EE10FAFB
:105AA80000F36481B4EE487AF1EE10FA48BFB0EE24
:105AB800478A04932CF0F8FBD8ED75BAD0ED030AA9
:105AC8004F48B0EE682AF0EE4B1A0021B0EE4A1AA1
