:020000040800F2
:100000000000011095BE02086FAF010851AB020855
:1000100051BF020851BF020851BF02080000000092
:100020000000000000000000000000006DAF0108AB
:100030006BAF01080000000069AF0108750D0008F2
:1000400051BF020851BF020851BF020851BF020848
:1000500051BF020851BF02083B10000843100008BE
:1000600051BF0208411000083F100008B9160208ED
:10007000A9160208991602088516020871160208C8
:100080005D1602084916020851BF020851BF020856
:1000900051BF020851BF020851BF02083D100008BD
:1000A000F5170208CD170208A51702081D18020847
:1000B000911702087D1702086917020851BF02084C
:1000C00051BF020851BF020851BF020851BF0208C8
:1000D00051BF0208C596010851BF0208B996010830
:1000E0003910000851BF0208EDAF010819170208C6
:1000F000F1160208C916020841170208351602084F
:1001000051BF020851BF02085517020851BF02082B
:10011000AD96010851BF020851BF020851BF020845
:10012000211602080D160208F9150208E515020845
:10013000D115020851BF020851BF020851BF020881
:1001400051BF020851BF020851BF0208DDA90108D2
:10015000BD150208A915020895150208A196010807
:1001600051BF020851BF020851BF020851BF020827
:1001700051BF020851BF020851BF020851BF020817
:0801800051BF020851BF020843
:10018800436A8269D154436A02690133934228BFA2
:100198000023426B4362D36843F08003D360704707
:1001A8000346026A4169885CD96801328A4228BFDD
:1001B8000022C0B21A627047826A406A131A584213
:1001C80058417047426A836A00699A4238BF1218D8
:1001D800D31A0138C01A7047C269036A9A422FBFFE
:1001E800D01AC0688018C01A704783681A68937A52
:1001F8000133DBB20A2B937205D9507802490023E8
:1002080021F81030937270471A36002070B54F4CA1
:10021800237814200133B3FBF0F200FB1233237070
:100228004B4B5D68186D9A68A94208440CD293F844
:100238005850002D00F0858000F58030824238D378
:10024800C2F5803202440AE08242F9D293F858504B
:10025800002D0CBF00254FF48035821A521B5960BF
:100268006178DA600022013183F8582014229860FE
:1002780091FBF2F002FB10116170A178D86801318E
:1002880091FBF2F502FB1512A27040F68C22904207
:100298003CD9197893F9552091422BD10A1F0C2A81
:1002A80028D893F85620182A06D8013283F8562001
:1002B80004E04FF48035D0E783F8541093F95420C4
:1002C80091420FD193F8570060B1224C224D002083
:1002D800904211DB204800240F2A13DD1F480278C2
:1002E80001320270012283F8572083F8551000224A
:1002F8001A7070BD0022D9E754F8046F25F8106011
:100308000130E5E720F812400132E5E793F857207D
:10031800DAB1A0F2EF2140F2DA52914207D81A7806
:100328000F2A04D8111D013243F82100E0E700220A
:1003380083F85720104699180432402A0861FAD1E8
:1003480070BD8242BFF47CAF87E770BD48140020BF
:10035800282B0020342B00201A360020F8350020E6
:1003680010B50B48037814240133B3FBF4F204FBF3
:100378001233084A0370136D01330B4413654FF6AB
:10038800FF73994204BF012382F8583010BD00BFA3
:1003980048140020282B00200120704701207047B6
:1003A80070B5114C05460E4600220023D4E902011F
:1003B8002BF0D0F920B10AA3D3E90023C4E9022322
:1003C80030462AF0F9FED4E902232BF085F82BF009
:1003D800F3F904EB4504208270BD00BFAFF3008041
:1003E800ABAAAAAAAA461040481400200E4B98426D
:1003F8000AD0A3F57843984212D003F58063984257
:1004080010D04FF0FF3070470023084A142101FB39
:1004180003231A8A013292B21A82188A80B270476C
:100428000123F2E70223F0E700300140F40D002039
:1004380008B540F2E9330289920708D589B281816B
:1004480040F2E9330289D20709D5808905E0013BEA
:100458009BB2002BEFD1FFF7C9FFC0B208BD013B2B
:100468009BB2002BEED1F6E7A0F13003DAB2092AED
:1004780001D818467047A0F16103052B01D85738F9
:100488007047A0F14103052B94BF37384FF0FF3078
:100498007047F0B50124B0FBF4F58D4203D2002774
:1004A8001CB91C70F0BD4C43F5E7B0FBF4F604FB37
:1004B8001600B4FBF1F41FB9002E01DC002CEFD1BB
:1004C800092E03F1010E08DD002A14BF3725572530
:1004D80035441D7001377346E2E73025F8E70368B5
:1004E8005A1C02601970704703685A1C0260197020
:1004F80070472DE9F84F002B14BF4FF030094FF02B
:1005080020090A9B141E07468846BABF64424FF06A
:10051800010B4FF0000B13F8012B02B1DCB9BBF152
:10052800000F1ED1254615F1FF3516D223462C465D
:100538000A9D5E1B05EB060A15F8011B99B9BBF16C
:10054800000F05D02546002D10DC002CA8BFA244C2
:100558005046BDE8F88F013CDDE749463846C047BC
:10056800E1E70023E4E73846C047E3E74946384671
:10057800C047013DE7E7D0ED006AD0ED057AE6EE29
:10058800807AB0EE407AB0EE670AD0ED037AD0ED0B
:10059800016A67EEC07AE7EE267AD0ED066A77EE52
:1005A800A67AD0ED026AC0ED057AD0ED047A67EE3E
:1005B800C07AE7EE267AC0ED067A70477047432383
:1005C8000B800148704700BF0000002010B5064CA2
:1005D800606CFF2806D005490A6B343119F087FC96
:1005E800FF236364002010BD000000204814002091
:1005F80008B5D0F8E4355B6A9847002008BD08B50F
:10060800D0F8E4351B6A9847002008BDD0F8E435D7
:1006180010B504461B689847D4F8E8359B68984796
:10062800002010BD08B5D0F8E435DB6903B1984760
:10063800002008BD08B590F8123180F81331042362
:1006480080F81231D0F8E835DB689847002008BDFB
:1006580010B5D0F8E83504461B699847032384F899
:100668001231002010BD70B54B784C69012B27D191
:1006780082691568136914B964F3060305E08E6886
:10068800B442F9D94E6166F3060343F400231361BB
:10069800C478012C05D10B780E6900EB83039B69A4
:1006A8005E6145F00445156044B94B6933B1026990
:1006B8000978506B01238B4003435363002070BDBE
:1006C8000B788E6800EB83035A6D156813696CB953
:1006D80066F3060343F400231361C378012B04BFB8
:1006E8000B69536145F004451560E7E74E61EFE794
:1006F8002DE9F0414A780C784B69012A51D100EB79
:10070800840EDEF818703D683E6963F312061BBB61
:1007180062F3DC463E61C278012A2CD10C697C6107
:10072800CC78012C07D100698068C00554BF45F01A
:10073800005545F0805545F00445012C3D6008D131
:100748003AB99BB20333C968DEF8D0009B109342D4
:1007580022D10020BDE8F081D1F808C003EB0C02DB
:10076800013AB2FBFCF262F3DC46CA78012A08BF00
:1007780062F35E76CEE7CE78012ED1D0002BCFD0B3
:10078800D0F810C00126DCF8348006FA04F444EAF4
:100798000804CCF83440C3E751F822400460013221
:1007A800D5E700EB84048A68646D25682669ABB9CF
:1007B80062F31206012363F3DC462661C378012B3A
:1007C80004BF0B696361CB78012B03D14B79A3B1CB
:1007D80045F0005545F004452560BAE71344013B50
:1007E800B3FBF2F363F3DC46C3F30903534363F348
:1007F8001206C3F312034B61DFE745F08055E9E7C2
:1008080070B501F07F05282404FB050104FB0504ED
:100818000126C4F82821C4F82C21002201F58E7184
:1008280084F81D6184F81C51C4F83421C4F83031AF
:100838001DB9FFF718FF002070BDFFF759FFFAE751
:100848001F4BDA6B0F2A70B502F101011E4602D068
:10085800D963002070BD1B4C0023F3632378002B61
:10086800F7D1194D2A68B2F5006F08BF2B60174BF6
:1008780029681B68994202D100232370E9E78CBFDD
:10088800C1F500635B1A3364336C402B8AB20CD910
:10089800403B4031336401232370296040230C49D5
:1008A8000A448121FFF7ACFFD3E7194429604FF0D0
:1008B800000131640EBF022101219BB22170EEE7D5
:1008C80048140020B44B00209C4B0020A04B002073
:1008D800B54B002070B5174D2B78012B2C4603D152
:1008E800154E336C5BB92B702378022B16D100237D
:1008F8001A468121FFF784FF002323700EE00F4979
:100908000C68402BA2B20BD9403B403433640C60D6
:1009180040230B490A448121FFF772FF002070BD74
:100928001C440C604FF0000131640ABF02219BB2E5
:100938002970EEE7B44B0020481400209C4B00209F
:10094800B54B002010B504461346C4F83C21C4F842
:100958003821022280F811210A460021FFF750FFB2
:10096800002010BD70B501F07F04282606FB0405A1
:1009780006FB0401C5F88833002385F87443C5F8DD
:100988008023C5F88C3385F87533C37806FB0404D7
:10099800012B08BFC5F8842394F8743301F55D7101
:1009A8001BB9FFF760FE002070BDFFF7A1FEFAE754
:1009B80038B5282303FB0101074DB1F88C13044611
:1009C800284619F05FFA40232A4601212046FFF7FE
:1009D800C9FF002038BD00BF8C14002030B54A780C
:1009E8000B780025012A2C4610D100EB830102FA6E
:1009F80003F3896963F30F0402696FF3CF350D6060
:100A0800D36923EA0403D361002030BD00EB8302DD
:100A1800516D012202FA03F363F31F44ECE770B54A
:100A280004460125002680F8445180F8455100F518
:100A3800A271FFF7D3FF04F5677184F89C5384F81B
:100A48009D632046FFF7CAFF022384F86C3104F542
:100A5800B67184F86D512046FFF7C0FF19F088FA87
:100A6800304670BD30B54C780B78012C4FF0000241
:100A78001DD100EB830504FA03F3AD6963F30F029C
:100A88002B681C040DD48C6864F30A03CC78C988DD
:100A980064F3934361F3995343F0805343F4004361
:100AA8002B600369D9690A43DA61002030BD00EB85
:100AB8008304656D012404FA03F363F31F42DFE73F
:100AC8002DE9F04104460125022700264FF0400891
:100AD80080F8445180F84551C0F84C8180F847713E
:100AE800A0F84A5180F8486100F5A271FFF7BAFFF3
:100AF80004F5677184F89C5384F89D63C4F8A48353
:100B080084F89F7384F8A0632046FFF7ABFF08239F
:100B1800C4F87431032304F5B67184F86F3184F88E
:100B28006C7184F86D51A4F872712046FFF79AFF32
:100B3800064B1F715E7119F021FA4346044A294693
:100B48002046FFF70FFF3046BDE8F0811C0B002060
:100B58008C140020F8B5044600254027012680F8AB
:100B6800745380F87553C0F87C7380F8775300F598
:100B78005D71FFF777FF04F58E7184F81C5184F8D6
:100B88001D61C4F8247184F81F51A4F8225120462D
:100B9800FFF768FFD4F8E83584F81261A0785B683D
:100BA80098472846F8BD0E4BDA68D20310D4DA68A5
:100BB800D1060FD4DA68D2050ED4DA6812F0E00F45
:100BC8000CD1DB6813F0020F14BF0820092070470E
:100BD80001207047062070470220704707207047A1
:100BE800003C024007B509238DF80730FFF7DBFF0B
:100BF8008DF807009DF80730012BF7D09DF8070006
:100C080003B05DF804FB38B582681468A27803461F
:100C18003AB90123A370A1801146BDE8384028F0F5
:100C28006DB9A08889B2814238BF5A68E1803DBF5A
:100C38001268D26A121A091A38BF89182181064A1D
:100C48006178208922F811000025A5700121184635
:100C580028F054F9A57238BD1A360020094B07EE62
:100C6800901A53F82030B8EEE77A93ED040AD3EDE2
:100C7800057A10B5A7EE270ADC682BF0E9FC20609E
:100C880010BD00BF686600202DE9F0410B4DDFF86C
:100C980030802C686A69012714400CB9BDE8F081DE
:100CA800B4FA84F3C3F11F0307FA03F658F82300D4
:100CB8000368984724EA06046E61EEE7003C0140A9
:100CC800F042002070B50A7812F0600406460D461E
:100CD8002AD0202C2FD1CC884B78FCB112060CD509
:100CE80022461E49184619F002F9EA881B4930467F
:100CF800FFF728FE0024204670BD194AC0F8944327
:100D08005364184AC0F890430323146380F81131E0
:100D1800343223460021FFF725FEEBE70222114477
:100D2800184619F0E4F8E6E74B780A2B07D00B2BA6
:100D38000AD0062BDFD127F09DFD0224DBE7012234
:100D48000949FFF7FFFDD6E78B781BB9054AC2F8BA
:100D58008430CFE727F08EFDCDE700BF7C1400205C
:100D68000000002048140020CC140020EFF3118369
:100D7800102282F3128808490A6801320A60074A79
:100D88000749906808600749002008601268DBB2CC
:100D980083F31188704700BFB853002010E000E0CB
:100DA800A41E0020A01E002003689B6A03B11847F8
:100DB800704703685B6A03B11847704703689B690B
:100DC800184703685B69184703681B691847036875
:100DD800DB68184703689B68184703685B6818470F
:100DE80003681B6818470368DB692DE9F04105466D
:100DF8000E4617468BB90C463B1B3344002B01DCCF
:100E0800BDE8F0812846FFF7E5FF0028FAD014F87E
:100E1800011B2846FFF7E4FFEEE7BDE8F04118475D
:100E2800E1E7014B1868DBE7548F002038B5054629
:100E38000C4614F8011B01B938BD2846FFF7D0FF4E
:100E4800F7E70C4B1B681B0110B407D50A4B1B684E
:100E58005B050BD55DF8044BFFF7A2BA074B53F8B7
:100E680020301BB107289CBFDB6819605DF8044B74
:100E7800704700BFB8620020BC530020642C0020DB
:100E8800F0B5094E34683F2C0DDC0FC8074F4FEA08
:100E9800041E0EEB070585E80F00054B1B684EF88E
:100EA800073001343460F0BDFC2A0020FC26002005
:100EB800B85300201FB5ADF80A30BDF81830ADF8AA
:100EC800040041F48041ADF80C306846BDF81C3090
:100ED800ADF80610ADF80820ADF80E30FFF7D0FFDA
:100EE80005B05DF804FB064B53F820303BB19A88F7
:100EF8001B6859690A4201D05A8370471A837047A0
:100F080010F2020810B50409013C032C00F00F028E
:100F180015D80C4B33F8141041FA02F313F0010002
:100F28000ED001209040013808402AF02BFE064BD5
:100F38001B5D1844054B0C2202FB003010BD00203D
:100F480010BD00BF08F2020864E80208B0240020BF
:100F580010B1036882885A83704710B10368828889
:100F68001A837047F8B5164690F90C20142353439A
:100F7800104AD55883689A0704460F4606D4006974
:100F8800FFF7E6FF0120002105F040FB394628461F
:100F9800FFF74EFA31462846FFF74AFAA3689B073F
:100FA80006D40120002105F031FB2069FFF7D5FFA9
:100FB8000120F8BDF40D002028B10368828809B12A
:100FC8001A8370475A837047044B01461868044BCC
:100FD8001B780BB981F00101EEE700BF482D002016
:100FE8004C2D0020024B81F0010153F82000E3E76B
:100FF80010F2020830B1036882881B691A4214BFD4
:1010080001200020704728B18088B0FA80F0C0F134
:101018001F0070474FF0FF30704730B1006800F193
:101028003F4000F57E00800A70474FF0FF30704760
:101038002AE629E628E627E626E625E603689B6AE7
:1010480018472DE9F3410446184616460D461F4633
:1010580029F058FF2368E67228440022A072009203
:10106800D3F8148032463B4629462046C04702B092
:10107800BDE8F081036810B504465B6898472368AB
:1010880020469B689847A37B013BA37310BD036868
:1010980010B504461B689847236820469B68984704
:1010A800A37B0133A37310BD036810B59B68044686
:1010B800984701232373FF23637310BDF8B5848910
:1010C8004FF6FF764FF47A740BB90120F8BD92B150
:1010D800157801320789BF070FD5ADB285814FF466
:1010E8007A740589ED0712D58589ADB209B10D70FD
:1010F8000131013BE8E7FF25ECE7013CA4B2B4422B
:10110800E8D1FFF773F9003018BF0120F8BD013CA2
:10111800A4B2B442E5D1F4E770B5164690F90C20B4
:10112800142353430C4AD55883689A07044602D4BB
:101138000069FFF70DFF2846FFF77AF9012300221F
:1011480031462846FFF7BAFFA3689B0702D42069F7
:10115800FFF703FF012070BDF40D0020F8B5164617
:1011680090F90C201F46142353430D4AD558836821
:101178009A07044602D40069FFF7EAFE2846FFF7FB
:1011880057F93B46002231462846FFF797FFA368E8
:101198009B0702D42069FFF7E0FE0120F8BD00BFDD
:1011A800F40D0020F8B5164690F90C201F461423BC
:1011B80053430D4AD55883689A07044602D40069F8
:1011C800FFF7C6FE2846FFF733F93B4632460021B3
:1011D8002846FFF773FFA3689B0702D42069FFF72F
:1011E800BCFE0120F8BD00BFF40D0020F8B51F4675
:1011F80090F90C300446142058430C4B1D58A36832
:1012080016469A0703D42069FFF7A2FE00BF3B46A3
:1012180032462846FFF752FFA3689B0703D400BF56
:101228002069FFF79AFE0120F8BD00BFF40D0020E9
:1012380030B40579022D06D18368DB0758BF41F029
:10124800800130BC68E7002030BC704770B4067974
:10125800022E06D18468E40758BF41F0800170BCB3
:101268007CE7002070BC704730B40579022D06D1A8
:101278008368DB0758BF01F07F0130BC72E60020AD
:1012880030BC70470A4B70B50E46D3F88850811CA5
:1012980089000446F2B201F0FC012846FFF7E4FF9A
:1012A800A1000931320A2846C9B2BDE87040DBE71F
:1012B800481400202DE9F0410E4E8046002406F126
:1012C8007C07E0B200F0030343450ED136F8145012
:1012D80037F81430EB1A002BB8BF5B42052B04DD3E
:1012E8002946FFF7CFFF27F814500134102CE8D116
:1012F800BDE8F0815814002038B50F4D10220021A8
:1013080041F2D774B4FBF0F4D5F88800FFF7ACFFCE
:10131800012005F08CF9621ED2B2FE21D5F88800B2
:10132800FFF7A2FF012005F082F9D5F88800802296
:101338000021BDE8384097E74814002070B40679CA
:10134800022E06D18468E40758BF41F0800170BCC2
:1013580028E7002070BC704773B50279022A22D1B1
:1013680003238DF8033090F90C001F4C8DF80220F0
:1013780004238DF804301423434302A80844E35897
:101388001A49002601258DF800608DF801508B421E
:1013980010F8080C09D0A1F578418B421FD001F54F
:1013A80080618B421DD002B070BD31461A8822F090
:1013B80040021204120C14251A8005FB01411A88F8
:1013C800C96822F0380231F810101204120C0A43CE
:1013D8001A801A8892B242F040021A80E3E729463E
:1013E800E4E71146E2E700BFF40D002000300140B9
:1013F80010B5427A044632B1036800F10A01406828
:1014080098470023637210BD10B50023054A19469A
:1014180052F82340844208BF42F823100133042BBA
:10142800F6D110BDE03A0020124B53F8200070B5F9
:10143800F8B1114A062303FB002393F90140621C0B
:1014480016D01879A8B10D4A0D4E155DDA786421C9
:101458001423002061438C18013B36F814402A44B9
:1014680010FA84F0F7D11423B0FBF3F080B270BD0A
:10147800002070BDE03A0020512D0020643000208B
:10148800702D002038B503200D461446FFF7CCFF19
:1014980007EE900AB8EE677ADFED0A7A27EE277A28
:1014A8005DB1F8EE047AF0EE006AE7EE267A9FED79
:1014B800067A67EE877AC5ED007A0CB1034B236094
:1014C80038BD00BF6740533A00007A443313904355
:1014D80030B5094B0949C0B28B4200D330BD5A8898
:1014E800140406D55D68DC68C2F30B0200FB0252E7
:1014F80022601433F0E700BF80650308046903081D
:1015080070B5448806460D46C4F30B0400212246F4
:1015180028462DF022F93169084B994208D3084B27
:10152800994205D222462846BDE870402AF096BE68
:1015380019B12846BDE87040084770BD0469030822
:10154800826B03084388426813F4004F1EBFC9B278
:10155800C3F30B0301FB03221146D1E7064B0749EE
:101568008B4202D30023184670471A88C2F30B0235
:101578009042F8D01433F3E7806503080469030840
:10158800024A136823EA000010607047003C0020FC
:10159800024A136818431060704700BF003C0020DF
:1015A800F8B50468C4F30D0405460E4604B32F6865
:1015B800FFF718FB092840F08880454C236923F47D
:1015C80040732361236943F400732361236943F063
:1015D800010323613E60FFF705FB2369092823F017
:1015E8000103236171D12B6804332B600020F8BDFF
:1015F800384B394A93422BD902F58042934226D977
:1016080002F5804293422AD902F58042934228D9B2
:1016180002F58032934226D902F50032934224D94A
:1016280002F50032934222D902F50032934220D9C2
:1016380002F5003293421ED902F5802293421CD94A
:10164800B3F1016F1BD3052005F012F8FBE708245E
:10165800FFF7C8FA092814D04FF0FF30F8BD10245E
:10166800F6E71824F4E72024F2E72824F0E73024EA
:10167800EEE73824ECE74024EAE74824E8E7582472
:10168800E6E7134F3B6923F440733B613B6943F43E
:1016980000733B613B6923F0F8033B613B6943F00E
:1016A80002031C433C613B6943F480333B61FFF711
:1016B80099FA3B6923F002033B613B69092823F04F
:1016C800F8033B613FF473AFC6E76FF00100F8BD64
:1016D800003C024000000E08FF3F0008F8B5044631
:1016E8000D468E180027B54201D12069F8BDE36880
:1016F800591CE160234415F8012B1A720429F2D110
:10170800206918B9A1682046FFF74AFF2061E76001
:10171800E9E738B58D180C46AC4200D138BD14F84D
:10172800011B1BF017FBF7E770B501221049114C9C
:10173800114E0020FFF7EDFF22884AB1A518B542E7
:1017480013D2052A11D92146FFF7E3FF2C46F3E708
:1017580021460222FFF7DDFF6388084AC31AA41A4C
:10176800074A58421480584170BD002070BD00BF20
:1017780000000E0801000E0800001008FCFF0D080C
:101788009C1E002030B502440446944201D100203A
:1017980011E014F8013B11F8015BA3F1410019288D
:1017A800A5F1410098BF2033192898BF2035581B50
:1017B80001D1002DE9D130BD70B5034610F8012BD9
:1017C800202AFAD0092AF8D02D2A0ABF0346012573
:1017D8004FF0FF35591E00240A2611F8010FFEF7B5
:1017E80043FE0A2802D905FB04F070BD06FB040479
:1017F800F3E730B50278202A034600F10100F9D05A
:10180800092AF7D02D2A47D10346BFEE000A9FEDDB
:101818003A7A1A46F2EE046A134612F8010BA0F15E
:101828003001CCB2092C3DD92E280BD1F2EE046A36
:101838001146B0EE666A0B4611F8012B303AD0B269
:10184800092838D91A7802F0DF02452A4FD15A7888
:101858002D2A3BD102330120013B00220A2513F82F
:10186800011F3039CCB2092C36D9B2F59A7F28BF7E
:101878004FF49A72DFED216A1346F7EE007A072BD0
:101888002DD802F00702F2EE046A62BB88B3C7EEF5
:10189800276A20EE260A30BD2B2A08BF0346B7EE7A
:1018A800000AB4E707EE901AF8EEE77AE7EE267A30
:1018B800B0EE677AB0E707EE902AF8EEE77AC7EE5F
:1018C800A65A66EE866A37EE257AB4E72B2A14BF45
:1018D800013302330020BFE705FB0212BFE767EEC2
:1018E800A67A083BCBE767EEA67A013ACDE7F7EE92
:1018F800007A67EE276ACCE70000000020BCBE4CE7
:10190800B5EEC00ADFED2D7AF1EE10FACCBF30EE5D
:10191800270A30EE670ADFED2A7A20EE270A30B56B
:10192800FDEEC07A87B017EE904A054684EAE47067
:10193800002303A9A0EBE47000930193029327F01E
:1019480035F8002CACBF20232D2303A88DF80030D8
:1019580029F0D8FA012822D130238DF801308DF8EA
:1019680002308DF8033003A968462CF0FEFE684665
:1019780029F0C8FA0338C4B22246694628462CF032
:101988002BFF00232B550F4928462CF0EEFE0DEBBC
:10199800040128462CF0E9FE284607B030BD02288D
:1019A80005D130238DF801308DF80230DBE70328AC
:1019B80004BF30238DF80130D5E700BF6F12033A1A
:1019C80000007A44215A030870B5064615460846B1
:1019D800B6FBF2F414B12046FFF7F6FF05FB1464DA
:1019E800024B1B5D00F8013B70BD00BFDC360308ED
:1019F800084BD3E9002352EA030108D006490968D5
:101A0800521843F10003C0E9002301207047002069
:101A1800704700BF20410020B8530020F0B5264E83
:101A280004460F460FCE8DB06D460FC50FCE0FC5BD
:101A380096E80F0085E80F0014F0030335D1642100
:101A480094FBF1F201FB124242B94FF4C87294FBC5
:101A5800F2F302FB1343003318BF0123C3F11D0344
:101A680040F26D1201930420631E93FBF0F002FB19
:101A780004046FF0630093FBF0F020444FF4C87443
:101A880093FBF4F31844063000220721013F5DF868
:101A980022309742184490FBF1F4C4EBC404A0EB45
:101AA800040004D1181A0DB0F0BD0123D6E70132A5
:101AB8000C2AECD10020F6E768E80208F8B51446CD
:101AC8001D4606464FF47A7200232046294629F01F
:101AD800F1FF2C4B3C22034493FBF2F002FB103144
:101AE800B17190FBF2F102FB1102182072714FF4F0
:101AF800616293FBF2F292FBF0F100FB112232716A
:101B08002149224A93FBF2F293FBF1F3980040F249
:101B1800B55392FBF3F103FB1123B3F5896F2DDA6B
:101B280040F2DA2293422BDCB3F5B77FB4BF002230
:101B380001221749182707FB02170B2137F811E074
:101B4800734501DA0139F9D100F5FA6010443080A3
:101B5800481CB0700C2000FB02120E4901EB420237
:101B6800013392F834209B1AF3704FF47A720023F1
:101B78002046294629F09EFF3281F8BD0322D8E786
:101B88000222D6E780BC92C7801F860780510100D9
:101B980098E8020864E8020837B504466846FFF783
:101BA80027FF054638B1DDE900232046FFF786FF09
:101BB800284603B030BD01232080A370E370207154
:101BC8006071A0712081F3E710B50288C378A2F58F
:101BD800FA62591E40F2B554930804FB0313817846
:101BE8000C24013902F0030204FB02120C49847927
:101BF80001EB42021821928E1344027901FB032360
:101C0800427900893C2101FB0323064A224401FB57
:101C180003234FF47A720021C2FB030110BD00BFF9
:101C280064E8020880436D380B684A689A4206D017
:101C38005A1C0A601B7800B103700120704700200D
:101C4800704710B502681146531C036011F8024B27
:101C58000160D31C5178036093781B0443EA012385
:101C6800111D0160D078234343EA006010BD03686A
:101C78005A1C02601A4612F8021B0260587841EAA0
:101C88000020704791E80C009B1A012B10B5044600
:101C980006DD0846FFF7EBFF04B12080012010BDE8
:101CA800002010BD03685A1C02601878704738B5C8
:101CB800044609C81B1A9A42154606DC2AF0CEFAD1
:101CC80022682A442260012038BD002038BD38B57A
:101CD8000446006815462AF0C1FA22682A442260A0
:101CE80038BD03685A1C0260197003685A1C0260E8
:101CF8000A0A1A7003685A1C02600A0C1A700368F0
:101D0800090E5A1C02601970704703685A1C026059
:101D180019700368090A5A1C0260197070472DE986
:101D2800F04F89B082468B4616461C4600270DF1B7
:101D380014083178002934D0252904D050460136BA
:101D4800D8470137F5E771782D2905BFB178F51C1B
:101D5800B51C012618BF0026302906BF29780123A3
:101D680000230293A1F1300308BF0135092B4FF07E
:101D7800000907D80846FEF777FB0A2815D90EB1DF
:101D8800C9F100096C2940F08B802A78642A05F192
:101D9800010600F0BC801BD8252A62D00BD8002A87
:101DA800C7D1384609B0BDE8F08F0A2303FB0909FB
:101DB80015F8011BDEE7582A1BD0632AB9D135462E
:101DC80021785046D847261D013734462E46B0E7BD
:101DD800732A3AD008D8662A49D06E2AA9D135463E
:101DE800236804341F60F1E7752A00F08B80782A95
:101DF8009FD1A2F15800424204F1040543464241F2
:101E08001021206807E02D238DF8143040420DF191
:101E1800150300220A21FEF73CFB2C46CDF8008072
:101E2800029B4A4659465046FEF763FB074480E743
:101E38002D238DF8143040420DF1150300220A219C
:101E4800FEF727FB2E46039CE8E7354623680093F8
:101E58004A46002359465046FEF74BFB261D0744C9
:101E6800B3E7354625215046D8470137AEE7354612
:101E7800073424F00703D3E9000103F1080429F02B
:101E8800BBFC00EE100A4046FFF73AFDCDF8008093
:101E9800029B4A4659465046FEF72BFB074495E7F6
:101EA80064293CD00BD82529DCD003D800293FF47D
:101EB80078AF8BE758290FD0632981D086E773293B
:101EC800C4D004D86629D3D06E2989D07EE7752975
:101ED8000FD078297FF47AAF58394A4204F10406C2
:101EE8004A412068434610213446FEF7D2FA2E466E
:101EF80094E7231D0393002243460A212068FEF736
:101F0800C8FA9FE7251D434600220A2179E7206881
:101F1800002804F10405FFF676AF434679E7206808
:101F2800231D0028039383DB434687E70EB40FB5D0
:101F380005AB019053F8042B0649039301A8FFF75A
:101F4800EEFE019B00221A7004B05DF804EB03B0AA
:101F5800704700BFF10400080FB437B50B490C48AF
:101F6800096800680B4D06AB53F8042B0193FFF783
:101F7800D6FE04462868FEF724FF0028FAD020463B
:101F880003B0BDE8304004B0704700BF002B00200C
:101F9800042B0020548F00202DE9F04F00F1100E83
:101FA80085B007460546002600F14009B0462B4695
:101FB800BC4616E0F4EC016A1AED047AD3ED007A17
:101FC800E6EEC77AC3ED007AAC420AF1100AF1D105
:101FD80008F10108B8F1040F0CF1040C03F1040333
:101FE80003D0AEF11004E246EEE74FEA860B7346E3
:101FF8004B451ED003EB0B0AB8469C4609E0FCECA7
:10200800016A18ED047AD4ED047AE6EEC77AC4EDD5
:10201800047AD44508F11008F1D1D4ED046A95ED9D
:10202800007AC6EE877A103317EE90CA44F810CFBC
:10203800DEE70136042E05F114050EF1100E07F146
:102048000407B3D10024009401940294039402F18C
:10205800100C074606466C4652F8045B2560EE46AF
:102068003546BD4228D1624504F1040406F1100644
:1020780005F11407F0D104AE00F13C050A4656F804
:10208800044D42F80C4F2C460434A34202F10402DA
:10209800D1ED037A1BD12A46D2ED006A87EEA67AE3
:1020A800103B8342A5F11405A1F1040181ED047AE6
:1020B800E4D105B0BDE8F08FBEEC017AD4ED007A2A
:1020C800F5EC016AE6EEC77AC4ED007AC9E7D4ED0B
:1020D800006A92ED007AE6EEC77AC1ED037AD3E79B
:1020E80080EAE073A3EBE0738B4206DB002801DD96
:1020F800401A704702D0084470470020704744F2E5
:102108005063984203DDA0F50C40A0387047034B9C
:102118009842BCBF00F50C40A0307047B0B9FFFF33
:10212800F0EEE06AB0EEC07AF4EEC76AF1EE10FAAB
:10213800D4BFB0EE476AB0EE666AB5EE406AF1EE1B
:1021480010FA48D0F4EEC76AF1EE10FA54BFF0EE78
:10215800475AF0EE665AC5EE867A9FED206ADFEDA3
:10216800205A9FED205AE7EE865A9FED1F6AA7EE88
:10217800A56ADFED1E5AE7EE865A9FED1D6AA7EEA7
:10218800A56ADFED1C5AA7EEA55AF7EE005AE7EE4E
:10219800855AB1EE466AC6EE257AF4EEC76AF1EEC4
:1021A80010FA48BF9FED147AF5EEC00A48BF77EEE3
:1021B800677AF1EE10FA48BF9FED107AB5EEC00AC3
:1021C80048BF77EE677AF1EE10FA48BFF1EE677A0A
:1021D800B0EE670A7047DFED0A7ABEE739094E3D6F
:1021E800E3B59EBE69A2163E88FA16BE45FE7FBFBD
:1021F800A7DFA8B499FB243FDB0FC93FDB0F494099
:1022080000000000FDEEC07A17EE903A2033402B14
:1022180043D8DFED237A9FED237AB4EEE70AF1EE97
:1022280010FA28DCDFED207A9FED1E7AB4EEE70A7B
:10223800F1EE10FA22D4DFED1D7AB4EEE70AF1EEE2
:1022480010FA1EDD30EE670A37EEC00A60EE007A3B
:10225800DFED176A9FED177AA7EEA67ADFED166A0B
:10226800E7EE876A9FED157AA7EEA67A20EE276A31
:10227800A6EE070A704730EE470ACEE730EE070AA7
:10228800D4E79FED0F7AB4EEC70AF1EE10FA44BF17
:1022980030EE270A37EE400AD8E79FED0A0A704762
:1022A800DB0F4940DB0FC940DB0F49C0DB0FC93FDB
:1022B8009A7C2E36FAAF4FB93587083CA4AA2ABEB5
:1022C800DB0FC9BF00000000DFED027A30EE270AFD
:1022D80098E700BFDB0FC93F38B5334CB4FBF2F4C5
:1022E800A142F0EE404A1D46F7EE005A4FF00004B6
:1022F80053D207EE901A9FED2D7ADFED2D6AF8EE96
:10230800677A67EE877A07EE102AB8EE477A27EEE3
:10231800267AC5EE876A87EEA63AB0EE430AFFF73B
:1023280071FFF0EE402AB0EE430AFFF7CDFF74EEDE
:10233800A44AF8EE006A82EEA47AF5B1012D25D000
:1023480077EE257A20EE260A85EE276A75EEC75ABB
:1023580080ED006A84EE276AC0EE276A80ED016A84
:1023680085EEA77A83EEA76AC0ED036A80ED026A5C
:1023780080ED047A8461446138BD35EEC04AB6EE1A
:10238800005A24EE055AF0EE453AD9E720EE264ADF
:10239800F0EE653AB0EE655AD2E7C0ED005A4460F7
:1023A8008460C4600461E5E720A10700DB0FC94031
:1023B800BD37863500239FED010A8DE7F304353FCD
:1023C80030B507EE902A2DED028BB8EE670A07EEBE
:1023D800903AF8EE677A83B080EE270A0D460446F5
:1023E80001922AF02BF930EE008AB0EE000AF0EEE6
:1023F800480A2AF0A1FA2AF033FCF0EE480AF0EE77
:10240800408AB0EE000A2AF097FAF7EE007A30EE2A
:10241800670A019988EE800A01232A46204603B0FC
:10242800BDEC028BBDE8304056E7D0ED017AF5EE01
:10243800407AF1EE10FA09D1DFED0E7A60EEA70AC4
:10244800B7EE007AC7EE207AC0ED017A90ED017AF6
:10245800D0ED007A80ED021A31EE077A30EE670A85
:10246800C1EE076AE6EE807AB0EE670AC0ED007A40
:10247800704700BFDB0FC9404840082310F0800FA9
:102488004FEA400018BF80F0D500013BC0B2F5D13B
:10249800704710B50A440C46944200D110BD14F898
:1024A800011BFFF7E9FFF7E74A09012301F01F01C4
:1024B80003FA01F150F822300B4340F822307047FC
:1024C8000EB4254B70B51B68002BA5B0064630DA54
:1024D800224B234C19684FF47A7304A8B1FBF3F22A
:1024E80003FB12131F49FFF721FD04AB03440393B9
:1024F800299A1D492AAB054603A80293FFF70FFC4A
:10250800039B591C03910A211970039B591C0391C1
:10251800002119700246206880B103681B6A03B164
:10252800984704A92068FEF781FC16B120681AF0C4
:1025380041FC25B0BDE8704003B070470B4B1B68E9
:10254800002BF6D002212A4400910A44FD2004A958
:1025580010F032F9EDE700BFB8620020B853002050
:102568006030002001370308E70400081C2B002016
:1025780038B5144B1C68033004EB9002B2F5007FA9
:1025880014D8114D1A6005EB8404104D55F821300C
:1025980020F003001844920045F82100C2F50062BB
:1025A8000B490020FFF78CFF204638BD0949002061
:1025B800FFF786FF084A136843F00073136000248E
:1025C800F2E700BF0C1E0020F4140020101E0020AB
:1025D8000D3703083037030890A1002010B54CB21E
:1025E800002C01F07F034FF02802B5BF02FB030166
:1025F80002FB010101F58E7101F55D710122DBB26B
:102608008A70002C4FEAD4720B704A7000EB83007A
:102618000ADA82691368002B01DA43F0804343F435
:1026280000131360002010BD426D1368F7E782B0F5
:10263800002301930C4A036819690191013A10D0EB
:1026480001990029F8DA019A42F001020192019AEF
:102658001A61054A19690191013A02D00199C9071D
:10266800F8D4002002B07047410D0300084A18232F
:1026780063F30602436D1A61C278012A06D100F29B
:10268800CC5058611A684FF080221A60704700BF1A
:102698000000086010B5042380F8113100230446B7
:1026A8001A461946FEF7ACF82046FFF7DFFF002070
:1026B80010BD10B5044671BB90F81131032B1BD126
:1026C800D0F89023D0F87C339A4217D9C1780129E1
:1026D80008BFD0F88013A2EB030204BFC918C0F8E2
:1026E8008013934228BF1346C0F890239BB2D0F8BA
:1026F80080230021FEF736F9002010BDD0F8E4351C
:102708001B6923B190F81221032A00D1984720466B
:10271800FFF7C0FFF0E7D0F8E4359B69002BEBD05A
:1027280090F81221032AE7D19847E5E7F0B590F829
:10273800CF1590F8D12590F8CE3590F8D05590F86F
:10274800CC6590F8CD7503EB012305EB022590F8D5
:10275800D31590F8D22502EB0122012185B080F82B
:10276800111106F01F0192B29BB2ADB201290446C5
:102778008DF808608DF80970ADF80A30ADF80C5086
:10278800ADF80E20C0F8402100F00E8105D30229D3
:1027980000F01E8106F0800187E1092F64D8DFE888
:1027A80017F0BA00F8006300CC0063005B000A0071
:1027B8006300AD007A00ADF806201A0A013A062A2D
:1027C80052D8DFE802F0040C295151515100D0F8D9
:1027D800EC351B68A0780DF1060198470AE0D0F89F
:1027E800E43580789B6A0DF106019847022343700F
:1027F800C4F8F005BDF80620002A47D0BDF80E3011
:10280800002B43D09A4228BF1A46ADF8062001464D
:102818002046FEF797F839E0DBB2052B24D8DFE82D
:1028280003F003070B0F1317D0F8EC355B68D1E7FB
:10283800D0F8EC359B68CDE7D0F8EC35DB68C9E714
:10284800D0F8EC351B69C5E7D0F8EC355B69C1E712
:10285800D0F8EC359B69BDE735B92AB990F8121163
:10286800032903F07F0503D1204626F003F80DE085
:1028780063F30A12036980F8145119680A431A604D
:10288800FFF708FF2DB1022384F81231002005B0AC
:10289800F0BD0123F8E7D9B2894D012985F8AC18B4
:1028A800E2D890F81231022B0FD0032BDCD1C1B93A
:1028B800022380F81231D0F8E43580F810115B68F3
:1028C80098472046FFF7E6FEE0E70029F9D0012106
:1028D800032380F8101180F812312046FDF796FE88
:1028E800EFE790F810110129EBD0D0F8E4355B68D8
:1028F800984795F8AC1884F81011EEE7012AB3D17F
:1029080090F81231022B04D0032BADD100F5887159
:102918007EE76C497CE790F81231023B012BA3D883
:10292800674B0022C3F8B428D0F8182112B102224C
:10293800C3F8B428022264496AE7012B08D1C4F815
:102948001831D4F8E43502A99B6820469847B8E7BF
:10295800022B9BD115F0FF0F98D103692D0A013D79
:102968005B680122042D05D8DFE805F004030D0F8C
:102978001100022262F30613514AC2F8B838012343
:1029880084F816319DE70322F4E70422F2E70522D2
:10299800F0E790F81221023A012A3FF665AF012BC1
:1029A8007FF474AF0023CAE790F81231032B7FF449
:1029B8005CAFEDB2012D3FF657AFD0F8E43502A970
:1029C8009B689847BDF80E30002B7FF45FAF78E71F
:1029D80006F06006202EE9B205D1D0F8E43502A948
:1029E8009B68984752E7012F11D041D3032F7FF4FA
:1029F8004DAF90F81221022A54D0032A7FF435AF44
:102A0800002B9ED14A069CD0FFF7E8FD99E790F885
:102A18001221022A46D0032A7FF427AF002B7FF425
:102A280035AF11F07F023FF44CAF6DB2002D4FF07F
:102A38002803B5BF03FB020103FB010101F58E71F9
:102A480001F55D7100238B700A70EB0F00EB8202B9
:102A58004B70002DB4BF9269526DC9781368023962
:102A68006FF35553012998BF43F08053136068E70B
:102A780090F81231022B15D0032B7FF4F6AE15F027
:102A8800800F0F4B4FF0280214D001F07F0102FB9A
:102A9800010191F81E215AB10122C3F8BC280B4943
:102AA8000222B5E64B063FF4F1AEFFF797FDEDE6DF
:102AB8000022F2E702FB010191F87623EBE700BF61
:102AC80048140020F81C0020FC1C0020041D0020D5
:102AD80038B5044600295BD190F81131022B1ED17C
:102AE800D0F83831D0F82421934226D9C178012969
:102AF80008BFD0F82811A3EB020304BF5218C0F88E
:102B08002821C0F83831D0F828219BB20021FDF7E0
:102B180077FE00231A4619462046FDF723FF94F84E
:102B28001631012B07D1204A2369D2F8B8285A60F8
:102B3800002384F81631002038BDD0F83C31B3FBAF
:102B4800F2F502FB153565B99A420AD8D0F840214A
:102B5800934206D22B462A46FDF752FEC4F840514E
:102B6800D7E7D4F8E435DB682BB194F81221032AAF
:102B780001D120469847052384F8113100231A46CD
:102B880019462046FDF7EEFE2046FFF76FFDC6E723
:102B9800D0F8E4355B69002BCDD090F81221032AD8
:102BA800C9D19847C7E700BF48140020104BDA681E
:102BB8004378D243C2F30222C2F10401C9B28B4066
:102BC8000F2141FA02F28178DBB20A401343094926
:102BD80002781B018818DBB280F800335009012302
:102BE80002F01F0203FA02F241F82020704700BFEA
:102BF80000ED00E000E100E0C27802B1D6E703781A
:102C080001215A0903F01F0301FA03F32032024994
:102C180041F82230704700BF00E100E0036823F06C
:102C2800010303600023036043608360C3600361A2
:102C3800212343612A4B984203D13D2243F8082CB3
:102C48007047284B984204D14FF4746243F8202C03
:102C58007047254B984204D14FF4741243F8382C2E
:102C68007047224B984204D14FF0746243F8502CBD
:102C780070471F4B984203D11E4A43F8642C704793
:102C88001D4B984203D11D4A43F87C2C70471C4BBE
:102C9800984203D11B4A43F8942C70471A4B984228
:102CA80004D14FF03D5243F8AC2C17E0174B984233
:102CB800C3D0174B9842C7D0164B9842CCD0164B6E
:102CC8009842D1D0154B9842D6D0154B9842DAD0BD
:102CD800144B9842DED0144B9842E2D0704700BFA4
:102CE8001060024028600240406002405860024084
:102CF800706002403D00002088600240400F0020C4
:102D0800A060024000003D20B8600240106402400C
:102D180028640240406402405864024070640240E3
:102D280088640240A0640240B8640240204A936864
:102D380003F00C03042B10B520D0082B20D01D4B1A
:102D48001B4C0360A3681C4AC3F30313134493F892
:102D580048100368CB404360A168C1F38221114445
:102D680091F8481023FA01F18160A168C1F342315A
:102D78000A4492F84820D340C36010BD0F4BDFE7E8
:102D88005468516852686302C2F3881201F03F0127
:102D98004CBF0A4B074BB3FBF1F35343044A526849
:102DA800C2F3014201325200B3FBF2F3C8E700BF9D
:102DB800003802400024F4000000002000127A00CD
:102DC800F0B5456B8668AB8923F400531B041B0CD4
:102DD800AB81817911F004030CBF4FF0000E4FF462
:102DE800805E11F0020F14BF4FF400570027002B2C
:102DF800437914BF4FF48061002113F0010F04469A
:102E080014BF042000209B072B8A9BB223F4405355
:102E180043EA07032B82AA8922F4B05222F00C025B
:102E280048BF40F0080041EA0E0312041843120C90
:102E38000243AA81AA8A22F44072120485B0120CB5
:102E4800AA826846FFF772FF2D4B9D4203D003F517
:102E580080639D424AD10399AB89192213F4004F2C
:102E680002FB01F214BF7100B100B2FBF1F1AA89B3
:102E78006426B1FBF6F3180106FB1313110437D5CA
:102E8800DA003232B2FBF6F202F0070242EA00033D
:102E98009BB22B8163799A0703F00105626B194B8A
:102EA80048BF45F002059A420AD13820FEF72AF8B1
:102EB80030B1EB0704D5A17901F00101FEF77CF8E8
:102EC800A379626B13F0080F938A0BBF23F00803F2
:102ED8009BB21B0443F0080308BF1B0C9382938921
:102EE8009BB243F40053938105B0F0BD0299B3E758
:102EF8001B013233B3FBF6F303F00F030343C7E7B9
:102F08000010014000480040417159E7816057E7CF
:102F18002DE9F8431F46294B9DF820509DF8246061
:102F28009842894690462DD133462A463946002094
:102F380016F0CAFB002304460362C361836243623E
:102F4800C0F82C90C0F83080457187608671FFF713
:102F580037FF15F0010F636B06D04FF6DF721A804A
:102F6800DA6842F02002DA60AA0742BFDA6842F063
:102F78008002DA609A8992B242F400529A8120461D
:102F8800BDE8F8830E4B984204D133462A463946A9
:102F98000220CDE70B4B984204D133462A463946E6
:102FA8000320C5E7084B984204D133462A463946E0
:102FB8000520BDE70020BDE8F88300BF00100140F0
:102FC80000480040004C0040001401402DE9F04347
:102FD8000D6800220126032406FA02FC3CEA0503D8
:102FE8003DD15700D0F800E004FA07F3DB430EEABE
:102FF800030EC0F800E091F804E0D0F800900EFA53
:1030080007F80EF1FF3E48EA0908BEF1010FC0F8C3
:10301800008017D8D0F808E003EA0E0383604B79E4
:10302800D0F808E0BB4043EA0E038360436823EA14
:103038000C0343608B79D0F804E093409BB243EAD9
:103048000E034360C36804FA07FE23EA0E03C36055
:10305800CB79D0F80CE0BB4043EA0E03C3600132E1
:10306800102AB9D1BDE8F083F7B50C4615460646D7
:1030780090B3FDF7D2FF194B18440F2790F894002E
:1030880025F050FC30463368FDF7BDFF80B200F0F4
:103098000702C00803EB80009200016A974021EA0A
:1030A80007010162016A9540B288009204F00302A8
:1030B8000D438DF80420C4F3810205628DF80520C4
:1030C8006946C4F300121846C4F341148DF806206B
:1030D8008DF80740FFF77AFF03B0F0BD64E80208F7
:1030E800F8B57B4E142505FB00650446287A25F0C3
:1030F80019FC2A7A02F01F0152090123032A03FA54
:1031080001F362D0042A65D0022A03D1714A516AB8
:103118000B435362142303FB0463651C5879FDF7C2
:10312800F1FEEDB2074620B10D2383710B23C37165
:103138000572142303FB0463D879FDF7E3FE18B185
:103148000D238371C3710572142303FB04639879FB
:10315800FDF7D8FE20B10D2383710C23C3710572CE
:10316800142505FB0465AB7A6A7A002B37D04A210F
:103178003846FFF779FFE879FDF7C4FE6A7A2A2115
:10318800FFF772FFA879FDF7BDFE6A7A142505FBE3
:1031980004650A21FFF768FF287928B1FDF7B2FE18
:1031A8006A7A0921FFF760FF142363434A4AF358F8
:1031B80093421ED102F58432516A41F48051516222
:1031C800516A21F48051516220E0424A116A0B434E
:1031D80013629FE73F4A11690B4313619AE70A217B
:1031E8003846FFF741FFE879FDF78CFE6A7A0A2135
:1031F800C6E73A4A934232D102F50032116A41F4E5
:1032080080411162116A21F480411162142202FB8B
:103218000462927A002A56D101220220198801F408
:10322800415141F445710A4302431A809A8B22F4B2
:1032380000621204120C9A8307221A821A8892B228
:1032480042F040021A80142303FB0464207900280A
:103258003CD0FDF757FEBDE8F840FDF77EBE204A9A
:10326800934209D102F5FE32116A41F4004111621C
:10327800116A21F40041C8E71A4A934209D102F5BC
:103288008232516A41F400515162516A21F400516D
:1032980099E7154A934209D102F56842516A41F407
:1032A80080115162516A21F480118CE70F4A9342D0
:1032B800ACD102F56442516A41F400115162516A7D
:1032C80021F400117FE700221046A7E7F8BD00BFF0
:1032D800F40D002000380240003001400038004062
:1032E800003C0040003401400050014000540140BF
:1032F80037B50C460546E8B1FDF78FFE0E4B18446E
:1033080090F8940025F00EFBAB88009304F00303BB
:103318008DF80430C4F381038DF805306946C4F391
:10332800001328688DF80630C4F341148DF807405F
:10333800FFF74CFE03B030BD64E802082DE9F74FF3
:10334800374C99469DF83030009394F8C038042BD8
:1033580080468B46924608D932490020FFF7B0F8DC
:103368000025284603B0BDE8F08F03F0B6F80646FE
:10337800002852D094F8C07898F804007A1CD2B289
:1033880007EB470304F6C40505EBC30584F8C0281A
:103398000192FDF7B7FD034628B104218171019A16
:1033A80002720221C171009A6AB398F808200221BA
:1033B8001846FFF759FE182303FB07445A4651469F
:1033C8003046C4F8C46816F007F94946D4F8C4086A
:1033D8001EF05AFAD4F8C40843681A68B2F84430A0
:1033E8006FEA43436FEA53439BB2A2F84430138811
:1033F8009BB243F0010313801EF030FA0023C4F897
:10340800D0080360ADE7184611210093FFF770FF5D
:10341800009B1846FDF79CFDCDE70546A1E700BFD8
:10342800481400203E370308F0B52DED028B234BDE
:1034380083B0064600681C680D461746F0EE408AC1
:10344800B0EE608A1EF0F0F9B4FBF0F0B0FBF5F4D2
:1034580004F57F44FF34240C0097B0FBF4F40023F8
:10346800B4FBF5F52146AAB23046FFF767FF08B36B
:10347800B5EE408A07EE904AF1EE10FAF8EE677A58
:1034880008BF06EE905A9FED0E7A0ABFF8EE666AFC
:1034980027EE888A86EE876A4FF00103037218BF09
:1034A80088EE076A27EE467A80ED056AA7EEA87AC5
:1034B80080ED047A03B0BDEC028BF0BDD40100208E
:1034C80000007A4408B5FDF71DFD48B11D22827140
:1034D8000E22C271002202722021BDE8084007E7CF
:1034E80008BD10B503681A79022A044602D1987AF1
:1034F800FFF7E8FF00232371236010BD70B51E4657
:10350800214D224B9D4218D26C798C4234D12C79B2
:10351800844200D080BB2C7A94422DD12C682C2276
:10352800002120462BF019F925602B792371EA88B0
:10353800A260012B03D0022B05D000241AE02046FC
:10354800FFF7CFFFF9E7E87AFDF7DCFC60616B7AFB
:103558002373A87AFDF7D6FC0546206170B10E23C7
:10356800C3710023867103720921FFF7C1FE206928
:10357800FDF7F3FC204670BD0C35C3E72046FFF786
:10358800B0FF2C46F6E700BF846B0308A86B03085E
:1035980000232DE9F7431A4621210120FFF7AEFF4A
:1035A800234C0546C4F8880000283FD005269620FD
:1035B80003F03DF80DF1070200212846FDF738FE1B
:1035C800074660B300221146D4F88800FDF74CFE88
:1035D8003C20FDF791FE012003F029F800265FFA50
:1035E80086F84FEA8805D4F88890EDB2A91D002224
:1035F80001F0FE014846FDF737FEE91D0022C9B279
:103608004846FDF731FE013640F2DC514046FDF7F1
:1036180039FE102EE3D1384603B0BDE8F083013EF1
:10362800C5D1D4F88800FFF75CFFF4E70746F2E756
:103638004814002020B10078B0FA80F040097047A3
:103648000120704703689FED1A7AD3F81D00DFED5B
:10365800196AD3F819309FED186A07EE900AF8EE48
:10366800677A77EEC77A77EEA77A87EEA67AF7EECB
:10367800007A37EE677A06EE903ADFED107AF8EEC8
:10368800E66A27EE677ADFED0E7A66EEA76AC6EE7F
:10369800867ADFED0C6A77EEE67ADFED0B6A77EE75
:1036A800A67A09B181ED007A0AB1C2ED007A7047B5
:1036B8009AC9CC449AC94C4600E0FF440E76D745D7
:1036C80000004843000048423393884308B520214E
:1036D8002BF05AF80346184623B10278202A03F142
:1036E8000103F8D008BD2DE9F8430D46164681467A
:1036F800002440F634074FF019084846FFF7E6FF64
:10370800814690B1FEF758F8B842A8BF3846B0F5E0
:10371800617FB8BF4FF46170A0F5617090FBF8F05D
:103728004CB928703378013333700134022CE4D15A
:103738004846BDE8F8836870F4E770B50546084662
:103748000E4627F0DFFB3146044602462846FEF7C0
:1037580019F860B92B5DA3F13002092A08D923F0C2
:103768002003413B192B03D9601C284470BD00205D
:1037780070BD08B51E4B1F4C1D68A06819F01AFBD8
:10378800284619F017FBA06841798B0703D441F04C
:103798000201FDF713FB00210846FDF723FC002179
:1037A8000120FDF71FFCA068FDF717FB70B1012190
:1037B8000020FDF717FCA068FDF709FB0146284625
:1037C800FDF70EFB00210846FDF70CFC2846FDF727
:1037D80004FB0028E7D001210846FDF703FC284632
:1037E800FDF7F5FA0146A068FDF7FAFAD7E700BF3A
:1037F8000C8F0020E03D002010B4447A631C044480
:10380800DBB24372A172027A9A4203D85DF8044B84
:10381800FDF7EEBD5DF8044B70470FB413B5084CC7
:103828000849206804AB53F8042B0193FEF777FA94
:103838002068FDF7DDFD02B0BDE8104004B0704718
:10384800088F00200138000873B504680023237628
:10385800042305460DEB0302FF212046FDF7F6FC85
:1038680010B9002002B070BD04236A46FF21286801
:10387800FDF7ECFC0028F4D09DF804108B09023BFE
:10388800012BEED99DF800309DF805209DF80150D8
:1038980002EB012205EB0325C2F30D02C5F30D056A
:1038A800531B002BB8BF5B42FF2BDADC9DF80610D8
:1038B8009DF807309DF8026003EB01239DF8031083
:1038C80001EB06215B1149115E1A002EB8BF764242
:1038D800FF2EC6DC01262A440B44324133412676AA
:1038E800C4F81D20C4F81930BCE707B5012301AAA4
:1038F800FF210068FDF7AAFC03B05DF804FB13B5CF
:1039080002230C4601AA00210068FDF79FFC60B164
:103918005CB19DF80530DB099A0013449DF9042039
:1039280002EB820203EB4203238002B010BD38B5DC
:10393800194C1A4DAC421AD30020FDF7C9FD18489E
:103948000EF070FD4FF48000FDF722FE154B0022AB
:10395800DA71154B01221A74144BFA225A80144B4F
:10396800187803F023FBBDE8384013F093BDB4F991
:103978000230002B4FF00001204603DBFDF7E2FD8B
:103988001434D7E7FDF7DEFD01212046FDF7DAFD07
:1039980002212046F2E700BF806503080469030896
:1039A800793703089897002044A2002094620020E9
:1039B800CC3B0020074B1B68597A4A1C1944D2B2E9
:1039C8005A728872197A914202D81846FDF710BDCA
:1039D800704700BF088F002038B5094D441E14F801
:1039E800011F01B938BD2868427A531C0244DBB272
:1039F80043729172027A9A42F1D8FDF7F9FCEEE728
:103A0800088F002008B504460648FFF7E5FF064B77
:103A18001868FDF7EDFC054B186819F0CBF920463E
:103A28000AF06EF982370308088F00200C8F0020F7
:103A380010B504460748FFF7CFFFFFF778FF03F0FC
:103A4800D3FA05492046FFF778FE08B9FFF7DAFFF1
:103A580010BD00BF8E3703088A400308044808B524
:103A6800FFF7BAFF03F0C0FA0020FFF7CBFF00BF53
:103A7800A4370308034808B5FFF7AEFF0120FFF796
:103A8800C1FF00BFAB37030808B50448FFF7A4FF20
:103A9800034B1868BDE80840FDF7AABCC437030803
:103AA800088F0020004897E7873F03082DE9F04179
:103AB8000D4D0E4FDFF83880002466196059FFF766
:103AC8008BFF716811B13846FFF7A7FEB16811B1D5
:103AD8004046FFF7A2FE1034FFF7E4FFB4F5107F6D
:103AE800EBD1BDE8F08100BFEC120308C937030829
:103AF800CF37030810B5064C0B4602460549206827
:103B0800FEF70DF92068FDF773FCBDE81040C9E722
:103B1800088F0020013800080FB407B504A951F830
:103B2800040B0191FFF7E6FF03B05DF804EB04B066
:103B380070472DE9F74F1F481F4C204DDFF8849040
:103B4800FFF7EAFF04F51377A37994F808B055F85E
:103B58002360E37905EB83032046D3F88CA0BBF1FF
:103B6800000F16D0FDF759FA80462046FDF74BFAAC
:103B7800CDF804A00246CDF800B0334608F1410163
:103B88004846FFF7C9FF0C34A742DDD103B0BDE8B2
:103B9800F08FFDF742FA83462046FDF734FACDF858
:103BA80000A0024633460BF141010548FFF7B4FF78
:103BB800E9E700BFD5370308B024002000E9020870
:103BC80001380308F13703082DE9F0411048114E78
:103BD800114FDFF84C80FFF79FFF0125002474B9CF
:103BE8000E4B1A689200D2F5006205D056F82410E0
:103BF8003846FFF791FF06E001340135EFE758F842
:103C08002420002AF2D1232DF6D1BDE8F08100BF8F
:103C18000F38030800E90208253803080C1E0020A5
:103C2800101E00201FB5094B0293094B0193094B45
:103C38000093094A094B0A490A48FFF76DFF0A49E8
:103C48000A4805B05DF804EB66E700BF6038030872
:103C5800683803087138030839380308333803080B
:103C680043380308483803087D380308BE3803087A
:103C78002DE9F04F5448554D8DB0FFF74DFF002604
:103C8800B046B146524B1A680023934223DB0136F3
:103C9800112E05F14805F5D14E498868CA680C68A7
:103CA8000969400940EAC2624FF47A734A48B4FB92
:103CB800F3F3FFF731FF0A2298FBF2F302FB1380BC
:103CC80099FBF2F1009002FB11924448FFF724FFA0
:103CD8000DB0BDE8F08F424951F823108D4201D054
:103CE8000133D2E7AC6A5CB107EE904ADFED3D6A7A
:103CF800F8EEE77A86EEA77AFDEEC77A17EE904AD5
:103D08002F6B6A6BEB6BD5F838A07F0947EAC2675F
:103D180052090B922146E217CDE90812099A63432A
:103D28000AFB0233A4FB0A0141F2883B1BEB000BA0
:103D380019444FF0000C4CEB010C4FF47A7200233D
:103D48005846614627F006FF0B9B099A0A90634381
:103D580007FB0233A4FB070141F2883B1BEB000B76
:103D680019444FF0000C4CEB010C00234FF47A720D
:103D78005846614627F0EEFE032E18BF0A9B0A99A3
:103D8800019718BF99444FF47A722B6CB3FBF2F386
:103D980006934FF00A0318BF804490FBF3F203FB2D
:103DA800120004920A9A92FBF3F203FB1213059095
:103DB80003930292CDF800A023462A680A483146A8
:103DC800FFF7AAFE63E700BFC7380308700E00209C
:103DD800D8020010000000104339030865390308B1
:103DE800DC020010002474490E39030810B50C4C8D
:103DF80003461846FFF71EFC30B10A4B0A485978AB
:103E0800BDE81040013187E61846FDF7D5FC0138BA
:103E1800022804D8C0B203F037FA2346E9E710BDF8
:103E2800C7510308CC3B00209339030810B50C4C4C
:103E380003461846FFF7FEFB30B10A4B0A481978CB
:103E4800BDE81040013167E61846FDF7B5FC0138BA
:103E5800022804D8C0B203F026FA2346E9E710BDC9
:103E6800C7510308CC3B00209B3903082DE9FF41CB
:103E78000A480488856846888788D0F80C801DF031
:103E880023F88DE88001029033462A4621460448EB
:103E9800FFF742FE04B0BDE8F08100BF9C0B002094
:103EA800A6390308F8B5437913F0C002044602D0D6
:103EB800402A17D0F8BD03F00F03062B06D124F0D3
:103EC80077F9BDE8F8400146164825E624F088F958
:103ED8000546204624F06CF929460246BDE8F8401C
:103EE800114819E683791148114E124F1D2B96BFC0
:103EF800114D002505EBC305FFF76EFD00242B7956
:103F08009C4202D3BDE8F840CCE514B13046FFF737
:103F180063FD2B68384653F82410FFF77EFC013404
:103F2800EDE700BF013A0308113A0308283A0308ED
:103F3800383A03085D3E03088415030870B54379D1
:103F4800164603F00F028AB00546062A4CD8DFE869
:103F580002F0041316181B1D49000C7813F0C00357
:103F680044D0402B3CD12146284624F009F90028AA
:103F780056D0FFF752FC33E091F90040EEE70C8889
:103F8800ECE7B1F90040E9E70C68E7E791ED000AD2
:103F98006846FDF7B5FC01462648FFF73EFCFEB132
:103FA8006B7913F0C00F1BD1284624F019F907EEDE
:103FB800900A6846B8EEE70AFDF7A2FC01461E48DB
:103FC800FFF72BFC284624F0F3F807EE900A684622
:103FD800B8EE670AFDF794FC01461748FFF71DFC89
:103FE8000AB070BD1348F9E70024B7E7042A0CBFEC
:103FF800124813482146FFF710FC002EF0D06B79C9
:1040080013F0C00FECD1284624F0EAF804462846FD
:1040180024F0CEF8214602460A48FFF7FEFBDFE708
:104028006946284624F0DAF96A4621460648FFF729
:1040380073FDD5E7D23703085D3E0308253A030828
:10404800093F03083A3A0308413A030838B50D46D0
:10405800044624F023F92A4601462046BDE83840A4
:104068006CE72DE9F04F81468DB088460026474B16
:10407800F418474B1868FDF7BBF994F805B00BF036
:1040880030034B4549D1204624F0E6F8FDF766FA9F
:104098000546204624F0B6F8AA6801921718824609
:1040A800204624F0FBF80BF00F010546019A06297B
:1040B80068D8DFE801F0043A3F43484C5A0012F848
:1040C8000A200378D31AD3F1000A4AEB030A18F03E
:1040D800200F02D0BAF1000F1FD102A9204624F008
:1040E8007DF918F0400F0DD0BAF1000F0AD102A9DE
:1040F8002848FFF792FB524629462046FFF71EFF45
:10410800FFF7D0FC02A92448FFF787FB00223946B5
:104118002046FFF713FFFFF7C5FC093640F65B336F
:104128009E42A4D10DB0BDE8F08F12F90A2090F993
:104138000030C7E732F80A200388C3E732F90A20BB
:10414800B0F90030BEE752F80A200368BAE797EDE5
:10415800007AD0ED007AB4EE677AF1EE10FA0CBF6F
:104168004FF0010A4FF0000AB1E7204624F020F88A
:104178002946421C38462AF01DFBB0FA80FA4FEA5D
:104188005A1AA4E74FF0000AA1E700BF10F7020887
:10419800088F00205E3A03085F3A03080CB407B59D
:1041A80010F0400009D069B92320FFF703FC05A9E6
:1041B80004980191FFF79EFC012003B05DF804EB21
:1041C80002B070470020F8E70CB4830607B500D5A5
:1041D80051B905A904980191FFF78CFC012003B09F
:1041E8005DF804EB02B070470020F8E72DE9F04FC6
:1041F800824687B091460E4615460027337896F9D1
:10420800028004937378059396F803B0B8F1000F11
:1042180034D0B9F1000F36D02B78049C6A7895F920
:104228000210E8789C422CD1059C944229D18845FB
:1042380027D1ABEB000EDEF1000444EB0E04039033
:10424800029101920093114A3B4621465046FFF7DE
:10425800A5FF059B0193049B0093CDF80CB03B464A
:10426800CDF80880094A214650460137FFF7ACFFD0
:10427800102F06F1040605F10405BFD107B0BDE80B
:10428800F08F0024DBE74C46E3E700BF693A0308F8
:104298002DE9FF47DFF89CA0814690460D4616465B
:1042A8000027B8F1000F42D0B5F90020B6F9003068
:1042B8009A4296F9062038D1B5F90200B6F90210EB
:1042C800884232D1B5F90400B6F9041088422CD1DD
:1042D80095F90610881A414241410392B6F9042023
:1042E8000292B6F902200192009352463B46484694
:1042F8000C46FFF753FF95F906300393B5F90430E0
:104308000293B5F90230019335F9083B0093524600
:104318003B46214648460137FFF756FF082F06F16E
:104328000806BED104B0BDE8F0870021D5E74446B1
:10433800E1E700BF7D3A03082DE9F04FDFF8B0A0B0
:1043480085B080460F461446002606237343039320
:104358000025039B2B44FA1892F8C0B0002C42D0D9
:104368002344524693F8C0300193ABEB0301D1F1DB
:10437800000949EB01090095334649464046FFF7D5
:104388000DFF8DE820083346524649464046013520
:10439800FFF71AFF062DDCD10136062ED5D107F11D
:1043A800E40A134F00251AF8019BF4B1631940463B
:1043B80093F8E4300193A9EB030256425641009565
:1043C80006233A463146FFF7E9FE8DE82002062328
:1043D8003A46314640460135FFF7F6FE0B2DE2D14D
:1043E80005B0BDE8F08FA146CBE72646EDE700BF54
:1043F800923A03082DE9FF47DFF86CA08146904602
:104408000E4615460027B8F1000F2AD02B883288AF
:104418009A4224D174886A88A21A54425441EA788C
:104428000292AA780192009352463B46214648469A
:10443800FFF7B4FEF3780293B378019336F8043BA0
:10444800009352463B46214648460137FFF7BCFEDB
:10445800102F05F10405D6D104B0BDE8F08700247B
:10446800DDE74446E6E700BFA63A03082DE9F04F2A
:10447800DFF868808FB007468A46164600240DF19B
:1044880024095AF824300293494602A824F05AFF16
:1044980016B356F82430029D0393EB1A5D420DF1D2
:1044A800100B5D41594603A824F04CFFCDF800B02D
:1044B8002346424629463846FFF770FE2346CDF884
:1044C80000904246294638460134FFF77DFE202CED
:1044D800D7D10FB0BDE8F08F3546EFE7B83A0308FB
:1044E8002DE9F347DFF868A081460F46904602267B
:1044F8000024B8F1000F28D037F8242038F82430E9
:104508009A4238F806201ED1BD5BA91A4D424D418A
:10451800019200935246234629464846FFF73EFE3D
:10452800BB5B019337F82430009352462346294653
:1045380048460134FFF748FE042C06F10406D8D19A
:1045480002B0BDE8F0870025E2E74546E8E700BF8E
:10455800C23A03082DE9F04F2DED088BDFF80C91D6
:1045680097B0804692460D461446002695ED008A7F
:10457800B5EE408AF1EE10FA71D0D5ED019A95EDBD
:10458800029AD5ED038ABAF1000F3FD094ED000AE4
:1045980094ED01BAD4ED02AA94ED03AAB4EE408AD0
:1045A800F1EE10FA60D1F4EE4B9AF1EE10FA5BD10D
:1045B800B4EE6A9AF1EE10FA56D1F4EE4A8AF1EEA8
:1045C80010FA0CBF0127002712A8FDF799F9B0EEE1
:1045D8004B0A83460EA8FDF793F9B0EE6A0A0590D8
:1045E8000AA8FDF78DF9B0EE4A0A049006A8FDF76F
:1045F80087F9049A059B039002920193CDF800B0C5
:1046080033464A4639464046FFF7C8FDB0EE480AE9
:1046180012A8FDF775F9B0EE690A07460EA8FDF76E
:104628006FF9B0EE490A83460AA8FDF769F9B0EEBA
:10463800680A049006A8FDF763F9049B03900293A7
:104648008DE8800833464A46002140460136FFF788
:10465800BBFD0C2E05F1100504F1100486D117B02E
:10466800BDEC088BBDE8F08F0027ADE7D33A03080F
:104678002DE9F04F834687B092460C461646002730
:104688004FF019094FF46178BAF1000F4DD0A378B3
:10469800B17832798B42337845D12078984242D12B
:1046A8006578707885423ED1E578F07885423AD1D0
:1046B8002079904237D165797079281A4542454169
:1046C8000592F27804927278019119FB028219FB23
:1046D80003830392029373790093154A3B46294654
:1046E8005846FFF75BFD23790593E37804936378D5
:1046F8000F4A19FB03830393237819FB038302935F
:10470800A37801936379009329463B4658460137BD
:10471800FFF75AFD0C2F04F1060406F10606B3D183
:1047280007B0BDE8F08F0025CAE75546DBE700BFB4
:10473800E73A03082DE9F04F354FDFF8DCA087B0E2
:10474800814690460C46164602F13C0B94F904202B
:10475800002330495956914254D00C333C2BF8D1A0
:104768000C365E4504F10C04F0D107B0BDE8F08FBB
:1047780096F90430F1799A42326841D12068904222
:104788003ED16579707985423AD1A579B07985426B
:1047980036D1257A307A854232D1E579681A454290
:1047A800454157F821100491317A57F821100391A7
:1047B800B17957F8211002917179009257F82110B8
:1047C8000191524629464846FFF7E8FCE27994F9F8
:1047D800043057F822200492227A57F822200392B4
:1047E800A27957F822200292627957F82220019282
:1047F80022680092294652464846FFF7E5FCAFE793
:104808000025CEE7B8F1000FB2D14546DEE700BF7C
:10481800982003088C980020053B03082DE9F04FE9
:10482800834685B092460D46164600274FF0190973
:104838004FF46178BAF1000F3DD02B78327893426B
:10484800F37836D168787178884232D1A878B1780F
:1048580088422ED1EC78E11A4C424C4119FB038373
:104868000393B37819FB03830293737821468DE889
:104878000C0058463B46114AFFF790FCEB780F4A6C
:1048880019FB03830393AB7819FB038302936B78BB
:10489800019315F8043B009321463B4658460137DF
:1048A800FFF792FC142F06F10406C3D105B0BDE84A
:1048B800F08F0024D2E75446E0E700BF223B03080C
:1048C800F7B50746FEF7B6FE044630B10022224986
:1048D8000120FFF7A3FF03B0F0BD3846FCF76CFFDB
:1048E8001328054630DC8600781C8DF80740FEF753
:1048F800EDFE194C074640B1FCF75EFF28289EBF25
:10490800012304F825008DF807303846FEF7DEFE4F
:10491800074650B1FCF750FF0D2806D8A319587068
:104928009DF8073001338DF80730B11C0DF10702EF
:1049380021443846FEF7D7FE9DF80730042BCAD02D
:10494800002344F82530C6E71323224603490448C8
:10495800FFF7E2F8BFE700BF4A900020353B0308A5
:104968003B3B030808B5FFF737F8BDE80840FFF7F9
:1049780099B82DE9F043A64BA6481968A64DDFF86B
:10498800488399B04FF47A73B1FBF3F1FFF7C4F899
:1049980007A8FDF701F9A14B07A9B3F900200EA854
:1049A80024F05AFC0EA99E48FFF7B6F80FF040F81D
:1049B8006422B0FBF2F102FB11029A489A4B00788C
:1049C8001B7805EB800092B2D0F8DC00009089B229
:1049D8009648FFF7A1F8964B96481968964BB1FB95
:1049E800F3F1FEF71AFF954B1E68002405F1EC075A
:1049F80005F584790123A34033420BD057F82430BE
:104A080043B118F8042059F8241053F822208C4890
:104A1800FEF703FF0134072CECD1FFF743F8894870
:104A2800854C894FDFF8A482FFF79CFF0AA8FEF7A0
:104A38007DF90A998548B1FBF4F1FFF76DF80B99F8
:104A48008348B1FBF4F1FFF767F80C998148B1FB93
:104A5800F4F1FFF761F80D997F48B1FBF4F1FFF726
:104A68005BF80EF04DFE05EB8000D0F830610EF0DB
:104A780029FE04460EF0F0FD05EB800005EB8404EA
:104A8800D0F83021754B0392D4F83021744C02933E
:104A980001920093324673497348744EFFF73CF80D
:104AA8002368734A734974489B00C3F50063FFF792
:104AB80033F8724A724B7348D31A0021B4F8902025
:104AC800FFF72AF87048FFF74DFF002456F8241026
:104AD8003846FEF7A2FE4046FEF77EFF6B4BE15CD0
:104AE8004FEA8409002974D16948FEF775FF6948BF
:104AF800FEF772FF684B59F8031000296DD164481E
:104B0800FFF730FF0134042CE0D1644B6448198866
:104B1800FEF783FE634B1A6F002A62D007EE902AD5
:104B2800DFED616AF8EEE77A86EEA77AFDEEC77ADE
:104B3800CDED047AD3F8B820002A54D007EE902A95
:104B4800DFED596AF8EEE77A86EEA77AFDEEC77AC6
:104B5800CDED057A9B6A5BB107EE903ADFED526ABC
:104B6800F8EEE77A86EEA77AFDEEC77A17EE903A66
:104B78004E4A4F4811884F4E0093049A059BDFF820
:104B88005081FEF7C9FF4C48FEF726FF346824F031
:104B9800784424F07F0401273CBBFEF783FF336889
:104BA8005B0113D506A823F0B4FB78B90698B0F5D5
:104BB800A17F9BBF00EBC0044048204600190EA906
:104BC80023F00CFC0EA93E48FEF7A6FF19B0BDE87D
:104BD800F0833C48FEF721FE89E73A48FEF79CFF40
:104BE80090E70492A6E70592B4E794FAA4F3B3FA1F
:104BF80083F307FA03F2062B24EA0204CCDD05EB63
:104C080083034046D3F83411FEF707FEC4E700BF1C
:104C1800B8530020583B030800E90208C898002050
:104C2800723B0308BB3D0020943A0020833B0308F5
:104C3800D4010020A63B030840420F0090620020E8
:104C4800B63B0308BE3B0308FB3C0308D33B030801
:104C5800E53B0308F73B0308093C03081B3C030832
:104C68000C1E0020203C0308233C030840EA0208ED
:104C78000000011000180000763C0308000010082E
:104C880000000E08AE3C0308E83C03084D2D002048
:104C9800573E0308193D0308E03A00204000001081
:104CA800233D0308700E002000247449A43000201E
:104CB800333D030890A10020703D030810F7020857
:104CC800873D0308123D0308593A0020033D0308B5
:104CD8005D3E03082DE9F0430024DFF86080DFF82B
:104CE80060908BB00746254604EB080669463046B7
:104CF80023F074FB3946684629F095FD78B169467A
:104D08004846FEF78AFD00213046FFF79FF9FEF777
:104D1800C9FE3046FFF7C6F8FEF7C4FE0135093470
:104D280040F65B339C42DFD115B90348FFF71AFE02
:104D38000BB0BDE8F08300BF9B3D030810F70208E5
:104D4800633A03082DE9F0472DED028B8AB08046BF
:104D580026F0D8F8054628B1012824D198F8003063
:104D68002A2B20D18A48DFF848828A4FFFF7FAFDBC
:104D7800002404EB08066946304623F02FFB6946F9
:104D88003846FEF74AFD29463046FFF75FF90934F1
:104D9800FEF788FE40F65B339C42EAD10AB0BDECD0
:104DA800028BBDE8F0873D21404629F0EDFC002844
:104DB80000F0DF80034613F8012C202A03F1FF31AD
:104DC80030D0A3EB0803441C2278202A04F1010107
:104DD8002AD0DFF8DCA10027DEB207EBC70555446F
:104DE8006946284623F0FAFA684626F08BF86946A1
:104DF800814602464046FCF7C5FC002840F0BD80CD
:104E0800B14540F0BA806B7903F00F08B8F1060F8E
:104E18000CD1204626F076F821460246284623F093
:104E28004AFABBE70B46C6E70C46CDE713F0C003CA
:104E38000AD0402B5ED05848FEF7CEFD2846FFF733
:104E480031F8FEF72FFEA9E72378002BF3D053495A
:104E5800204629F0D6FC0646204626F053F886421E
:104E6800E9D12046FCF7C5FC2846B0EE408A23F07D
:104E7800B7F907EE900AF8EEE77AB4EEE78AF1EEB2
:104E880010FAD8DB284623F093F907EE900AF8EEDB
:104E9800677AB4EEE78AF1EE10FACCD8B8F1050FCC
:104EA80017D0B8F1040F1FD1214614F8013B202B6D
:104EB800FAD0092BF8D0013900230A2011F8012F64
:104EC800303AD2B2092A02D800FB0323F6E708EEEB
:104ED800103A284623F0E2F9B8F1050F36D8DFE892
:104EE80008F032323E3E42452046FCF765FC08EEAB
:104EF800100AEEE7AB799FED2A8A1D2B96BF294E43
:104F0800064606EBC306002796F804A03B46B946BA
:104F1800574503D3B9F1000FDBD18CE7002BF9D14A
:104F280033686FF0004253F827002146FCF72AFC4B
:104F3800002808BF08EE107A0ABF012300234FF0AB
:104F480001090137E4E718EE103A0370694616487C
:104F5800FEF763FC00212846FFF778F81EE718EEF5
:104F6800103A0380F2E780ED008AEFE780ED008ACF
:104F7800ECE74046FFF7AEFE10E7013740F2431377
:104F88009F427FF42AAF0948FFF7ECFC06E700BF11
:104F9800A83D0308633A0308D33D0308BA3D030854
:104FA8000000000084150308C83D03089B3D030862
:104FB80010F7020870B50346FEF73CFB30B3254BEB
:104FC8001C680134172C05D823490C2202FB041253
:104FD80095686DBB204A25460C210135172D0EDD3D
:104FE800002501FB0520866856B11D6017F0D2FF29
:104FF800324629461948FEF78FFD2C4621E0F0D9A4
:10500800A542EAD11648BDE87040ABE41846FCF763
:10501800D3FB1728044605D80F4A0C2303FB0023AB
:105028009D682DB921460F48BDE87040FEF774BD54
:10503800084B1C6017F0AEFF2A4621460748FEF7CA
:105048006BFD0C235C43044B185DBDE8704017F002
:10505800B7BF00BF58000020B80903080C3E03087A
:10506800E23D0308F63D030808B50948FFF77AFC56
:10507800084B1868FCF7BCF9074B00241C70074B59
:105088001C60074B1C7018F06DFA2046FEF7BAFC3E
:10509800213E0308088F0020148F0020108F002065
:1050A800405D00202DE9F74F804625F02BFF484D45
:1050B800DFF848912F680446F0B94648464EFEF797
:1050C800ACFB012519F80430013B05FA03F33B4218
:1050D80009EB040203D091683046FEF79EFB0C34BE
:1050E800B4F5847FEED117B93C48FEF775FC03B0E0
:1050F800BDE8F04FFEF7D6BC024639494046FCF7FA
:1051080041FB064670B93748334DFEF765FC09EB9D
:105118000603284699680C36FEF77FFBB6F5907FA4
:10512800F5D1E4E798F800302D2B03BF08F101080A
:1051380004F1FF344FF0010A4FF0000A00260C2357
:1051480003FB069B0193DBF80830009319462246BF
:105158004046FCF717FB019B00282FD1BAF1000F3E
:1051680019D0162E0BD1204B2B602048FEF734FCAB
:1051780000991F4803B0BDE8F04FFEF7CDBC172ECD
:1051880001D16B68F0E79BF800305A1E0123934069
:105198001F432F60E9E7162E03D1C5F800A0154874
:1051A800E4E7172E17BF9BF800306F6003F1FF325A
:1051B80001231EBF93409F432F60F0E70136182E4E
:1051C800BED10D4803B0BDE8F04FFFF7CBBB00BF21
:1051D800446500204B3E03085C3E0308553E030827
:1051E800613E0308663E0308FFFF3F00713E030867
:1051F8005D3E03087A3E03089B3D0308B80903088F
:105208002DE9F843054625F07DFE0446D0B9314B1B
:1052180031481D68314EDFF8D480FEF7DDFB0127E9
:1052280056F8241051B10B7833B107FA04F32B4226
:1052380002D04046FEF7F1FA0134F1E7BDE8F84341
:10524800FEF730BC024626492846FCF79BFA78B997
:105258002448254C254DFEF7BFFB54F8041F0029B0
:10526800ECD00B78002BF8D02846FEF7D6FAF4E7F6
:105278002B78DFF868902D2B03BF013504F1FF343C
:105288004FF001084FF00008002659F8267027B99A
:105298001748BDE8F843FFF765BB2246394628465C
:1052A800FCF770FA98B90120B040B8F1000F0AD0A5
:1052B800FCF766F90F48FEF78FFB39460E48BDE844
:1052C800F843FEF729BCFCF763F90C48F3E701360D
:1052D800DBE700BF003C0020823E0308A0EA02088A
:1052E800613E0308903E03089CEA02088C3E0308CE
:1052F8009B3D0308713E03085D3E03087A3E0308A0
:105308002DE9F347204E21483768214CDFF890807B
:10531800DFF88490DFF88CA0FFF724FB0025BD425E
:1053280002DB02B0BDE8F08733689D4229DCA28821
:10533800D3B2172B18D808EB8303D3F82432002BE9
:1053480008BF4B4621685046FEF767FAE3885A04BF
:105358000CD5E0890090A389628921890D48FEF760
:10536800DBFB01351034DAE70B4BEBE71B0405D503
:10537800E268A1680948FEF7CFFBF2E7FEF792FB67
:10538800EFE700239B88FFDEFC2A00209C3E0308F1
:10539800FC260020D73E0308C7510308E93E03084E
:1053A80000E90208C83E03080148FFF7DBBA00BF5E
:1053B800F33E0308F7B50346FEF73CF9044618B177
:1053C800FFF7F2FF03B0F0BD01AA1D491C4F1846B4
:1053D80027F0E8F82646254640B90B2D18D9194973
:1053E8000B2302461848FEF797FBEBE744B1012C64
:1053F8000AD001AA39460020013427F0D3F8EBE798
:10540800FCF7DAF90546F4E7FCF7D6F90646F0E7C3
:10541800022C0DD1A6F57A73B3F57A7F05D94FF42E
:10542800FA634FF47A720949DCE7094B23F81560EF
:10543800074B084833F915202946FEF76DFBC1E7ED
:105448009E490308353B03083B3B03085B560308AA
:105458009E660020FF3E03082DE9F341044625F02F
:1054680051FD04283DD1631EE11C5A78A2F1610068
:10547800192898BF203A03F8012F8B42F5D1DFF89D
:1054880074802546271D15F8016B4046314629F0E2
:105498007BF920B13146284629F076F920B1FFF78B
:1054A80083FF02B0BDE8F081BD42ECD120460CF08C
:1054B800B9FF0E480E4CFEF78FFA0E4800231A1952
:1054C80002A952780A44195C02F8081C0133042B1B
:1054D800F5D10023694608488DF80430FEF71CFB17
:1054E800DFE70028E5D0FFF75FFFE2E70C3F03089E
:1054F80098970020BBF40208D237030870B58AB029
:10550800044625F0FFFCC2B22AB926490120FEF75D
:105518006DFE0AB070BD052223492046FCF732F91A
:1055280040B91520FCF71AF80028F2D01D49FBF7FE
:10553800E7FFEEE7204601AA1C491C4E27F032F887
:10554800002402AD78B1052C02D1FFF72DFFE0E76A
:10555800FCF732F901AA45F824003146002027F06B
:1055680021F80134EEE7052CEFD1029A0F2AECD886
:10557800039D072DE9D8049C162CE6D8059800F160
:105588007D03FA2BE1D80699FF29DED8054B03F8ED
:10559800225003EB820398705C70D9700448FFF7BF
:1055A800ADFFB6E7A5650020123F03089E49030832
:1055B800C75103087FB50546FEF73CF898BB04467B
:1055C8002B78002B37D1052C3DD1BDF90440A3B26F
:1055D800072B38D8BDF90610A1F2EE239BB240F292
:1055E800DC5083422FD8BDF90820A2F2EE239BB2EB
:1055F800834228D8BDF90A00814224DC824222DB9A
:10560800914220DCBDF90C5005F17D039BB2FA2BC9
:1056180019D8194B23F8341003EBC4035A80988027
:105628009D7104B070BD14490022012004B0BDE88A
:105638007040FEF72DBE2D2B03D0A3F13002092AAE
:1056480015D8042C03DD04B0BDE87040ACE628464C
:10565800FCF7B2F804AB661C03EB440424F80C0C0A
:1056680015F8013F303B092BFAD93446A8E7202B1F
:10567800E9D101352646F8E7E66500207FB50346FF
:10568800FDF7D8FF044630B100221F490120FEF77C
:1056980053FE04B070BD6A461C491C4E184626F0DD
:1056A80081FF01ADC0B1032C02D1FFF77DFEF0E709
:1056B800FCF782F86A4645F824003146002026F0B7
:1056C80071FF0134EEE70628EFD10A2AEDD80E481B
:1056D800104480F8E43012E0032CE6D1039B0F2B32
:1056E800E3D80199029AC8B20528ECD8052ADCD873
:1056F800054C062505FB0040104480F8C0300448DE
:10570800FEF70AFAC5E700BFBC3C00209E49030823
:10571800923A03082DE9F0410646FDF78BFF04464F
:1057280030B1002224490120BDE8F041FEF762BEF5
:105738003046FCF741F80F2805462EDC3046FDF7C9
:10574800C5FFDFF884801D4F064620353046FCF73C
:1057580033F838F81430984227DC012C11D0022C89
:1057680013D027F8250030462C2129F00DF80646DD
:1057780078B1013601230134BBB1032CE6D1BDE871
:10578800F08107EB85039870EDE707EB8503D87088
:10579800E9E7A21E53425341EDE722460F23084989
:1057A8000848BDE8F041FEF7B7B9002347F82530AF
:1057B800BDE8F041F8E500BF3C3D0020BC3C0020BE
:1057C800353B03083B3B030884EB02082DE9F04F07
:1057D80087B00546FDF72EFF044638B1002256492A
:1057E8000120FEF743FE07B0BDE8F08F2846FBF71F
:1057F800E3FF1F28074600F398802846FDF766FF59
:105808004D4B009443F827400646A046A246A146C1
:105818002546A3460193494BE1B2E05C0DF10C0C1F
:105828000023B64616F8012B1AB1904210D00A2B65
:105838000AD106AE334490424FF0000603F80C6CD0
:1058480008D0FFF7B1FDCEE703F80C200133E8E7F5
:105858000246EEE701390EF10106032932D8DFE8E6
:1058680001F04E1F025BDFF8E8C00DF10B004FF0AE
:10587800010E10F8011F49B30023314AD25C8A4255
:1058880003D00133072BF8D15346002212F80CA09D
:105898008A453DD10EFA02F248EA02089A46E8E73C
:1058A8000DF10B014FF0010C11F8012F72B100231B
:1058B800244813F800E0964526D10CFA03F349EA88
:1058C8000309F1E703A8FBF777FF83460134052CAA
:1058D800A1D1009B019A05F00F0545EA834545EAE9
:1058E800895949EA0A2A4FEA0B134AEA0838DBB20F
:1058F80048EA030342F8273011F0CCFD73E703A808
:10590800FBF75AFF0546E1E70133062BD0D1CBE779
:105918000132062ABAD1C1E703A8FBF74DFF0346B7
:105928000F28C8BF00230093D0E71F23224606494B
:105938000648FEF7F1F856E7BC3C00208AEB02085F
:105948007620030870200308353B03083B3B030817
:105958007D2003082DE9F0410546FDF76BFE06465C
:1059680030B1002228490120BDE8F041FEF7B8BD5A
:105978006FF0004225492846FBF704FF70B9224B17
:105988004FF47A714FF4FA6219805A809980DA805C
:1059980019815A819981DA81BDE8F0812846FBF79F
:1059A8000BFF0328044626D82846FDF78FFE064637
:1059B80068B1FBF701FF012507463046FDF786FE73
:1059C80010B1FBF7F9FE25B9BDE8F041ECE4054656
:1059D800F3E7A7F2EE2240F2DC539A42F4D8A0F2A1
:1059E800EE229A42F0D8084B23F8247003EB840384
:1059F8005880BDE8F0813246032305490548BDE8D3
:105A0800F041FEF789B800BFDE380020123F0308D6
:105A1800183F03083B3B030870B50446FDF70AFE30
:105A2800064630B100222E490120BDE87040FEF73D
:105A380091BD05222B492046FBF7A4FE38B9284919
:105A4800002243181030C0281A60FAD170BD2046D1
:105A5800FBF7B2FE0B28054639D82046FDF736FE7F
:105A6800064640B3FBF7C5FE1D4B03EB051383ED5C
:105A7800000A01243046FDF729FE064638B1FBF737
:105A8800B8FE174B03EB051383ED010A01343046CA
:105A9800FDF71CFE064638B1FBF7ABFE104B03EBD7
:105AA800051383ED020A01343046FDF70FFE20B9D5
:105AB800BDE8704078E40446DCE7FBF79AFE084B43
:105AC800032C03EB051585ED030AF1D1AAE732464D
