:020000040800F2
:100000000000012065F20308E5F2030815C40108A9
:10001000E5F20308E5F20308E5F20308000000003A
:10002000000000000000000000000000E5F20308EE
:10003000E5F2030800000000E5F20308553301086B
:10004000E5F20308E5F20308E5F20308E5F2030828
:10005000E5F20308E5F20308198C0008238C000878
:10006000218C00081F8C00081D8C0008C50B03089C
:10007000B10B03089D0B0308890B0308750B0308DC
:10008000610B03084D0B0308E5F20308E5F20308D2
:10009000E5F20308E5F20308E5F203081B8C00080B
:1000A000E1BC0208A9BD0208CDBC0208D1BD02080E
:1000B00095BD020881BD02086DBD0208091603083E
:1000C00015160308F1150308FD150308E5F20308EA
:1000D000E5F20308ADBB0208A1BB020895BB02080C
:1000E000178C0008E5F20308E5F20308B9BC020822
:1000F0001DBD0208F5BC020845BD0208390B030806
:10010000E5F20308E5F2030859BD0208E5F2030829
:1001100089BB02087DBB0208E5F2030875DE03080F
:10012000250B0308110B0308FD0A0308E90A03085D
:10013000D50A0308000000000000000000000000D5
:10014000000000000000000000000000A1F1020813
:10015000C10A0308AD0A0308990A0308E5F2030877
:10016000D9150308E5150308E5F20308E5F20308CD
:10017000E5F20308E5F203080000000000000000BB
:10018000E5F20308E5F20308E5F20308E5F20308E7
:10019000E5F20308E5F2030800000000E5F20308B9
:1001A000000000000000000000000000E5F203086D
:1001B000E5F20308E5F2030800000000000000007B
:1001C000000000000000000000000000000000002F
:1001D000000000000000000000000000E5F203083D
:0801E000A4ED03000100000082
:1001E80088300120020A000000001F3DB4300120C1
:1001F800020A00000000223EE0300120010F00004A
:10020800000076000C310120011001000000770089
:10021800383101200113000000001E006431012064
:100228000118000000000D009031012001190000A4
:1002380000000C00BC310120011A000000001E0063
:10024800E83101200116000000000E0014320120E0
:100258000117000000000C0040320120011B0000C3
:10026800000048006C320120021C010000012C0033
:10027800983201200224060000023300C432012013
:100288000123000000003C00F032012001210000A1
:040298000000400022
:1080000083681A68937A0133DBB20A2B937205D91D
:1080100000235078024921F810309372704700BF56
:108020003A74012070B54F4C142023780133B3FB10
:10803000F0F200FB123323704B4B5D68186DA942C0
:108040009A6808440CD293F85850002D00F08580AF
:1080500000F58030824238D3C2F5803202440AE013
:108060008242F9D293F85850002D0CBF00254FF4EE
:108070008035821A521BDA6000225960617883F8D9
:10808000582014220131986091FBF2F002FB10118C
:10809000D8686170A178013191FBF2F502FB1512ED
:1080A000A27040F68C2290423CD9197893F9552061
:1080B00091422BD10A1F0C2A28D893F85620182A4F
:1080C00006D8013283F8562004E04FF48035D0E71B
:1080D00083F8541093F9542091420FD193F857002C
:1080E00060B1224C0020224D904211DB2048002438
:1080F0000F2A13DD1F48027801320270012283F833
:10810000551083F8572000221A7070BD0022D9E75D
:1081100054F8046F25F810600130E5E720F81240AC
:108120000132E5E793F85720DAB1A0F2EF2140F2EF
:10813000DA52914207D81A780F2A04D8111D013259
:1081400043F82100E0E70022104683F857209918F1
:108150000432402A0861FAD170BD8242BFF47CAF7C
:1081600087E770BDE8240120804A01208C4A012065
:108170003A740120187401200B4810B503781424B8
:108180000133B3FBF4F204FB1233084A0370136D9E
:1081900001330B4413654FF6FF73994204BF01236B
:1081A00082F8583010BD00BFE8240120804A012029
:1081B0000120704701207047F0B5094E34683F2C0C
:1081C0000DDC4FEA041E074F01340EEB07050FC804
:1081D00085E80F00044B34601B684EF80730F0BD93
:1081E0005C4A01205C46012034CF012070B5104C60
:1081F00005460E4600220023D4E9020136F080FC39
:1082000020B109A3D3E90023C4E90223304636F0A4
:10821000A9F9D4E9022304EB450436F033FB36F028
:10822000B7FC208270BD00BFABAAAAAAAA46104024
:10823000E8240120A0F13003DAB2092A01D8184657
:108240007047A0F16103052B01D857387047A0F1A2
:108250004103052B94BF37384FF0FF307047036858
:108260005A1C02601970704703685A1C026019702A
:108270007047002B2DE9F84F14BF4FF030094FF035
:108280002009141E074688460A9BBABF64424FF075
:10829000010B4FF0000B13F8012B02B1DCB9BBF15D
:1082A000000F1ED1254615F1FF3516D223462C4668
:1082B0000A9D5E1B05EB060A15F8011B99B9BBF177
:1082C000000F05D02546002D10DC002CA8BFA244CD
:1082D0005046BDE8F88F013CDDE749463846C047C7
:1082E000E1E70023E4E73846C047E3E7494638467C
:1082F000C047013DE7E7D0ED006AB0EE407AD0ED2F
:10830000057AE6EE807AD0ED016AB0EE670AD0ED2C
:10831000037A67EEC07AE7EE267AD0ED066A77EE4A
:10832000A67AD0ED026AC0ED057AD0ED047A67EE48
:10833000C07AE7EE267AC0ED067A704770470A23C6
:1083400003800148704700BF0000012043230380E1
:10835000004870470C000120432303800048704709
:1083600050000120432303800048704794000120FF
:10837000D0F81C3210B5D0F818425BB194F8000266
:10838000FF2807D09B68214694F801229847FF23D5
:1083900084F80032002010BDD0F8302201F00F0127
:1083A000D0F8183210B51C2404FB0121B1F81022BA
:1083B00003F50371C3F80C22D0F81C22D3F8040291
:1083C000D2689047002010BDD0F818321BB10020B1
:1083D000C3F81402704702207047836B40221A646E
:1083E0005A6C42F004025A6470477047836B1A6CEF
:1083F00012F0500F21D11A6C42F400721A641A68FC
:10840000916811F0405F1BD19969C9B9D16A11F423
:10841000700F02D09168490512D4516821F02001F3
:1084200051601A6C22F480721A641A6CD20407D458
:108430001A6C42F001021A6470479B6BDB6C1847A0
:108440007047836B0022A3F85A20A3F8522070478C
:108450004B78012B0B7870B54D6942D1202400F583
:10846000106614FB03631C69CDB924F0FF5424F497
:10847000C0141C611C6944F400241C611C69E40CD8
:10848000E4041C61012A0D7806EB45131C6844F0D6
:1084900004441C601AD10A695A61002070BDE40CC2
:1084A000E4041C611C6924F0FF5424F4C0141C6112
:1084B0008C68A54288BF4C611C6944F400241C618F
:1084C0004C691D69C4F312042C43DAE74B69002B95
:1084D000E3D00123D0F83428AB401343C0F834383C
:1084E000DBE700F5306000EB43100369DB0CDB04D5
:1084F0000361036923F0FF5323F4C01303618B6806
:1085000005B14B610469C3F31203012A44F400244A
:108510000461046943EA0403036101D1CB68436148
:10852000036843F004430360B7E7F0B54B780C7879
:10853000012B4B697FD1202600F5106516FB0454F2
:108540002669002B3CD126F0FF5626F4C016266182
:10855000266946F4002626612669F60CF604012AEF
:10856000266153D10C780E6905EB44146661CE7810
:10857000012E0FD1D0F808480F7814F4807F4FF007
:10858000200414FB075427680CBF47F0005747F03E
:10859000805727600F78012E05EB47152C6844F0B3
:1085A00004442C600AD14AB99BB200F58050C968D6
:1085B000033300EB07309B10934237D10020F0BD0E
:1085C000F60C8F68F6042661266926F0FF5626F41D
:1085D000C0162661DE19D4F810E0013EB6FBF7F7AD
:1085E000374E06EAC74646EA0E062661C3F3120670
:1085F00027693E432661CE78012E5ED1266926F09A
:10860000C0462661266946F00056A8E7CE78012EBE
:10861000B0D0002BABD091F800E00124D0F8347832
:1086200004FA0EF43C43C0F83448A0E751F8224065
:1086300001320460C0E700F5306505EB441425699C
:10864000ED0CED042561256925F0FF5525F4C015D5
:1086500025618D68FBB92369C5F312051D432561AA
:10866000236943F400232361012A01D1CB686361AC
:10867000CB78012B0AD1D0F8083813F4807F236817
:108680000CBF43F0005343F080532360236843F052
:108690000443236092E72B44094E2769013BB3FB57
:1086A000F5F306EAC3469BB23E435D432661C5F33C
:1086B0001205266935432561D6E7012AA9D151E77C
:1086C0000000F81F10B54B7800F500620978012B07
:1086D000D46B11D18B4000F510609BB2DB431C4082
:1086E000D463D4692340D36100EB4110036823F4C1
:1086F00000430360002010BD4FF4803300F530606C
:108700008B40DB431C40D463D4692340D361EBE747
:1087100011F0010307D090F8413003F02803282B13
:108720000CBF4223F2238A0709D590F8412002F0BA
:108730002802282A0CBF43F0440343F0F4034A07FD
:1087400001F0110201F0120148BF43F0B803112AF1
:1087500008BF43F09003122901684FF0000008BFE2
:1087600043F060030A6822EA03030B607047836BDF
:1087700019684A6842F400424A600022996B0A650F
:10878000D96B0A6593F84120602A02D1202283F830
:1087900041207047154B202210B5C36200230446C8
:1087A0000363436380F8412080F842304B0711D5C2
:1087B000436A5A1C42620268526A1A70038D4BB1B6
:1087C000013B0385438D013B9BB24385436C43F0E2
:1087D0000403436407212046FFF79AFF2368102211
:1087E000DA61002384F8403010BD00BF0000FFFFB5
:1087F00038B50025044680F8425090F84130292BC6
:108800000AD12823012180F8413021230363FFF797
:108810007FFF84F8405038BD90F841302A2BFAD1C0
:108820002823022180F8413022230363EFE7826886
:1088300038B514680346A2783AB90123A1801146DD
:10884000A370BDE838402AF044BF89B2A0888142B5
:10885000E1800ED3091A2181002520896178084A18
:1088600022F811000121A57018462AF032FFA572E6
:1088700038BD5A681268D26A121A1144EBE700BF79
:108880003A740120094B07EE901A53F82030B8EEE5
:10889000E77A93ED040AD3ED057A10B5DC68A7EE0C
:1088A000270A37F0BBFE206010BD00BF7C520120BC
:1088B0002DE9F0410B4D0127DFF82C802C686A6907
:1088C00014400CB9BDE8F081B4FA84F3C3F11F037E
:1088D00058F8230007FA03F6036824EA06049847C9
:1088E0006E61EEE7003C01405466012070B5D0F89F
:1088F00030520123044695F8B82385F854309A4243
:1089000085F8553009D085F8B83305F15401286849
:10891000FFF7D8FE002385F8B833D4F8305201238E
:10892000002695F8B82385F814329A4285F8156226
:1089300008D085F8B83305F505712868FFF7C2FE41
:1089400085F8B863D4F83052022395F8B82385F837
:10895000703001239A4285F8713009D085F8B83318
:1089600005F170012868FFF7ADFE002385F8B833E4
:10897000D4F8183253B1D4F81C325B689847D4F855
:10898000180239F0D5FF0023C4F81832002070BD5A
:1089900003681B6818470368DB692DE9F041054649
:1089A0000E4617468BB90C463B1B3344002B01DCAB
:1089B000BDE8F08128460AF0AFFF0028FAD014F88D
:1089C000011B2846FFF7E4FFEEE7BDE8F04118473A
:1089D000014B1868DCE700BF54BC012038B50546E0
:1089E0000C4614F8011B01B938BD2846FFF7D0FF2B
:1089F000F7E70C4B1B681B0110B407D50A4B1B682B
:108A00005B050BD55DF8044BFFF7F0BB074B53F844
:108A100020301BB1072801D8DB6819605DF8044BD2
:108A2000704700BF6C5F012038540120BC4B01200F
:108A30001FB5ADF80A3041F48041BDF81830ADF8EB
:108A400004006846ADF80C30BDF81C30ADF80610D7
:108A5000ADF80820ADF80E30FFF7AEFB05B05DF8BD
:108A600004FB1FB5ADF804006846ADF80610FFF72B
:108A7000A3FB05B05DF804FB10B5040900F00F027C
:108A8000013C032C15D80C4B33F8141041FA02F3B7
:108A900013F001000ED0012090400138084036F05C
:108AA0005DFA064B0C221B5D1844054B02FB00309F
:108AB00010BD002010BD00BFCC310408302C0408CC
:108AC0001044012018B1838802681B049361704729
:108AD00010B1036882889A61704770B514231646F6
:108AE00090F90C20044653430C4AD55883689A07E2
:108AF00002D40069FFF7E6FF284627F0BBFE0123FA
:108B000000223146284627F08DFEA3689B0702D439
:108B10002069FFF7DDFF012070BD00BF800A012042
:108B2000F8B516461F4690F90C201423044653430B
:108B30000C4AD55883689A0702D40069FFF7C2FF30
:108B4000284627F097FE3B4600223146284627F06C
:108B500069FEA3689B0702D42069FFF7B9FF0120D3
:108B6000F8BD00BF800A0120F8B516461F4690F9EF
:108B70000C201423044653430C4AD55883689A07A3
:108B800002D40069FFF79EFF284627F073FE3B469C
:108B900032460021284627F045FEA3689B0702D4F1
:108BA0002069FFF795FF0120F8BD00BF800A012072
:108BB000F8B51646142390F90C2004460F4653438B
:108BC0000F4AD55883689A0706D40069FFF77AFFE1
:108BD000012000210AF0A2FB3946284627F04AFE70
:108BE0003146284627F046FEA3689B0706D401209D
:108BF00000210AF093FB2069FFF76AFF0120F8BD0E
:108C0000800A012030B1036882881B691A4214BFB0
:108C10000120002070474BE64AE649E648E647E671
:108C200046E645E637B504468B680D462160984711
:108C30000123FF22237300236273A373E3732B6B5F
:108C400013B120469847E0730B4B93F830301BB1BB
:108C5000E37B23F00103E37323685B6B4BB1214695
:108C600001A8984728B1BDF80630013B238203B024
:108C700030BDFF23FAE700BFE824012003689B6AA8
:108C8000184703685B6A1847F7B5078A04460D461C
:108C90009F4209D3013585720025E2720468009570
:108CA000A469A04703B0F0BD4FF0FF30FAE72DE90B
:108CB000F0410F4605468AB0184690461C4635F0EE
:108CC000F7FA3B189DF84060AB72EB7B85F80B80A0
:108CD00036EA03031AD0F20718D5124BC82206F061
:108CE000FE061B68B3FBF2F3DB070FD51F284FF01E
:108CF000200128BF1F200446024602A839F049FE81
:108D00000AAB1C44002304F8203C02AC2B6842460A
:108D1000009639465E6923462846B0470AB0BDE84A
:108D2000F08100BF34CF01202DE9F34104460D4608
:108D3000184616461F4635F0BBFA23682844002221
:108D4000E672A072294600923246D3F814803B4660
:108D50002046C04702B0BDE8F081036810B5044664
:108D60005B689847236820469B689847A37B013B34
:108D7000A37310BD036810B504461B6898472368A9
:108D800020469B689847A37B0133A37310BD0368FB
:108D90001B691847036810B59B6804469847012370
:108DA0002373FF23637310BD73B503790D46012B45
:108DB0000AD0022B11D18368DB0758BF41F0800134
:108DC00002B0BDE8704088E6417B90F90C0000924B
:108DD0002A4628F045F802B070BD0020FBE7F7B541
:108DE00006790D46012E0AD0022E11D18468E407BF
:108DF00058BF41F0800103B0BDE8F04090E6417BF0
:108E000090F90C0000922A4628F02AF803B0F0BD31
:108E10000020FBE77FB5037904460D461646012B7B
:108E20000AD0022B13D18368DB0758BF01F07F0102
:108E3000FFF7BEFE04B070BD04AA90F90C00617B80
:108E400002F8016D00922A4628F00BFAF2E70020A2
:108E5000F0E770B5094B0E46811C04465D6BF2B21B
:108E60008900284601F0FC01FFF7D4FF2846A10045
:108E7000320A0931BDE87040C9B2CBE7E8240120CD
:108E80002DE9F0410E4E8046002406F12807E0B29D
:108E900000F0030343450ED136F8145037F8143070
:108EA000EB1A002BB8BF5B42052B04DD2946FFF708
:108EB000D0FF27F814500134102CE8D1BDE8F08120
:108EC000F824012038B541F2D7740D4D102200214D
:108ED000B4FBF0F4686BFFF79DFF01200AF02FFA56
:108EE000621EFE21686BD2B2FFF794FF01200AF0E8
:108EF00026FA686B80220021BDE838408AE700BF6F
:108F0000E8240120F7B506790D46012E0AD0022E7D
:108F100011D18468E40758BF41F0800103B0BDE877
:108F2000F04021E6417B90F90C0000922A4628F09F
:108F300098F903B0F0BD0020FBE7F8B504461F46E2
:108F400090F90C301420164658430B4B1D58A3685B
:108F50009A0703D42069FFF7B5FD00BF3B463246B0
:108F6000284627F05FFCA3689B0703D400BF206955
:108F7000FFF7AEFD0120F8BD800A012073B503792B
:108F8000022B3BD1032290F90C00002601258DF81D
:108F9000032004221C4C8DF8042014228DF800605C
:108FA000424302A88DF8015001448DF80230A258C6
:108FB00011F8080C15498A4222D0A1F578418A425D
:108FC00020D001F580618A4205D0114B9A420CBF36
:108FD00003234FF0FF331168142521F0400105FBF6
:108FE00003431160DB68116833F8103021F0380159
:108FF0000B431360136843F04003136002B070BD6D
:109000003346E8E72B46E6E7800A012000300140BE
:109010000034014010B5427A044632B1036800F1D1
:109020000A01406898470023637210BD144B53F83F
:10903000200070B518B3134B062202FB003292F9E0
:109040005940611C1AD092F85C00C0B1191964250E
:10905000002091F87660654392F85B1014226C183A
:10906000013A314403EB4404B4F87A4010FA84F036
:10907000F5D11423B0FBF3F080B270BD002070BDB9
:1090800034500120E824012038B503200D46144651
:10909000FFF7CCFF07EE900AB8EE677ADFED0A7AA9
:1090A00027EE277A5DB1F8EE047AF0EE006AE7EE7B
:1090B000267A9FED067A67EE877AC5ED007A0CB1C5
:1090C000034B236038BD00BF6740533A00007A4429
:1090D00033139043094BC0B2094930B58B4200D3DA
:1090E00030BD5A88140406D55D68C2F30B02DC68F3
:1090F00000FB025222601433F0E700BF58CA040894
:10910000F0CD040870B544880D4606460021C4F32E
:109110000B042846224639F03CFC3169084B994241
:1091200008D3084B994205D222462846BDE8704034
:1091300036F0BEBE19B12846BDE87040084770BD84
:10914000F0CD04086CD004084388426813F4004F43
:109150001EBFC9B2C3F30B0301FB03221146D1E7C3
:10916000064B07498B4202D30023184670471A88E2
:10917000C2F30B029042F8D01433F3E758CA040844
:10918000F0CD0408024A136823EA0000106070471B
:10919000E8650120024A136818431060704700BF59
:1091A000E86501202DE9F84F046806460F46C4F330
:1091B0000D04002C4DD1524B524A934220D902F556
:1091C000804293421BD902F58042934221D902F595
:1091D000804293421FD902F5803293421DD902F595
:1091E000003293421BD902F50032934219D902F59D
:1091F0000032934217D905200AF0E2F8FBE7012478
:10920000414B1A7D9846012A0FD14FF0FF30BDE83F
:10921000F88F0224F4E70324F2E70424F0E705249E
:10922000EEE70624ECE70724EAE7012388F8143088
:1092300029F092FB814630B904F1010A334D4FF019
:10924000780B54450DD3002388F81430B9F1000F82
:10925000DBD12D4D2B7D012B2BD16FF00100BDE813
:10926000F88F2B6923F440732B612B6943F400734F
:109270002B612B6923F0F8032B619BFAABF22B696E
:10928000B2FA82F243F0020304FA02F213432B61B2
:109290002B6943F480332B61BFF34F8F29F05CFBC4
:1092A0002B6923F07A032B6108B90134C9E78146A1
:1092B000C9E70123D6F800802B7529F04DFBB0B922
:1092C000124C236923F440732361236943F4007330
:1092D0002361236943F001032361C8F80070BFF3E1
:1092E0004F8F29F039FB236923F001032361002309
:1092F0002B750028B1D1336804333360BDE8F88F93
:1093000000400008FF3F0008587B0120003C02405D
:10931000F8B504460D468E180027B54201D12069E4
:10932000F8BDE368591C2344E160042915F8012BBA
:109330001A72F2D1206918B9A1682046FFF732FFEE
:109340002061E760E9E738B58D180C46AC4200D1E2
:1093500038BD14F8011B2BF08BF8F7E770B5114CF2
:109360000122114E00201149FFF7EDFF22884AB17A
:10937000A518B54213D2052A11D921462C46FFF76C
:10938000E2FFF3E721460222FFF7DDFF6388084A88
:10939000C31AA41A074A58421480584170BD0020CD
:1093A00070BD00BF014000080080000800400008B8
:1093B000FC3F00084038012030B502440446944286
:1093C00001D1002011E014F8013B11F8015BA3F179
:1093D00041001928A5F1410098BF2033192898BFF2
:1093E0002035581B01D1002DE9D130BD70B50346A1
:1093F00010F8012B202AFAD0092AF8D02D2A4FF094
:1094000000044FF00A060ABF034601254FF0FF355E
:10941000591E11F8010FFEF70DFF0A2802D905FBAE
:1094200004F070BD06FB0404F3E730B50278034690
:109430000130202AFAD0092AF8D02D2A47D1BFEED0
:10944000000A0346F2EE046A1A469FED397A134683
:1094500012F8010BA0F13001CCB2092C3DD92E2815
:109460000BD1F2EE046A1146B0EE666A0B4611F8B3
:10947000012B303AD0B2092838D91A7802F0DF022D
:10948000452A50D15A782D2A3BD102330120013B85
:1094900000220A2513F8011F3039CCB2092C37D924
:1094A000B2F59A7FF7EE007ADFED226A28BF4FF41B
:1094B0009A721346072B2ED8F2EE046A02F00702C6
:1094C0006ABB90B3C7EE276A20EE260A30BD2B2A6E
:1094D00008BF0346B7EE000AB4E707EE901AF8EEAD
:1094E000E77AE7EE267AB0EE677AB0E707EE902AE1
:1094F000F8EEE77AC7EEA65A66EE866A37EE257A68
:10950000B4E72B2A4FF0000014BF01330233BEE74B
:1095100005FB0212BEE767EEA67A083BCAE767EED4
:10952000A67A013ACCE7F7EE007A67EE276ACBE736
:109530000000000020BCBE4CB5EEC00ADFED2D7A65
:109540000023F1EE10FA30B5C8BF30EE270A87B01D
:10955000D8BF30EE670ADFED287A054603A90093ED
:1095600020EE270A01930293FDEEC07A17EE904A8F
:1095700084EAE470A0EBE47029F04CFE002C03A810
:10958000ACBF20232D238DF8003034F091FE01284C
:1095900022D130238DF801308DF802308DF8033060
:1095A00003A9684639F0BAFA684634F081FE0338F8
:1095B0006946C4B22846224639F0E7FA00230F492B
:1095C00028462B5539F0AAFA0DEB0401284639F04C
:1095D000A5FA284607B030BD022805D130238DF802
:1095E00001308DF80230DBE7032804BF30238DF80B
:1095F0000130D5E76F12033A00007A44ABB7040894
:1096000070B5064615460846B6FBF2F414B120467E
:10961000FFF7F6FF05FB1464024B1B5D00F8013BEE
:1096200070BD00BF348F0408F0B50124B0FBF4F521
:109630008D4203D200271CB91C70F0BD4C43F5E7E6
:10964000B0FBF4F604FB1600B4FBF1F41FB9002ED6
:1096500001DC002CEFD1092E03F1010E08DD002AF8
:1096600014BF37255725354401371D707346E2E78F
:109670003025F8E7084BD3E9002352EA030108D06C
:1096800006490968521843F10003C0E9002301208C
:1096900070470020704700BF3077012034CF012091
:1096A000F0B5264E8DB004460F466D460FCE0FC561
:1096B0000FCE0FC596E80F0085E80F0014F00303E6
:1096C00035D1642194FBF1F201FB124242B94FF40F
:1096D000C87294FBF2F302FB1343003318BF01235B
:1096E000C3F11D03042040F26D1207210193631E94
:1096F000013F93FBF0F002FB04046FF063000022D3
:1097000093FBF0F020444FF4C87493FBF4F3184437
:1097100006305DF822309742184490FBF1F4C4EB18
:10972000C404A0EB040004D1181A0DB0F0BD01234D
:10973000D6E701320C2AECD10020F6E7342C0408DD
:10974000F8B514461D4606464FF47A7200232046AB
:10975000294635F09BFB2C4B3C22034493FBF2F053
:1097600002FB1031B17190FBF2F102FB11021820E3
:1097700072714FF4616293FBF2F292FBF0F100FB25
:10978000112222493271224A93FBF2F293FBF1F348
:10979000980040F2B55392FBF3F103FB1123B3F5AC
:1097A000896F2DDA40F2DA2293422BDCB3F5B77FD2
:1097B000B4BF002201221749182707FB02170B210B
:1097C00037F811E0734501DA0139F9D100F5FA6093
:1097D000013310443080481CB0700C2000FB021292
:1097E0000D49204601EB4202294692F834209B1A8B
:1097F0004FF47A72F370002335F048FB3281F8BDE4
:109800000322D8E70222D6E780BC92C7801F8607D2
:1098100080510100642C0408302C040837B504463C
:109820006846FFF727FF054638B12046DDE90023EB
:10983000FFF786FF284603B030BD0123208020714A
:10984000A370E3706071A0712081F3E737B505461E
:10985000FFF7E4FF044640B1054B02AA294628461B
:109860001B8822F8023D29F020FC204603B030BDC1
:109870009C920120028810B5A2F5FA62C37840F2EA
:10988000B554591E930802F0030204FB03138178B8
:109890000C24013904FB02120C49847901EB4202C9
:1098A0001821928E1344027901FB032342793C2153
:1098B000008901FB0323064A224401FB03234FF4E2
:1098C0007A720021C2FB030110BD00BF302C0408D6
:1098D00080436D380B684A689A4206D05A1C0A6069
:1098E0001B7800B1037001207047002070470268A8
:1098F0001146531C10B50360D31C11F8024B0160D4
:109900005178036093781B0443EA0123111D23431C
:109910000160D07843EA006010BD03685A1C026001
:109920001A4612F8021B0260587841EA002070477C
:1099300091E80C0010B59B1A0446012B06DD084681
:10994000FFF7EBFF04B12080012010BD002010BD07
:1099500003685A1C02601878704738B504461546EB
:1099600009C81B1A9A4206DC36F0A2FA22680120C6
:109970002A44226038BD002038BD38B5044600684E
:10998000154636F095FA22682A44226038BD0368ED
:109990005A1C0260197003685A1C02600A0A1A7085
:1099A00003685A1C02600A0C090E1A7003685A1CDC
:1099B00002601970704703685A1C02601970090A26
:1099C00003685A1C0260197070472DE9F04F89B086
:1099D00082468B4616461C4600270DF11408317846
:1099E000002932D0252904D050460136D847013706
:1099F000F5E771784FF000092D2905BFB178F51C06
:109A0000B51C012618BF0026302905BF297801237F
:109A1000002301350293A1F13003092B07D8084632
:109A2000FEF708FC0A2814D90EB1C9F100096C2907
:109A300040F089802A786E1C642A00F0BA801BD816
:109A4000252A61D00BD8002AC9D1384609B0BDE813
:109A5000F08F0A2315F8011B03FB0909DFE7582AD9
:109A60001BD0632ABBD13546261D013721785046CD
:109A7000D84734462E46B2E7732A39D008D8662A2A
:109A800048D06E2AABD13546236804341F60F1E715
:109A9000752A00F08980782AA1D1A2F15800251DED
:109AA0004346102142424241206807E02D234042B4
:109AB0008DF814300DF1150300220A212C46FFF712
:109AC000B3FDCDF800804A46029B59465046FEF74A
:109AD000D0FB074483E72D2340428DF814300DF16D
:109AE000150300220A21FFF79FFD2E46039CE8E79D
:109AF000354623684A465946504600930023FEF7F0
:109B0000B8FB261D0744B4E7354625215046D84703
:109B10000137AFE73546073424F00703D3E90001E6
:109B200003F1080435F054F800EE100A4046FFF740
:109B300003FDCDF80080029B4A4659465046FEF789
:109B400098FB074496E764293AD00BD82529DCD046
:109B500003D800293FF479AF8CE758290FD0632947
:109B600082D087E77329C4D004D86629D3D06E2960
:109B70008AD07FE775290ED078297FF47BAF5839DA
:109B8000261D206843464A4234462E464A4110214B
:109B9000FFF74AFD95E7231D00220A212068039361
:109BA0004346FFF741FDA0E7251D434600220A2159
:109BB0007AE72068251D0028FFF678AF43467BE74B
:109BC0002068231D0028039385DB434689E70EB4F4
:109BD0000FB505AB0190074901A853F8042B039377
:109BE000FFF7F3FE0022019B1A7004B05DF804EB4E
:109BF00003B07047698200082DE9F043384B8DB0FF
:109C000006461B880CAA09A822F80E3D29F04DFA39
:109C1000BDF922203C2192FBF1F301FB13211DB27F
:109C2000BDF8243009B20029B8BF4942B3F5FA6F34
:109C300044D39DF82630013B0B2B3FD89DF82730AD
:109C4000013B1E2B3AD89DF82830172B36D89DF8AB
:109C500029303B2B32D89DF82A303B2B2ED8BDF82B
:109C60002C30B3F57A7F29D20124002D9DF82700EE
:109C70009DF82870B4BF4FF02D094FF02B09002D2F
:109C80009DF829E09DF82AC0BDF82C80B8BF6D4230
:109C90000791BDF824209DF826300695CDF8149044
:109CA000CDF81080CDF80CC00E498DE881403046CB
:109CB000FFF78DFF20460DB0BDE8F08300200123A3
:109CC000ADF8240004468DF826308DF827308DF845
:109CD00028008DF829008DF82A00ADF82C00C4E783
:109CE0009C920120598F04080FB437B506AB0B497D
:109CF0000B4853F8042B096800680193FFF765FED1
:109D0000084D0446286809F0FEFD0028FAD02046D8
:109D100003B0BDE8304004B0704700BF604A012086
:109D2000644A012054BC01202DE9F04F00F1100ECF
:109D300085B007460546002600F14009B0462B468F
:109D4000BC4615E0F4EC016A1AED047AD3ED007A12
:109D5000E6EEC77AC3ED007AAC420AF1100AF1D1FF
:109D600008F101080CF1040C0433B8F1040F03D01E
:109D7000AEF11004E246EFE74FEA860B73464B451F
:109D80001ED003EB0B0AB8469C4609E0FCEC016AC6
:109D900018ED047AD4ED047AE6EEC77AC4ED047ABD
:109DA000D44508F11008F1D1D4ED046A103395EDD3
:109DB000007AC6EE877A17EE90CA44F810CFDEE735
:109DC000013614350EF1100E0437042EB6D10024DE
:109DD00002F1100C07460646009401940294039485
:109DE0006C4652F8045BEE4625603546BD4225D1EF
:109DF000624504F1040406F1100605F11407F0D1E0
:109E000004AE00F13C0556F8044D0A4642F80C4FEA
:109E10002C4604340432D1ED037AA34219D12A46E8
:109E2000103B143D0439D2ED006A834287EEA67AD6
:109E300081ED047AE7D105B0BDE8F08FBEEC017A80
:109E4000D4ED007AF5EC016AE6EEC77AC4ED007A4B
:109E5000CCE7D4ED006A92ED007AE6EEC77AC1ED68
:109E6000037AD6E71FB50C46024669461030FFF765
:109E70005BFFB6EE007ADDED007A67EE877AC4ED1F
:109E8000007ADDED017A67EE877AC4ED017ADDEDC7
:109E9000027A67EE877AC4ED027A04B010BDD1ED84
:109EA000007AB7EE005A90ED066AB8EEE77AD0ED88
:109EB000047AD0ED095AE7EE077AC0ED047AD1EDC5
:109EC000017AF8EEE76AD0ED057AE7EE267AC0ED82
:109ED000057AD1ED027AF8EEE77AA7EE276A80EDEF
:109EE000066A90ED076A36EE076A80ED076A90ED24
:109EF000086AA7EE266A80ED086A26EEA66A75EE65
:109F0000865AA7EE076AC0ED095AD0ED0A5AE6EE66
:109F1000A75AA7EEA76AC0ED0A5AD0ED0B5A75EE04
:109F2000A65AC0ED0B5AD0ED0C5AE7EE275AC0EDF9
:109F30000C5AD0ED0D5AE6EEA75AC0ED0D5AD0EDF1
:109F40000E5AE7EEA75AC0ED0E5AD0ED0F5A75EE35
:109F5000A75AC0ED0F5AD0ED105A75EE875AC0EDD2
:109F6000105AD0ED115A75EEA65AC0ED115AD0ED27
:109F7000125A75EEA75AC0ED125AD0ED135A75EE6B
:109F8000855AC0ED135AD0ED005AE7EE065A90ED0F
:109F9000017AA6EE867AC0ED005A80ED017A90ED46
:109FA000027AA7EE867AD0ED037A37EE866A80EDE4
:109FB000036A80ED027A704700F1400103460022F7
:109FC0001A6110335A609A60DA608B4240F8042BB1
:109FD000F6D1704780EAE073A3EBE0738B4206DBB7
:109FE000002801DD401A704702D008447047002065
:109FF000704748F6A043984203DDA0F50C40A03816
:10A0000070470028B8BFC018704744F250639842A8
:10A0100003DDA0F50C40A0387047034B9842BCBF4D
:10A0200000F50C40A0307047B0B9FFFF08B52DED2A
:10A03000028BB0EEC08AF0EE408AB7EE000A30EE36
:10A04000480A36F04FFE9FED0E7ADFED0E7AF5EE00
:10A05000C08AE8EE077A9FED0C7AF1EE10FAA8EECE
:10A06000277ADFED0A7AE8EE077ABDEC028B27EE5D
:10A07000800A44BFDFED067A37EEC00A08BD00BF94
:10A08000306E99BC2716983D843459BEA40DC93F43
:10A09000DB0F4940F0EEE06AB0EEC07AF4EEC76A3A
:10A0A000F1EE10FAD4BFB0EE476AB0EE666AB5EED4
:10A0B000406AF1EE10FA47D0F4EEC76AF1EE10FAFA
:10A0C00054BFF0EE475AF0EE665AC5EE867A9FED21
:10A0D000206ADFED205A9FED205AE7EE865A9FED69
:10A0E0001F6AF4EEC76AF1EE10FAF5EEC00AA7EEA9
:10A0F000A56ADFED1B5A48BF9FED1A7AE7EE865A34
:10A100009FED196AA7EEA56ADFED185AA7EEA55ACA
:10A11000F7EE005AB1EE466AE7EE855AC6EE257AAA
:10A1200048BF77EE677AF1EE10FAB5EEC00A44BF89
:10A130009FED0F7A77EE677AF1EE10FA48BFF1EEF5
:10A14000677AB0EE670A7047DFED0A7ABFE700BFB3
:10A1500039094E3DE3B59EBE69A2163E88FA16BE89
:10A1600045FE7FBFDB0FC93FA7DFA8B499FB243FA3
:10A17000DB0F494000000000FDEEC07A17EE903A78
:10A180002033402B43D8DFED237A9FED237AB4EEC2
:10A19000E70AF1EE10FA28DCDFED207A9FED1E7A57
:10A1A000B4EEE70AF1EE10FA22D4DFED1D7AB4EE38
:10A1B000E70AF1EE10FA1EDD30EE670A37EEC00A4C
:10A1C00060EE007ADFED176A9FED177AA7EEA67AA8
:10A1D000DFED166A20EE276AE7EE876A9FED147AB4
:10A1E000A7EEA67AA6EE070A704730EE470ACEE73A
:10A1F00030EE070AD4E79FED0F7AB4EEC70AF1EE0E
:10A2000010FA44BF30EE270A37EE400AD8E79FED38
:10A210000A0A7047DB0F4940DB0FC940DB0F49C01A
:10A22000DB0FC93F9A7C2E36FAAF4FB93587083C11
:10A23000A4AA2ABEDB0FC9BF00000000DFED027A2E
:10A2400030EE270A98E700BFDB0FC93F91ED005AB7
:10A2500008B5B0EE450AFFF7F1FFF0EE405AB0EE58
:10A26000450AFFF789FFD1ED014AB0EE405AB0EE42
:10A27000640AFFF7E3FFB0EE404AB0EE640AFFF76E
:10A280007BFF91ED023AF0EE403AB0EE430AFFF761
:10A29000D5FFF0EE404AB0EE430AFFF76DFF65EEE2
:10A2A000806A25EEA46AC0ED023A65EE247A64EE77
:10A2B000244A25EE007AB0EE463AC0ED004AF0EEB0
:10A2C000664A24EE400A25EE445AE3EEA74AE3EE3E
:10A2D000A67A80ED010A65EE845A80ED055AC0ED3C
:10A2E000085AC0ED034AF1EE634AC0ED077AA4EEC6
:10A2F000873AA4EE867A80ED043A80ED067A08BDAE
:10A3000038B5334CF0EE404A1D46F7EE005AB4FB28
:10A31000F2F4A1424FF0000453D207EE901A9FEDE1
:10A320002D7ADFED2D6AF8EE677A67EE877A07EE11
:10A33000102AB8EE477A27EE267AC5EE876A87EEAE
:10A34000A63AB0EE430AFFF717FFF0EE402AB0EE50
:10A35000430AFFF773FF74EEA44AF8EE006A82EE38
:10A36000A47AF5B1012D25D077EE257A20EE260AC4
:10A3700075EEC75A85EE276AC0EE276A85EEA77A82
:10A3800080ED006A84EE276AC0ED036A80ED047AEE
:10A3900080ED016A83EEA76A80ED026A8461446100
:10A3A00038BD35EEC04AB6EE005A24EE055AF0EE3E
:10A3B000453AD9E720EE264AF0EE653AB0EE655A06
:10A3C000D2E7C0ED005A44608460C4600461E5E7F0
:10A3D00020A10700DB0FC940BD37863500239FED64
:10A3E000010A8DE7F304353F07EE902AB8EE670ABD
:10A3F00007EE903AF8EE677A30B52DED028B83B018
:10A4000080EE270A0D460446019236F0FDF830EE44
:10A41000008AB0EE000AF0EE480A36F0CFFA36F0C5
:10A4200061FCF0EE480AF0EE408AB0EE000A36F029
:10A43000C5FAF7EE007A01232A460199204630EE4C
:10A44000670A88EE800A03B0BDEC028BBDE830409D
:10A4500056E7D0ED017AF5EE407AF1EE10FA09D127
:10A46000DFED0E7AB7EE007A60EEA70AC7EE207A2B
:10A47000C0ED017A90ED017AD0ED007A31EE077AE5
:10A4800080ED021A30EE670AC1EE076AE6EE807AC6
:10A49000B0EE670AC0ED007A704700BFDB0FC9401D
:10A4A00090ED017AD0ED007A30EE877AC0ED020AA5
:10A4B00030EE670AC0EE876AE6EE807AB0EE670A91
:10A4C000C0ED007A70474840082310F0800F4FEA33
:10A4D000400018BF80F0D500013BC0B2F5D17047F5
:10A4E00010B50A440C46944200D110BD14F8011B6B
:10A4F000FFF7E9FFF7E74A09012301F01F0103FA1B
:10A5000001F150F822300B4340F8223070470EB46E
:10A51000244B1B68002B70B50646A5B030DA224BE1
:10A5200004A8224C19684FF47A73B1FBF3F203FBD1
:10A5300012131F49FFF74BFB04AB299A054603444E
:10A540001C4903A803932AAB0293FFF73EFA039B2F
:10A550000246591C03910A211970039B591C03914F
:10A5600000211970206880B103681B6A03B1984705
:10A5700004A92068FEF732FA16B1206829F0A4FF7A
:10A5800025B0BDE8704003B070470B4B1B68002B33
:10A59000F6D002212A44FD2000910A4404A922F0A9
:10A5A00015FAEDE76C5F012034CF0120584D0120F2
:10A5B000878F04085F820008744A012038B5144B65
:10A5C00003301C6804EB9002B2F5007F14D8114DE3
:10A5D00020F003001A60920005EB84040E4DC2F5D2
:10A5E000006255F82130184445F8210000200B493D
:10A5F000FFF78DFF204638BD09490020FFF787FF90
:10A60000084A0024136843F000731360F2E700BFA8
:10A61000B0370120BC270120B4370120938F0408F4
:10A62000B68F0408405E012008B5D0F814320BB98B
:10A63000022008BD1B6898470028F9D108BD2DE904
:10A64000F04F0B6885B0DFF8A88101930023664ABC
:10A65000DFF8A0914FF0010E019C0EFA03FE0EEA06
:10A660000406B64540F0AB804C6824F01007022F7A
:10A6700016D14FEAD30A03F0070B4FF00F0C00EB93
:10A680008A0A4FEA8B0BDAF820500CFA0BFC25EA09
:10A690000C0C0D6905FA0BF545EA0C05CAF82050BB
:10A6A0004FEA430A0325D0F800B004F0030C05FA82
:10A6B0000AF5013F0CFA0AFCED43012F0BEA050BEA
:10A6C0004CEA0B0CC0F800C011D8876807EA050BEC
:10A6D000CF6807FA0AFC4CEA0B078760476827EA4D
:10A6E0000E0EC4F300179F4047EA0E074760C76885
:10A6F0003D408F6807FA0AF73D43C560E5005ED527
:10A70000D8F8445023F0030703F0030E4FF00F0C6A
:10A7100045F4804507F180474FEA8E0EC8F8445053
:10A7200007F59C37D8F8445005F480450395039D00
:10A730000CFA0EF5D7F808A02AEA050C2B4DA84212
:10A7400044D005F58065A84242D005F58065A84251
:10A7500040D005F58065A8423ED005F58065A84249
:10A760003CD048453CD005F50065A8423AD005F5F7
:10A770008065A84214BF0825072505FA0EF514F4D4
:10A78000803F45EA0C05BD606FEA060715680CBFFF
:10A790003D40354314F4003F156055680CBF3D4003
:10A7A000354314F4801F556095680CBF3D40354318
:10A7B000A4029560D56854BF3D403543D560013350
:10A7C000102B7FF447AF05B0BDE8F08F0025D4E72C
:10A7D0000125D2E70225D0E70325CEE70425CCE703
:10A7E0000525CAE70625C8E7003C014000000240F5
:10A7F00000380240001402407FB578B183880068B9
:10A80000019301F0130305920293C1F34113C1F3C5
:10A8100081010393049101A9FFF711FF07B05DF8CF
:10A8200004FB30B50C4687B0054698B100211422D0
:10A8300001A838F0AEF8AB8801A92868019304F0AC
:10A8400013030293C4F34113C4F3810403930494E8
:10A85000FFF7F5FE07B030BD08B5FEF70DF948B1BA
:10A860001D22202182710E22C27100220272BDE8D7
:10A870000840D6E708BD036810B51A790446022AD5
:10A8800002D1987AFFF7E8FF00232360237110BDFF
:10A8900070B51E46244D254B9D4219D26C798C42D1
:10A8A0003AD12C79844201D0002835D12C7A9442B7
:10A8B00032D12C682C220021204638F06AF825601D
:10A8C0002B792371012BEA88A26003D0022B0BD0D5
:10A8D000002407E0E87AFEF7CFF860616B7A237313
:10A8E000AB7A6373204670BDE87AFEF7C5F8606105
:10A8F0006B7A2373A87AFEF7BFF80546206168B12A
:10A900000E2386710D21C37100230372FFF789FFA7
:10A910002069FEF7DDF8E5E70C35BDE720462C465B
:10A92000FFF7A9FFDEE700BFE80100089C0200086E
:10A9300000232DE9F743254C1A4621210120FFF77A
:10A94000A7FF0546606300283DD00526962008F045
:10A95000F6FC0DF1070200212846FEF725FA07460E
:10A9600058B30022606B00261146FEF753FA3C20D4
:10A97000FEF7A8FA012008F0E2FC5FFA86F8D4F8A6
:10A980003490002201364FEA88054846EDB2A91DF1
:10A9900001F0FE01FEF73EFAE91D00224846C9B269
:10A9A000FEF738FA40F2DC514046FEF752FA102E1C
:10A9B000E3D1384603B0BDE8F083013EC6D1606BF9
:10A9C000FFF759FFF5E70746F3E700BFE82401204A
:10A9D0002DE9F04F1E2287B004460021C84837F009
:10A9E000D8FF0022C74B1046A15C4D1E032D94BF1B
:10A9F00043F8221043F822000132042AF4D1002245
:10AA000053F82210012900F003830132042AF7D100
:10AA1000002253F82210022900F004830132042A94
:10AA2000F7D1002253F82210032900F005830132E8
:10AA3000042AF7D10022114653F82200042808BF47
:10AA400043F822100132042AF6D1AF4F0F25AC4C47
:10AA50004FF0000A07F19408DFF8BC92A07940B3E8
:10AA600094F90760FEF708F820B10723C5718371D8
:10AA7000002303720321FFF7D4FEA179002318F805
:10AA800013005A00884240F04682BB1893F8953074
:10AA90002372C02303FB0693D3F89421511C6272E6
:10AAA0000722C3F89411E27201229244A27283F841
:10AAB000902101350634EDB2132DCFD1BAF1000F3C
:10AAC00000F04582914B0020DFF85082A3F5987E7C
:10AAD0008F4C93F86020002A00F034825F6E0121D1
:10AAE0004FF440328F4243F8301C43F8442C4FF06F
:10AAF000000243F8181C4FF0C00143F82C7CD8BF6B
:10AB0000002743F8402CC8BF012743F8202C43F806
:10AB10001C2C43F83C2C43F8282C43F8242C43F8F5
:10AB2000342C01FB00E153F8582C43F8387C43F8EF
:10AB3000482CD1F828511DB9C1F82C5103F80C5CF0
:10AB4000C02505FB00E5D5F8281111F0100140F0F3
:10AB5000E881D5F8286126F4885626F0020646F0EA
:10AB60000206C5F82861666826F4403666606668A5
:10AB700046F440366660566826F48076566056681D
:10AB800046EA07275760566826F0407656605668B2
:10AB90005660966826F40066966096689660966899
:10ABA00026F07066966096689660966826F0405625
:10ABB000966096689660966826F00206966096689B
:10ABC00046F002069660566826F40066566053F812
:10ABD000486CF26A22F47002F26253F82C2CF76A85
:10ABE000013A47EA0252F262B26822F40072B2609D
:10ABF00053F8182CB76847EA4222B260B26822F4D0
:10AC00008062B26053F8342CB76847EA8222B2609F
:10AC1000C5F82C11D5F8282122F0030242F00102D8
:10AC2000C5F82821002203F80C2C002940F08A8165
:10AC30004FF480629960D96002271A614FF4006274
:10AC400059625A614FF40052D9629A614FF480728E
:10AC50001963DA614FF4003283F83410C0211A62AC
:10AC6000032253F84C5C01FB00E19A62294E53F831
:10AC7000502C36685D601A6081F86571116821F0AA
:10AC8000010111601168CF0700F14D81166845F48C
:10AC90000B3118251A4F26F0FF5641F480714FF002
:10ACA0001F0926F4772626F47C663143116051692A
:10ACB00021F007015161D1B222F47F72103922F0E4
:10ACC0000302B1FBF5F1104D03290D4488BF043296
:10ACD0003F2195F8B4509A65A9409A6DDD6500252D
:10ACE0009160C0210122019501FB00E1C1F884516E
:10ACF00081F86521A3F1480143F8103C99630FE006
:10AD00004025012034500120302C0408300101205E
:10AD100000230140747B012000000120002001403D
:10AD200041B20391B97A002955D097F90710039DD4
:10AD3000A94250D1511C3D7A97F80BC0C9B202917B
:10AD40000199049113F80C1C012900F0FB804FF0CD
:10AD50000101092D03F80C1C53F8481C40F2FA803D
:10AD60004FF0030B6FF01D06D1F80CA01BFB05661E
:10AD70004FF0070B0BFA06FB0CFA06F62AEA0B0A51
:10AD8000C1F80CA0D1F80CA046EA0A06CE60062A4B
:10AD900000F2F1806FF0040C4FF0050A4E6B1AFBC5
:10ADA00002C209FA02FC05FA02F226EA0C064E6318
:10ADB0004E6B32434A6353F8482C424506D1122D5C
:10ADC00040F04481626842F4800262609DF8042091
:10ADD00003F80C2C029A0637A049B942A2D10022EE
:10ADE000D3F86490059213F80C2C012A00F0AA8085
:10ADF000012253F8485C03F80C2CAA68D60740F1EE
:10AE0000E080AA68D10740F19D80C02101FB00E1EC
:10AE1000D1F8282122F4E06222F0010242F480728B
:10AE2000C1F828216A68520507D5D1F8282122F4F3
:10AE3000405242F48052C1F82821C02202FB00E2B5
:10AE4000D2F8281111F4805103D0D2F82C1121F03E
:10AE50000601C2F82C11002253F8106C804903F847
:10AE60000C2CF1637F4931647F49F1646FF022015A
:10AE70002960696841F080616960A96841F4807166
:10AE8000A96096F83410012936D00121D6F858C0AF
:10AE900086F8341096F83510012940F0A8807349DF
:10AEA000C8274C3507FB0017022186F8351031689A
:10AEB00072650A6822F480220A60142202FB09F2F9
:10AEC0004A60B268402A40F08F808F60CD60F56D97
:10AED0003F22AA40CCF808200A6842F016020A6015
:10AEE0004A6942F080024A610A6842F008020A6038
:10AEF0000A6842F001020A60626812F01F0F53F8FC
:10AF0000482C77D1916811F0405F1BD1916841F0D6
:10AF10008041916016E00133102B7FF4B0AD002327
:10AF2000B6E501217EE652490968891B05297FF6AD
:10AF3000A9AEC022202102FB00E2C2F88411032145
:10AF400082F865110130C03303287FF4C2AD07B029
:10AF5000BDE8F08F05EB450B4FF0070A0E690AFAC2
:10AF60000BFA0CFA0BFC26EA0A060E610E694CEA93
:10AF700006060E610BE70C2A11D84FF0050C6FF096
:10AF8000220A0E6B1CFB02A209FA02FC05FA02F26D
:10AF900026EA0C060E630E6B32430A630BE74FF092
:10AFA000050C6FF0400ACE6A1CFB02A209FA02FCF3
:10AFB00005FA02F226EA0C06CE62CE6A3243CA6273
:10AFC000F9E6AA682B4942F00102AA602A4A1268EF
:10AFD000B2FBF1F202EB42020592059A002A3FF41D
:10AFE00010AF059A013AF7E78D60CF606FE786F8FA
:10AFF000342081E74245A5D1D8F8082012F0405FFF
:10B00000A0D1D8F8082042F08042C8F8082099E77B
:10B010001A4A312182F85E1092F87610013182F8D6
:10B020007610F5E4154A322182F8641092F8761011
:10B03000013182F87610F4E4104A302182F86A1067
:10B0400092F87610013182F87610F3E4112D7FF436
:10B05000BDAE626842F40002B7E600BF5825012089
:10B06000ED830008EB830008DB83000862250120E4
:10B07000747B012040420F00AC230120E824012012
:10B080000023174A70B5C36603681568196811F084
:10B09000080F114604D0134EDA6912F4001209D0D9
:10B0A000202380F8693080F86A30002380F8683007
:10B0B000184670BD0C68641BB442EDD9196821F4C0
:10B0C000D0711960996821F001019960202380F8FE
:10B0D000682080F8693080F86A30032070BD00BFB6
:10B0E000747B0120FEFFFF01436ADA0710B506D525
:10B0F0000168846A4A6822F4003222434A609C074D
:10B1000006D50168C46A4A6822F4803222434A6044
:10B11000590706D50168046B4A6822F4802222434D
:10B120004A601A0706D50168446B4A6822F4004257
:10B1300022434A60DC0606D50168846B8A6822F4E3
:10B14000805222438A60990606D50168C46B8A68DA
:10B1500022F4005222438A605A0610D50168046C1A
:10B160004A68B4F5801F22F4801242EA04024A6061
:10B1700005D14A68446C22F4C00222434A601B068F
:10B1800006D50268816C536823F400230B43536097
:10B1900010BD10B590F86A300268222B28D1836860
:10B1A000B0F85C10B3F5805F436D1BD10469CCB976
:10B1B000526A114023F8021B4365B0F85A30013B34
:10B1C0009BB2A0F85A305BB90268116821F4907103
:10B1D0001160916821F001019160202280F86A20BD
:10B1E000002010BD526A5C1C114044651970E4E7F0
:10B1F0009369022043F00803936110BD82B0054BB0
:10B20000019018681A680199121A8A42FAD302B09A
:10B21000704700BF747B01200A4B013B01D1032022
:10B2200070470269002AF8DA0369064A43F001030D
:10B230000361013AF3D0036913F00103F9D1184611
:10B24000704700BF410D030010B500240129C0F86C
:10B25000104BD0F8104B44F40024C0F8104BD0F839
:10B26000104B44F01804C0F8104BD0F8104B44F0C9
:10B27000C044C0F8104B05D14FF08023C0F8142B08
:10B28000C0F8003B002010BD304A0368904212D045
:10B29000B0F1804F0FD0A2F57C4290420BD002F566
:10B2A0008062904207D002F58062904203D002F59E
:10B2B000784290421DD14A6823F070031343234A19
:10B2C000904204D123F44073CA68134328E0B0F1DC
:10B2D000804FF7D01E4A9042F4D002F5806290422F
:10B2E000F0D002F580629042ECD002F578429042B4
:10B2F000E8D0184A9042E5D002F580629042E1D051
:10B3000002F580629042DDD0A2F598329042D9D009
:10B3100002F580629042D5D002F580629042D1D091
:10B320004A6923F08003134303608B68C3620B6890
:10B330008362064B984206D003F58063984202D0A0
:10B340000123436170470B690363F9E70000014083
:10B3500000040040004001400368012202FA01F1AC
:10B360001A6A22EA01021A621A6A1143084A9342CF
:10B37000196203D002F58062934203D15A6C42F401
:10B3800000425A641A68002042F001021A607047B5
:10B39000000001404BB21C22002B4FEAD37310B5C2
:10B3A000044601F07F00ACBF02FB014102FB0041FB
:10B3B0004FF00102A8BF01F5FC71C0B2B8BF38312F
:10B3C0008A7008704B7094F8B833934224D084F894
:10B3D000B8234B782268012B09784FF020030CBF6B
:10B3E00002F5106202F5306213FB01231A68002A8D
:10B3F00003DB1A6822F080421A601A6842F40012D5
:10B400001A6028B904F56F72217C2068FFF71CFFD1
:10B41000002084F8B80310BD022010BD38B501F03B
:10B420007F051C2404FB050104FB05043831E3649B
:10B43000002362642365012384F8385084F839308E
:10B440000369012B08BFA264DAB200681DB9FCF7DA
:10B45000FFFF002038BDFDF768F8FAE708B50423C0
:10B46000C0F8F4310023D0F830021A461946FFF72D
:10B47000D5FF002008BD08B5134602228361C0F83D
:10B48000F4210A46C3610021D0F83002FFF7C6FF5D
:10B49000002008BD38B501F07F051C2404FB050120
:10B4A00004FB050401F5FC71C4F80C320023C4F858
:10B4B0000422C4F8103284F8F93184F8F851036991
:10B4C000012B08BFC4F80822DAB200681DB9FCF7E6
:10B4D000BFFF002038BDFDF728F8FAE770B50B78FC
:10B4E00004460D4613F060022CD0202A23D1CA88CE
:10B4F000487812B31B06D4F818620AD5D4F81C3267
:10B5000031469B689847EA8831462046FFF7B3FFEB
:10B5100011E0032386F8012286F800020021C4F816
:10B52000F4311346C4F80821C4F80C213246D4F88B
:10B530003002FFF7AFFF002070BDD4F81C329B68CB
:10B540009847F8E74B780A2BF5D101220049DDE74F
:10B55000BC2F012070B54EB201F07F041C25002ED7
:10B56000B8BF05FB0401E4B2A8BF05FB01014FEA27
:10B57000D675B4BF383101F5FC71002EB8BFCC8050
:10B58000022BCB7008BF00230C704D7008BF0B71ED
:10B590008A6090F8B833012B43D00126036880F805
:10B5A000B86303F500644A780D78B2421FD1AA400F
:10B5B000E66903F5106392B23243E26103EB451290
:10B5C00013681C040ED48C68CB78C4F30A04166884
:10B5D00044F0805444F4004444EA834343EA8553EE
:10B5E00033431360002380F8B833184670BDE26916
:10B5F000AE4003F5306342EA064603EB4513E661CD
:10B600001A681204EED48A68C978C2F30A021C6868
:10B6100042F0805242F4004242EA814222431A60E0
:10B62000E0E7022070BDF8B5037C0446A3BB02230B
:10B630004FF400728121D0F83002FFF78BFF022314
:10B640004FF400720121D4F83002FFF783FF032387
:10B6500008228221D4F83002FFF77CFF4FF40770F4
:10B6600037F05EF90646C4F8180248B3D4F81C3225
:10B6700000251B689847277CC6F81452C6F8185254
:10B68000A7B94FF40073D6F804220121D4F8300290
:10B69000FFF700FF3846F8BD022340228121D0F891
:10B6A0003002FFF757FF02234022CBE74023D6F8B2
:10B6B00004220121D4F83002FFF7ECFE2846F8BD41
:10B6C0000120F8BD094B4FF460429B6892FAA2F248
:10B6D000B2FA82F203F46043D340054A1344054AA8
:10B6E00093F8BC301068D840704700BF0038024063
:10B6F000302C0408AC230120094B4FF4E0529B6826
:10B7000092FAA2F2B2FA82F203F4E053D340054A6D
:10B710001344054A93F8BC301068D840704700BF06
:10B7200000380240302C0408AC230120194A9368E9
:10B7300003F00C03042B10B503D0082B03D01648DC
:10B7400010BD164810BD516847F6C074536801F02B
:10B750003F0113F4800F536894FAA4F0B0FA80F01C
:10B7600003EA04034FF4403223FA00F314BF0B48FA
:10B770000948B0FBF1F05843064B5B6892FAA2F21D
:10B78000B2FA82F203F44033D34001335B00B0FBE2
:10B79000F3F010BD003802400024F40000127A00DB
:10B7A00038B504460568C3692169A26828680A4358
:10B7B00061690A4397491A430140206A0A43E168D4
:10B7C0002A606A6822F440520A436A60A269A96842
:10B7D000024321F430610A43AA608F4A95421BD18B
:10B7E00002F59432D2F890108C4A01F003010A4419
:10B7F00092F8C420B3F5004F40F0BB80082A00F255
:10B80000B580DFE812F02A00F100F700B300030171
:10B81000B300B300B3004500814A95420AD102F556
:10B82000FA32D2F890107D4A01F00C010A4492F8E5
:10B83000C820DFE77B4A95422FD102F5F832D2F8D3
:10B84000902002F03002102A00F0DD8017D8002A84
:10B850005AD1B3F5004F40F0A380FFF74DFF616868
:10B860004A0802EB4003B3FBF1F39BB2002023F044
:10B870000F02C3F3420321681343CB6038BD202A73
:10B8800000F0B580302A3FD1B3F5004F40F0A480DE
:10B890006068430803F58033B2E0634A95420ED1F5
:10B8A00002F5F632D2F8902002F0C002402A00F0F1
:10B8B000AA80CCD9802A00F09A80C02AE3E75B4AAC
:10B8C000954211D102F5F432D2F8902002F4407280
:10B8D000B2F5807F00F09780B9D9B2F5007F00F013
:10B8E0008680B2F5407FCEE7514A954217D102F5E6
:10B8F0009232D2F8902002F44062B2F5806F00F0EC
:10B90000828006D8002A6CD0B3F5004F2ED00120DB
:10B9100038BDB2F5006F6AD0B2F5406FB3E7454A63
:10B9200095420FD102F5E032D2F8902002F4405255
:10B93000B2F5805F67D08AD9B2F5005F57D0B2F513
:10B94000405FA0E73C4A9542DED102F5DE32D2F8F4
:10B95000902002F44042B2F5804F54D07FF677AF8A
:10B96000B2F5004F43D0B2F5404F8CE701200023E1
:10B970007DE7082ACBD801A353F822F0A1B900082B
:10B98000B7B90008BDB900080FB90008D3B900085D
:10B990000FB900080FB900080FB90008D9B900089D
:10B9A000FFF7AAFE636800EB5300B0FBF3F080B230
:10B9B000E860002038BDFFF785FEF3E762685308B2
:10B9C00003F5740303F51053B3FBF2F39BB2EB6082
:10B9D000EFE7FFF7ABFEE5E76268530803F50043C6
:10B9E000F2E7B3F5004FE6D1FFF76CFE37E7B3F5AA
:10B9F000004FE3D16068430803F1F47303F590430B
:10BA0000B3FBF0F331E7B3F5004FE2D1FFF78EFE61
:10BA100025E700BFF369FFEF00100140302C040858
:10BA20000044004000480040004C004000500040EE
:10BA30000014014000780040007C004003680422AC
:10BA4000002002FA01F11A6A22EA01021A621A6A55
:10BA5000114319625A6C42F400425A641A6842F067
:10BA600001021A6070472DE9F74F9946404D9DF845
:10BA7000303080468B469246009395F8D53A072B96
:10BA800008D900263B490020FEF741FD304603B0AF
:10BA9000BDE8F08F07F096FB0746002865D095F8C3
:10BAA000D54A05F6D82698F80400621C04EB440336
:10BAB000D2B206EBC30685F8D52A0192FCF7DCFF6B
:10BAC000034628B10421019A817102210272C171D9
:10BAD000009A002A3CD098F8082002211846FEF768
:10BAE0008BFE4FF018085A465146384608FB04585A
:10BAF000C8F8D87A24F000FE4946D8F8D80A24F0CD
:10BB0000B7FCD8F8D83A5A681B689179527911F085
:10BB1000040F19495868895C24D0FFF78FFF182358
:10BB2000022203FB0454D4F8D80A03685B6819683E
:10BB300083F83D200A6842F001020A60012283F87E
:10BB40003D2024F07FFC0023C4F8E40A03609DE755
:10BB5000184611210093FEF764FE009B1846FCF77F
:10BB6000B1FFBEE7FFF7F8FBD9E706468EE700BF57
:10BB7000E8240120CF8F0408206D04081F4B30B546
:10BB80001C68B4FBF1F303F57F43FF331B0CB4FBDC
:10BB9000F3F4B4FBF1F52DED028B83B000232146C5
:10BBA000F0EE408A0092AAB2B0EE608AFFF75BFF27
:10BBB000F8B1B5EE408A07EE904A9FED117A012365
:10BBC000F8EE677AF1EE10FA03720BBF06EE905AA8
:10BBD00027EE888AF8EE666A88EE076A08BF86EE66
:10BBE000876A27EE467A80ED056AA7EEA87A80ED8F
:10BBF000047A03B0BDEC028B30BD00BFAC23012042
:10BC000000007A4430B50568C1F30901039C6868F7
:10BC1000234320F07F70194320F4593041EA024158
:10BC200020F47F7020F003000143696030BDF0B55F
:10BC3000059D06680D4FB46931EA04040CBF012468
:10BC40000024944201D00020F0BD5C1CF3D01BB155
:10BC50003C68641BA342EED2202380F841300023CD
:10BC600080F8423080F840300320F0BD747B012022
:10BC700003689A69910701D500229A629A69D207EE
:10BC800003D49A6942F001029A6170470268436BDB
:10BC90009169126803B11847704790F83530022B4C
:10BCA00003D080234365012070470268052380F894
:10BCB00035300020136823F0010313607047002320
:10BCC0002F4A10B580F842300446C2624385436C67
:10BCD0001943416490F84130282B07D090F8413047
:10BCE000292B03D090F841302A2B21D10321204663
:10BCF000FCF70EFD282384F8413000232363214BF9
:10BD00006363236819681A6811F480411DD022F416
:10BD10008042A06B1A601C4B0365002384F84030FE
:10BD2000FFF7BBFF58B3A06B036DBDE81040184789
:10BD30000721FCF7EDFC94F84130602B02D0202362
:10BD400084F8413000232363DAE712F400420DD077
:10BD50001A68E06B22F400421A600B4B036584F80A
:10BD60004010FFF79AFF50B1E06BDDE794F84130E7
:10BD7000602B02D1202384F8413084F8402010BD8C
:10BD80000000FFFF8DBD00086F87000870B590F8B8
:10BD9000403004460D461646012B00F01781012362
:10BDA00080F84030CB0640F19880D00640F1958075
:10BDB000638D9BB2002B40F08880E36AB3F1007F73
:10BDC00003D0E36AB3F1007F6AD194F84130282BA5
:10BDD00066D129462046FCF7DDFCAB065CD5B606ED
:10BDE0005AD52368202207212046DA610822DA6129
:10BDF000FCF78EFC236820465A6842F400425A60E1
:10BE00005A6822F0FF7222F48B3222F4FF7222F081
:10BE100001025A60FFF72CFF22681368580402D40D
:10BE20001368190409D594F84130212B0CBFA36B7A
:10BE3000E36B1B685B689BB26385638D9BB21BB130
:10BE4000636C43F0040363646B0710D5636A526A42
:10BE5000591C61621A70238D4BB1013B2385638DA0
:10BE6000013B9BB26385636C43F00403636400236E
:10BE70002363636384F84230636C002B00F0998085
:10BE8000616C2046FFF71BFF94F84130282B03D14B
:10BE900029462046FCF77EFC002084F8400070BD57
:10BEA000E36A13F5803F23680CD094F84120292AD7
:10BEB00008D110222046DA61FFF7DAFE2046FCF7AF
:10BEC00097FC8AE71022DA6187E723681022DA619B
:10BED000636C43F0040363647FE769071BD5720753
:10BEE00019D5638D9BB263B1636A5A1C6262226882
:10BEF000526A1A70238D013B2385638D013B9BB2EF
:10BF00006385638D9BB2002B7FF467AFE36A13F503
:10BF1000803FD3D161E72B072CD530072AD594F881
:10BF20004130226803F02803282B20D193699169BE
:10BF30009368D068E068022813D1C3F3C21383EA80
:10BF4000114313F006030CD1A16C0131A164A16C63
:10BF500002297FF442AF0821A364D16184F8403004
:10BF60003BE704212046FCF7D3FB0023F6E7082338
:10BF7000D361FAE7A9077FF530AFB2077FF52DAFA0
:10BF8000638D9BB26BB1636A2268591C61621B7836
:10BF90009362638D013B9BB26385238D013B2385B7
:10BFA0001BE7E36AB3F1807F88D0E36A002B85D07A
:10BFB00013E7E36A13F5803F05D0054BE3622023C6
:10BFC00084F8413068E794F84130F8E7022070BD0A
:10BFD0000000FFFF036899691A6810B4CC0508D502
:10BFE000140606D5446C44F0010444644FF4807494
:10BFF000DC614C0508D5140606D5446C44F00804F1
:10C0000044644FF48064DC61890508D5120606D5C6
:10C01000426C42F0020242644FF40072DA61436CF7
:10C0200013F00B0F03D0416C5DF8044B47E65DF84D
:10C03000044B7047002808DB4209012300F01F0071
:10C0400003FA00F0014B43F82200704700E100E0E2
:10C050002DE9F0411A4D06460F461A4C2B783BB19C
:10C06000D4E90023994208BF904224BF00232B70DB
:10C07000DFF85480D8F8203040469847C2070CD5E6
:10C080000123237280F00203C3F340032B70D8E92D
:10C09000042392197B41C4E90023430744BF0123D1
:10C0A00063722369F61A002EC4BF01232372237A18
:10C0B00013B9607ABDE8F0810120BDE8F08100BFCE
:10C0C00005A9012020330120A092012000F13C01AC
:10C0D00030B5074B024603F1140453F8045BA34246
:10C0E00042F8045BF9D114308842F2D130BD00BF70
:10C0F000062D0408A0F2DC50164BB0F5FA7FA8BF5D
:10C100004FF4FA70984210B5B8BF18460C46114665
:10C11000FDF760FF9FED107A00B2FBEE096AE4B212
:10C1200007EE900AF8EEE77A87EE870A07EE904A64
:10C13000B8EE677ADFED097AE0EE006AE7EE267A7C
:10C1400067EE807AB3EE090A87EE800A34F066FA69
:10C1500000B210BD0CFEFFFF0000C84200401C45AD
:10C160000F4B1B68590702D50E4A1278AAB19A06DE
:10C1700003D50D4A92F838207AB10C4A92F8C000E3
:10C1800058B10B4A12880AB19B0707D4094BB3F880
:10C190004800003018BF012070470120704700BFE1
:10C1A000405F01202A55012040610120885501206F
:10C1B0005050012014050020084A03465078C01A48
:10C1C00018BF0120032B28BF00235370C3EBC30308
:10C1D000034A02EB8303034A13607047A051012016
:10C1E000005101207051012070B50B4E0446357886
:10C1F0002D1A18BF0125032834BF04460024204609
:10C20000FCF768FF3470054B04EB8404284603EB0D
:10C210008404034B1C6070BDA05101203833012001
:10C2200064AB01202DE9F04F8DB0DFF8B88112F03A
:10C2300083F9674B4FF00309A3EB0803019318221E
:10C2400000210DEB020036F0A4FB019BCDF8188015
:10C250000793604B1A69002A04DA5F4A5A6002F1B8
:10C2600088325A600CAC01257E2306A82A468DF838
:10C270002C5004F8243D2146FDF74AF84FF0000BFE
:10C280002146564C2A460020FDF75DF8ADF80E0019
:10C29000534B9C423DD30024022204A906A8ADF8CA
:10C2A0001040FDF735F8BDF80E00022204A9FDF795
:10C2B0004AF80CA9022221F8220D06A8FDF728F859
:10C2C000099878B108ABC0F104022146184436F051
:10C2D00060FB0A9818B9089906A8FCF763FF0023C9
:10C2E0000A9009939DF82C300A9A23B139490B69B9
:10C2F00043F000430B61B9F101095FD0002A9ED1E0
:10C3000098F800307E2B5BD1FDF728F800285AD131
:10C3100056E062888DF815B0C2F30B06B31DADF878
:10C3200010302388C3F30B011B0B8DF8143013045A
:10C33000ADF812101BD4062204A906A8FCF7E8FFEA
:10C34000BDF80E00062204A9FCF7FDFF3246ADF849
:10C350000E0006A86168FCF7DBFFBDF80E00324650
:10C360006168FCF7F0FFADF80E00143490E7002789
:10C370003D460135062204A906A8EDB28DF81550F8
:10C38000FCF7C6FFBDF80E00062204A9FCF7DBFF90
:10C390006368ADF80E00324603EB070A06A837447F
:10C3A0005146FCF7B5FFBDF80E0032465146FCF78A
:10C3B000CAFF032DADF80E00DBD1D6E7002A9FD0CF
:10C3C000052006F0FDFF12F09BF80DB0BDE8F08FE0
:10C3D00000800008003C02402301674558CA040859
:10C3E000F0CD0408004000082B4A1368590770B5C7
:10C3F00050D523F00403294D294913602B68087098
:10C400001A0315D5274C22780B2A0BD8012340F6A6
:10C410000301934019400BD113F4C06F02D0FF20E9
:10C4200018F042FE204B1A68204B5A600B232370F1
:10C430001F4C237B4BB31C4B1E4E1B68726D9B1A0B
:10C440004FF47A72B3FBF2F3092B1ED9226813441E
:10C4500023602DF071FDB36DC01A6423B0FBF3F0BF
:10C46000636818442B689B0760600CD511F0A4F832
:10C4700048B1114BF26D1B689B1AA2681A44A26066
:10C48000326E13443366FFF7CDFE0520BDE87040E1
:10C4900028F03ABC70BD00BF405E01206C5F0120F7
:10C4A000865901208559012034CF01205858012098
:10C4B00084BB012020330120FC60012010B504461C
:10C4C000FFF77AFE18B1FFF7ADFE06F0A1FF601C82
:10C4D000BDE81040C0B228F0EFBC10B50446FFF72D
:10C4E00083FE18B1FFF79EFE06F092FF601CBDE8C8
:10C4F0001040C0B228F0E0BC08B5FFF793FE06F08C
:10C5000087FF0120BDE8084028F0D6BC2DE9F04F98
:10C510002DED0C8BABB09FEDC49AC44ACDE902015E
:10C52000C34905920B6889469D6AC24B07EE905A33
:10C530001D60F8EEE77AC04B186867EE897A0493BD
:10C5400010F0040FC2ED007A14D0BC4B1B68DA0661
:10C5500008D52CF0DDFD28B1B94B1A7C12B993F83F
:10C5600020303BB1B749D1E90023561943EBE577B9
:10C57000C1E90067B44FB54CFB78002B40F00F8445
:10C58000A368B2489847002840F02284B04BB14DD0
:10C590001B6813F0020F00F03D81AB6828469847F6
:10C5A000002800F03481AC4BAC4A187800231746C1
:10C5B000AB4CE9181228B1F90E1008BF44F813105B
:10C5C00042F813100233062BF3D1A64EB6F80080C2
:10C5D000B146B8F1000F00F0A28516AC6A7D9F4904
:10C5E000204610F0F5FE1899F7EE086A169A81EACF
:10C5F000E173A3EBE17307EE903A82EAE273F8EE9F
:10C60000E77AA3EBE27307EE103A179BC7EEA65A40
:10C61000B8EEC77AF4EEC75AF1EE10FA40F334855B
:10C6200083EAE370A0EBE37006EE100AB8EEC66A88
:10C63000F4EEC65AF1EE10FA40F326850029D4BF75
:10C640000121002100F34E85DFF834C21CF80130CF
:10C650005BBB854F0C23854803FB0173C2685E6E8C
:10C6600006EB020806699A6E40693244DE6EC3F832
:10C6700064803044B9F800609A66012ED86614D1FF
:10C680000CF801604FF4C87690FBF6F098FBF6F1D9
:10C6900092FBF6F2D866022059669A66D7F8AC305B
:10C6A0000133C7F8AC3028F007FC6F4FD7F8AC3037
:10C6B000062B40F0A880002664372046FDF77CFC5E
:10C6C000B9190C362046FDF7EAFB482EF8D10FAE1B
:10C6D0000027DFF89C910FA9B346B0462046FDF72E
:10C6E000C1FBB8EC010A33F099FF07EB09030237ED
:10C6F0009880062FF5D120465D4FFDF75DFCB7EE23
:10C70000007A5C4A0020DFF84CE1A44612A9B7F990
:10C7100004800DF1980A13684FF00009BEF80C6010
:10C72000A3EB0803B7F9068006EE106A129353686C
:10C73000B8EEC66AA3EB0803B7F9088013939368B1
:10C74000A3EB08031493431003F101080CEB081842
:10C7500051F8296009F1010907EE906AB9F1030F58
:10C76000F8EEE76AC6EE867AD8ED006AE7EEA76AC9
:10C77000E8EC016ADAED006AE7EEA76AEAEC016A22
:10C78000E6D12AAE01300C3206EB0318062806EB80
:10C79000830358ED0D7A77EE877A48ED0D7A53EDE5
:10C7A000147A77EE877A43ED147ADDED197A77EE15
:10C7B000877ACDED197AAAD122461AA8FDF7B4FAE4
:10C7C0009DED120A34F08EFA00248DED0F0A9FEDD4
:10C7D0002A8A9DED130A264F34F084FA8DED100A53
:10C7E0009DED140A34F07EFA8DED110ABBEC010ABE
:10C7F00020EE080A33F012FFE31902345881062CA8
:10C80000F4D1FFF779FE174A1388013B1380012208
:10C810001A4B1A70144CDDE90223D4E92C67C4E9E1
:10C820002C230B4B1B682DE0BD3786357853012038
:10C830001C060020E83B0120405E01203854012006
:10C8400028AB0120784D0120CA5D0120EC3B01207E
:10C85000405F0120E4050020047B01200C00002043
:10C86000087B0120505001202033012000000020CF
:10C87000DE5D01208433012000008045C8010020D6
:10C88000525001209B0740F10285D54B1B78002BAD
:10C8900000F0FD84D34A9FEDD47AD2ED017AD34BD8
:10C8A00067EE877A95ED0A0AC3ED007AD2ED027A37
:10C8B00067EE877AC3ED017AD2ED037A67EE877A65
:10C8C0009FEDCB7AC3ED027AD5ED077AC94B67EEBF
:10C8D000877AC3ED007AD5ED087A67EE877AC3EDE3
:10C8E000017AD5ED097A67EE877AC3ED027A34F0E2
:10C8F000F9F9F0EE408A95ED0B0A34F0F3F9B0EE59
:10C90000408A95ED0C0A34F0EDF9BB4B1B780E2BE9
:10C9100016D1DFEDBA7ABA4B68EEA78A6A6B28EEB9
:10C92000278A20EE270ADA60FDEEE88ABDEEC88A83
:10C93000BDEEC00AC3ED008A83ED018A83ED020AD1
:10C94000DDE90201801B61EB070132F059FA07EEC5
:10C95000900A27EE890A14F014FAAA4B5A79029326
:10C96000002A00F01785A84BA84D1B6813F0100390
:10C9700040F09484ADF85830ADF85A30ADF85C30E2
:10C980000DF1580E2B88A24AADF85E30EB79128873
:10C9900003EB43039F4EA04D5900A04B1B6813F4BB
:10C9A000805F40F2DC5318BF1A46002312B21F46C4
:10C9B000581830448078012800F0B984C0F0AF8462
:10C9C000022800F0BB840133042BF1D1049B1B68C7
:10C9D0005A0701D40DF024FE914D95F8207006956C
:10C9E000002F40F0A88594F8D0300BB12CF0BEFD9C
:10C9F000002394F858118B4D84F8D030002939D198
:10CA0000894B00229FED897AD3ED0E7A002385F8B9
:10CA1000C01077EE877AC5E90223C5E90E23C5E980
:10CA200016230023824AC5ED3A7AC5F8F830C5F8D6
:10CA3000FC30C5F80031C5F80431C5F8B430C5F88C
:10CA4000D030C5F8DC30C5F8B830C5F8D430C5F8FA
:10CA5000E030C5F8BC30C5F8D830C5F8E4302B64F8
:10CA6000AB642B66AB660123C5ED3B7A6A646A66EC
:10CA700084F8583106F008FC06460F4614F0BCF85E
:10CA8000002840F0C785002385F8C000C5F8A8300D
:10CA9000C5F8AC30C5F8B030664B1B68C4F85C31E3
:10CAA0003046394617F0DFF8DFF8A08116F062FD56
:10CAB000614BB3F9042002EB82025200002842F0DD
:10CAC0006A8107EE902A9FED4D9ADFED479A4FF06D
:10CAD0000109F8EEE77A594DC8F8B42188F80B003F
:10CAE00087EE898ADFF83CA128EE298AB0EE480A51
:10CAF000FDF742FB88ED6E0AB0EE480AFDF79EFB9B
:10CB0000002144F61F6088ED6F0A88F80490D5E98B
:10CB10000023B6EB020B67EB030C614508BF5845D9
:10CB200080F0C2809AED3A7AC5E900673E4E444FE4
:10CB3000D6ED0E7AB4EEE77AC5E902BCF1EE10FA52
:10CB4000404D40F1E9859AED388ADAED378A28EED2
:10CB5000080ADAED34AA9AED35AAC8ED61AAA8EE62
:10CB6000A80A88ED62AAC8ED67AA88ED68AAC8ED90
:10CB7000648A88ED658AC8ED6A8A88ED6B8A34F02C
:10CB8000B1F80223FDEEE87A47F6FF712E4A88F8E5
:10CB90000830FDEEEAAA88F80930BDEECAAA254B96
:10CBA00088ED710A1B6888F80290C8F8E43117EE26
:10CBB000903AFDEEC87AC5ED00AA8B4285ED01AA38
:10CBC000A8BF0B469342B8BF13463B8017EE903A7E
:10CBD0008B42A8BF0B469342B8BF134638E000BF54
:10CBE000C8010020CC05002035FA8E3C400600200C
:10CBF0008F2A75444C060020047B01200000C842A7
:10CC0000087B0120445E01203854012050AB0120F4
:10CC10006857012060420408625401206C5F0120C3
:10CC2000F892012088550120345501206F12833A73
:10CC300083F9223E34CF0120DC050020803401201E
:10CC4000F8BA0120ECBA01205A80FFFF309701208A
:10CC50009AED3B7AD6ED0E7A7B80B4EEE77AF1EE70
:10CC600010FA40F182859AF8F0300120DAED3F1A8F
:10CC7000002B9AED3E1ADAED390A14BF0221012188
:10CC80009AED360A2DF04EFEDAED3A7ABC4AFCEE09
:10CC9000E77A17EE903ADAED3B7AFCEEE77A13800A
:10CCA000B84A17EE903A138006F0EEFAB64A0D46EF
:10CCB000002106461180B549C8798B46022804BF79
:10CCC000012717808F7A022F02BF178847F00207CB
:10CCD00017800F7A022F02BF178847F004071780CA
:10CCE0009AF810701FB1178847F0100717809BF84B
:10CCF0000B70022F02BF178847F020071780A44A45
:10CD0000136823F080071760049A126812F0040277
:10CD100040F037858BF812209E4BDFF8D0B21A789E
:10CD20009D4E7AB1069BB6F906101A8B914209DC2A
:10CD30009A4A1279032A41F02A81994A527A002AA2
:10CD400001F02881924F974D3A6812F0100F41F090
:10CD50005C818E4A24209449127800FB0212D28909
:10CD6000D00502F13F80914A5279002A01F04881B2
:10CD70008F490968890701F043810FFA82F813F09F
:10CD80000BFFDFED8C7AB7EE007AB4EEE70AF1EE36
:10CD900010FA41F10481B0EE670A01F007B92646A6
:10CDA000DFF8448206F070FA2369824653B9029B89
:10CDB000AAEB030AD8F80030AA4464339A45F1DBA1
:10CDC000FFF7DEBB304698470028F0D0FFF7D8BB0E
:10CDD000794EB6F84850002D7BD1B4F92620B4F92D
:10CDE0002030704E9B1AB4F92820DFF804B2314687
:10CDF00033603046B4F92230D946DFF8F8A19B1AE7
:10CE0000B4F92A206D4F7360B4F924309B1A94F85A
:10CE10003C20B36010F0DCFA304610F004FB56F80A
:10CE200025304FEA850807EE903A9BF80030B8EEBF
:10CE3000E78A012BD4ED077A28EE278A04D1B0EED9
:10CE4000480A33F0EBFB3860022D08D099F8003027
:10CE50000B2B04D1B0EE480A33F0E0FB3860584A9F
:10CE6000B0EE480A574B58F802001B689847022D4D
:10CE7000B0EE408A06D099F800300B2B02D133F087
:10CE8000CDFBB860504AB0EE480A504B58F802004B
:10CE90001B68984799F80030B0EE408A022B02D107
:10CEA00033F0BCFB38604A4AB0EE480A494B0135C2
:10CEB00058F8020004371B689847474A474B58F810
:10CEC00002001B689847032DAAEC010AA7D1FFF7BF
:10CED0005DBB7B783546424FB04608EE103A4FF0C6
:10CEE000000A07F1060BDFED3F8AB8F8482037F952
:10CEF000021FB2F57A7F07EE901A04BFC6F800A0B1
:10CF0000C5F81CA0F8EEE77A33680B443360EB6990
:10CF10000133012BEB616FD1C5ED047AC5ED037AC6
:10CF2000C5ED058A012AA7F806A040F08A80EB69C2
:10CF3000012BC5BF03F1FF3395ED067AB0EE680A09
:10CF400007EE903AC4BFF8EEE77A87EE270A33F08F
:10CF5000C9FE18EE103A002B6BD0F8EEC87AF4EE4A
:10CF6000C07AF1EE10FA64D54FF47A730022A8F873
:10CF700048301D4B5A609A60DA60FFF707BB00BF6C
:10CF80003A5901203C59012038590120309701209D
:10CF90003854012031040120B851012006520120EB
:10CFA0005E3D012000000020B4850408A05101204E
:10CFB000A05401209A99193F14050020087B0120F4
:10CFC0009C00002044000020FC00002038000020CD
:10CFD0005C0100203C000020BC010020400000203B
:10CFE0000A3C012000000000CC0500206254012012
:10CFF000047B0120D0050020D5ED035A07EE103A3E
:10D0000037EEE56AF8EEC76A86EE267AD5ED056A50
:10D0100037EE257A77EEC77A85ED047A85ED037AC7
:10D02000E6EE276AF0EE667AC5ED066AC5ED056A9A
:10D0300078E733684FF47A7203F5FA7393FBF2F3EF
:10D04000FB80BB4506F1040605F114057FF44DAFE6
:10D05000B8F84800012813D1B4F92A10B4F92830DF
:10D06000B4F926200091B749FDF751FAD9F80030FC
:10D0700000200021C3E90C01C3E91001C3E90E013E
:10D08000B8F84830013B71E7C7EE265A83EAE371EE
:10D09000A1EBE37106EE101AB8EEC66AF4EEC65ABA
:10D0A000F1EE10FA0ADDF4EEE57AF1EE10FA05D5AC
:10D0B000002ACCBF02210321FFF7C6BAC6EE265ACA
:10D0C000B4EEE57AF1EE10FA7FF5A1ABF4EEE57A75
:10D0D000F1EE10FA7FF59BAB002BD4BF05210421A4
:10D0E000FFF7B2BA3388B3F5C87F7FF4ADAA002248
:10D0F0009548964F1346D355013203600C30062AEB
:10D1000040F8083C40F8043CF5D1914AC2F8AC30F4
:10D11000904A136823F400731360FFF795BA8E4B9F
:10D120004FF480508D4CDA68B4F904108C4E511ACB
:10D13000B4F90A204A43196992FBF0F2DA60B4F9B3
:10D1400006208A1AB4F90C1051435A6991FBF0F188
:10D150001961B4F90810511AB4F90E204A4339463E
:10D1600092FBF0F238465A616A7D10F031F9384688
:10D1700010F059F9AB89324607EE903A4346F8EE83
:10D18000E77A57F82310013307EE101A032BB8EE95
:10D19000C77AC7EE276AE2EC016AF2D195ED077A09
:10D1A000DFED707AB0EEC77AB4EEE77AF1EE10FAFE
:10D1B00011DC95ED087AB0EEC77AB4EEE77AF1EEBD
:10D1C00010FA08DC95ED097AB0EEC77AB4EEE77A8A
:10D1D000F1EE10FA02DD6B6B01336B63624A31468C
:10D1E000624B634892ED026AD2ED016AF1EC017A7A
:10D1F00076EE266A92ED007A8842C6EE265A93EDC4
:10D20000026A77EEC76AA5EEA67AD3ED016A76EEDA
:10D21000266AC6EE265A17EE107A42F80C7B37EED5
:10D22000C77AD3ED007AF0EE676AD7EE076AE5EECB
:10D23000A67A17EE907AC1ED027A43F80C7BD1D131
:10D240006388A3B9237C002B3FF4E1AA0024DFF814
:10D250003C81484F58F82400013496ED000A3B68A1
:10D260009847032CA6EC010AF4D1FFF7D0BAB046D8
:10D270000027DFF81C9109EB07001C3798ED000A26
:10D28000FBF739F8542FA8EC010AF4D1DAE73A4B4E
:10D290000022DA611A625A62FFF75FBB374B1E68E1
:10D2A000B5F90830B6F9500000EE103AB8EEC00AF1
:10D2B00013F062FBB5F90A30ADF8580000EE103AF1
:10D2C000B6F95200B8EEC00A13F056FB2C4BADF87D
:10D2D0005A00B2EE047A1B681B7B07EE903AB5F950
:10D2E0000C30F8EEE77A06EE903AF8EEE66A67EE72
:10D2F000877A9FED247A76EEA76A77EEA77A66EEB4
:10D30000876A86EEA77ADFED207A77EE677AF1EE0C
:10D31000677AFDEEE77A17EE903AFFF72FBB029897
:10D3200000EB4300408D25F81300FFF74CBB032BA7
:10D3300014BF25F81370EA80FFF745BB3EF81300D1
:10D34000F1E700BF0A900408843301205250012005
:10D35000203301203854012000000020DE5D012030
:10D3600000060020CDCCFC40DC01002000020020A3
:10D370000C06002078020020E4050020FCAA012011
:10D3800064AB012000007A440000FA43D002002080
:10D3900024020020934BDFF874821A689946924F5A
:10D3A00012F4807FD8F80030904E14BF597B197A60
:10D3B0003A78B6F90000FEF79DFED9F800308C4DA2
:10D3C00013F4807FD8F800303A7814BF597B197A6B
:10D3D0002880B6F90200FEF78DFED9F8003068808B
:10D3E00013F4807FD8F800307A7814BF997B597A8B
:10D3F000B6F90400FEF77EFED9F80010404207B2ED
:10D40000C805AF8017D5D8F800002A88C37BB5F8C7
:10D4100002E013FB02F3642293FBF2F32B80037C04
:10D42000407C13FB0EF310FB07F093FBF2F390FB31
:10D43000F2F06B80A8806F4BB6F90620188B824201
:10D4400057DBB2F5FA6FA8BF4FF4FA62131A4FF424
:10D450007A72C0F5FA605A43B2FBF0F290B2B0F5BE
:10D460007A7F48D3644B5B88029A1BB21279EB80B7
:10D47000002A57D049067FF5A9AA604B0A22DFEDA2
:10D48000607AB3F9043093FBF2F3B4F8CE209B1A20
:10D490001BB208EE103AB8EEC88A28EE278AB0EE22
:10D4A000480AFCF7CBFEF0EE408AB0EE480AFCF7E3
:10D4B00063FEB5F9023007EE103AB5F90030B8EE68
:10D4C000C77A06EE903AF8EEE66A67EE407A20EE0A
:10D4D000260AE8EEA67AA8EE870AFDEEE77A17EEAE
:10D4E000903AFDEEC07A2B8017EE903A6B80FFF7F2
:10D4F0006DBA0246AAE76427B0FBF7F004EB4003DD
:10D50000B3F9B8606FF06303434304EB400013FAD0
:10D5100082F2B0F9BA309B1B534393FBF7F33344C9
:10D520009BB2A1E702982A88038642856A88828591
:10D53000AA88C2859EE794F8D030E3B994F8D13038
:10D54000002B3FF450AA2F4F00264FF01C0A284D05
:10D55000A7F170090AFB0690B7EC010AFAF7CBFEB7
:10D56000FDEEC07A17EE903A25F816300136042EFB
:10D57000F0D1FFF738BA94F8D1605EB107EE907A37
:10D5800094ED357AF8EEE77AF4EE477AF1EE10FA98
:10D5900019D00026DFF87880BFB21B4DA8191C36C1
:10D5A000D8F800203946FCF719FF702EF6D1069BFB
:10D5B00093F8203007EE903A0123F8EE677A84F86A
:10D5C000D130C4ED357A0F4A0023094931F91300EF
:10D5D000013307EE900A042BF8EEE77AE2EC017AC9
:10D5E000F4D1ABE7A054012098AB0120B851012041
:10D5F00062540120F892012068570120DC050020C8
:10D6000035FA8E3C68340120F833012064AB0120E8
:10D61000CC050020A94B16A995ED2D6AD3ED006A23
:10D62000084693ED017A76EEC66AD3ED027ACDED27
:10D63000166AD5ED2E6A37EE667A8DED177A95ED7E
:10D640002F7A77EEC77ACDED187A26F084FC169BF8
:10D65000DDED177AC5F8A830049BF1EE677A1B68F8
:10D66000CDED177AC5ED2B7A5B07DDED187AC5EDA8
:10D670002C7A24D495F8C03023BB914B9FED916A4E
:10D68000D3ED006A37EEE67AE7EE066AB0EEC77AC7
:10D69000C3ED006A8C4BDB7806EE903A8B4BF8EECC
:10D6A000E66A1B68B4EEE67AF1EE10FA29D5D4F8F2
:10D6B0005C219B1AFA2B27D9012385F8C03095F8F5
:10D6C000C0300BB37E4B93ED007A77EEC77AC5ED91
:10D6D0002C7AD5ED2A7A7E4BFDEEE77A17EE902A6A
:10D6E000D5ED2B7AFDEEE77A1A8017EE902AD5ED6C
:10D6F0002C7AFDEEE77A5A8017EE902A9A80FFF78F
:10D70000CFB9C4F85C31DAE70023C5F8A830C5F812
:10D71000AC30C5F8B030DCE79AED347A0023DAEDAE
:10D72000357A88ED617AC8ED627A88ED677ABDEE68
:10D73000C77AC8ED687AFDEEE77AC8F89031C8F884
:10D740009431C8F8A831C8F8AC31C8F8C431002306
:10D7500085ED007A88F8083088F8093088F80230BA
:10D76000C5ED017A3B80FFF773BA0021DFED591A4E
:10D770009AED3E1AF0EE610A9AED360A0846FFF776
:10D7800081BA0022544F4FF0240C8BF805208BF8FF
:10D7900006209BF800200CFB0272D78913F01002C0
:10D7A00034D032462B4638462AF038FF4B4E737938
:10D7B0000BB10023B370B3790BB10023F370337B4B
:10D7C00023B1474A138843F040031380737B23B18E
:10D7D000434A138843F080031380B37B23B1404A4C
:10D7E000138843F4807313803E4F96ED720A32F033
:10D7F00015FF96ED730A386032F010FF96ED740A4B
:10D80000786032F00BFFB860FFF786BA17F0080FA8
:10D81000DFF8E89076D0344BD4F870715D60C4F8CE
:10D820007061A9F80020A9F80220A9F804200028B6
:10D830003ED0F21B2D48824205DDC4F87861DD60E0
