:020000040800F2
:10000000002000105DAA0208C9E401080597020853
:10001000C7E40108C5E40108C3E4010800000000CA
:10002000000000000000000000000000C1E4010822
:10003000BFE4010800000000BDE40108A13D000884
:10004000F9AA0208F9AA0208F9AA0208F9AA0208FC
:10005000F9AA0208F9AA020861A700086BA700081C
:1000600069A7000867A7000865A7000825CF010851
:1000700015CF010805CF0108F5CE0108E1CE010832
:10008000CDCE0108B9CE0108F9AA0208F9AA0208E2
:1000900071DD0108F9AA0208F9AA020863A700089D
:1000A00069E50108CDE5010855E50108F1E501081C
:1000B000BDE50108A9E5010895E50108F9AA0208CE
:1000C000F9AA0208F9AA0208F9AA0208F9AA02087C
:1000D000F9AA02084DCE010845CE01083DCE01081F
:1000E0005FA70008F9AA020863DD0108F9AA02085F
:1000F00091E50108F9AA02087DE50108F9AA0208BC
:10010000000000000000000000000000F9AA020842
:10011000F9AA0208F9AA0208F9AA0208F9AA02082B
:10012000A5CE010891CE01087DCE010869CE010857
:1001300055CE0108F9AA02080000000000000000E6
:10014000F9AA0208F9AA0208F9AA020800000000A8
:10015000000000000000000000000000000000009F
:100160000000000000000000F9AA0208F9AA020835
:10017000F9AA0208000000000000000000000000D2
:0801800000000000F9AA0208CA
:100188002DE9F04F2DED028BC54DDFF88883C54C66
:100198000026A9B031464FF4806205F51C7088F836
:1001A80000602DF06AF9C04BC5F87436BF4BC5F82E
:1001B80070664FF47002C5F87866C3F88820BC4AA8
:1001C800DA60BC4B626A1A60636A43F080736362E8
:1001D800636943F4FC03636128AF02238DF855304B
:1001E80049F6FF7347F8503D4FF0904039468DF877
:1001F80054608DF856608DF857600CF009F84FF68A
:10020800FF733946AC4814930CF002F83946AB48F2
:100218000BF0FEFF3946AA480BF0FAFFA948394609
:100228000BF0F6FFC5F87C66C5F880661CF0C6FDC5
:10023800A54AA6484FF09043AA46012632F8021F65
:100248004FF0000941FA09FE1EF0010F18BF06FA27
:1002580009FE09F101091EBF2B60A5F804E00C3561
:10026800B9F1100FEED103F580638342E6D1984BC4
:100278001B787E2B00F07B8607F0FAFD07F042F929
:1002880007F0A6FA002309930A932368914E43F4D2
:10029800803332792360236803F400330A93099B7F
:1002A800013309930A9B1BB9099BB3F5A04FF2D1FF
:1002B800236813F4003318BF01230A930A9B012B08
:1002C80000F090866368844903F00C03042B02D085
:1002D800082B00F0B486814B0B606368804DC3F334
:1002E8000313EA5C0B68D3400B601CF067FD7D4B81
:1002F800F278DA710021DA73084604F001F998F807
:100308000030B278784E43F0010388F80030774B1C
:100318001A70774B00211B683360084604F0FBF81D
:100328000021012004F0F7F8B34600210220714EA5
:1003380004F0F1F84FF018080021022256F82100C5
:100348004B1C50B1C271037280F8068001210692DD
:1003580005930BF0E3FF069A059B032B1946EDD195
:1003680000210846059304F0D6F80021012004F086
:10037800D2F80021022004F0CEF8A2695E4842F0CB
:100388000102A261002140222DF077F85B4A4FF06C
:10039800FF3111600120C2F80310002104F0B0F809
:1003A800A26942F00102A26162694FF4805342F4EB
:1003B80000324FF0904862610026012239461493BA
:1003C8004FF09040059B8DF854208DF856200592EB
:1003D8008DF8553006938DF857600BF019FF4FF4E0
:1003E8008053A8F82830C82003F0CBFC4FF4805382
:1003F800C8F818306169069B41F4003161614FF417
:10040800C051404614918DF85530394602238DF875
:10041800543006938DF856608DF857600BF0F8FE4F
:10042800D8F82410059A21F47041C8F82410D8F897
:10043800241041F46041C8F82410D8F8241021F49D
:100448007021C8F82410D8F8241041F46021C8F8A5
:1004580024102B49DFF8C0804FF480200860122157
:10046800CAF8841627488AF88A2608218AF889163D
:1004780026F05CFA38460CF035F814992248069BA9
:10048800059A091A214818BF01210160E169084845
:1004980041F40001E16105491D4CC86014213DE0AB
:1004A800200A002000100240C5A6000800ED00E068
:1004B8000005FA05F43A0020000400480008004846
:1004C800000C00480010004882D5020800180048B7
:1004D80000E8030858390020D003002000127A00F1
:1004E80000000020D403002014650020D46D0020F3
:1004F8008C39002090D50208CC4500200C460020FD
:1005080014040140A410002000A24A04D80042426A
:1005180018D80208208300209CD5020838468DF898
:1005280051308DF850108DF853208DF852600BF033
:10053800ABFD38462A21059A8DF850108DF85120C8
:100548008DF852600BF0C4FDC24AC349069B0A608D
:100558001372C24AC24B1360C24AC34911601B6876
:10056800984744223146C1482CF087FF2746315925
:10057800002358F83320914240F07685DBB2BC4A1C
:1005880002EBC3031436187F26F068FAF02EEED17A
:1005980000243B19143418790AF0A4F840210BF010
:1005A800BDFEF02CF5D1B34C0423302200212046A7
:1005B8008AF88C3601262CF060FF0227142323705A
:1005C800267684F82470AC4C4FF42572002120461E
:1005D8002CF053FF14F08AFFDBF80030002BA04604
:1005E8003DDA4FF4004017F0EFFF0590002836D0B1
:1005F8004FF4004117F0DEFFB8420446059B41F076
:10060800BA851A6848F201039A4228D14FF400408B
:1006180026F0AAFD18B3D8F80030984200F02B85D0
:10062800D8F8DC30984200F02985D8F8B8319842DB
:1006380040F027852046DC2303FB0080CAF890069B
:1006480068B18E4B03938E4B02938E4B01938E4B66
:1006580000938E4A8E4B8F4901200BF0ADFB8E4ADA
:10066800002340F2DC5122F813100133082BFAD191
:1006780018F0E0F8894B1B7823B10123CAF89436A7
:100688008AF898360024E0B2013418F027F9082CCB
:10069800F9D118F083FB1C2200210DA82CF0EDFEE7
:1006A8007F4B02201B790D9317F040FF18B10068AB
:1006B800003018BF0120DBF800308DF83F00C3F38D
:1006C80040028DF84120C3F380128DF84320754A0B
:1006D800117801F1FF3EDEF1000242EB0E028DF8C7
:1006E8003920C3F3C0328DF83C2013F4006204D0E3
:1006F8006D4A9279571E7A427A418C1EC3F30043A1
:100708008DF8443063426341CE1E8DF83A309AF832
:1007180098368DF83D2071427141003318BF01238E
:100728008DF84530614B8DF83B1061491A885B881C
:10073800ADF846300B7AADF848205A1E022A8CBF15
:10074800002201228DF84220042BCA888DF84A30F5
:10075800ADF84C2006D100234FF480508DF842307C
:100768000AF0BEFADBF80030524F1801C3F30072EA
:100778000DA848BF00238DF8382048BF8DF84530B4
:10078800002403F08AFCDFF844C1DFF844E13C7040
:1007980004EB0C03D3ED007AF5EE407AF1EE10FA93
:1007A80040F07284DBF80030D90400F17B8418F043
:1007B800D9FA9DF84230404C13B9012384F85C37CC
:1007C8000021022003F09CFE3C4A13782D2043F0C0
:1007D8000403137009F086FF0122C4F8600784F847
:1007E800642740B1122282710222C2710022027271
:1007F80001210BF093FD002003F0EAFA304E314F4F
:10080800BE42C0F0718495F83C002F4E26F026F9C0
:1008180095F83C2002F01F0152090123022A03FA2D
:1008280001F300F06A84032A00F06C84012A02D1E3
:10083800B26A1343B36295F8390009F053FF0746CB
:10084800002847D00D2383710B23C3710123037242
:1008580040E000BFE0700020D8700020A0460020D3
:100868006C0900209C46002010000020AC460020A7
:1008780084D50208087900204C740020AA230308B4
:10088800B2230308BB230308C7230308A5230308CF
:1008980098230308B92803080E3400203A3D0020A5
:1008A800903E002020780020EC64002030220020B8
:1008B80060700020DE670020200A002020830020CE
:1008C80074520308EC520308001002407021002003
:1008D800BC10002095F83B0009F004FF20B10D235F
:1008E8008371C3710123037295F83A0009F0FAFE87
:1008F80028B10D2383710C23C3710123037295F86A
:100908003E3095F83D20002B00F001844E213846FA
:100918000BF0C5FC95F83B0009F0E4FE95F83D2086
:100928002E210BF0BCFC95F83A0009F0DBFE95F897
:100938003D20BF4D0E210BF0B2FC95F8380030B1C8
:1009480009F0D0FE95F83D200D210BF0A8FC6A6B4C
:10095800B84B9A4240F0E883F36843F48053F3605D
:10096800F36823F48053F36095F83E30002B00F0D1
:10097800F38300210846938823F480531B041B0C3F
:10098800938093889BB243F480539380138803F435
:10099800415343F44573194301431180938895F8F3
:1009A800380023F470631B041B0C43F4E06393804A
:1009B800938B23F400631B041B0C9383072313827C
:1009C80013889BB243F04003138018B109F08AFEE4
:1009D80009F0B3FE984F387B09F084FE8246787B95
:1009E80009F080FE8046B87B26F038F8B968934B4A
:1009F800934A914208BF99464FEA1973012B336B0A
:100A080014BF23F0100323F020033363336B49EA48
:100A180003033363BAF1000F08D00E238AF80630B7
:100A280009238AF8073002238AF8083004223E2175
:100A380050460BF034FCB8F1000F08D00E2388F8AC
:100A480006300A2388F80730022388F80830042281
:100A58003E2140460BF023FCFB7B022B00F07F83FA
:100A6800032B00F07E837749774A012B18BF0A468B
:100A7800BB68196821F0010119601868734922F0F0
:100A88007062014019601A611A68002142F001027F
:100A98001A609960D96099609A68089142F4004296
:100AA8009A601A681A605A6822F0784222F4004262
:100AB8005A601A6822F400321A601A6842F0010279
:100AC8001A60634B01221A765A76624A997613683D
:100AD800069213F0020F1CBF94F865278DF82020AA
:100AE8001A0444BF94F866278DF821201F0507D5FE
:100AF800594B9B79012B04BF94F867378DF8223046
:100B0800564B57481B7803F0FD03012B04BF94F89C
:100B180068378DF8233000211E222CF0AEFC00230C
:100B28000593504B08A90020059A525C571E032FC5
:100B38008BBF059A059F43F8220043F82720059AA2
:100B48000132042A0592EFD101200AF033F838B1B6
:100B5800302384F86F3794F88737013384F8873760
:100B680002200AF027F838B1312384F8753794F851
:100B78008737013384F8873703200AF01BF838B128
:100B8800322384F87B3794F88737013384F8873722
:100B980004200AF00FF838B1332384F8813794F829
:100BA8008737013384F887372F4F2D4C4FF00F0AC2
:100BB8004FF0000B07F1A008A07950B394F9079003
:100BC80009F090FD28B107238371002380F807A05E
:100BD800037213210BF0A2FBA179002318F813006C
:100BE80088424FEA430240F0BE82BB1893F8A13016
:100BF8002372142303FB0959D9F8803063725A1CF5
:100C08000723E3720123C9F88020A37289F87C3096
:100C18009B440AF1010A5FFA8AFABAF1130F04F148
:100C28000604C9D1BBF1000F40F0B4821EE000BF3A
:100C38000000002000300140D403002020000010F4
:100C4800005800407A25E0002E1C6000FFE0CF002D
:100C58008045002014650020EC640020A4340020A6
:100C680089110020AC34002084D502084FF4FA70B2
:100C780003F087F8C14B1C6814F0805401F08C8293
:100C8800BF4FC04D12F0CAFA00233B60BE4B4FF075
:100C9800FF321A60069B1B68180642BFBB4BBC4A52
:100CA8001A60002410220021BA482CF0E6FB152314
:100CB80022460821204685F82C4085F83C400BF058
:100CC80071FB06462860E0B1214609F01BFF80222F
:100CD8006B21304609F08AFE0624962003F051F86D
:100CE80014AA7521304609F025FE9DF85030682B6E
:100CF80000F06F83013C14F0FF04EED128680BF07C
:100D080044FB152395F82C200A2100200BF04AFB00
:100D180006462860002840F08083152395F82C208B
:100D28000D2100200BF03EFB06462860002840F00D
:100D3800B5833446002301930093224619460920BF
:100D480003F092F9002C34D0934B1C70934C012083
:100D580027F078FBA37985F82D30A3882B63AB6344
:100D680088486B689847E378002B00F0B583A86B38
:100D7800884E237830600BB185F83C30884DB4F844
:100D880012C0884B2B606B60AB60EB60BCF1000F4E
:100D980040F0A483E379002B40F0E5836389002BBE
:100DA80040F0F983E389002B40F00F8412F0B8FB80
:100DB80010B9012003F0B2FC0021042003F0A0FBCD
:100DC800794A7A4C1378012143F0020308461370DC
:100DD80003F0A1FB0021084603F09DFB4FF00A0831
:100DE800012009F071FC002009F06EFC192002F0C6
:100DF800C8FF6368990302D4012002F0E9FF1920B3
:100E080002F0BFFF08F1FF38002002F0E1FF18F000
:100E1800FF08E5D14146404603F07DFB41460120ED
:100E280003F079FB17F004FE614BDFED627A1B7C5F
:100E38009FED618A614C624D00EE103AB8EEC00A2F
:100E480020EE270A0AF062FE5E4BDFED5F6A83ED53
:100E5800000A5E4B83ED008A83ED018A83ED028AE6
:100E68004F4B83F890815A4B83F80080594BB3F964
:100E78000010642391FBF3F203FB12131BB207EE7D
:100E8800903AF8EEE77A87EEA67A07EE902AB8EE5F
:100E9800E70A37EE000A26F0F6FC4F4B4FF07E5279
:100EA8001A6083ED018A83ED028A83ED038A26F0B6
:100EB80007FD2922FF2120462CF0DFFA474A84F853
:100EC8000080D2F80090012319F002082B7006D098
:100ED80063700223A37004232B701A23E370069B0C
:100EE8001E68720204D42B785A1C2A701422E25409
:100EF8002B785A1CD2B2042119F00A0F2A70E15437
:100F080007D00521A154DA1C0233DBB22A7006226D
:100F1800E2542A782723A354531C911CDBB20720E0
:100F2800C9B219F0040FE05429702D4804D10368A0
:100F3800DB0609D5330607D503236354131D2B702D
:100F4800D31CDBB21822E254D0F800A01AF0100B20
:100F580041F06F8111F0C6FF002801F07181B8F1EE
:100F6800000F01F06D81C6F3C012002155E309F0AE
:100F780045FF00287FF484A9FFF77EB9F43A0020E2
:100F8800EC390020541F0020580100209442002012
:100F9800AB310020D805001038340020306C002018
:100FA80000000010A1A50008208300201C3D00209F
:100FB8002806001035FA8E3C00000000218300202E
:100FC8004A8300204806001000007042880500107F
:100FD80010050010586C0020E8050010E864002097
:100FE80048710020634B122119606368636063686D
:100FF8006360636843F480636360636823F47C130D
:1010080063606368C2B943F4E8136360236843F01C
:101018008073236023689901FCD5636823F0030378
:101028006360636843F002036360636803F00C0362
:10103800082BFAD1FFF746B943F48813E5E763684C
:101048006268D20349BFE26A4B4A4C4802F00F0279
:10105800C3F3834348BF013203F1020348BFB0FB27
:10106800F2F25343FFF738B90133112B7FF481AA09
:10107800FE23FFF784BA0020FFF7DDBA3046FFF7FA
:10108800DABA0020FFF7DABA0FCB04EB0E0686E8CF
:101098000F003B7810340133C02C3B707FF478ABE1
:1010A800FFF780BB397801297FF681AB344A131DDD
:1010B80002EB01121432F6EE007A103393423FF439
:1010C80076AB13ED037A27EE277A03ED037A13ED57
:1010D800047A27EE277A03ED047A13ED027A27EED5
:1010E800277A03ED027AE8E73379022B02D1B07A46
:1010F8000BF03CF90C36FFF783BBF2681343F3603F
:10110800FFF799BB326913433361FFF794BB0E2194
:1011180038460BF0C4F895F83B0009F0E3FA95F867
:101128003D200E21FFF7FDBB164B9A4208D13369CB
:1011380043F480433361336923F48043336113E418
:10114800114B9A427FF410AC336943F40043336186
:10115800336923F40043F1E7012102200BE40B4A31
:1011680086E40B4A84E40133272B7FF437AD002350
:101178003EE500BF0020024000093D0000127A0051
:10118800BC10002000380040003C0040CF8DC0104B
:101198001A0310A0F36AB44C23F4F873F362F36AE9
:1011A80043F4D873F3620026237B002B00F0C4803D
:1011B80073B22079079325F051FC607925F04EFC35
:1011C800A0680AF0ABFFA268A84B11682068C82580
:1011D80005FB0635236921F4FF4103EB830321F066
:1011E80070019B0041F4165100F140079BB241F099
:1011F8002001116053609760D560136843F00103C4
:101208001360836823F040538360836843F08053FE
:1012180083600A2002F0B5FD23689A6822F08042B4
:101228009A609A689A609A6842F000429A609A684E
:10123800002AFCDB9A688E4922F040529A609A682C
:10124800B3F1A04F42F000529A6002D0894A93420B
:1012580079D1894A9268B3F1A04F02EA010242F4B7
:10126800683202D083498B426FD183498A60D9683A
:101278002269824821F0007121F47F5121F0380160
:1012880041F40051D960196BD2B221F00F01013A33
:101298000A431A634FF0380B01224FF0070A4FF048
:1012A800060C1F27817A61B390F90710079DA942A0
:1012B80027D102F1010E042A017AC57A5FFA8EFE5F
:1012C80045D802EB4202D3F83080520007FA02F9FF
:1012D80028EA090801FA02F242EA08021A6309290F
:1012E80066D90A399A699A6901EB41010AFA01F843
:1012F80022EA08029A619A6905FA01F11143996193
:1013080072465F4906308142CCD19A6842F00102A8
:101318009A601A68D507FCD5DA6822F00202DA600A
:10132800DA6842F00202DA60DA6842F00102DA6052
:101338009A6842F004029A600136022E04F11404FD
:101348003FF494AC30E74F4A84E74E498EE7092AC8
:101358000ED8053AD3F834800CFB02F207FA02F9EA
:1013680028EA090801FA02F242EA08025A63B6E7D3
:101378000E2A0ED80A3AD3F838800CFB02F207FA84
:1013880002F928EA090801FA02F242EA08029A6315
:10139800A5E70F3AD3F83C800CFB02F207FA02F9F2
:1013A80028EA090801FA02F242EA0802DA6396E733
:1013B80001395A695A6901EB41010BFA01F822EA2D
:1013C80008025A615A69033105FA01F1114359615A
:1013D80096E714AA0C21304609F0ACFA9DF8503073
:1013E800142BFFF48BAC182B03D9543B062B3FF678
:1013F80085AC2B6860221A7668225A76224B6B607D
:10140800224BAB60224B2B61224BEB60224BEB61F2
:10141800042385F83C3006248CE4002109F072FB93
:1014280080226B21304609F0E1FA0624962002F06A
:10143800A8FC14AA7521304609F07CFA9DF85030B2
:10144800702B00F0CB860AD8122B00F0C786013C1F
:1014580014F0FF04EAD128680AF097FF5DE4982B9E
:1014680000F0BC86AF2BF0E770000020AA11002026
:10147800E010FCFF0001005000030050891100201B
:10148800A1110020000700502FDB010819DA01081C
:10149800BBC8010899D6010890C1793D002109F01F
:1014A80031FB80226B21304609F0A0FA06249620F1
:1014B80002F067FC14AA7521304609F03BFA9DF842
:1014C8005030712B00F09F86013C14F0FF04EED1E0
:1014D80028680AF05AFF2DE4A08849E4464BDFED5E
:1014E800475A9FED475AEB600021464BB3FBF0FE8D
:1014F80005F1640805F11003F7EE006A0022F6EE24
:10150800004AF44548F8213027D207EE900AB8EE91
:10151800677A07EE90CAF8EEE77A27EE257A67EE43
:10152800857A9A6086EEA76A36EE076AC7EE067A6B
:1015380027EEA47A76EEE77A83ED007AF1EE677A01
:1015480083ED017AC3ED037A013103291A619A61A7
:101558005A6103F11C03D4D11CE4C3ED006A5A603C
:101568009A60DA60F0E7DFF8A090234B2B604FF029
:1015780000084FF01C0B09F1540A0BFB08904AF8BD
:1015880028003268E17908F101080AF08FFBB8F108
:10159800030FF2D102E4DFF87490174B6B604FF041
:1015A80000084FF01C0B09F1540A0BFB08904AF88D
:1015B8002800A3896289316808F101080AF07CFBD8
:1015C800B8F1030FF1D1FFF7EDBBDFF844800A4B08
:1015D800AB604FF01C0A002508F154090AFB05808E
:1015E80049F82500238AE289316801350AF064FB4D
:1015F800032DF3D1FFF7DABB5BA50008BD378635AD
:10160800DB0FC94020A1070070000010D0000010B7
:1016180030010010C6F3C011002209F04209B9F1E7
:10162800420F02D18A4B5B790BB902B961B32B78AF
:10163800581CC0B24FF0090E287004F803E0BBF143
:10164800000F03D002332B702823235402B9D9B1D9
:101658002B780822E2545A1CD2B21321A1549A1CA6
:10166800D2B21520D91CC9B2A054300629700BD5A6
:101678001A1DD2B216202A706054BBF1000F03D095
:1016880005332B702323A354724B1B7923B92B7872
:101698005A1C2A702422E254BBF1000F15D02B7873
:1016A8000A21E1545A1C710058BF0233D2B22A7081
:1016B8005EBF2B700E23A3542B781B22E2549A1C76
:1016C8000133DBB22A701C22E2541AF0400F04D016
:1016D8002B785A1C2A701922E2542B78F00303F154
:1016E80001024FF00B01E154D2B248BF02332A7015
:1016F80042BF2B700C23A3542B780F215A1CD2B253
:10170800E15471052A7006D55349097A19B1023393
:101718002B701023A354320304D52B785A1C2A703B
:101728001122E2542B784D48DFF85CE1DFF85CA128
:101738001722E2545A1CD2B21221A1549A1CD2B2D6
:101748001D21A154DA1CD2B21E21A1545A1D043302
:10175800DBB22A701F22E254414A424C424DC4F87F
:101768001CA000230021C4E9040113809370D370E6
:101778003E483F4A2262237685F81A39914640F25C
:10178800DC5B05F61C1C7146804602682EF813B017
:1017980002F596724CF823200133122BF5D1F3048D
:1017A80058BF344B344A54BF9B8B40F2DC53CB8038
:1017B80002F15000137883B99678D3789E420CD200
:1017C800CEB1013E06EB860606EB860606F561738A
:1017D800567804369BB221F8163004328242E9D199
:1017E800244E31784B1E032B5BD8DFE813F00C0036
:1017F8000C0021004B02013303EB830303EB83034B
:1018080003F56173E4E744F620620023C4E9022388
:10181800012399422376194B07BFE361082210225E
:10182800E3610BBF164B174B22702270236238E01E
:1018380073790A2B2FD8DFE813F02B002B00170140
:101848001A014E017101710174017701F50122023B
:10185800B46E0020903E002028640020A08601007D
:10186800EC630020C8770020200A0020FC700020CC
:101878002941010820780020B48100208541010811
:10188800E94401084B410108123A00202D410108A2
:1018980025F0B6FA28B900233370C4F81CA0C4F8A0
:1018A8002090BD4C13F06CFCBC4BC5F86839204641
:1018B8000FF0B5FB012385F87439002385F87639D4
:1018C80085F87739D5F868395B6BFF2285F8752973
:1018D800002B00F0E681214614A89847002800F064
:1018E800E081BDF85230013BA5F878390D2385F821
:1018F80070391E2385F871393B68A94E042B1FBF28
:101908005A1C3A60A74A42F823403368190623D57F
:10191800A54CA64B6360A64B2360A64B00275F60CF
:101928009F600FF0A3FE4FF47A700FF0AFFE3846B9
:101938000FF004FF2368A04A1B780C2101FB032346
:1019480091469B68002B40F0AE81802009F0C8F9D1
:101958000021052002F0D4FD984B994AC3F8C02114
:101968000024012783F8F94783F80C4883F8F847DF
:101978001F709C70DC701C71DC711C725C72DC72F4
:101988009C729C7403F6180383ED008A1DF05AFDBF
:101998003368DFF88C92DA0389F800401AD51AF018
:1019A800CDFE884B89F800704FF0140B9A460BFB5C
:1019B800043090F80490B9F1160F40F0B18102F0AC
:1019C80085F8814F3860002840F0AF81002106205B
:1019D80002F096FD33685B0505D51EF055FD002124
:1019E800072002F08DFD3368784A13F4002318BFEE
:1019F80001231370764B5A78764B202A00F2CD815A
:101A080020221A60744B754C4FF47A72A3F8482060
:101A1800734BD8F800201A60724B2778D8F800204A
:101A280061784FF0000983F800906F4B38465A638D
:101A380083F838901EF0A1FB23462FB1A28882427A
:101A48001ABFA08001274F46D988002900F0D0810D
:101A580041F288328A42B8BF0A46914200F0C881F2
:101A6800DA8006F0FBF9C6E125F076F912E71023D3
:101A7800237042F6F8220023C4E902235B4BE3619A
:101A880040205B4B236216F09FFD834600283FF4FD
:101A980002AF1EF085FBF2799BF904E000280CBF29
:101AA80001230323002A0CBF00220822029201937B
:101AB800504A4FF4E1330093834600234021704697
:101AC80016F0DEFCBBF1000F01D04B4B1860003064
:101AD80018BF0120DEE60823237042F6F82200230F
:101AE800C4E90223454BE3614020454B236216F0CD
:101AF8006BFD834600283FF4CEAE1EF051FB002854
:101B08000CBF012203229BF904E0019200234FF449
:101B1800E1320092834602933A4ACFE725F0B4F8BF
:101B2800B8E625F06BF8B5E6102341F27C52237035
:101B38000023C4E90223344BE361344B2362344B62
:101B48004FF0000B83F800B0324B282240201A7067
:101B580016F03AFD00283FF49EAEF37990F90400A0
:101B68002D4A5B450CBF5B46082302932B4B4FF075
:101B7800030C8DE8081040215B4616F081FC01211A
:101B8800C5F8640902F012FAD5F86409B0EB0B0045
:101B980018BF01207EE600BF8813002074D6020813
:101BA80014650020F039002094420020D4780020E9
:101BB800AB310020C443002048E802083C790020EB
:101BC800000080BF18D80208F0460020CA6700202D
:101BD800883A0020C467002014050010046E002015
:101BE800E83A0020E43A002010670020FD3D010893
:101BF8000D3E0108A542010860780020AD280108C3
:101C0800C5280108F9290108BD410108D541010885
:101C1800D0370020D13700204D45010848E80100A1
:101C2800D9820020624A00234FF4787142F82310C9
:101C38000133112BFAD1237042F6F8220023C4E9AC
:101C480002235C4BE36140205B4B236216F0BCFC33
:101C580000283FF420AEF37990F90400574A002B8E
:101C68000CBF002308230293554B4FF0030E8DE859
:101C780008404021002316F003FC524B26E724F0CD
:101C880063FF07E6122344F6206223700023C4E9A9
:101C980002234D4A0023C4E904234C4BE3614C4B17
:101CA800C4E5FF2320E6022016F08EFC00283FF44E
:101CB8004CAE67748379082B29D0072B29D0062BC3
:101CC8002AD0052B2AD0042B02D19DF81430637436
:101CD800617CA174002390F90400029322681778AC
:101CE8000C227A4319F8022001923A4A515C3A4A86
:101CF80052F82120009202211A4616F0C1FBA0607A
:101D080000283FF422AE01200FF018FD20E60597C9
:101D1800DBE701230593D8E70223FBE70323F9E771
:101D280001340C2C7FF443AE50E62C4BA3F800B0E2
:101D38002B4B0A2248461A8008F0D4FCC5F87C09C7
:101D480028B1172383710223C3710023037214235C
:101D580003FB04A44E21227A0AF0A1FA386818B1CC
:101D6800204A1E211AF0DBFF002138681E4C1AF0A9
:101D780089FE40F22A321D4938681AF0F1FD08B987
:101D8800207023E640F6A842002118482BF075FB86
:101D9800012323701CF064FC18E6402A01D8402275
:101DA8002FE6802A94BF80224FF4807229E600BF74
:101DB80018360020094101085D4801087D440108E2
:101DC800A068060008650020400D0300AD41010829
:101DD80095410108D10B0308E8100308FE460020CE
:101DE800FC46002000366E01285400208047002061
:101DF800002F7FF436AE4FF4006016F0E5FB554C2B
:101E0800A8B195F8B23990F90400002B14BF382313
:101E1800202302934FF0030C4FF496538DE80810DB
:101E280000231A464FF4006116F02AFB206023684D
:101E380013B1494B494A1A604FF4805016F0C4FB5D
:101E4800474CA8B195F8B23990F90400002B14BF9B
:101E58000823002302934FF0030E4FF416538DE826
:101E6800084000231A464FF4805116F009FB206001
:101E7800236813B1384B3B4A1A604FF4003016F010
:101E8800A3FB394CA0B195F8B23990F90400002BA6
:101E980014BF08230023029303274FF416538DE839
:101EA800880000231A464FF4003116F0E9FA206042
:101EB800236833B1284B2D4A1A602D4B00225A60F3
:101EC8001A60326840F602031A420CD0294B0321EB
:101ED8001970294B01211970284900230B802849C2
:101EE8000B8028490B80100107D50AF0ABFA264B66
:101EF8001A6858B342F480621A604FF4806016F092
:101F080063FB224CF8B100234FF4E131032290F92E
:101F180004008DE80E001A464FF4806116F0B0FAFE
:101F2800206080B10427013F35D114AB009301979D
:101F38003B463A463946154820F05CFF00287DD1DB
:101F4800206816F088FA0023236088E022F4806273
:101F5800D2E700BF247700202064002098000020EA
:101F6800886D0020B400002078460020D0000020B2
:101F7800106D00200B420020A03400209E34002069
:101F8800A23400209C340020487100209C38002096
:101F9800206802F014F8206802F017F8824600283A
:101FA800F6D1FF21206820F006FFD8F80030CDF8E0
:101FB8002CA003F596798DF830A0D8F80030994513
:101FC800B1D9206802F001F80428F6D9206801F098
:101FD800F6FF8DF82C000590206801F0F0FF8DF8D1
:101FE8002D008346206801F0EAFF8DF82E00824616
:101FF800206801F0E4FF8DF82F008146206801F089
:10200800DEFF059B8DF83000552B8CD1BBF1010FFD
:1020180089D1BAF1FF0F86D1AA2884D18DF82F0073
:102028000BA824F003FD81457FF47DAF0023072230
:102038008DF851308DF852208DF853309DF851307D
:102048009DF8532084F844309DF8523043EA022327
:10205800A4F846307C4B01221A705A709A707B4B58
:102068007B481B68336001270021482285F85C778C
:102078002BF003FA774A784D0023C2F89431774A57
:102088002846136011F04AFE754B1B68642BB8BFD5
:1020980064236B653946384611F078FE39460320CB
:1020A80011F074FE3946062011F070FE33689B0764
:1020B8005DD411F04DF90146042011F067FE0121AD
:1020C800052011F063FE0121022011F05FFE316846
:1020D800644DC1F3C011072011F058FE296808208B
:1020E800C1F3C00111F052FE29680920C1F3800133
:1020F80011F04CFE29680A20C1F3401111F046FE88
:1021080031680B20C1F3802111F040FE71880C204A
:1021180001F0010111F03AFE31680D20C1F3C061F0
:1021280011F034FE01210E2011F030FE01211020A3
:1021380011F02CFE082020F0F1FD23680546C3B1FC
:1021480020F0F6FD002818BF054629460F2011F09B
:102158001DFE0021082002F0D3F9434A137863F0EA
:102168007F03137029B0BDEC028BBDE8F08F3946B0
:10217800A2E71D46E9E793F90400019700234FF40D
:102188006122009202931A464FF4004116F078F942
:10219800CAF8B409FEF754BA2146032002F0B0F990
:1021A8000121084602F0B7F92146204602F0B3F9AA
:1021B8000524012008F088FA002008F085FA642038
:1021C80001F0DFFD013CF4D12146204602F0A3F9DD
:1021D8002146012002F09FF9FEF752BD2B6800222C
:1021E8001A7665225A76214B6B60214BAB60214BE6
:1021F8002B61214BEB60214BEB61042385F83C30CC
:102208000724FEF797BD2B6850221A766FF06D02EF
:102218005A761B4B6B60164BAB60164B2B61164BFB
:10222800EB60164BEB61042385F83C300824FEF77D
:1022380081BDB8F1000F7FF4EDA94246FEF795BEC7
:102248005A46FEF792BE00BF983800208C3900200D
:10225800DC0200100000001000040020D80200106A
:10226800D8050010E86400202083002081DC0108E4
:1022780019DA0108BBC8010899D6010890C1793D4F
:1022880061DD010870B538B34C684CB945682A68F7
:102298006D79D6680223AB40DB439BB23340D360F1
:1022A8008A683AB943681D68EB6823F001031B0488
:1022B8001B0CEB60816044B1446821686479CD6887
:1022C8000223A3409BB22B43CB602AB143681A6810
:1022D800D36843F00103D36070BD436A8269D15467
:1022E800436A02690133934228BF0023426B436269
:1022F800136843F08003136070470346026A41691C
:10230800885CD96801328A4228BF0022C0B21A62AA
:102318007047826A406A131A584258417047426AA5
:10232800836A00699A4238BF1218D31A0138C01A52
:102338007047C269036A9A422FBFD01AC0688018D2
:10234800C01A704783681A68937A0133DBB20A2B84
:10235800937205D950780349002321F810309372FD
:10236800704700BF7E36002070B5524B1A7814248F
:102378000132B2FBF4F004FB10229C68586D1A700D
:10238800A142DA6808440CD293F85C40002C00F0B3
:102398008B8000F5803082423CD3C2F58032024403
:1023A8000AE08242F9D293F85C40002C0CBF00246A
:1023B8004FF48034821A121B996093F860101A61E6
:1023C8000022013183F85C201422D86091FBF2F0DE
:1023D80002FB101183F8601093F86110186901313D
:1023E80091FBF2F402FB141283F8612040F68C2270
:1023F80090423CD9197993F9592091422BD10A1F5F
:102408000C2A28D893F85A20182A06D8013283F8BB
:102418005A2004E04FF48034CCE783F8581093F93D
:10242800582091420FD193F85B0060B1224C234DA4
:102438000020904211DB214800240F2A13DD204898
:10244800027801320270012283F85B2083F8591068
:1024580000221A7170BD0022D9E754F8046F25F8DC
:1024680010600130E5E720F812400132E5E793F803
:102478005B20EAB1A0F2EF2140F2DA52914207D88C
:102488001A790F2A04D803EB820101324861E0E788
:1024980000220C4883F85B2011461346C218043307
:1024A800402B1161FAD170BD8242BFF476AF81E74B
:1024B80070BD00BF18140020281400207E360020AC
:1024C8005C3600201C14002010B50A4B1A7814241E
:1024D8000132B2FBF4F004FB10221A705A6D01327B
:1024E8000A445A654FF6FF72914204BF012283F8ED
:1024F8005C2010BD18140020024B53F8203059817D
:10250800704700BF483E00200120704701207047F7
:10251800F0B5094E34683F2C0DDC0FC8074F4FEA61
:10252800041E0EEB070585E80F00054B1B684EF8E7
:10253800073001343460F0BD90100020900C00206A
:10254800FC70002008B520212AF0AEFF034618468B
:1025580023B10278202A03F10103F8D008BD2DE940
:10256800F8430D4616468146002440F634074FF0DE
:1025780019084846FFF7E6FF814690B108F086FC47
:10258800B842A8BF3846B0F5617FB8BF4FF4617054
:10259800A0F5617090FBF8F04CB9287033780133DE
:1025A80033700134022CE4D14846BDE8F8836870E2
:1025B800F4E710B4447A631C0444DBB24372A1729A
:1025C800027A9A4203D85DF8044B08F0E7BA5DF83E
:1025D800044B7047F0B5446B8668236823F0010309
:1025E8002360837913F004010CBF4FF0000E4FF401
:1025F800805E054613F0020F4379206820F0010041
:102608002060606814BF4FF40052002220F440504C
:10261800002942EA0002626014BF4FF48067002775
:1026280013F0010F14BF042100219B07236823F432
:10263800B05323F00C0343EA0E0348BF41F00801EE
:102648003B430B432360A36895B023F44073A36016
:10265800684609F047FF284B9C4239D10C9A2368F9
:102668001F0448BF5200B2FBF6F306FB1322B2EB7D
:10267800560F226828BF0133160406D5C3F3420259
:1026880023F00F031B041B0C13439BB2A3816B792C
:10269800A87913F0020F0CBF00224FF4003200F0AB
:1026A8000101DC0748BF42F480326B6B01B3596803
:1026B8000A435A609A6801074CBF42F0080222F0A8
:1026C80008029A601A6842F001021A6015B0F0BD5B
:1026D8000A4B9C4201D10D9AC1E7094B9C4201D19A
:1026E8000E9ABCE7074B9C420CBF0F9A109AB6E7AC
:1026F800596821EA0202DCE7003801400044004042
:1027080000480040004C0040417163E7816061E788
:1027180038B582681468A27803463AB90123A370D1
:10272800A1801146BDE8384024F028BCA08889B2B1
:10273800814238BF5A68E1803DBF1268D26A121AD6
:10274800091A38BF89182181064A6178208922F838
:1027580011000025A5700121184624F00FFCA57270
:1027680038BD00BF7E360020094B07EE901A53F89B
:102778002030B8EEE77A93ED040AD3ED057A10B568
:10278800A7EE270ADC6828F0F5FD206010BD00BF21
:10279800483E002038B503200D46144608F01AFAC2
:1027A80007EE900AB8EE677ADFED0A7A27EE277A05
:1027B8005DB1F8EE047AF0EE006AE7EE267A9FED56
:1027C800067A67EE877AC5ED007A0CB1034B236071
:1027D80038BD00BF6740533A00007A443313904332
:1027E80020B10078B0FA80F04009704701207047A6
:1027F8000FB413B5084C0949206804AB53F8042BEF
:10280800019308F0F6FD206808F0C8F902B0BDE8A9
:10281800104004B0704700BF803B0020BB25000873
:10282800074B1B68597A4A1C1944D2B25A728872EB
:10283800197A914202D8184608F0B0B9704700BF1B
:10284800803B002038B5094D441E14F8011F01B91A
:1028580038BD2868427A531C0244DBB24372917235
:10286800027A9A42F1D808F099F9EEE7803B002005
:1028780008B50448FFF7E6FF034B1868BDE80840B1
:1028880008F08CB9CD230308803B00200048D9E725
:102898006A26030810B5064C0B460246054920680F
:1028A80008F0A7FD206808F079F9BDE81040EDE7C9
:1028B800803B0020BB2500080FB407B504A951F8D8
:1028C800040B0191FFF7E6FF03B05DF804EB04B0D9
:1028D8007047F8B5437913F0C002044602D0402A85
:1028E80017D0F8BD03F00F03062B06D125F056FCD0
:1028F800BDE8F84001461648DEE725F067FC0546C6
:10290800204625F04BFC29460246BDE8F840114810
:10291800D2E783791048114E114F1F2B96BF114DE6
:10292800002505EBC305FFF78DFF00242B799C429A
:1029380002D3BDE8F840A9E714B13046FFF782FF9B
:102948002B68384653F82410FFF752FF0134EDE79F
:10295800D2230308E2230308F92303080924030800
:10296800402C03080016030870B54379164603F097
:102978000F028AB00546062A4CD8DFE802F0041395
:1029880016181B1D49000C7813F0C00344D0402BC7
:102998003CD12146284625F0E9FB002856D0FFF710
:1029A80027FF33E091F90040EEE70C88ECE7B1F936
:1029B8000040E9E70C68E7E791ED000A684608F08F
:1029C80009FB01462648FFF713FFFEB16B7913F0A8
:1029D800C00F1BD1284625F0F9FB07EE900A684680
:1029E800B8EEE70A08F0F6FA01461E48FFF700FFBE
:1029F800284625F0D3FB07EE900A6846B8EE670A2A
:102A080008F0E8FA01461748FFF7F2FE0AB070BD71
:102A18001348F9E70024B7E7042A0CBF1248134803
:102A28002146FFF7E5FE002EF0D06B7913F0C00FBA
:102A3800ECD1284625F0CAFB0446284625F0AEFB13
:102A4800214602460A48FFF7D3FEDFE769462846D3
:102A580025F055FC6A4621460648FFF72DFFD5E7C5
:102A6800412C0308402C0308F62303080F2D030804
:102A78000B2403081224030838B50D46044625F034
:102A880003FC2A4601462046BDE838406CE72DE99C
:102A9800F04F81468DB088460026474BF418474BC7
:102AA800186808F07BF894F805B00BF030034B4534
:102AB80049D1204625F0C6FB08F000F90546204616
:102AC80025F096FBAA68019217188246204625F041
:102AD800DBFB0BF00F010546019A062968D8DFE8F1
:102AE80001F0043A3F43484C5A0012F80A20037890
:102AF800D31AD3F1000A4AEB030A18F0200F02D0C8
:102B0800BAF1000F1FD102A9204625F0F8FB18F0F2
:102B1800400F0DD0BAF1000F0AD102A92848FFF7DB
:102B280067FE524629462046FFF71EFFFFF7AEFE16
:102B380002A92448FFF75CFE002239462046FFF729
:102B480013FFFFF7A3FE093640F6C7339E42A4D110
:102B58000DB0BDE8F08F12F90A2090F90030C7E7F0
:102B680032F80A200388C3E732F90A20B0F90030A6
:102B7800BEE752F80A200368BAE797ED007AD0ED6D
:102B8800007AB4EE677AF1EE10FA0CBF4FF0010A42
:102B98004FF0000AB1E7204625F000FB2946421C09
:102BA80038462AF097FCB0FA80FA4FEA5A1AA4E796
:102BB8004FF0000AA1E700BFC0E80208803B0020F0
:102BC8002F240308302403080CB407B510F0400084
:102BD80009D069B92320FFF723FE05A904980191BC
:102BE800FFF758FE012003B05DF804EB02B0704710
:102BF8000020F8E70CB4830607B500D551B905A93C
:102C080004980191FFF746FE012003B05DF804EB3C
:102C180002B070470020F8E72DE9FF47DFF89CA0D5
:102C2800814690460D4616460027B8F1000F42D05F
:102C3800B5F90020B6F900309A4296F9062038D145
:102C4800B5F90200B6F90210884232D1B5F904008C
:102C5800B6F9041088422CD195F90610881A414219
:102C680041410392B6F904200292B6F9022001927A
:102C7800009352463B4648460C46FFF7A5FF95F998
:102C880006300393B5F904300293B5F90230019385
:102C980035F9083B009352463B46214648460137E2
:102CA800FFF7A8FF082F06F10806BED104B0BDE85B
:102CB800F0870021D5E74446E1E700BF3A2403083E
:102CC8002DE9F04FDFF8B0A085B080460F461446D6
:102CD80000260623734303930025039B2B44FA180D
:102CE80092F8C0B0002C42D02344524693F8C0302A
:102CF8000193ABEB0301D1F1000949EB0109009500
:102D0800334649464046FFF75FFF8DE820083346C3
:102D18005246494640460135FFF76CFF062DDCD187
:102D28000136062ED5D107F1E40A134F00251AF80B
:102D3800019BF4B16319404693F8E4300193A9EB81
:102D4800030256425641009506233A463146FFF79C
:102D58003BFF8DE8200206233A46314640460135BE
:102D6800FFF748FF0B2DE2D105B0BDE8F08FA14673
:102D7800CBE72646EDE700BF4F2403082DE9FF47C0
:102D8800DFF86CA0814690460E4615460027B8F13C
:102D9800000F2AD02B8832889A4224D174886A88F6
:102DA800A21A54425441EA780292AA7801920093F6
:102DB80052463B4621464846FFF706FFF378029302
:102DC800B378019336F8043B009352463B462146BC
:102DD80048460137FFF70EFF102F05F10405D6D13D
:102DE80004B0BDE8F0870024DDE74446E6E700BF0D
:102DF800632403082DE9F04FDFF868808FB0074699
:102E08008A46164600240DF124095AF82430029304
:102E1800494602A824F0D0FA16B356F82430029D89
:102E28000393EB1A5D420DF1100B5D41594603A85F
:102E380024F0C2FACDF800B0234642462946384667
:102E4800FFF7C2FE2346CDF8009042462946384691
:102E58000134FFF7CFFE202CD7D10FB0BDE8F08F9B
:102E68003546EFE7752403082DE9F347DFF868A036
:102E780081460F46904602260024B8F1000F28D05C
:102E880037F8242038F824309A4238F806201ED122
:102E9800BD5BA91A4D424D4101920093524623460B
:102EA80029464846FFF790FEBB5B019337F824306C
:102EB800009352462346294648460134FFF79AFEB6
:102EC800042C06F10406D8D102B0BDE8F08700252D
:102ED800E2E74546E8E700BF7F2403082DE9F04F05
:102EE8002DED088BDFF80C9197B0804692460D4681
:102EF8001446002695ED008AB5EE408AF1EE10FAE8
:102F080071D0D5ED019A95ED029AD5ED038ABAF103
:102F1800000F3FD094ED000A94ED01BAD4ED02AA57
:102F280094ED03AAB4EE408AF1EE10FA60D1F4EE03
:102F38004B9AF1EE10FA5BD1B4EE6A9AF1EE10FA00
:102F480056D1F4EE4A8AF1EE10FA0CBF0127002799
:102F580012A808F03FF8B0EE4B0A83460EA808F016
:102F680039F8B0EE6A0A05900AA808F033F8B0EE0E
:102F78004A0A049006A808F02DF8049A059B0390C5
:102F880002920193CDF800B033464A46394640468E
:102F9800FFF71AFEB0EE480A12A808F01BF8B0EEC8
:102FA800690A07460EA808F015F8B0EE490A8346E4
:102FB8000AA808F00FF8B0EE680A049006A808F00E
:102FC80009F8049B039002938DE8800833464A462B
:102FD800002140460136FFF70DFE0C2E05F11005C5
:102FE80004F1100486D117B0BDEC088BBDE8F08F52
:102FF8000027ADE7902403082DE9F04F834687B0FA
:1030080092460C46164600274FF019094FF461788E
:10301800BAF1000F4DD0A378B17832798B4233786A
:1030280045D12078984242D16578707885423ED162
:10303800E578F07885423AD12079904237D16579A0
:103048007079281A454245410592F27804927278BF
:10305800019119FB028219FB03830392029373798E
:103068000093154A3B4629465846FFF7ADFD23799C
:103078000593E378049363780F4A19FB038303935A
:10308800237819FB03830293A37801936379009350
:1030980029463B4658460137FFF7ACFD0C2F04F193
:1030A800060406F10606B3D107B0BDE8F08F002587
:1030B800CAE75546DBE700BFA42403082DE9F04F13
:1030C800354FDFF8DCA087B0814690460C4616469F
:1030D80002F1300B94F904200023304959569142EB
:1030E80054D00C33302BF8D10C365E4504F10C0467
:1030F800F0D107B0BDE8F08F96F90430F1799A4223
:10310800326841D1206890423ED165797079854214
:103118003AD1A579B079854236D1257A307A854277
:1031280032D1E579681A4542454157F82110049192
:10313800317A57F821100391B17957F8211002918B
:103148007179009257F82110019152462946484654
:10315800FFF73AFDE27994F9043057F822200492F7
:10316800227A57F822200392A27957F82220029255
:10317800627957F822200192226800922946524625
:103188004846FFF737FDAFE70025CEE7B8F1000F57
:10319800B2D14546DEE700BFE810030808790020F1
:1031A800C22403082DE9F04F834685B092460D46A8
:1031B800164600274FF019094FF46178BAF1000F4D
:1031C8003DD02B7832789342F37836D1687871788D
:1031D800884232D1A878B17888422ED1EC78E11AA9
:1031E8004C424C4119FB03830393B37819FB0383C7
:1031F8000293737821468DE80C0058463B46114AE5
:10320800FFF7E2FCEB780F4A19FB03830393AB78D3
:1032180019FB038302936B78019315F8043B009321
:1032280021463B4658460137FFF7E4FC142F06F1C8
:103238000406C3D105B0BDE8F08F0024D2E7544698
:10324800E0E700BFDF240308F7B50746FFF7C8FA31
:10325800044630B1002222490120FFF7A3FF03B042
:10326800F0BD384607F012FE1328054630DC86000C
:10327800781C8DF80740FFF765F9194C074640B1EF
:1032880007F004FE28289EBF012304F825008DF8C6
:1032980007303846FFF756F9074650B107F0F6FDF4
:1032A8000D2806D8A31958709DF8073001338DF8FA
:1032B8000730B11C0DF1070221443846FFF74FF9DA
:1032C8009DF80730042BCAD0002344F82530C6E700
:1032D8001323224603490448FFF7EEFABFE700BF6D
:1032E800B4810020F2240308F824030808B5FFF786
:1032F800A9FABDE80840FFF7C9BA2DE9F347204EFF
:1033080020483768204CDFF89080DFF88490DFF899
:103318008CA0FFF7EBFF0025BD4202DB02B0BDE841
:10332800F08733689D4227DCA288D3B2172B16D8C2
:1033380058F82330002B08BF4B4621685046FFF74A
:1033480057FAE3885A040CD5E0890090A38962896A
:1033580021890E48FFF7B0FA01351034DCE70C4B31
:10336800EBE71B0405D5E268A1680A48FFF7A4FA51
:10337800F2E7FFF78BFAEFE700239B88FFDE00BF39
:103388009010002015250308900C002050250308F4
:103398000F3D03086225030844D7020841250308A6
:1033A8000048A3E76C2503087FB50546FFF718FA20
:1033B80098BB04462B78002B37D1052C3DD1BDF99D
:1033C8000440A3B2072B38D8BDF90610A1F2EE23AA
:1033D8009BB240F2DC5083422FD8BDF90820A2F2FC
:1033E800EE239BB2834228D8BDF90A00814224DC2F
:1033F800824222DB914220DCBDF90C5005F17D03AD
:103408009BB2FA2B19D8194B23F8341003EBC403D9
:103418005A8098809D7104B070BD14490022012023
:1034280004B0BDE87040FFF7F7BB2D2B03D0A3F124
:103438003002092A15D8042C03DD04B0BDE8704019
:10344800AEE7284607F022FD04AB661C03EB4404F4
:1034580024F80C0C15F8013F303B092BFAD93446F7
:10346800A8E7202BE9D101352646F8E7BE3D002024
:103478007FB50346FFF7B4F9044630B100221F496F
:103488000120FFF71DFC04B070BD6A461C491C4EA4
:10349800184627F019FF01ADC0B1032C02D1FFF780
:1034A8007FFFF0E707F0F2FC6A4645F82400314652
:1034B800002027F009FF0134EEE70628EFD10A2A99
:1034C800EDD80E48104480F8E43012E0032CE6D121
:1034D800039B0F2BE3D80199029AC8B20528ECD8B0
:1034E800052ADCD8054C062505FB0040104480F869
:1034F800C0300448FFF7E0F9C5E700BF0C410020E1
:10350800FB3603084F2403082DE9F0410646FFF770
:1035180067F9044628B1002223490120BDE8F0419B
:103528002CE4304607F0B2FC0F2805462EDC304666
:10353800FFF708F8DFF880801C4F06462035304634
:1035480007F0A4FC38F81430984227DC012C11D07D
:10355800022C13D027F8250030462C2129F0A4FF8F
:10356800064678B1013601230134BBB1032CE6D1FC
:10357800BDE8F08107EB85039870EDE707EB85035D
:10358800D870E9E7A21E53425341EDE722460F23C4
:1035980007490848BDE8F041FFF78EB9002347F80E
:1035A8002530BDE8F041FBE68C4100200C410020AD
:1035B800F2240308F8240308A4D702082DE9F04FE1
:1035C80087B00546FFF70CF9044638B10022564982
:1035D8000120FFF70FFC07B0BDE8F08F284607F081
:1035E80055FC1F28074600F398802846FEF7AAFFD7
:1035F8004D4B009443F827400646A046A246A146F4
:103608002546A3460193494BE1B2E05C0DF10C0C51
:103618000023B64616F8012B1AB1904210D00A2B97
:103628000AD106AE334490424FF0000603F80C6C02
:1036380008D0FFF7B5FECEE703F80C200133E8E722
:103648000246EEE701390EF10106032932D8DFE818
:1036580001F04E1F025BDFF8E8C00DF10B004FF0E0
:10366800010E10F8011F49B30023314AD25C8A4287
:1036780003D00133072BF8D15346002212F80CA0CF
:103688008A453DD10EFA02F248EA02089A46E8E76E
:103698000DF10B014FF0010C11F8012F72B100234D
:1036A800244813F800E0964526D10CFA03F349EABA
:1036B8000309F1E703A807F0E9FB83460134052C69
:1036C800A1D1009B019A05F00F0545EA834545EA1B
:1036D800895949EA0A2A4FEA0B134AEA0838DBB241
:1036E80048EA030342F8273019F028F873E703A8DB
:1036F80007F0CCFB0546E1E70133062BD0D1CBE739
:103708000132062ABAD1C1E703A807F0BFFB034676
:103718000F28C8BF00230093D0E71F23224606497D
:103728000648FFF7C9F856E70C410020AAD7020857
:10373800C2150308BC150308F2240308F82403087B
:10374800C91503082DE9F0410546FFF749F8064673
:1037580030B1002228490120BDE8F041FFF784BBC1
:103768006FF000422549284607F076FB70B9224BD6
:103778004FF47A714FF4FA6219805A809980DA808E
:1037880019815A819981DA81BDE8F081284607F0CC
:103798007DFB0328044626D82846FEF7D3FE0646B6
:1037A80068B107F073FB012507463046FEF7CAFEED
:1037B80010B107F06BFB25B9BDE8F041F0E505460F
:1037C800F3E7A7F2EE2240F2DC539A42F4D8A0F2D3
:1037D800EE229A42F0D8084B23F8247003EB8403B6
:1037E8005880BDE8F0813246032305490548BDE805
:1037F800F041FFF761B800BF42390020782503087F
:103808007E250308F824030870B50446FEF7E8FF90
:10381800064630B100222E490120BDE87040FFF76E
:103828005DBB05222B49204607F016FB38B928490D
:10383800002243181030C0281A60FAD170BD204603
:1038480007F024FB0B28054639D82046FEF77AFEF8
:10385800064640B307F037FB1D4B03EB051383ED1A
:10386800000A01243046FEF76DFE064638B107F01F
:103878002AFB174B03EB051383ED010A013430468D
:10388800FEF760FE064638B107F01DFB104B03EB50
:10389800051383ED020A01343046FEF753FE20B9C2
:1038A800BDE870407CE50446DCE707F00CFB084BFC
:1038B800032C03EB051585ED030AF1D1AAE732467F
:1038C8000B2305490548BDE87040FEF7F5BF00BF6A
:1038D8007021002078250308F2240308F82403083F
:1038E8002DE9F7438146FEF77BFF064638B10022F3
:1038F80037490120FFF780FB03B0BDE8F083484655
:1039080007F0C4FA0B2804465BDC0625454309F199
:1039180001008DF80760FEF715FEDFF8B4808146D8
:1039280005EB0807464638B107F0B0FA03289EBFF2
:10393800012378718DF807304846FEF703FE81466B
:1039480060B107F0A3FA0D2808D8062303FB046327
:1039580098709DF8073001338DF807300DF1070294
:1039680039464846FEF7FBFDFEF7ECFD814660B19F
:1039780007F08CFA302808D8062303FB0463D870B4
:103988009DF8073001338DF807304846FEF7DAFD19
:1039980060B107F07BFA0D2808D8062303FB0464FE
:1039A8009DF80730207101338DF807309DF80730F6
:1039B800062BA1D0002345F80830BB80FFF7F0FCA8
:1039C8009AE70B23324603490348FEF775FF93E74E
:1039D80026210020F2240308F82403082DE9FF41DA
:1039E8000346FEF7FDFE38B136490022012004B037
:1039F800BDE8F041FFF762BB0190029003901846C2
:103A08005D1C07F043FA44B2204614F08FFD0646C9
:103A180000283AD08DF8084001242846FEF792FD88
:103A2800074620B107F032FA01340190E4B2DFF81A
:103A3800988000253846FEF785FD0746F8B107F05F
:103A480025FA002258F822108842D3B203D0013256
:103A5800112AF7D1002358F8232090420FD1022DC4
:103A68001BD0032D1ED0012D11D05A1E0F2A03D8AA
:103A78008DF809300134E4B20135042DDAD1052C72
:103A880016D804B0BDE8F0418AE40446C5E71A1F19
:103A9800042AF1D88DF80A30ECE7082BECD88DF819
:103AA8000C30E7E75A1F052AE6D88DF80B30E1E716
:103AB80001AB03CB306018687160B06004B0BDE83A
:103AC800F08100BFD4780020E8100308224B026878
:103AD8002DE9F047064600251F4653F835108A425F
:103AE80009D1EDB2102D0AD91C49002008F064F95B
:103AF8000020BDE8F0870135112DEED1F4E7DFF89D
:103B0800648058F825A0C146BAF1000F15D10A21E2
:103B1800642008F0A9F948F8250008B91049E5E734
:103B28006422514629F0A9FC58F8253007EBC5074F
:103B38001F605B60DB615B63DB64707959F825406B
:103B4800182101FB0043002218461A759E601A616D
:103B5800DA600430BDE8F0879CD5020886250308A2
:103B6800AB250308AC4600202DE9F74F324C9946A7
:103B78009DF83030009394F86230092B80468B46CC
:103B8800924608D92D49002008F016F90025284644
:103B980003B0BDE8F08FFFF799FF0646002849D02B
:103BA80094F8627098F804007A1CD2B207EB4703C5
:103BB80004F1640505EB431584F86220019206F0D0
:103BC80091FD034628B104218171019A02720221F4
:103BD800C171009A22B398F808200221184608F00B
:103BE8005EFB602303FB07445A465146304666662F
:103BF80019F095F84946606E18F044FF606E436806
:103C08001A68536C43F40043536413889BB243F01F
:103C18000103138018F08EFE002320670360B6E7C7
:103C280018461121009308F079FB009B184606F00E
:103C38007FFDD6E70546AAE718140020C525030826
:103C480030B52DED028B1F4B83B01C68B4FBF1F32C
:103C580003F57F43FF331B0C0092B4FBF3F40023FE
:103C6800B4FBF1F52146AAB2F0EE408AB0EE608AC4
:103C7800FFF77AFF08B3B5EE408A07EE904AF1EEF7
:103C880010FAF8EE677A08BF06EE905A9FED0E7AA2
:103C98000ABFF8EE666A27EE888A86EE876A4FF0D2
:103CA8000103037218BF88EE076A27EE467A80ED93
:103CB800056AA7EEA87A80ED047A03B0BDEC028B02
:103CC80030BD00BFD003002000007A441F4B5A6863
:103CD8001F4BC2F3080270B582B9EFF311826AB9BB
:103CE8001C481D491D6886681A689542FAD1D1F8A2
:103CF80028249642F6D8194B0CCB19E0EFF3118221
:103D0800102181F3128801F1E0218E68086810F40F
:103D1800803F11481EBF0124C0F824448E681968EA
:103D2800D0F82454D3B283F311880C4B0CCB0D4438
:103D38004FF47A74A2FB040104FB0311801B61F1A8
:103D4800000126F0EBFCE4FB050170BD00ED00E08E
:103D5800FC70002010E000E018140020D04400207F
:103D6800F8B504460D46FFF7B1FF06460F46FFF7C4
:103D7800ADFF801B61EB0701A94208BFA042F6D343
:103D8800F8BD10B5044604B910BD4FF47A7000218F
:103D9800FFF7E6FF013CF6E7EFF31183102282F309
:103DA800128808490A6801320A60074A0749906878
:103DB800C1F828040020C1F824041268DBB283F398
:103DC80011887047FC70002010E000E018140020F3
:103DD800084A094B12781B680AB980F001003BB108
:103DE8001A689B88002814BF002110218B4093611A
:103DF800704700BF84110020801100202DE9F04F8A
:103E08001F465B4B85B09842894690469DF83850CE
:103E18009DF83C6055D1574C574B2360574B636115
:103E280003F58073A36160634FF480734E20E360F1
:103E38002361A76022F012FE342006F053FC83466B
:103E4800352006F04FFC4FF0010A33460146CDF805
:103E580000A02A46584622F01FFE25238DF80C3074
:103E680000238DF80DA08DF80E308DF80FA003A853
:103E780008F00AF900232362E361A3626362C4F8CD
:103E88002C90C4F830806571A760A6712046FEF7B3
:103E9800A1FB15F0010F636B05D020221A621A6886
:103EA80042F020021A60AA0742BF1A6842F0800254
:103EB8001A601A6842F001021A60204605B0BDE88F
:103EC800F08F2F4B98422BD12E4C2B4B23604FF465
:103ED8008073E36023612C4B6361606303F5807337
:103EE8007120A361A76022F0B9FD1E2006F0FAFB3D
:103EF80082461F2006F0F6FB022300930146334654
:103F08002A46504622F0C8FD26238DF80C300022A0
:103F180001238DF80D308DF80E208DF80F30A6E7AF
:103F28001A4B984221D11A4C134B23604FF48073DB
:103F3800E3602361174B6361606303F5807372204C
:103F4800A361A76022F08AFD2A2006F0CBFB8246F7
:103F58002B2006F0C7FB03230093014633462A466D
:103F6800504622F099FD2723CFE70020A6E700BF9F
:103F78000038014048450020B0D702084418002006
:103F88000044004010450020441A0020004800402A
:103F9800D8440020441C002003689B6A03B11847DA
:103FA800704703685B6A03B11847704703689B69E9
:103FB800184703685B69184703681B691847036853
:103FC800DB68184703689B68184703685B681847ED
:103FD80003681B6818470368DB692DE9F04105464B
:103FE8000E4617468BB90C463B1B3344002B01DCAD
:103FF800BDE8F0812846FFF7E5FF0028FAD014F85D
:10400800011B2846FFF7E4FFEEE7BDE8F04118473B
:10401800E1E738B505460C4614F8011B01B938BD6F
:104028002846FFF7D5FFF7E70C4B1B681B0110B4B8
:1040380007D50B4B1B685B050DD55DF8044B06F0E7
:10404800DBB9084B03EB8003D3F82C3A1BB10728E4
:104058009CBFDB6819605DF8044B7047146500204D
:1040680048710020181400201FB5ADF80A30BDF8BB
:104078001830ADF8040041F48041ADF80C306846C2
:10408800BDF81C30ADF80610ADF80820ADF80E30BC
:10409800FEF73EFA05B05DF804FB2DE9F04FAB4C96
:1040A800AB4D002687B00746012160202660666078
:1040B800A66007F0D9FE02960396A64EA060FB7A8A
:1040C8007BB12B792A3B012B0BD803220192227852
:1040D80000926378BDF8082001211220FFF7C4FF81
:1040E8008DE03B7C63B100231421994A01FB032234
:1040F8001079162840F08F80296813689942E4D017
:10410800FA79EB68002A40F08B807A7912B1980727
:1041180000F18980BA79002A00F0888003F0010A4A
:104128003A6812B1032A40F083807A7C12B11907E9
:1041380000F19F8113F0040F40F0DD80BAF1000F09
:104148005DD0BAF1010FBDF808B077D12846FFF766
:10415800BDFC804600283DD04FF00009FF2386F8BB
:104168004C9A287986F80490C6F80890C6F80C90FE
:10417800C6F81090C6F8549086F8583086F859302A
:1041880086F85A9086F85B9086F85C9006F0AAFA52
:1041980028B10323837180F807A080F808902A7A51
:1041A800E97908F07CF8404622F07EFF6A496B4BBB
:1041B800C6F85C3A6A4BC6F8581AC6F8603A0C3129
:1041C8004046FEF75FF84046012122F0D7FE404600
:1041D80022F0C2FEA278A36803EBC20320225A7021
:1041E80023792278009201332371002163780191A9
:1041F8005A461320FFF738FFA3780133A370029BB8
:1042080001330C2B029305F114057FF458AF4F4886
:1042180007B0BDE8F08F01330C2B7FF466AF6FE772
:104228004FF0000A7CE74FF0020A79E7924677E7F9
:104238005A0600F11E8113F0200F7DE79DF80C80CF
:10424800454B4FF01C0909FB08F94B4428460493D9
:10425800FFF73CFC8246002839D006EB0903002210
:1042680083F84E2A83F8562A012283F84D8A83F868
:104278004C2A2879059206F035FA08F10103DBB2D9
:1042880020B10221059A8171C27103722A7AE979F3
:1042980008F005F8504622F007FF1C2303FB0868C6
:1042A800049BC8F8583A2F4BC8F85C3A2E4BC8F80C
:1042B800603A294B09F10C0119445046FDF7E2FF19
:1042C8005046012122F05AFE504622F045FEA278BF
:1042D800A36803EBC20340225A70E3780133E3700A
:1042E800039B0122013303930192637822780092A1
:1042F8005A4600217DE794F801A0BDF80890BAF16C
:104308000B0F06D9022301932378009353464A469C
:10431800E2E6BB7DB7F818B03A79591E072900F2D2
:104328009480DFE801F00A0E2D0458585858DFED44
:104338000F0A5946B0EE600A27E05946DFED0C0A2D
:10434800F8E75946DFED0B0AF4E700BF1421002017
:1043580018D8020818140020641E002071230008D1
:10436800D1240008192700084D2300080000000088
:104378006F12033928293038ACC5A737ACC5A73622
:104388005FED030A1FED030A59462846FFF758FC5C
:104398008046002867D0514BC8F80430504B43F88A
:1043A8002A80BB7B002B54D0A278A36803EBC203FE
:1043B80019225A70A268A178637802F8313002EBAA
:1043C800C100013302224560DBB20192227863709A
:1043D80000924A468DE7063BDBB2022B98BF414963
:1043E800009296BF01EB83033F49D3F8981013223C
:1043F80000232846FFF7B8FB8046002833D0DFF8B3
:10440800FCE03A4B93FBFBF2DEE90001D31799423B
:1044180008BF90423CBF1046194608F1180BCEE978
:10442800000112225946D8F8000018F099FA38B15C
:1044380048220021584629F020F8012388F808303E
:104448002B4B01221A702B4BA6E75946DFED2A0A9F
:1044580070E7BB7DA278042BA36803EBC2030CBFF3
:104468000D220922A5E702220192637822780092A0
:104478004DE794F80080BDF80890B8F1070F05D90A
:10448800032263780192CDF8008040E77A8A1749C1
:1044980091FBF2F23979BB8A009192B2134928460E
:1044A800FFF762FB2278A8B106EB8808A168C8F874
:1044B8002C0AA07801EBC0034FF00A0E83F801E044
:1044C80001F830200132D2B203215D602270637896
:1044D80001917DE7032163780191C8E771270008FE
:1044E800483E002044D70208C0C62D0040420F00B5
:1044F800403E0020012500086F12833A481F002023
:104508001FB5ADF804006846ADF80610FEF700F8D0
:1045180005B05DF804FB094B53F8203059B103B9D5
:1045280070471A689B88102103FA01F1916170475E
:104538001A689B88F8E7002BFAD1704790D50208D3
:104548002DE9F04F87B00346FEF74AF9064620B139
:10455800FEF726FF07B0BDE8F08F05AA6149DFF82E
:10456800B091DFF8B0A1DFF8B0B1184626F0ACFE84
:1045780034460546B0464FF0FF37A5B95A4B78B2D6
:104588000C2606FB05F2D118D256824200F08C8028
:104598000135042DF5D1B8F1000F34D1534839460F
:1045A80007F044F8D6E7012E0ED0022E11D01EB91E
:1045B800284606F06BFC074605AA4A49002026F063
:1045C80083FE01360546D8E7284606F05FFC80469C
:1045D800F2E74946284628F0B6FF20B9444928465C
:1045E80028F0B1FF08B144F001045146284628F0EC
:1045F800AAFF28B95946284628F0A5FF0028DBD08D
:1046080044F00204D8E7002C08BF03240023E4B2D6
:1046180002930194CDF800801A46194613F030FF32
:10462800054610B939463348BAE742463946324852
:1046380006F0FCFF3946314806F0F8FF304B1C689D
:10464800204613F0FDFE284613F0FAFE0021084626
:10465800FFF761FF00210120FFF75DFF2046FFF70C
:10466800B4FC70B101210020FFF755FF2046FFF789
:10467800A6FC01462846FFF7ABFC00210846FFF7D9
:104688004AFF2846FFF7A1FC0028E7D001210020B7
:10469800FFF741FF2846FFF792FC01462046FFF747
:1046A80097FC00210846D7E74D68002D3FF473AF0B
:1046B8003946144806F0BAFF54B169798C4207D0DC
:1046C8002246114806F0B2FFE1B22846FFF76EFC19
:1046D800EB6A002BAED00D4806F0A8FF0023EB6272
:1046E800A8E700BFFB36030808790020092603085D
:1046F800032603083126030850260308BB260308AF
:10470800843B00206D26030885260308A526030898
:104718000026030806260308492F03082DE9F0415F
:1047280080460B25013D04D11C4B1D4ADA60BDE8CB
:10473800F08101210846FFF7EEFE00210846FFF749
:10474800EAFE08F1010632270524012005F0BCFF26
:10475800002005F0B9FF0120FFF73AFB3846FFF7C4
:1047680010FB012005F0B0FF002005F0ADFF002090
:10477800FFF72EFB3846FFF704FB3CB1013CE4D1C0
:104788004FF4FA70FFF7FDFAFA27DEE7013EDCD1B5
:104798004FF47A70FFF7F5FAC4E700BF00ED00E0C8
:1047A8000400FA052DE9F0432DED048B662887B047
:1047B80005460C4600F02F8600F2AE82342801F040
:1047C800058000F23481142801F0EB8300F2948014
:1047D800052800F0D08529D8022800F0B18505D831
:1047E800012800F0A285002000F0B0BD032800F0E9
:1047F800B2850428F7D10246C649204606F0D1FD05
:104808000021204606F0EBFD2368C3495A1C2260AC
:1048180000221A7023685A1C226001221A70236829
:104828009A1822600C221A7000F08CBD0C2801F036
:1048380029830FD8062801F0AA820A28D3D1B74ABB
:1048480012F8013F002B00F080852168481C206089
:104858000B70F5E70E2801F06D831028C3D1B04D19
:104868009FEDB08AD5ED027A67EE887A2046FCEE95
:10487800E77ACDED017ABDF8041006F0B0FDD5ED6C
:10488800057A67EE887A2046FCEEE77ACDED017A64
:10489800BDF8041006F0A3FDD5ED067A67EE887A18
:1048A8002046FCEEE77ACDED017ABDF8041006F05B
:1048B80096FDD5ED077A67EE887A2046FCEEE77A12
:1048C800CDED017ABDF8041006F089FDD5ED087A22
:1048D80027EE888A2046FCEEC87ACDED017ABDF82D
:1048E800041006F07CFD904B9A792368591C2160CE
:1048F8001A702A7900F0FDBE282801F0278140D8D7
:10490800222800F0448730D8152801F0DE821728C5
:104918007FF469AF854D2046B5F8441006F05FFD79
:10492800B5F84810204606F05AFDB5F84A1020465A
:1049380006F055FD236895F84020591C21601A702F
:10494800236895F84120591C21601A70236895F84E
:104958004220591C21601A70236895F84C20591C74
:1049680021601A70B5F84E1053E3242801F0AA808C
:1049780026287FF438AF6E4D2988204606F02FFD93
:10498800ACE02E2801F04B8147D82A2801F0F280AC
:104998002C287FF428AF674D0B686A79591C216071
:1049A8001A70698B204606F01AFD40F2DC51204649
:1049B80006F015FD298B204606F011FD23686A7C58
:1049C800591C21601A70A98B204606F008FDE98B56
:1049D800204606F004FD236800265A1C22601E703B
:1049E80023685A1C226031461E70204606F0F7FCE8
:1049F80023682A7A591C21601A70E968204606F053
:104A0800DAFC23682A7C591C21601A7023685A1C16
:104A180022601E702A7800F06CBE302801F01881E0
:104A280032287FF4E0AE434BDA7C00F062BE4928BE
:104A380000F02B8600F288803D2800F01F8625D8DC
:104A4800382801F0418015D836287FF4CCAE3A4D8D
:104A58003A4F05F1300695F904200023D9579142C1
:104A680001F01B830C33302BF8D10C35B542F2D151
:104A780000F06BBC3A284AD03B287FF4B4AE0B68F0
:104A88005A1C0A6002221A7000F05FBC442801F028
:104A98007C8229D8402801F0AB8042287FF4A3AE5D
:104AA8000B68234D5A1C0A6003221A70244B2046B7
:104AB800196806F080FC1F4B5A792368591C21603D
:104AC8001A702988204606F08AFC6988204606F074
:104AD80086FCA9881B4D204606F081FC6988204683
:104AE80006F07DFCA98894E2452801F0CA80462892
:104AF8007FF479AE0B6800255A1C0A6020461D70A9
:104B0800294606F058FC0021204606F054FC0021F6
:104B180000F04EBC8E280308982303085E39002055
:104B2800B46E00200000C842AB3100205471002050
:104B38009034002020780020D478002008790020C4
:104B48008C390020EC6400205A2801F0C88051D824
:104B5800502801F0898013D84B2801F011804F2884
:104B68007FF441AE0B6800255A1C0A601D700B6863
:104B78005A1C0A601D700B685A1C0A601D70C2E737
:104B8800542801F0A88058287FF42DAEC04B1E6829
:104B9800002E01F02A8230460DF015FD06A90023EB
:104BA800054601F8103D30460DF0EBFC23685A1C11
:104BB80022601D702368B74D591C2A7821601A702D
:104BC80023686A78591C21601A702368AA78591CCE
:104BD80021601A7023689DF80820591C216030460E
:104BE8001A700DF0E9FC23685A1C226018702A7AA2
:104BF80000F07FBD602801F0278153D85C2801F0C0
:104C08008D805E287FF4EFADA34D0021204606F08D
:104C1800E6FB0021204606F0E2FB2B682046B3F8AD
:104C2800441006F0DCFB23689FED9C7A00265A1C92
:104C380022601E7023685A1C22601E7023685A1C4A
:104C480022601E702B682268D3ED157A67EE877A8A
:104C5800511CFDEEE77A216017EE903A83F30803C2
:104C680013702B682046B3F8581006F0B8FB236879
:104C78005A1C22601E702B684FF6FF76D96C0A27E3
:104C8800B1FBF7F1B142A8BF314689B2204606F020
:104C9800A6FB2B68996CB1FBF7F1B142A8BF31466E
:104CA80000F094BC642800F0738365287FF49BAD02
:104CB80002A824F043FD7A4B2046198806F08FFBA2
:104CC800784B1988204689B206F089FB23F0EFFC5F
:104CD8000146204606F083FB042202A9204606F07E
:104CE80060FB714B1A782368962D03F1010121604E
:104CF8001A7040F02A836D4B2046198806F06FFB26
:104D08006B4B2046198806F06AFB0EF0E1FF23681A
:104D18005A1C2260187018E39628C9D000F2138133
:104D2800712800F0498378D86B2800F06B862FD85B
:104D3800682800F0FD83C0F09C83692800F0B182E8
:104D48006A287FF450AD5B4D0B68EA79591C2160E5
:104D58001A7023682A7A591C21601A70E96820465B
:104D680006F029FB2969204606F025FB64236969BA
:104D780091FBF3F1204689B206F031FBA98C20465D
:104D880006F02DFBE98C204606F029FBA98D40E1B1
:104D98006E2800F01D841CD86C2800F009846D284A
:104DA8007FF421AD23F0ACFE90ED020A26F0E2FA82
:104DB8000146204606F0FFFA23F0A2FE90ED050A10
:104DC80026F0D8FA81B2204606F009FB3A4BD96999
:104DD800EEE26F2800F05C8470287FF404AD0026B2
:104DE80011F0F8FD06EB46052368425D591C216069
:104DF8001A7011F0EFFD23682844591C427821608D
:104E08001A7011F0E7FD2368284401368278591C8E
:104E18000A2E21601A70E3D197E2782800F02C83DB
:104E28002AD8742800F054820ED8722800F01E8503
:104E380073287FF4D8AC01232268511C21601370B9
:104E48000133092BF8D180E2752800F037827728E2
:104E58007FF4C9AC194E1A4F002533789D4280F271
:104E68007482785D24F0D6FD20B12368027A591C3B
:104E780021601A700135F0E77D2800F0098723D8F2
:104E8800792800F0CC857C287FF4ADAC0D4D73E516
:104E980020640020046E0020305400200000C84226
:104EA800501F0020C845002058390020D0010010AC
:104EB800E8630020D4660020846700204A8300202D
:104EC80021830020423E00207E2800F0F2867F28C1
:104ED8007FF489ACD24D00230627284607FB03F64A
:104EE8000021226802F1010EC4F800E01370226864
:104EF80002F1010EC4F800E011708A192A44013148
:104F080092F8C0E02268062902F1010CC4F800C03A
:104F180082F800E0E5D10133062BDFD100222168B9
:104F28004D1C25600B7021684D1C25600A70811886
:104F3800013291F8E45021680B2A01F1010626603C
:104F48000D70ECD101E241F20903984200F0548659
:104F580000F20881BB2801F039805ED8A02800F053
:104F6800A48535D897287FF43EAC0EF0A1F82368C5
:104F78005A1C2260187023685A1C226001221A7079
:104F88000DF08CFF23685A1C226018700DF0AAFFE0
:104F980023685A1C226018700DF06EFF23685A1C93
:104FA800226018700DF032FF23685A1C22601870B6
:104FB800236800255A1C22601D700DF03FFF2368EE
:104FC8005A1C2260187023685A1C22601D70BCE1AC
:104FD800A42800F04085A6287FF405AC914D204612
:104FE800298806F0FCF96968204606F0E4F9A96802
:104FF800204606F0E0F9E9688B4D204606F0DBF91B
:10500800A98D204606F0EBF9298D204606F0E7F930
:10501800698D204606F0E3F997E1FE2800F03A850D
:1050280022D8F12800F05282F6287FF4DCAB02A8DF
:1050380006F048F8002800F0D487DDE902894FF42B
:105048007A7200234046494625F018FB4FF47A72DD
:10505800064600234046494625F010FB95B23146E6
:10506800204606F0A8F9A3E041F20103984200F0B7
:10507800C28741F2050398427FF4B5AB6B4D9FEDB3
:105088006C9A05F1C006F0EE008AB0EE498AD5EDBB
:10509800007A67EE897A2046FCEEE77ACDED017A50
:1050A800BDF8041006F09BF9D5ED017A77EEA87AE1
:1050B800F5EEC07AF1EE10FA00F13182B1EE007A25
:1050C800F4EE477AF1EE10FAC8BFF0EE477A67EED1
:1050D800887A2046FCEEE77ACDED017ABDF8041017
:1050E80006F07DF9D5ED027A77EEA87AF5EEC07A6A
:1050F800F1EE10FA00F11682B1EE007AF4EE477A7A
:10510800F1EE10FAC8BFF0EE477A67EE887A2046CB
:10511800FCEEE77ACDED017ABDF8041006F05FF9F0
:10512800D5ED037A77EEA87AF5EEC07AF1EE10FAAB
:1051380000F1FB81B1EE007AF4EE477AF1EE10FA55
:10514800C8BFF0EE477A67EE887A2046FCEEE77A29
:105158001035CDED017ABDF8041006F040F9AE42E5
:1051680095D1F2E042F20703984200F0C78265D871
:1051780042F20203984200F048821BD8B0F5005F63
:1051880000F0218142F2010398427FF42CAB0B68B6
:1051980000255A1C0A6020461D70294606F01FF992
:1051A8002946204606F01BF92946204606F017F93D
:1051B80029462EE742F20303984200F0B58342F2F3
:1051C800050398427FF40FAB1A4E1B4D31882046D9
:1051D80006F005F92368327A591C21601A702B6889
:1051E8001A782368591C21601A702B682046598840
:1051F80006F0F5F82B682046D98806F0F0F82B68F9
:105208002046998806F0EBF82B682046198906F0A5
:10521800E6F8B188204606F0E2F87188DDE300BFC1
:105228000C410020C4430020D466002070210020D7
:1052380000007A44EC6400202C6C002042F20B033E
:10524800984200F0078717D842F20903984200F005
:10525800D58642F20A0398427FF4C5AABA480023C9
:10526800C2181433D1688A0701BF2268551C25600B
:105278001170F02BF4D168E042F21003984200F06C
:10528800C68642F2190398427FF4ADAAAF4E0025B4
:1052980056F825102046013506F08DF8082DF7D16F
:1052A80053E0AB4EAB4F002533789D424DDA37F8CB
:1052B8001510204606F093F80135F5E7A64A12F8CE
:1052C800013F002B41D02168481C20600B70F6E795
:1052D800A24FDFF8D89297F8008000263546464559
:1052E800C0F2998294E80C009B1A9D423FF77BAA72
:1052F800DFF8B88200264FF03B093B789E4224DA5B
:1053080018F8060024F086FB68B14568284624F0A2
:10531800DDFB29460246204606F043F823685A1C5E
:10532800226083F800900136E7E70B685A1C0A6090
:1053380000221A700B685A1C0A6002221A70D8E1FF
:1053480087490422204606F02CF8012007B0BDEC5E
:10535800048BBDE8F0830B685A1C0A6002221A709D
:105368000B685A1C0A6001221A700B689A1822608E
:105378000022FFF788BB0B227A49204606F011F875
:1053880008227949204606F00CF808227749D9E71F
:105398000B685A1C0A60E7221A700B685A1C0A60CC
:1053A80003221A700B685A1C0A60002270491A708E
:1053B800204606F000F8C8E702A824F0BFF9082242
:1053C8000DEB0201BEE702A824F0B8F9694B2046AC
:1053D800198806F004F8684B1988204689B205F048
:1053E800FEFF23F064F90146204605F0F8FF634B01
:1053F8002046198805F0F3FF614A5178137822682E
:1054080043EA0113511C216013705E4B2046196852
:1054180005F0D1FFD3E75C4D9FED5C8A05F10C06E2
:10542800B5EC010A20EE080A25F0A4FF81B2204657
:1054380005F0D5FFB542F3D1554D4E4F05F10C0699
:10544800B5EC010AD7ED087A80EE270A25F092FF1D
:1054580081B2204605F0C3FFAE42F1D14D4E002582
:10546800AB192046998F043505F0B9FF0C2DF7D1FB
:105478006BE71022484965E7484D002605F14008CA
:10548800FF272988204605F0AAFF6988204605F0ED
:10549800A6FFA988204605F0A2FF2368AA79591C0F
:1054A80021601A7023685A1C22601E7023685A1CD7
:1054B80022601E7023685A1C226000211F7020463B
:1054C800083505F078FFA845DBD13EE7344B0021CD
:1054D80003F14000642622681D78571C2760157068
:1054E80022685D78571C2760157022689D78571CC4
:1054F800276015702268DD78571C276015702268B0
:10550800551C256011702268551C2560167022688C
:105518000433551C834225601170DCD115E7DFED9B
:10552800217AD4E5DFED1F7AEFE5DFED1E7A0AE692
:105538001D4E002536F815102046013505F04FFFA1
:10554800082DF7D101E700BF18D80208D86D002050
:10555800C8770020941F0020E7D702084A8300205C
:10556800A5230308BB230308B2230308AA230308BF
:105578003C000080501F0020C8450020D0010010CA
:1055880058390020E8630020BC05001000000044E2
:10559800DC050010AC3300200E340020BE3D002096
:1055A8007D3D002000000000F4330020218300200E
:1055B8009F4D2046298805F012FF6988204605F08E
:1055C8000EFFB5F904100A2391FBF3F189B220E527
:1055D8000DF0CEFE2268531C23600A23B0FBF3F0C3
:1055E80080B2FF2828BFFF20924B1070196881F302
:1055F800100189B2204605F0F2FE8F4B204619882B
:1056080005F0EDFE8D4B198803E58D4B8D4D1B780C
:1056180095F868209B0043EA42038B4A12781343AB
:105628008A4A127843EA02130A68511C21601370EF
:105638000DF09EFE0146204605F0D1FE7F4B204628
:10564800198805F0CCFEE96E204605F0B4FE794BCA
:105658002046196805F0AFFE7D4B2046196805F015
:10566800AAFE7C4B2046196805F0A5FE0DF08EFEBB
:1056780023685A1C226018706F4BC4E7764B9978E0
:105688002268501C20601170C7E1744B9988C0E4EF
:105698000B68734D5A1C0A6064221A702B681A7AB8
:1056A8000B68591C21601A7000232A681A440133B8
:1056B800917A2268032B02F1010020601170F4D165
:1056C8002B689A782368591C21601A702B681A78FD
:1056D8002368591C21601A702B685A782368591C52
:1056E80021601A702B682046998805F078FE2B688F
:1056F8005A7A2368591C2160FFF7C5B9584D2B68A1
:105708001A780B68591C21601A702B685A7823681C
:10571800591C21601A702B689A782368591C2160DB
:105728001A702B682046998805F059FE2B681A7A5A
:105738002368591C21601A702B685A7A2368591CEF
:1057480021601A7000232A681A440133917A22686A
:10575800032B02F1010020601170F4D12B685A7BF1
:105768002368591C21601A702B689A7B2368591C7E
:1057780021601A7000232A681A440133D17B2268F9
:10578800032B02F1010020601170F4D1DDE5354DE5
:1057980005F15006287824F03DF900B1007A236815
:1057A8005A1C2260187023686A78591C21601A7084
:1057B8002368AA78591C21601A702368EA7804358E
:1057C800591CAE4221601A70E4D1BEE5264A02F1A6
:1057D8004801236850795D1C25601870236890780B
:1057E8005D1C25601870236810785D1C2560187092
:1057F800236850785D1C256018702368D0785D1C7C
:10580800256018702368107906325D1C9142256066
:105818001870DED199E519F8060024F0FBF820B1DC
:10582800406824F053F901350544013657E500BFB7
:1058380098050010CC66002008420020CA660020A7
:105848000B420020501F002096340020A034002076
:10585800D06600209834002020210020306C0020E1
:1058680094540020B481002026210020A64D40F247
:10587800DC51204605F0B3FD2988204605F0AFFD30
:105888006988204605F0ABFDA988204605F0A7FDEC
:105898009E4B2046198805F0A2FD22689C4B501C9F
:1058A8001978206011702268511C21600021117044
:1058B8005A782368581C20601A7023685A1C226082
:1058C8001970944BDA7C2368581C20601A7023687E
:1058D8005A1C22601970904B0A25B3F9001091FBED
:1058E800F5F1204689B205F07AFD22688B4B511CF0
:1058F8001B882160B3FBF5F31370894B21681A6884
:10590800481CD2882060B2FBF5F20A7021681A6838
:10591800481C92882060B2FBF5F20A701B681B894C
:10592800B3FBF5F5FFF74FBB774D40F2DC5120464E
:1059380005F055FD2988204605F051FD6988204667
:1059480005F04DFDA988754D204605F048FD6F4BC3
:105958002046198805F043FD22686D4B501C1978C4
:10596800206011702268511C2160002111705A7842
:105978002368591C21601A70664BDA7C2368591C0D
:1059880021601A70644B2046B3F900100A2391FB7A
:10599800F3F189B205F023FD2988204605F01FFDA3
:1059A80023682A7A5E4D591C21601A702B681A7870
:1059B8002368591C21601A702B682046598805F005
:1059C8000EFD2B682046D98805F009FD2B68204676
:1059D800998805F004FD2B681989204605F0FFFC1D
:1059E8002B682046D96805F0E6FC2B682046196923
:1059F80005F0E1FC2B682046596905F0DCFC2B68B2
:105A08001A7E76E6474B2046198805F0E8FC464B97
:105A18002046198805F0E3FC444B5A7869E6226869
:105A2800434B501C19782060117022685978501C1B
:105A38002060117022685979501C2060117022680A
:105A48001979501C206011709A782368591C2160BC
:105A58001A70384BD7E50B685A1C0A6001221A7075
:105A68000B689A180A6000221A700B68591C21608A
:105A78001A7020682D4B451C9A8D25606421B2FB55
:105A8800F1F202709B8DB3FBF1F32268511C216087
:105A980013705AE4284E002536F8251020460135A3
:105AA80005F09DFC042DF7D14FE4244B20461968DE
:105AB80005F081FC224B2046196805F07CFC214B3F
:105AC800196875E4204BFBE70968144B1A884B1CCE
