:020000040800F2
:1000000000000120DDEF03085DF0030845B00108A2
:100010005DF003085DF003085DF0030800000000D8
:100020000000000000000000000000005DF0030878
:100030005DF00308000000005DF00308498B000834
:100040005DF003085DF003085DF003085DF0030850
:100050005DF003085DF00308FD8D0008078E0008C1
:10006000058E0008038E0008018E00083187020803
:10007000218702081187020801870208F186020819
:10008000DD860208C98602085DF003085DF00308FA
:100090005DF003085DF003085DF00308FF8D0008C4
:1000A0000D7E0208B57E0208FD7D0208D97E020899
:1000B000A57E0208957E0208857E020869910208E5
:1000C00075910208519102085D910208C9850208E4
:1000D000BD850208D1AB0208C5AB0208B9AB020866
:1000E000FB8D00085DF003085DF00308ED7D02085C
:1000F000417E02081D7E0208657E0208B586020860
:100100005DF003085DF00308757E0208B185020802
:10011000ADAB0208A1AB02085DF0030845D00308AF
:10012000A18602088D860208798602086586020883
:1001300051860208000000000000000000000000DE
:1001400000000000000000000000000039FE02086E
:100150003D86020829860208158602085DF003081C
:100160003B910208459102085DF003085DF0030829
:100170005DF003085DF003080000000000000000CF
:100180005DF003085DF003085DF003085DF003080F
:10019000A58502085DF00308000000005DF003087B
:1001A0000000000000000000000000005DF00308F7
:1001B0005DF003085DF0030800000000000000008F
:1001C000000000000000000000000000000000002F
:1001D0000000000000000000000000005DF00308C7
:0801E0001CEB0300010000000C
:1001E800F42B0120020A000000003233202C0120E9
:1001F800010D0000000077004C2C0120010E0000CA
:1002080000007600782C0120010F01000000770023
:10021800A42C01200112000000001E00D02C012097
:100228000117000000000D00FC2C0120011800003F
:1002380000000E00282D01200119000000001E00FA
:10024800542D01200115000000000C00802D012014
:100258000116000000000C00AC2D0120011C00005C
:1002680000001400D82D0120011D00000000290005
:10027800042E0120011E000000002800302E01205D
:10028800021A010000012A005C2E01200121000051
:1002980000003C00882E0120011F000000004000E3
:1080000010F80A3C0133DBB20A2B00F80A3C07D90E
:10801000002310F8131C034A22F8113000F80A3C20
:10802000704700BFB2530120F0B54D4E1420337895
:108030000133B3FBF0F200FB12333370494B586845
:108040001A6D81429C680A4404D293F8580008B122
:1080500002F5803244480778B2FBF7F2944232D2FC
:1080600093F858501DB14FF4803595FBF7F5101B70
:10807000451BDD605960002071789A60142201313F
:1080800083F8580091FBF2F002FB1011D868717070
:10809000B178013191FBF2F402FB1412B27040F698
:1080A0008C22904241D9197893F95520914230D1D0
:1080B0000A1F0C2A2DD893F85620182A0BD8013203
:1080C00083F8562009E04FF4803090FBF7F0001B56
:1080D0001044D860CEE783F8541093F954209142AD
:1080E0000FD193F8570060B1204C0020204D9042F2
:1080F00011DB1F4800240F2A13DD1E4802780132CD
:108100000270012283F8551083F8572000221A705C
:10811000F0BD0022D4E754F8046F25F81060013058
:10812000E5E720F812400132E5E793F85720B2B1B5
:10813000A0F2EF2140F2DA52914207D81A780F2AC2
:1081400004D8111D013243F82100E0E70022104657
:1081500083F8572099180432402A0861FAD1F0BDFB
:10816000E0260120443B012084030120503B0120F4
:10817000B2530120905301200B4810B5037814240A
:108180000133B3FBF4F204FB1233084A0370136D9E
:1081900001330B4413654FF6FF73994204BF01236B
:1081A00082F8583010BD00BFE0260120443B01207A
:1081B000024B53F820301B6819607047D8430120E8
:1081C000064B53F82030A1F57A7019891A684FF4DC
:1081D0007A73414391FBF3F111607047D84301205A
:1081E00070477047F0B5094E34683F2C0DDC4FEAFC
:1081F000041E074F01340EEB07050FC885E80F007A
:10820000044B34601B684EF80730F0BD1C3B012066
:108210001C37012014BF012070B5114C05460E46D5
:1082200000220023D4E9020136F026FB20B10AA384
:10823000D3E90023C4E90223304636F04FF8D4E9ED
:10824000022304EB450436F0D9F936F05DFB2082B9
:1082500070BD00BFAFF30080ABAAAAAAAA46104027
:10826000E0260120A0F13003DAB2092A01D818462D
:108270007047A0F16103052B01D857387047A0F172
:108280004103052B94BF37384FF0FF307047036828
:108290005A1C02601970704703685A1C02601970FA
:1082A0007047002B2DE9F84F14BF4FF030094FF005
:1082B0002009141E074688460A9BBABF64424FF045
:1082C000010B4FF0000B13F8012B02B1DCB9BBF12D
:1082D000000F1ED1254615F1FF3516D223462C4638
:1082E0000A9D5E1B05EB060A15F8011B99B9BBF147
:1082F000000F05D02546002D10DC002CA8BFA2449D
:108300005046BDE8F88F013CDDE749463846C04796
:10831000E1E70023E4E73846C047E3E7494638464B
:10832000C047013DE7E7D0ED006AB0EE407AD0EDFE
:10833000057AE6EE807AD0ED016AB0EE670AD0EDFC
:10834000037A67EEC07AE7EE267AD0ED066A77EE1A
:10835000A67AD0ED026AC0ED057AD0ED047A67EE18
:10836000C07AE7EE267AC0ED067A704770470A2396
:1083700003800148704700BF0000012043230380B1
:10838000004870470C0001204323038000487047D9
:1083900050000120432303800048704794000120CF
:1083A000D0F81C3210B5D0F818425BB194F8000236
:1083B000FF2807D09B68214694F801229847FF23A5
:1083C00084F80032002010BDD0F8302201F00F01F7
:1083D000D0F8183210B51C2404FB0121B1F810228A
:1083E00003F50371C3F80C22D0F81C22D3F8040261
:1083F000D2689047002010BDD0F818321BB1002081
:10840000C3F81402704702207047836B40221A643D
:108410005A6C42F004025A6470477047836B1A6CBE
:1084200012F0500F21D11A6C42F400721A641A68CB
:10843000916811F0405F1BD19969C9B9D16A11F4F3
:10844000700F02D09168490512D4516821F02001C3
:1084500051601A6C22F480721A641A6CD20407D428
:108460001A6C42F001021A6470479B6BDB6C184770
:108470007047836B0022A3F85A20A3F8522070475C
:10848000836B0022A3F85A20A3F8522093F86920A6
:10849000212A0AD11A689168080606D5116821F0C8
:1084A000C0011160202283F8692093F86A20222AF3
:1084B0000ED11A68916849060AD5116821F49071A5
:1084C0001160916821F001019160202283F86A20F7
:1084D000DA6E42F01002DA66704770477047036840
:1084E0001B6813F4807312D1826BA2F85A301368A0
:1084F000196821F480711960996821F0010199606F
:10850000996821F040019960202382F86A30704711
:1085100003681B6813F480730BD1826BA2F852308E
:1085200013689A6822F080029A601A6842F040024A
:108530001A6070474B78012B0B7870B54D6942D1AA
:10854000202400F5106614FB03631C69CDB924F0E8
:10855000FF5424F4C0141C611C6944F400241C6101
:108560001C69E40CE4041C61012A0D7806EB451338
:108570001C6844F004441C601AD10A695A61002046
:1085800070BDE40CE4041C611C6924F0FF5424F465
:10859000C0141C618C68A54288BF4C611C6944F4FE
:1085A00000241C614C691D69C4F312042C43DAE7F2
:1085B0004B69002BE3D00123D0F83428AB401343A0
:1085C000C0F83438DBE700F5306000EB4310036996
:1085D000DB0CDB040361036923F0FF5323F4C013B6
:1085E00003618B6805B14B610469C3F31203012A6F
:1085F00044F400240461046943EA0403036101D1E3
:10860000CB684361036843F004430360B7E7F0B508
:108610004B780C78012B4B697FD1202600F5106533
:1086200016FB04542669002B3CD126F0FF5626F495
:10863000C0162661266946F4002626612669F60CD6
:10864000F604012A266153D10C780E6905EB441417
:108650006661CE78012E0FD1D0F808480F7814F457
:10866000807F4FF0200414FB075427680CBF47F0AD
:10867000005747F0805727600F78012E05EB47150C
:108680002C6844F004442C600AD14AB99BB200F52E
:108690008050C968033300EB07309B10934237D1F9
:1086A0000020F0BDF60C8F68F6042661266926F0DE
:1086B000FF5626F4C0162661DE19D4F810E0013EFC
:1086C000B6FBF7F7374E06EAC74646EA0E062661BE
:1086D000C3F3120627693E432661CE78012E5ED190
:1086E000266926F0C0462661266946F00056A8E7AE
:1086F000CE78012EB0D0002BABD091F800E0012451
:10870000D0F8347804FA0EF43C43C0F83448A0E7BB
:1087100051F8224001320460C0E700F5306505EBF6
:1087200044142569ED0CED042561256925F0FF55FC
:1087300025F4C01525618D68FBB92369C5F31205C1
:108740001D432561236943F400232361012A01D1DC
:10875000CB686361CB78012B0AD1D0F8083813F4C9
:10876000807F23680CBF43F0005343F080532360A5
:10877000236843F00443236092E72B44094E2769A2
:10878000013BB3FBF5F306EAC3469BB23E435D43B0
:108790002661C5F31205266935432561D6E7012A0E
:1087A000A9D151E70000F81F10B54B7800F5006221
:1087B0000978012BD46B11D18B4000F510609BB26E
:1087C000DB431C40D463D4692340D36100EB4110E8
:1087D000036823F400430360002010BD4FF480338E
:1087E00000F530608B40DB431C40D463D4692340E8
:1087F000D361EBE7836B012283F83D2000221A77D7
:108800007047836B012283F83D20704711F001030C
:1088100007D090F8413003F02803282B0CBF4223E7
:10882000F2238A0709D590F8412002F02802282A6D
:108830000CBF43F0440343F0F4034A0701F0110274
:1088400001F0120148BF43F0B803112A08BF43F0FA
:108850009003122901684FF0000008BF43F0600345
:108860000A6822EA03030B607047836B19684A6841
:1088700042F400424A600022996B0A65D96B0A658E
:1088800093F84120602A02D1202283F841207047CA
:10889000154B202210B5C3620023044603634363D3
:1088A00080F8412080F842304B0711D5436A5A1CAA
:1088B00042620268526A1A70038D4BB1013B038514
:1088C000438D013B9BB24385436C43F004034364F7
:1088D00007212046FFF79AFF23681022DA61002360
:1088E00084F8403010BD00BF0000FFFF38B5002500
:1088F000044680F8425090F84130292B0AD12823B1
:10890000012180F8413021230363FFF77FFF84F8C2
:10891000405038BD90F841302A2BFAD1282302214B
:1089200080F8413022230363EFE703681821DAB2AD
:1089300023F47F73103A23F00303B2FBF1F20449EE
:10894000032A895C88BF0433C1658365806D7047E5
:10895000C8220408836B0022A3F84620DA877047F8
:10896000836B19684A6822F003024A601A6E42F06B
:1089700010021A66012283F85D207047704738B5EF
:1089800004460B4650F8040C14F80E1C41B924F8A8
:108990000C3C012304F80E3CBDE8384025F00FBB29
:1089A00034F80C1C24F80A3C8B42A3EB010311D3CE
:1089B00024F8083C002534F8081C14F80F2C074B49
:1089C00023F81210012104F80E5C25F0F8FA04F8DF
:1089D000065C38BD0268D16A0B44E9E7B253012056
:1089E000A1F57A71094B9FED0A7A07EE901A53F8B8
:1089F00020309FED080AF8EEE77A10B51C68A7EE64
:108A0000870A37F057F9206010BD00BFD843012016
:108A1000713D8A3F00008743094B53F8203010B561
:108A20001C681B23594307EE901AB8EEE70AF3EED1
:108A3000087A80EE270A37F03DF9206010BD00BFAC
:108A4000D8430120074B53F8203010B51C6801EBC8
:108A5000C10300EE103ABAEEEE0A37F02BF92060AF
:108A600010BD00BFD84301202DE9F0410B4D012777
:108A7000DFF82C802C686A6914400CB9BDE8F081DD
:108A8000B4FA84F3C3F11F0358F8230007FA03F67E
:108A9000036824EA060498476E61EEE7003C014053
:108AA0005C5F012070B5D0F830520123044695F880
:108AB000B82385F854309A4285F8553009D085F8A6
:108AC000B83305F154012868FFF76EFE002385F8DE
:108AD000B833D4F830520123002695F8B82385F82E
:108AE00014329A4285F8156208D085F8B83305F536
:108AF00005712868FFF758FE85F8B863D4F830523E
:108B0000022395F8B82385F8703001239A4285F83E
:108B1000713009D085F8B83305F170012868FFF786
:108B200043FE002385F8B833D4F8183253B1D4F893
:108B30001C325B689847D4F8180239F045FA0023D4
:108B4000C4F81832002070BDEFF31183102282F3B5
:108B500012880A49DBB20A6801320A60084A0949E8
:108B600090680860002008490860126883F3118843
:108B7000064A136801331360704700BF14BF012019
:108B800010E000E0CC340120C83401204075012001
:108B900003689B6A03B11847704703685B6A03B1B7
:108BA0001847704703689B69184703685B69184753
:108BB00003681B6918470368DB68184703689B68EC
:108BC000184703685B68184703681B681847036801
:108BD000DB692DE9F04105460E4617468BB90C4678
:108BE0003B1B3344002B01DCBDE8F0812846FFF736
:108BF000E5FF0028FAD014F8011B2846FFF7E4FF30
:108C0000EEE7BDE8F0411847E1E7014B1868DBE704
:108C100034B4012038B505460C4614F8011B01B9DF
:108C200038BD2846FFF7D0FFF7E70C4B1B681B0148
:108C300010B407D50A4B1B685B050BD55DF8044BD8
:108C4000FFF7EABA074B53F820301BB1072801D8C9
:108C50001B6819605DF8044B704700BF9C570120EA
:108C6000E84A0120803C01201FB5ADF80A3041F4EC
:108C70008041BDF81830ADF804006846ADF80C30FE
:108C8000BDF81C30ADF80610ADF80820ADF80E3078
:108C9000FFF7A8FA05B05DF804FB1FB5ADF80400B6
:108CA0006846ADF80610FFF79DFA05B05DF804FBC5
:108CB000044B53F8202022B111689388486943403F
:108CC0004B617047B026040810B5040900F00F028C
:108CD000013C032C16D80C4B33F8141041FA02F364
:108CE00013F001000FD0012090400138084035F00A
:108CF000F1FF064B0C221C44237A1844044B02FB60
:108D0000003010BD002010BDA8260408C8220408A9
:108D1000D034012018B1838802681B049361704726
:108D200010B1036882889A61704770B5DC231646DB
:108D300090F90C20044600695343094AD558FFF7BF
:108D4000E9FF28461FF085FB012300223146284613
:108D50001FF0B2F92069FFF7E3FF012070BD00BFEB
:108D6000801F0120F8B51646DC2390F90C200F4631
:108D70000446006953430C4AD558FFF7CBFF012046
:108D800000210CF05BFA394628461FF062FB3146A1
:108D900028461FF05EFB2069FFF7C2FF012000217B
:108DA0000CF04CFA0120F8BD801F012018B10268B8
:108DB000838809B1936170471B04FBE7044B0146AC
:108DC0001868044B1B780BB981F00101EEE700BF76
:108DD000643D0120683D0120024B81F0010153F800
:108DE0002000E3E7B026040830B1036882881B69DD
:108DF0001A4214BF01200020704735E634E633E6FE
:108E000032E631E630E62FE638B504468B680D468B
:108E1000216098470123FF22237300236273A37309
:108E2000E3732B6B13B120469847E073044B93F820
:108E300030301BB1E37B23F00103E37338BD00BF87
:108E4000E026012003689B6A184703685B6A18479D
:108E500037B54D1C0468C272857200250095A4695F
:108E6000A04703B030BD2DE9F0410F4605468AB05A
:108E7000184690461C4635F0D7F83B189DF84060E0
:108E8000AB72EB7B85F80B8036EA03031AD0F2074E
:108E900018D5124BC82206F0FE061B68B3FBF2F38E
:108EA000DB070FD51F284FF0200128BF1F200446E5
:108EB000024602A839F0B9F80AAB1C44002304F8B2
:108EC000203C02AC2B684246009639465E69234638
:108ED0002846B0470AB0BDE8F08100BF14BF0120AA
:108EE0002DE9F34104460D46184616461F4635F057
:108EF0009BF8236828440022E672A072294600925B
:108F00003246D3F814803B462046C04702B0BDE845
:108F1000F081036810B504465B68984723682046D3
:108F20009B689847A37B013BA37310BD036810B5F2
:108F300004461B689847236820469B689847A37B94
:108F40000133A37310BD03681B691847036810B58C
:108F50009B680446984701232373FF23637310BD66
:108F600073B503790D46012B0AD0022B11D183680A
:108F7000DB0758BF41F0800102B0BDE87040D4E685
:108F8000417B90F90C0000922A461FF027FD02B0A9
:108F900070BD0020FBE72DE9F34116460279044637
:108FA0001F46012A2ED0022A35D18568DC2390F98C
:108FB0000C0015F00105194A03FB00F313D0D55836
:108FC0002069FFF7A7FE28461FF043FA3B46002220
:108FD000314628461FF070F82069FFF7A1FE0120F6
:108FE00002B0BDE8F08152F803802069FFF792FEDD
:108FF000404641F080011FF02CFA3B462A4631469C
:109000004046E7E7457B0A4690F90C002946009662
:109010001FF0E4FCE4E70020E2E700BF801F01202E
:109020007FB5037904460D461646012B0AD0022B64
:1090300013D18368DB0758BF01F07F01FFF792FE71
:1090400004B070BD04AA90F90C00617B02F8016DB8
:1090500000922A461FF0B8FEF2E70020F0E770B554
:10906000094B0E46811C04465D6BF2B2890028460E
:1090700001F0FC01FFF7D4FF2846A100320A0931B4
:10908000BDE87040C9B2CBE7E02601202DE9F041F0
:109090000E4E8046002406F12807E0B200F00303DC
:1090A00043450ED136F8145037F81430EB1A002B24
:1090B000B8BF5B42052B04DD2946FFF7D0FF27F838
:1090C00014500134102CE8D1BDE8F081F0260120C5
:1090D00038B541F2D7740D4D10220021B4FBF0F4E5
:1090E000686BFFF79DFF01200CF0B9F8621EFE21AE
:1090F000686BD2B2FFF794FF01200CF0B0F8686BF8
:1091000080220021BDE838408AE700BFE026012028
:109110002DE9F3411646027904461F46012A2ED056
:10912000022A35D18568DC2390F90C0015F0010581
:10913000184A03FB00F313D0D5582069FFF7EAFD66
:1091400028461FF086F93B463246002128461EF08D
:10915000B3FF2069FFF7E4FD012002B0BDE8F08114
:1091600052F803802069FFF7D5FD404641F08001A9
:109170001FF06FF93B46324629464046E7E7457BFC
:109180000A4690F90C00294600961FF01DFEE4E700
:109190000020E2E7801F0120037982B0022B1AD160
:1091A0008DF80230032300228DF8033004238DF85C
:1091B000002001228DF8043002AB8DF80120194403
:1091C00090F90C20DC2311F8081C5343034AD058B3
:1091D00002B01EF04EBF02B0704700BF801F0120DA
:1091E00010B5427A044632B1036800F10A014068C2
:1091F00098470023637210BD0D4B53F82000B0B1A7
:109200000C49062202FB001292F95930581C0DD06D
:1092100092F85C0058B192F85B2003EB830313448F
:1092200001EB4303B3F8760080B27047002070472B
:10923000F4470120E026012038B503200D461446EE
:10924000FFF7DAFF07EE900AB8EE677ADFED0A7AE9
:1092500027EE277A5DB1F8EE047AF0EE006AE7EEC9
:10926000267A9FED067A67EE877AC5ED007A0CB113
:10927000034B236038BD00BF6740533A00007A4477
:1092800033139043094BC0B2094930B58B4200D328
:1092900030BD5A88140406D55D68C2F30B02DC6841
:1092A00000FB025222601433F0E700BF68C00408DC
:1092B00000C4040870B544880D4606460021C4F376
:1092C0000B042846224638F0B0FE3169084B99421B
:1092D00008D3084B994205D222462846BDE8704083
:1092E00036F0EEBA19B12846BDE87040084770BDA7
:1092F00000C404086EC604084388426813F4004F93
:109300001EBFC9B2C3F30B0301FB03221146D1E711
:10931000064B07498B4202D30023184670471A8830
:10932000C2F30B029042F8D01433F3E768C004088C
:1093300000C40408024A136823EA00001060704762
:10934000CC9C01202DE9F84F046806460F46C4F373
:109350000D04002C4DD1524B524A934220D902F5B4
:10936000804293421BD902F58042934221D902F5F3
:10937000804293421FD902F5803293421DD902F5F3
:10938000003293421BD902F50032934219D902F5FB
:109390000032934217D905200BF06CFFFBE7012444
:1093A000414B1A7D9846012A0FD14FF0FF30BDE89E
:1093B000F88F0224F4E70324F2E70424F0E70524FD
:1093C000EEE70624ECE70724EAE7012388F81430E7
:1093D00023F0AEFD814630B904F1010A334D4FF060
:1093E000780B54450DD3002388F81430B9F1000FE1
:1093F000DBD12D4D2B7D012B2BD16FF00100BDE872
:10940000F88F2B6923F440732B612B6943F40073AD
:109410002B612B6923F0F8032B619BFAABF22B69CC
:10942000B2FA82F243F0020304FA02F213432B6110
:109430002B6943F480332B61BFF34F8F23F078FD0A
:109440002B6923F07A032B6108B90134C9E78146FF
:10945000C9E70123D6F800802B7523F069FDB0B968
:10946000124C236923F440732361236943F400738E
:109470002361236943F001032361C8F80070BFF33F
:109480004F8F23F055FD236923F00103236100234F
:109490002B750028B1D1336804333360BDE8F88FF1
:1094A00000400008FF3F000844750120003C0240D6
:1094B000F8B504460D468E180027B54201D1206943
:1094C000F8BDE368591C2344E160042915F8012B19
:1094D0001A72F2D1206918B9A1682046FFF732FF4D
:1094E0002061E760E9E738B58D180C46AC4200D141
:1094F00038BD14F8011B29F0A3F9F7E770B5114C3A
:109500000122114E00201149FFF7EDFF22884AB1D8
:10951000A518B54213D2052A11D921462C46FFF7CA
:10952000E2FFF3E721460222FFF7DDFF6388084AE6
:10953000C31AA41A074A58421480584170BD00202B
:1095400070BD00BF01400008008000080040000816
:10955000FC3F0008C434012030B502440446944264
:1095600001D1002011E014F8013B11F8015BA3F1D7
:1095700041001928A5F1410098BF2033192898BF50
:109580002035581B01D1002DE9D130BD70B50346FF
:1095900010F8012B202AFAD0092AF8D02D2A4FF0F2
:1095A00000044FF00A060ABF034601254FF0FF35BD
:1095B000591E11F8010FFEF755FE0A2802D905FBC6
:1095C00004F070BD06FB0404F3E730B502780346EF
:1095D0000130202AFAD0092AF8D02D2A47D1BFEE2F
:1095E000000A0346F2EE046A1A469FED397A1346E2
:1095F00012F8010BA0F13001CCB2092C3DD92E2874
:109600000BD1F2EE046A1146B0EE666A0B4611F811
:10961000012B303AD0B2092838D91A7802F0DF028B
:10962000452A50D15A782D2A3BD102330120013BE3
:1096300000220A2513F8011F3039CCB2092C37D982
:10964000B2F59A7FF7EE007ADFED226A28BF4FF479
:109650009A721346072B2ED8F2EE046A02F0070224
:109660006ABB90B3C7EE276A20EE260A30BD2B2ACC
:1096700008BF0346B7EE000AB4E707EE901AF8EE0B
:10968000E77AE7EE267AB0EE677AB0E707EE902A3F
:10969000F8EEE77AC7EEA65A66EE866A37EE257AC6
:1096A000B4E72B2A4FF0000014BF01330233BEE7AA
:1096B00005FB0212BEE767EEA67A083BCAE767EE33
:1096C000A67A013ACCE7F7EE007A67EE276ACBE795
:1096D0000000000020BCBE4CB5EEC00ADFED2D7AC4
:1096E0000023F1EE10FA30B5C8BF30EE270A87B07C
:1096F000D8BF30EE670ADFED287A054603A900934C
:1097000020EE270A01930293FDEEC07A17EE904AED
:1097100084EAE470A0EBE47024F002F9002C03A8C2
:10972000ACBF20232D238DF8003034F07DFC0128C0
:1097300022D130238DF801308DF802308DF80330BE
:1097400003A9684638F036FD684634F06DFC0338EE
:109750006946C4B22846224638F063FD00230F490B
:1097600028462B5538F026FD0DEB0401284638F02D
:1097700021FD284607B030BD022805D130238DF8E1
:1097800001308DF80230DBE7032804BF30238DF869
:109790000130D5E76F12033A00007A4425AE040881
:1097A00070B5064615460846B6FBF2F414B12046DD
:1097B000FFF7F6FF05FB1464024B1B5D00F8013B4D
:1097C00070BD00BFC87E0408F0B50124B0FBF4F5FD
:1097D0008D4203D200271CB91C70F0BD4C43F5E745
:1097E000B0FBF4F604FB1600B4FBF1F41FB9002E35
:1097F00001DC002CEFD1092E03F1010E08DD002A57
:1098000014BF37255725354401371D707346E2E7ED
:109810003025F8E7084BD3E9002352EA030108D0CA
:1098200006490968521843F10003C0E900230120EA
:1098300070470020704700BFD09F012014BF012057
:10984000F0B5264E8DB004460F466D460FCE0FC5BF
:109850000FCE0FC596E80F0085E80F0014F0030344
:1098600035D1642194FBF1F201FB124242B94FF46D
:10987000C87294FBF2F302FB1343003318BF0123B9
:10988000C3F11D03042040F26D1207210193631EF2
:10989000013F93FBF0F002FB04046FF06300002231
:1098A00093FBF0F020444FF4C87493FBF4F3184496
:1098B00006305DF822309742184490FBF1F4C4EB77
:1098C000C404A0EB040004D1181A0DB0F0BD0123AC
:1098D000D6E701320C2AECD10020F6E7D4220408A6
:1098E000F8B514461D4606464FF47A72002320460A
:1098F000294635F087F92C4B3C22034493FBF2F0C8
:1099000002FB1031B17190FBF2F102FB1102182041
:1099100072714FF4616293FBF2F292FBF0F100FB83
:10992000112222493271224A93FBF2F293FBF1F3A6
:10993000980040F2B55392FBF3F103FB1123B3F50A
:10994000896F2DDA40F2DA2293422BDCB3F5B77F30
:10995000B4BF002201221749182707FB02170B2169
:1099600037F811E0734501DA0139F9D100F5FA60F1
:10997000013310443080481CB0700C2000FB0212F0
:109980000D49204601EB4202294692F83C209B1AE1
:109990004FF47A72F370002335F034F93281F8BD58
:1099A0000322D8E70222D6E780BC92C7801F860731
:1099B0008051010004230408C822040837B5044676
:1099C0006846FFF727FF054638B12046DDE900234A
:1099D000FFF786FF284603B030BD012320802071A9
:1099E000A370E3706071A0712081F3E737B505467D
:1099F000FFF7E4FF044640B1054B02AA294628467A
:109A00001B8822F8023D24F004FC204603B030BD40
:109A10003C7C0120028810B5A2F5FA62C37840F2BE
:109A2000B554591E930802F0030204FB0313817816
:109A30000C24013904FB02120C49847901EB420227
:109A40001821928F1344027901FB032342793C21B0
:109A5000008901FB0323064A224401FB03234FF440
:109A60007A720021C2FB030110BD00BFC8220408A6
:109A700080436D380B684A689A4206D05A1C0A60C7
:109A80001B7800B103700120704700207047026806
:109A90001146531C10B50360D31C11F8024B016032
:109AA0005178036093781B0443EA0123111D23437B
:109AB0000160D07843EA006010BD03685A1C026060
:109AC0001A4612F8021B0260587841EA00207047DB
:109AD00091E80C0010B59B1A0446012B06DD0846E0
:109AE000FFF7EBFF04B12080012010BD002010BD66
:109AF00003685A1C02601878704738B5044615464A
:109B000009C81B1A9A4206DC35F0DAFE22680120E9
:109B10002A44226038BD002038BD38B504460068AC
:109B2000154635F0CDFE22682A44226038BD036810
:109B30005A1C0260197003685A1C02600A0A1A70E3
:109B400003685A1C02600A0C090E1A7003685A1C3A
:109B500002601970704703685A1C02601970090A84
:109B600003685A1C0260197070472DE9F04F89B0E4
:109B700082468B4616461C4600270DF114083178A4
:109B8000002932D0252904D050460136D847013764
:109B9000F5E771784FF000092D2905BFB178F51C64
:109BA000B51C012618BF0026302905BF29780123DE
:109BB000002301350293A1F13003092B07D8084691
:109BC000FEF750FB0A2814D90EB1C9F100096C291F
:109BD00040F089802A786E1C642A00F0BA801BD875
:109BE000252A61D00BD8002AC9D1384609B0BDE872
:109BF000F08F0A2315F8011B03FB0909DFE7582A38
:109C00001BD0632ABBD13546261D0137217850462B
:109C1000D84734462E46B2E7732A39D008D8662A88
:109C200048D06E2AABD13546236804341F60F1E773
:109C3000752A00F08980782AA1D1A2F15800251D4B
:109C40004346102142424241206807E02D23404212
:109C50008DF814300DF1150300220A212C46FFF770
:109C6000B3FDCDF800804A46029B59465046FEF7A8
:109C700018FB074483E72D2340428DF814300DF183
:109C8000150300220A21FFF79FFD2E46039CE8E7FB
:109C9000354623684A465946504600930023FEF74E
:109CA00000FB261D0744B4E7354625215046D8471A
:109CB0000137AFE73546073424F00703D3E9000145
:109CC00003F1080434F040FE00EE100A4046FFF7AE
:109CD00003FDCDF80080029B4A4659465046FEF7E8
:109CE000E0FA074496E764293AD00BD82529DCD05E
:109CF00003D800293FF479AF8CE758290FD06329A6
:109D000082D087E77329C4D004D86629D3D06E29BE
:109D10008AD07FE775290ED078297FF47BAF583938
:109D2000261D206843464A4234462E464A411021A9
:109D3000FFF74AFD95E7231D00220A2120680393BF
:109D40004346FFF741FDA0E7251D434600220A21B7
:109D50007AE72068251D0028FFF678AF43467BE7A9
:109D60002068231D0028039385DB434689E70EB452
:109D70000FB505AB0190074901A853F8042B0393D5
:109D8000FFF7F3FE0022019B1A7004B05DF804EBAC
:109D900003B07047998200082DE9F043384B8DB02D
:109DA00006461B880CAA09A822F80E3D24F031FAB9
:109DB000BDF922203C2192FBF1F301FB13211DB2DE
:109DC000BDF8243009B20029B8BF4942B3F5FA6F93
:109DD00044D39DF82630013B0B2B3FD89DF827300C
:109DE000013B1E2B3AD89DF82830172B36D89DF80A
:109DF00029303B2B32D89DF82A303B2B2ED8BDF88A
:109E00002C30B3F57A7F29D20124002D9DF827004C
:109E10009DF82870B4BF4FF02D094FF02B09002D8D
:109E20009DF829E09DF82AC0BDF82C80B8BF6D428E
:109E30000791BDF824209DF826300695CDF81490A2
:109E4000CDF81080CDF80CC00E498DE88140304629
:109E5000FFF78DFF20460DB0BDE8F0830020012301
:109E6000ADF8240004468DF826308DF827308DF8A3
:109E700028008DF829008DF82A00ADF82C00C4E7E1
:109E80003C7C0120ED7E04080FB437B506AB0B49CE
:109E90000B4853F8042B096800680193FFF765FE2F
:109EA000084D04462868FEF780FE0028FAD02046B8
:109EB00003B0BDE8304004B0704700BF203B012034
:109EC000243B012034B401202DE9F04F00F1100EA5
:109ED00085B007460546002600F14009B0462B46EE
:109EE000BC4615E0F4EC016A1AED047AD3ED007A71
:109EF000E6EEC77AC3ED007AAC420AF1100AF1D15E
:109F000008F101080CF1040C0433B8F1040F03D07C
:109F1000AEF11004E246EFE74FEA860B73464B457D
:109F20001ED003EB0B0AB8469C4609E0FCEC016A24
:109F300018ED047AD4ED047AE6EEC77AC4ED047A1B
:109F4000D44508F11008F1D1D4ED046A103395ED31
:109F5000007AC6EE877A17EE90CA44F810CFDEE793
:109F6000013614350EF1100E0437042EB6D100243C
:109F700002F1100C074606460094019402940394E3
:109F80006C4652F8045BEE4625603546BD4225D14D
:109F9000624504F1040406F1100605F11407F0D13E
:109FA00004AE00F13C0556F8044D0A4642F80C4F49
:109FB0002C4604340432D1ED037AA34219D12A4647
:109FC000103B143D0439D2ED006A834287EEA67A35
:109FD00081ED047AE7D105B0BDE8F08FBEEC017ADF
:109FE000D4ED007AF5EC016AE6EEC77AC4ED007AAA
:109FF000CCE7D4ED006A92ED007AE6EEC77AC1EDC7
:10A00000037AD6E71FB50C46024669461030FFF7C3
:10A010005BFFB6EE007ADDED007A67EE877AC4ED7D
:10A02000007ADDED017A67EE877AC4ED017ADDED25
:10A03000027A67EE877AC4ED027A04B010BDD1EDE2
:10A04000007AB7EE005A90ED066AB8EEE77AD0EDE6
:10A05000047AD0ED095AE7EE077AC0ED047AD1ED23
:10A06000017AF8EEE76AD0ED057AE7EE267AC0EDE0
:10A07000057AD1ED027AF8EEE77AA7EE276A80ED4D
:10A08000066A90ED076A36EE076A80ED076A90ED82
:10A09000086AA7EE266A80ED086A26EEA66A75EEC3
:10A0A000865AA7EE076AC0ED095AD0ED0A5AE6EEC5
:10A0B000A75AA7EEA76AC0ED0A5AD0ED0B5A75EE63
:10A0C000A65AC0ED0B5AD0ED0C5AE7EE275AC0ED58
:10A0D0000C5AD0ED0D5AE6EEA75AC0ED0D5AD0ED50
:10A0E0000E5AE7EEA75AC0ED0E5AD0ED0F5A75EE94
:10A0F000A75AC0ED0F5AD0ED105A75EE875AC0ED31
:10A10000105AD0ED115A75EEA65AC0ED115AD0ED85
:10A11000125A75EEA75AC0ED125AD0ED135A75EEC9
:10A12000855AC0ED135AD0ED005AE7EE065A90ED6D
:10A13000017AA6EE867AC0ED005A80ED017A90EDA4
:10A14000027AA7EE867AD0ED037A37EE866A80ED42
:10A15000036A80ED027A704700F140010346002255
:10A160001A6110335A609A60DA608B4240F8042B0F
:10A17000F6D170470368426880689342DEBF11469B
:10A180001A460B469842A8BF18469042B8BF1046E0
:10A19000704780EAE073A3EBE0738B4206DB002894
:10A1A00001DD401A704702D0084470470020704714
:10A1B00048F6A043984203DDA0F50C40A038704754
:10A1C0000028B8BFC018704744F25063984203DDBE
:10A1D000A0F50C40A0387047034B9842BCBF00F577
:10A1E0000C40A030704700BFB0B9FFFF08B52DED9F
:10A1F000028BB0EEC08AF0EE408AB7EE000A30EE75
:10A20000480A36F0BBF89FED0E7ADFED0E7AF5EED8
:10A21000C08AE8EE077A9FED0C7AF1EE10FAA8EE0C
:10A22000277ADFED0A7AE8EE077ABDEC028B27EE9B
:10A23000800A44BFDFED067A37EEC00A08BD00BFD2
:10A24000306E99BC2716983D843459BEA40DC93F81
:10A25000DB0F4940F0EEE06AB0EEC07AF4EEC76A78
:10A26000F1EE10FAD4BFB0EE476AB0EE666AB5EE12
:10A27000406AF1EE10FA47D0F4EEC76AF1EE10FA38
:10A2800054BFF0EE475AF0EE665AC5EE867A9FED5F
:10A29000206ADFED205A9FED205AE7EE865A9FEDA7
:10A2A0001F6AF4EEC76AF1EE10FAF5EEC00AA7EEE7
:10A2B000A56ADFED1B5A48BF9FED1A7AE7EE865A72
:10A2C0009FED196AA7EEA56ADFED185AA7EEA55A09
:10A2D000F7EE005AB1EE466AE7EE855AC6EE257AE9
:10A2E00048BF77EE677AF1EE10FAB5EEC00A44BFC8
:10A2F0009FED0F7A77EE677AF1EE10FA48BFF1EE34
:10A30000677AB0EE670A7047DFED0A7ABFE700BFF1
:10A3100039094E3DE3B59EBE69A2163E88FA16BEC7
:10A3200045FE7FBFDB0FC93FA7DFA8B499FB243FE1
:10A33000DB0F494000000000FDEEC07A17EE903AB6
:10A340002033402B43D8DFED237A9FED237AB4EE00
:10A35000E70AF1EE10FA28DCDFED207A9FED1E7A95
:10A36000B4EEE70AF1EE10FA22D4DFED1D7AB4EE76
:10A37000E70AF1EE10FA1EDD30EE670A37EEC00A8A
:10A3800060EE007ADFED176A9FED177AA7EEA67AE6
:10A39000DFED166A20EE276AE7EE876A9FED147AF2
:10A3A000A7EEA67AA6EE070A704730EE470ACEE778
:10A3B00030EE070AD4E79FED0F7AB4EEC70AF1EE4C
:10A3C00010FA44BF30EE270A37EE400AD8E79FED77
:10A3D0000A0A7047DB0F4940DB0FC940DB0F49C059
:10A3E000DB0FC93F9A7C2E36FAAF4FB93587083C50
:10A3F000A4AA2ABEDB0FC9BF00000000DFED027A6D
:10A4000030EE270A98E700BFDB0FC93F91ED005AF5
:10A4100008B5B0EE450AFFF7F1FFF0EE405AB0EE96
:10A42000450AFFF789FFD1ED014AB0EE405AB0EE80
:10A43000640AFFF7E3FFB0EE404AB0EE640AFFF7AC
:10A440007BFF91ED023AF0EE403AB0EE430AFFF79F
:10A45000D5FFF0EE404AB0EE430AFFF76DFF65EE20
:10A46000806A25EEA46AC0ED023A65EE247A64EEB5
:10A47000244A25EE007AB0EE463AC0ED004AF0EEEE
:10A48000664A24EE400A25EE445AE3EEA74AE3EE7C
:10A49000A67A80ED010A65EE845A80ED055AC0ED7A
:10A4A000085AC0ED034AF1EE634AC0ED077AA4EE04
:10A4B000873AA4EE867A80ED043A80ED067A08BDEC
:10A4C00038B5334CF0EE404A1D46F7EE005AB4FB67
:10A4D000F2F4A1424FF0000453D207EE901A9FED20
:10A4E0002D7ADFED2D6AF8EE677A67EE877A07EE50
:10A4F000102AB8EE477A27EE267AC5EE876A87EEED
:10A50000A63AB0EE430AFFF717FFF0EE402AB0EE8E
:10A51000430AFFF773FF74EEA44AF8EE006A82EE76
:10A52000A47AF5B1012D25D077EE257A20EE260A02
:10A5300075EEC75A85EE276AC0EE276A85EEA77AC0
:10A5400080ED006A84EE276AC0ED036A80ED047A2C
:10A5500080ED016A83EEA76A80ED026A846144613E
:10A5600038BD35EEC04AB6EE005A24EE055AF0EE7C
:10A57000453AD9E720EE264AF0EE653AB0EE655A44
:10A58000D2E7C0ED005A44608460C4600461E5E72E
:10A5900020A10700DB0FC940BD37863500239FEDA2
:10A5A000010A8DE7F304353F07EE902AB8EE670AFB
:10A5B00007EE903AF8EE677A30B52DED028B83B056
:10A5C00080EE270A0D460446019235F069FB30EE15
:10A5D000008AB0EE000AF0EE480A35F03BFD35F097
:10A5E000CDFEF0EE480AF0EE408AB0EE000A35F0FB
:10A5F00031FDF7EE007A01232A460199204630EE1C
:10A60000670A88EE800A03B0BDEC028BBDE83040DB
:10A6100056E790ED017A07EE901AB5EE407AF1EE2A
:10A6200010FA0BD1F8EEE77A9FED0E7AF7EE006A9A
:10A6300067EE877A86EEA77A80ED017A90ED017A4F
:10A64000D0ED007A30EE877AC0ED020A30EE670A6C
:10A65000C0EE876AE6EE807AB0EE670AC0ED007A57
:10A66000704700BFDB0FC9404840082310F0800F3F
:10A670004FEA400018BF80F0D500013BC0B2F5D1D1
:10A68000704710B50A440C46944200D110BD14F82E
:10A69000011BFFF7E9FFF7E74A09012301F01F015A
:10A6A00003FA01F150F822300B4340F82230704792
:10A6B0000EB4254B1B68002B70B50646A5B030DAEA
:10A6C000224B04A8224C19684FF47A73B1FBF3F2C1
:10A6D00003FB12131F49FFF74AFB04AB299A0546F7
:10A6E00003441D4903A803932AAB0293FFF73DFAE5
:10A6F000039B0246591C03910A211970039B591CA4
:10A70000039100211970206880B103681B6A03B1AE
:10A71000984704A92068FEF77DFA16B1206828F052
:10A72000BBF825B0BDE8704003B070470B4B1B6809
:10A73000002BF6D002212A44FD2000910A4404A9EE
:10A740001BF034FBEDE700BF9C57012014BF012034
:10A75000143E01201B7F04088F820008383B012033
:10A7600038B5144B03301C6804EB9002B2F5807FBF
:10A7700014D8114D20F003001A60920005EB8404F8
:10A780000E4DC2F5806255F82130184445F821007D
:10A7900000200B49FFF78CFF204638BD09490020F7
:10A7A000FFF786FF084A0024136843F00073136024
:10A7B000F2E700BFB82E012074270120BC2E012033
:10A7C000277F04084A7F04087856012008B5D0F88E
:10A7D00014320BB9022008BD1B6898470028F9D134
:10A7E00008BD2DE9F04F0B6885B0DFF8A881019313
:10A7F0000023664ADFF8A0914FF0010E019C0EFA8B
:10A8000003FE0EEA0406B64540F0AB804C6824F027
:10A810001007022F16D14FEAD30A03F0070B4FF0AF
:10A820000F0C00EB8A0A4FEA8B0BDAF820500CFA77
:10A830000BFC25EA0C0C0D6905FA0BF545EA0C0535
:10A84000CAF820504FEA430A0325D0F800B004F0BC
:10A85000030C05FA0AF5013F0CFA0AFCED43012F3F
:10A860000BEA050B4CEA0B0CC0F800C011D8876846
:10A8700007EA050BCF6807FA0AFC4CEA0B0787606A
:10A88000476827EA0E0EC4F300179F4047EA0E07F9
:10A890004760C7683D408F6807FA0AF73D43C560C7
:10A8A000E5005ED5D8F8445023F0030703F0030E0B
:10A8B0004FF00F0C45F4804507F180474FEA8E0EAC
:10A8C000C8F8445007F59C37D8F8445005F4804543
:10A8D0000395039D0CFA0EF5D7F808A02AEA050C9B
:10A8E0002B4DA84244D005F58065A84242D005F51D
:10A8F0008065A84240D005F58065A8423ED005F5A8
:10A900008065A8423CD048453CD005F50065A8428A
:10A910003AD005F58065A84214BF0825072505FA39
:10A920000EF514F4803F45EA0C05BD606FEA06079A
:10A9300015680CBF3D40354314F4003F1560556861
:10A940000CBF3D40354314F4801F556095680CBF23
:10A950003D403543A4029560D56854BF3D40354322
:10A96000D5600133102B7FF447AF05B0BDE8F08F01
:10A970000025D4E70125D2E70225D0E70325CEE75D
:10A980000425CCE70525CAE70625C8E7003C0140B9
:10A990000000024000380240001402407FB578B148
:10A9A00083880068019301F0130305920293C1F3B9
:10A9B0004113C1F381010393049101A9FFF711FF32
:10A9C00007B05DF804FB30B50C4687B0054698B17A
:10A9D0000021142201A837F028FBAB8801A92868C0
:10A9E000019304F013030293C4F34113C4F38104ED
:10A9F00003930494FFF7F5FE07B030BD2DE9F04F47
:10AA0000644D8BB01746044695F894648B460093CA
:10AA1000062E9DF8502009D94FF000085E4900200D
:10AA2000FFF746FE40460BB0BDE8F08F731C05F5FE
:10AA3000936800795FFA83FA019208EB061885F8AB
:10AA400094A4FEF741F9019A814628B1042180F8C7
:10AA500008A081710221C171002A4ED0227A022100
:10AA60004846FFF79BFF5A46206839461DF03CFADE
:10AA700094F80690206894F805B009F002091DF0DA
:10AA8000CFFAE0B16022B9F1000F90F83C300392A8
:10AA90004FF48072CDF8149008924FF4007209922E
:10AAA00014BF08220022012B0692009A04924FF054
:10AAB0000002079203D05A4603A922F015FBA3799E
:10AAC000DA0737D5206803F0040994F805A01DF0D3
:10AAD000A7FA78B30368B9F1000F16D00422196AF7
:10AAE00002FA0AF221EA02011962196A0A431A6299
:10AAF0005A6C42F400425A6418E048461121FFF7AC
:10AB000062FF4846FEF706F9ADE70122196A02FA2C
:10AB10000AF221EA02011962196A0A431A621F4AFB
:10AB20009342E5D002F580629342E1D01A6842F088
:10AB300001021A60206836011DF08BFA62792368E1
:10AB40000C2A1DD8DFE802F0071C1C1C131C1C1C5F
:10AB5000161C1C1C190003F134023544C5F89C3442
:10AB60000023C5F89824A5F8A07413605AE703F1F0
:10AB70003802F2E703F13C02EFE703F14002ECE7B1
:10AB800035440022A5F8A074C5F89824C5F89C3473
:10AB90001260FFDEE0260120587F0408000001401B
:10ABA00008B5FEF791F848B11D22202182710E22CE
:10ABB000C27100220272BDE8084004E708BD0368C4
:10ABC00010B51A790446022A02D1987AFFF7E8FFF5
:10ABD00000232360237110BD70B51E46254D264B02
:10ABE0009D4201D300241AE06C798C423AD12C7931
:10ABF000844201D0002835D12C7A944232D12C687D
:10AC00002C220021204637F010FA25602B79237181
:10AC1000012BEA88A26004D0E4D3022B0AD020469C
:10AC200070BDE87AFEF750F860616B7A2373AB7AF7
:10AC30006373F4E7E87AFEF747F860616B7A237391
:10AC4000A87AFEF741F80546206168B10E238671A7
:10AC50000D21C37100230372FFF7B5FE2069FEF7D3
:10AC60005FF8DCE70C35BBE720462C46FFF7A7FF73
:10AC7000D5E700BFE8010008A80200082DE9F84365
:10AC800000231E4D1F2101201A462F46FFF7A4FF67
:10AC90000446686330B124F019FE044628B9686B95
:10ACA000FFF78DFF2046BDE8F8830022686B002681
:10ACB0001146FEF7B5F93C20FEF70AFA01200AF02A
:10ACC000CEFA5FFA86F8D7F83490002201364FEAC0
:10ACD00088054846EDB2A91D01F0FE01FEF7A0F976
:10ACE000E91D00224846C9B2FEF79AF940F2DC514C
:10ACF0004046FEF7B4F9102EE3D1D3E7E026012059
:10AD00000023174A70B5C36603681568196811F007
:10AD1000080F114604D0134EDA6912F4001209D05C
:10AD2000202380F8693080F86A30002380F868308A
:10AD3000184670BD0C68641BB442EDD9196821F443
:10AD4000D0711960996821F001019960202380F881
:10AD5000682080F8693080F86A30032070BD00BF39
:10AD600040750120FEFFFF01436ADA0710B506D5E2
:10AD70000168846A4A6822F4003222434A609C07D0
:10AD800006D50168C46A4A6822F4803222434A60C8
:10AD9000590706D50168046B4A6822F480222243D1
:10ADA0004A601A0706D50168446B4A6822F40042DB
:10ADB00022434A60DC0606D50168846B8A6822F467
:10ADC000805222438A60990606D50168C46B8A685E
:10ADD00022F4005222438A605A0610D50168046C9E
:10ADE0004A68B4F5801F22F4801242EA04024A60E5
:10ADF00005D14A68446C22F4C00222434A601B0613
:10AE000006D50268816C536823F400230B4353601A
:10AE100010BD10B590F86A300268222B28D18368E3
:10AE2000B0F85C10B3F5805F436D1BD10469CCB9F9
:10AE3000526A114023F8021B4365B0F85A30013BB7
:10AE40009BB2A0F85A305BB90268116821F4907186
:10AE50001160916821F001019160202280F86A2040
:10AE6000002010BD526A5C1C114044651970E4E773
:10AE70009369022043F00803936110BD82B0054B33
:10AE8000019018681A680199121A8A42FAD302B01E
:10AE9000704700BF407501200A4B013B01D10320E0
:10AEA00070470269002AF8DA0369064A43F0010391
:10AEB0000361013AF3D0036913F00103F9D1184695
:10AEC000704700BF410D030010B500240129C0F8F0
:10AED000104BD0F8104B44F40024C0F8104BD0F8BD
:10AEE000104B44F01804C0F8104BD0F8104B44F04D
:10AEF000C044C0F8104B05D14FF08023C0F8142B8C
:10AF0000C0F8003B002010BD00286CD090F83D3008
:10AF100003F0FF020BB980F83C200223344980F88B
:10AF20003D3003688B421A6812D0B3F1804F0FD0C6
:10AF3000A1F57C418B420BD001F580618B4207D09B
:10AF400001F580618B4203D001F578418B421DD120
:10AF5000816822F070020A4325498B4204D122F411
:10AF6000407201690A4328E0B3F1804FF7D02149CC
:10AF70008B42F4D001F580618B42F0D001F5806105
:10AF80008B42ECD001F578418B42E8D01A498B42D4
:10AF9000E5D001F580618B42E1D001F580618B4203
:10AFA000DDD0A1F598318B42D9D001F580618B427B
:10AFB000D5D001F580618B42D1D0816922F0800229
:10AFC0000A431A60C268DA6242689A62084A934287
:10AFD0000BD002F58062934207D001225A6180F8BB
:10AFE0003D20002070470120704742691A63F4E752
:10AFF0000000014000040040004001404BB21C2210
:10B00000002B4FEAD37310B5044601F07F00ACBFAC
:10B0100002FB014102FB00414FF00102A8BF01F514
:10B02000FC71C0B2B8BF38318A7008704B7094F8A8
:10B03000B833934224D084F8B8234B782268012B8C
:10B0400009784FF020030CBF02F5106202F5306260
:10B0500013FB01231A68002A03DB1A6822F08042DE
:10B060001A601A6842F400121A6028B904F56F7267
:10B07000217C2068FFF728FF002084F8B80310BD6A
:10B08000022010BD38B501F07F051C2404FB05012A
:10B0900004FB05043831E364002362642365012363
:10B0A00084F8385084F839300369012B08BFA26452
:10B0B000DAB200681DB9FDF73DFA002038BDFDF792
:10B0C000A6FAFAE708B50423C0F8F4310023D0F853
:10B0D00030021A461946FFF7D5FF002008BD08B513
:10B0E000134602228361C0F8F4210A46C36100219D
:10B0F000D0F83002FFF7C6FF002008BD38B501F0D8
:10B100007F051C2404FB050104FB050401F5FC710B
:10B11000C4F80C320023C4F80422C4F8103284F8B6
:10B12000F93184F8F8510369012B08BFC4F80822EB
:10B13000DAB200681DB9FDF7FDF9002038BDFDF752
:10B1400066FAFAE770B50B7804460D4613F0600214
:10B150002CD0202A23D1CA88487812B31B06D4F8F1
:10B1600018620AD5D4F81C3231469B689847EA88A1
:10B1700031462046FFF7B3FF11E0032386F8012292
:10B1800086F800020021C4F8F4311346C4F80821FF
:10B19000C4F80C213246D4F83002FFF7AFFF00208C
:10B1A00070BDD4F81C329B689847F8E74B780A2B9F
:10B1B000F5D101220049DDE7E82B012070B54EB240
:10B1C00001F07F041C25002EB8BF05FB0401E4B28A
:10B1D000A8BF05FB01014FEAD675B4BF383101F5B0
:10B1E000FC71002EB8BFCC80022BCB7008BF0023AF
:10B1F0000C704D7008BF0B718A6090F8B833012B4A
:10B2000043D00126036880F8B86303F500644A78E8
:10B210000D78B2421FD1AA40E66903F5106392B2DD
:10B220003243E26103EB451213681C040ED48C68B0
:10B23000CB78C4F30A04166844F0805444F4004404
:10B2400044EA834343EA855333431360002380F881
:10B25000B833184670BDE269AE4003F5306342EA88
:10B26000064603EB4513E6611A681204EED48A68B9
:10B27000C978C2F30A021C6842F0805242F40042CC
:10B2800042EA814222431A60E0E7022070BDF8B52D
:10B29000037C0446A3BB02234FF400728121D0F843
:10B2A0003002FFF78BFF02234FF400720121D4F824
:10B2B0003002FFF783FF032308228221D4F83002F3
:10B2C000FFF77CFF4FF4077036F076FE0646C4F8B1
:10B2D000180248B3D4F81C3200251B689847277C15
:10B2E000C6F81452C6F81852A7B94FF40073D6F82E
:10B2F00004220121D4F83002FFF700FF3846F8BDE0
:10B30000022340228121D0F83002FFF757FF0223A9
:10B310004022CBE74023D6F804220121D4F83002A2
:10B32000FFF7ECFE2846F8BD0120F8BD094B4FF4AD
:10B3300060429B6892FAA2F2B2FA82F203F460438E
:10B34000D340054A1344054A93F89C301068D8400E
:10B35000704700BF00380240C82204087C1F01204B
:10B36000094B4FF4E0529B6892FAA2F2B2FA82F2D1
:10B3700003F4E053D340054A1344054A93F89C3044
:10B380001068D840704700BF00380240C822040847
:10B390007C1F0120194A936803F00C03042B10B59D
:10B3A00003D0082B03D0164810BD164810BD5168B5
:10B3B00047F6C074536801F03F0113F4800F5368DF
:10B3C00094FAA4F0B0FA80F003EA04034FF4403298
:10B3D00023FA00F314BF0B480948B0FBF1F05843BF
:10B3E000064B5B6892FAA2F2B2FA82F203F440339F
:10B3F000D34001335B00B0FBF3F010BD00380240D6
:10B400000024F40000127A0038B504460568C369C8
:10B410002169A26828680A4361690A4397491A4367
:10B420000140206A0A43E1682A606A6822F44052B7
:10B430000A436A60A269A968024321F430610A43A1
:10B44000AA608F4A95421BD102F59432D2F890102F
:10B450008C4A01F003010A4492F8A420B3F5004F8E
:10B4600040F0BB80082A00F2B580DFE812F02A0025
:10B47000F100F700B3000301B300B300B3004500CF
:10B48000814A95420AD102F5FA32D2F890107D4AEB
:10B4900001F00C010A4492F8A820DFE77B4A9542AC
:10B4A0002FD102F5F832D2F8902002F03002102AA3
:10B4B00000F0DD8017D8002A5AD1B3F5004F40F0D4
:10B4C000A380FFF74DFF61684A0802EB4003B3FB1E
:10B4D000F1F39BB2002023F00F02C3F34203216873
:10B4E0001343CB6038BD202A00F0B580302A3FD10D
:10B4F000B3F5004F40F0A4806068430803F5803343
:10B50000B2E0634A95420ED102F5F632D2F89020AD
:10B5100002F0C002402A00F0AA80CCD9802A00F0B4
:10B520009A80C02AE3E75B4A954211D102F5F432D2
:10B53000D2F8902002F44072B2F5807F00F097803C
:10B54000B9D9B2F5007F00F08680B2F5407FCEE732
:10B55000514A954217D102F59232D2F8902002F466
:10B560004062B2F5806F00F0828006D8002A6CD06D
:10B57000B3F5004F2ED0012038BDB2F5006F6AD070
:10B58000B2F5406FB3E7454A95420FD102F5E0327C
:10B59000D2F8902002F44052B2F5805F67D08AD989
:10B5A000B2F5005F57D0B2F5405FA0E73C4A954244
:10B5B000DED102F5DE32D2F8902002F44042B2F53C
:10B5C000804F54D07FF677AFB2F5004F43D0B2F53D
:10B5D000404F8CE7012000237DE7082ACBD801A348
:10B5E00053F822F009B600081FB6000825B6000877
:10B5F00077B500083BB6000877B5000877B50008B6
:10B6000077B5000841B60008FFF7AAFE636800EBB3
:10B610005300B0FBF3F080B2E860002038BDFFF7C4
:10B6200085FEF3E76268530803F5740303F51053CE
:10B63000B3FBF2F39BB2EB60EFE7FFF7ABFEE5E79E
:10B640006268530803F50043F2E7B3F5004FE6D113
:10B65000FFF76CFE37E7B3F5004FE3D160684308AE
:10B6600003F1F47303F59043B3FBF0F331E7B3F563
:10B67000004FE2D1FFF78EFE25E700BFF369FFEF31
:10B6800000100140C8220408004400400048004067
:10B69000004C004000500040001401400078004081
:10B6A000007C004030B50568C1F30901039C68685F
:10B6B000234320F07F70194320F4593041EA0241BE
:10B6C00020F47F7020F003000143696030BDF0B5C5
:10B6D000059D06680D4FB46931EA04040CBF0124CE
:10B6E0000024944201D00020F0BD5C1CF3D01BB1BB
:10B6F0003C68641BA342EED2202380F84130002333
:10B7000080F8423080F840300320F0BD40750120C1
:10B7100003689A69910701D500229A629A69D20753
:10B7200003D49A6942F001029A6170470268436B40
:10B730009169126803B1184770470023F7B5019368
:10B7400008225A4B0446856D1F68C36D2E689A40C7
:10B7500016420CD001680868400708D5086820F038
:10B7600004000860AA60626D42F001026265504AFE
:10B770009A40164208D021684969090604D5AA6092
:10B78000626D42F0020262654A4A9A40164208D04F
:10B7900021680968880704D5AA60626D42F0040236
:10B7A000626510229A40164210D023681968090772
:10B7B0000CD5AA601A68500335D51B68190301D44B
:10B7C000236C00E0A36C0BB120469847E16D20226A
:10B7D0008A40164238D023681868C60634D5AA6055
:10B7E00094F83520052A1A6825D122F016021A602D
:10B7F0005A6922F080025A61226C0AB9A26C1AB10D
:10B800001A6822F008021A603F238B40AB600023C5
:10B8100084F83430012384F83530236D0BB1204691
:10B82000984703B0F0BD1A68D205C9D41A6822F04F
:10B8300008021A60C4E7500328D51B68190332D4E4
:10B84000636C0BB120469847636D002BE9D0636DA4
:10B85000DA0719D50523226884F83530136823F0F8
:10B86000010313604FF41653B7FBF3F7019B013349
:10B870009F42019302D31368DB07F7D4002384F8B7
:10B880003430012384F83530E36CC7E71A6812F4CA
:10B89000807208D1196821F010011960012384F821
:10B8A000342084F83530E36BCBE700BF7C1F0120E8
:10B8B000010080000400800090F83530022B03D096
:10B8C00080234365012070470268052380F83530E6
:10B8D0000020136823F00103136070470023304AEF
:10B8E00010B580F842300446C2624385436C194368
:10B8F000416490F84130282B07D090F84130292B33
:10B9000003D090F841302A2B21D103212046FCF7A7
:10B910007DFF282384F8413000232363214B636398
:10B92000236819681A6811F480411DD022F48042FE
:10B93000A06B1A601C4B0365002384F84030FFF7AE
:10B94000BBFF58B3A06B036DBDE81040184707213B
:10B95000FCF75CFF94F84130602B02D0202384F880
:10B96000413000232363DAE712F400420DD01A6855
:10B97000E06B22F400421A600B4B036584F8401020
:10B98000FFF79AFF50B1E06BDDE794F84130602B90
:10B9900002D1202384F8413084F8402010BD00BF3C
:10B9A0000000FFFFADB900086B88000870B590F883
:10B9B000403004460D461646012B00F01781012346
:10B9C00080F84030CB0640F19880D00640F1958059
:10B9D000638D9BB2002B40F08880E36AB3F1007F57
:10B9E00003D0E36AB3F1007F6AD194F84130282B89
:10B9F00066D129462046FCF74BFFAB065CD5B60660
:10BA00005AD52368202207212046DA610822DA610C
:10BA1000FCF7FCFE236820465A6842F400425A6054
:10BA20005A6822F0FF7222F48B3222F4FF7222F065
:10BA300001025A60FFF76CFE22681368580402D4B2
:10BA40001368190409D594F84130212B0CBFA36B5E
:10BA5000E36B1B685B689BB26385638D9BB21BB114
:10BA6000636C43F0040363646B0710D5636A526A26
:10BA7000591C61621A70238D4BB1013B2385638D84
:10BA8000013B9BB26385636C43F004036364002352
:10BA90002363636384F84230636C002B00F0998069
:10BAA000616C2046FFF71AFF94F84130282B03D130
:10BAB00029462046FCF7ECFE002084F8400070BDCB
:10BAC000E36A13F5803F23680CD094F84120292ABB
:10BAD00008D110222046DA61FFF71AFE2046FCF753
:10BAE00005FF8AE71022DA6187E723681022DA610E
:10BAF000636C43F0040363647FE769071BD5720737
:10BB000019D5638D9BB263B1636A5A1C6262226865
:10BB1000526A1A70238D013B2385638D013B9BB2D2
:10BB20006385638D9BB2002B7FF467AFE36A13F5E7
:10BB3000803FD3D161E72B072CD530072AD594F865
:10BB40004130226803F02803282B20D193699169A2
:10BB50009368D068E068022813D1C3F3C21383EA64
:10BB6000114313F006030CD1A16C0131A164A16C47
:10BB700002297FF442AF0821A364D16184F84030E8
:10BB80003BE704212046FCF741FE0023F6E70823AB
:10BB9000D361FAE7A9077FF530AFB2077FF52DAF84
:10BBA000638D9BB26BB1636A2268591C61621B781A
:10BBB0009362638D013B9BB26385238D013B23859B
:10BBC0001BE7E36AB3F1807F88D0E36A002B85D05E
:10BBD00013E7E36A13F5803F05D0054BE3622023AA
:10BBE00084F8413068E794F84130F8E7022070BDEE
:10BBF0000000FFFF036899691A6810B4CC0508D5E6
:10BC0000140606D5446C44F0010444644FF4807477
:10BC1000DC614C0508D5140606D5446C44F00804D4
:10BC200044644FF48064DC61890508D5120606D5AA
:10BC3000426C42F0020242644FF40072DA61436CDB
:10BC400013F00B0F03D0416C5DF8044B46E65DF832
:10BC5000044B70471F4930B50D6890F83530022B02
:10BC600006D080234365002380F83430012030BDA6
:10BC70000268846D136823F016031360536923F080
:10BC800080035361036C0BB9836C1BB1136823F001
:10BC900008031360136823F001031360136813F0A3
:10BCA000010309D1C16D3F228A40A260012280F8C0
:10BCB000343080F835200BE00B685B1B052BEDD989
:10BCC00020234365002380F83430032380F8353087
:10BCD000184630BD4075012070B590F83440012CF5
:10BCE00035D00124866D002580F8344090F8354029
:10BCF000012C4FF0020428D180F8354004684565D6
:10BD0000256825F48025256063608368402B19D160
:10BD1000A260E160C26D3F239340B360236843F0AB
:10BD200016032360636943F080036361036C1BB1F6
:10BD3000236843F0080323602368002043F00103D5
:10BD4000236070BDA160E260E4E780F83450022017
:10BD500070BD38B50546F0B190F83540E4B2022C1C
:10BD600017D0036800241A6822F001021A60212209
:10BD70001C605C609C60DC601C615A61FCF7D5FD56
:10BD8000EA6D3F23934083606C6585F8344085F805
:10BD90003540204638BD012038BD3C4B70B51D688C
:10BDA000044600286FD00022016880F83420022267
:10BDB00080F835200A6822F001020A600A68D0077C
:10BDC0003CD40B68324D62681D40A368A0691343E0
:10BDD000E26813432269134362691343E269034330
:10BDE0001343226A1343626A042A43EA050301BF2C
:10BDF000266BE56A35432B43042A0B604B6923F01D
:10BE0000070343EA02030BD1A26AE56A13433DB17B
:10BE1000F0B9012A2CD001D3022A01D1EA012AD497
:10BE20004B612046FCF781FDE26D3F239340836028
:10BE300000200123606584F8353070BD1A68521BFC
:10BE4000052ABBD920230320636584F8350070BD23
:10BE5000B0F5005F13D1032AE2D801A050F822F018
:10BE600077BE00081DBE000877BE000871BE00083E
:10BE7000B5F1C07FD4D1402301206365E5E7022AF4
:10BE8000F9D9032AC9E7012070BD00BF4075012020
:10BE90003F8010E02DE9F04F1E2287B004460021BC
:10BEA000B54836F0C2F80022B44B1046A15C4D1ED6
:10BEB000032D94BF43F8221043F822000132042AD4
:10BEC000F4D1002253F82210012900F08E820132B1
:10BED000042AF7D1002253F82210022900F08A82A6
:10BEE0000132042AF7D1002253F82210032900F06E
:10BEF00086820132042AF7D10022114653F822002B
:10BF0000042808BF43F822100132042AF6D19C4FBE
:10BF10000F25994C4FF0000A07F1B508DFF8709231
:10BF2000A07940B394F90760FCF7CEFE20B1072357
:10BF3000C5718371002303720321FEF744FDA179CB
:10BF4000002318F813005A00884240F09881BB186B
:10BF500093F8B6302372C02303FB0693D3F89421E1
:10BF6000511C62720722C3F89411E27201229244BA
:10BF7000A27283F8902101350634EDB2132DCFD192
:10BF8000BAF1000F00F078817E4C00257E4F7F4E85
:10BF900094F86030002B00F06A810122616E4FF44A
:10BFA00040337B48914244F8302C44F8443C4FF0F5
:10BFB000000344F8182C4FF0C00244F8403CD8BFAE
:10BFC0004FF0000E44F8203CC8BF4FF0010E44F87B
:10BFD0001C3C44F83C3C44F8283C44F8243C44F8DD
:10BFE000343C02FB050254F8583C44F82C1C44F83D
:10BFF00038EC44F8483CD2F82811009019B9C2F83E
:10C000002C1104F80C1C009AC02000FB0520D0F86D
:10C01000282112F0100C40F03881D0F82811E046A9
:10C0200021F4885121F0020141F00201C0F82811E9
:10C03000716821F440317160716841F44031716080
:10C04000596821F480715960596841EA0E2159609C
:10C05000596821F04071596059685960996821F414
:10C060000061996099689960996821F070619960A0
:10C0700099689960996821F0405199609968996030
:10C08000996821F002019960996841F00201996074
:10C09000596821F40061596054F8483C54F8182C50
:10C0A000D96A21F47001D96254F82C1CD3F82CE021
:10C0B00001394EEA0151D962996821F40071996001
:10C0C000996841EA422154F8342C9960996821F426
:10C0D00080619960996841EA82219960C0F82CC119
:10C0E000D0F8283123F0030343F00103C0F82831CE
:10C0F000002304F80C3CB8F1000F40F0B88054F86D
:10C100004C3C2046C4F808806360636EC4F80C8021
:10C11000022BC4F82480C4F82C80B4BF00234FF451
:10C120008063C4F8308023614FF4006363614FF48F
:10C130000053A3614FF48073E3614FF40033236233
:10C140000323A36254F8503C2360FFF726FE002827
:10C1500040F08D80A4F148036AB2CDF804804FF01E
:10C160001F09A3634FF00508DFF80CE0012344F832
:10C17000104C03920EE000BF38270120F447012045
:10C18000C8220408300101200020014000230140A2
:10C19000000001209EF80A20002A51D09EF90720B5
:10C1A00003998A424CD15A1C9EF808109EF80BC085
:10C1B000D2B20292019A049214F80C2C012A56D0A1
:10C1C0004FF00102092904F80C2C54F8482C5FD9CF
:10C1D0004FF0030B6FF01D00D2F80CA01BFB010009
:10C1E0004FF0070B0BFA00FB0CFA00F02AEA0B0ADF
:10C1F000C2F80CA0D2F80CA040EA0A00D060062BCE
:10C2000057D86FF0040C506B18FB03C309FA03FCFA
:10C2100001FA03F320EA0C005063506B03435363AD
:10C2200054F8483CBB4206D1122940F0ED807368B7
:10C2300043F4800373609DF8043004F80C3C029BC7
:10C240000EF1060E744A7245A4D10022636E059267
:10C2500014F80C2C012A0AD0012254F8481C04F8C6
:10C260000C2C8A68D20746D58A68D00755D4013588
:10C27000C034032D7FF48CAE07B0BDE8F08F0133DE
:10C28000102B7FF45EAE002364E64FF001082FE729
:10C2900001EB410B4FF0070A10690AFA0BFA0CFA8E
:10C2A0000BFC20EA0A00106110694CEA00001061E2
:10C2B000A5E70C2B0FD86FF0220C106B18FB03C3F3
:10C2C00009FA03FC01FA03F320EA0C001063106B77
:10C2D00003431363A4E76FF0400CD06A18FB03C359
:10C2E00009FA03FC01FA03F320EA0C00D062D06AD9
:10C2F0000343D36294E78A68484842F001028A60A7
:10C30000474A1268B2FBF0F202EB42020592059A2C
:10C31000002AA9D0059A013AF8E7009AC02000FB4C
:10C320000520D0F8282122F4E06222F0010242F434
:10C330008072C0F828214A68520507D5D0F8282114
:10C3400022F4405242F48052C0F828210098C022C2
:10C3500002FB0502D2F8280110F4805003D0D2F875
:10C360002C0120F00600C2F82C01002254F8100C19
:10C370004FF00A0E04F80C2C4C312A4AC2632A4AA8
:10C3800002642A4AC2646FF0220241F84C2C51F830
:10C39000482C42F0806241F8482C51F8442C42F479
:10C3A000807241F8442C224A0EFB0522FFF794FCD0
:10C3B000736813F01F0F54F8483C09D19A6812F0C3
:10C3C000405F7FF454AF9A6842F080429A604EE733
:10C3D000BB427FF44CAFBB6813F0405F7FF447AFC4
:10C3E000BB6843F08043BB6041E73021114A82F8CB
:10C3F0005E106FE534210F4A82F8641073E5202146
:10C400000C4A82F86A1077E511297FF414AF73683B
:10C4100043F400030EE700BF5027012040420F0005
:10C420007C1F01201D8400081B8400080B84000869
:10C4300056270120E026012003685A6822F0E00216
:10C440005A604268B2F5827F0AD18268B2F5004F25
:10C4500002D0B2F5806F03D11A6822F040021A6050
:10C46000826AB2F5005F09D11A6822F40052120400
:10C47000120C1A601A6842F400521A60012380F804
:10C480005D30002380F85C300320704737B50446E8
:10C490000F4D0068836813F4C06F10D0037BDBB2CC
:10C4A0008DF807309DF807304B1CF3D019B12B687D
:10C4B0009B1A9942EED82046FFF7BEFF10B9002024
:10C4C00003B030BD236E032043F020032366F7E75B
:10C4D0004075012038B50446154602681548936832
:10C4E00013F4C05F0AD04B1CF9D019B103685B1B71
:10C4F0009942F4D82046FFF79FFFA0B922680D4863
:10C5000093681B060AD54B1CFAD019B103685B1B54
:10C510009942F5D82046FFF78FFF20B92A462046DA
:10C52000BDE83840B2E7236E032043F020032366C2
:10C5300038BD00BF40750120154B1A6803681B68A1
:10C54000DB0513B521D4846B23682046596821F09C
:10C5500020015960596821F0020159606421FFF7F8
:10C56000B9FF18B1236E43F020032366A36833B9E3
:10C5700001932368DA6801929B680193019B002371
:10C58000E387012384F85D30236E02B010BD00BF45
:10C59000407501200368014630B55C6885B09A6833
:10C5A00002F04105012D05D1650603D5C36C9847FE
:10C5B00005B030BD950704D5200602D50B6D0846A1
:10C5C000F5E712F4B07FF3D0A506F1D550060ED5ED
:10C5D00091F85D000025032841D0086E40F004006A
:10C5E00008660095D86800909868009000989506B5
:10C5F0000CD5086E40F00100086600200290986893
:10C600000290186820F0400018600298D00508D504
:10C610000A6E42F008020A66002203929A680392A8
:10C62000039A0A6E002AC3D05A6822F0E0025A60C8
:10C63000012281F85D20A207BAD05A68886D22F0E5
:10C6400003025A6018B1094B0365FFF735F9486DCD
:10C650000028ADD0054B0365FFF72EF9A8E701953B
:10C66000DA6801929B680193019BA1E75589000854
:10C6700070B500284BD00023836290F85D3003F042
:10C68000FF020BB980F85C2002230168C26880F8C1
:10C690005D300B68B2F5E06F23F040030B604FF0A4
:10C6A000000331D91C46B2F5706F18BF8362036B6B
:10C6B0002BB9B2F5E06F8CBF0223012303638668B8
:10C6C0004368856933430669334346693343C66922
:10C6D0003343066A334305F400762D0C334305F0EB
:10C6E00004050B60436A1A43436B1A432A432243EF
:10C6F0004A600122CB6923F40063CB610023036607
:10C7000080F85D20184670BD4FF48054CDE70120BD
:10C7100070BD002808DB4209012300F01F0003FA66
:10C7200000F0024B43F82200704700BF00E100E038
:10C7300000F1360130B5084B024603F1100453F8FE
:10C74000045BA34242F8045BF9D112301B88884293
:10C750001380F0D130BD00BFA0230408A0F2DC504C
:10C76000164BB0F5FA7FA8BF4FF4FA70984210B597
:10C77000B8BF18460C461146FDF70BFD9FED107A29
:10C7800000B2FBEE096AE4B207EE900AF8EEE77A2F
:10C7900087EE870A07EE904AB8EE677ADFED097AEE
:10C7A000E0EE006AE7EE267A67EE807AB3EE090AD9
:10C7B00087EE800A33F07EFA00B210BD0CFEFFFF58
:10C7C0000000C84200401C45C04A13682DE9F04FE4
:10C7D0009B6A82469046BE4C2DED028B87B0039338
:10C7E000BC4BD9789946002900F0CE802646BA4F36
:10C7F00008F0DCFC23690546002B40F0BF803B6855
:10C80000039903F16302A5EB0A030B449A42EFDAA2
:10C81000A368AF489847002800F0AB80AF4FB7F847
:10C820004860002E40F0B280B4F92620B4F92030E0
:10C83000DFF8F0929B1AB4F9282049464846C9F817
:10C840000030B4F92230DFF8E0829B1AB4F92A20D4
:10C85000A34FC9F80430B4F92430DFF888B29B1A2A
:10C8600094F83C20C9F8083011F0F2FE484611F067
:10C870001AFFCDF80880CDF81490059B4FEA860981
:10C8800053F8263007EE903A0493964BB8EEE78AB9
:10C89000D4ED077A1B78012B28EE278A04D1B0EE5D
:10C8A000480A33F007FA3880022E08D09BF800308F
:10C8B0000B2B04D1B0EE480A33F0FCF938808A4AD9
:10C8C000B0EE480A894B59F802001B689847022EBF
:10C8D000B0EE408A06D09BF800300B2B02D133F02B
:10C8E000E9F9B880824AB0EE480A824B59F8020052
:10C8F0001B6898479BF80030B0EE408A022B02D1AB
:10C9000033F0D8F938807C4AB0EE480A7B4B0136C8
:10C9100059F8020002371B689847794A794B59F851
:10C9200002001B689847029B032EA3EC010A0293A6
:10C93000A3D1039BA5EB0A0573491D449FED737AB0
:10C94000D1E9002307EE905A5219F8EEE77A43EB4B
:10C95000E57367EE877AC1E900236D4B6D4AF8EC09
:10C96000016A93ED007A4245A7EEA67AA3EC017A1C
:10C97000F5D107B0BDEC028BBDE8F08F304698478B
:10C9800000283FF43CAF43E7054641E799F8013002
:10C990003D46614EB94608EE103A4FF0000A06F1E6
:10C9A000060BDFED5E8A4FF47A72B7F8480036F96D
:10C9B000021FB0F57A7F07EE901A04BFC9F800A0F5
:10C9C000C5F81CA0F8EEE77AD9F800300B44C9F896
:10C9D0000030EB690133012BEB6131D1C5ED047AF5
:10C9E000C5ED037AC5ED058A0128A6F806A04BD14E
:10C9F000EB690292012BC5BF03F1FF3395ED067A77
:10CA0000B0EE680A07EE903AC4BFF8EEE77A87EE18
:10CA1000270A33F0B3FC18EE103A029A6BB3F8EE23
:10CA2000C87AF4EEC07AF1EE10FA26D54FF47A7394
:10CA30000022A7F84830284B5A609A60DA6098E7DD
:10CA4000D5ED035A07EE103A37EEE56AB8EEC77A2D
:10CA5000C6EE076A36EEA57AD5ED056A77EEC77A97
:10CA600085ED047A85ED037AE6EE276AF0EE667AC4
:10CA7000C5ED066AC5ED056AB6E7D9F8003003F5DD
:10CA8000FA7393FBF2F3F3805E4509F1040905F1B3
:10CA900014058AD1B7F84800012813D1B4F92A1037
:10CAA000B4F928300091B4F926201D49FDF700FEA5
:10CAB000D8F8003000200021C3E90C01C3E91001BF
:10CAC000C3E90E01B7F84830013BB1E73C0600204E
:10CAD0002032012016530120EC0500208C03002099
:10CAE0000EA401200CA401208C00002034000020A2
:10CAF000EC000020280000204C0100202C00002029
:10CB0000AC0100203000002028040020BD3786350D
:10CB100030040020FC0500203E320120000000000F
:10CB2000937F040800000020F00500202DE9F0416B
:10CB300000240D4D0D4FDFF838806619605906F05E
:10CB400017F8716811B1384605F0E9FFB16811B105
:10CB5000404605F0E4FF103406F070F8B4F5107F9D
:10CB6000EBD1BDE8F08100BF287A0408BA7F040841
:10CB7000C07F04082DE9F041012500240F4E104F1D
:10CB8000DFF848800F4806F06FF874B90E4B1A684A
:10CB90009200D2F5806205D056F82410384606F08F
:10CBA00063F806E001340135EFE758F82420002A45
:10CBB000F2D1212DF6D1BDE8F08100BFB4230408E5
:10CBC000DC7F0408C67F0408B82E0120BC2E01209B
:10CBD0001FB5074B074A0293074B08490193084BBF
:10CBE00008480093084B06F03FF805B05DF804FBD9
:10CBF00017800408F07F04081F800408FA7F0408E7
:10CC000028800408FF7F0408EA7F04082DE9F04F1C
:10CC10000026534D8DB05348B046B14606F024F877
:10CC2000514B1A680023934222DB01364835182EF7
:10CC3000F6D14E494FF47A734869CC688A69400945
:10CC4000C96940EAC2624A48B4FBF3F306F00CF843
:10CC50000A2298FBF2F399FBF2F102FB138002FB2C
:10CC600011920090434805F0FFFF0DB0BDE8F08F32
:10CC7000414951F823108D4201D00133D3E7AC6A0A
:10CC80005CB107EE904ADFED3D6AF8EEE77A86EE9A
:10CC9000A77AFDEEC77A17EE904A2F6B21466A6B92
:10CCA00041F2883B7F09EB6BD5F838A04FF0000CC0
:10CCB00047EAC267634352090B92E217CDE90812B3
:10CCC000099AA4FB0A010AFB02331BEB000B4FF489
:10CCD0007A72194458464FF0000341F2883B4CEBFE
:10CCE000010C614631F0DEFF0B9B099A4FF0000CFE
:10CCF00063430A9007FB02334FF47A72A4FB0701E7
:10CD00001BEB000B19444FF000034CEB010C584691
:10CD1000614631F0C7FF062E4FF47A720A991CBFA4
:10CD20000A9B8044019718BF99442B6CCDF800A052
:10CD3000B3FBF2F306930A2390FBF3F203FB12001A
:10CD400004920A9A05900E4892FBF3F203FB121329
:10CD500031460292039323462A6805F085FF64E773
:10CD6000080401203480040884050020000000200D
:10CD7000B0800408D280040888050020002474498B
:10CD80007B8004082DE9F3411B4C1C4D04F5137600
:10CD90001B4FDFF874801B4805F066FFE2792168BD
:10CDA00005EB8202A37901F13F4194F808E005EB1D
:10CDB0008303D2F8980001F57E01A2885B69B2FA7C
:10CDC00082F2890ABEF1000F0ED00190C2F11F025B
:10CDD000CDF800E04131404605F046FF0C34B44246
:10CDE000DCD102B0BDE8F0810090C2F11F024131F8
:10CDF000384605F039FFF1E7D0340120A0230408BC
:10CE00002C810408008104081C8104080E4B1B6857
:10CE1000590702D50D4A1278A2B19A0602D50C4ADA
:10CE200012787AB10B4A92F8A00058B10A4A1288D7
:10CE30000AB19B0707D4094BB3F84800003018BF6C
:10CE4000012070470120704778570120D24B012004
:10CE5000E03D0120304C0120064801208C030020D9
:10CE60002DE9F043AF4C87B0256815F0040606D0D5
:10CE700001210020FBF7B0FF07B0BDE8F083FFF70A
:10CE8000C5FFA94B002800F00F8145F4007583F819
:10CE900088602560A54B93F82930012B236814BFC7
:10CEA00043F4802323F480232360A14B1B7843B9F0
:10CEB0000FF02CFD2368002800F0048143F40023C8
:10CEC00023602BF05BFC40B10FF048FD2368002885
:10CED00000F0FB8043F400032360964E0820236893
:10CEE00037683A0754BF43F4807323F48073236098
:10CEF000914B1B88632B23688CBF43F4806323F41E
:10CF0000806323600FF080FC8046002840F0E280C0
:10CF100013200FF079FC002840F0DC8009200FF08E
:10CF200073FC002840F0D680FB0640F1D18003203E
:10CF30000FF06AFC002840F0CD8023200FF064FC45
:10CF400005462BF01BFC90B1B8F1000F40F0C480F7
:10CF500013200FF059FC002840F0BE8003200FF092
:10CF600053FC002840F0B88023200FF04DFC734B99
:10CF70005A789946002A00F0B480714B714A93F8B0
:10CF80000080B8F1000F03D16F4BDB79022B07D182
:10CF9000137A002B00F0A28087F0010707F0010848
:10CFA00023685F0704D41DB1002808BF4FF00108B3
:10CFB00092F9F937002B14DDD2F85C32694603A8E8
:10CFC0000393D2F860320493D2F8643201220593BD
:10CFD00021F068FA68462CF039FFB9F80E30984213
:10CFE00002D8B8F1000F7CD0236843F400632360BB
:10CFF000564B1A68100778D53368D90575D423685D
:10D0000043F480539207236073D533689B0570D433
:10D01000236843F40053236011F0BAFA2368002810
:10D020006BD143F400432360494B187868B92568F5
:10D0300025F0784323F07F03002B61D00FF0E4FB51
:10D0400000285DD045F48045256012200FF0DCFB00
:10D05000236800285CD043F48033172023600FF04E
:10D06000D3FB2368002856D043F400331B202360F1
:10D070000FF0CAFB2368002850D043F08073236070
:10D080002368344A23F0784323F07F0303B102235B
:10D09000137008F08BF8304B1B68C01A0028FFF69D
:10D0A000EBAE19F0A7F9E7E625F4007593F88820B0
:10D0B0002560002A7FF4EEAE012083F8880026F078
:10D0C00021F8E7E623F40023FAE623F4000303E75C
:10D0D000454636E7012534E7012048E74FF00108CF
:10D0E0005EE7236823F4006381E7236823F4805319
:10D0F00088E7236823F400538DE723F4004392E785
:10D1000000200FF081FB00289FD125F480459BE78C
:10D1100023F48033A1E723F40033A7E723F08073DF
:10D12000ADE700BF78560120B82E01207C560120C3
:10D1300044330120E84A01207C04002078C7012004
:10D14000F4440120007F012078AA012078570120B3
:10D15000D40301204D56012050560120084A0346B1
:10D160005079C01A18BF0120032B28BF0023537128
:10D17000C3EBC303034A02EB8303034A1360704704
:10D18000F849012064480120D448012070B50B4EB5
:10D19000044635792D1A18BF0125032834BF0446EB
:10D1A00000242046FCF76EF83471054B04EBC404F0
:10D1B000284603EB4404034B1C6070BDF849012072
:10D1C000422F01208CAA01202DE9F04F8DB0DFF80D
:10D1D000B88118F05DFC674B4FF00309A3EB08031F
:10D1E0000193182200210DEB020034F01EFF019B79
:10D1F000CDF818800793604B1A69002A04DA5F4A59
:10D200005A6002F188325A600CAC01257E2306A8D0
:10D210002A468DF82C5004F8243D2146FCF748F9A5
:10D220004FF0000B2146564C2A460020FCF75BF9D4
:10D23000ADF80E00534B9C423DD30024022204A9BA
:10D2400006A8ADF81040FCF733F9BDF80E00022235
:10D2500004A9FCF748F90CA9022221F8220D06A81E
:10D26000FCF726F9099878B108ABC0F10402214611
:10D27000184434F0DAFE0A9818B9089906A8FCF7A1
:10D2800061F800230A9009939DF82C300A9A23B183
:10D2900039490B6943F000430B61B9F101095FD0D3
:10D2A000002A9ED198F800307E2B5BD1FCF726F93E
:10D2B00000285AD156E062888DF815B0C2F30B06EB
:10D2C000B31DADF810302388C3F30B011B0B8DF891
:10D2D00014301304ADF812101BD4062204A906A8BA
:10D2E000FCF7E6F8BDF80E00062204A9FCF7FBF8EF
:10D2F0003246ADF80E0006A86168FCF7D9F8BDF813
:10D300000E0032466168FCF7EEF8ADF80E001434FA
:10D3100090E700273D460135062204A906A8EDB294
:10D320008DF81550FCF7C4F8BDF80E00062204A9CC
:10D33000FCF7D9F86368ADF80E00324603EB070A34
:10D3400006A837445146FCF7B3F8BDF80E00324644
:10D350005146FCF7C8F8032DADF80E00DBD1D6E737
:10D36000002A9FD0052007F085FF18F075FB0DB04F
:10D37000BDE8F08F00800008003C024023016745B3
:10D3800068C0040800C40408004000082D4A13685F
:10D39000590770B555D523F004032B4D2B49136065
:10D3A0002B6808701A0315D5294C22780B2A0BD844
:10D3B000012340F60301934019400BD113F4C06FD1
:10D3C00002D0FF2016F05EFC224B1A68224B5A60F6
:10D3D0000B232370214C237B73B31E4B204E1B6801
:10D3E000D6F8C0209B1A4FF47A72B3FBF2F3092BE4
:10D3F00022D92268134423602BF068FCD6F8C4308D
:10D40000C01A6423B0FBF3F0636818442B689B07D1
:10D4100060600FD511F010FA60B1124BD6F8C82039
:10D420001B689B1AA2681A44A260D6F8CC20134449
:10D43000C6F8CC30FFF7C8FE0520BDE8704025F0E7
:10D4400061BE70BD785601209C5701201B4F012002
:10D450001A4F012014BF0120EC4D01203CB30120E4
:10D46000B82E01202C5901202DE9F04F6D4C2DEDE7
:10D47000048B83B018F00CFB6B4B9C42C0F0858092
:10D480006A4D6B4C2879FFF781FE6879FFF766FEDD
:10D490006389A2899A42228A24BF00236381E38997
:10D4A0009A42644A28BF0023019228BFE38113688F
:10D4B000998FD88F8842604824BF00229A875F4B9B
:10D4C0001A7C597C914224BF00221A74FBF732FF68
:10D4D0005B4B1B78012B02D14020FBF72BFFAB7974
:10D4E0000BB10123E3700025564EFF27DFF868914A
:10D4F0002C46B046AA5B530812F001014FEA920095
:10D5000003F0773318BF013400F03330A2EB03038C
:10D5100018BFE4B21B1AD00800F011301B1A03EB3D
:10D52000231303F00F3393FBF7F0C0EB00201B1A1B
:10D53000012B0ADD022B0ED111B112EA090F04D121
:10D5400008EB050019F092FB28B10835302DD1D138
:10D55000013C022C06D90D20FBF7DAFE10B1394947
:10D56000FBF7A8FE384A394C938B518B643B8B42B6
:10D57000A8BF0B465383237A042B76D8DFE813F039
:10D580006E00890190019C01A301B4F90230002BC7
:10D59000ADBF4FF000094FF001084FF00309C84636
:10D5A00046464E4501D9143466E7A6EB080A284FD3
:10D5B0003D88002D00F09E817919264B994280F01C
:10D5C0009981052D40F2968122887888C2F30B025A
:10D5D000904224D17A7902F0030296421FD151463B
:10D5E000204697F804B0FBF787FE2188BBEB113F7C
:10D5F00012D1B4F802E0AA1F6068CEF30B018A4290
:10D60000A8BF0A461EF4004F1CBF5FFA8AF301FB55
:10D610000300B91D32F054F90136F6B2C1E70F46E6
:10D62000C6E700BF68C0040800C40408F849012028
:10D63000165301206CA40120006304062A53012024
:10D64000B87A0120C27B012078C70120684D0120F3
:10D650000140000800800008BC83FFFFE388B3F5A9
:10D66000F57FA8BF4FF4F573E38000200EF03DFF77
:10D67000A34B1A68002800F0328122F080621A6001
:10D680006422A04B4FF00A0A27884FF47A78196871
:10D69000658800240E78ED1BC6F1640C05FB06F3CB
:10D6A0005FFA8CFC93FBF2F3974A3B441380B2B2CF
:10D6B00091F8019002EB820E5242C9F1640B4FEADD
:10D6C0004E0E92B213B2002B40F30C81604603FB66
:10D6D00003F10A3210FB00F009FB01F192B291FB59
:10D6E000F0F058448949434393FBFAF373441BB267
:10D6F0006B4393FBF8F33B4421F8143001340B2CBB
:10D70000E0D1834C11F0FEF830220021814834F042
:10D710008CFC814D0FF03AF86422C82021797F4BB0
:10D7200012FB0101A3F830809960617912FB0102BC
:10D730000121DA60002299711A615A619A61DA61F5
:10D740001A625A6283F8282083F829205A859A851C
:10D75000DA85734BB3F90420002A40F0C780B3F98F
:10D760000620002A40F0C280B3F90820002A40F0C9
:10D77000BD80B3F90A20B2F5805F40F0B780B3F9FD
:10D780000C20B2F5805F40F0B180B3F90E30B3F5F4
:10D79000805F40F0AB802B6823F400732B6011F0A6
:10D7A000D5F8604A0526DFED607AB2F8E6105F4BE7
:10D7B00007EE101AB2F8E8105D4CB8EEC77ADFF841
:10D7C000808104F5E477C7EE276A07EE101AB2F8F5
:10D7D000EA10B8EEC77AC3ED006AC7EE276A07EE13
:10D7E000101AB2F8EC1092F8EE201A74B8EEC77A5C
:10D7F000C3ED016AC7EE276A07EE101AB8EEC77AC2
:10D80000C3ED026AC7EE276AC3ED036A2677204696
:10D81000C4F818801422667700216461983434F0CB
:10D8200004FCA742F2D12B68DB0601D526F082F872
